{"contracts/LendingPool.sol":{"LendingPool":{"abi":[{"inputs":[{"internalType":"address","name":"_priceOracle","type":"address"},{"internalType":"address","name":"admin","type":"address"}],"stateMutability":"nonpayable","type":"constructor"},{"inputs":[],"name":"AssetAlreadyListed","type":"error"},{"inputs":[],"name":"AssetNotListed","type":"error"},{"inputs":[],"name":"InsufficientCollateral","type":"error"},{"inputs":[],"name":"InsufficientLiquidity","type":"error"},{"inputs":[],"name":"LiquidationNotPossible","type":"error"},{"inputs":[{"internalType":"address","name":"owner","type":"address"}],"name":"OwnableInvalidOwner","type":"error"},{"inputs":[{"internalType":"address","name":"account","type":"address"}],"name":"OwnableUnauthorizedAccount","type":"error"},{"inputs":[],"name":"ReentrancyGuardReentrantCall","type":"error"},{"inputs":[{"internalType":"address","name":"token","type":"address"}],"name":"SafeERC20FailedOperation","type":"error"},{"inputs":[],"name":"ZeroAddress","type":"error"},{"inputs":[],"name":"ZeroAmount","type":"error"},{"anonymous":false,"inputs":[{"indexed":true,"internalType":"address","name":"asset","type":"address"},{"indexed":false,"internalType":"uint256","name":"collateralFactor","type":"uint256"},{"indexed":false,"internalType":"uint256","name":"liquidationBonus","type":"uint256"}],"name":"AssetConfigUpdated","type":"event"},{"anonymous":false,"inputs":[{"indexed":true,"internalType":"address","name":"asset","type":"address"},{"indexed":false,"internalType":"address","name":"irm","type":"address"},{"indexed":false,"internalType":"uint256","name":"collateralFactor","type":"uint256"},{"indexed":false,"internalType":"uint256","name":"liquidationBonus","type":"uint256"}],"name":"AssetListed","type":"event"},{"anonymous":false,"inputs":[{"indexed":true,"internalType":"address","name":"user","type":"address"},{"indexed":true,"internalType":"address","name":"asset","type":"address"},{"indexed":false,"internalType":"uint256","name":"amount","type":"uint256"}],"name":"Borrow","type":"event"},{"anonymous":false,"inputs":[{"indexed":true,"internalType":"address","name":"user","type":"address"},{"indexed":true,"internalType":"address","name":"asset","type":"address"},{"indexed":false,"internalType":"uint256","name":"amount","type":"uint256"},{"indexed":false,"internalType":"uint256","name":"shares","type":"uint256"}],"name":"Deposit","type":"event"},{"anonymous":false,"inputs":[{"indexed":true,"internalType":"address","name":"liquidator","type":"address"},{"indexed":true,"internalType":"address","name":"borrower","type":"address"},{"indexed":true,"internalType":"address","name":"collateralAsset","type":"address"},{"indexed":false,"internalType":"address","name":"borrowAsset","type":"address"},{"indexed":false,"internalType":"uint256","name":"repayAmount","type":"uint256"},{"indexed":false,"internalType":"uint256","name":"seizedAmount","type":"uint256"}],"name":"Liquidate","type":"event"},{"anonymous":false,"inputs":[{"indexed":true,"internalType":"address","name":"previousOwner","type":"address"},{"indexed":true,"internalType":"address","name":"newOwner","type":"address"}],"name":"OwnershipTransferred","type":"event"},{"anonymous":false,"inputs":[{"indexed":true,"internalType":"address","name":"newOracle","type":"address"}],"name":"PriceOracleUpdated","type":"event"},{"anonymous":false,"inputs":[{"indexed":true,"internalType":"address","name":"user","type":"address"},{"indexed":true,"internalType":"address","name":"asset","type":"address"},{"indexed":false,"internalType":"uint256","name":"amount","type":"uint256"}],"name":"Repay","type":"event"},{"anonymous":false,"inputs":[{"indexed":true,"internalType":"address","name":"user","type":"address"},{"indexed":true,"internalType":"address","name":"asset","type":"address"},{"indexed":false,"internalType":"uint256","name":"amount","type":"uint256"},{"indexed":false,"internalType":"uint256","name":"shares","type":"uint256"}],"name":"Withdraw","type":"event"},{"inputs":[{"internalType":"address","name":"_asset","type":"address"}],"name":"accrueInterest","outputs":[],"stateMutability":"nonpayable","type":"function"},{"inputs":[{"internalType":"address","name":"","type":"address"}],"name":"assetConfigs","outputs":[{"internalType":"address","name":"assetAddress","type":"address"},{"internalType":"address","name":"irmAddress","type":"address"},{"internalType":"uint256","name":"collateralFactor","type":"uint256"},{"internalType":"uint256","name":"liquidationBonus","type":"uint256"},{"internalType":"bool","name":"isActive","type":"bool"}],"stateMutability":"view","type":"function"},{"inputs":[{"internalType":"address","name":"_asset","type":"address"},{"internalType":"uint256","name":"_amount","type":"uint256"}],"name":"borrow","outputs":[],"stateMutability":"nonpayable","type":"function"},{"inputs":[{"internalType":"address","name":"_asset","type":"address"},{"internalType":"uint256","name":"_amount","type":"uint256"}],"name":"deposit","outputs":[],"stateMutability":"nonpayable","type":"function"},{"inputs":[{"internalType":"address","name":"_user","type":"address"}],"name":"getAccountLiquidity","outputs":[{"internalType":"uint256","name":"totalCollateralValue","type":"uint256"},{"internalType":"uint256","name":"totalBorrowValue","type":"uint256"}],"stateMutability":"view","type":"function"},{"inputs":[{"internalType":"address","name":"_asset","type":"address"},{"internalType":"uint256","name":"_shares","type":"uint256"}],"name":"getAmountForShares","outputs":[{"internalType":"uint256","name":"","type":"uint256"}],"stateMutability":"view","type":"function"},{"inputs":[{"internalType":"address","name":"_asset","type":"address"},{"internalType":"address","name":"_user","type":"address"}],"name":"getTotalDebt","outputs":[{"internalType":"uint256","name":"","type":"uint256"}],"stateMutability":"view","type":"function"},{"inputs":[{"internalType":"address","name":"_borrower","type":"address"},{"internalType":"address","name":"_borrowAsset","type":"address"},{"internalType":"address","name":"_collateralAsset","type":"address"},{"internalType":"uint256","name":"_repayAmount","type":"uint256"}],"name":"liquidate","outputs":[],"stateMutability":"nonpayable","type":"function"},{"inputs":[{"internalType":"address","name":"_asset","type":"address"},{"internalType":"address","name":"_irm","type":"address"},{"internalType":"uint256","name":"_collateralFactor","type":"uint256"},{"internalType":"uint256","name":"_liquidationBonus","type":"uint256"}],"name":"listAsset","outputs":[],"stateMutability":"nonpayable","type":"function"},{"inputs":[{"internalType":"uint256","name":"","type":"uint256"}],"name":"listedAssets","outputs":[{"internalType":"address","name":"","type":"address"}],"stateMutability":"view","type":"function"},{"inputs":[],"name":"owner","outputs":[{"internalType":"address","name":"","type":"address"}],"stateMutability":"view","type":"function"},{"inputs":[{"internalType":"address","name":"","type":"address"}],"name":"poolAccounts","outputs":[{"internalType":"uint256","name":"totalShares","type":"uint256"},{"internalType":"uint256","name":"totalBorrows","type":"uint256"},{"internalType":"uint256","name":"borrowIndex","type":"uint256"},{"internalType":"uint256","name":"lastInterestAccruedTimestamp","type":"uint256"},{"internalType":"uint256","name":"totalReserves","type":"uint256"}],"stateMutability":"view","type":"function"},{"inputs":[],"name":"priceOracle","outputs":[{"internalType":"contract IPriceOracle","name":"","type":"address"}],"stateMutability":"view","type":"function"},{"inputs":[],"name":"renounceOwnership","outputs":[],"stateMutability":"nonpayable","type":"function"},{"inputs":[{"internalType":"address","name":"_asset","type":"address"},{"internalType":"uint256","name":"_amount","type":"uint256"}],"name":"repay","outputs":[],"stateMutability":"nonpayable","type":"function"},{"inputs":[{"internalType":"address","name":"_newOracle","type":"address"}],"name":"setPriceOracle","outputs":[],"stateMutability":"nonpayable","type":"function"},{"inputs":[{"internalType":"address","name":"newOwner","type":"address"}],"name":"transferOwnership","outputs":[],"stateMutability":"nonpayable","type":"function"},{"inputs":[{"internalType":"address","name":"_asset","type":"address"},{"internalType":"uint256","name":"_collateralFactor","type":"uint256"},{"internalType":"uint256","name":"_liquidationBonus","type":"uint256"}],"name":"updateAssetConfig","outputs":[],"stateMutability":"nonpayable","type":"function"},{"inputs":[{"internalType":"address","name":"","type":"address"},{"internalType":"address","name":"","type":"address"}],"name":"userAccounts","outputs":[{"internalType":"uint256","name":"shares","type":"uint256"},{"internalType":"uint256","name":"borrowPrincipal","type":"uint256"},{"internalType":"uint256","name":"borrowIndex","type":"uint256"}],"stateMutability":"view","type":"function"},{"inputs":[{"internalType":"address","name":"_asset","type":"address"},{"internalType":"uint256","name":"_shares","type":"uint256"}],"name":"withdraw","outputs":[],"stateMutability":"nonpayable","type":"function"}],"evm":{"bytecode":{"linkReferences":{},"object":"60806040523480156200001157600080fd5b50604051620024b8380380620024b8833981016040819052620000349162000130565b806001600160a01b0381166200006457604051631e4fbdf760e01b81526000600482015260240160405180910390fd5b6200006f81620000c3565b50600180556001600160a01b0382166200009c5760405163d92e233d60e01b815260040160405180910390fd5b50600280546001600160a01b0319166001600160a01b039290921691909117905562000168565b600080546001600160a01b038381166001600160a01b0319831681178455604051919092169283917f8be0079c531659141344cd1fd0a4f28419497f9722a3daafe3b4186f6b6457e09190a35050565b80516001600160a01b03811681146200012b57600080fd5b919050565b600080604083850312156200014457600080fd5b6200014f8362000113565b91506200015f6020840162000113565b90509250929050565b61234080620001786000396000f3fe608060405234801561001057600080fd5b506004361061012c5760003560e01c80638da5cb5b116100ad578063d29b3cb111610071578063d29b3cb114610386578063d6446d4314610399578063d7eb003a146103ac578063f2fde38b146103bf578063f3fef3a3146103d257600080fd5b80638da5cb5b146102d75780639198e515146102e8578063a500ba7c146102fb578063aab3f86814610360578063ab78af671461037357600080fd5b80634b8a3529116100f45780634b8a3529146101ff578063530e784f146102125780635ec88c7914610225578063715018a61461024d5780637609d7f61461025557600080fd5b806322867d78146101315780632630c12f146101465780632ff75c591461017657806347e7ef24146101cb57806349e826e6146101de575b600080fd5b61014461013f366004611fdf565b6103e5565b005b600254610159906001600160a01b031681565b6040516001600160a01b0390911681526020015b60405180910390f35b6101b0610184366004612009565b600560209081526000928352604080842090915290825290208054600182015460029092015490919083565b6040805193845260208401929092529082015260600161016d565b6101446101d9366004611fdf565b610594565b6101f16101ec366004611fdf565b6106d4565b60405190815260200161016d565b61014461020d366004611fdf565b6106e9565b61014461022036600461203c565b610a0c565b61023861023336600461203c565b610a85565b6040805192835260208301919091520161016d565b610144610a9a565b6102a261026336600461203c565b6003602081905260009182526040909120805460018201546002830154938301546004909301546001600160a01b039283169492909116929060ff1685565b604080516001600160a01b0396871681529590941660208601529284019190915260608301521515608082015260a00161016d565b6000546001600160a01b0316610159565b6101446102f636600461203c565b610aae565b61033861030936600461203c565b600660205260009081526040902080546001820154600283015460038401546004909401549293919290919085565b604080519586526020860194909452928401919091526060830152608082015260a00161016d565b61014461036e366004612057565b610aba565b6101596103813660046120a2565b610aff565b6101446103943660046120bb565b610b29565b6101f16103a7366004612009565b610cb9565b6101446103ba3660046120fd565b610daa565b6101446103cd36600461203c565b610e52565b6101446103e0366004611fdf565b610e92565b6103ed61103e565b6001600160a01b03821660009081526003602052604090206004015460ff166104295760405163b77e1e0f60e01b815260040160405180910390fd5b8060000361044a57604051631f2a200560e01b815260040160405180910390fd5b61045382611068565b3360009081526005602090815260408083206001600160a01b038616845282528083206006909252822060028201549192909161049857670de0b6b3a764000061049e565b82600201545b826002015484600101546104b29190612146565b6104bc919061215d565b90506000818510156104ce57846104d0565b815b90506104dc818361217f565b600185018190556000036104f6576000600285015561051c565b600083600201541161051057670de0b6b3a7640000610516565b82600201545b60028501555b80836001016000828254610530919061217f565b9091555061054290508633308461123d565b6040518181526001600160a01b0387169033907f05f2eeda0e08e4b437f487c8d7d29b14537d15e3488170dc3de5dbdf8dac4684906020015b60405180910390a35050505061059060018055565b5050565b61059c61103e565b6001600160a01b03821660009081526003602052604090206004015460ff166105d85760405163b77e1e0f60e01b815260040160405180910390fd5b806000036105f957604051631f2a200560e01b815260040160405180910390fd5b61060282611068565b3360009081526005602090815260408083206001600160a01b0386168452825280832060069092528220909161063885856112a4565b90508083600001600082825461064e9190612192565b9091555050815481908390600090610667908490612192565b9091555061068290506001600160a01b03861633308761123d565b60408051858152602081018390526001600160a01b0387169133917fdcbc1c05240f31ff3ad067ef1ee35ce4997762752e3a095284754544f4c709d7910160405180910390a350505061059060018055565b60006106e08383611366565b90505b92915050565b6106f161103e565b6001600160a01b03821660009081526003602052604090206004015460ff1661072d5760405163b77e1e0f60e01b815260040160405180910390fd5b61073682611068565b8015610a035760008061074833611428565b6002546040516341976e0960e01b81526001600160a01b03888116600483015293955091935060009216906341976e0990602401602060405180830381865afa158015610799573d6000803e3d6000fd5b505050506040513d601f19601f820116820180604052508101906107bd91906121a5565b90506000856001600160a01b031663313ce5676040518163ffffffff1660e01b8152600401602060405180830381865afa1580156107ff573d6000803e3d6000fd5b505050506040513d601f19601f8201168201806040525081019061082391906121be565b61082e90600a6122cc565b6108388387612146565b610842919061215d565b90508361084f8285612192565b111561086e57604051633a23d82560e01b815260040160405180910390fd5b6040516370a0823160e01b815230600482015285906001600160a01b038816906370a0823190602401602060405180830381865afa1580156108b4573d6000803e3d6000fd5b505050506040513d601f19601f820116820180604052508101906108d891906121a5565b10156108f75760405163bb55fd2760e01b815260040160405180910390fd5b3360009081526005602090815260408083206001600160a01b038a16845282528083206006909252822060028201549192909161093c57670de0b6b3a7640000610942565b82600201545b826002015484600101546109569190612146565b610960919061215d565b905061096c8882612192565b6001840155600282015461098857670de0b6b3a764000061098e565b81600201545b8360020181905550878260010160008282546109aa9190612192565b909155506109bb905089338a6117ee565b6040518881526001600160a01b038a169033907f312a5e5e1079f5dda4e95dbbd0b908b291fd5b992ef22073643ab691572c5b529060200160405180910390a3505050505050505b61059060018055565b610a14611824565b6001600160a01b038116610a3b5760405163d92e233d60e01b815260040160405180910390fd5b600280546001600160a01b0319166001600160a01b0383169081179091556040517fefe8ab924ca486283a79dc604baa67add51afb82af1db8ac386ebbba643cdffd90600090a250565b600080610a9183611428565b91509150915091565b610aa2611824565b610aac6000611851565b565b610ab781611068565b50565b610ac261103e565b610acd8484846118a1565b600080610adc8686868661195c565b91509150610aee338787878686611c44565b5050610af960018055565b50505050565b60048181548110610b0f57600080fd5b6000918252602090912001546001600160a01b0316905081565b610b31611824565b6001600160a01b03841660009081526003602052604090206004015460ff1615610b6e5760405163a620d1e160e01b815260040160405180910390fd5b6001600160a01b0384161580610b8b57506001600160a01b038316155b15610ba95760405163d92e233d60e01b815260040160405180910390fd5b6040805160a0810182526001600160a01b03868116808352868216602080850182815285870189815260608088018a8152600160808a01818152600089815260038089528d82209c518d546001600160a01b0319908116918e16919091178e5597518d850180548a1691909d1617909b55945160028c01559151988a0198909855516004988901805460ff1916911515919091179055875496870188559690527f8a35acfbc15ff81a39ae7d344fd709f28e8600b4aa8c65c6b64bfe7fe36bd19b9094018054909416831790935584519081529182018690529281018490527f118fa810d8fabcc6b2e10162f8fe68e43ecb99ee012745078a933d901c970ffd910160405180910390a250505050565b6001600160a01b03808216600090815260056020908152604080832093861683529281528282208351606081018552815481526001820154928101839052600290910154938101939093529091908203610d175760009150506106e3565b6001600160a01b038416600090815260066020908152604091829020825160a081018452815481526001820154928101929092526002810154828401526003810154606083015260040154608082015290820151610d7d57670de0b6b3a7640000610d83565b81604001515b81604001518360200151610d979190612146565b610da1919061215d565b95945050505050565b610db2611824565b6001600160a01b03831660009081526003602052604090206004015460ff16610dee5760405163b77e1e0f60e01b815260040160405180910390fd5b6001600160a01b0383166000818152600360208181526040928390206002810187905590910184905581518581529081018490527f6914ee2e02a37a312e7d04b6a20f6ecff93d21b1afcca29966fa4c0ddcf15519910160405180910390a2505050565b610e5a611824565b6001600160a01b038116610e8957604051631e4fbdf760e01b8152600060048201526024015b60405180910390fd5b610ab781611851565b610e9a61103e565b6001600160a01b03821660009081526003602052604090206004015460ff16610ed65760405163b77e1e0f60e01b815260040160405180910390fd5b80600003610ef757604051631f2a200560e01b815260040160405180910390fd5b610f0082611068565b3360009081526005602090815260408083206001600160a01b038616845290915290208054821115610f4557604051633a23d82560e01b815260040160405180910390fd5b6000610f518484611366565b90506000610f5e33611428565b9150506000610f7d3387878760000154610f78919061217f565b611e0c565b905080821115610fa057604051633a23d82560e01b815260040160405180910390fd5b84846000016000828254610fb4919061217f565b90915550506001600160a01b03861660009081526006602052604081208054879290610fe190849061217f565b90915550610ffb90506001600160a01b03871633856117ee565b60408051848152602081018790526001600160a01b0388169133917ff341246adaac6f497bc2a656f546ab9e182111d630394f0c57c710a59a2cb567910161057b565b60026001540361106157604051633ee5aeb560e01b815260040160405180910390fd5b6002600155565b6001600160a01b0381166000908152600660205260408120600381015490918190036110a75750426003820155670de0b6b3a764000060029091015550565b60006110b3824261217f565b90508015806110c457506001830154155b156110cf5750505050565b60006110df858560000154611366565b9050600081156111115781670de0b6b3a764000086600101546111029190612146565b61110c919061215d565b611114565b60005b6001600160a01b0387811660009081526003602052604080822060010154905163f71bd11b60e01b81526004810185905293945090911691829063f71bd11b90602401602060405180830381865afa158015611174573d6000803e3d6000fd5b505050506040513d601f19601f8201168201806040525081019061119891906121a5565b90506000670de0b6b3a764000086838a600101546111b69190612146565b6111c09190612146565b6111ca919061215d565b9050808860010160008282546111e09190612192565b90915550670de0b6b3a764000090506111f98784612146565b61120b90670de0b6b3a7640000612192565b896002015461121a9190612146565b611224919061215d565b6002890155505042600390960195909555505050505050565b6040516001600160a01b038481166024830152838116604483015260648201839052610af99186918216906323b872dd906084015b604051602081830303815290604052915060e01b6020820180516001600160e01b038381831617835250505050611f52565b6001600160a01b038216600081815260066020526040808220600480820154600183015493516370a0823160e01b81523092810192909252939491938593909290916370a0823190602401602060405180830381865afa15801561130c573d6000803e3d6000fd5b505050506040513d601f19601f8201168201806040525081019061133091906121a5565b61133a9190612192565b611344919061217f565b9050806000036113585783925050506106e3565b81548190610d979086612146565b6001600160a01b038216600081815260066020526040808220600480820154600183015493516370a0823160e01b81523092810192909252939491938593909290916370a0823190602401602060405180830381865afa1580156113ce573d6000803e3d6000fd5b505050506040513d601f19601f820116820180604052508101906113f291906121a5565b6113fc9190612192565b611406919061217f565b825490915060000361141c5783925050506106e3565b8154610d978286612146565b6004546000908190815b818110156117e75760006004828154811061144f5761144f6122db565b60009182526020808320909101546001600160a01b0390811680845260038084526040808620815160a081018352815486168152600182810154871682890152600280840154838601529483015460608084019190915260049093015460ff1615156080830152958e168852600587528288208589528752968290208251918201835280548083529581015496820196909652949091015490840152935015611630576000611502848360000151611366565b6002546040516341976e0960e01b81526001600160a01b038781166004830152929350600092909116906341976e0990602401602060405180830381865afa158015611552573d6000803e3d6000fd5b505050506040513d601f19601f8201168201806040525081019061157691906121a5565b90506000856001600160a01b031663313ce5676040518163ffffffff1660e01b8152600401602060405180830381865afa1580156115b8573d6000803e3d6000fd5b505050506040513d601f19601f820116820180604052508101906115dc91906121be565b6115e790600a6122cc565b6115f18385612146565b6115fb919061215d565b9050670de0b6b3a76400008560400151826116169190612146565b611620919061215d565b61162a908b612192565b99505050505b6020810151156117d1576001600160a01b0383166000908152600660209081526040808320815160a08101835281548152600182015493810193909352600281015483830152600381015460608401526004015460808301528301519091906116a157670de0b6b3a76400006116a7565b82604001515b826040015184602001516116bb9190612146565b6116c5919061215d565b6002546040516341976e0960e01b81526001600160a01b038881166004830152929350600092909116906341976e0990602401602060405180830381865afa158015611715573d6000803e3d6000fd5b505050506040513d601f19601f8201168201806040525081019061173991906121a5565b90506000866001600160a01b031663313ce5676040518163ffffffff1660e01b8152600401602060405180830381865afa15801561177b573d6000803e3d6000fd5b505050506040513d601f19601f8201168201806040525081019061179f91906121be565b6117aa90600a6122cc565b6117b48385612146565b6117be919061215d565b90506117ca818b612192565b9950505050505b50505080806117df906122f1565b915050611432565b5050915091565b6040516001600160a01b0383811660248301526044820183905261181f91859182169063a9059cbb90606401611272565b505050565b6000546001600160a01b03163314610aac5760405163118cdaa760e01b8152336004820152602401610e80565b600080546001600160a01b038381166001600160a01b0319831681178455604051919092169283917f8be0079c531659141344cd1fd0a4f28419497f9722a3daafe3b4186f6b6457e09190a35050565b6001600160a01b03821660009081526003602052604090206004015460ff1615806118e857506001600160a01b03811660009081526003602052604090206004015460ff16155b156119065760405163b77e1e0f60e01b815260040160405180910390fd5b61190f82611068565b61191881611068565b60008061192485611428565b9150915080600014806119375750808210155b156119555760405163481f8f2f60e11b815260040160405180910390fd5b5050505050565b6001600160a01b0380851660009081526005602090815260408083209387168352928152828220600690915291812060028301549192839290919083906119ab57670de0b6b3a76400006119b1565b82600201545b826002015484600101546119c59190612146565b6119cf919061215d565b905060001986036119e2578094506119f4565b8086116119ef57856119f1565b805b94505b6002546040516341976e0960e01b81526001600160a01b038a8116600483015260009216906341976e0990602401602060405180830381865afa158015611a3f573d6000803e3d6000fd5b505050506040513d601f19601f82011682018060405250810190611a6391906121a5565b6002546040516341976e0960e01b81526001600160a01b038b81166004830152929350600092909116906341976e0990602401602060405180830381865afa158015611ab3573d6000803e3d6000fd5b505050506040513d601f19601f82011682018060405250810190611ad791906121a5565b90506000611aed670de0b6b3a764000083612146565b6001600160a01b038c1660009081526003602081905260409091200154611b1c90670de0b6b3a7640000612192565b611b26858b612146565b611b309190612146565b611b3a919061215d565b90506000670de0b6b3a76400008b6001600160a01b031663313ce5676040518163ffffffff1660e01b8152600401602060405180830381865afa158015611b85573d6000803e3d6000fd5b505050506040513d601f19601f82011682018060405250810190611ba991906121be565b611bb490600a6122cc565b611bbe9084612146565b611bc8919061215d565b9050611bd48b826112a4565b97506000600560008f6001600160a01b03166001600160a01b0316815260200190815260200160002060008d6001600160a01b03166001600160a01b0316815260200190815260200160002090508060000154891115611c3357805498505b505050505050505094509492505050565b6001600160a01b03808616600090815260056020908152604080832093871683529290529081208054839290611c7b90849061217f565b90915550506001600160a01b03808716600090815260056020908152604080832093871683529290529081208054839290611cb7908490612192565b90915550506001600160a01b038086166000908152600560209081526040808320938816835292815282822060069091529181206002830154909190611d0557670de0b6b3a7640000611d0b565b82600201545b82600201548460010154611d1f9190612146565b611d29919061215d565b9050611d35858261217f565b60018401819055600003611d4f5760006002840155611d75565b6000826002015411611d6957670de0b6b3a7640000611d6f565b81600201545b60028401555b84826001016000828254611d89919061217f565b90915550611d9b9050878a308861123d565b6000611da78786611366565b604080516001600160a01b038b81168252602082018a9052918101839052919250808916918b8216918d16907fac8bbd8fb7420b3123cf9e24d34551e40514ea69c5a1e97c10e513aaf06e7e429060600160405180910390a450505050505050505050565b6001600160a01b038216600090815260036020526040812081611e2f8585611366565b6002546040516341976e0960e01b81526001600160a01b038881166004830152929350600092909116906341976e0990602401602060405180830381865afa158015611e7f573d6000803e3d6000fd5b505050506040513d601f19601f82011682018060405250810190611ea391906121a5565b9050856001600160a01b031663313ce5676040518163ffffffff1660e01b8152600401602060405180830381865afa158015611ee3573d6000803e3d6000fd5b505050506040513d601f19601f82011682018060405250810190611f0791906121be565b611f1290600a6122cc565b611f2490670de0b6b3a7640000612146565b6002840154611f338385612146565b611f3d9190612146565b611f47919061215d565b979650505050505050565b600080602060008451602086016000885af180611f75576040513d6000823e3d81fd5b50506000513d91508115611f8d578060011415611f9a565b6001600160a01b0384163b155b15610af957604051635274afe760e01b81526001600160a01b0385166004820152602401610e80565b80356001600160a01b0381168114611fda57600080fd5b919050565b60008060408385031215611ff257600080fd5b611ffb83611fc3565b946020939093013593505050565b6000806040838503121561201c57600080fd5b61202583611fc3565b915061203360208401611fc3565b90509250929050565b60006020828403121561204e57600080fd5b6106e082611fc3565b6000806000806080858703121561206d57600080fd5b61207685611fc3565b935061208460208601611fc3565b925061209260408601611fc3565b9396929550929360600135925050565b6000602082840312156120b457600080fd5b5035919050565b600080600080608085870312156120d157600080fd5b6120da85611fc3565b93506120e860208601611fc3565b93969395505050506040820135916060013590565b60008060006060848603121561211257600080fd5b61211b84611fc3565b95602085013595506040909401359392505050565b634e487b7160e01b600052601160045260246000fd5b80820281158282048414176106e3576106e3612130565b60008261217a57634e487b7160e01b600052601260045260246000fd5b500490565b818103818111156106e3576106e3612130565b808201808211156106e3576106e3612130565b6000602082840312156121b757600080fd5b5051919050565b6000602082840312156121d057600080fd5b815160ff811681146121e157600080fd5b9392505050565b600181815b8085111561222357816000190482111561220957612209612130565b8085161561221657918102915b93841c93908002906121ed565b509250929050565b60008261223a575060016106e3565b81612247575060006106e3565b816001811461225d576002811461226757612283565b60019150506106e3565b60ff84111561227857612278612130565b50506001821b6106e3565b5060208310610133831016604e8410600b84101617156122a6575081810a6106e3565b6122b083836121e8565b80600019048211156122c4576122c4612130565b029392505050565b60006106e060ff84168361222b565b634e487b7160e01b600052603260045260246000fd5b60006001820161230357612303612130565b506001019056fea2646970667358221220f87ea04138727b1e483f11cb5b8d23dc67e88b572d5e6d2993baa54225ffc0dc64736f6c63430008140033","opcodes":"PUSH1 0x80 PUSH1 0x40 MSTORE CALLVALUE DUP1 ISZERO PUSH3 0x11 JUMPI PUSH1 0x0 DUP1 REVERT JUMPDEST POP PUSH1 0x40 MLOAD PUSH3 0x24B8 CODESIZE SUB DUP1 PUSH3 0x24B8 DUP4 CODECOPY DUP2 ADD PUSH1 0x40 DUP2 SWAP1 MSTORE PUSH3 0x34 SWAP2 PUSH3 0x130 JUMP JUMPDEST DUP1 PUSH1 0x1 PUSH1 0x1 PUSH1 0xA0 SHL SUB DUP2 AND PUSH3 0x64 JUMPI PUSH1 0x40 MLOAD PUSH4 0x1E4FBDF7 PUSH1 0xE0 SHL DUP2 MSTORE PUSH1 0x0 PUSH1 0x4 DUP3 ADD MSTORE PUSH1 0x24 ADD PUSH1 0x40 MLOAD DUP1 SWAP2 SUB SWAP1 REVERT JUMPDEST PUSH3 0x6F DUP2 PUSH3 0xC3 JUMP JUMPDEST POP PUSH1 0x1 DUP1 SSTORE PUSH1 0x1 PUSH1 0x1 PUSH1 0xA0 SHL SUB DUP3 AND PUSH3 0x9C JUMPI PUSH1 0x40 MLOAD PUSH4 0xD92E233D PUSH1 0xE0 SHL DUP2 MSTORE PUSH1 0x4 ADD PUSH1 0x40 MLOAD DUP1 SWAP2 SUB SWAP1 REVERT JUMPDEST POP PUSH1 0x2 DUP1 SLOAD PUSH1 0x1 PUSH1 0x1 PUSH1 0xA0 SHL SUB NOT AND PUSH1 0x1 PUSH1 0x1 PUSH1 0xA0 SHL SUB SWAP3 SWAP1 SWAP3 AND SWAP2 SWAP1 SWAP2 OR SWAP1 SSTORE PUSH3 0x168 JUMP JUMPDEST PUSH1 0x0 DUP1 SLOAD PUSH1 0x1 PUSH1 0x1 PUSH1 0xA0 SHL SUB DUP4 DUP2 AND PUSH1 0x1 PUSH1 0x1 PUSH1 0xA0 SHL SUB NOT DUP4 AND DUP2 OR DUP5 SSTORE PUSH1 0x40 MLOAD SWAP2 SWAP1 SWAP3 AND SWAP3 DUP4 SWAP2 PUSH32 0x8BE0079C531659141344CD1FD0A4F28419497F9722A3DAAFE3B4186F6B6457E0 SWAP2 SWAP1 LOG3 POP POP JUMP JUMPDEST DUP1 MLOAD PUSH1 0x1 PUSH1 0x1 PUSH1 0xA0 SHL SUB DUP2 AND DUP2 EQ PUSH3 0x12B JUMPI PUSH1 0x0 DUP1 REVERT JUMPDEST SWAP2 SWAP1 POP JUMP JUMPDEST PUSH1 0x0 DUP1 PUSH1 0x40 DUP4 DUP6 SUB SLT ISZERO PUSH3 0x144 JUMPI PUSH1 0x0 DUP1 REVERT JUMPDEST PUSH3 0x14F DUP4 PUSH3 0x113 JUMP JUMPDEST SWAP2 POP PUSH3 0x15F PUSH1 0x20 DUP5 ADD PUSH3 0x113 JUMP JUMPDEST SWAP1 POP SWAP3 POP SWAP3 SWAP1 POP JUMP JUMPDEST PUSH2 0x2340 DUP1 PUSH3 0x178 PUSH1 0x0 CODECOPY PUSH1 0x0 RETURN INVALID PUSH1 0x80 PUSH1 0x40 MSTORE CALLVALUE DUP1 ISZERO PUSH2 0x10 JUMPI PUSH1 0x0 DUP1 REVERT JUMPDEST POP PUSH1 0x4 CALLDATASIZE LT PUSH2 0x12C JUMPI PUSH1 0x0 CALLDATALOAD PUSH1 0xE0 SHR DUP1 PUSH4 0x8DA5CB5B GT PUSH2 0xAD JUMPI DUP1 PUSH4 0xD29B3CB1 GT PUSH2 0x71 JUMPI DUP1 PUSH4 0xD29B3CB1 EQ PUSH2 0x386 JUMPI DUP1 PUSH4 0xD6446D43 EQ PUSH2 0x399 JUMPI DUP1 PUSH4 0xD7EB003A EQ PUSH2 0x3AC JUMPI DUP1 PUSH4 0xF2FDE38B EQ PUSH2 0x3BF JUMPI DUP1 PUSH4 0xF3FEF3A3 EQ PUSH2 0x3D2 JUMPI PUSH1 0x0 DUP1 REVERT JUMPDEST DUP1 PUSH4 0x8DA5CB5B EQ PUSH2 0x2D7 JUMPI DUP1 PUSH4 0x9198E515 EQ PUSH2 0x2E8 JUMPI DUP1 PUSH4 0xA500BA7C EQ PUSH2 0x2FB JUMPI DUP1 PUSH4 0xAAB3F868 EQ PUSH2 0x360 JUMPI DUP1 PUSH4 0xAB78AF67 EQ PUSH2 0x373 JUMPI PUSH1 0x0 DUP1 REVERT JUMPDEST DUP1 PUSH4 0x4B8A3529 GT PUSH2 0xF4 JUMPI DUP1 PUSH4 0x4B8A3529 EQ PUSH2 0x1FF JUMPI DUP1 PUSH4 0x530E784F EQ PUSH2 0x212 JUMPI DUP1 PUSH4 0x5EC88C79 EQ PUSH2 0x225 JUMPI DUP1 PUSH4 0x715018A6 EQ PUSH2 0x24D JUMPI DUP1 PUSH4 0x7609D7F6 EQ PUSH2 0x255 JUMPI PUSH1 0x0 DUP1 REVERT JUMPDEST DUP1 PUSH4 0x22867D78 EQ PUSH2 0x131 JUMPI DUP1 PUSH4 0x2630C12F EQ PUSH2 0x146 JUMPI DUP1 PUSH4 0x2FF75C59 EQ PUSH2 0x176 JUMPI DUP1 PUSH4 0x47E7EF24 EQ PUSH2 0x1CB JUMPI DUP1 PUSH4 0x49E826E6 EQ PUSH2 0x1DE JUMPI JUMPDEST PUSH1 0x0 DUP1 REVERT JUMPDEST PUSH2 0x144 PUSH2 0x13F CALLDATASIZE PUSH1 0x4 PUSH2 0x1FDF JUMP JUMPDEST PUSH2 0x3E5 JUMP JUMPDEST STOP JUMPDEST PUSH1 0x2 SLOAD PUSH2 0x159 SWAP1 PUSH1 0x1 PUSH1 0x1 PUSH1 0xA0 SHL SUB AND DUP2 JUMP JUMPDEST PUSH1 0x40 MLOAD PUSH1 0x1 PUSH1 0x1 PUSH1 0xA0 SHL SUB SWAP1 SWAP2 AND DUP2 MSTORE PUSH1 0x20 ADD JUMPDEST PUSH1 0x40 MLOAD DUP1 SWAP2 SUB SWAP1 RETURN JUMPDEST PUSH2 0x1B0 PUSH2 0x184 CALLDATASIZE PUSH1 0x4 PUSH2 0x2009 JUMP JUMPDEST PUSH1 0x5 PUSH1 0x20 SWAP1 DUP2 MSTORE PUSH1 0x0 SWAP3 DUP4 MSTORE PUSH1 0x40 DUP1 DUP5 KECCAK256 SWAP1 SWAP2 MSTORE SWAP1 DUP3 MSTORE SWAP1 KECCAK256 DUP1 SLOAD PUSH1 0x1 DUP3 ADD SLOAD PUSH1 0x2 SWAP1 SWAP3 ADD SLOAD SWAP1 SWAP2 SWAP1 DUP4 JUMP JUMPDEST PUSH1 0x40 DUP1 MLOAD SWAP4 DUP5 MSTORE PUSH1 0x20 DUP5 ADD SWAP3 SWAP1 SWAP3 MSTORE SWAP1 DUP3 ADD MSTORE PUSH1 0x60 ADD PUSH2 0x16D JUMP JUMPDEST PUSH2 0x144 PUSH2 0x1D9 CALLDATASIZE PUSH1 0x4 PUSH2 0x1FDF JUMP JUMPDEST PUSH2 0x594 JUMP JUMPDEST PUSH2 0x1F1 PUSH2 0x1EC CALLDATASIZE PUSH1 0x4 PUSH2 0x1FDF JUMP JUMPDEST PUSH2 0x6D4 JUMP JUMPDEST PUSH1 0x40 MLOAD SWAP1 DUP2 MSTORE PUSH1 0x20 ADD PUSH2 0x16D JUMP JUMPDEST PUSH2 0x144 PUSH2 0x20D CALLDATASIZE PUSH1 0x4 PUSH2 0x1FDF JUMP JUMPDEST PUSH2 0x6E9 JUMP JUMPDEST PUSH2 0x144 PUSH2 0x220 CALLDATASIZE PUSH1 0x4 PUSH2 0x203C JUMP JUMPDEST PUSH2 0xA0C JUMP JUMPDEST PUSH2 0x238 PUSH2 0x233 CALLDATASIZE PUSH1 0x4 PUSH2 0x203C JUMP JUMPDEST PUSH2 0xA85 JUMP JUMPDEST PUSH1 0x40 DUP1 MLOAD SWAP3 DUP4 MSTORE PUSH1 0x20 DUP4 ADD SWAP2 SWAP1 SWAP2 MSTORE ADD PUSH2 0x16D JUMP JUMPDEST PUSH2 0x144 PUSH2 0xA9A JUMP JUMPDEST PUSH2 0x2A2 PUSH2 0x263 CALLDATASIZE PUSH1 0x4 PUSH2 0x203C JUMP JUMPDEST PUSH1 0x3 PUSH1 0x20 DUP2 SWAP1 MSTORE PUSH1 0x0 SWAP2 DUP3 MSTORE PUSH1 0x40 SWAP1 SWAP2 KECCAK256 DUP1 SLOAD PUSH1 0x1 DUP3 ADD SLOAD PUSH1 0x2 DUP4 ADD SLOAD SWAP4 DUP4 ADD SLOAD PUSH1 0x4 SWAP1 SWAP4 ADD SLOAD PUSH1 0x1 PUSH1 0x1 PUSH1 0xA0 SHL SUB SWAP3 DUP4 AND SWAP5 SWAP3 SWAP1 SWAP2 AND SWAP3 SWAP1 PUSH1 0xFF AND DUP6 JUMP JUMPDEST PUSH1 0x40 DUP1 MLOAD PUSH1 0x1 PUSH1 0x1 PUSH1 0xA0 SHL SUB SWAP7 DUP8 AND DUP2 MSTORE SWAP6 SWAP1 SWAP5 AND PUSH1 0x20 DUP7 ADD MSTORE SWAP3 DUP5 ADD SWAP2 SWAP1 SWAP2 MSTORE PUSH1 0x60 DUP4 ADD MSTORE ISZERO ISZERO PUSH1 0x80 DUP3 ADD MSTORE PUSH1 0xA0 ADD PUSH2 0x16D JUMP JUMPDEST PUSH1 0x0 SLOAD PUSH1 0x1 PUSH1 0x1 PUSH1 0xA0 SHL SUB AND PUSH2 0x159 JUMP JUMPDEST PUSH2 0x144 PUSH2 0x2F6 CALLDATASIZE PUSH1 0x4 PUSH2 0x203C JUMP JUMPDEST PUSH2 0xAAE JUMP JUMPDEST PUSH2 0x338 PUSH2 0x309 CALLDATASIZE PUSH1 0x4 PUSH2 0x203C JUMP JUMPDEST PUSH1 0x6 PUSH1 0x20 MSTORE PUSH1 0x0 SWAP1 DUP2 MSTORE PUSH1 0x40 SWAP1 KECCAK256 DUP1 SLOAD PUSH1 0x1 DUP3 ADD SLOAD PUSH1 0x2 DUP4 ADD SLOAD PUSH1 0x3 DUP5 ADD SLOAD PUSH1 0x4 SWAP1 SWAP5 ADD SLOAD SWAP3 SWAP4 SWAP2 SWAP3 SWAP1 SWAP2 SWAP1 DUP6 JUMP JUMPDEST PUSH1 0x40 DUP1 MLOAD SWAP6 DUP7 MSTORE PUSH1 0x20 DUP7 ADD SWAP5 SWAP1 SWAP5 MSTORE SWAP3 DUP5 ADD SWAP2 SWAP1 SWAP2 MSTORE PUSH1 0x60 DUP4 ADD MSTORE PUSH1 0x80 DUP3 ADD MSTORE PUSH1 0xA0 ADD PUSH2 0x16D JUMP JUMPDEST PUSH2 0x144 PUSH2 0x36E CALLDATASIZE PUSH1 0x4 PUSH2 0x2057 JUMP JUMPDEST PUSH2 0xABA JUMP JUMPDEST PUSH2 0x159 PUSH2 0x381 CALLDATASIZE PUSH1 0x4 PUSH2 0x20A2 JUMP JUMPDEST PUSH2 0xAFF JUMP JUMPDEST PUSH2 0x144 PUSH2 0x394 CALLDATASIZE PUSH1 0x4 PUSH2 0x20BB JUMP JUMPDEST PUSH2 0xB29 JUMP JUMPDEST PUSH2 0x1F1 PUSH2 0x3A7 CALLDATASIZE PUSH1 0x4 PUSH2 0x2009 JUMP JUMPDEST PUSH2 0xCB9 JUMP JUMPDEST PUSH2 0x144 PUSH2 0x3BA CALLDATASIZE PUSH1 0x4 PUSH2 0x20FD JUMP JUMPDEST PUSH2 0xDAA JUMP JUMPDEST PUSH2 0x144 PUSH2 0x3CD CALLDATASIZE PUSH1 0x4 PUSH2 0x203C JUMP JUMPDEST PUSH2 0xE52 JUMP JUMPDEST PUSH2 0x144 PUSH2 0x3E0 CALLDATASIZE PUSH1 0x4 PUSH2 0x1FDF JUMP JUMPDEST PUSH2 0xE92 JUMP JUMPDEST PUSH2 0x3ED PUSH2 0x103E JUMP JUMPDEST PUSH1 0x1 PUSH1 0x1 PUSH1 0xA0 SHL SUB DUP3 AND PUSH1 0x0 SWAP1 DUP2 MSTORE PUSH1 0x3 PUSH1 0x20 MSTORE PUSH1 0x40 SWAP1 KECCAK256 PUSH1 0x4 ADD SLOAD PUSH1 0xFF AND PUSH2 0x429 JUMPI PUSH1 0x40 MLOAD PUSH4 0xB77E1E0F PUSH1 0xE0 SHL DUP2 MSTORE PUSH1 0x4 ADD PUSH1 0x40 MLOAD DUP1 SWAP2 SUB SWAP1 REVERT JUMPDEST DUP1 PUSH1 0x0 SUB PUSH2 0x44A JUMPI PUSH1 0x40 MLOAD PUSH4 0x1F2A2005 PUSH1 0xE0 SHL DUP2 MSTORE PUSH1 0x4 ADD PUSH1 0x40 MLOAD DUP1 SWAP2 SUB SWAP1 REVERT JUMPDEST PUSH2 0x453 DUP3 PUSH2 0x1068 JUMP JUMPDEST CALLER PUSH1 0x0 SWAP1 DUP2 MSTORE PUSH1 0x5 PUSH1 0x20 SWAP1 DUP2 MSTORE PUSH1 0x40 DUP1 DUP4 KECCAK256 PUSH1 0x1 PUSH1 0x1 PUSH1 0xA0 SHL SUB DUP7 AND DUP5 MSTORE DUP3 MSTORE DUP1 DUP4 KECCAK256 PUSH1 0x6 SWAP1 SWAP3 MSTORE DUP3 KECCAK256 PUSH1 0x2 DUP3 ADD SLOAD SWAP2 SWAP3 SWAP1 SWAP2 PUSH2 0x498 JUMPI PUSH8 0xDE0B6B3A7640000 PUSH2 0x49E JUMP JUMPDEST DUP3 PUSH1 0x2 ADD SLOAD JUMPDEST DUP3 PUSH1 0x2 ADD SLOAD DUP5 PUSH1 0x1 ADD SLOAD PUSH2 0x4B2 SWAP2 SWAP1 PUSH2 0x2146 JUMP JUMPDEST PUSH2 0x4BC SWAP2 SWAP1 PUSH2 0x215D JUMP JUMPDEST SWAP1 POP PUSH1 0x0 DUP2 DUP6 LT ISZERO PUSH2 0x4CE JUMPI DUP5 PUSH2 0x4D0 JUMP JUMPDEST DUP2 JUMPDEST SWAP1 POP PUSH2 0x4DC DUP2 DUP4 PUSH2 0x217F JUMP JUMPDEST PUSH1 0x1 DUP6 ADD DUP2 SWAP1 SSTORE PUSH1 0x0 SUB PUSH2 0x4F6 JUMPI PUSH1 0x0 PUSH1 0x2 DUP6 ADD SSTORE PUSH2 0x51C JUMP JUMPDEST PUSH1 0x0 DUP4 PUSH1 0x2 ADD SLOAD GT PUSH2 0x510 JUMPI PUSH8 0xDE0B6B3A7640000 PUSH2 0x516 JUMP JUMPDEST DUP3 PUSH1 0x2 ADD SLOAD JUMPDEST PUSH1 0x2 DUP6 ADD SSTORE JUMPDEST DUP1 DUP4 PUSH1 0x1 ADD PUSH1 0x0 DUP3 DUP3 SLOAD PUSH2 0x530 SWAP2 SWAP1 PUSH2 0x217F JUMP JUMPDEST SWAP1 SWAP2 SSTORE POP PUSH2 0x542 SWAP1 POP DUP7 CALLER ADDRESS DUP5 PUSH2 0x123D JUMP JUMPDEST PUSH1 0x40 MLOAD DUP2 DUP2 MSTORE PUSH1 0x1 PUSH1 0x1 PUSH1 0xA0 SHL SUB DUP8 AND SWAP1 CALLER SWAP1 PUSH32 0x5F2EEDA0E08E4B437F487C8D7D29B14537D15E3488170DC3DE5DBDF8DAC4684 SWAP1 PUSH1 0x20 ADD JUMPDEST PUSH1 0x40 MLOAD DUP1 SWAP2 SUB SWAP1 LOG3 POP POP POP POP PUSH2 0x590 PUSH1 0x1 DUP1 SSTORE JUMP JUMPDEST POP POP JUMP JUMPDEST PUSH2 0x59C PUSH2 0x103E JUMP JUMPDEST PUSH1 0x1 PUSH1 0x1 PUSH1 0xA0 SHL SUB DUP3 AND PUSH1 0x0 SWAP1 DUP2 MSTORE PUSH1 0x3 PUSH1 0x20 MSTORE PUSH1 0x40 SWAP1 KECCAK256 PUSH1 0x4 ADD SLOAD PUSH1 0xFF AND PUSH2 0x5D8 JUMPI PUSH1 0x40 MLOAD PUSH4 0xB77E1E0F PUSH1 0xE0 SHL DUP2 MSTORE PUSH1 0x4 ADD PUSH1 0x40 MLOAD DUP1 SWAP2 SUB SWAP1 REVERT JUMPDEST DUP1 PUSH1 0x0 SUB PUSH2 0x5F9 JUMPI PUSH1 0x40 MLOAD PUSH4 0x1F2A2005 PUSH1 0xE0 SHL DUP2 MSTORE PUSH1 0x4 ADD PUSH1 0x40 MLOAD DUP1 SWAP2 SUB SWAP1 REVERT JUMPDEST PUSH2 0x602 DUP3 PUSH2 0x1068 JUMP JUMPDEST CALLER PUSH1 0x0 SWAP1 DUP2 MSTORE PUSH1 0x5 PUSH1 0x20 SWAP1 DUP2 MSTORE PUSH1 0x40 DUP1 DUP4 KECCAK256 PUSH1 0x1 PUSH1 0x1 PUSH1 0xA0 SHL SUB DUP7 AND DUP5 MSTORE DUP3 MSTORE DUP1 DUP4 KECCAK256 PUSH1 0x6 SWAP1 SWAP3 MSTORE DUP3 KECCAK256 SWAP1 SWAP2 PUSH2 0x638 DUP6 DUP6 PUSH2 0x12A4 JUMP JUMPDEST SWAP1 POP DUP1 DUP4 PUSH1 0x0 ADD PUSH1 0x0 DUP3 DUP3 SLOAD PUSH2 0x64E SWAP2 SWAP1 PUSH2 0x2192 JUMP JUMPDEST SWAP1 SWAP2 SSTORE POP POP DUP2 SLOAD DUP2 SWAP1 DUP4 SWAP1 PUSH1 0x0 SWAP1 PUSH2 0x667 SWAP1 DUP5 SWAP1 PUSH2 0x2192 JUMP JUMPDEST SWAP1 SWAP2 SSTORE POP PUSH2 0x682 SWAP1 POP PUSH1 0x1 PUSH1 0x1 PUSH1 0xA0 SHL SUB DUP7 AND CALLER ADDRESS DUP8 PUSH2 0x123D JUMP JUMPDEST PUSH1 0x40 DUP1 MLOAD DUP6 DUP2 MSTORE PUSH1 0x20 DUP2 ADD DUP4 SWAP1 MSTORE PUSH1 0x1 PUSH1 0x1 PUSH1 0xA0 SHL SUB DUP8 AND SWAP2 CALLER SWAP2 PUSH32 0xDCBC1C05240F31FF3AD067EF1EE35CE4997762752E3A095284754544F4C709D7 SWAP2 ADD PUSH1 0x40 MLOAD DUP1 SWAP2 SUB SWAP1 LOG3 POP POP POP PUSH2 0x590 PUSH1 0x1 DUP1 SSTORE JUMP JUMPDEST PUSH1 0x0 PUSH2 0x6E0 DUP4 DUP4 PUSH2 0x1366 JUMP JUMPDEST SWAP1 POP JUMPDEST SWAP3 SWAP2 POP POP JUMP JUMPDEST PUSH2 0x6F1 PUSH2 0x103E JUMP JUMPDEST PUSH1 0x1 PUSH1 0x1 PUSH1 0xA0 SHL SUB DUP3 AND PUSH1 0x0 SWAP1 DUP2 MSTORE PUSH1 0x3 PUSH1 0x20 MSTORE PUSH1 0x40 SWAP1 KECCAK256 PUSH1 0x4 ADD SLOAD PUSH1 0xFF AND PUSH2 0x72D JUMPI PUSH1 0x40 MLOAD PUSH4 0xB77E1E0F PUSH1 0xE0 SHL DUP2 MSTORE PUSH1 0x4 ADD PUSH1 0x40 MLOAD DUP1 SWAP2 SUB SWAP1 REVERT JUMPDEST PUSH2 0x736 DUP3 PUSH2 0x1068 JUMP JUMPDEST DUP1 ISZERO PUSH2 0xA03 JUMPI PUSH1 0x0 DUP1 PUSH2 0x748 CALLER PUSH2 0x1428 JUMP JUMPDEST PUSH1 0x2 SLOAD PUSH1 0x40 MLOAD PUSH4 0x41976E09 PUSH1 0xE0 SHL DUP2 MSTORE PUSH1 0x1 PUSH1 0x1 PUSH1 0xA0 SHL SUB DUP9 DUP2 AND PUSH1 0x4 DUP4 ADD MSTORE SWAP4 SWAP6 POP SWAP2 SWAP4 POP PUSH1 0x0 SWAP3 AND SWAP1 PUSH4 0x41976E09 SWAP1 PUSH1 0x24 ADD PUSH1 0x20 PUSH1 0x40 MLOAD DUP1 DUP4 SUB DUP2 DUP7 GAS STATICCALL ISZERO DUP1 ISZERO PUSH2 0x799 JUMPI RETURNDATASIZE PUSH1 0x0 DUP1 RETURNDATACOPY RETURNDATASIZE PUSH1 0x0 REVERT JUMPDEST POP POP POP POP PUSH1 0x40 MLOAD RETURNDATASIZE PUSH1 0x1F NOT PUSH1 0x1F DUP3 ADD AND DUP3 ADD DUP1 PUSH1 0x40 MSTORE POP DUP2 ADD SWAP1 PUSH2 0x7BD SWAP2 SWAP1 PUSH2 0x21A5 JUMP JUMPDEST SWAP1 POP PUSH1 0x0 DUP6 PUSH1 0x1 PUSH1 0x1 PUSH1 0xA0 SHL SUB AND PUSH4 0x313CE567 PUSH1 0x40 MLOAD DUP2 PUSH4 0xFFFFFFFF AND PUSH1 0xE0 SHL DUP2 MSTORE PUSH1 0x4 ADD PUSH1 0x20 PUSH1 0x40 MLOAD DUP1 DUP4 SUB DUP2 DUP7 GAS STATICCALL ISZERO DUP1 ISZERO PUSH2 0x7FF JUMPI RETURNDATASIZE PUSH1 0x0 DUP1 RETURNDATACOPY RETURNDATASIZE PUSH1 0x0 REVERT JUMPDEST POP POP POP POP PUSH1 0x40 MLOAD RETURNDATASIZE PUSH1 0x1F NOT PUSH1 0x1F DUP3 ADD AND DUP3 ADD DUP1 PUSH1 0x40 MSTORE POP DUP2 ADD SWAP1 PUSH2 0x823 SWAP2 SWAP1 PUSH2 0x21BE JUMP JUMPDEST PUSH2 0x82E SWAP1 PUSH1 0xA PUSH2 0x22CC JUMP JUMPDEST PUSH2 0x838 DUP4 DUP8 PUSH2 0x2146 JUMP JUMPDEST PUSH2 0x842 SWAP2 SWAP1 PUSH2 0x215D JUMP JUMPDEST SWAP1 POP DUP4 PUSH2 0x84F DUP3 DUP6 PUSH2 0x2192 JUMP JUMPDEST GT ISZERO PUSH2 0x86E JUMPI PUSH1 0x40 MLOAD PUSH4 0x3A23D825 PUSH1 0xE0 SHL DUP2 MSTORE PUSH1 0x4 ADD PUSH1 0x40 MLOAD DUP1 SWAP2 SUB SWAP1 REVERT JUMPDEST PUSH1 0x40 MLOAD PUSH4 0x70A08231 PUSH1 0xE0 SHL DUP2 MSTORE ADDRESS PUSH1 0x4 DUP3 ADD MSTORE DUP6 SWAP1 PUSH1 0x1 PUSH1 0x1 PUSH1 0xA0 SHL SUB DUP9 AND SWAP1 PUSH4 0x70A08231 SWAP1 PUSH1 0x24 ADD PUSH1 0x20 PUSH1 0x40 MLOAD DUP1 DUP4 SUB DUP2 DUP7 GAS STATICCALL ISZERO DUP1 ISZERO PUSH2 0x8B4 JUMPI RETURNDATASIZE PUSH1 0x0 DUP1 RETURNDATACOPY RETURNDATASIZE PUSH1 0x0 REVERT JUMPDEST POP POP POP POP PUSH1 0x40 MLOAD RETURNDATASIZE PUSH1 0x1F NOT PUSH1 0x1F DUP3 ADD AND DUP3 ADD DUP1 PUSH1 0x40 MSTORE POP DUP2 ADD SWAP1 PUSH2 0x8D8 SWAP2 SWAP1 PUSH2 0x21A5 JUMP JUMPDEST LT ISZERO PUSH2 0x8F7 JUMPI PUSH1 0x40 MLOAD PUSH4 0xBB55FD27 PUSH1 0xE0 SHL DUP2 MSTORE PUSH1 0x4 ADD PUSH1 0x40 MLOAD DUP1 SWAP2 SUB SWAP1 REVERT JUMPDEST CALLER PUSH1 0x0 SWAP1 DUP2 MSTORE PUSH1 0x5 PUSH1 0x20 SWAP1 DUP2 MSTORE PUSH1 0x40 DUP1 DUP4 KECCAK256 PUSH1 0x1 PUSH1 0x1 PUSH1 0xA0 SHL SUB DUP11 AND DUP5 MSTORE DUP3 MSTORE DUP1 DUP4 KECCAK256 PUSH1 0x6 SWAP1 SWAP3 MSTORE DUP3 KECCAK256 PUSH1 0x2 DUP3 ADD SLOAD SWAP2 SWAP3 SWAP1 SWAP2 PUSH2 0x93C JUMPI PUSH8 0xDE0B6B3A7640000 PUSH2 0x942 JUMP JUMPDEST DUP3 PUSH1 0x2 ADD SLOAD JUMPDEST DUP3 PUSH1 0x2 ADD SLOAD DUP5 PUSH1 0x1 ADD SLOAD PUSH2 0x956 SWAP2 SWAP1 PUSH2 0x2146 JUMP JUMPDEST PUSH2 0x960 SWAP2 SWAP1 PUSH2 0x215D JUMP JUMPDEST SWAP1 POP PUSH2 0x96C DUP9 DUP3 PUSH2 0x2192 JUMP JUMPDEST PUSH1 0x1 DUP5 ADD SSTORE PUSH1 0x2 DUP3 ADD SLOAD PUSH2 0x988 JUMPI PUSH8 0xDE0B6B3A7640000 PUSH2 0x98E JUMP JUMPDEST DUP2 PUSH1 0x2 ADD SLOAD JUMPDEST DUP4 PUSH1 0x2 ADD DUP2 SWAP1 SSTORE POP DUP8 DUP3 PUSH1 0x1 ADD PUSH1 0x0 DUP3 DUP3 SLOAD PUSH2 0x9AA SWAP2 SWAP1 PUSH2 0x2192 JUMP JUMPDEST SWAP1 SWAP2 SSTORE POP PUSH2 0x9BB SWAP1 POP DUP10 CALLER DUP11 PUSH2 0x17EE JUMP JUMPDEST PUSH1 0x40 MLOAD DUP9 DUP2 MSTORE PUSH1 0x1 PUSH1 0x1 PUSH1 0xA0 SHL SUB DUP11 AND SWAP1 CALLER SWAP1 PUSH32 0x312A5E5E1079F5DDA4E95DBBD0B908B291FD5B992EF22073643AB691572C5B52 SWAP1 PUSH1 0x20 ADD PUSH1 0x40 MLOAD DUP1 SWAP2 SUB SWAP1 LOG3 POP POP POP POP POP POP POP JUMPDEST PUSH2 0x590 PUSH1 0x1 DUP1 SSTORE JUMP JUMPDEST PUSH2 0xA14 PUSH2 0x1824 JUMP JUMPDEST PUSH1 0x1 PUSH1 0x1 PUSH1 0xA0 SHL SUB DUP2 AND PUSH2 0xA3B JUMPI PUSH1 0x40 MLOAD PUSH4 0xD92E233D PUSH1 0xE0 SHL DUP2 MSTORE PUSH1 0x4 ADD PUSH1 0x40 MLOAD DUP1 SWAP2 SUB SWAP1 REVERT JUMPDEST PUSH1 0x2 DUP1 SLOAD PUSH1 0x1 PUSH1 0x1 PUSH1 0xA0 SHL SUB NOT AND PUSH1 0x1 PUSH1 0x1 PUSH1 0xA0 SHL SUB DUP4 AND SWAP1 DUP2 OR SWAP1 SWAP2 SSTORE PUSH1 0x40 MLOAD PUSH32 0xEFE8AB924CA486283A79DC604BAA67ADD51AFB82AF1DB8AC386EBBBA643CDFFD SWAP1 PUSH1 0x0 SWAP1 LOG2 POP JUMP JUMPDEST PUSH1 0x0 DUP1 PUSH2 0xA91 DUP4 PUSH2 0x1428 JUMP JUMPDEST SWAP2 POP SWAP2 POP SWAP2 POP SWAP2 JUMP JUMPDEST PUSH2 0xAA2 PUSH2 0x1824 JUMP JUMPDEST PUSH2 0xAAC PUSH1 0x0 PUSH2 0x1851 JUMP JUMPDEST JUMP JUMPDEST PUSH2 0xAB7 DUP2 PUSH2 0x1068 JUMP JUMPDEST POP JUMP JUMPDEST PUSH2 0xAC2 PUSH2 0x103E JUMP JUMPDEST PUSH2 0xACD DUP5 DUP5 DUP5 PUSH2 0x18A1 JUMP JUMPDEST PUSH1 0x0 DUP1 PUSH2 0xADC DUP7 DUP7 DUP7 DUP7 PUSH2 0x195C JUMP JUMPDEST SWAP2 POP SWAP2 POP PUSH2 0xAEE CALLER DUP8 DUP8 DUP8 DUP7 DUP7 PUSH2 0x1C44 JUMP JUMPDEST POP POP PUSH2 0xAF9 PUSH1 0x1 DUP1 SSTORE JUMP JUMPDEST POP POP POP POP JUMP JUMPDEST PUSH1 0x4 DUP2 DUP2 SLOAD DUP2 LT PUSH2 0xB0F JUMPI PUSH1 0x0 DUP1 REVERT JUMPDEST PUSH1 0x0 SWAP2 DUP3 MSTORE PUSH1 0x20 SWAP1 SWAP2 KECCAK256 ADD SLOAD PUSH1 0x1 PUSH1 0x1 PUSH1 0xA0 SHL SUB AND SWAP1 POP DUP2 JUMP JUMPDEST PUSH2 0xB31 PUSH2 0x1824 JUMP JUMPDEST PUSH1 0x1 PUSH1 0x1 PUSH1 0xA0 SHL SUB DUP5 AND PUSH1 0x0 SWAP1 DUP2 MSTORE PUSH1 0x3 PUSH1 0x20 MSTORE PUSH1 0x40 SWAP1 KECCAK256 PUSH1 0x4 ADD SLOAD PUSH1 0xFF AND ISZERO PUSH2 0xB6E JUMPI PUSH1 0x40 MLOAD PUSH4 0xA620D1E1 PUSH1 0xE0 SHL DUP2 MSTORE PUSH1 0x4 ADD PUSH1 0x40 MLOAD DUP1 SWAP2 SUB SWAP1 REVERT JUMPDEST PUSH1 0x1 PUSH1 0x1 PUSH1 0xA0 SHL SUB DUP5 AND ISZERO DUP1 PUSH2 0xB8B JUMPI POP PUSH1 0x1 PUSH1 0x1 PUSH1 0xA0 SHL SUB DUP4 AND ISZERO JUMPDEST ISZERO PUSH2 0xBA9 JUMPI PUSH1 0x40 MLOAD PUSH4 0xD92E233D PUSH1 0xE0 SHL DUP2 MSTORE PUSH1 0x4 ADD PUSH1 0x40 MLOAD DUP1 SWAP2 SUB SWAP1 REVERT JUMPDEST PUSH1 0x40 DUP1 MLOAD PUSH1 0xA0 DUP2 ADD DUP3 MSTORE PUSH1 0x1 PUSH1 0x1 PUSH1 0xA0 SHL SUB DUP7 DUP2 AND DUP1 DUP4 MSTORE DUP7 DUP3 AND PUSH1 0x20 DUP1 DUP6 ADD DUP3 DUP2 MSTORE DUP6 DUP8 ADD DUP10 DUP2 MSTORE PUSH1 0x60 DUP1 DUP9 ADD DUP11 DUP2 MSTORE PUSH1 0x1 PUSH1 0x80 DUP11 ADD DUP2 DUP2 MSTORE PUSH1 0x0 DUP10 DUP2 MSTORE PUSH1 0x3 DUP1 DUP10 MSTORE DUP14 DUP3 KECCAK256 SWAP13 MLOAD DUP14 SLOAD PUSH1 0x1 PUSH1 0x1 PUSH1 0xA0 SHL SUB NOT SWAP1 DUP2 AND SWAP2 DUP15 AND SWAP2 SWAP1 SWAP2 OR DUP15 SSTORE SWAP8 MLOAD DUP14 DUP6 ADD DUP1 SLOAD DUP11 AND SWAP2 SWAP1 SWAP14 AND OR SWAP1 SWAP12 SSTORE SWAP5 MLOAD PUSH1 0x2 DUP13 ADD SSTORE SWAP2 MLOAD SWAP9 DUP11 ADD SWAP9 SWAP1 SWAP9 SSTORE MLOAD PUSH1 0x4 SWAP9 DUP10 ADD DUP1 SLOAD PUSH1 0xFF NOT AND SWAP2 ISZERO ISZERO SWAP2 SWAP1 SWAP2 OR SWAP1 SSTORE DUP8 SLOAD SWAP7 DUP8 ADD DUP9 SSTORE SWAP7 SWAP1 MSTORE PUSH32 0x8A35ACFBC15FF81A39AE7D344FD709F28E8600B4AA8C65C6B64BFE7FE36BD19B SWAP1 SWAP5 ADD DUP1 SLOAD SWAP1 SWAP5 AND DUP4 OR SWAP1 SWAP4 SSTORE DUP5 MLOAD SWAP1 DUP2 MSTORE SWAP2 DUP3 ADD DUP7 SWAP1 MSTORE SWAP3 DUP2 ADD DUP5 SWAP1 MSTORE PUSH32 0x118FA810D8FABCC6B2E10162F8FE68E43ECB99EE012745078A933D901C970FFD SWAP2 ADD PUSH1 0x40 MLOAD DUP1 SWAP2 SUB SWAP1 LOG2 POP POP POP POP JUMP JUMPDEST PUSH1 0x1 PUSH1 0x1 PUSH1 0xA0 SHL SUB DUP1 DUP3 AND PUSH1 0x0 SWAP1 DUP2 MSTORE PUSH1 0x5 PUSH1 0x20 SWAP1 DUP2 MSTORE PUSH1 0x40 DUP1 DUP4 KECCAK256 SWAP4 DUP7 AND DUP4 MSTORE SWAP3 DUP2 MSTORE DUP3 DUP3 KECCAK256 DUP4 MLOAD PUSH1 0x60 DUP2 ADD DUP6 MSTORE DUP2 SLOAD DUP2 MSTORE PUSH1 0x1 DUP3 ADD SLOAD SWAP3 DUP2 ADD DUP4 SWAP1 MSTORE PUSH1 0x2 SWAP1 SWAP2 ADD SLOAD SWAP4 DUP2 ADD SWAP4 SWAP1 SWAP4 MSTORE SWAP1 SWAP2 SWAP1 DUP3 SUB PUSH2 0xD17 JUMPI PUSH1 0x0 SWAP2 POP POP PUSH2 0x6E3 JUMP JUMPDEST PUSH1 0x1 PUSH1 0x1 PUSH1 0xA0 SHL SUB DUP5 AND PUSH1 0x0 SWAP1 DUP2 MSTORE PUSH1 0x6 PUSH1 0x20 SWAP1 DUP2 MSTORE PUSH1 0x40 SWAP2 DUP3 SWAP1 KECCAK256 DUP3 MLOAD PUSH1 0xA0 DUP2 ADD DUP5 MSTORE DUP2 SLOAD DUP2 MSTORE PUSH1 0x1 DUP3 ADD SLOAD SWAP3 DUP2 ADD SWAP3 SWAP1 SWAP3 MSTORE PUSH1 0x2 DUP2 ADD SLOAD DUP3 DUP5 ADD MSTORE PUSH1 0x3 DUP2 ADD SLOAD PUSH1 0x60 DUP4 ADD MSTORE PUSH1 0x4 ADD SLOAD PUSH1 0x80 DUP3 ADD MSTORE SWAP1 DUP3 ADD MLOAD PUSH2 0xD7D JUMPI PUSH8 0xDE0B6B3A7640000 PUSH2 0xD83 JUMP JUMPDEST DUP2 PUSH1 0x40 ADD MLOAD JUMPDEST DUP2 PUSH1 0x40 ADD MLOAD DUP4 PUSH1 0x20 ADD MLOAD PUSH2 0xD97 SWAP2 SWAP1 PUSH2 0x2146 JUMP JUMPDEST PUSH2 0xDA1 SWAP2 SWAP1 PUSH2 0x215D JUMP JUMPDEST SWAP6 SWAP5 POP POP POP POP POP JUMP JUMPDEST PUSH2 0xDB2 PUSH2 0x1824 JUMP JUMPDEST PUSH1 0x1 PUSH1 0x1 PUSH1 0xA0 SHL SUB DUP4 AND PUSH1 0x0 SWAP1 DUP2 MSTORE PUSH1 0x3 PUSH1 0x20 MSTORE PUSH1 0x40 SWAP1 KECCAK256 PUSH1 0x4 ADD SLOAD PUSH1 0xFF AND PUSH2 0xDEE JUMPI PUSH1 0x40 MLOAD PUSH4 0xB77E1E0F PUSH1 0xE0 SHL DUP2 MSTORE PUSH1 0x4 ADD PUSH1 0x40 MLOAD DUP1 SWAP2 SUB SWAP1 REVERT JUMPDEST PUSH1 0x1 PUSH1 0x1 PUSH1 0xA0 SHL SUB DUP4 AND PUSH1 0x0 DUP2 DUP2 MSTORE PUSH1 0x3 PUSH1 0x20 DUP2 DUP2 MSTORE PUSH1 0x40 SWAP3 DUP4 SWAP1 KECCAK256 PUSH1 0x2 DUP2 ADD DUP8 SWAP1 SSTORE SWAP1 SWAP2 ADD DUP5 SWAP1 SSTORE DUP2 MLOAD DUP6 DUP2 MSTORE SWAP1 DUP2 ADD DUP5 SWAP1 MSTORE PUSH32 0x6914EE2E02A37A312E7D04B6A20F6ECFF93D21B1AFCCA29966FA4C0DDCF15519 SWAP2 ADD PUSH1 0x40 MLOAD DUP1 SWAP2 SUB SWAP1 LOG2 POP POP POP JUMP JUMPDEST PUSH2 0xE5A PUSH2 0x1824 JUMP JUMPDEST PUSH1 0x1 PUSH1 0x1 PUSH1 0xA0 SHL SUB DUP2 AND PUSH2 0xE89 JUMPI PUSH1 0x40 MLOAD PUSH4 0x1E4FBDF7 PUSH1 0xE0 SHL DUP2 MSTORE PUSH1 0x0 PUSH1 0x4 DUP3 ADD MSTORE PUSH1 0x24 ADD JUMPDEST PUSH1 0x40 MLOAD DUP1 SWAP2 SUB SWAP1 REVERT JUMPDEST PUSH2 0xAB7 DUP2 PUSH2 0x1851 JUMP JUMPDEST PUSH2 0xE9A PUSH2 0x103E JUMP JUMPDEST PUSH1 0x1 PUSH1 0x1 PUSH1 0xA0 SHL SUB DUP3 AND PUSH1 0x0 SWAP1 DUP2 MSTORE PUSH1 0x3 PUSH1 0x20 MSTORE PUSH1 0x40 SWAP1 KECCAK256 PUSH1 0x4 ADD SLOAD PUSH1 0xFF AND PUSH2 0xED6 JUMPI PUSH1 0x40 MLOAD PUSH4 0xB77E1E0F PUSH1 0xE0 SHL DUP2 MSTORE PUSH1 0x4 ADD PUSH1 0x40 MLOAD DUP1 SWAP2 SUB SWAP1 REVERT JUMPDEST DUP1 PUSH1 0x0 SUB PUSH2 0xEF7 JUMPI PUSH1 0x40 MLOAD PUSH4 0x1F2A2005 PUSH1 0xE0 SHL DUP2 MSTORE PUSH1 0x4 ADD PUSH1 0x40 MLOAD DUP1 SWAP2 SUB SWAP1 REVERT JUMPDEST PUSH2 0xF00 DUP3 PUSH2 0x1068 JUMP JUMPDEST CALLER PUSH1 0x0 SWAP1 DUP2 MSTORE PUSH1 0x5 PUSH1 0x20 SWAP1 DUP2 MSTORE PUSH1 0x40 DUP1 DUP4 KECCAK256 PUSH1 0x1 PUSH1 0x1 PUSH1 0xA0 SHL SUB DUP7 AND DUP5 MSTORE SWAP1 SWAP2 MSTORE SWAP1 KECCAK256 DUP1 SLOAD DUP3 GT ISZERO PUSH2 0xF45 JUMPI PUSH1 0x40 MLOAD PUSH4 0x3A23D825 PUSH1 0xE0 SHL DUP2 MSTORE PUSH1 0x4 ADD PUSH1 0x40 MLOAD DUP1 SWAP2 SUB SWAP1 REVERT JUMPDEST PUSH1 0x0 PUSH2 0xF51 DUP5 DUP5 PUSH2 0x1366 JUMP JUMPDEST SWAP1 POP PUSH1 0x0 PUSH2 0xF5E CALLER PUSH2 0x1428 JUMP JUMPDEST SWAP2 POP POP PUSH1 0x0 PUSH2 0xF7D CALLER DUP8 DUP8 DUP8 PUSH1 0x0 ADD SLOAD PUSH2 0xF78 SWAP2 SWAP1 PUSH2 0x217F JUMP JUMPDEST PUSH2 0x1E0C JUMP JUMPDEST SWAP1 POP DUP1 DUP3 GT ISZERO PUSH2 0xFA0 JUMPI PUSH1 0x40 MLOAD PUSH4 0x3A23D825 PUSH1 0xE0 SHL DUP2 MSTORE PUSH1 0x4 ADD PUSH1 0x40 MLOAD DUP1 SWAP2 SUB SWAP1 REVERT JUMPDEST DUP5 DUP5 PUSH1 0x0 ADD PUSH1 0x0 DUP3 DUP3 SLOAD PUSH2 0xFB4 SWAP2 SWAP1 PUSH2 0x217F JUMP JUMPDEST SWAP1 SWAP2 SSTORE POP POP PUSH1 0x1 PUSH1 0x1 PUSH1 0xA0 SHL SUB DUP7 AND PUSH1 0x0 SWAP1 DUP2 MSTORE PUSH1 0x6 PUSH1 0x20 MSTORE PUSH1 0x40 DUP2 KECCAK256 DUP1 SLOAD DUP8 SWAP3 SWAP1 PUSH2 0xFE1 SWAP1 DUP5 SWAP1 PUSH2 0x217F JUMP JUMPDEST SWAP1 SWAP2 SSTORE POP PUSH2 0xFFB SWAP1 POP PUSH1 0x1 PUSH1 0x1 PUSH1 0xA0 SHL SUB DUP8 AND CALLER DUP6 PUSH2 0x17EE JUMP JUMPDEST PUSH1 0x40 DUP1 MLOAD DUP5 DUP2 MSTORE PUSH1 0x20 DUP2 ADD DUP8 SWAP1 MSTORE PUSH1 0x1 PUSH1 0x1 PUSH1 0xA0 SHL SUB DUP9 AND SWAP2 CALLER SWAP2 PUSH32 0xF341246ADAAC6F497BC2A656F546AB9E182111D630394F0C57C710A59A2CB567 SWAP2 ADD PUSH2 0x57B JUMP JUMPDEST PUSH1 0x2 PUSH1 0x1 SLOAD SUB PUSH2 0x1061 JUMPI PUSH1 0x40 MLOAD PUSH4 0x3EE5AEB5 PUSH1 0xE0 SHL DUP2 MSTORE PUSH1 0x4 ADD PUSH1 0x40 MLOAD DUP1 SWAP2 SUB SWAP1 REVERT JUMPDEST PUSH1 0x2 PUSH1 0x1 SSTORE JUMP JUMPDEST PUSH1 0x1 PUSH1 0x1 PUSH1 0xA0 SHL SUB DUP2 AND PUSH1 0x0 SWAP1 DUP2 MSTORE PUSH1 0x6 PUSH1 0x20 MSTORE PUSH1 0x40 DUP2 KECCAK256 PUSH1 0x3 DUP2 ADD SLOAD SWAP1 SWAP2 DUP2 SWAP1 SUB PUSH2 0x10A7 JUMPI POP TIMESTAMP PUSH1 0x3 DUP3 ADD SSTORE PUSH8 0xDE0B6B3A7640000 PUSH1 0x2 SWAP1 SWAP2 ADD SSTORE POP JUMP JUMPDEST PUSH1 0x0 PUSH2 0x10B3 DUP3 TIMESTAMP PUSH2 0x217F JUMP JUMPDEST SWAP1 POP DUP1 ISZERO DUP1 PUSH2 0x10C4 JUMPI POP PUSH1 0x1 DUP4 ADD SLOAD ISZERO JUMPDEST ISZERO PUSH2 0x10CF JUMPI POP POP POP POP JUMP JUMPDEST PUSH1 0x0 PUSH2 0x10DF DUP6 DUP6 PUSH1 0x0 ADD SLOAD PUSH2 0x1366 JUMP JUMPDEST SWAP1 POP PUSH1 0x0 DUP2 ISZERO PUSH2 0x1111 JUMPI DUP2 PUSH8 0xDE0B6B3A7640000 DUP7 PUSH1 0x1 ADD SLOAD PUSH2 0x1102 SWAP2 SWAP1 PUSH2 0x2146 JUMP JUMPDEST PUSH2 0x110C SWAP2 SWAP1 PUSH2 0x215D JUMP JUMPDEST PUSH2 0x1114 JUMP JUMPDEST PUSH1 0x0 JUMPDEST PUSH1 0x1 PUSH1 0x1 PUSH1 0xA0 SHL SUB DUP8 DUP2 AND PUSH1 0x0 SWAP1 DUP2 MSTORE PUSH1 0x3 PUSH1 0x20 MSTORE PUSH1 0x40 DUP1 DUP3 KECCAK256 PUSH1 0x1 ADD SLOAD SWAP1 MLOAD PUSH4 0xF71BD11B PUSH1 0xE0 SHL DUP2 MSTORE PUSH1 0x4 DUP2 ADD DUP6 SWAP1 MSTORE SWAP4 SWAP5 POP SWAP1 SWAP2 AND SWAP2 DUP3 SWAP1 PUSH4 0xF71BD11B SWAP1 PUSH1 0x24 ADD PUSH1 0x20 PUSH1 0x40 MLOAD DUP1 DUP4 SUB DUP2 DUP7 GAS STATICCALL ISZERO DUP1 ISZERO PUSH2 0x1174 JUMPI RETURNDATASIZE PUSH1 0x0 DUP1 RETURNDATACOPY RETURNDATASIZE PUSH1 0x0 REVERT JUMPDEST POP POP POP POP PUSH1 0x40 MLOAD RETURNDATASIZE PUSH1 0x1F NOT PUSH1 0x1F DUP3 ADD AND DUP3 ADD DUP1 PUSH1 0x40 MSTORE POP DUP2 ADD SWAP1 PUSH2 0x1198 SWAP2 SWAP1 PUSH2 0x21A5 JUMP JUMPDEST SWAP1 POP PUSH1 0x0 PUSH8 0xDE0B6B3A7640000 DUP7 DUP4 DUP11 PUSH1 0x1 ADD SLOAD PUSH2 0x11B6 SWAP2 SWAP1 PUSH2 0x2146 JUMP JUMPDEST PUSH2 0x11C0 SWAP2 SWAP1 PUSH2 0x2146 JUMP JUMPDEST PUSH2 0x11CA SWAP2 SWAP1 PUSH2 0x215D JUMP JUMPDEST SWAP1 POP DUP1 DUP9 PUSH1 0x1 ADD PUSH1 0x0 DUP3 DUP3 SLOAD PUSH2 0x11E0 SWAP2 SWAP1 PUSH2 0x2192 JUMP JUMPDEST SWAP1 SWAP2 SSTORE POP PUSH8 0xDE0B6B3A7640000 SWAP1 POP PUSH2 0x11F9 DUP8 DUP5 PUSH2 0x2146 JUMP JUMPDEST PUSH2 0x120B SWAP1 PUSH8 0xDE0B6B3A7640000 PUSH2 0x2192 JUMP JUMPDEST DUP10 PUSH1 0x2 ADD SLOAD PUSH2 0x121A SWAP2 SWAP1 PUSH2 0x2146 JUMP JUMPDEST PUSH2 0x1224 SWAP2 SWAP1 PUSH2 0x215D JUMP JUMPDEST PUSH1 0x2 DUP10 ADD SSTORE POP POP TIMESTAMP PUSH1 0x3 SWAP1 SWAP7 ADD SWAP6 SWAP1 SWAP6 SSTORE POP POP POP POP POP POP JUMP JUMPDEST PUSH1 0x40 MLOAD PUSH1 0x1 PUSH1 0x1 PUSH1 0xA0 SHL SUB DUP5 DUP2 AND PUSH1 0x24 DUP4 ADD MSTORE DUP4 DUP2 AND PUSH1 0x44 DUP4 ADD MSTORE PUSH1 0x64 DUP3 ADD DUP4 SWAP1 MSTORE PUSH2 0xAF9 SWAP2 DUP7 SWAP2 DUP3 AND SWAP1 PUSH4 0x23B872DD SWAP1 PUSH1 0x84 ADD JUMPDEST PUSH1 0x40 MLOAD PUSH1 0x20 DUP2 DUP4 SUB SUB DUP2 MSTORE SWAP1 PUSH1 0x40 MSTORE SWAP2 POP PUSH1 0xE0 SHL PUSH1 0x20 DUP3 ADD DUP1 MLOAD PUSH1 0x1 PUSH1 0x1 PUSH1 0xE0 SHL SUB DUP4 DUP2 DUP4 AND OR DUP4 MSTORE POP POP POP POP PUSH2 0x1F52 JUMP JUMPDEST PUSH1 0x1 PUSH1 0x1 PUSH1 0xA0 SHL SUB DUP3 AND PUSH1 0x0 DUP2 DUP2 MSTORE PUSH1 0x6 PUSH1 0x20 MSTORE PUSH1 0x40 DUP1 DUP3 KECCAK256 PUSH1 0x4 DUP1 DUP3 ADD SLOAD PUSH1 0x1 DUP4 ADD SLOAD SWAP4 MLOAD PUSH4 0x70A08231 PUSH1 0xE0 SHL DUP2 MSTORE ADDRESS SWAP3 DUP2 ADD SWAP3 SWAP1 SWAP3 MSTORE SWAP4 SWAP5 SWAP2 SWAP4 DUP6 SWAP4 SWAP1 SWAP3 SWAP1 SWAP2 PUSH4 0x70A08231 SWAP1 PUSH1 0x24 ADD PUSH1 0x20 PUSH1 0x40 MLOAD DUP1 DUP4 SUB DUP2 DUP7 GAS STATICCALL ISZERO DUP1 ISZERO PUSH2 0x130C JUMPI RETURNDATASIZE PUSH1 0x0 DUP1 RETURNDATACOPY RETURNDATASIZE PUSH1 0x0 REVERT JUMPDEST POP POP POP POP PUSH1 0x40 MLOAD RETURNDATASIZE PUSH1 0x1F NOT PUSH1 0x1F DUP3 ADD AND DUP3 ADD DUP1 PUSH1 0x40 MSTORE POP DUP2 ADD SWAP1 PUSH2 0x1330 SWAP2 SWAP1 PUSH2 0x21A5 JUMP JUMPDEST PUSH2 0x133A SWAP2 SWAP1 PUSH2 0x2192 JUMP JUMPDEST PUSH2 0x1344 SWAP2 SWAP1 PUSH2 0x217F JUMP JUMPDEST SWAP1 POP DUP1 PUSH1 0x0 SUB PUSH2 0x1358 JUMPI DUP4 SWAP3 POP POP POP PUSH2 0x6E3 JUMP JUMPDEST DUP2 SLOAD DUP2 SWAP1 PUSH2 0xD97 SWAP1 DUP7 PUSH2 0x2146 JUMP JUMPDEST PUSH1 0x1 PUSH1 0x1 PUSH1 0xA0 SHL SUB DUP3 AND PUSH1 0x0 DUP2 DUP2 MSTORE PUSH1 0x6 PUSH1 0x20 MSTORE PUSH1 0x40 DUP1 DUP3 KECCAK256 PUSH1 0x4 DUP1 DUP3 ADD SLOAD PUSH1 0x1 DUP4 ADD SLOAD SWAP4 MLOAD PUSH4 0x70A08231 PUSH1 0xE0 SHL DUP2 MSTORE ADDRESS SWAP3 DUP2 ADD SWAP3 SWAP1 SWAP3 MSTORE SWAP4 SWAP5 SWAP2 SWAP4 DUP6 SWAP4 SWAP1 SWAP3 SWAP1 SWAP2 PUSH4 0x70A08231 SWAP1 PUSH1 0x24 ADD PUSH1 0x20 PUSH1 0x40 MLOAD DUP1 DUP4 SUB DUP2 DUP7 GAS STATICCALL ISZERO DUP1 ISZERO PUSH2 0x13CE JUMPI RETURNDATASIZE PUSH1 0x0 DUP1 RETURNDATACOPY RETURNDATASIZE PUSH1 0x0 REVERT JUMPDEST POP POP POP POP PUSH1 0x40 MLOAD RETURNDATASIZE PUSH1 0x1F NOT PUSH1 0x1F DUP3 ADD AND DUP3 ADD DUP1 PUSH1 0x40 MSTORE POP DUP2 ADD SWAP1 PUSH2 0x13F2 SWAP2 SWAP1 PUSH2 0x21A5 JUMP JUMPDEST PUSH2 0x13FC SWAP2 SWAP1 PUSH2 0x2192 JUMP JUMPDEST PUSH2 0x1406 SWAP2 SWAP1 PUSH2 0x217F JUMP JUMPDEST DUP3 SLOAD SWAP1 SWAP2 POP PUSH1 0x0 SUB PUSH2 0x141C JUMPI DUP4 SWAP3 POP POP POP PUSH2 0x6E3 JUMP JUMPDEST DUP2 SLOAD PUSH2 0xD97 DUP3 DUP7 PUSH2 0x2146 JUMP JUMPDEST PUSH1 0x4 SLOAD PUSH1 0x0 SWAP1 DUP2 SWAP1 DUP2 JUMPDEST DUP2 DUP2 LT ISZERO PUSH2 0x17E7 JUMPI PUSH1 0x0 PUSH1 0x4 DUP3 DUP2 SLOAD DUP2 LT PUSH2 0x144F JUMPI PUSH2 0x144F PUSH2 0x22DB JUMP JUMPDEST PUSH1 0x0 SWAP2 DUP3 MSTORE PUSH1 0x20 DUP1 DUP4 KECCAK256 SWAP1 SWAP2 ADD SLOAD PUSH1 0x1 PUSH1 0x1 PUSH1 0xA0 SHL SUB SWAP1 DUP2 AND DUP1 DUP5 MSTORE PUSH1 0x3 DUP1 DUP5 MSTORE PUSH1 0x40 DUP1 DUP7 KECCAK256 DUP2 MLOAD PUSH1 0xA0 DUP2 ADD DUP4 MSTORE DUP2 SLOAD DUP7 AND DUP2 MSTORE PUSH1 0x1 DUP3 DUP2 ADD SLOAD DUP8 AND DUP3 DUP10 ADD MSTORE PUSH1 0x2 DUP1 DUP5 ADD SLOAD DUP4 DUP7 ADD MSTORE SWAP5 DUP4 ADD SLOAD PUSH1 0x60 DUP1 DUP5 ADD SWAP2 SWAP1 SWAP2 MSTORE PUSH1 0x4 SWAP1 SWAP4 ADD SLOAD PUSH1 0xFF AND ISZERO ISZERO PUSH1 0x80 DUP4 ADD MSTORE SWAP6 DUP15 AND DUP9 MSTORE PUSH1 0x5 DUP8 MSTORE DUP3 DUP9 KECCAK256 DUP6 DUP10 MSTORE DUP8 MSTORE SWAP7 DUP3 SWAP1 KECCAK256 DUP3 MLOAD SWAP2 DUP3 ADD DUP4 MSTORE DUP1 SLOAD DUP1 DUP4 MSTORE SWAP6 DUP2 ADD SLOAD SWAP7 DUP3 ADD SWAP7 SWAP1 SWAP7 MSTORE SWAP5 SWAP1 SWAP2 ADD SLOAD SWAP1 DUP5 ADD MSTORE SWAP4 POP ISZERO PUSH2 0x1630 JUMPI PUSH1 0x0 PUSH2 0x1502 DUP5 DUP4 PUSH1 0x0 ADD MLOAD PUSH2 0x1366 JUMP JUMPDEST PUSH1 0x2 SLOAD PUSH1 0x40 MLOAD PUSH4 0x41976E09 PUSH1 0xE0 SHL DUP2 MSTORE PUSH1 0x1 PUSH1 0x1 PUSH1 0xA0 SHL SUB DUP8 DUP2 AND PUSH1 0x4 DUP4 ADD MSTORE SWAP3 SWAP4 POP PUSH1 0x0 SWAP3 SWAP1 SWAP2 AND SWAP1 PUSH4 0x41976E09 SWAP1 PUSH1 0x24 ADD PUSH1 0x20 PUSH1 0x40 MLOAD DUP1 DUP4 SUB DUP2 DUP7 GAS STATICCALL ISZERO DUP1 ISZERO PUSH2 0x1552 JUMPI RETURNDATASIZE PUSH1 0x0 DUP1 RETURNDATACOPY RETURNDATASIZE PUSH1 0x0 REVERT JUMPDEST POP POP POP POP PUSH1 0x40 MLOAD RETURNDATASIZE PUSH1 0x1F NOT PUSH1 0x1F DUP3 ADD AND DUP3 ADD DUP1 PUSH1 0x40 MSTORE POP DUP2 ADD SWAP1 PUSH2 0x1576 SWAP2 SWAP1 PUSH2 0x21A5 JUMP JUMPDEST SWAP1 POP PUSH1 0x0 DUP6 PUSH1 0x1 PUSH1 0x1 PUSH1 0xA0 SHL SUB AND PUSH4 0x313CE567 PUSH1 0x40 MLOAD DUP2 PUSH4 0xFFFFFFFF AND PUSH1 0xE0 SHL DUP2 MSTORE PUSH1 0x4 ADD PUSH1 0x20 PUSH1 0x40 MLOAD DUP1 DUP4 SUB DUP2 DUP7 GAS STATICCALL ISZERO DUP1 ISZERO PUSH2 0x15B8 JUMPI RETURNDATASIZE PUSH1 0x0 DUP1 RETURNDATACOPY RETURNDATASIZE PUSH1 0x0 REVERT JUMPDEST POP POP POP POP PUSH1 0x40 MLOAD RETURNDATASIZE PUSH1 0x1F NOT PUSH1 0x1F DUP3 ADD AND DUP3 ADD DUP1 PUSH1 0x40 MSTORE POP DUP2 ADD SWAP1 PUSH2 0x15DC SWAP2 SWAP1 PUSH2 0x21BE JUMP JUMPDEST PUSH2 0x15E7 SWAP1 PUSH1 0xA PUSH2 0x22CC JUMP JUMPDEST PUSH2 0x15F1 DUP4 DUP6 PUSH2 0x2146 JUMP JUMPDEST PUSH2 0x15FB SWAP2 SWAP1 PUSH2 0x215D JUMP JUMPDEST SWAP1 POP PUSH8 0xDE0B6B3A7640000 DUP6 PUSH1 0x40 ADD MLOAD DUP3 PUSH2 0x1616 SWAP2 SWAP1 PUSH2 0x2146 JUMP JUMPDEST PUSH2 0x1620 SWAP2 SWAP1 PUSH2 0x215D JUMP JUMPDEST PUSH2 0x162A SWAP1 DUP12 PUSH2 0x2192 JUMP JUMPDEST SWAP10 POP POP POP POP JUMPDEST PUSH1 0x20 DUP2 ADD MLOAD ISZERO PUSH2 0x17D1 JUMPI PUSH1 0x1 PUSH1 0x1 PUSH1 0xA0 SHL SUB DUP4 AND PUSH1 0x0 SWAP1 DUP2 MSTORE PUSH1 0x6 PUSH1 0x20 SWAP1 DUP2 MSTORE PUSH1 0x40 DUP1 DUP4 KECCAK256 DUP2 MLOAD PUSH1 0xA0 DUP2 ADD DUP4 MSTORE DUP2 SLOAD DUP2 MSTORE PUSH1 0x1 DUP3 ADD SLOAD SWAP4 DUP2 ADD SWAP4 SWAP1 SWAP4 MSTORE PUSH1 0x2 DUP2 ADD SLOAD DUP4 DUP4 ADD MSTORE PUSH1 0x3 DUP2 ADD SLOAD PUSH1 0x60 DUP5 ADD MSTORE PUSH1 0x4 ADD SLOAD PUSH1 0x80 DUP4 ADD MSTORE DUP4 ADD MLOAD SWAP1 SWAP2 SWAP1 PUSH2 0x16A1 JUMPI PUSH8 0xDE0B6B3A7640000 PUSH2 0x16A7 JUMP JUMPDEST DUP3 PUSH1 0x40 ADD MLOAD JUMPDEST DUP3 PUSH1 0x40 ADD MLOAD DUP5 PUSH1 0x20 ADD MLOAD PUSH2 0x16BB SWAP2 SWAP1 PUSH2 0x2146 JUMP JUMPDEST PUSH2 0x16C5 SWAP2 SWAP1 PUSH2 0x215D JUMP JUMPDEST PUSH1 0x2 SLOAD PUSH1 0x40 MLOAD PUSH4 0x41976E09 PUSH1 0xE0 SHL DUP2 MSTORE PUSH1 0x1 PUSH1 0x1 PUSH1 0xA0 SHL SUB DUP9 DUP2 AND PUSH1 0x4 DUP4 ADD MSTORE SWAP3 SWAP4 POP PUSH1 0x0 SWAP3 SWAP1 SWAP2 AND SWAP1 PUSH4 0x41976E09 SWAP1 PUSH1 0x24 ADD PUSH1 0x20 PUSH1 0x40 MLOAD DUP1 DUP4 SUB DUP2 DUP7 GAS STATICCALL ISZERO DUP1 ISZERO PUSH2 0x1715 JUMPI RETURNDATASIZE PUSH1 0x0 DUP1 RETURNDATACOPY RETURNDATASIZE PUSH1 0x0 REVERT JUMPDEST POP POP POP POP PUSH1 0x40 MLOAD RETURNDATASIZE PUSH1 0x1F NOT PUSH1 0x1F DUP3 ADD AND DUP3 ADD DUP1 PUSH1 0x40 MSTORE POP DUP2 ADD SWAP1 PUSH2 0x1739 SWAP2 SWAP1 PUSH2 0x21A5 JUMP JUMPDEST SWAP1 POP PUSH1 0x0 DUP7 PUSH1 0x1 PUSH1 0x1 PUSH1 0xA0 SHL SUB AND PUSH4 0x313CE567 PUSH1 0x40 MLOAD DUP2 PUSH4 0xFFFFFFFF AND PUSH1 0xE0 SHL DUP2 MSTORE PUSH1 0x4 ADD PUSH1 0x20 PUSH1 0x40 MLOAD DUP1 DUP4 SUB DUP2 DUP7 GAS STATICCALL ISZERO DUP1 ISZERO PUSH2 0x177B JUMPI RETURNDATASIZE PUSH1 0x0 DUP1 RETURNDATACOPY RETURNDATASIZE PUSH1 0x0 REVERT JUMPDEST POP POP POP POP PUSH1 0x40 MLOAD RETURNDATASIZE PUSH1 0x1F NOT PUSH1 0x1F DUP3 ADD AND DUP3 ADD DUP1 PUSH1 0x40 MSTORE POP DUP2 ADD SWAP1 PUSH2 0x179F SWAP2 SWAP1 PUSH2 0x21BE JUMP JUMPDEST PUSH2 0x17AA SWAP1 PUSH1 0xA PUSH2 0x22CC JUMP JUMPDEST PUSH2 0x17B4 DUP4 DUP6 PUSH2 0x2146 JUMP JUMPDEST PUSH2 0x17BE SWAP2 SWAP1 PUSH2 0x215D JUMP JUMPDEST SWAP1 POP PUSH2 0x17CA DUP2 DUP12 PUSH2 0x2192 JUMP JUMPDEST SWAP10 POP POP POP POP POP JUMPDEST POP POP POP DUP1 DUP1 PUSH2 0x17DF SWAP1 PUSH2 0x22F1 JUMP JUMPDEST SWAP2 POP POP PUSH2 0x1432 JUMP JUMPDEST POP POP SWAP2 POP SWAP2 JUMP JUMPDEST PUSH1 0x40 MLOAD PUSH1 0x1 PUSH1 0x1 PUSH1 0xA0 SHL SUB DUP4 DUP2 AND PUSH1 0x24 DUP4 ADD MSTORE PUSH1 0x44 DUP3 ADD DUP4 SWAP1 MSTORE PUSH2 0x181F SWAP2 DUP6 SWAP2 DUP3 AND SWAP1 PUSH4 0xA9059CBB SWAP1 PUSH1 0x64 ADD PUSH2 0x1272 JUMP JUMPDEST POP POP POP JUMP JUMPDEST PUSH1 0x0 SLOAD PUSH1 0x1 PUSH1 0x1 PUSH1 0xA0 SHL SUB AND CALLER EQ PUSH2 0xAAC JUMPI PUSH1 0x40 MLOAD PUSH4 0x118CDAA7 PUSH1 0xE0 SHL DUP2 MSTORE CALLER PUSH1 0x4 DUP3 ADD MSTORE PUSH1 0x24 ADD PUSH2 0xE80 JUMP JUMPDEST PUSH1 0x0 DUP1 SLOAD PUSH1 0x1 PUSH1 0x1 PUSH1 0xA0 SHL SUB DUP4 DUP2 AND PUSH1 0x1 PUSH1 0x1 PUSH1 0xA0 SHL SUB NOT DUP4 AND DUP2 OR DUP5 SSTORE PUSH1 0x40 MLOAD SWAP2 SWAP1 SWAP3 AND SWAP3 DUP4 SWAP2 PUSH32 0x8BE0079C531659141344CD1FD0A4F28419497F9722A3DAAFE3B4186F6B6457E0 SWAP2 SWAP1 LOG3 POP POP JUMP JUMPDEST PUSH1 0x1 PUSH1 0x1 PUSH1 0xA0 SHL SUB DUP3 AND PUSH1 0x0 SWAP1 DUP2 MSTORE PUSH1 0x3 PUSH1 0x20 MSTORE PUSH1 0x40 SWAP1 KECCAK256 PUSH1 0x4 ADD SLOAD PUSH1 0xFF AND ISZERO DUP1 PUSH2 0x18E8 JUMPI POP PUSH1 0x1 PUSH1 0x1 PUSH1 0xA0 SHL SUB DUP2 AND PUSH1 0x0 SWAP1 DUP2 MSTORE PUSH1 0x3 PUSH1 0x20 MSTORE PUSH1 0x40 SWAP1 KECCAK256 PUSH1 0x4 ADD SLOAD PUSH1 0xFF AND ISZERO JUMPDEST ISZERO PUSH2 0x1906 JUMPI PUSH1 0x40 MLOAD PUSH4 0xB77E1E0F PUSH1 0xE0 SHL DUP2 MSTORE PUSH1 0x4 ADD PUSH1 0x40 MLOAD DUP1 SWAP2 SUB SWAP1 REVERT JUMPDEST PUSH2 0x190F DUP3 PUSH2 0x1068 JUMP JUMPDEST PUSH2 0x1918 DUP2 PUSH2 0x1068 JUMP JUMPDEST PUSH1 0x0 DUP1 PUSH2 0x1924 DUP6 PUSH2 0x1428 JUMP JUMPDEST SWAP2 POP SWAP2 POP DUP1 PUSH1 0x0 EQ DUP1 PUSH2 0x1937 JUMPI POP DUP1 DUP3 LT ISZERO JUMPDEST ISZERO PUSH2 0x1955 JUMPI PUSH1 0x40 MLOAD PUSH4 0x481F8F2F PUSH1 0xE1 SHL DUP2 MSTORE PUSH1 0x4 ADD PUSH1 0x40 MLOAD DUP1 SWAP2 SUB SWAP1 REVERT JUMPDEST POP POP POP POP POP JUMP JUMPDEST PUSH1 0x1 PUSH1 0x1 PUSH1 0xA0 SHL SUB DUP1 DUP6 AND PUSH1 0x0 SWAP1 DUP2 MSTORE PUSH1 0x5 PUSH1 0x20 SWAP1 DUP2 MSTORE PUSH1 0x40 DUP1 DUP4 KECCAK256 SWAP4 DUP8 AND DUP4 MSTORE SWAP3 DUP2 MSTORE DUP3 DUP3 KECCAK256 PUSH1 0x6 SWAP1 SWAP2 MSTORE SWAP2 DUP2 KECCAK256 PUSH1 0x2 DUP4 ADD SLOAD SWAP2 SWAP3 DUP4 SWAP3 SWAP1 SWAP2 SWAP1 DUP4 SWAP1 PUSH2 0x19AB JUMPI PUSH8 0xDE0B6B3A7640000 PUSH2 0x19B1 JUMP JUMPDEST DUP3 PUSH1 0x2 ADD SLOAD JUMPDEST DUP3 PUSH1 0x2 ADD SLOAD DUP5 PUSH1 0x1 ADD SLOAD PUSH2 0x19C5 SWAP2 SWAP1 PUSH2 0x2146 JUMP JUMPDEST PUSH2 0x19CF SWAP2 SWAP1 PUSH2 0x215D JUMP JUMPDEST SWAP1 POP PUSH1 0x0 NOT DUP7 SUB PUSH2 0x19E2 JUMPI DUP1 SWAP5 POP PUSH2 0x19F4 JUMP JUMPDEST DUP1 DUP7 GT PUSH2 0x19EF JUMPI DUP6 PUSH2 0x19F1 JUMP JUMPDEST DUP1 JUMPDEST SWAP5 POP JUMPDEST PUSH1 0x2 SLOAD PUSH1 0x40 MLOAD PUSH4 0x41976E09 PUSH1 0xE0 SHL DUP2 MSTORE PUSH1 0x1 PUSH1 0x1 PUSH1 0xA0 SHL SUB DUP11 DUP2 AND PUSH1 0x4 DUP4 ADD MSTORE PUSH1 0x0 SWAP3 AND SWAP1 PUSH4 0x41976E09 SWAP1 PUSH1 0x24 ADD PUSH1 0x20 PUSH1 0x40 MLOAD DUP1 DUP4 SUB DUP2 DUP7 GAS STATICCALL ISZERO DUP1 ISZERO PUSH2 0x1A3F JUMPI RETURNDATASIZE PUSH1 0x0 DUP1 RETURNDATACOPY RETURNDATASIZE PUSH1 0x0 REVERT JUMPDEST POP POP POP POP PUSH1 0x40 MLOAD RETURNDATASIZE PUSH1 0x1F NOT PUSH1 0x1F DUP3 ADD AND DUP3 ADD DUP1 PUSH1 0x40 MSTORE POP DUP2 ADD SWAP1 PUSH2 0x1A63 SWAP2 SWAP1 PUSH2 0x21A5 JUMP JUMPDEST PUSH1 0x2 SLOAD PUSH1 0x40 MLOAD PUSH4 0x41976E09 PUSH1 0xE0 SHL DUP2 MSTORE PUSH1 0x1 PUSH1 0x1 PUSH1 0xA0 SHL SUB DUP12 DUP2 AND PUSH1 0x4 DUP4 ADD MSTORE SWAP3 SWAP4 POP PUSH1 0x0 SWAP3 SWAP1 SWAP2 AND SWAP1 PUSH4 0x41976E09 SWAP1 PUSH1 0x24 ADD PUSH1 0x20 PUSH1 0x40 MLOAD DUP1 DUP4 SUB DUP2 DUP7 GAS STATICCALL ISZERO DUP1 ISZERO PUSH2 0x1AB3 JUMPI RETURNDATASIZE PUSH1 0x0 DUP1 RETURNDATACOPY RETURNDATASIZE PUSH1 0x0 REVERT JUMPDEST POP POP POP POP PUSH1 0x40 MLOAD RETURNDATASIZE PUSH1 0x1F NOT PUSH1 0x1F DUP3 ADD AND DUP3 ADD DUP1 PUSH1 0x40 MSTORE POP DUP2 ADD SWAP1 PUSH2 0x1AD7 SWAP2 SWAP1 PUSH2 0x21A5 JUMP JUMPDEST SWAP1 POP PUSH1 0x0 PUSH2 0x1AED PUSH8 0xDE0B6B3A7640000 DUP4 PUSH2 0x2146 JUMP JUMPDEST PUSH1 0x1 PUSH1 0x1 PUSH1 0xA0 SHL SUB DUP13 AND PUSH1 0x0 SWAP1 DUP2 MSTORE PUSH1 0x3 PUSH1 0x20 DUP2 SWAP1 MSTORE PUSH1 0x40 SWAP1 SWAP2 KECCAK256 ADD SLOAD PUSH2 0x1B1C SWAP1 PUSH8 0xDE0B6B3A7640000 PUSH2 0x2192 JUMP JUMPDEST PUSH2 0x1B26 DUP6 DUP12 PUSH2 0x2146 JUMP JUMPDEST PUSH2 0x1B30 SWAP2 SWAP1 PUSH2 0x2146 JUMP JUMPDEST PUSH2 0x1B3A SWAP2 SWAP1 PUSH2 0x215D JUMP JUMPDEST SWAP1 POP PUSH1 0x0 PUSH8 0xDE0B6B3A7640000 DUP12 PUSH1 0x1 PUSH1 0x1 PUSH1 0xA0 SHL SUB AND PUSH4 0x313CE567 PUSH1 0x40 MLOAD DUP2 PUSH4 0xFFFFFFFF AND PUSH1 0xE0 SHL DUP2 MSTORE PUSH1 0x4 ADD PUSH1 0x20 PUSH1 0x40 MLOAD DUP1 DUP4 SUB DUP2 DUP7 GAS STATICCALL ISZERO DUP1 ISZERO PUSH2 0x1B85 JUMPI RETURNDATASIZE PUSH1 0x0 DUP1 RETURNDATACOPY RETURNDATASIZE PUSH1 0x0 REVERT JUMPDEST POP POP POP POP PUSH1 0x40 MLOAD RETURNDATASIZE PUSH1 0x1F NOT PUSH1 0x1F DUP3 ADD AND DUP3 ADD DUP1 PUSH1 0x40 MSTORE POP DUP2 ADD SWAP1 PUSH2 0x1BA9 SWAP2 SWAP1 PUSH2 0x21BE JUMP JUMPDEST PUSH2 0x1BB4 SWAP1 PUSH1 0xA PUSH2 0x22CC JUMP JUMPDEST PUSH2 0x1BBE SWAP1 DUP5 PUSH2 0x2146 JUMP JUMPDEST PUSH2 0x1BC8 SWAP2 SWAP1 PUSH2 0x215D JUMP JUMPDEST SWAP1 POP PUSH2 0x1BD4 DUP12 DUP3 PUSH2 0x12A4 JUMP JUMPDEST SWAP8 POP PUSH1 0x0 PUSH1 0x5 PUSH1 0x0 DUP16 PUSH1 0x1 PUSH1 0x1 PUSH1 0xA0 SHL SUB AND PUSH1 0x1 PUSH1 0x1 PUSH1 0xA0 SHL SUB AND DUP2 MSTORE PUSH1 0x20 ADD SWAP1 DUP2 MSTORE PUSH1 0x20 ADD PUSH1 0x0 KECCAK256 PUSH1 0x0 DUP14 PUSH1 0x1 PUSH1 0x1 PUSH1 0xA0 SHL SUB AND PUSH1 0x1 PUSH1 0x1 PUSH1 0xA0 SHL SUB AND DUP2 MSTORE PUSH1 0x20 ADD SWAP1 DUP2 MSTORE PUSH1 0x20 ADD PUSH1 0x0 KECCAK256 SWAP1 POP DUP1 PUSH1 0x0 ADD SLOAD DUP10 GT ISZERO PUSH2 0x1C33 JUMPI DUP1 SLOAD SWAP9 POP JUMPDEST POP POP POP POP POP POP POP POP SWAP5 POP SWAP5 SWAP3 POP POP POP JUMP JUMPDEST PUSH1 0x1 PUSH1 0x1 PUSH1 0xA0 SHL SUB DUP1 DUP7 AND PUSH1 0x0 SWAP1 DUP2 MSTORE PUSH1 0x5 PUSH1 0x20 SWAP1 DUP2 MSTORE PUSH1 0x40 DUP1 DUP4 KECCAK256 SWAP4 DUP8 AND DUP4 MSTORE SWAP3 SWAP1 MSTORE SWAP1 DUP2 KECCAK256 DUP1 SLOAD DUP4 SWAP3 SWAP1 PUSH2 0x1C7B SWAP1 DUP5 SWAP1 PUSH2 0x217F JUMP JUMPDEST SWAP1 SWAP2 SSTORE POP POP PUSH1 0x1 PUSH1 0x1 PUSH1 0xA0 SHL SUB DUP1 DUP8 AND PUSH1 0x0 SWAP1 DUP2 MSTORE PUSH1 0x5 PUSH1 0x20 SWAP1 DUP2 MSTORE PUSH1 0x40 DUP1 DUP4 KECCAK256 SWAP4 DUP8 AND DUP4 MSTORE SWAP3 SWAP1 MSTORE SWAP1 DUP2 KECCAK256 DUP1 SLOAD DUP4 SWAP3 SWAP1 PUSH2 0x1CB7 SWAP1 DUP5 SWAP1 PUSH2 0x2192 JUMP JUMPDEST SWAP1 SWAP2 SSTORE POP POP PUSH1 0x1 PUSH1 0x1 PUSH1 0xA0 SHL SUB DUP1 DUP7 AND PUSH1 0x0 SWAP1 DUP2 MSTORE PUSH1 0x5 PUSH1 0x20 SWAP1 DUP2 MSTORE PUSH1 0x40 DUP1 DUP4 KECCAK256 SWAP4 DUP9 AND DUP4 MSTORE SWAP3 DUP2 MSTORE DUP3 DUP3 KECCAK256 PUSH1 0x6 SWAP1 SWAP2 MSTORE SWAP2 DUP2 KECCAK256 PUSH1 0x2 DUP4 ADD SLOAD SWAP1 SWAP2 SWAP1 PUSH2 0x1D05 JUMPI PUSH8 0xDE0B6B3A7640000 PUSH2 0x1D0B JUMP JUMPDEST DUP3 PUSH1 0x2 ADD SLOAD JUMPDEST DUP3 PUSH1 0x2 ADD SLOAD DUP5 PUSH1 0x1 ADD SLOAD PUSH2 0x1D1F SWAP2 SWAP1 PUSH2 0x2146 JUMP JUMPDEST PUSH2 0x1D29 SWAP2 SWAP1 PUSH2 0x215D JUMP JUMPDEST SWAP1 POP PUSH2 0x1D35 DUP6 DUP3 PUSH2 0x217F JUMP JUMPDEST PUSH1 0x1 DUP5 ADD DUP2 SWAP1 SSTORE PUSH1 0x0 SUB PUSH2 0x1D4F JUMPI PUSH1 0x0 PUSH1 0x2 DUP5 ADD SSTORE PUSH2 0x1D75 JUMP JUMPDEST PUSH1 0x0 DUP3 PUSH1 0x2 ADD SLOAD GT PUSH2 0x1D69 JUMPI PUSH8 0xDE0B6B3A7640000 PUSH2 0x1D6F JUMP JUMPDEST DUP2 PUSH1 0x2 ADD SLOAD JUMPDEST PUSH1 0x2 DUP5 ADD SSTORE JUMPDEST DUP5 DUP3 PUSH1 0x1 ADD PUSH1 0x0 DUP3 DUP3 SLOAD PUSH2 0x1D89 SWAP2 SWAP1 PUSH2 0x217F JUMP JUMPDEST SWAP1 SWAP2 SSTORE POP PUSH2 0x1D9B SWAP1 POP DUP8 DUP11 ADDRESS DUP9 PUSH2 0x123D JUMP JUMPDEST PUSH1 0x0 PUSH2 0x1DA7 DUP8 DUP7 PUSH2 0x1366 JUMP JUMPDEST PUSH1 0x40 DUP1 MLOAD PUSH1 0x1 PUSH1 0x1 PUSH1 0xA0 SHL SUB DUP12 DUP2 AND DUP3 MSTORE PUSH1 0x20 DUP3 ADD DUP11 SWAP1 MSTORE SWAP2 DUP2 ADD DUP4 SWAP1 MSTORE SWAP2 SWAP3 POP DUP1 DUP10 AND SWAP2 DUP12 DUP3 AND SWAP2 DUP14 AND SWAP1 PUSH32 0xAC8BBD8FB7420B3123CF9E24D34551E40514EA69C5A1E97C10E513AAF06E7E42 SWAP1 PUSH1 0x60 ADD PUSH1 0x40 MLOAD DUP1 SWAP2 SUB SWAP1 LOG4 POP POP POP POP POP POP POP POP POP POP JUMP JUMPDEST PUSH1 0x1 PUSH1 0x1 PUSH1 0xA0 SHL SUB DUP3 AND PUSH1 0x0 SWAP1 DUP2 MSTORE PUSH1 0x3 PUSH1 0x20 MSTORE PUSH1 0x40 DUP2 KECCAK256 DUP2 PUSH2 0x1E2F DUP6 DUP6 PUSH2 0x1366 JUMP JUMPDEST PUSH1 0x2 SLOAD PUSH1 0x40 MLOAD PUSH4 0x41976E09 PUSH1 0xE0 SHL DUP2 MSTORE PUSH1 0x1 PUSH1 0x1 PUSH1 0xA0 SHL SUB DUP9 DUP2 AND PUSH1 0x4 DUP4 ADD MSTORE SWAP3 SWAP4 POP PUSH1 0x0 SWAP3 SWAP1 SWAP2 AND SWAP1 PUSH4 0x41976E09 SWAP1 PUSH1 0x24 ADD PUSH1 0x20 PUSH1 0x40 MLOAD DUP1 DUP4 SUB DUP2 DUP7 GAS STATICCALL ISZERO DUP1 ISZERO PUSH2 0x1E7F JUMPI RETURNDATASIZE PUSH1 0x0 DUP1 RETURNDATACOPY RETURNDATASIZE PUSH1 0x0 REVERT JUMPDEST POP POP POP POP PUSH1 0x40 MLOAD RETURNDATASIZE PUSH1 0x1F NOT PUSH1 0x1F DUP3 ADD AND DUP3 ADD DUP1 PUSH1 0x40 MSTORE POP DUP2 ADD SWAP1 PUSH2 0x1EA3 SWAP2 SWAP1 PUSH2 0x21A5 JUMP JUMPDEST SWAP1 POP DUP6 PUSH1 0x1 PUSH1 0x1 PUSH1 0xA0 SHL SUB AND PUSH4 0x313CE567 PUSH1 0x40 MLOAD DUP2 PUSH4 0xFFFFFFFF AND PUSH1 0xE0 SHL DUP2 MSTORE PUSH1 0x4 ADD PUSH1 0x20 PUSH1 0x40 MLOAD DUP1 DUP4 SUB DUP2 DUP7 GAS STATICCALL ISZERO DUP1 ISZERO PUSH2 0x1EE3 JUMPI RETURNDATASIZE PUSH1 0x0 DUP1 RETURNDATACOPY RETURNDATASIZE PUSH1 0x0 REVERT JUMPDEST POP POP POP POP PUSH1 0x40 MLOAD RETURNDATASIZE PUSH1 0x1F NOT PUSH1 0x1F DUP3 ADD AND DUP3 ADD DUP1 PUSH1 0x40 MSTORE POP DUP2 ADD SWAP1 PUSH2 0x1F07 SWAP2 SWAP1 PUSH2 0x21BE JUMP JUMPDEST PUSH2 0x1F12 SWAP1 PUSH1 0xA PUSH2 0x22CC JUMP JUMPDEST PUSH2 0x1F24 SWAP1 PUSH8 0xDE0B6B3A7640000 PUSH2 0x2146 JUMP JUMPDEST PUSH1 0x2 DUP5 ADD SLOAD PUSH2 0x1F33 DUP4 DUP6 PUSH2 0x2146 JUMP JUMPDEST PUSH2 0x1F3D SWAP2 SWAP1 PUSH2 0x2146 JUMP JUMPDEST PUSH2 0x1F47 SWAP2 SWAP1 PUSH2 0x215D JUMP JUMPDEST SWAP8 SWAP7 POP POP POP POP POP POP POP JUMP JUMPDEST PUSH1 0x0 DUP1 PUSH1 0x20 PUSH1 0x0 DUP5 MLOAD PUSH1 0x20 DUP7 ADD PUSH1 0x0 DUP9 GAS CALL DUP1 PUSH2 0x1F75 JUMPI PUSH1 0x40 MLOAD RETURNDATASIZE PUSH1 0x0 DUP3 RETURNDATACOPY RETURNDATASIZE DUP2 REVERT JUMPDEST POP POP PUSH1 0x0 MLOAD RETURNDATASIZE SWAP2 POP DUP2 ISZERO PUSH2 0x1F8D JUMPI DUP1 PUSH1 0x1 EQ ISZERO PUSH2 0x1F9A JUMP JUMPDEST PUSH1 0x1 PUSH1 0x1 PUSH1 0xA0 SHL SUB DUP5 AND EXTCODESIZE ISZERO JUMPDEST ISZERO PUSH2 0xAF9 JUMPI PUSH1 0x40 MLOAD PUSH4 0x5274AFE7 PUSH1 0xE0 SHL DUP2 MSTORE PUSH1 0x1 PUSH1 0x1 PUSH1 0xA0 SHL SUB DUP6 AND PUSH1 0x4 DUP3 ADD MSTORE PUSH1 0x24 ADD PUSH2 0xE80 JUMP JUMPDEST DUP1 CALLDATALOAD PUSH1 0x1 PUSH1 0x1 PUSH1 0xA0 SHL SUB DUP2 AND DUP2 EQ PUSH2 0x1FDA JUMPI PUSH1 0x0 DUP1 REVERT JUMPDEST SWAP2 SWAP1 POP JUMP JUMPDEST PUSH1 0x0 DUP1 PUSH1 0x40 DUP4 DUP6 SUB SLT ISZERO PUSH2 0x1FF2 JUMPI PUSH1 0x0 DUP1 REVERT JUMPDEST PUSH2 0x1FFB DUP4 PUSH2 0x1FC3 JUMP JUMPDEST SWAP5 PUSH1 0x20 SWAP4 SWAP1 SWAP4 ADD CALLDATALOAD SWAP4 POP POP POP JUMP JUMPDEST PUSH1 0x0 DUP1 PUSH1 0x40 DUP4 DUP6 SUB SLT ISZERO PUSH2 0x201C JUMPI PUSH1 0x0 DUP1 REVERT JUMPDEST PUSH2 0x2025 DUP4 PUSH2 0x1FC3 JUMP JUMPDEST SWAP2 POP PUSH2 0x2033 PUSH1 0x20 DUP5 ADD PUSH2 0x1FC3 JUMP JUMPDEST SWAP1 POP SWAP3 POP SWAP3 SWAP1 POP JUMP JUMPDEST PUSH1 0x0 PUSH1 0x20 DUP3 DUP5 SUB SLT ISZERO PUSH2 0x204E JUMPI PUSH1 0x0 DUP1 REVERT JUMPDEST PUSH2 0x6E0 DUP3 PUSH2 0x1FC3 JUMP JUMPDEST PUSH1 0x0 DUP1 PUSH1 0x0 DUP1 PUSH1 0x80 DUP6 DUP8 SUB SLT ISZERO PUSH2 0x206D JUMPI PUSH1 0x0 DUP1 REVERT JUMPDEST PUSH2 0x2076 DUP6 PUSH2 0x1FC3 JUMP JUMPDEST SWAP4 POP PUSH2 0x2084 PUSH1 0x20 DUP7 ADD PUSH2 0x1FC3 JUMP JUMPDEST SWAP3 POP PUSH2 0x2092 PUSH1 0x40 DUP7 ADD PUSH2 0x1FC3 JUMP JUMPDEST SWAP4 SWAP7 SWAP3 SWAP6 POP SWAP3 SWAP4 PUSH1 0x60 ADD CALLDATALOAD SWAP3 POP POP JUMP JUMPDEST PUSH1 0x0 PUSH1 0x20 DUP3 DUP5 SUB SLT ISZERO PUSH2 0x20B4 JUMPI PUSH1 0x0 DUP1 REVERT JUMPDEST POP CALLDATALOAD SWAP2 SWAP1 POP JUMP JUMPDEST PUSH1 0x0 DUP1 PUSH1 0x0 DUP1 PUSH1 0x80 DUP6 DUP8 SUB SLT ISZERO PUSH2 0x20D1 JUMPI PUSH1 0x0 DUP1 REVERT JUMPDEST PUSH2 0x20DA DUP6 PUSH2 0x1FC3 JUMP JUMPDEST SWAP4 POP PUSH2 0x20E8 PUSH1 0x20 DUP7 ADD PUSH2 0x1FC3 JUMP JUMPDEST SWAP4 SWAP7 SWAP4 SWAP6 POP POP POP POP PUSH1 0x40 DUP3 ADD CALLDATALOAD SWAP2 PUSH1 0x60 ADD CALLDATALOAD SWAP1 JUMP JUMPDEST PUSH1 0x0 DUP1 PUSH1 0x0 PUSH1 0x60 DUP5 DUP7 SUB SLT ISZERO PUSH2 0x2112 JUMPI PUSH1 0x0 DUP1 REVERT JUMPDEST PUSH2 0x211B DUP5 PUSH2 0x1FC3 JUMP JUMPDEST SWAP6 PUSH1 0x20 DUP6 ADD CALLDATALOAD SWAP6 POP PUSH1 0x40 SWAP1 SWAP5 ADD CALLDATALOAD SWAP4 SWAP3 POP POP POP JUMP JUMPDEST PUSH4 0x4E487B71 PUSH1 0xE0 SHL PUSH1 0x0 MSTORE PUSH1 0x11 PUSH1 0x4 MSTORE PUSH1 0x24 PUSH1 0x0 REVERT JUMPDEST DUP1 DUP3 MUL DUP2 ISZERO DUP3 DUP3 DIV DUP5 EQ OR PUSH2 0x6E3 JUMPI PUSH2 0x6E3 PUSH2 0x2130 JUMP JUMPDEST PUSH1 0x0 DUP3 PUSH2 0x217A JUMPI PUSH4 0x4E487B71 PUSH1 0xE0 SHL PUSH1 0x0 MSTORE PUSH1 0x12 PUSH1 0x4 MSTORE PUSH1 0x24 PUSH1 0x0 REVERT JUMPDEST POP DIV SWAP1 JUMP JUMPDEST DUP2 DUP2 SUB DUP2 DUP2 GT ISZERO PUSH2 0x6E3 JUMPI PUSH2 0x6E3 PUSH2 0x2130 JUMP JUMPDEST DUP1 DUP3 ADD DUP1 DUP3 GT ISZERO PUSH2 0x6E3 JUMPI PUSH2 0x6E3 PUSH2 0x2130 JUMP JUMPDEST PUSH1 0x0 PUSH1 0x20 DUP3 DUP5 SUB SLT ISZERO PUSH2 0x21B7 JUMPI PUSH1 0x0 DUP1 REVERT JUMPDEST POP MLOAD SWAP2 SWAP1 POP JUMP JUMPDEST PUSH1 0x0 PUSH1 0x20 DUP3 DUP5 SUB SLT ISZERO PUSH2 0x21D0 JUMPI PUSH1 0x0 DUP1 REVERT JUMPDEST DUP2 MLOAD PUSH1 0xFF DUP2 AND DUP2 EQ PUSH2 0x21E1 JUMPI PUSH1 0x0 DUP1 REVERT JUMPDEST SWAP4 SWAP3 POP POP POP JUMP JUMPDEST PUSH1 0x1 DUP2 DUP2 JUMPDEST DUP1 DUP6 GT ISZERO PUSH2 0x2223 JUMPI DUP2 PUSH1 0x0 NOT DIV DUP3 GT ISZERO PUSH2 0x2209 JUMPI PUSH2 0x2209 PUSH2 0x2130 JUMP JUMPDEST DUP1 DUP6 AND ISZERO PUSH2 0x2216 JUMPI SWAP2 DUP2 MUL SWAP2 JUMPDEST SWAP4 DUP5 SHR SWAP4 SWAP1 DUP1 MUL SWAP1 PUSH2 0x21ED JUMP JUMPDEST POP SWAP3 POP SWAP3 SWAP1 POP JUMP JUMPDEST PUSH1 0x0 DUP3 PUSH2 0x223A JUMPI POP PUSH1 0x1 PUSH2 0x6E3 JUMP JUMPDEST DUP2 PUSH2 0x2247 JUMPI POP PUSH1 0x0 PUSH2 0x6E3 JUMP JUMPDEST DUP2 PUSH1 0x1 DUP2 EQ PUSH2 0x225D JUMPI PUSH1 0x2 DUP2 EQ PUSH2 0x2267 JUMPI PUSH2 0x2283 JUMP JUMPDEST PUSH1 0x1 SWAP2 POP POP PUSH2 0x6E3 JUMP JUMPDEST PUSH1 0xFF DUP5 GT ISZERO PUSH2 0x2278 JUMPI PUSH2 0x2278 PUSH2 0x2130 JUMP JUMPDEST POP POP PUSH1 0x1 DUP3 SHL PUSH2 0x6E3 JUMP JUMPDEST POP PUSH1 0x20 DUP4 LT PUSH2 0x133 DUP4 LT AND PUSH1 0x4E DUP5 LT PUSH1 0xB DUP5 LT AND OR ISZERO PUSH2 0x22A6 JUMPI POP DUP2 DUP2 EXP PUSH2 0x6E3 JUMP JUMPDEST PUSH2 0x22B0 DUP4 DUP4 PUSH2 0x21E8 JUMP JUMPDEST DUP1 PUSH1 0x0 NOT DIV DUP3 GT ISZERO PUSH2 0x22C4 JUMPI PUSH2 0x22C4 PUSH2 0x2130 JUMP JUMPDEST MUL SWAP4 SWAP3 POP POP POP JUMP JUMPDEST PUSH1 0x0 PUSH2 0x6E0 PUSH1 0xFF DUP5 AND DUP4 PUSH2 0x222B JUMP JUMPDEST PUSH4 0x4E487B71 PUSH1 0xE0 SHL PUSH1 0x0 MSTORE PUSH1 0x32 PUSH1 0x4 MSTORE PUSH1 0x24 PUSH1 0x0 REVERT JUMPDEST PUSH1 0x0 PUSH1 0x1 DUP3 ADD PUSH2 0x2303 JUMPI PUSH2 0x2303 PUSH2 0x2130 JUMP JUMPDEST POP PUSH1 0x1 ADD SWAP1 JUMP INVALID LOG2 PUSH5 0x6970667358 0x22 SLT KECCAK256 0xF8 PUSH31 0xA04138727B1E483F11CB5B8D23DC67E88B572D5E6D2993BAA54225FFC0DC64 PUSH20 0x6F6C634300081400330000000000000000000000 "},"methodIdentifiers":{"accrueInterest(address)":"9198e515","assetConfigs(address)":"7609d7f6","borrow(address,uint256)":"4b8a3529","deposit(address,uint256)":"47e7ef24","getAccountLiquidity(address)":"5ec88c79","getAmountForShares(address,uint256)":"49e826e6","getTotalDebt(address,address)":"d6446d43","liquidate(address,address,address,uint256)":"aab3f868","listAsset(address,address,uint256,uint256)":"d29b3cb1","listedAssets(uint256)":"ab78af67","owner()":"8da5cb5b","poolAccounts(address)":"a500ba7c","priceOracle()":"2630c12f","renounceOwnership()":"715018a6","repay(address,uint256)":"22867d78","setPriceOracle(address)":"530e784f","transferOwnership(address)":"f2fde38b","updateAssetConfig(address,uint256,uint256)":"d7eb003a","userAccounts(address,address)":"2ff75c59","withdraw(address,uint256)":"f3fef3a3"}}}}}