{"contracts/LendingPoolV2.sol":{"LendingPoolV2":{"abi":[{"inputs":[{"internalType":"address","name":"_priceOracle","type":"address"},{"internalType":"address","name":"admin","type":"address"}],"stateMutability":"nonpayable","type":"constructor"},{"inputs":[],"name":"AssetAlreadyListed","type":"error"},{"inputs":[],"name":"AssetNotListed","type":"error"},{"inputs":[],"name":"InsufficientCollateral","type":"error"},{"inputs":[],"name":"InsufficientLiquidity","type":"error"},{"inputs":[],"name":"LiquidationNotPossible","type":"error"},{"inputs":[{"internalType":"address","name":"owner","type":"address"}],"name":"OwnableInvalidOwner","type":"error"},{"inputs":[{"internalType":"address","name":"account","type":"address"}],"name":"OwnableUnauthorizedAccount","type":"error"},{"inputs":[],"name":"ReentrancyGuardReentrantCall","type":"error"},{"inputs":[{"internalType":"address","name":"token","type":"address"}],"name":"SafeERC20FailedOperation","type":"error"},{"inputs":[],"name":"ZeroAddress","type":"error"},{"inputs":[],"name":"ZeroAmount","type":"error"},{"anonymous":false,"inputs":[{"indexed":true,"internalType":"address","name":"asset","type":"address"},{"indexed":false,"internalType":"uint256","name":"collateralFactor","type":"uint256"},{"indexed":false,"internalType":"uint256","name":"liquidationBonus","type":"uint256"}],"name":"AssetConfigUpdated","type":"event"},{"anonymous":false,"inputs":[{"indexed":true,"internalType":"address","name":"asset","type":"address"},{"indexed":false,"internalType":"address","name":"irm","type":"address"},{"indexed":false,"internalType":"uint256","name":"collateralFactor","type":"uint256"},{"indexed":false,"internalType":"uint256","name":"liquidationBonus","type":"uint256"}],"name":"AssetListed","type":"event"},{"anonymous":false,"inputs":[{"indexed":true,"internalType":"address","name":"user","type":"address"},{"indexed":true,"internalType":"address","name":"asset","type":"address"},{"indexed":false,"internalType":"uint256","name":"amount","type":"uint256"}],"name":"Borrow","type":"event"},{"anonymous":false,"inputs":[{"indexed":true,"internalType":"address","name":"user","type":"address"},{"indexed":true,"internalType":"address","name":"asset","type":"address"},{"indexed":false,"internalType":"uint256","name":"amount","type":"uint256"},{"indexed":false,"internalType":"uint256","name":"shares","type":"uint256"}],"name":"Deposit","type":"event"},{"anonymous":false,"inputs":[{"indexed":true,"internalType":"address","name":"liquidator","type":"address"},{"indexed":true,"internalType":"address","name":"borrower","type":"address"},{"indexed":true,"internalType":"address","name":"collateralAsset","type":"address"},{"indexed":false,"internalType":"address","name":"borrowAsset","type":"address"},{"indexed":false,"internalType":"uint256","name":"repayAmount","type":"uint256"},{"indexed":false,"internalType":"uint256","name":"seizedAmount","type":"uint256"}],"name":"Liquidate","type":"event"},{"anonymous":false,"inputs":[{"indexed":true,"internalType":"address","name":"previousOwner","type":"address"},{"indexed":true,"internalType":"address","name":"newOwner","type":"address"}],"name":"OwnershipTransferred","type":"event"},{"anonymous":false,"inputs":[{"indexed":true,"internalType":"address","name":"newOracle","type":"address"}],"name":"PriceOracleUpdated","type":"event"},{"anonymous":false,"inputs":[{"indexed":true,"internalType":"address","name":"user","type":"address"},{"indexed":true,"internalType":"address","name":"asset","type":"address"},{"indexed":false,"internalType":"uint256","name":"amount","type":"uint256"}],"name":"Repay","type":"event"},{"anonymous":false,"inputs":[{"indexed":true,"internalType":"address","name":"user","type":"address"},{"indexed":true,"internalType":"address","name":"asset","type":"address"},{"indexed":false,"internalType":"uint256","name":"amount","type":"uint256"},{"indexed":false,"internalType":"uint256","name":"shares","type":"uint256"}],"name":"Withdraw","type":"event"},{"inputs":[{"internalType":"address","name":"","type":"address"}],"name":"assetConfigs","outputs":[{"internalType":"address","name":"assetAddress","type":"address"},{"internalType":"address","name":"irmAddress","type":"address"},{"internalType":"uint256","name":"collateralFactor","type":"uint256"},{"internalType":"uint256","name":"liquidationBonus","type":"uint256"},{"internalType":"bool","name":"isActive","type":"bool"}],"stateMutability":"view","type":"function"},{"inputs":[{"internalType":"address","name":"_asset","type":"address"},{"internalType":"uint256","name":"_amount","type":"uint256"}],"name":"borrow","outputs":[],"stateMutability":"nonpayable","type":"function"},{"inputs":[{"internalType":"address","name":"_asset","type":"address"},{"internalType":"uint256","name":"_amount","type":"uint256"}],"name":"deposit","outputs":[],"stateMutability":"nonpayable","type":"function"},{"inputs":[{"internalType":"address","name":"_user","type":"address"}],"name":"getAccountLiquidity","outputs":[{"internalType":"uint256","name":"totalCollateralValue","type":"uint256"},{"internalType":"uint256","name":"totalBorrowValue","type":"uint256"}],"stateMutability":"nonpayable","type":"function"},{"inputs":[{"internalType":"address","name":"_asset","type":"address"},{"internalType":"uint256","name":"_shares","type":"uint256"}],"name":"getAmountForShares","outputs":[{"internalType":"uint256","name":"","type":"uint256"}],"stateMutability":"nonpayable","type":"function"},{"inputs":[{"internalType":"address","name":"_asset","type":"address"},{"internalType":"uint256","name":"_amount","type":"uint256"}],"name":"getSharesForAmount","outputs":[{"internalType":"uint256","name":"","type":"uint256"}],"stateMutability":"nonpayable","type":"function"},{"inputs":[{"internalType":"address","name":"_borrower","type":"address"},{"internalType":"address","name":"_borrowAsset","type":"address"},{"internalType":"address","name":"_collateralAsset","type":"address"},{"internalType":"uint256","name":"_repayAmount","type":"uint256"}],"name":"liquidate","outputs":[],"stateMutability":"nonpayable","type":"function"},{"inputs":[{"internalType":"address","name":"_asset","type":"address"},{"internalType":"address","name":"_irm","type":"address"},{"internalType":"uint256","name":"_collateralFactor","type":"uint256"},{"internalType":"uint256","name":"_liquidationBonus","type":"uint256"}],"name":"listAsset","outputs":[],"stateMutability":"nonpayable","type":"function"},{"inputs":[{"internalType":"uint256","name":"","type":"uint256"}],"name":"listedAssets","outputs":[{"internalType":"address","name":"","type":"address"}],"stateMutability":"view","type":"function"},{"inputs":[],"name":"owner","outputs":[{"internalType":"address","name":"","type":"address"}],"stateMutability":"view","type":"function"},{"inputs":[{"internalType":"address","name":"","type":"address"}],"name":"poolAccounts","outputs":[{"internalType":"uint256","name":"totalShares","type":"uint256"},{"internalType":"uint256","name":"totalBorrows","type":"uint256"},{"internalType":"uint256","name":"totalBorrowShares","type":"uint256"},{"internalType":"uint256","name":"lastInterestAccruedTimestamp","type":"uint256"}],"stateMutability":"view","type":"function"},{"inputs":[],"name":"priceOracle","outputs":[{"internalType":"contract IPriceOracle","name":"","type":"address"}],"stateMutability":"view","type":"function"},{"inputs":[],"name":"renounceOwnership","outputs":[],"stateMutability":"nonpayable","type":"function"},{"inputs":[{"internalType":"address","name":"_asset","type":"address"},{"internalType":"uint256","name":"_amount","type":"uint256"}],"name":"repay","outputs":[],"stateMutability":"nonpayable","type":"function"},{"inputs":[{"internalType":"address","name":"_newOracle","type":"address"}],"name":"setPriceOracle","outputs":[],"stateMutability":"nonpayable","type":"function"},{"inputs":[{"internalType":"address","name":"newOwner","type":"address"}],"name":"transferOwnership","outputs":[],"stateMutability":"nonpayable","type":"function"},{"inputs":[{"internalType":"address","name":"_asset","type":"address"},{"internalType":"uint256","name":"_collateralFactor","type":"uint256"},{"internalType":"uint256","name":"_liquidationBonus","type":"uint256"}],"name":"updateAssetConfig","outputs":[],"stateMutability":"nonpayable","type":"function"},{"inputs":[{"internalType":"address","name":"","type":"address"},{"internalType":"address","name":"","type":"address"}],"name":"userAccounts","outputs":[{"internalType":"uint256","name":"shares","type":"uint256"},{"internalType":"uint256","name":"borrowPrincipal","type":"uint256"},{"internalType":"uint256","name":"borrowShares","type":"uint256"}],"stateMutability":"view","type":"function"},{"inputs":[{"internalType":"address","name":"_asset","type":"address"},{"internalType":"uint256","name":"_shares","type":"uint256"}],"name":"withdraw","outputs":[],"stateMutability":"nonpayable","type":"function"}],"evm":{"bytecode":{"linkReferences":{},"object":"60806040523480156200001157600080fd5b50604051620022d1380380620022d1833981016040819052620000349162000130565b806001600160a01b0381166200006457604051631e4fbdf760e01b81526000600482015260240160405180910390fd5b6200006f81620000c3565b50600180556001600160a01b0382166200009c5760405163d92e233d60e01b815260040160405180910390fd5b50600280546001600160a01b0319166001600160a01b039290921691909117905562000168565b600080546001600160a01b038381166001600160a01b0319831681178455604051919092169283917f8be0079c531659141344cd1fd0a4f28419497f9722a3daafe3b4186f6b6457e09190a35050565b80516001600160a01b03811681146200012b57600080fd5b919050565b600080604083850312156200014457600080fd5b6200014f8362000113565b91506200015f6020840162000113565b90509250929050565b61215980620001786000396000f3fe608060405234801561001057600080fd5b50600436106101215760003560e01c80637609d7f6116100ad578063ab78af6711610071578063ab78af6714610358578063d29b3cb11461036b578063d7eb003a1461037e578063f2fde38b14610391578063f3fef3a3146103a457600080fd5b80637609d7f61461024a5780638da5cb5b146102cc57806398b3ed59146102dd578063a500ba7c146102f0578063aab3f8681461034557600080fd5b806349e826e6116100f457806349e826e6146101d35780634b8a3529146101f4578063530e784f146102075780635ec88c791461021a578063715018a61461024257600080fd5b806322867d78146101265780632630c12f1461013b5780632ff75c591461016b57806347e7ef24146101c0575b600080fd5b610139610134366004611df8565b6103b7565b005b60025461014e906001600160a01b031681565b6040516001600160a01b0390911681526020015b60405180910390f35b6101a5610179366004611e22565b600560209081526000928352604080842090915290825290208054600182015460029092015490919083565b60408051938452602084019290925290820152606001610162565b6101396101ce366004611df8565b6105a4565b6101e66101e1366004611df8565b6106e4565b604051908152602001610162565b610139610202366004611df8565b610702565b610139610215366004611e55565b610a3a565b61022d610228366004611e55565b610ab3565b60408051928352602083019190915201610162565b610139610ac8565b610297610258366004611e55565b6003602081905260009182526040909120805460018201546002830154938301546004909301546001600160a01b039283169492909116929060ff1685565b604080516001600160a01b0396871681529590941660208601529284019190915260608301521515608082015260a001610162565b6000546001600160a01b031661014e565b6101e66102eb366004611df8565b610adc565b6103256102fe366004611e55565b60066020526000908152604090208054600182015460028301546003909301549192909184565b604080519485526020850193909352918301526060820152608001610162565b610139610353366004611e70565b610af1565b61014e610366366004611ebb565b610b36565b610139610379366004611ed4565b610b60565b61013961038c366004611f16565b610cf0565b61013961039f366004611e55565b610d98565b6101396103b2366004611df8565b610ddb565b6103bf610f97565b6001600160a01b03821660009081526003602052604090206004015460ff166103fb5760405163b77e1e0f60e01b815260040160405180910390fd5b8060000361041c57604051631f2a200560e01b815260040160405180910390fd5b61042582610fc1565b3360009081526005602090815260408083206001600160a01b0386168452825280832060069092528220600282015491929091908190036104a957604051600081526001600160a01b0386169033907f05f2eeda0e08e4b437f487c8d7d29b14537d15e3488170dc3de5dbdf8dac46849060200160405180910390a3505050610597565b60006104b58683611142565b90506000806000198714806104ca5750828710155b156104d95750819050826104f4565b869150826104e78386611f5f565b6104f19190611f76565b90505b808660020160008282546105089190611f98565b92505081905550818560010160008282546105239190611f98565b925050819055508085600201600082825461053e9190611f98565b90915550610550905088333085611214565b6040518281526001600160a01b0389169033907f05f2eeda0e08e4b437f487c8d7d29b14537d15e3488170dc3de5dbdf8dac46849060200160405180910390a35050505050505b6105a060018055565b5050565b6105ac610f97565b6001600160a01b03821660009081526003602052604090206004015460ff166105e85760405163b77e1e0f60e01b815260040160405180910390fd5b8060000361060957604051631f2a200560e01b815260040160405180910390fd5b61061282610fc1565b3360009081526005602090815260408083206001600160a01b03861684528252808320600690925282209091610648858561127b565b90508083600001600082825461065e9190611fab565b9091555050815481908390600090610677908490611fab565b9091555061069290506001600160a01b038616333087611214565b60408051858152602081018390526001600160a01b0387169133917fdcbc1c05240f31ff3ad067ef1ee35ce4997762752e3a095284754544f4c709d7910160405180910390a35050506105a060018055565b60006106ef83610fc1565b6106f98383611142565b90505b92915050565b61070a610f97565b6001600160a01b03821660009081526003602052604090206004015460ff166107465760405163b77e1e0f60e01b815260040160405180910390fd5b8060000361076757604051631f2a200560e01b815260040160405180910390fd5b61077082610fc1565b60008061077c33611329565b6002546040516341976e0960e01b81526001600160a01b03888116600483015293955091935060009216906341976e0990602401602060405180830381865afa1580156107cd573d6000803e3d6000fd5b505050506040513d601f19601f820116820180604052508101906107f19190611fbe565b90506000856001600160a01b031663313ce5676040518163ffffffff1660e01b8152600401602060405180830381865afa158015610833573d6000803e3d6000fd5b505050506040513d601f19601f820116820180604052508101906108579190611fd7565b61086290600a6120e5565b61086c8387611f5f565b6108769190611f76565b9050836108838285611fab565b11156108a257604051633a23d82560e01b815260040160405180910390fd5b6040516370a0823160e01b815230600482015285906001600160a01b038816906370a0823190602401602060405180830381865afa1580156108e8573d6000803e3d6000fd5b505050506040513d601f19601f8201168201806040525081019061090c9190611fbe565b101561092b5760405163bb55fd2760e01b815260040160405180910390fd5b61093486610fc1565b6000610940878761127b565b3360009081526005602090815260408083206001600160a01b038c16845290915281206002018054929350839290919061097b908490611fab565b90915550506001600160a01b038716600090815260066020526040812060010180548892906109ab908490611fab565b90915550506001600160a01b038716600090815260066020526040812060020180548392906109db908490611fab565b909155506109ec905087338861167e565b6040518681526001600160a01b0388169033907f312a5e5e1079f5dda4e95dbbd0b908b291fd5b992ef22073643ab691572c5b529060200160405180910390a350505050506105a060018055565b610a426116b4565b6001600160a01b038116610a695760405163d92e233d60e01b815260040160405180910390fd5b600280546001600160a01b0319166001600160a01b0383169081179091556040517fefe8ab924ca486283a79dc604baa67add51afb82af1db8ac386ebbba643cdffd90600090a250565b600080610abf83611329565b91509150915091565b610ad06116b4565b610ada60006116e1565b565b6000610ae783610fc1565b6106f9838361127b565b610af9610f97565b610b04848484611731565b600080610b13868686866117ec565b91509150610b25338787878686611a74565b5050610b3060018055565b50505050565b60048181548110610b4657600080fd5b6000918252602090912001546001600160a01b0316905081565b610b686116b4565b6001600160a01b03841660009081526003602052604090206004015460ff1615610ba55760405163a620d1e160e01b815260040160405180910390fd5b6001600160a01b0384161580610bc257506001600160a01b038316155b15610be05760405163d92e233d60e01b815260040160405180910390fd5b6040805160a0810182526001600160a01b03868116808352868216602080850182815285870189815260608088018a8152600160808a01818152600089815260038089528d82209c518d546001600160a01b0319908116918e16919091178e5597518d850180548a1691909d1617909b55945160028c01559151988a0198909855516004988901805460ff1916911515919091179055875496870188559690527f8a35acfbc15ff81a39ae7d344fd709f28e8600b4aa8c65c6b64bfe7fe36bd19b9094018054909416831790935584519081529182018690529281018490527f118fa810d8fabcc6b2e10162f8fe68e43ecb99ee012745078a933d901c970ffd910160405180910390a250505050565b610cf86116b4565b6001600160a01b03831660009081526003602052604090206004015460ff16610d345760405163b77e1e0f60e01b815260040160405180910390fd5b6001600160a01b0383166000818152600360208181526040928390206002810187905590910184905581518581529081018490527f6914ee2e02a37a312e7d04b6a20f6ecff93d21b1afcca29966fa4c0ddcf15519910160405180910390a2505050565b610da06116b4565b6001600160a01b038116610dcf57604051631e4fbdf760e01b8152600060048201526024015b60405180910390fd5b610dd8816116e1565b50565b610de3610f97565b6001600160a01b03821660009081526003602052604090206004015460ff16610e1f5760405163b77e1e0f60e01b815260040160405180910390fd5b80600003610e4057604051631f2a200560e01b815260040160405180910390fd5b610e4982610fc1565b3360009081526005602090815260408083206001600160a01b038616845290915290208054821115610e8e57604051633a23d82560e01b815260040160405180910390fd5b6000610e9a8484611142565b90506000610ea733611329565b9150506000610ec63387878760000154610ec19190611f98565b611c25565b905080821115610ee957604051633a23d82560e01b815260040160405180910390fd5b84846000016000828254610efd9190611f98565b90915550506001600160a01b03861660009081526006602052604081208054879290610f2a908490611f98565b90915550610f4490506001600160a01b038716338561167e565b60408051848152602081018790526001600160a01b0388169133917ff341246adaac6f497bc2a656f546ab9e182111d630394f0c57c710a59a2cb567910160405180910390a3505050506105a060018055565b600260015403610fba57604051633ee5aeb560e01b815260040160405180910390fd5b6002600155565b6001600160a01b038116600090815260066020526040812060038101549091819003610fea5750425b6000610ff68242611f98565b905080158061100757506001830154155b156110185750504260039091015550565b6000611028858560000154611142565b90506000811561105a5781670de0b6b3a7640000866001015461104b9190611f5f565b6110559190611f76565b61105d565b60005b6001600160a01b0387811660009081526003602052604080822060010154905163f71bd11b60e01b81526004810185905293945090911691829063f71bd11b90602401602060405180830381865afa1580156110bd573d6000803e3d6000fd5b505050506040513d601f19601f820116820180604052508101906110e19190611fbe565b90506000670de0b6b3a764000086838a600101546110ff9190611f5f565b6111099190611f5f565b6111139190611f76565b9050808860010160008282546111299190611fab565b9091555050426003909801979097555050505050505050565b6001600160a01b0382166000908152600660205260408120805415806111685750805483115b156111775760009150506106fc565b60018101546040516370a0823160e01b8152306004820152600091906001600160a01b038716906370a0823190602401602060405180830381865afa1580156111c4573d6000803e3d6000fd5b505050506040513d601f19601f820116820180604052508101906111e89190611fbe565b6111f29190611fab565b82549091506112018286611f5f565b61120b9190611f76565b95945050505050565b6040516001600160a01b038481166024830152838116604483015260648201839052610b309186918216906323b872dd906084015b604051602081830303815290604052915060e01b6020820180516001600160e01b038381831617835250505050611d6b565b6001600160a01b038216600081815260066020526040808220600181015491516370a0823160e01b815230600482015292939092849291906370a0823190602401602060405180830381865afa1580156112d9573d6000803e3d6000fd5b505050506040513d601f19601f820116820180604052508101906112fd9190611fbe565b6113079190611fab565b90508060000361131b5783925050506106fc565b815481906112019086611f5f565b6004546000908190815b8181101561167757600060048281548110611350576113506120f4565b60009182526020808320909101546001600160a01b0390811680845260038084526040808620815160a081018352815486168152600182810154871682890152600280840154838601529483015460608084019190915260049093015460ff1615156080830152958e16885260058752828820858952875296829020825191820183528054825294850154958101959095529201549183019190915292506113f783610fc1565b80511561153c57600061140e848360000151611142565b6002546040516341976e0960e01b81526001600160a01b038781166004830152929350600092909116906341976e0990602401602060405180830381865afa15801561145e573d6000803e3d6000fd5b505050506040513d601f19601f820116820180604052508101906114829190611fbe565b90506000856001600160a01b031663313ce5676040518163ffffffff1660e01b8152600401602060405180830381865afa1580156114c4573d6000803e3d6000fd5b505050506040513d601f19601f820116820180604052508101906114e89190611fd7565b6114f390600a6120e5565b6114fd8385611f5f565b6115079190611f76565b9050670de0b6b3a76400008560400151826115229190611f5f565b61152c9190611f76565b611536908b611fab565b99505050505b604081015115611661576000611556848360400151611142565b6002546040516341976e0960e01b81526001600160a01b038781166004830152929350600092909116906341976e0990602401602060405180830381865afa1580156115a6573d6000803e3d6000fd5b505050506040513d601f19601f820116820180604052508101906115ca9190611fbe565b90506000856001600160a01b031663313ce5676040518163ffffffff1660e01b8152600401602060405180830381865afa15801561160c573d6000803e3d6000fd5b505050506040513d601f19601f820116820180604052508101906116309190611fd7565b61163b90600a6120e5565b6116458385611f5f565b61164f9190611f76565b905061165b818a611fab565b98505050505b505050808061166f9061210a565b915050611333565b5050915091565b6040516001600160a01b038381166024830152604482018390526116af91859182169063a9059cbb90606401611249565b505050565b6000546001600160a01b03163314610ada5760405163118cdaa760e01b8152336004820152602401610dc6565b600080546001600160a01b038381166001600160a01b0319831681178455604051919092169283917f8be0079c531659141344cd1fd0a4f28419497f9722a3daafe3b4186f6b6457e09190a35050565b6001600160a01b03821660009081526003602052604090206004015460ff16158061177857506001600160a01b03811660009081526003602052604090206004015460ff16155b156117965760405163b77e1e0f60e01b815260040160405180910390fd5b61179f82610fc1565b6117a881610fc1565b6000806117b485611329565b9150915080600014806117c75750808210155b156117e55760405163481f8f2f60e11b815260040160405180910390fd5b5050505050565b6001600160a01b038085166000908152600560209081526040808320938716835292905290812060028101548291908290611828908890611142565b9050600019850361183b5780935061184d565b808511611848578461184a565b805b93505b6002546040516341976e0960e01b81526001600160a01b03898116600483015260009216906341976e0990602401602060405180830381865afa158015611898573d6000803e3d6000fd5b505050506040513d601f19601f820116820180604052508101906118bc9190611fbe565b6002546040516341976e0960e01b81526001600160a01b038a81166004830152929350600092909116906341976e0990602401602060405180830381865afa15801561190c573d6000803e3d6000fd5b505050506040513d601f19601f820116820180604052508101906119309190611fbe565b90506000611946670de0b6b3a764000083611f5f565b6001600160a01b038b166000908152600360208190526040909120015461197590670de0b6b3a7640000611fab565b61197f858a611f5f565b6119899190611f5f565b6119939190611f76565b90506000670de0b6b3a76400008a6001600160a01b031663313ce5676040518163ffffffff1660e01b8152600401602060405180830381865afa1580156119de573d6000803e3d6000fd5b505050506040513d601f19601f82011682018060405250810190611a029190611fd7565b611a0d90600a6120e5565b611a179084611f5f565b611a219190611f76565b9050611a2d8a8261127b565b6001600160a01b03808e166000908152600560209081526040808320938f16835292905220805491985090881115611a6457805497505b5050505050505094509492505050565b6001600160a01b03808616600090815260056020908152604080832093871683529290529081208054839290611aab908490611f98565b90915550506001600160a01b03808716600090815260056020908152604080832093871683529290529081208054839290611ae7908490611fab565b90915550506001600160a01b0380861660009081526005602090815260408083209388168352928152828220600690915291812060028301549091611b2c8883611142565b90506000818710611b3e575081611b56565b81611b498885611f5f565b611b539190611f76565b90505b80856002016000828254611b6a9190611f98565b9250508190555086846001016000828254611b859190611f98565b9250508190555080846002016000828254611ba09190611f98565b90915550611bb29050898c308a611214565b6000611bbe8988611142565b604080516001600160a01b038d81168252602082018c9052918101839052919250808b16918d8216918f16907fac8bbd8fb7420b3123cf9e24d34551e40514ea69c5a1e97c10e513aaf06e7e429060600160405180910390a4505050505050505050505050565b6001600160a01b038216600090815260036020526040812081611c488585611142565b6002546040516341976e0960e01b81526001600160a01b038881166004830152929350600092909116906341976e0990602401602060405180830381865afa158015611c98573d6000803e3d6000fd5b505050506040513d601f19601f82011682018060405250810190611cbc9190611fbe565b9050856001600160a01b031663313ce5676040518163ffffffff1660e01b8152600401602060405180830381865afa158015611cfc573d6000803e3d6000fd5b505050506040513d601f19601f82011682018060405250810190611d209190611fd7565b611d2b90600a6120e5565b611d3d90670de0b6b3a7640000611f5f565b6002840154611d4c8385611f5f565b611d569190611f5f565b611d609190611f76565b979650505050505050565b600080602060008451602086016000885af180611d8e576040513d6000823e3d81fd5b50506000513d91508115611da6578060011415611db3565b6001600160a01b0384163b155b15610b3057604051635274afe760e01b81526001600160a01b0385166004820152602401610dc6565b80356001600160a01b0381168114611df357600080fd5b919050565b60008060408385031215611e0b57600080fd5b611e1483611ddc565b946020939093013593505050565b60008060408385031215611e3557600080fd5b611e3e83611ddc565b9150611e4c60208401611ddc565b90509250929050565b600060208284031215611e6757600080fd5b6106f982611ddc565b60008060008060808587031215611e8657600080fd5b611e8f85611ddc565b9350611e9d60208601611ddc565b9250611eab60408601611ddc565b9396929550929360600135925050565b600060208284031215611ecd57600080fd5b5035919050565b60008060008060808587031215611eea57600080fd5b611ef385611ddc565b9350611f0160208601611ddc565b93969395505050506040820135916060013590565b600080600060608486031215611f2b57600080fd5b611f3484611ddc565b95602085013595506040909401359392505050565b634e487b7160e01b600052601160045260246000fd5b80820281158282048414176106fc576106fc611f49565b600082611f9357634e487b7160e01b600052601260045260246000fd5b500490565b818103818111156106fc576106fc611f49565b808201808211156106fc576106fc611f49565b600060208284031215611fd057600080fd5b5051919050565b600060208284031215611fe957600080fd5b815160ff81168114611ffa57600080fd5b9392505050565b600181815b8085111561203c57816000190482111561202257612022611f49565b8085161561202f57918102915b93841c9390800290612006565b509250929050565b600082612053575060016106fc565b81612060575060006106fc565b816001811461207657600281146120805761209c565b60019150506106fc565b60ff84111561209157612091611f49565b50506001821b6106fc565b5060208310610133831016604e8410600b84101617156120bf575081810a6106fc565b6120c98383612001565b80600019048211156120dd576120dd611f49565b029392505050565b60006106f960ff841683612044565b634e487b7160e01b600052603260045260246000fd5b60006001820161211c5761211c611f49565b506001019056fea26469706673582212204faa4302bde37d6e2bdcf05719db2e04c420e9200e581a48e9db4d007a2bf3dd64736f6c63430008140033","opcodes":"PUSH1 0x80 PUSH1 0x40 MSTORE CALLVALUE DUP1 ISZERO PUSH3 0x11 JUMPI PUSH1 0x0 DUP1 REVERT JUMPDEST POP PUSH1 0x40 MLOAD PUSH3 0x22D1 CODESIZE SUB DUP1 PUSH3 0x22D1 DUP4 CODECOPY DUP2 ADD PUSH1 0x40 DUP2 SWAP1 MSTORE PUSH3 0x34 SWAP2 PUSH3 0x130 JUMP JUMPDEST DUP1 PUSH1 0x1 PUSH1 0x1 PUSH1 0xA0 SHL SUB DUP2 AND PUSH3 0x64 JUMPI PUSH1 0x40 MLOAD PUSH4 0x1E4FBDF7 PUSH1 0xE0 SHL DUP2 MSTORE PUSH1 0x0 PUSH1 0x4 DUP3 ADD MSTORE PUSH1 0x24 ADD PUSH1 0x40 MLOAD DUP1 SWAP2 SUB SWAP1 REVERT JUMPDEST PUSH3 0x6F DUP2 PUSH3 0xC3 JUMP JUMPDEST POP PUSH1 0x1 DUP1 SSTORE PUSH1 0x1 PUSH1 0x1 PUSH1 0xA0 SHL SUB DUP3 AND PUSH3 0x9C JUMPI PUSH1 0x40 MLOAD PUSH4 0xD92E233D PUSH1 0xE0 SHL DUP2 MSTORE PUSH1 0x4 ADD PUSH1 0x40 MLOAD DUP1 SWAP2 SUB SWAP1 REVERT JUMPDEST POP PUSH1 0x2 DUP1 SLOAD PUSH1 0x1 PUSH1 0x1 PUSH1 0xA0 SHL SUB NOT AND PUSH1 0x1 PUSH1 0x1 PUSH1 0xA0 SHL SUB SWAP3 SWAP1 SWAP3 AND SWAP2 SWAP1 SWAP2 OR SWAP1 SSTORE PUSH3 0x168 JUMP JUMPDEST PUSH1 0x0 DUP1 SLOAD PUSH1 0x1 PUSH1 0x1 PUSH1 0xA0 SHL SUB DUP4 DUP2 AND PUSH1 0x1 PUSH1 0x1 PUSH1 0xA0 SHL SUB NOT DUP4 AND DUP2 OR DUP5 SSTORE PUSH1 0x40 MLOAD SWAP2 SWAP1 SWAP3 AND SWAP3 DUP4 SWAP2 PUSH32 0x8BE0079C531659141344CD1FD0A4F28419497F9722A3DAAFE3B4186F6B6457E0 SWAP2 SWAP1 LOG3 POP POP JUMP JUMPDEST DUP1 MLOAD PUSH1 0x1 PUSH1 0x1 PUSH1 0xA0 SHL SUB DUP2 AND DUP2 EQ PUSH3 0x12B JUMPI PUSH1 0x0 DUP1 REVERT JUMPDEST SWAP2 SWAP1 POP JUMP JUMPDEST PUSH1 0x0 DUP1 PUSH1 0x40 DUP4 DUP6 SUB SLT ISZERO PUSH3 0x144 JUMPI PUSH1 0x0 DUP1 REVERT JUMPDEST PUSH3 0x14F DUP4 PUSH3 0x113 JUMP JUMPDEST SWAP2 POP PUSH3 0x15F PUSH1 0x20 DUP5 ADD PUSH3 0x113 JUMP JUMPDEST SWAP1 POP SWAP3 POP SWAP3 SWAP1 POP JUMP JUMPDEST PUSH2 0x2159 DUP1 PUSH3 0x178 PUSH1 0x0 CODECOPY PUSH1 0x0 RETURN INVALID PUSH1 0x80 PUSH1 0x40 MSTORE CALLVALUE DUP1 ISZERO PUSH2 0x10 JUMPI PUSH1 0x0 DUP1 REVERT JUMPDEST POP PUSH1 0x4 CALLDATASIZE LT PUSH2 0x121 JUMPI PUSH1 0x0 CALLDATALOAD PUSH1 0xE0 SHR DUP1 PUSH4 0x7609D7F6 GT PUSH2 0xAD JUMPI DUP1 PUSH4 0xAB78AF67 GT PUSH2 0x71 JUMPI DUP1 PUSH4 0xAB78AF67 EQ PUSH2 0x358 JUMPI DUP1 PUSH4 0xD29B3CB1 EQ PUSH2 0x36B JUMPI DUP1 PUSH4 0xD7EB003A EQ PUSH2 0x37E JUMPI DUP1 PUSH4 0xF2FDE38B EQ PUSH2 0x391 JUMPI DUP1 PUSH4 0xF3FEF3A3 EQ PUSH2 0x3A4 JUMPI PUSH1 0x0 DUP1 REVERT JUMPDEST DUP1 PUSH4 0x7609D7F6 EQ PUSH2 0x24A JUMPI DUP1 PUSH4 0x8DA5CB5B EQ PUSH2 0x2CC JUMPI DUP1 PUSH4 0x98B3ED59 EQ PUSH2 0x2DD JUMPI DUP1 PUSH4 0xA500BA7C EQ PUSH2 0x2F0 JUMPI DUP1 PUSH4 0xAAB3F868 EQ PUSH2 0x345 JUMPI PUSH1 0x0 DUP1 REVERT JUMPDEST DUP1 PUSH4 0x49E826E6 GT PUSH2 0xF4 JUMPI DUP1 PUSH4 0x49E826E6 EQ PUSH2 0x1D3 JUMPI DUP1 PUSH4 0x4B8A3529 EQ PUSH2 0x1F4 JUMPI DUP1 PUSH4 0x530E784F EQ PUSH2 0x207 JUMPI DUP1 PUSH4 0x5EC88C79 EQ PUSH2 0x21A JUMPI DUP1 PUSH4 0x715018A6 EQ PUSH2 0x242 JUMPI PUSH1 0x0 DUP1 REVERT JUMPDEST DUP1 PUSH4 0x22867D78 EQ PUSH2 0x126 JUMPI DUP1 PUSH4 0x2630C12F EQ PUSH2 0x13B JUMPI DUP1 PUSH4 0x2FF75C59 EQ PUSH2 0x16B JUMPI DUP1 PUSH4 0x47E7EF24 EQ PUSH2 0x1C0 JUMPI JUMPDEST PUSH1 0x0 DUP1 REVERT JUMPDEST PUSH2 0x139 PUSH2 0x134 CALLDATASIZE PUSH1 0x4 PUSH2 0x1DF8 JUMP JUMPDEST PUSH2 0x3B7 JUMP JUMPDEST STOP JUMPDEST PUSH1 0x2 SLOAD PUSH2 0x14E SWAP1 PUSH1 0x1 PUSH1 0x1 PUSH1 0xA0 SHL SUB AND DUP2 JUMP JUMPDEST PUSH1 0x40 MLOAD PUSH1 0x1 PUSH1 0x1 PUSH1 0xA0 SHL SUB SWAP1 SWAP2 AND DUP2 MSTORE PUSH1 0x20 ADD JUMPDEST PUSH1 0x40 MLOAD DUP1 SWAP2 SUB SWAP1 RETURN JUMPDEST PUSH2 0x1A5 PUSH2 0x179 CALLDATASIZE PUSH1 0x4 PUSH2 0x1E22 JUMP JUMPDEST PUSH1 0x5 PUSH1 0x20 SWAP1 DUP2 MSTORE PUSH1 0x0 SWAP3 DUP4 MSTORE PUSH1 0x40 DUP1 DUP5 KECCAK256 SWAP1 SWAP2 MSTORE SWAP1 DUP3 MSTORE SWAP1 KECCAK256 DUP1 SLOAD PUSH1 0x1 DUP3 ADD SLOAD PUSH1 0x2 SWAP1 SWAP3 ADD SLOAD SWAP1 SWAP2 SWAP1 DUP4 JUMP JUMPDEST PUSH1 0x40 DUP1 MLOAD SWAP4 DUP5 MSTORE PUSH1 0x20 DUP5 ADD SWAP3 SWAP1 SWAP3 MSTORE SWAP1 DUP3 ADD MSTORE PUSH1 0x60 ADD PUSH2 0x162 JUMP JUMPDEST PUSH2 0x139 PUSH2 0x1CE CALLDATASIZE PUSH1 0x4 PUSH2 0x1DF8 JUMP JUMPDEST PUSH2 0x5A4 JUMP JUMPDEST PUSH2 0x1E6 PUSH2 0x1E1 CALLDATASIZE PUSH1 0x4 PUSH2 0x1DF8 JUMP JUMPDEST PUSH2 0x6E4 JUMP JUMPDEST PUSH1 0x40 MLOAD SWAP1 DUP2 MSTORE PUSH1 0x20 ADD PUSH2 0x162 JUMP JUMPDEST PUSH2 0x139 PUSH2 0x202 CALLDATASIZE PUSH1 0x4 PUSH2 0x1DF8 JUMP JUMPDEST PUSH2 0x702 JUMP JUMPDEST PUSH2 0x139 PUSH2 0x215 CALLDATASIZE PUSH1 0x4 PUSH2 0x1E55 JUMP JUMPDEST PUSH2 0xA3A JUMP JUMPDEST PUSH2 0x22D PUSH2 0x228 CALLDATASIZE PUSH1 0x4 PUSH2 0x1E55 JUMP JUMPDEST PUSH2 0xAB3 JUMP JUMPDEST PUSH1 0x40 DUP1 MLOAD SWAP3 DUP4 MSTORE PUSH1 0x20 DUP4 ADD SWAP2 SWAP1 SWAP2 MSTORE ADD PUSH2 0x162 JUMP JUMPDEST PUSH2 0x139 PUSH2 0xAC8 JUMP JUMPDEST PUSH2 0x297 PUSH2 0x258 CALLDATASIZE PUSH1 0x4 PUSH2 0x1E55 JUMP JUMPDEST PUSH1 0x3 PUSH1 0x20 DUP2 SWAP1 MSTORE PUSH1 0x0 SWAP2 DUP3 MSTORE PUSH1 0x40 SWAP1 SWAP2 KECCAK256 DUP1 SLOAD PUSH1 0x1 DUP3 ADD SLOAD PUSH1 0x2 DUP4 ADD SLOAD SWAP4 DUP4 ADD SLOAD PUSH1 0x4 SWAP1 SWAP4 ADD SLOAD PUSH1 0x1 PUSH1 0x1 PUSH1 0xA0 SHL SUB SWAP3 DUP4 AND SWAP5 SWAP3 SWAP1 SWAP2 AND SWAP3 SWAP1 PUSH1 0xFF AND DUP6 JUMP JUMPDEST PUSH1 0x40 DUP1 MLOAD PUSH1 0x1 PUSH1 0x1 PUSH1 0xA0 SHL SUB SWAP7 DUP8 AND DUP2 MSTORE SWAP6 SWAP1 SWAP5 AND PUSH1 0x20 DUP7 ADD MSTORE SWAP3 DUP5 ADD SWAP2 SWAP1 SWAP2 MSTORE PUSH1 0x60 DUP4 ADD MSTORE ISZERO ISZERO PUSH1 0x80 DUP3 ADD MSTORE PUSH1 0xA0 ADD PUSH2 0x162 JUMP JUMPDEST PUSH1 0x0 SLOAD PUSH1 0x1 PUSH1 0x1 PUSH1 0xA0 SHL SUB AND PUSH2 0x14E JUMP JUMPDEST PUSH2 0x1E6 PUSH2 0x2EB CALLDATASIZE PUSH1 0x4 PUSH2 0x1DF8 JUMP JUMPDEST PUSH2 0xADC JUMP JUMPDEST PUSH2 0x325 PUSH2 0x2FE CALLDATASIZE PUSH1 0x4 PUSH2 0x1E55 JUMP JUMPDEST PUSH1 0x6 PUSH1 0x20 MSTORE PUSH1 0x0 SWAP1 DUP2 MSTORE PUSH1 0x40 SWAP1 KECCAK256 DUP1 SLOAD PUSH1 0x1 DUP3 ADD SLOAD PUSH1 0x2 DUP4 ADD SLOAD PUSH1 0x3 SWAP1 SWAP4 ADD SLOAD SWAP2 SWAP3 SWAP1 SWAP2 DUP5 JUMP JUMPDEST PUSH1 0x40 DUP1 MLOAD SWAP5 DUP6 MSTORE PUSH1 0x20 DUP6 ADD SWAP4 SWAP1 SWAP4 MSTORE SWAP2 DUP4 ADD MSTORE PUSH1 0x60 DUP3 ADD MSTORE PUSH1 0x80 ADD PUSH2 0x162 JUMP JUMPDEST PUSH2 0x139 PUSH2 0x353 CALLDATASIZE PUSH1 0x4 PUSH2 0x1E70 JUMP JUMPDEST PUSH2 0xAF1 JUMP JUMPDEST PUSH2 0x14E PUSH2 0x366 CALLDATASIZE PUSH1 0x4 PUSH2 0x1EBB JUMP JUMPDEST PUSH2 0xB36 JUMP JUMPDEST PUSH2 0x139 PUSH2 0x379 CALLDATASIZE PUSH1 0x4 PUSH2 0x1ED4 JUMP JUMPDEST PUSH2 0xB60 JUMP JUMPDEST PUSH2 0x139 PUSH2 0x38C CALLDATASIZE PUSH1 0x4 PUSH2 0x1F16 JUMP JUMPDEST PUSH2 0xCF0 JUMP JUMPDEST PUSH2 0x139 PUSH2 0x39F CALLDATASIZE PUSH1 0x4 PUSH2 0x1E55 JUMP JUMPDEST PUSH2 0xD98 JUMP JUMPDEST PUSH2 0x139 PUSH2 0x3B2 CALLDATASIZE PUSH1 0x4 PUSH2 0x1DF8 JUMP JUMPDEST PUSH2 0xDDB JUMP JUMPDEST PUSH2 0x3BF PUSH2 0xF97 JUMP JUMPDEST PUSH1 0x1 PUSH1 0x1 PUSH1 0xA0 SHL SUB DUP3 AND PUSH1 0x0 SWAP1 DUP2 MSTORE PUSH1 0x3 PUSH1 0x20 MSTORE PUSH1 0x40 SWAP1 KECCAK256 PUSH1 0x4 ADD SLOAD PUSH1 0xFF AND PUSH2 0x3FB JUMPI PUSH1 0x40 MLOAD PUSH4 0xB77E1E0F PUSH1 0xE0 SHL DUP2 MSTORE PUSH1 0x4 ADD PUSH1 0x40 MLOAD DUP1 SWAP2 SUB SWAP1 REVERT JUMPDEST DUP1 PUSH1 0x0 SUB PUSH2 0x41C JUMPI PUSH1 0x40 MLOAD PUSH4 0x1F2A2005 PUSH1 0xE0 SHL DUP2 MSTORE PUSH1 0x4 ADD PUSH1 0x40 MLOAD DUP1 SWAP2 SUB SWAP1 REVERT JUMPDEST PUSH2 0x425 DUP3 PUSH2 0xFC1 JUMP JUMPDEST CALLER PUSH1 0x0 SWAP1 DUP2 MSTORE PUSH1 0x5 PUSH1 0x20 SWAP1 DUP2 MSTORE PUSH1 0x40 DUP1 DUP4 KECCAK256 PUSH1 0x1 PUSH1 0x1 PUSH1 0xA0 SHL SUB DUP7 AND DUP5 MSTORE DUP3 MSTORE DUP1 DUP4 KECCAK256 PUSH1 0x6 SWAP1 SWAP3 MSTORE DUP3 KECCAK256 PUSH1 0x2 DUP3 ADD SLOAD SWAP2 SWAP3 SWAP1 SWAP2 SWAP1 DUP2 SWAP1 SUB PUSH2 0x4A9 JUMPI PUSH1 0x40 MLOAD PUSH1 0x0 DUP2 MSTORE PUSH1 0x1 PUSH1 0x1 PUSH1 0xA0 SHL SUB DUP7 AND SWAP1 CALLER SWAP1 PUSH32 0x5F2EEDA0E08E4B437F487C8D7D29B14537D15E3488170DC3DE5DBDF8DAC4684 SWAP1 PUSH1 0x20 ADD PUSH1 0x40 MLOAD DUP1 SWAP2 SUB SWAP1 LOG3 POP POP POP PUSH2 0x597 JUMP JUMPDEST PUSH1 0x0 PUSH2 0x4B5 DUP7 DUP4 PUSH2 0x1142 JUMP JUMPDEST SWAP1 POP PUSH1 0x0 DUP1 PUSH1 0x0 NOT DUP8 EQ DUP1 PUSH2 0x4CA JUMPI POP DUP3 DUP8 LT ISZERO JUMPDEST ISZERO PUSH2 0x4D9 JUMPI POP DUP2 SWAP1 POP DUP3 PUSH2 0x4F4 JUMP JUMPDEST DUP7 SWAP2 POP DUP3 PUSH2 0x4E7 DUP4 DUP7 PUSH2 0x1F5F JUMP JUMPDEST PUSH2 0x4F1 SWAP2 SWAP1 PUSH2 0x1F76 JUMP JUMPDEST SWAP1 POP JUMPDEST DUP1 DUP7 PUSH1 0x2 ADD PUSH1 0x0 DUP3 DUP3 SLOAD PUSH2 0x508 SWAP2 SWAP1 PUSH2 0x1F98 JUMP JUMPDEST SWAP3 POP POP DUP2 SWAP1 SSTORE POP DUP2 DUP6 PUSH1 0x1 ADD PUSH1 0x0 DUP3 DUP3 SLOAD PUSH2 0x523 SWAP2 SWAP1 PUSH2 0x1F98 JUMP JUMPDEST SWAP3 POP POP DUP2 SWAP1 SSTORE POP DUP1 DUP6 PUSH1 0x2 ADD PUSH1 0x0 DUP3 DUP3 SLOAD PUSH2 0x53E SWAP2 SWAP1 PUSH2 0x1F98 JUMP JUMPDEST SWAP1 SWAP2 SSTORE POP PUSH2 0x550 SWAP1 POP DUP9 CALLER ADDRESS DUP6 PUSH2 0x1214 JUMP JUMPDEST PUSH1 0x40 MLOAD DUP3 DUP2 MSTORE PUSH1 0x1 PUSH1 0x1 PUSH1 0xA0 SHL SUB DUP10 AND SWAP1 CALLER SWAP1 PUSH32 0x5F2EEDA0E08E4B437F487C8D7D29B14537D15E3488170DC3DE5DBDF8DAC4684 SWAP1 PUSH1 0x20 ADD PUSH1 0x40 MLOAD DUP1 SWAP2 SUB SWAP1 LOG3 POP POP POP POP POP POP JUMPDEST PUSH2 0x5A0 PUSH1 0x1 DUP1 SSTORE JUMP JUMPDEST POP POP JUMP JUMPDEST PUSH2 0x5AC PUSH2 0xF97 JUMP JUMPDEST PUSH1 0x1 PUSH1 0x1 PUSH1 0xA0 SHL SUB DUP3 AND PUSH1 0x0 SWAP1 DUP2 MSTORE PUSH1 0x3 PUSH1 0x20 MSTORE PUSH1 0x40 SWAP1 KECCAK256 PUSH1 0x4 ADD SLOAD PUSH1 0xFF AND PUSH2 0x5E8 JUMPI PUSH1 0x40 MLOAD PUSH4 0xB77E1E0F PUSH1 0xE0 SHL DUP2 MSTORE PUSH1 0x4 ADD PUSH1 0x40 MLOAD DUP1 SWAP2 SUB SWAP1 REVERT JUMPDEST DUP1 PUSH1 0x0 SUB PUSH2 0x609 JUMPI PUSH1 0x40 MLOAD PUSH4 0x1F2A2005 PUSH1 0xE0 SHL DUP2 MSTORE PUSH1 0x4 ADD PUSH1 0x40 MLOAD DUP1 SWAP2 SUB SWAP1 REVERT JUMPDEST PUSH2 0x612 DUP3 PUSH2 0xFC1 JUMP JUMPDEST CALLER PUSH1 0x0 SWAP1 DUP2 MSTORE PUSH1 0x5 PUSH1 0x20 SWAP1 DUP2 MSTORE PUSH1 0x40 DUP1 DUP4 KECCAK256 PUSH1 0x1 PUSH1 0x1 PUSH1 0xA0 SHL SUB DUP7 AND DUP5 MSTORE DUP3 MSTORE DUP1 DUP4 KECCAK256 PUSH1 0x6 SWAP1 SWAP3 MSTORE DUP3 KECCAK256 SWAP1 SWAP2 PUSH2 0x648 DUP6 DUP6 PUSH2 0x127B JUMP JUMPDEST SWAP1 POP DUP1 DUP4 PUSH1 0x0 ADD PUSH1 0x0 DUP3 DUP3 SLOAD PUSH2 0x65E SWAP2 SWAP1 PUSH2 0x1FAB JUMP JUMPDEST SWAP1 SWAP2 SSTORE POP POP DUP2 SLOAD DUP2 SWAP1 DUP4 SWAP1 PUSH1 0x0 SWAP1 PUSH2 0x677 SWAP1 DUP5 SWAP1 PUSH2 0x1FAB JUMP JUMPDEST SWAP1 SWAP2 SSTORE POP PUSH2 0x692 SWAP1 POP PUSH1 0x1 PUSH1 0x1 PUSH1 0xA0 SHL SUB DUP7 AND CALLER ADDRESS DUP8 PUSH2 0x1214 JUMP JUMPDEST PUSH1 0x40 DUP1 MLOAD DUP6 DUP2 MSTORE PUSH1 0x20 DUP2 ADD DUP4 SWAP1 MSTORE PUSH1 0x1 PUSH1 0x1 PUSH1 0xA0 SHL SUB DUP8 AND SWAP2 CALLER SWAP2 PUSH32 0xDCBC1C05240F31FF3AD067EF1EE35CE4997762752E3A095284754544F4C709D7 SWAP2 ADD PUSH1 0x40 MLOAD DUP1 SWAP2 SUB SWAP1 LOG3 POP POP POP PUSH2 0x5A0 PUSH1 0x1 DUP1 SSTORE JUMP JUMPDEST PUSH1 0x0 PUSH2 0x6EF DUP4 PUSH2 0xFC1 JUMP JUMPDEST PUSH2 0x6F9 DUP4 DUP4 PUSH2 0x1142 JUMP JUMPDEST SWAP1 POP JUMPDEST SWAP3 SWAP2 POP POP JUMP JUMPDEST PUSH2 0x70A PUSH2 0xF97 JUMP JUMPDEST PUSH1 0x1 PUSH1 0x1 PUSH1 0xA0 SHL SUB DUP3 AND PUSH1 0x0 SWAP1 DUP2 MSTORE PUSH1 0x3 PUSH1 0x20 MSTORE PUSH1 0x40 SWAP1 KECCAK256 PUSH1 0x4 ADD SLOAD PUSH1 0xFF AND PUSH2 0x746 JUMPI PUSH1 0x40 MLOAD PUSH4 0xB77E1E0F PUSH1 0xE0 SHL DUP2 MSTORE PUSH1 0x4 ADD PUSH1 0x40 MLOAD DUP1 SWAP2 SUB SWAP1 REVERT JUMPDEST DUP1 PUSH1 0x0 SUB PUSH2 0x767 JUMPI PUSH1 0x40 MLOAD PUSH4 0x1F2A2005 PUSH1 0xE0 SHL DUP2 MSTORE PUSH1 0x4 ADD PUSH1 0x40 MLOAD DUP1 SWAP2 SUB SWAP1 REVERT JUMPDEST PUSH2 0x770 DUP3 PUSH2 0xFC1 JUMP JUMPDEST PUSH1 0x0 DUP1 PUSH2 0x77C CALLER PUSH2 0x1329 JUMP JUMPDEST PUSH1 0x2 SLOAD PUSH1 0x40 MLOAD PUSH4 0x41976E09 PUSH1 0xE0 SHL DUP2 MSTORE PUSH1 0x1 PUSH1 0x1 PUSH1 0xA0 SHL SUB DUP9 DUP2 AND PUSH1 0x4 DUP4 ADD MSTORE SWAP4 SWAP6 POP SWAP2 SWAP4 POP PUSH1 0x0 SWAP3 AND SWAP1 PUSH4 0x41976E09 SWAP1 PUSH1 0x24 ADD PUSH1 0x20 PUSH1 0x40 MLOAD DUP1 DUP4 SUB DUP2 DUP7 GAS STATICCALL ISZERO DUP1 ISZERO PUSH2 0x7CD JUMPI RETURNDATASIZE PUSH1 0x0 DUP1 RETURNDATACOPY RETURNDATASIZE PUSH1 0x0 REVERT JUMPDEST POP POP POP POP PUSH1 0x40 MLOAD RETURNDATASIZE PUSH1 0x1F NOT PUSH1 0x1F DUP3 ADD AND DUP3 ADD DUP1 PUSH1 0x40 MSTORE POP DUP2 ADD SWAP1 PUSH2 0x7F1 SWAP2 SWAP1 PUSH2 0x1FBE JUMP JUMPDEST SWAP1 POP PUSH1 0x0 DUP6 PUSH1 0x1 PUSH1 0x1 PUSH1 0xA0 SHL SUB AND PUSH4 0x313CE567 PUSH1 0x40 MLOAD DUP2 PUSH4 0xFFFFFFFF AND PUSH1 0xE0 SHL DUP2 MSTORE PUSH1 0x4 ADD PUSH1 0x20 PUSH1 0x40 MLOAD DUP1 DUP4 SUB DUP2 DUP7 GAS STATICCALL ISZERO DUP1 ISZERO PUSH2 0x833 JUMPI RETURNDATASIZE PUSH1 0x0 DUP1 RETURNDATACOPY RETURNDATASIZE PUSH1 0x0 REVERT JUMPDEST POP POP POP POP PUSH1 0x40 MLOAD RETURNDATASIZE PUSH1 0x1F NOT PUSH1 0x1F DUP3 ADD AND DUP3 ADD DUP1 PUSH1 0x40 MSTORE POP DUP2 ADD SWAP1 PUSH2 0x857 SWAP2 SWAP1 PUSH2 0x1FD7 JUMP JUMPDEST PUSH2 0x862 SWAP1 PUSH1 0xA PUSH2 0x20E5 JUMP JUMPDEST PUSH2 0x86C DUP4 DUP8 PUSH2 0x1F5F JUMP JUMPDEST PUSH2 0x876 SWAP2 SWAP1 PUSH2 0x1F76 JUMP JUMPDEST SWAP1 POP DUP4 PUSH2 0x883 DUP3 DUP6 PUSH2 0x1FAB JUMP JUMPDEST GT ISZERO PUSH2 0x8A2 JUMPI PUSH1 0x40 MLOAD PUSH4 0x3A23D825 PUSH1 0xE0 SHL DUP2 MSTORE PUSH1 0x4 ADD PUSH1 0x40 MLOAD DUP1 SWAP2 SUB SWAP1 REVERT JUMPDEST PUSH1 0x40 MLOAD PUSH4 0x70A08231 PUSH1 0xE0 SHL DUP2 MSTORE ADDRESS PUSH1 0x4 DUP3 ADD MSTORE DUP6 SWAP1 PUSH1 0x1 PUSH1 0x1 PUSH1 0xA0 SHL SUB DUP9 AND SWAP1 PUSH4 0x70A08231 SWAP1 PUSH1 0x24 ADD PUSH1 0x20 PUSH1 0x40 MLOAD DUP1 DUP4 SUB DUP2 DUP7 GAS STATICCALL ISZERO DUP1 ISZERO PUSH2 0x8E8 JUMPI RETURNDATASIZE PUSH1 0x0 DUP1 RETURNDATACOPY RETURNDATASIZE PUSH1 0x0 REVERT JUMPDEST POP POP POP POP PUSH1 0x40 MLOAD RETURNDATASIZE PUSH1 0x1F NOT PUSH1 0x1F DUP3 ADD AND DUP3 ADD DUP1 PUSH1 0x40 MSTORE POP DUP2 ADD SWAP1 PUSH2 0x90C SWAP2 SWAP1 PUSH2 0x1FBE JUMP JUMPDEST LT ISZERO PUSH2 0x92B JUMPI PUSH1 0x40 MLOAD PUSH4 0xBB55FD27 PUSH1 0xE0 SHL DUP2 MSTORE PUSH1 0x4 ADD PUSH1 0x40 MLOAD DUP1 SWAP2 SUB SWAP1 REVERT JUMPDEST PUSH2 0x934 DUP7 PUSH2 0xFC1 JUMP JUMPDEST PUSH1 0x0 PUSH2 0x940 DUP8 DUP8 PUSH2 0x127B JUMP JUMPDEST CALLER PUSH1 0x0 SWAP1 DUP2 MSTORE PUSH1 0x5 PUSH1 0x20 SWAP1 DUP2 MSTORE PUSH1 0x40 DUP1 DUP4 KECCAK256 PUSH1 0x1 PUSH1 0x1 PUSH1 0xA0 SHL SUB DUP13 AND DUP5 MSTORE SWAP1 SWAP2 MSTORE DUP2 KECCAK256 PUSH1 0x2 ADD DUP1 SLOAD SWAP3 SWAP4 POP DUP4 SWAP3 SWAP1 SWAP2 SWAP1 PUSH2 0x97B SWAP1 DUP5 SWAP1 PUSH2 0x1FAB JUMP JUMPDEST SWAP1 SWAP2 SSTORE POP POP PUSH1 0x1 PUSH1 0x1 PUSH1 0xA0 SHL SUB DUP8 AND PUSH1 0x0 SWAP1 DUP2 MSTORE PUSH1 0x6 PUSH1 0x20 MSTORE PUSH1 0x40 DUP2 KECCAK256 PUSH1 0x1 ADD DUP1 SLOAD DUP9 SWAP3 SWAP1 PUSH2 0x9AB SWAP1 DUP5 SWAP1 PUSH2 0x1FAB JUMP JUMPDEST SWAP1 SWAP2 SSTORE POP POP PUSH1 0x1 PUSH1 0x1 PUSH1 0xA0 SHL SUB DUP8 AND PUSH1 0x0 SWAP1 DUP2 MSTORE PUSH1 0x6 PUSH1 0x20 MSTORE PUSH1 0x40 DUP2 KECCAK256 PUSH1 0x2 ADD DUP1 SLOAD DUP4 SWAP3 SWAP1 PUSH2 0x9DB SWAP1 DUP5 SWAP1 PUSH2 0x1FAB JUMP JUMPDEST SWAP1 SWAP2 SSTORE POP PUSH2 0x9EC SWAP1 POP DUP8 CALLER DUP9 PUSH2 0x167E JUMP JUMPDEST PUSH1 0x40 MLOAD DUP7 DUP2 MSTORE PUSH1 0x1 PUSH1 0x1 PUSH1 0xA0 SHL SUB DUP9 AND SWAP1 CALLER SWAP1 PUSH32 0x312A5E5E1079F5DDA4E95DBBD0B908B291FD5B992EF22073643AB691572C5B52 SWAP1 PUSH1 0x20 ADD PUSH1 0x40 MLOAD DUP1 SWAP2 SUB SWAP1 LOG3 POP POP POP POP POP PUSH2 0x5A0 PUSH1 0x1 DUP1 SSTORE JUMP JUMPDEST PUSH2 0xA42 PUSH2 0x16B4 JUMP JUMPDEST PUSH1 0x1 PUSH1 0x1 PUSH1 0xA0 SHL SUB DUP2 AND PUSH2 0xA69 JUMPI PUSH1 0x40 MLOAD PUSH4 0xD92E233D PUSH1 0xE0 SHL DUP2 MSTORE PUSH1 0x4 ADD PUSH1 0x40 MLOAD DUP1 SWAP2 SUB SWAP1 REVERT JUMPDEST PUSH1 0x2 DUP1 SLOAD PUSH1 0x1 PUSH1 0x1 PUSH1 0xA0 SHL SUB NOT AND PUSH1 0x1 PUSH1 0x1 PUSH1 0xA0 SHL SUB DUP4 AND SWAP1 DUP2 OR SWAP1 SWAP2 SSTORE PUSH1 0x40 MLOAD PUSH32 0xEFE8AB924CA486283A79DC604BAA67ADD51AFB82AF1DB8AC386EBBBA643CDFFD SWAP1 PUSH1 0x0 SWAP1 LOG2 POP JUMP JUMPDEST PUSH1 0x0 DUP1 PUSH2 0xABF DUP4 PUSH2 0x1329 JUMP JUMPDEST SWAP2 POP SWAP2 POP SWAP2 POP SWAP2 JUMP JUMPDEST PUSH2 0xAD0 PUSH2 0x16B4 JUMP JUMPDEST PUSH2 0xADA PUSH1 0x0 PUSH2 0x16E1 JUMP JUMPDEST JUMP JUMPDEST PUSH1 0x0 PUSH2 0xAE7 DUP4 PUSH2 0xFC1 JUMP JUMPDEST PUSH2 0x6F9 DUP4 DUP4 PUSH2 0x127B JUMP JUMPDEST PUSH2 0xAF9 PUSH2 0xF97 JUMP JUMPDEST PUSH2 0xB04 DUP5 DUP5 DUP5 PUSH2 0x1731 JUMP JUMPDEST PUSH1 0x0 DUP1 PUSH2 0xB13 DUP7 DUP7 DUP7 DUP7 PUSH2 0x17EC JUMP JUMPDEST SWAP2 POP SWAP2 POP PUSH2 0xB25 CALLER DUP8 DUP8 DUP8 DUP7 DUP7 PUSH2 0x1A74 JUMP JUMPDEST POP POP PUSH2 0xB30 PUSH1 0x1 DUP1 SSTORE JUMP JUMPDEST POP POP POP POP JUMP JUMPDEST PUSH1 0x4 DUP2 DUP2 SLOAD DUP2 LT PUSH2 0xB46 JUMPI PUSH1 0x0 DUP1 REVERT JUMPDEST PUSH1 0x0 SWAP2 DUP3 MSTORE PUSH1 0x20 SWAP1 SWAP2 KECCAK256 ADD SLOAD PUSH1 0x1 PUSH1 0x1 PUSH1 0xA0 SHL SUB AND SWAP1 POP DUP2 JUMP JUMPDEST PUSH2 0xB68 PUSH2 0x16B4 JUMP JUMPDEST PUSH1 0x1 PUSH1 0x1 PUSH1 0xA0 SHL SUB DUP5 AND PUSH1 0x0 SWAP1 DUP2 MSTORE PUSH1 0x3 PUSH1 0x20 MSTORE PUSH1 0x40 SWAP1 KECCAK256 PUSH1 0x4 ADD SLOAD PUSH1 0xFF AND ISZERO PUSH2 0xBA5 JUMPI PUSH1 0x40 MLOAD PUSH4 0xA620D1E1 PUSH1 0xE0 SHL DUP2 MSTORE PUSH1 0x4 ADD PUSH1 0x40 MLOAD DUP1 SWAP2 SUB SWAP1 REVERT JUMPDEST PUSH1 0x1 PUSH1 0x1 PUSH1 0xA0 SHL SUB DUP5 AND ISZERO DUP1 PUSH2 0xBC2 JUMPI POP PUSH1 0x1 PUSH1 0x1 PUSH1 0xA0 SHL SUB DUP4 AND ISZERO JUMPDEST ISZERO PUSH2 0xBE0 JUMPI PUSH1 0x40 MLOAD PUSH4 0xD92E233D PUSH1 0xE0 SHL DUP2 MSTORE PUSH1 0x4 ADD PUSH1 0x40 MLOAD DUP1 SWAP2 SUB SWAP1 REVERT JUMPDEST PUSH1 0x40 DUP1 MLOAD PUSH1 0xA0 DUP2 ADD DUP3 MSTORE PUSH1 0x1 PUSH1 0x1 PUSH1 0xA0 SHL SUB DUP7 DUP2 AND DUP1 DUP4 MSTORE DUP7 DUP3 AND PUSH1 0x20 DUP1 DUP6 ADD DUP3 DUP2 MSTORE DUP6 DUP8 ADD DUP10 DUP2 MSTORE PUSH1 0x60 DUP1 DUP9 ADD DUP11 DUP2 MSTORE PUSH1 0x1 PUSH1 0x80 DUP11 ADD DUP2 DUP2 MSTORE PUSH1 0x0 DUP10 DUP2 MSTORE PUSH1 0x3 DUP1 DUP10 MSTORE DUP14 DUP3 KECCAK256 SWAP13 MLOAD DUP14 SLOAD PUSH1 0x1 PUSH1 0x1 PUSH1 0xA0 SHL SUB NOT SWAP1 DUP2 AND SWAP2 DUP15 AND SWAP2 SWAP1 SWAP2 OR DUP15 SSTORE SWAP8 MLOAD DUP14 DUP6 ADD DUP1 SLOAD DUP11 AND SWAP2 SWAP1 SWAP14 AND OR SWAP1 SWAP12 SSTORE SWAP5 MLOAD PUSH1 0x2 DUP13 ADD SSTORE SWAP2 MLOAD SWAP9 DUP11 ADD SWAP9 SWAP1 SWAP9 SSTORE MLOAD PUSH1 0x4 SWAP9 DUP10 ADD DUP1 SLOAD PUSH1 0xFF NOT AND SWAP2 ISZERO ISZERO SWAP2 SWAP1 SWAP2 OR SWAP1 SSTORE DUP8 SLOAD SWAP7 DUP8 ADD DUP9 SSTORE SWAP7 SWAP1 MSTORE PUSH32 0x8A35ACFBC15FF81A39AE7D344FD709F28E8600B4AA8C65C6B64BFE7FE36BD19B SWAP1 SWAP5 ADD DUP1 SLOAD SWAP1 SWAP5 AND DUP4 OR SWAP1 SWAP4 SSTORE DUP5 MLOAD SWAP1 DUP2 MSTORE SWAP2 DUP3 ADD DUP7 SWAP1 MSTORE SWAP3 DUP2 ADD DUP5 SWAP1 MSTORE PUSH32 0x118FA810D8FABCC6B2E10162F8FE68E43ECB99EE012745078A933D901C970FFD SWAP2 ADD PUSH1 0x40 MLOAD DUP1 SWAP2 SUB SWAP1 LOG2 POP POP POP POP JUMP JUMPDEST PUSH2 0xCF8 PUSH2 0x16B4 JUMP JUMPDEST PUSH1 0x1 PUSH1 0x1 PUSH1 0xA0 SHL SUB DUP4 AND PUSH1 0x0 SWAP1 DUP2 MSTORE PUSH1 0x3 PUSH1 0x20 MSTORE PUSH1 0x40 SWAP1 KECCAK256 PUSH1 0x4 ADD SLOAD PUSH1 0xFF AND PUSH2 0xD34 JUMPI PUSH1 0x40 MLOAD PUSH4 0xB77E1E0F PUSH1 0xE0 SHL DUP2 MSTORE PUSH1 0x4 ADD PUSH1 0x40 MLOAD DUP1 SWAP2 SUB SWAP1 REVERT JUMPDEST PUSH1 0x1 PUSH1 0x1 PUSH1 0xA0 SHL SUB DUP4 AND PUSH1 0x0 DUP2 DUP2 MSTORE PUSH1 0x3 PUSH1 0x20 DUP2 DUP2 MSTORE PUSH1 0x40 SWAP3 DUP4 SWAP1 KECCAK256 PUSH1 0x2 DUP2 ADD DUP8 SWAP1 SSTORE SWAP1 SWAP2 ADD DUP5 SWAP1 SSTORE DUP2 MLOAD DUP6 DUP2 MSTORE SWAP1 DUP2 ADD DUP5 SWAP1 MSTORE PUSH32 0x6914EE2E02A37A312E7D04B6A20F6ECFF93D21B1AFCCA29966FA4C0DDCF15519 SWAP2 ADD PUSH1 0x40 MLOAD DUP1 SWAP2 SUB SWAP1 LOG2 POP POP POP JUMP JUMPDEST PUSH2 0xDA0 PUSH2 0x16B4 JUMP JUMPDEST PUSH1 0x1 PUSH1 0x1 PUSH1 0xA0 SHL SUB DUP2 AND PUSH2 0xDCF JUMPI PUSH1 0x40 MLOAD PUSH4 0x1E4FBDF7 PUSH1 0xE0 SHL DUP2 MSTORE PUSH1 0x0 PUSH1 0x4 DUP3 ADD MSTORE PUSH1 0x24 ADD JUMPDEST PUSH1 0x40 MLOAD DUP1 SWAP2 SUB SWAP1 REVERT JUMPDEST PUSH2 0xDD8 DUP2 PUSH2 0x16E1 JUMP JUMPDEST POP JUMP JUMPDEST PUSH2 0xDE3 PUSH2 0xF97 JUMP JUMPDEST PUSH1 0x1 PUSH1 0x1 PUSH1 0xA0 SHL SUB DUP3 AND PUSH1 0x0 SWAP1 DUP2 MSTORE PUSH1 0x3 PUSH1 0x20 MSTORE PUSH1 0x40 SWAP1 KECCAK256 PUSH1 0x4 ADD SLOAD PUSH1 0xFF AND PUSH2 0xE1F JUMPI PUSH1 0x40 MLOAD PUSH4 0xB77E1E0F PUSH1 0xE0 SHL DUP2 MSTORE PUSH1 0x4 ADD PUSH1 0x40 MLOAD DUP1 SWAP2 SUB SWAP1 REVERT JUMPDEST DUP1 PUSH1 0x0 SUB PUSH2 0xE40 JUMPI PUSH1 0x40 MLOAD PUSH4 0x1F2A2005 PUSH1 0xE0 SHL DUP2 MSTORE PUSH1 0x4 ADD PUSH1 0x40 MLOAD DUP1 SWAP2 SUB SWAP1 REVERT JUMPDEST PUSH2 0xE49 DUP3 PUSH2 0xFC1 JUMP JUMPDEST CALLER PUSH1 0x0 SWAP1 DUP2 MSTORE PUSH1 0x5 PUSH1 0x20 SWAP1 DUP2 MSTORE PUSH1 0x40 DUP1 DUP4 KECCAK256 PUSH1 0x1 PUSH1 0x1 PUSH1 0xA0 SHL SUB DUP7 AND DUP5 MSTORE SWAP1 SWAP2 MSTORE SWAP1 KECCAK256 DUP1 SLOAD DUP3 GT ISZERO PUSH2 0xE8E JUMPI PUSH1 0x40 MLOAD PUSH4 0x3A23D825 PUSH1 0xE0 SHL DUP2 MSTORE PUSH1 0x4 ADD PUSH1 0x40 MLOAD DUP1 SWAP2 SUB SWAP1 REVERT JUMPDEST PUSH1 0x0 PUSH2 0xE9A DUP5 DUP5 PUSH2 0x1142 JUMP JUMPDEST SWAP1 POP PUSH1 0x0 PUSH2 0xEA7 CALLER PUSH2 0x1329 JUMP JUMPDEST SWAP2 POP POP PUSH1 0x0 PUSH2 0xEC6 CALLER DUP8 DUP8 DUP8 PUSH1 0x0 ADD SLOAD PUSH2 0xEC1 SWAP2 SWAP1 PUSH2 0x1F98 JUMP JUMPDEST PUSH2 0x1C25 JUMP JUMPDEST SWAP1 POP DUP1 DUP3 GT ISZERO PUSH2 0xEE9 JUMPI PUSH1 0x40 MLOAD PUSH4 0x3A23D825 PUSH1 0xE0 SHL DUP2 MSTORE PUSH1 0x4 ADD PUSH1 0x40 MLOAD DUP1 SWAP2 SUB SWAP1 REVERT JUMPDEST DUP5 DUP5 PUSH1 0x0 ADD PUSH1 0x0 DUP3 DUP3 SLOAD PUSH2 0xEFD SWAP2 SWAP1 PUSH2 0x1F98 JUMP JUMPDEST SWAP1 SWAP2 SSTORE POP POP PUSH1 0x1 PUSH1 0x1 PUSH1 0xA0 SHL SUB DUP7 AND PUSH1 0x0 SWAP1 DUP2 MSTORE PUSH1 0x6 PUSH1 0x20 MSTORE PUSH1 0x40 DUP2 KECCAK256 DUP1 SLOAD DUP8 SWAP3 SWAP1 PUSH2 0xF2A SWAP1 DUP5 SWAP1 PUSH2 0x1F98 JUMP JUMPDEST SWAP1 SWAP2 SSTORE POP PUSH2 0xF44 SWAP1 POP PUSH1 0x1 PUSH1 0x1 PUSH1 0xA0 SHL SUB DUP8 AND CALLER DUP6 PUSH2 0x167E JUMP JUMPDEST PUSH1 0x40 DUP1 MLOAD DUP5 DUP2 MSTORE PUSH1 0x20 DUP2 ADD DUP8 SWAP1 MSTORE PUSH1 0x1 PUSH1 0x1 PUSH1 0xA0 SHL SUB DUP9 AND SWAP2 CALLER SWAP2 PUSH32 0xF341246ADAAC6F497BC2A656F546AB9E182111D630394F0C57C710A59A2CB567 SWAP2 ADD PUSH1 0x40 MLOAD DUP1 SWAP2 SUB SWAP1 LOG3 POP POP POP POP PUSH2 0x5A0 PUSH1 0x1 DUP1 SSTORE JUMP JUMPDEST PUSH1 0x2 PUSH1 0x1 SLOAD SUB PUSH2 0xFBA JUMPI PUSH1 0x40 MLOAD PUSH4 0x3EE5AEB5 PUSH1 0xE0 SHL DUP2 MSTORE PUSH1 0x4 ADD PUSH1 0x40 MLOAD DUP1 SWAP2 SUB SWAP1 REVERT JUMPDEST PUSH1 0x2 PUSH1 0x1 SSTORE JUMP JUMPDEST PUSH1 0x1 PUSH1 0x1 PUSH1 0xA0 SHL SUB DUP2 AND PUSH1 0x0 SWAP1 DUP2 MSTORE PUSH1 0x6 PUSH1 0x20 MSTORE PUSH1 0x40 DUP2 KECCAK256 PUSH1 0x3 DUP2 ADD SLOAD SWAP1 SWAP2 DUP2 SWAP1 SUB PUSH2 0xFEA JUMPI POP TIMESTAMP JUMPDEST PUSH1 0x0 PUSH2 0xFF6 DUP3 TIMESTAMP PUSH2 0x1F98 JUMP JUMPDEST SWAP1 POP DUP1 ISZERO DUP1 PUSH2 0x1007 JUMPI POP PUSH1 0x1 DUP4 ADD SLOAD ISZERO JUMPDEST ISZERO PUSH2 0x1018 JUMPI POP POP TIMESTAMP PUSH1 0x3 SWAP1 SWAP2 ADD SSTORE POP JUMP JUMPDEST PUSH1 0x0 PUSH2 0x1028 DUP6 DUP6 PUSH1 0x0 ADD SLOAD PUSH2 0x1142 JUMP JUMPDEST SWAP1 POP PUSH1 0x0 DUP2 ISZERO PUSH2 0x105A JUMPI DUP2 PUSH8 0xDE0B6B3A7640000 DUP7 PUSH1 0x1 ADD SLOAD PUSH2 0x104B SWAP2 SWAP1 PUSH2 0x1F5F JUMP JUMPDEST PUSH2 0x1055 SWAP2 SWAP1 PUSH2 0x1F76 JUMP JUMPDEST PUSH2 0x105D JUMP JUMPDEST PUSH1 0x0 JUMPDEST PUSH1 0x1 PUSH1 0x1 PUSH1 0xA0 SHL SUB DUP8 DUP2 AND PUSH1 0x0 SWAP1 DUP2 MSTORE PUSH1 0x3 PUSH1 0x20 MSTORE PUSH1 0x40 DUP1 DUP3 KECCAK256 PUSH1 0x1 ADD SLOAD SWAP1 MLOAD PUSH4 0xF71BD11B PUSH1 0xE0 SHL DUP2 MSTORE PUSH1 0x4 DUP2 ADD DUP6 SWAP1 MSTORE SWAP4 SWAP5 POP SWAP1 SWAP2 AND SWAP2 DUP3 SWAP1 PUSH4 0xF71BD11B SWAP1 PUSH1 0x24 ADD PUSH1 0x20 PUSH1 0x40 MLOAD DUP1 DUP4 SUB DUP2 DUP7 GAS STATICCALL ISZERO DUP1 ISZERO PUSH2 0x10BD JUMPI RETURNDATASIZE PUSH1 0x0 DUP1 RETURNDATACOPY RETURNDATASIZE PUSH1 0x0 REVERT JUMPDEST POP POP POP POP PUSH1 0x40 MLOAD RETURNDATASIZE PUSH1 0x1F NOT PUSH1 0x1F DUP3 ADD AND DUP3 ADD DUP1 PUSH1 0x40 MSTORE POP DUP2 ADD SWAP1 PUSH2 0x10E1 SWAP2 SWAP1 PUSH2 0x1FBE JUMP JUMPDEST SWAP1 POP PUSH1 0x0 PUSH8 0xDE0B6B3A7640000 DUP7 DUP4 DUP11 PUSH1 0x1 ADD SLOAD PUSH2 0x10FF SWAP2 SWAP1 PUSH2 0x1F5F JUMP JUMPDEST PUSH2 0x1109 SWAP2 SWAP1 PUSH2 0x1F5F JUMP JUMPDEST PUSH2 0x1113 SWAP2 SWAP1 PUSH2 0x1F76 JUMP JUMPDEST SWAP1 POP DUP1 DUP9 PUSH1 0x1 ADD PUSH1 0x0 DUP3 DUP3 SLOAD PUSH2 0x1129 SWAP2 SWAP1 PUSH2 0x1FAB JUMP JUMPDEST SWAP1 SWAP2 SSTORE POP POP TIMESTAMP PUSH1 0x3 SWAP1 SWAP9 ADD SWAP8 SWAP1 SWAP8 SSTORE POP POP POP POP POP POP POP POP JUMP JUMPDEST PUSH1 0x1 PUSH1 0x1 PUSH1 0xA0 SHL SUB DUP3 AND PUSH1 0x0 SWAP1 DUP2 MSTORE PUSH1 0x6 PUSH1 0x20 MSTORE PUSH1 0x40 DUP2 KECCAK256 DUP1 SLOAD ISZERO DUP1 PUSH2 0x1168 JUMPI POP DUP1 SLOAD DUP4 GT JUMPDEST ISZERO PUSH2 0x1177 JUMPI PUSH1 0x0 SWAP2 POP POP PUSH2 0x6FC JUMP JUMPDEST PUSH1 0x1 DUP2 ADD SLOAD PUSH1 0x40 MLOAD PUSH4 0x70A08231 PUSH1 0xE0 SHL DUP2 MSTORE ADDRESS PUSH1 0x4 DUP3 ADD MSTORE PUSH1 0x0 SWAP2 SWAP1 PUSH1 0x1 PUSH1 0x1 PUSH1 0xA0 SHL SUB DUP8 AND SWAP1 PUSH4 0x70A08231 SWAP1 PUSH1 0x24 ADD PUSH1 0x20 PUSH1 0x40 MLOAD DUP1 DUP4 SUB DUP2 DUP7 GAS STATICCALL ISZERO DUP1 ISZERO PUSH2 0x11C4 JUMPI RETURNDATASIZE PUSH1 0x0 DUP1 RETURNDATACOPY RETURNDATASIZE PUSH1 0x0 REVERT JUMPDEST POP POP POP POP PUSH1 0x40 MLOAD RETURNDATASIZE PUSH1 0x1F NOT PUSH1 0x1F DUP3 ADD AND DUP3 ADD DUP1 PUSH1 0x40 MSTORE POP DUP2 ADD SWAP1 PUSH2 0x11E8 SWAP2 SWAP1 PUSH2 0x1FBE JUMP JUMPDEST PUSH2 0x11F2 SWAP2 SWAP1 PUSH2 0x1FAB JUMP JUMPDEST DUP3 SLOAD SWAP1 SWAP2 POP PUSH2 0x1201 DUP3 DUP7 PUSH2 0x1F5F JUMP JUMPDEST PUSH2 0x120B SWAP2 SWAP1 PUSH2 0x1F76 JUMP JUMPDEST SWAP6 SWAP5 POP POP POP POP POP JUMP JUMPDEST PUSH1 0x40 MLOAD PUSH1 0x1 PUSH1 0x1 PUSH1 0xA0 SHL SUB DUP5 DUP2 AND PUSH1 0x24 DUP4 ADD MSTORE DUP4 DUP2 AND PUSH1 0x44 DUP4 ADD MSTORE PUSH1 0x64 DUP3 ADD DUP4 SWAP1 MSTORE PUSH2 0xB30 SWAP2 DUP7 SWAP2 DUP3 AND SWAP1 PUSH4 0x23B872DD SWAP1 PUSH1 0x84 ADD JUMPDEST PUSH1 0x40 MLOAD PUSH1 0x20 DUP2 DUP4 SUB SUB DUP2 MSTORE SWAP1 PUSH1 0x40 MSTORE SWAP2 POP PUSH1 0xE0 SHL PUSH1 0x20 DUP3 ADD DUP1 MLOAD PUSH1 0x1 PUSH1 0x1 PUSH1 0xE0 SHL SUB DUP4 DUP2 DUP4 AND OR DUP4 MSTORE POP POP POP POP PUSH2 0x1D6B JUMP JUMPDEST PUSH1 0x1 PUSH1 0x1 PUSH1 0xA0 SHL SUB DUP3 AND PUSH1 0x0 DUP2 DUP2 MSTORE PUSH1 0x6 PUSH1 0x20 MSTORE PUSH1 0x40 DUP1 DUP3 KECCAK256 PUSH1 0x1 DUP2 ADD SLOAD SWAP2 MLOAD PUSH4 0x70A08231 PUSH1 0xE0 SHL DUP2 MSTORE ADDRESS PUSH1 0x4 DUP3 ADD MSTORE SWAP3 SWAP4 SWAP1 SWAP3 DUP5 SWAP3 SWAP2 SWAP1 PUSH4 0x70A08231 SWAP1 PUSH1 0x24 ADD PUSH1 0x20 PUSH1 0x40 MLOAD DUP1 DUP4 SUB DUP2 DUP7 GAS STATICCALL ISZERO DUP1 ISZERO PUSH2 0x12D9 JUMPI RETURNDATASIZE PUSH1 0x0 DUP1 RETURNDATACOPY RETURNDATASIZE PUSH1 0x0 REVERT JUMPDEST POP POP POP POP PUSH1 0x40 MLOAD RETURNDATASIZE PUSH1 0x1F NOT PUSH1 0x1F DUP3 ADD AND DUP3 ADD DUP1 PUSH1 0x40 MSTORE POP DUP2 ADD SWAP1 PUSH2 0x12FD SWAP2 SWAP1 PUSH2 0x1FBE JUMP JUMPDEST PUSH2 0x1307 SWAP2 SWAP1 PUSH2 0x1FAB JUMP JUMPDEST SWAP1 POP DUP1 PUSH1 0x0 SUB PUSH2 0x131B JUMPI DUP4 SWAP3 POP POP POP PUSH2 0x6FC JUMP JUMPDEST DUP2 SLOAD DUP2 SWAP1 PUSH2 0x1201 SWAP1 DUP7 PUSH2 0x1F5F JUMP JUMPDEST PUSH1 0x4 SLOAD PUSH1 0x0 SWAP1 DUP2 SWAP1 DUP2 JUMPDEST DUP2 DUP2 LT ISZERO PUSH2 0x1677 JUMPI PUSH1 0x0 PUSH1 0x4 DUP3 DUP2 SLOAD DUP2 LT PUSH2 0x1350 JUMPI PUSH2 0x1350 PUSH2 0x20F4 JUMP JUMPDEST PUSH1 0x0 SWAP2 DUP3 MSTORE PUSH1 0x20 DUP1 DUP4 KECCAK256 SWAP1 SWAP2 ADD SLOAD PUSH1 0x1 PUSH1 0x1 PUSH1 0xA0 SHL SUB SWAP1 DUP2 AND DUP1 DUP5 MSTORE PUSH1 0x3 DUP1 DUP5 MSTORE PUSH1 0x40 DUP1 DUP7 KECCAK256 DUP2 MLOAD PUSH1 0xA0 DUP2 ADD DUP4 MSTORE DUP2 SLOAD DUP7 AND DUP2 MSTORE PUSH1 0x1 DUP3 DUP2 ADD SLOAD DUP8 AND DUP3 DUP10 ADD MSTORE PUSH1 0x2 DUP1 DUP5 ADD SLOAD DUP4 DUP7 ADD MSTORE SWAP5 DUP4 ADD SLOAD PUSH1 0x60 DUP1 DUP5 ADD SWAP2 SWAP1 SWAP2 MSTORE PUSH1 0x4 SWAP1 SWAP4 ADD SLOAD PUSH1 0xFF AND ISZERO ISZERO PUSH1 0x80 DUP4 ADD MSTORE SWAP6 DUP15 AND DUP9 MSTORE PUSH1 0x5 DUP8 MSTORE DUP3 DUP9 KECCAK256 DUP6 DUP10 MSTORE DUP8 MSTORE SWAP7 DUP3 SWAP1 KECCAK256 DUP3 MLOAD SWAP2 DUP3 ADD DUP4 MSTORE DUP1 SLOAD DUP3 MSTORE SWAP5 DUP6 ADD SLOAD SWAP6 DUP2 ADD SWAP6 SWAP1 SWAP6 MSTORE SWAP3 ADD SLOAD SWAP2 DUP4 ADD SWAP2 SWAP1 SWAP2 MSTORE SWAP3 POP PUSH2 0x13F7 DUP4 PUSH2 0xFC1 JUMP JUMPDEST DUP1 MLOAD ISZERO PUSH2 0x153C JUMPI PUSH1 0x0 PUSH2 0x140E DUP5 DUP4 PUSH1 0x0 ADD MLOAD PUSH2 0x1142 JUMP JUMPDEST PUSH1 0x2 SLOAD PUSH1 0x40 MLOAD PUSH4 0x41976E09 PUSH1 0xE0 SHL DUP2 MSTORE PUSH1 0x1 PUSH1 0x1 PUSH1 0xA0 SHL SUB DUP8 DUP2 AND PUSH1 0x4 DUP4 ADD MSTORE SWAP3 SWAP4 POP PUSH1 0x0 SWAP3 SWAP1 SWAP2 AND SWAP1 PUSH4 0x41976E09 SWAP1 PUSH1 0x24 ADD PUSH1 0x20 PUSH1 0x40 MLOAD DUP1 DUP4 SUB DUP2 DUP7 GAS STATICCALL ISZERO DUP1 ISZERO PUSH2 0x145E JUMPI RETURNDATASIZE PUSH1 0x0 DUP1 RETURNDATACOPY RETURNDATASIZE PUSH1 0x0 REVERT JUMPDEST POP POP POP POP PUSH1 0x40 MLOAD RETURNDATASIZE PUSH1 0x1F NOT PUSH1 0x1F DUP3 ADD AND DUP3 ADD DUP1 PUSH1 0x40 MSTORE POP DUP2 ADD SWAP1 PUSH2 0x1482 SWAP2 SWAP1 PUSH2 0x1FBE JUMP JUMPDEST SWAP1 POP PUSH1 0x0 DUP6 PUSH1 0x1 PUSH1 0x1 PUSH1 0xA0 SHL SUB AND PUSH4 0x313CE567 PUSH1 0x40 MLOAD DUP2 PUSH4 0xFFFFFFFF AND PUSH1 0xE0 SHL DUP2 MSTORE PUSH1 0x4 ADD PUSH1 0x20 PUSH1 0x40 MLOAD DUP1 DUP4 SUB DUP2 DUP7 GAS STATICCALL ISZERO DUP1 ISZERO PUSH2 0x14C4 JUMPI RETURNDATASIZE PUSH1 0x0 DUP1 RETURNDATACOPY RETURNDATASIZE PUSH1 0x0 REVERT JUMPDEST POP POP POP POP PUSH1 0x40 MLOAD RETURNDATASIZE PUSH1 0x1F NOT PUSH1 0x1F DUP3 ADD AND DUP3 ADD DUP1 PUSH1 0x40 MSTORE POP DUP2 ADD SWAP1 PUSH2 0x14E8 SWAP2 SWAP1 PUSH2 0x1FD7 JUMP JUMPDEST PUSH2 0x14F3 SWAP1 PUSH1 0xA PUSH2 0x20E5 JUMP JUMPDEST PUSH2 0x14FD DUP4 DUP6 PUSH2 0x1F5F JUMP JUMPDEST PUSH2 0x1507 SWAP2 SWAP1 PUSH2 0x1F76 JUMP JUMPDEST SWAP1 POP PUSH8 0xDE0B6B3A7640000 DUP6 PUSH1 0x40 ADD MLOAD DUP3 PUSH2 0x1522 SWAP2 SWAP1 PUSH2 0x1F5F JUMP JUMPDEST PUSH2 0x152C SWAP2 SWAP1 PUSH2 0x1F76 JUMP JUMPDEST PUSH2 0x1536 SWAP1 DUP12 PUSH2 0x1FAB JUMP JUMPDEST SWAP10 POP POP POP POP JUMPDEST PUSH1 0x40 DUP2 ADD MLOAD ISZERO PUSH2 0x1661 JUMPI PUSH1 0x0 PUSH2 0x1556 DUP5 DUP4 PUSH1 0x40 ADD MLOAD PUSH2 0x1142 JUMP JUMPDEST PUSH1 0x2 SLOAD PUSH1 0x40 MLOAD PUSH4 0x41976E09 PUSH1 0xE0 SHL DUP2 MSTORE PUSH1 0x1 PUSH1 0x1 PUSH1 0xA0 SHL SUB DUP8 DUP2 AND PUSH1 0x4 DUP4 ADD MSTORE SWAP3 SWAP4 POP PUSH1 0x0 SWAP3 SWAP1 SWAP2 AND SWAP1 PUSH4 0x41976E09 SWAP1 PUSH1 0x24 ADD PUSH1 0x20 PUSH1 0x40 MLOAD DUP1 DUP4 SUB DUP2 DUP7 GAS STATICCALL ISZERO DUP1 ISZERO PUSH2 0x15A6 JUMPI RETURNDATASIZE PUSH1 0x0 DUP1 RETURNDATACOPY RETURNDATASIZE PUSH1 0x0 REVERT JUMPDEST POP POP POP POP PUSH1 0x40 MLOAD RETURNDATASIZE PUSH1 0x1F NOT PUSH1 0x1F DUP3 ADD AND DUP3 ADD DUP1 PUSH1 0x40 MSTORE POP DUP2 ADD SWAP1 PUSH2 0x15CA SWAP2 SWAP1 PUSH2 0x1FBE JUMP JUMPDEST SWAP1 POP PUSH1 0x0 DUP6 PUSH1 0x1 PUSH1 0x1 PUSH1 0xA0 SHL SUB AND PUSH4 0x313CE567 PUSH1 0x40 MLOAD DUP2 PUSH4 0xFFFFFFFF AND PUSH1 0xE0 SHL DUP2 MSTORE PUSH1 0x4 ADD PUSH1 0x20 PUSH1 0x40 MLOAD DUP1 DUP4 SUB DUP2 DUP7 GAS STATICCALL ISZERO DUP1 ISZERO PUSH2 0x160C JUMPI RETURNDATASIZE PUSH1 0x0 DUP1 RETURNDATACOPY RETURNDATASIZE PUSH1 0x0 REVERT JUMPDEST POP POP POP POP PUSH1 0x40 MLOAD RETURNDATASIZE PUSH1 0x1F NOT PUSH1 0x1F DUP3 ADD AND DUP3 ADD DUP1 PUSH1 0x40 MSTORE POP DUP2 ADD SWAP1 PUSH2 0x1630 SWAP2 SWAP1 PUSH2 0x1FD7 JUMP JUMPDEST PUSH2 0x163B SWAP1 PUSH1 0xA PUSH2 0x20E5 JUMP JUMPDEST PUSH2 0x1645 DUP4 DUP6 PUSH2 0x1F5F JUMP JUMPDEST PUSH2 0x164F SWAP2 SWAP1 PUSH2 0x1F76 JUMP JUMPDEST SWAP1 POP PUSH2 0x165B DUP2 DUP11 PUSH2 0x1FAB JUMP JUMPDEST SWAP9 POP POP POP POP JUMPDEST POP POP POP DUP1 DUP1 PUSH2 0x166F SWAP1 PUSH2 0x210A JUMP JUMPDEST SWAP2 POP POP PUSH2 0x1333 JUMP JUMPDEST POP POP SWAP2 POP SWAP2 JUMP JUMPDEST PUSH1 0x40 MLOAD PUSH1 0x1 PUSH1 0x1 PUSH1 0xA0 SHL SUB DUP4 DUP2 AND PUSH1 0x24 DUP4 ADD MSTORE PUSH1 0x44 DUP3 ADD DUP4 SWAP1 MSTORE PUSH2 0x16AF SWAP2 DUP6 SWAP2 DUP3 AND SWAP1 PUSH4 0xA9059CBB SWAP1 PUSH1 0x64 ADD PUSH2 0x1249 JUMP JUMPDEST POP POP POP JUMP JUMPDEST PUSH1 0x0 SLOAD PUSH1 0x1 PUSH1 0x1 PUSH1 0xA0 SHL SUB AND CALLER EQ PUSH2 0xADA JUMPI PUSH1 0x40 MLOAD PUSH4 0x118CDAA7 PUSH1 0xE0 SHL DUP2 MSTORE CALLER PUSH1 0x4 DUP3 ADD MSTORE PUSH1 0x24 ADD PUSH2 0xDC6 JUMP JUMPDEST PUSH1 0x0 DUP1 SLOAD PUSH1 0x1 PUSH1 0x1 PUSH1 0xA0 SHL SUB DUP4 DUP2 AND PUSH1 0x1 PUSH1 0x1 PUSH1 0xA0 SHL SUB NOT DUP4 AND DUP2 OR DUP5 SSTORE PUSH1 0x40 MLOAD SWAP2 SWAP1 SWAP3 AND SWAP3 DUP4 SWAP2 PUSH32 0x8BE0079C531659141344CD1FD0A4F28419497F9722A3DAAFE3B4186F6B6457E0 SWAP2 SWAP1 LOG3 POP POP JUMP JUMPDEST PUSH1 0x1 PUSH1 0x1 PUSH1 0xA0 SHL SUB DUP3 AND PUSH1 0x0 SWAP1 DUP2 MSTORE PUSH1 0x3 PUSH1 0x20 MSTORE PUSH1 0x40 SWAP1 KECCAK256 PUSH1 0x4 ADD SLOAD PUSH1 0xFF AND ISZERO DUP1 PUSH2 0x1778 JUMPI POP PUSH1 0x1 PUSH1 0x1 PUSH1 0xA0 SHL SUB DUP2 AND PUSH1 0x0 SWAP1 DUP2 MSTORE PUSH1 0x3 PUSH1 0x20 MSTORE PUSH1 0x40 SWAP1 KECCAK256 PUSH1 0x4 ADD SLOAD PUSH1 0xFF AND ISZERO JUMPDEST ISZERO PUSH2 0x1796 JUMPI PUSH1 0x40 MLOAD PUSH4 0xB77E1E0F PUSH1 0xE0 SHL DUP2 MSTORE PUSH1 0x4 ADD PUSH1 0x40 MLOAD DUP1 SWAP2 SUB SWAP1 REVERT JUMPDEST PUSH2 0x179F DUP3 PUSH2 0xFC1 JUMP JUMPDEST PUSH2 0x17A8 DUP2 PUSH2 0xFC1 JUMP JUMPDEST PUSH1 0x0 DUP1 PUSH2 0x17B4 DUP6 PUSH2 0x1329 JUMP JUMPDEST SWAP2 POP SWAP2 POP DUP1 PUSH1 0x0 EQ DUP1 PUSH2 0x17C7 JUMPI POP DUP1 DUP3 LT ISZERO JUMPDEST ISZERO PUSH2 0x17E5 JUMPI PUSH1 0x40 MLOAD PUSH4 0x481F8F2F PUSH1 0xE1 SHL DUP2 MSTORE PUSH1 0x4 ADD PUSH1 0x40 MLOAD DUP1 SWAP2 SUB SWAP1 REVERT JUMPDEST POP POP POP POP POP JUMP JUMPDEST PUSH1 0x1 PUSH1 0x1 PUSH1 0xA0 SHL SUB DUP1 DUP6 AND PUSH1 0x0 SWAP1 DUP2 MSTORE PUSH1 0x5 PUSH1 0x20 SWAP1 DUP2 MSTORE PUSH1 0x40 DUP1 DUP4 KECCAK256 SWAP4 DUP8 AND DUP4 MSTORE SWAP3 SWAP1 MSTORE SWAP1 DUP2 KECCAK256 PUSH1 0x2 DUP2 ADD SLOAD DUP3 SWAP2 SWAP1 DUP3 SWAP1 PUSH2 0x1828 SWAP1 DUP9 SWAP1 PUSH2 0x1142 JUMP JUMPDEST SWAP1 POP PUSH1 0x0 NOT DUP6 SUB PUSH2 0x183B JUMPI DUP1 SWAP4 POP PUSH2 0x184D JUMP JUMPDEST DUP1 DUP6 GT PUSH2 0x1848 JUMPI DUP5 PUSH2 0x184A JUMP JUMPDEST DUP1 JUMPDEST SWAP4 POP JUMPDEST PUSH1 0x2 SLOAD PUSH1 0x40 MLOAD PUSH4 0x41976E09 PUSH1 0xE0 SHL DUP2 MSTORE PUSH1 0x1 PUSH1 0x1 PUSH1 0xA0 SHL SUB DUP10 DUP2 AND PUSH1 0x4 DUP4 ADD MSTORE PUSH1 0x0 SWAP3 AND SWAP1 PUSH4 0x41976E09 SWAP1 PUSH1 0x24 ADD PUSH1 0x20 PUSH1 0x40 MLOAD DUP1 DUP4 SUB DUP2 DUP7 GAS STATICCALL ISZERO DUP1 ISZERO PUSH2 0x1898 JUMPI RETURNDATASIZE PUSH1 0x0 DUP1 RETURNDATACOPY RETURNDATASIZE PUSH1 0x0 REVERT JUMPDEST POP POP POP POP PUSH1 0x40 MLOAD RETURNDATASIZE PUSH1 0x1F NOT PUSH1 0x1F DUP3 ADD AND DUP3 ADD DUP1 PUSH1 0x40 MSTORE POP DUP2 ADD SWAP1 PUSH2 0x18BC SWAP2 SWAP1 PUSH2 0x1FBE JUMP JUMPDEST PUSH1 0x2 SLOAD PUSH1 0x40 MLOAD PUSH4 0x41976E09 PUSH1 0xE0 SHL DUP2 MSTORE PUSH1 0x1 PUSH1 0x1 PUSH1 0xA0 SHL SUB DUP11 DUP2 AND PUSH1 0x4 DUP4 ADD MSTORE SWAP3 SWAP4 POP PUSH1 0x0 SWAP3 SWAP1 SWAP2 AND SWAP1 PUSH4 0x41976E09 SWAP1 PUSH1 0x24 ADD PUSH1 0x20 PUSH1 0x40 MLOAD DUP1 DUP4 SUB DUP2 DUP7 GAS STATICCALL ISZERO DUP1 ISZERO PUSH2 0x190C JUMPI RETURNDATASIZE PUSH1 0x0 DUP1 RETURNDATACOPY RETURNDATASIZE PUSH1 0x0 REVERT JUMPDEST POP POP POP POP PUSH1 0x40 MLOAD RETURNDATASIZE PUSH1 0x1F NOT PUSH1 0x1F DUP3 ADD AND DUP3 ADD DUP1 PUSH1 0x40 MSTORE POP DUP2 ADD SWAP1 PUSH2 0x1930 SWAP2 SWAP1 PUSH2 0x1FBE JUMP JUMPDEST SWAP1 POP PUSH1 0x0 PUSH2 0x1946 PUSH8 0xDE0B6B3A7640000 DUP4 PUSH2 0x1F5F JUMP JUMPDEST PUSH1 0x1 PUSH1 0x1 PUSH1 0xA0 SHL SUB DUP12 AND PUSH1 0x0 SWAP1 DUP2 MSTORE PUSH1 0x3 PUSH1 0x20 DUP2 SWAP1 MSTORE PUSH1 0x40 SWAP1 SWAP2 KECCAK256 ADD SLOAD PUSH2 0x1975 SWAP1 PUSH8 0xDE0B6B3A7640000 PUSH2 0x1FAB JUMP JUMPDEST PUSH2 0x197F DUP6 DUP11 PUSH2 0x1F5F JUMP JUMPDEST PUSH2 0x1989 SWAP2 SWAP1 PUSH2 0x1F5F JUMP JUMPDEST PUSH2 0x1993 SWAP2 SWAP1 PUSH2 0x1F76 JUMP JUMPDEST SWAP1 POP PUSH1 0x0 PUSH8 0xDE0B6B3A7640000 DUP11 PUSH1 0x1 PUSH1 0x1 PUSH1 0xA0 SHL SUB AND PUSH4 0x313CE567 PUSH1 0x40 MLOAD DUP2 PUSH4 0xFFFFFFFF AND PUSH1 0xE0 SHL DUP2 MSTORE PUSH1 0x4 ADD PUSH1 0x20 PUSH1 0x40 MLOAD DUP1 DUP4 SUB DUP2 DUP7 GAS STATICCALL ISZERO DUP1 ISZERO PUSH2 0x19DE JUMPI RETURNDATASIZE PUSH1 0x0 DUP1 RETURNDATACOPY RETURNDATASIZE PUSH1 0x0 REVERT JUMPDEST POP POP POP POP PUSH1 0x40 MLOAD RETURNDATASIZE PUSH1 0x1F NOT PUSH1 0x1F DUP3 ADD AND DUP3 ADD DUP1 PUSH1 0x40 MSTORE POP DUP2 ADD SWAP1 PUSH2 0x1A02 SWAP2 SWAP1 PUSH2 0x1FD7 JUMP JUMPDEST PUSH2 0x1A0D SWAP1 PUSH1 0xA PUSH2 0x20E5 JUMP JUMPDEST PUSH2 0x1A17 SWAP1 DUP5 PUSH2 0x1F5F JUMP JUMPDEST PUSH2 0x1A21 SWAP2 SWAP1 PUSH2 0x1F76 JUMP JUMPDEST SWAP1 POP PUSH2 0x1A2D DUP11 DUP3 PUSH2 0x127B JUMP JUMPDEST PUSH1 0x1 PUSH1 0x1 PUSH1 0xA0 SHL SUB DUP1 DUP15 AND PUSH1 0x0 SWAP1 DUP2 MSTORE PUSH1 0x5 PUSH1 0x20 SWAP1 DUP2 MSTORE PUSH1 0x40 DUP1 DUP4 KECCAK256 SWAP4 DUP16 AND DUP4 MSTORE SWAP3 SWAP1 MSTORE KECCAK256 DUP1 SLOAD SWAP2 SWAP9 POP SWAP1 DUP9 GT ISZERO PUSH2 0x1A64 JUMPI DUP1 SLOAD SWAP8 POP JUMPDEST POP POP POP POP POP POP POP SWAP5 POP SWAP5 SWAP3 POP POP POP JUMP JUMPDEST PUSH1 0x1 PUSH1 0x1 PUSH1 0xA0 SHL SUB DUP1 DUP7 AND PUSH1 0x0 SWAP1 DUP2 MSTORE PUSH1 0x5 PUSH1 0x20 SWAP1 DUP2 MSTORE PUSH1 0x40 DUP1 DUP4 KECCAK256 SWAP4 DUP8 AND DUP4 MSTORE SWAP3 SWAP1 MSTORE SWAP1 DUP2 KECCAK256 DUP1 SLOAD DUP4 SWAP3 SWAP1 PUSH2 0x1AAB SWAP1 DUP5 SWAP1 PUSH2 0x1F98 JUMP JUMPDEST SWAP1 SWAP2 SSTORE POP POP PUSH1 0x1 PUSH1 0x1 PUSH1 0xA0 SHL SUB DUP1 DUP8 AND PUSH1 0x0 SWAP1 DUP2 MSTORE PUSH1 0x5 PUSH1 0x20 SWAP1 DUP2 MSTORE PUSH1 0x40 DUP1 DUP4 KECCAK256 SWAP4 DUP8 AND DUP4 MSTORE SWAP3 SWAP1 MSTORE SWAP1 DUP2 KECCAK256 DUP1 SLOAD DUP4 SWAP3 SWAP1 PUSH2 0x1AE7 SWAP1 DUP5 SWAP1 PUSH2 0x1FAB JUMP JUMPDEST SWAP1 SWAP2 SSTORE POP POP PUSH1 0x1 PUSH1 0x1 PUSH1 0xA0 SHL SUB DUP1 DUP7 AND PUSH1 0x0 SWAP1 DUP2 MSTORE PUSH1 0x5 PUSH1 0x20 SWAP1 DUP2 MSTORE PUSH1 0x40 DUP1 DUP4 KECCAK256 SWAP4 DUP9 AND DUP4 MSTORE SWAP3 DUP2 MSTORE DUP3 DUP3 KECCAK256 PUSH1 0x6 SWAP1 SWAP2 MSTORE SWAP2 DUP2 KECCAK256 PUSH1 0x2 DUP4 ADD SLOAD SWAP1 SWAP2 PUSH2 0x1B2C DUP9 DUP4 PUSH2 0x1142 JUMP JUMPDEST SWAP1 POP PUSH1 0x0 DUP2 DUP8 LT PUSH2 0x1B3E JUMPI POP DUP2 PUSH2 0x1B56 JUMP JUMPDEST DUP2 PUSH2 0x1B49 DUP9 DUP6 PUSH2 0x1F5F JUMP JUMPDEST PUSH2 0x1B53 SWAP2 SWAP1 PUSH2 0x1F76 JUMP JUMPDEST SWAP1 POP JUMPDEST DUP1 DUP6 PUSH1 0x2 ADD PUSH1 0x0 DUP3 DUP3 SLOAD PUSH2 0x1B6A SWAP2 SWAP1 PUSH2 0x1F98 JUMP JUMPDEST SWAP3 POP POP DUP2 SWAP1 SSTORE POP DUP7 DUP5 PUSH1 0x1 ADD PUSH1 0x0 DUP3 DUP3 SLOAD PUSH2 0x1B85 SWAP2 SWAP1 PUSH2 0x1F98 JUMP JUMPDEST SWAP3 POP POP DUP2 SWAP1 SSTORE POP DUP1 DUP5 PUSH1 0x2 ADD PUSH1 0x0 DUP3 DUP3 SLOAD PUSH2 0x1BA0 SWAP2 SWAP1 PUSH2 0x1F98 JUMP JUMPDEST SWAP1 SWAP2 SSTORE POP PUSH2 0x1BB2 SWAP1 POP DUP10 DUP13 ADDRESS DUP11 PUSH2 0x1214 JUMP JUMPDEST PUSH1 0x0 PUSH2 0x1BBE DUP10 DUP9 PUSH2 0x1142 JUMP JUMPDEST PUSH1 0x40 DUP1 MLOAD PUSH1 0x1 PUSH1 0x1 PUSH1 0xA0 SHL SUB DUP14 DUP2 AND DUP3 MSTORE PUSH1 0x20 DUP3 ADD DUP13 SWAP1 MSTORE SWAP2 DUP2 ADD DUP4 SWAP1 MSTORE SWAP2 SWAP3 POP DUP1 DUP12 AND SWAP2 DUP14 DUP3 AND SWAP2 DUP16 AND SWAP1 PUSH32 0xAC8BBD8FB7420B3123CF9E24D34551E40514EA69C5A1E97C10E513AAF06E7E42 SWAP1 PUSH1 0x60 ADD PUSH1 0x40 MLOAD DUP1 SWAP2 SUB SWAP1 LOG4 POP POP POP POP POP POP POP POP POP POP POP POP JUMP JUMPDEST PUSH1 0x1 PUSH1 0x1 PUSH1 0xA0 SHL SUB DUP3 AND PUSH1 0x0 SWAP1 DUP2 MSTORE PUSH1 0x3 PUSH1 0x20 MSTORE PUSH1 0x40 DUP2 KECCAK256 DUP2 PUSH2 0x1C48 DUP6 DUP6 PUSH2 0x1142 JUMP JUMPDEST PUSH1 0x2 SLOAD PUSH1 0x40 MLOAD PUSH4 0x41976E09 PUSH1 0xE0 SHL DUP2 MSTORE PUSH1 0x1 PUSH1 0x1 PUSH1 0xA0 SHL SUB DUP9 DUP2 AND PUSH1 0x4 DUP4 ADD MSTORE SWAP3 SWAP4 POP PUSH1 0x0 SWAP3 SWAP1 SWAP2 AND SWAP1 PUSH4 0x41976E09 SWAP1 PUSH1 0x24 ADD PUSH1 0x20 PUSH1 0x40 MLOAD DUP1 DUP4 SUB DUP2 DUP7 GAS STATICCALL ISZERO DUP1 ISZERO PUSH2 0x1C98 JUMPI RETURNDATASIZE PUSH1 0x0 DUP1 RETURNDATACOPY RETURNDATASIZE PUSH1 0x0 REVERT JUMPDEST POP POP POP POP PUSH1 0x40 MLOAD RETURNDATASIZE PUSH1 0x1F NOT PUSH1 0x1F DUP3 ADD AND DUP3 ADD DUP1 PUSH1 0x40 MSTORE POP DUP2 ADD SWAP1 PUSH2 0x1CBC SWAP2 SWAP1 PUSH2 0x1FBE JUMP JUMPDEST SWAP1 POP DUP6 PUSH1 0x1 PUSH1 0x1 PUSH1 0xA0 SHL SUB AND PUSH4 0x313CE567 PUSH1 0x40 MLOAD DUP2 PUSH4 0xFFFFFFFF AND PUSH1 0xE0 SHL DUP2 MSTORE PUSH1 0x4 ADD PUSH1 0x20 PUSH1 0x40 MLOAD DUP1 DUP4 SUB DUP2 DUP7 GAS STATICCALL ISZERO DUP1 ISZERO PUSH2 0x1CFC JUMPI RETURNDATASIZE PUSH1 0x0 DUP1 RETURNDATACOPY RETURNDATASIZE PUSH1 0x0 REVERT JUMPDEST POP POP POP POP PUSH1 0x40 MLOAD RETURNDATASIZE PUSH1 0x1F NOT PUSH1 0x1F DUP3 ADD AND DUP3 ADD DUP1 PUSH1 0x40 MSTORE POP DUP2 ADD SWAP1 PUSH2 0x1D20 SWAP2 SWAP1 PUSH2 0x1FD7 JUMP JUMPDEST PUSH2 0x1D2B SWAP1 PUSH1 0xA PUSH2 0x20E5 JUMP JUMPDEST PUSH2 0x1D3D SWAP1 PUSH8 0xDE0B6B3A7640000 PUSH2 0x1F5F JUMP JUMPDEST PUSH1 0x2 DUP5 ADD SLOAD PUSH2 0x1D4C DUP4 DUP6 PUSH2 0x1F5F JUMP JUMPDEST PUSH2 0x1D56 SWAP2 SWAP1 PUSH2 0x1F5F JUMP JUMPDEST PUSH2 0x1D60 SWAP2 SWAP1 PUSH2 0x1F76 JUMP JUMPDEST SWAP8 SWAP7 POP POP POP POP POP POP POP JUMP JUMPDEST PUSH1 0x0 DUP1 PUSH1 0x20 PUSH1 0x0 DUP5 MLOAD PUSH1 0x20 DUP7 ADD PUSH1 0x0 DUP9 GAS CALL DUP1 PUSH2 0x1D8E JUMPI PUSH1 0x40 MLOAD RETURNDATASIZE PUSH1 0x0 DUP3 RETURNDATACOPY RETURNDATASIZE DUP2 REVERT JUMPDEST POP POP PUSH1 0x0 MLOAD RETURNDATASIZE SWAP2 POP DUP2 ISZERO PUSH2 0x1DA6 JUMPI DUP1 PUSH1 0x1 EQ ISZERO PUSH2 0x1DB3 JUMP JUMPDEST PUSH1 0x1 PUSH1 0x1 PUSH1 0xA0 SHL SUB DUP5 AND EXTCODESIZE ISZERO JUMPDEST ISZERO PUSH2 0xB30 JUMPI PUSH1 0x40 MLOAD PUSH4 0x5274AFE7 PUSH1 0xE0 SHL DUP2 MSTORE PUSH1 0x1 PUSH1 0x1 PUSH1 0xA0 SHL SUB DUP6 AND PUSH1 0x4 DUP3 ADD MSTORE PUSH1 0x24 ADD PUSH2 0xDC6 JUMP JUMPDEST DUP1 CALLDATALOAD PUSH1 0x1 PUSH1 0x1 PUSH1 0xA0 SHL SUB DUP2 AND DUP2 EQ PUSH2 0x1DF3 JUMPI PUSH1 0x0 DUP1 REVERT JUMPDEST SWAP2 SWAP1 POP JUMP JUMPDEST PUSH1 0x0 DUP1 PUSH1 0x40 DUP4 DUP6 SUB SLT ISZERO PUSH2 0x1E0B JUMPI PUSH1 0x0 DUP1 REVERT JUMPDEST PUSH2 0x1E14 DUP4 PUSH2 0x1DDC JUMP JUMPDEST SWAP5 PUSH1 0x20 SWAP4 SWAP1 SWAP4 ADD CALLDATALOAD SWAP4 POP POP POP JUMP JUMPDEST PUSH1 0x0 DUP1 PUSH1 0x40 DUP4 DUP6 SUB SLT ISZERO PUSH2 0x1E35 JUMPI PUSH1 0x0 DUP1 REVERT JUMPDEST PUSH2 0x1E3E DUP4 PUSH2 0x1DDC JUMP JUMPDEST SWAP2 POP PUSH2 0x1E4C PUSH1 0x20 DUP5 ADD PUSH2 0x1DDC JUMP JUMPDEST SWAP1 POP SWAP3 POP SWAP3 SWAP1 POP JUMP JUMPDEST PUSH1 0x0 PUSH1 0x20 DUP3 DUP5 SUB SLT ISZERO PUSH2 0x1E67 JUMPI PUSH1 0x0 DUP1 REVERT JUMPDEST PUSH2 0x6F9 DUP3 PUSH2 0x1DDC JUMP JUMPDEST PUSH1 0x0 DUP1 PUSH1 0x0 DUP1 PUSH1 0x80 DUP6 DUP8 SUB SLT ISZERO PUSH2 0x1E86 JUMPI PUSH1 0x0 DUP1 REVERT JUMPDEST PUSH2 0x1E8F DUP6 PUSH2 0x1DDC JUMP JUMPDEST SWAP4 POP PUSH2 0x1E9D PUSH1 0x20 DUP7 ADD PUSH2 0x1DDC JUMP JUMPDEST SWAP3 POP PUSH2 0x1EAB PUSH1 0x40 DUP7 ADD PUSH2 0x1DDC JUMP JUMPDEST SWAP4 SWAP7 SWAP3 SWAP6 POP SWAP3 SWAP4 PUSH1 0x60 ADD CALLDATALOAD SWAP3 POP POP JUMP JUMPDEST PUSH1 0x0 PUSH1 0x20 DUP3 DUP5 SUB SLT ISZERO PUSH2 0x1ECD JUMPI PUSH1 0x0 DUP1 REVERT JUMPDEST POP CALLDATALOAD SWAP2 SWAP1 POP JUMP JUMPDEST PUSH1 0x0 DUP1 PUSH1 0x0 DUP1 PUSH1 0x80 DUP6 DUP8 SUB SLT ISZERO PUSH2 0x1EEA JUMPI PUSH1 0x0 DUP1 REVERT JUMPDEST PUSH2 0x1EF3 DUP6 PUSH2 0x1DDC JUMP JUMPDEST SWAP4 POP PUSH2 0x1F01 PUSH1 0x20 DUP7 ADD PUSH2 0x1DDC JUMP JUMPDEST SWAP4 SWAP7 SWAP4 SWAP6 POP POP POP POP PUSH1 0x40 DUP3 ADD CALLDATALOAD SWAP2 PUSH1 0x60 ADD CALLDATALOAD SWAP1 JUMP JUMPDEST PUSH1 0x0 DUP1 PUSH1 0x0 PUSH1 0x60 DUP5 DUP7 SUB SLT ISZERO PUSH2 0x1F2B JUMPI PUSH1 0x0 DUP1 REVERT JUMPDEST PUSH2 0x1F34 DUP5 PUSH2 0x1DDC JUMP JUMPDEST SWAP6 PUSH1 0x20 DUP6 ADD CALLDATALOAD SWAP6 POP PUSH1 0x40 SWAP1 SWAP5 ADD CALLDATALOAD SWAP4 SWAP3 POP POP POP JUMP JUMPDEST PUSH4 0x4E487B71 PUSH1 0xE0 SHL PUSH1 0x0 MSTORE PUSH1 0x11 PUSH1 0x4 MSTORE PUSH1 0x24 PUSH1 0x0 REVERT JUMPDEST DUP1 DUP3 MUL DUP2 ISZERO DUP3 DUP3 DIV DUP5 EQ OR PUSH2 0x6FC JUMPI PUSH2 0x6FC PUSH2 0x1F49 JUMP JUMPDEST PUSH1 0x0 DUP3 PUSH2 0x1F93 JUMPI PUSH4 0x4E487B71 PUSH1 0xE0 SHL PUSH1 0x0 MSTORE PUSH1 0x12 PUSH1 0x4 MSTORE PUSH1 0x24 PUSH1 0x0 REVERT JUMPDEST POP DIV SWAP1 JUMP JUMPDEST DUP2 DUP2 SUB DUP2 DUP2 GT ISZERO PUSH2 0x6FC JUMPI PUSH2 0x6FC PUSH2 0x1F49 JUMP JUMPDEST DUP1 DUP3 ADD DUP1 DUP3 GT ISZERO PUSH2 0x6FC JUMPI PUSH2 0x6FC PUSH2 0x1F49 JUMP JUMPDEST PUSH1 0x0 PUSH1 0x20 DUP3 DUP5 SUB SLT ISZERO PUSH2 0x1FD0 JUMPI PUSH1 0x0 DUP1 REVERT JUMPDEST POP MLOAD SWAP2 SWAP1 POP JUMP JUMPDEST PUSH1 0x0 PUSH1 0x20 DUP3 DUP5 SUB SLT ISZERO PUSH2 0x1FE9 JUMPI PUSH1 0x0 DUP1 REVERT JUMPDEST DUP2 MLOAD PUSH1 0xFF DUP2 AND DUP2 EQ PUSH2 0x1FFA JUMPI PUSH1 0x0 DUP1 REVERT JUMPDEST SWAP4 SWAP3 POP POP POP JUMP JUMPDEST PUSH1 0x1 DUP2 DUP2 JUMPDEST DUP1 DUP6 GT ISZERO PUSH2 0x203C JUMPI DUP2 PUSH1 0x0 NOT DIV DUP3 GT ISZERO PUSH2 0x2022 JUMPI PUSH2 0x2022 PUSH2 0x1F49 JUMP JUMPDEST DUP1 DUP6 AND ISZERO PUSH2 0x202F JUMPI SWAP2 DUP2 MUL SWAP2 JUMPDEST SWAP4 DUP5 SHR SWAP4 SWAP1 DUP1 MUL SWAP1 PUSH2 0x2006 JUMP JUMPDEST POP SWAP3 POP SWAP3 SWAP1 POP JUMP JUMPDEST PUSH1 0x0 DUP3 PUSH2 0x2053 JUMPI POP PUSH1 0x1 PUSH2 0x6FC JUMP JUMPDEST DUP2 PUSH2 0x2060 JUMPI POP PUSH1 0x0 PUSH2 0x6FC JUMP JUMPDEST DUP2 PUSH1 0x1 DUP2 EQ PUSH2 0x2076 JUMPI PUSH1 0x2 DUP2 EQ PUSH2 0x2080 JUMPI PUSH2 0x209C JUMP JUMPDEST PUSH1 0x1 SWAP2 POP POP PUSH2 0x6FC JUMP JUMPDEST PUSH1 0xFF DUP5 GT ISZERO PUSH2 0x2091 JUMPI PUSH2 0x2091 PUSH2 0x1F49 JUMP JUMPDEST POP POP PUSH1 0x1 DUP3 SHL PUSH2 0x6FC JUMP JUMPDEST POP PUSH1 0x20 DUP4 LT PUSH2 0x133 DUP4 LT AND PUSH1 0x4E DUP5 LT PUSH1 0xB DUP5 LT AND OR ISZERO PUSH2 0x20BF JUMPI POP DUP2 DUP2 EXP PUSH2 0x6FC JUMP JUMPDEST PUSH2 0x20C9 DUP4 DUP4 PUSH2 0x2001 JUMP JUMPDEST DUP1 PUSH1 0x0 NOT DIV DUP3 GT ISZERO PUSH2 0x20DD JUMPI PUSH2 0x20DD PUSH2 0x1F49 JUMP JUMPDEST MUL SWAP4 SWAP3 POP POP POP JUMP JUMPDEST PUSH1 0x0 PUSH2 0x6F9 PUSH1 0xFF DUP5 AND DUP4 PUSH2 0x2044 JUMP JUMPDEST PUSH4 0x4E487B71 PUSH1 0xE0 SHL PUSH1 0x0 MSTORE PUSH1 0x32 PUSH1 0x4 MSTORE PUSH1 0x24 PUSH1 0x0 REVERT JUMPDEST PUSH1 0x0 PUSH1 0x1 DUP3 ADD PUSH2 0x211C JUMPI PUSH2 0x211C PUSH2 0x1F49 JUMP JUMPDEST POP PUSH1 0x1 ADD SWAP1 JUMP INVALID LOG2 PUSH5 0x6970667358 0x22 SLT KECCAK256 0x4F 0xAA NUMBER MUL 0xBD 0xE3 PUSH30 0x6E2BDCF05719DB2E04C420E9200E581A48E9DB4D007A2BF3DD64736F6C63 NUMBER STOP ADDMOD EQ STOP CALLER "},"methodIdentifiers":{"assetConfigs(address)":"7609d7f6","borrow(address,uint256)":"4b8a3529","deposit(address,uint256)":"47e7ef24","getAccountLiquidity(address)":"5ec88c79","getAmountForShares(address,uint256)":"49e826e6","getSharesForAmount(address,uint256)":"98b3ed59","liquidate(address,address,address,uint256)":"aab3f868","listAsset(address,address,uint256,uint256)":"d29b3cb1","listedAssets(uint256)":"ab78af67","owner()":"8da5cb5b","poolAccounts(address)":"a500ba7c","priceOracle()":"2630c12f","renounceOwnership()":"715018a6","repay(address,uint256)":"22867d78","setPriceOracle(address)":"530e784f","transferOwnership(address)":"f2fde38b","updateAssetConfig(address,uint256,uint256)":"d7eb003a","userAccounts(address,address)":"2ff75c59","withdraw(address,uint256)":"f3fef3a3"}}}}}