{"contracts/interest/ExponentialInterestRateModel.sol":{"ExponentialInterestRateModel":{"abi":[{"inputs":[{"internalType":"uint256","name":"_baseAPR","type":"uint256"},{"internalType":"uint256","name":"_coefficientAPR","type":"uint256"},{"internalType":"uint256","name":"_exponentFactor","type":"uint256"},{"internalType":"address","name":"admin","type":"address"}],"stateMutability":"nonpayable","type":"constructor"},{"inputs":[{"internalType":"address","name":"owner","type":"address"}],"name":"OwnableInvalidOwner","type":"error"},{"inputs":[{"internalType":"address","name":"account","type":"address"}],"name":"OwnableUnauthorizedAccount","type":"error"},{"anonymous":false,"inputs":[{"indexed":true,"internalType":"address","name":"previousOwner","type":"address"},{"indexed":true,"internalType":"address","name":"newOwner","type":"address"}],"name":"OwnershipTransferred","type":"event"},{"anonymous":false,"inputs":[{"indexed":false,"internalType":"uint256","name":"baseAPR","type":"uint256"},{"indexed":false,"internalType":"uint256","name":"coefficientAPR","type":"uint256"},{"indexed":false,"internalType":"uint256","name":"exponentFactor","type":"uint256"}],"name":"ParamsUpdated","type":"event"},{"inputs":[],"name":"SECONDS_PER_YEAR","outputs":[{"internalType":"uint256","name":"","type":"uint256"}],"stateMutability":"view","type":"function"},{"inputs":[],"name":"baseAPR","outputs":[{"internalType":"uint256","name":"","type":"uint256"}],"stateMutability":"view","type":"function"},{"inputs":[],"name":"coefficientAPR","outputs":[{"internalType":"uint256","name":"","type":"uint256"}],"stateMutability":"view","type":"function"},{"inputs":[],"name":"exponentFactor","outputs":[{"internalType":"uint256","name":"","type":"uint256"}],"stateMutability":"view","type":"function"},{"inputs":[{"internalType":"uint256","name":"utilization","type":"uint256"}],"name":"getBorrowRatePerSecond","outputs":[{"internalType":"uint256","name":"","type":"uint256"}],"stateMutability":"view","type":"function"},{"inputs":[],"name":"owner","outputs":[{"internalType":"address","name":"","type":"address"}],"stateMutability":"view","type":"function"},{"inputs":[],"name":"renounceOwnership","outputs":[],"stateMutability":"nonpayable","type":"function"},{"inputs":[{"internalType":"uint256","name":"_baseAPR","type":"uint256"},{"internalType":"uint256","name":"_coefficientAPR","type":"uint256"},{"internalType":"uint256","name":"_exponentFactor","type":"uint256"}],"name":"setParams","outputs":[],"stateMutability":"nonpayable","type":"function"},{"inputs":[{"internalType":"address","name":"newOwner","type":"address"}],"name":"transferOwnership","outputs":[],"stateMutability":"nonpayable","type":"function"},{"inputs":[{"internalType":"uint256","name":"","type":"uint256"}],"name":"updateBorrowRate","outputs":[],"stateMutability":"pure","type":"function"}],"evm":{"bytecode":{"linkReferences":{},"object":"608060405234801561001057600080fd5b506040516108d53803806108d583398101604081905261002f916101fa565b806001600160a01b03811661005f57604051631e4fbdf760e01b8152600060048201526024015b60405180910390fd5b6100688161007d565b506100748484846100cd565b50505050610249565b600080546001600160a01b038381166001600160a01b0319831681178455604051919092169283917f8be0079c531659141344cd1fd0a4f28419497f9722a3daafe3b4186f6b6457e09190a35050565b670de0b6b3a76400008311156101155760405162461bcd60e51b815260206004820152600d60248201526c0c4c2e6ca40e8dede40d0d2ced609b1b6044820152606401610056565b678ac7230489e8000082111561015e5760405162461bcd60e51b815260206004820152600e60248201526d0c6decacccc40e8dede40d0d2ced60931b6044820152606401610056565b671bc16d674ec800008111156101a55760405162461bcd60e51b815260206004820152600c60248201526b0caf0e040e8dede40d0d2ced60a31b6044820152606401610056565b60018390556002829055600381905560408051848152602081018490529081018290527f0cba168cfa7900657e5f8cc53d6f52ebbfa3a9f568941b465cc4f731c60c95b29060600160405180910390a1505050565b6000806000806080858703121561021057600080fd5b845160208601516040870151606088015192965090945092506001600160a01b038116811461023e57600080fd5b939692955090935050565b61067d806102586000396000f3fe608060405234801561001057600080fd5b506004361061009e5760003560e01c80638da5cb5b116100665780638da5cb5b146100f65780638fda4ced14610111578063e6a69ab81461011a578063f2fde38b14610125578063f71bd11b1461013857600080fd5b806302b8c56d146100a357806310457562146100b657806358ac0e80146100d25780635a0ce676146100db578063715018a6146100ee575b600080fd5b6100b46100b1366004610557565b50565b005b6100bf60035481565b6040519081526020015b60405180910390f35b6100bf60015481565b6100b46100e9366004610570565b61014b565b6100b4610163565b6000546040516001600160a01b0390911681526020016100c9565b6100bf60025481565b6100bf6301e1338081565b6100b461013336600461059c565b610177565b6100bf610146366004610557565b6101b7565b610153610259565b61015e838383610286565b505050565b61016b610259565b61017560006103b3565b565b61017f610259565b6001600160a01b0381166101ae57604051631e4fbdf760e01b8152600060048201526024015b60405180910390fd5b6100b1816103b3565b6000670de0b6b3a76400008211156101d557670de0b6b3a764000091505b6000670de0b6b3a7640000836003546101ee91906105e2565b6101f891906105ff565b9050600061020582610403565b90506000670de0b6b3a764000061021c8184610621565b60025461022991906105e2565b61023391906105ff565b6001546102409190610634565b90506102506301e13380826105ff565b95945050505050565b6000546001600160a01b031633146101755760405163118cdaa760e01b81523360048201526024016101a5565b670de0b6b3a76400008311156102ce5760405162461bcd60e51b815260206004820152600d60248201526c0c4c2e6ca40e8dede40d0d2ced609b1b60448201526064016101a5565b678ac7230489e800008211156103175760405162461bcd60e51b815260206004820152600e60248201526d0c6decacccc40e8dede40d0d2ced60931b60448201526064016101a5565b671bc16d674ec8000081111561035e5760405162461bcd60e51b815260206004820152600c60248201526b0caf0e040e8dede40d0d2ced60a31b60448201526064016101a5565b60018390556002829055600381905560408051848152602081018490529081018290527f0cba168cfa7900657e5f8cc53d6f52ebbfa3a9f568941b465cc4f731c60c95b29060600160405180910390a1505050565b600080546001600160a01b038381166001600160a01b0319831681178455604051919092169283917f8be0079c531659141344cd1fd0a4f28419497f9722a3daafe3b4186f6b6457e09190a35050565b6000671bc16d674ec8000082111561044c5760405162461bcd60e51b815260206004820152600c60248201526b657870206f766572666c6f7760a01b60448201526064016101a5565b670de0b6b3a7640000808061046185826105e2565b61046b91906105ff565b90506104778183610634565b9150670de0b6b3a764000061048c85836105e2565b61049691906105ff565b90506104a36002826105ff565b6104ad9083610634565b9150670de0b6b3a76400006104c285836105e2565b6104cc91906105ff565b90506104d96006826105ff565b6104e39083610634565b9150670de0b6b3a76400006104f885836105e2565b61050291906105ff565b905061050f6018826105ff565b6105199083610634565b9150670de0b6b3a764000061052e85836105e2565b61053891906105ff565b90506105456078826105ff565b61054f9083610634565b949350505050565b60006020828403121561056957600080fd5b5035919050565b60008060006060848603121561058557600080fd5b505081359360208301359350604090920135919050565b6000602082840312156105ae57600080fd5b81356001600160a01b03811681146105c557600080fd5b9392505050565b634e487b7160e01b600052601160045260246000fd5b80820281158282048414176105f9576105f96105cc565b92915050565b60008261061c57634e487b7160e01b600052601260045260246000fd5b500490565b818103818111156105f9576105f96105cc565b808201808211156105f9576105f96105cc56fea2646970667358221220a473a01c933f3618886ad96aaf3b74cce3492ff77f2d9d6842945b00a81b827e64736f6c63430008140033","opcodes":"PUSH1 0x80 PUSH1 0x40 MSTORE CALLVALUE DUP1 ISZERO PUSH2 0x10 JUMPI PUSH1 0x0 DUP1 REVERT JUMPDEST POP PUSH1 0x40 MLOAD PUSH2 0x8D5 CODESIZE SUB DUP1 PUSH2 0x8D5 DUP4 CODECOPY DUP2 ADD PUSH1 0x40 DUP2 SWAP1 MSTORE PUSH2 0x2F SWAP2 PUSH2 0x1FA JUMP JUMPDEST DUP1 PUSH1 0x1 PUSH1 0x1 PUSH1 0xA0 SHL SUB DUP2 AND PUSH2 0x5F JUMPI PUSH1 0x40 MLOAD PUSH4 0x1E4FBDF7 PUSH1 0xE0 SHL DUP2 MSTORE PUSH1 0x0 PUSH1 0x4 DUP3 ADD MSTORE PUSH1 0x24 ADD JUMPDEST PUSH1 0x40 MLOAD DUP1 SWAP2 SUB SWAP1 REVERT JUMPDEST PUSH2 0x68 DUP2 PUSH2 0x7D JUMP JUMPDEST POP PUSH2 0x74 DUP5 DUP5 DUP5 PUSH2 0xCD JUMP JUMPDEST POP POP POP POP PUSH2 0x249 JUMP JUMPDEST PUSH1 0x0 DUP1 SLOAD PUSH1 0x1 PUSH1 0x1 PUSH1 0xA0 SHL SUB DUP4 DUP2 AND PUSH1 0x1 PUSH1 0x1 PUSH1 0xA0 SHL SUB NOT DUP4 AND DUP2 OR DUP5 SSTORE PUSH1 0x40 MLOAD SWAP2 SWAP1 SWAP3 AND SWAP3 DUP4 SWAP2 PUSH32 0x8BE0079C531659141344CD1FD0A4F28419497F9722A3DAAFE3B4186F6B6457E0 SWAP2 SWAP1 LOG3 POP POP JUMP JUMPDEST PUSH8 0xDE0B6B3A7640000 DUP4 GT ISZERO PUSH2 0x115 JUMPI PUSH1 0x40 MLOAD PUSH3 0x461BCD PUSH1 0xE5 SHL DUP2 MSTORE PUSH1 0x20 PUSH1 0x4 DUP3 ADD MSTORE PUSH1 0xD PUSH1 0x24 DUP3 ADD MSTORE PUSH13 0xC4C2E6CA40E8DEDE40D0D2CED PUSH1 0x9B SHL PUSH1 0x44 DUP3 ADD MSTORE PUSH1 0x64 ADD PUSH2 0x56 JUMP JUMPDEST PUSH8 0x8AC7230489E80000 DUP3 GT ISZERO PUSH2 0x15E JUMPI PUSH1 0x40 MLOAD PUSH3 0x461BCD PUSH1 0xE5 SHL DUP2 MSTORE PUSH1 0x20 PUSH1 0x4 DUP3 ADD MSTORE PUSH1 0xE PUSH1 0x24 DUP3 ADD MSTORE PUSH14 0xC6DECACCCC40E8DEDE40D0D2CED PUSH1 0x93 SHL PUSH1 0x44 DUP3 ADD MSTORE PUSH1 0x64 ADD PUSH2 0x56 JUMP JUMPDEST PUSH8 0x1BC16D674EC80000 DUP2 GT ISZERO PUSH2 0x1A5 JUMPI PUSH1 0x40 MLOAD PUSH3 0x461BCD PUSH1 0xE5 SHL DUP2 MSTORE PUSH1 0x20 PUSH1 0x4 DUP3 ADD MSTORE PUSH1 0xC PUSH1 0x24 DUP3 ADD MSTORE PUSH12 0xCAF0E040E8DEDE40D0D2CED PUSH1 0xA3 SHL PUSH1 0x44 DUP3 ADD MSTORE PUSH1 0x64 ADD PUSH2 0x56 JUMP JUMPDEST PUSH1 0x1 DUP4 SWAP1 SSTORE PUSH1 0x2 DUP3 SWAP1 SSTORE PUSH1 0x3 DUP2 SWAP1 SSTORE PUSH1 0x40 DUP1 MLOAD DUP5 DUP2 MSTORE PUSH1 0x20 DUP2 ADD DUP5 SWAP1 MSTORE SWAP1 DUP2 ADD DUP3 SWAP1 MSTORE PUSH32 0xCBA168CFA7900657E5F8CC53D6F52EBBFA3A9F568941B465CC4F731C60C95B2 SWAP1 PUSH1 0x60 ADD PUSH1 0x40 MLOAD DUP1 SWAP2 SUB SWAP1 LOG1 POP POP POP JUMP JUMPDEST PUSH1 0x0 DUP1 PUSH1 0x0 DUP1 PUSH1 0x80 DUP6 DUP8 SUB SLT ISZERO PUSH2 0x210 JUMPI PUSH1 0x0 DUP1 REVERT JUMPDEST DUP5 MLOAD PUSH1 0x20 DUP7 ADD MLOAD PUSH1 0x40 DUP8 ADD MLOAD PUSH1 0x60 DUP9 ADD MLOAD SWAP3 SWAP7 POP SWAP1 SWAP5 POP SWAP3 POP PUSH1 0x1 PUSH1 0x1 PUSH1 0xA0 SHL SUB DUP2 AND DUP2 EQ PUSH2 0x23E JUMPI PUSH1 0x0 DUP1 REVERT JUMPDEST SWAP4 SWAP7 SWAP3 SWAP6 POP SWAP1 SWAP4 POP POP JUMP JUMPDEST PUSH2 0x67D DUP1 PUSH2 0x258 PUSH1 0x0 CODECOPY PUSH1 0x0 RETURN INVALID PUSH1 0x80 PUSH1 0x40 MSTORE CALLVALUE DUP1 ISZERO PUSH2 0x10 JUMPI PUSH1 0x0 DUP1 REVERT JUMPDEST POP PUSH1 0x4 CALLDATASIZE LT PUSH2 0x9E JUMPI PUSH1 0x0 CALLDATALOAD PUSH1 0xE0 SHR DUP1 PUSH4 0x8DA5CB5B GT PUSH2 0x66 JUMPI DUP1 PUSH4 0x8DA5CB5B EQ PUSH2 0xF6 JUMPI DUP1 PUSH4 0x8FDA4CED EQ PUSH2 0x111 JUMPI DUP1 PUSH4 0xE6A69AB8 EQ PUSH2 0x11A JUMPI DUP1 PUSH4 0xF2FDE38B EQ PUSH2 0x125 JUMPI DUP1 PUSH4 0xF71BD11B EQ PUSH2 0x138 JUMPI PUSH1 0x0 DUP1 REVERT JUMPDEST DUP1 PUSH4 0x2B8C56D EQ PUSH2 0xA3 JUMPI DUP1 PUSH4 0x10457562 EQ PUSH2 0xB6 JUMPI DUP1 PUSH4 0x58AC0E80 EQ PUSH2 0xD2 JUMPI DUP1 PUSH4 0x5A0CE676 EQ PUSH2 0xDB JUMPI DUP1 PUSH4 0x715018A6 EQ PUSH2 0xEE JUMPI JUMPDEST PUSH1 0x0 DUP1 REVERT JUMPDEST PUSH2 0xB4 PUSH2 0xB1 CALLDATASIZE PUSH1 0x4 PUSH2 0x557 JUMP JUMPDEST POP JUMP JUMPDEST STOP JUMPDEST PUSH2 0xBF PUSH1 0x3 SLOAD DUP2 JUMP JUMPDEST PUSH1 0x40 MLOAD SWAP1 DUP2 MSTORE PUSH1 0x20 ADD JUMPDEST PUSH1 0x40 MLOAD DUP1 SWAP2 SUB SWAP1 RETURN JUMPDEST PUSH2 0xBF PUSH1 0x1 SLOAD DUP2 JUMP JUMPDEST PUSH2 0xB4 PUSH2 0xE9 CALLDATASIZE PUSH1 0x4 PUSH2 0x570 JUMP JUMPDEST PUSH2 0x14B JUMP JUMPDEST PUSH2 0xB4 PUSH2 0x163 JUMP JUMPDEST PUSH1 0x0 SLOAD PUSH1 0x40 MLOAD PUSH1 0x1 PUSH1 0x1 PUSH1 0xA0 SHL SUB SWAP1 SWAP2 AND DUP2 MSTORE PUSH1 0x20 ADD PUSH2 0xC9 JUMP JUMPDEST PUSH2 0xBF PUSH1 0x2 SLOAD DUP2 JUMP JUMPDEST PUSH2 0xBF PUSH4 0x1E13380 DUP2 JUMP JUMPDEST PUSH2 0xB4 PUSH2 0x133 CALLDATASIZE PUSH1 0x4 PUSH2 0x59C JUMP JUMPDEST PUSH2 0x177 JUMP JUMPDEST PUSH2 0xBF PUSH2 0x146 CALLDATASIZE PUSH1 0x4 PUSH2 0x557 JUMP JUMPDEST PUSH2 0x1B7 JUMP JUMPDEST PUSH2 0x153 PUSH2 0x259 JUMP JUMPDEST PUSH2 0x15E DUP4 DUP4 DUP4 PUSH2 0x286 JUMP JUMPDEST POP POP POP JUMP JUMPDEST PUSH2 0x16B PUSH2 0x259 JUMP JUMPDEST PUSH2 0x175 PUSH1 0x0 PUSH2 0x3B3 JUMP JUMPDEST JUMP JUMPDEST PUSH2 0x17F PUSH2 0x259 JUMP JUMPDEST PUSH1 0x1 PUSH1 0x1 PUSH1 0xA0 SHL SUB DUP2 AND PUSH2 0x1AE JUMPI PUSH1 0x40 MLOAD PUSH4 0x1E4FBDF7 PUSH1 0xE0 SHL DUP2 MSTORE PUSH1 0x0 PUSH1 0x4 DUP3 ADD MSTORE PUSH1 0x24 ADD JUMPDEST PUSH1 0x40 MLOAD DUP1 SWAP2 SUB SWAP1 REVERT JUMPDEST PUSH2 0xB1 DUP2 PUSH2 0x3B3 JUMP JUMPDEST PUSH1 0x0 PUSH8 0xDE0B6B3A7640000 DUP3 GT ISZERO PUSH2 0x1D5 JUMPI PUSH8 0xDE0B6B3A7640000 SWAP2 POP JUMPDEST PUSH1 0x0 PUSH8 0xDE0B6B3A7640000 DUP4 PUSH1 0x3 SLOAD PUSH2 0x1EE SWAP2 SWAP1 PUSH2 0x5E2 JUMP JUMPDEST PUSH2 0x1F8 SWAP2 SWAP1 PUSH2 0x5FF JUMP JUMPDEST SWAP1 POP PUSH1 0x0 PUSH2 0x205 DUP3 PUSH2 0x403 JUMP JUMPDEST SWAP1 POP PUSH1 0x0 PUSH8 0xDE0B6B3A7640000 PUSH2 0x21C DUP2 DUP5 PUSH2 0x621 JUMP JUMPDEST PUSH1 0x2 SLOAD PUSH2 0x229 SWAP2 SWAP1 PUSH2 0x5E2 JUMP JUMPDEST PUSH2 0x233 SWAP2 SWAP1 PUSH2 0x5FF JUMP JUMPDEST PUSH1 0x1 SLOAD PUSH2 0x240 SWAP2 SWAP1 PUSH2 0x634 JUMP JUMPDEST SWAP1 POP PUSH2 0x250 PUSH4 0x1E13380 DUP3 PUSH2 0x5FF JUMP JUMPDEST SWAP6 SWAP5 POP POP POP POP POP JUMP JUMPDEST PUSH1 0x0 SLOAD PUSH1 0x1 PUSH1 0x1 PUSH1 0xA0 SHL SUB AND CALLER EQ PUSH2 0x175 JUMPI PUSH1 0x40 MLOAD PUSH4 0x118CDAA7 PUSH1 0xE0 SHL DUP2 MSTORE CALLER PUSH1 0x4 DUP3 ADD MSTORE PUSH1 0x24 ADD PUSH2 0x1A5 JUMP JUMPDEST PUSH8 0xDE0B6B3A7640000 DUP4 GT ISZERO PUSH2 0x2CE JUMPI PUSH1 0x40 MLOAD PUSH3 0x461BCD PUSH1 0xE5 SHL DUP2 MSTORE PUSH1 0x20 PUSH1 0x4 DUP3 ADD MSTORE PUSH1 0xD PUSH1 0x24 DUP3 ADD MSTORE PUSH13 0xC4C2E6CA40E8DEDE40D0D2CED PUSH1 0x9B SHL PUSH1 0x44 DUP3 ADD MSTORE PUSH1 0x64 ADD PUSH2 0x1A5 JUMP JUMPDEST PUSH8 0x8AC7230489E80000 DUP3 GT ISZERO PUSH2 0x317 JUMPI PUSH1 0x40 MLOAD PUSH3 0x461BCD PUSH1 0xE5 SHL DUP2 MSTORE PUSH1 0x20 PUSH1 0x4 DUP3 ADD MSTORE PUSH1 0xE PUSH1 0x24 DUP3 ADD MSTORE PUSH14 0xC6DECACCCC40E8DEDE40D0D2CED PUSH1 0x93 SHL PUSH1 0x44 DUP3 ADD MSTORE PUSH1 0x64 ADD PUSH2 0x1A5 JUMP JUMPDEST PUSH8 0x1BC16D674EC80000 DUP2 GT ISZERO PUSH2 0x35E JUMPI PUSH1 0x40 MLOAD PUSH3 0x461BCD PUSH1 0xE5 SHL DUP2 MSTORE PUSH1 0x20 PUSH1 0x4 DUP3 ADD MSTORE PUSH1 0xC PUSH1 0x24 DUP3 ADD MSTORE PUSH12 0xCAF0E040E8DEDE40D0D2CED PUSH1 0xA3 SHL PUSH1 0x44 DUP3 ADD MSTORE PUSH1 0x64 ADD PUSH2 0x1A5 JUMP JUMPDEST PUSH1 0x1 DUP4 SWAP1 SSTORE PUSH1 0x2 DUP3 SWAP1 SSTORE PUSH1 0x3 DUP2 SWAP1 SSTORE PUSH1 0x40 DUP1 MLOAD DUP5 DUP2 MSTORE PUSH1 0x20 DUP2 ADD DUP5 SWAP1 MSTORE SWAP1 DUP2 ADD DUP3 SWAP1 MSTORE PUSH32 0xCBA168CFA7900657E5F8CC53D6F52EBBFA3A9F568941B465CC4F731C60C95B2 SWAP1 PUSH1 0x60 ADD PUSH1 0x40 MLOAD DUP1 SWAP2 SUB SWAP1 LOG1 POP POP POP JUMP JUMPDEST PUSH1 0x0 DUP1 SLOAD PUSH1 0x1 PUSH1 0x1 PUSH1 0xA0 SHL SUB DUP4 DUP2 AND PUSH1 0x1 PUSH1 0x1 PUSH1 0xA0 SHL SUB NOT DUP4 AND DUP2 OR DUP5 SSTORE PUSH1 0x40 MLOAD SWAP2 SWAP1 SWAP3 AND SWAP3 DUP4 SWAP2 PUSH32 0x8BE0079C531659141344CD1FD0A4F28419497F9722A3DAAFE3B4186F6B6457E0 SWAP2 SWAP1 LOG3 POP POP JUMP JUMPDEST PUSH1 0x0 PUSH8 0x1BC16D674EC80000 DUP3 GT ISZERO PUSH2 0x44C JUMPI PUSH1 0x40 MLOAD PUSH3 0x461BCD PUSH1 0xE5 SHL DUP2 MSTORE PUSH1 0x20 PUSH1 0x4 DUP3 ADD MSTORE PUSH1 0xC PUSH1 0x24 DUP3 ADD MSTORE PUSH12 0x657870206F766572666C6F77 PUSH1 0xA0 SHL PUSH1 0x44 DUP3 ADD MSTORE PUSH1 0x64 ADD PUSH2 0x1A5 JUMP JUMPDEST PUSH8 0xDE0B6B3A7640000 DUP1 DUP1 PUSH2 0x461 DUP6 DUP3 PUSH2 0x5E2 JUMP JUMPDEST PUSH2 0x46B SWAP2 SWAP1 PUSH2 0x5FF JUMP JUMPDEST SWAP1 POP PUSH2 0x477 DUP2 DUP4 PUSH2 0x634 JUMP JUMPDEST SWAP2 POP PUSH8 0xDE0B6B3A7640000 PUSH2 0x48C DUP6 DUP4 PUSH2 0x5E2 JUMP JUMPDEST PUSH2 0x496 SWAP2 SWAP1 PUSH2 0x5FF JUMP JUMPDEST SWAP1 POP PUSH2 0x4A3 PUSH1 0x2 DUP3 PUSH2 0x5FF JUMP JUMPDEST PUSH2 0x4AD SWAP1 DUP4 PUSH2 0x634 JUMP JUMPDEST SWAP2 POP PUSH8 0xDE0B6B3A7640000 PUSH2 0x4C2 DUP6 DUP4 PUSH2 0x5E2 JUMP JUMPDEST PUSH2 0x4CC SWAP2 SWAP1 PUSH2 0x5FF JUMP JUMPDEST SWAP1 POP PUSH2 0x4D9 PUSH1 0x6 DUP3 PUSH2 0x5FF JUMP JUMPDEST PUSH2 0x4E3 SWAP1 DUP4 PUSH2 0x634 JUMP JUMPDEST SWAP2 POP PUSH8 0xDE0B6B3A7640000 PUSH2 0x4F8 DUP6 DUP4 PUSH2 0x5E2 JUMP JUMPDEST PUSH2 0x502 SWAP2 SWAP1 PUSH2 0x5FF JUMP JUMPDEST SWAP1 POP PUSH2 0x50F PUSH1 0x18 DUP3 PUSH2 0x5FF JUMP JUMPDEST PUSH2 0x519 SWAP1 DUP4 PUSH2 0x634 JUMP JUMPDEST SWAP2 POP PUSH8 0xDE0B6B3A7640000 PUSH2 0x52E DUP6 DUP4 PUSH2 0x5E2 JUMP JUMPDEST PUSH2 0x538 SWAP2 SWAP1 PUSH2 0x5FF JUMP JUMPDEST SWAP1 POP PUSH2 0x545 PUSH1 0x78 DUP3 PUSH2 0x5FF JUMP JUMPDEST PUSH2 0x54F SWAP1 DUP4 PUSH2 0x634 JUMP JUMPDEST SWAP5 SWAP4 POP POP POP POP JUMP JUMPDEST PUSH1 0x0 PUSH1 0x20 DUP3 DUP5 SUB SLT ISZERO PUSH2 0x569 JUMPI PUSH1 0x0 DUP1 REVERT JUMPDEST POP CALLDATALOAD SWAP2 SWAP1 POP JUMP JUMPDEST PUSH1 0x0 DUP1 PUSH1 0x0 PUSH1 0x60 DUP5 DUP7 SUB SLT ISZERO PUSH2 0x585 JUMPI PUSH1 0x0 DUP1 REVERT JUMPDEST POP POP DUP2 CALLDATALOAD SWAP4 PUSH1 0x20 DUP4 ADD CALLDATALOAD SWAP4 POP PUSH1 0x40 SWAP1 SWAP3 ADD CALLDATALOAD SWAP2 SWAP1 POP JUMP JUMPDEST PUSH1 0x0 PUSH1 0x20 DUP3 DUP5 SUB SLT ISZERO PUSH2 0x5AE JUMPI PUSH1 0x0 DUP1 REVERT JUMPDEST DUP2 CALLDATALOAD PUSH1 0x1 PUSH1 0x1 PUSH1 0xA0 SHL SUB DUP2 AND DUP2 EQ PUSH2 0x5C5 JUMPI PUSH1 0x0 DUP1 REVERT JUMPDEST SWAP4 SWAP3 POP POP POP JUMP JUMPDEST PUSH4 0x4E487B71 PUSH1 0xE0 SHL PUSH1 0x0 MSTORE PUSH1 0x11 PUSH1 0x4 MSTORE PUSH1 0x24 PUSH1 0x0 REVERT JUMPDEST DUP1 DUP3 MUL DUP2 ISZERO DUP3 DUP3 DIV DUP5 EQ OR PUSH2 0x5F9 JUMPI PUSH2 0x5F9 PUSH2 0x5CC JUMP JUMPDEST SWAP3 SWAP2 POP POP JUMP JUMPDEST PUSH1 0x0 DUP3 PUSH2 0x61C JUMPI PUSH4 0x4E487B71 PUSH1 0xE0 SHL PUSH1 0x0 MSTORE PUSH1 0x12 PUSH1 0x4 MSTORE PUSH1 0x24 PUSH1 0x0 REVERT JUMPDEST POP DIV SWAP1 JUMP JUMPDEST DUP2 DUP2 SUB DUP2 DUP2 GT ISZERO PUSH2 0x5F9 JUMPI PUSH2 0x5F9 PUSH2 0x5CC JUMP JUMPDEST DUP1 DUP3 ADD DUP1 DUP3 GT ISZERO PUSH2 0x5F9 JUMPI PUSH2 0x5F9 PUSH2 0x5CC JUMP INVALID LOG2 PUSH5 0x6970667358 0x22 SLT KECCAK256 LOG4 PUSH20 0xA01C933F3618886AD96AAF3B74CCE3492FF77F2D SWAP14 PUSH9 0x42945B00A81B827E64 PUSH20 0x6F6C634300081400330000000000000000000000 "},"methodIdentifiers":{"SECONDS_PER_YEAR()":"e6a69ab8","baseAPR()":"58ac0e80","coefficientAPR()":"8fda4ced","exponentFactor()":"10457562","getBorrowRatePerSecond(uint256)":"f71bd11b","owner()":"8da5cb5b","renounceOwnership()":"715018a6","setParams(uint256,uint256,uint256)":"5a0ce676","transferOwnership(address)":"f2fde38b","updateBorrowRate(uint256)":"02b8c56d"}}}}}