{"contracts/interest/KinkInterestRateModel.sol":{"KinkInterestRateModel":{"abi":[{"inputs":[{"internalType":"uint256","name":"_baseAPR","type":"uint256"},{"internalType":"uint256","name":"_slopeLowAPR","type":"uint256"},{"internalType":"uint256","name":"_slopeHighAPR","type":"uint256"},{"internalType":"uint256","name":"_kink","type":"uint256"},{"internalType":"address","name":"admin","type":"address"}],"stateMutability":"nonpayable","type":"constructor"},{"inputs":[{"internalType":"address","name":"owner","type":"address"}],"name":"OwnableInvalidOwner","type":"error"},{"inputs":[{"internalType":"address","name":"account","type":"address"}],"name":"OwnableUnauthorizedAccount","type":"error"},{"anonymous":false,"inputs":[{"indexed":true,"internalType":"address","name":"previousOwner","type":"address"},{"indexed":true,"internalType":"address","name":"newOwner","type":"address"}],"name":"OwnershipTransferred","type":"event"},{"anonymous":false,"inputs":[{"indexed":false,"internalType":"uint256","name":"baseAPR","type":"uint256"},{"indexed":false,"internalType":"uint256","name":"slopeLowAPR","type":"uint256"},{"indexed":false,"internalType":"uint256","name":"slopeHighAPR","type":"uint256"},{"indexed":false,"internalType":"uint256","name":"kink","type":"uint256"}],"name":"ParamsUpdated","type":"event"},{"inputs":[],"name":"SECONDS_PER_YEAR","outputs":[{"internalType":"uint256","name":"","type":"uint256"}],"stateMutability":"view","type":"function"},{"inputs":[],"name":"baseAPR","outputs":[{"internalType":"uint256","name":"","type":"uint256"}],"stateMutability":"view","type":"function"},{"inputs":[{"internalType":"uint256","name":"utilization","type":"uint256"}],"name":"getBorrowRatePerSecond","outputs":[{"internalType":"uint256","name":"","type":"uint256"}],"stateMutability":"view","type":"function"},{"inputs":[],"name":"kink","outputs":[{"internalType":"uint256","name":"","type":"uint256"}],"stateMutability":"view","type":"function"},{"inputs":[],"name":"owner","outputs":[{"internalType":"address","name":"","type":"address"}],"stateMutability":"view","type":"function"},{"inputs":[],"name":"renounceOwnership","outputs":[],"stateMutability":"nonpayable","type":"function"},{"inputs":[{"internalType":"uint256","name":"_baseAPR","type":"uint256"},{"internalType":"uint256","name":"_slopeLowAPR","type":"uint256"},{"internalType":"uint256","name":"_slopeHighAPR","type":"uint256"},{"internalType":"uint256","name":"_kink","type":"uint256"}],"name":"setParams","outputs":[],"stateMutability":"nonpayable","type":"function"},{"inputs":[],"name":"slopeHighAPR","outputs":[{"internalType":"uint256","name":"","type":"uint256"}],"stateMutability":"view","type":"function"},{"inputs":[],"name":"slopeLowAPR","outputs":[{"internalType":"uint256","name":"","type":"uint256"}],"stateMutability":"view","type":"function"},{"inputs":[{"internalType":"address","name":"newOwner","type":"address"}],"name":"transferOwnership","outputs":[],"stateMutability":"nonpayable","type":"function"},{"inputs":[{"internalType":"uint256","name":"","type":"uint256"}],"name":"updateBorrowRate","outputs":[],"stateMutability":"pure","type":"function"}],"evm":{"bytecode":{"linkReferences":{},"object":"608060405234801561001057600080fd5b5060405161089c38038061089c83398101604081905261002f91610255565b806001600160a01b03811661005f57604051631e4fbdf760e01b8152600060048201526024015b60405180910390fd5b6100688161007f565b50610075858585856100cf565b50505050506102b0565b600080546001600160a01b038381166001600160a01b0319831681178455604051919092169283917f8be0079c531659141344cd1fd0a4f28419497f9722a3daafe3b4186f6b6457e09190a35050565b670de0b6b3a76400008111156101175760405162461bcd60e51b815260206004820152600d60248201526c0d6d2dcd640e8dede40d0d2ced609b1b6044820152606401610056565b670de0b6b3a764000084111561015f5760405162461bcd60e51b815260206004820152600d60248201526c0c4c2e6ca40e8dede40d0d2ced609b1b6044820152606401610056565b674563918244f400008311156101a95760405162461bcd60e51b815260206004820152600f60248201526e0e6d8dee0ca6240e8dede40d0d2ced608b1b6044820152606401610056565b678ac7230489e800008211156101f35760405162461bcd60e51b815260206004820152600f60248201526e0e6d8dee0ca6440e8dede40d0d2ced608b1b6044820152606401610056565b60018490556002839055600382905560048190556040805185815260208101859052908101839052606081018290527f12a7025c39c132ef283c80c5db2fc1a564c96bf8fc3ca7af8e3cd63842c3a3499060800160405180910390a150505050565b600080600080600060a0868803121561026d57600080fd5b855160208701516040880151606089015160808a0151939850919650945092506001600160a01b03811681146102a257600080fd5b809150509295509295909350565b6105dd806102bf6000396000f3fe608060405234801561001057600080fd5b50600436106100a95760003560e01c806395571baa1161007157806395571baa14610113578063e6a69ab81461011c578063f15a3ac814610127578063f2fde38b14610130578063f71bd11b14610143578063fd2da3391461015657600080fd5b806302b8c56d146100ae57806358ac0e80146100c1578063715018a6146100dd5780637ece45e8146100e55780638da5cb5b146100f8575b600080fd5b6100bf6100bc3660046104b8565b50565b005b6100ca60015481565b6040519081526020015b60405180910390f35b6100bf61015f565b6100bf6100f33660046104d1565b610173565b6000546040516001600160a01b0390911681526020016100d4565b6100ca60025481565b6100ca6301e1338081565b6100ca60035481565b6100bf61013e366004610503565b61018d565b6100ca6101513660046104b8565b6101cd565b6100ca60045481565b6101676102b5565b61017160006102e2565b565b61017b6102b5565b61018784848484610332565b50505050565b6101956102b5565b6001600160a01b0381166101c457604051631e4fbdf760e01b8152600060048201526024015b60405180910390fd5b6100bc816102e2565b6000670de0b6b3a76400008211156101eb57670de0b6b3a764000091505b6000600454831161022b57670de0b6b3a76400008360025461020d9190610542565b610217919061055f565b6001546102249190610581565b90506102a0565b6000670de0b6b3a76400006004546002546102469190610542565b610250919061055f565b60015461025d9190610581565b90506000670de0b6b3a7640000600454866102789190610594565b6003546102859190610542565b61028f919061055f565b905061029b8183610581565b925050505b6102ae6301e133808261055f565b9392505050565b6000546001600160a01b031633146101715760405163118cdaa760e01b81523360048201526024016101bb565b600080546001600160a01b038381166001600160a01b0319831681178455604051919092169283917f8be0079c531659141344cd1fd0a4f28419497f9722a3daafe3b4186f6b6457e09190a35050565b670de0b6b3a764000081111561037a5760405162461bcd60e51b815260206004820152600d60248201526c0d6d2dcd640e8dede40d0d2ced609b1b60448201526064016101bb565b670de0b6b3a76400008411156103c25760405162461bcd60e51b815260206004820152600d60248201526c0c4c2e6ca40e8dede40d0d2ced609b1b60448201526064016101bb565b674563918244f4000083111561040c5760405162461bcd60e51b815260206004820152600f60248201526e0e6d8dee0ca6240e8dede40d0d2ced608b1b60448201526064016101bb565b678ac7230489e800008211156104565760405162461bcd60e51b815260206004820152600f60248201526e0e6d8dee0ca6440e8dede40d0d2ced608b1b60448201526064016101bb565b60018490556002839055600382905560048190556040805185815260208101859052908101839052606081018290527f12a7025c39c132ef283c80c5db2fc1a564c96bf8fc3ca7af8e3cd63842c3a3499060800160405180910390a150505050565b6000602082840312156104ca57600080fd5b5035919050565b600080600080608085870312156104e757600080fd5b5050823594602084013594506040840135936060013592509050565b60006020828403121561051557600080fd5b81356001600160a01b03811681146102ae57600080fd5b634e487b7160e01b600052601160045260246000fd5b80820281158282048414176105595761055961052c565b92915050565b60008261057c57634e487b7160e01b600052601260045260246000fd5b500490565b808201808211156105595761055961052c565b818103818111156105595761055961052c56fea264697066735822122037eeeb6f3790481c051ae2a46df3db74787feb9477e9e02862fd7406d0b57f6464736f6c63430008140033","opcodes":"PUSH1 0x80 PUSH1 0x40 MSTORE CALLVALUE DUP1 ISZERO PUSH2 0x10 JUMPI PUSH1 0x0 DUP1 REVERT JUMPDEST POP PUSH1 0x40 MLOAD PUSH2 0x89C CODESIZE SUB DUP1 PUSH2 0x89C DUP4 CODECOPY DUP2 ADD PUSH1 0x40 DUP2 SWAP1 MSTORE PUSH2 0x2F SWAP2 PUSH2 0x255 JUMP JUMPDEST DUP1 PUSH1 0x1 PUSH1 0x1 PUSH1 0xA0 SHL SUB DUP2 AND PUSH2 0x5F JUMPI PUSH1 0x40 MLOAD PUSH4 0x1E4FBDF7 PUSH1 0xE0 SHL DUP2 MSTORE PUSH1 0x0 PUSH1 0x4 DUP3 ADD MSTORE PUSH1 0x24 ADD JUMPDEST PUSH1 0x40 MLOAD DUP1 SWAP2 SUB SWAP1 REVERT JUMPDEST PUSH2 0x68 DUP2 PUSH2 0x7F JUMP JUMPDEST POP PUSH2 0x75 DUP6 DUP6 DUP6 DUP6 PUSH2 0xCF JUMP JUMPDEST POP POP POP POP POP PUSH2 0x2B0 JUMP JUMPDEST PUSH1 0x0 DUP1 SLOAD PUSH1 0x1 PUSH1 0x1 PUSH1 0xA0 SHL SUB DUP4 DUP2 AND PUSH1 0x1 PUSH1 0x1 PUSH1 0xA0 SHL SUB NOT DUP4 AND DUP2 OR DUP5 SSTORE PUSH1 0x40 MLOAD SWAP2 SWAP1 SWAP3 AND SWAP3 DUP4 SWAP2 PUSH32 0x8BE0079C531659141344CD1FD0A4F28419497F9722A3DAAFE3B4186F6B6457E0 SWAP2 SWAP1 LOG3 POP POP JUMP JUMPDEST PUSH8 0xDE0B6B3A7640000 DUP2 GT ISZERO PUSH2 0x117 JUMPI PUSH1 0x40 MLOAD PUSH3 0x461BCD PUSH1 0xE5 SHL DUP2 MSTORE PUSH1 0x20 PUSH1 0x4 DUP3 ADD MSTORE PUSH1 0xD PUSH1 0x24 DUP3 ADD MSTORE PUSH13 0xD6D2DCD640E8DEDE40D0D2CED PUSH1 0x9B SHL PUSH1 0x44 DUP3 ADD MSTORE PUSH1 0x64 ADD PUSH2 0x56 JUMP JUMPDEST PUSH8 0xDE0B6B3A7640000 DUP5 GT ISZERO PUSH2 0x15F JUMPI PUSH1 0x40 MLOAD PUSH3 0x461BCD PUSH1 0xE5 SHL DUP2 MSTORE PUSH1 0x20 PUSH1 0x4 DUP3 ADD MSTORE PUSH1 0xD PUSH1 0x24 DUP3 ADD MSTORE PUSH13 0xC4C2E6CA40E8DEDE40D0D2CED PUSH1 0x9B SHL PUSH1 0x44 DUP3 ADD MSTORE PUSH1 0x64 ADD PUSH2 0x56 JUMP JUMPDEST PUSH8 0x4563918244F40000 DUP4 GT ISZERO PUSH2 0x1A9 JUMPI PUSH1 0x40 MLOAD PUSH3 0x461BCD PUSH1 0xE5 SHL DUP2 MSTORE PUSH1 0x20 PUSH1 0x4 DUP3 ADD MSTORE PUSH1 0xF PUSH1 0x24 DUP3 ADD MSTORE PUSH15 0xE6D8DEE0CA6240E8DEDE40D0D2CED PUSH1 0x8B SHL PUSH1 0x44 DUP3 ADD MSTORE PUSH1 0x64 ADD PUSH2 0x56 JUMP JUMPDEST PUSH8 0x8AC7230489E80000 DUP3 GT ISZERO PUSH2 0x1F3 JUMPI PUSH1 0x40 MLOAD PUSH3 0x461BCD PUSH1 0xE5 SHL DUP2 MSTORE PUSH1 0x20 PUSH1 0x4 DUP3 ADD MSTORE PUSH1 0xF PUSH1 0x24 DUP3 ADD MSTORE PUSH15 0xE6D8DEE0CA6440E8DEDE40D0D2CED PUSH1 0x8B SHL PUSH1 0x44 DUP3 ADD MSTORE PUSH1 0x64 ADD PUSH2 0x56 JUMP JUMPDEST PUSH1 0x1 DUP5 SWAP1 SSTORE PUSH1 0x2 DUP4 SWAP1 SSTORE PUSH1 0x3 DUP3 SWAP1 SSTORE PUSH1 0x4 DUP2 SWAP1 SSTORE PUSH1 0x40 DUP1 MLOAD DUP6 DUP2 MSTORE PUSH1 0x20 DUP2 ADD DUP6 SWAP1 MSTORE SWAP1 DUP2 ADD DUP4 SWAP1 MSTORE PUSH1 0x60 DUP2 ADD DUP3 SWAP1 MSTORE PUSH32 0x12A7025C39C132EF283C80C5DB2FC1A564C96BF8FC3CA7AF8E3CD63842C3A349 SWAP1 PUSH1 0x80 ADD PUSH1 0x40 MLOAD DUP1 SWAP2 SUB SWAP1 LOG1 POP POP POP POP JUMP JUMPDEST PUSH1 0x0 DUP1 PUSH1 0x0 DUP1 PUSH1 0x0 PUSH1 0xA0 DUP7 DUP9 SUB SLT ISZERO PUSH2 0x26D JUMPI PUSH1 0x0 DUP1 REVERT JUMPDEST DUP6 MLOAD PUSH1 0x20 DUP8 ADD MLOAD PUSH1 0x40 DUP9 ADD MLOAD PUSH1 0x60 DUP10 ADD MLOAD PUSH1 0x80 DUP11 ADD MLOAD SWAP4 SWAP9 POP SWAP2 SWAP7 POP SWAP5 POP SWAP3 POP PUSH1 0x1 PUSH1 0x1 PUSH1 0xA0 SHL SUB DUP2 AND DUP2 EQ PUSH2 0x2A2 JUMPI PUSH1 0x0 DUP1 REVERT JUMPDEST DUP1 SWAP2 POP POP SWAP3 SWAP6 POP SWAP3 SWAP6 SWAP1 SWAP4 POP JUMP JUMPDEST PUSH2 0x5DD DUP1 PUSH2 0x2BF PUSH1 0x0 CODECOPY PUSH1 0x0 RETURN INVALID PUSH1 0x80 PUSH1 0x40 MSTORE CALLVALUE DUP1 ISZERO PUSH2 0x10 JUMPI PUSH1 0x0 DUP1 REVERT JUMPDEST POP PUSH1 0x4 CALLDATASIZE LT PUSH2 0xA9 JUMPI PUSH1 0x0 CALLDATALOAD PUSH1 0xE0 SHR DUP1 PUSH4 0x95571BAA GT PUSH2 0x71 JUMPI DUP1 PUSH4 0x95571BAA EQ PUSH2 0x113 JUMPI DUP1 PUSH4 0xE6A69AB8 EQ PUSH2 0x11C JUMPI DUP1 PUSH4 0xF15A3AC8 EQ PUSH2 0x127 JUMPI DUP1 PUSH4 0xF2FDE38B EQ PUSH2 0x130 JUMPI DUP1 PUSH4 0xF71BD11B EQ PUSH2 0x143 JUMPI DUP1 PUSH4 0xFD2DA339 EQ PUSH2 0x156 JUMPI PUSH1 0x0 DUP1 REVERT JUMPDEST DUP1 PUSH4 0x2B8C56D EQ PUSH2 0xAE JUMPI DUP1 PUSH4 0x58AC0E80 EQ PUSH2 0xC1 JUMPI DUP1 PUSH4 0x715018A6 EQ PUSH2 0xDD JUMPI DUP1 PUSH4 0x7ECE45E8 EQ PUSH2 0xE5 JUMPI DUP1 PUSH4 0x8DA5CB5B EQ PUSH2 0xF8 JUMPI JUMPDEST PUSH1 0x0 DUP1 REVERT JUMPDEST PUSH2 0xBF PUSH2 0xBC CALLDATASIZE PUSH1 0x4 PUSH2 0x4B8 JUMP JUMPDEST POP JUMP JUMPDEST STOP JUMPDEST PUSH2 0xCA PUSH1 0x1 SLOAD DUP2 JUMP JUMPDEST PUSH1 0x40 MLOAD SWAP1 DUP2 MSTORE PUSH1 0x20 ADD JUMPDEST PUSH1 0x40 MLOAD DUP1 SWAP2 SUB SWAP1 RETURN JUMPDEST PUSH2 0xBF PUSH2 0x15F JUMP JUMPDEST PUSH2 0xBF PUSH2 0xF3 CALLDATASIZE PUSH1 0x4 PUSH2 0x4D1 JUMP JUMPDEST PUSH2 0x173 JUMP JUMPDEST PUSH1 0x0 SLOAD PUSH1 0x40 MLOAD PUSH1 0x1 PUSH1 0x1 PUSH1 0xA0 SHL SUB SWAP1 SWAP2 AND DUP2 MSTORE PUSH1 0x20 ADD PUSH2 0xD4 JUMP JUMPDEST PUSH2 0xCA PUSH1 0x2 SLOAD DUP2 JUMP JUMPDEST PUSH2 0xCA PUSH4 0x1E13380 DUP2 JUMP JUMPDEST PUSH2 0xCA PUSH1 0x3 SLOAD DUP2 JUMP JUMPDEST PUSH2 0xBF PUSH2 0x13E CALLDATASIZE PUSH1 0x4 PUSH2 0x503 JUMP JUMPDEST PUSH2 0x18D JUMP JUMPDEST PUSH2 0xCA PUSH2 0x151 CALLDATASIZE PUSH1 0x4 PUSH2 0x4B8 JUMP JUMPDEST PUSH2 0x1CD JUMP JUMPDEST PUSH2 0xCA PUSH1 0x4 SLOAD DUP2 JUMP JUMPDEST PUSH2 0x167 PUSH2 0x2B5 JUMP JUMPDEST PUSH2 0x171 PUSH1 0x0 PUSH2 0x2E2 JUMP JUMPDEST JUMP JUMPDEST PUSH2 0x17B PUSH2 0x2B5 JUMP JUMPDEST PUSH2 0x187 DUP5 DUP5 DUP5 DUP5 PUSH2 0x332 JUMP JUMPDEST POP POP POP POP JUMP JUMPDEST PUSH2 0x195 PUSH2 0x2B5 JUMP JUMPDEST PUSH1 0x1 PUSH1 0x1 PUSH1 0xA0 SHL SUB DUP2 AND PUSH2 0x1C4 JUMPI PUSH1 0x40 MLOAD PUSH4 0x1E4FBDF7 PUSH1 0xE0 SHL DUP2 MSTORE PUSH1 0x0 PUSH1 0x4 DUP3 ADD MSTORE PUSH1 0x24 ADD JUMPDEST PUSH1 0x40 MLOAD DUP1 SWAP2 SUB SWAP1 REVERT JUMPDEST PUSH2 0xBC DUP2 PUSH2 0x2E2 JUMP JUMPDEST PUSH1 0x0 PUSH8 0xDE0B6B3A7640000 DUP3 GT ISZERO PUSH2 0x1EB JUMPI PUSH8 0xDE0B6B3A7640000 SWAP2 POP JUMPDEST PUSH1 0x0 PUSH1 0x4 SLOAD DUP4 GT PUSH2 0x22B JUMPI PUSH8 0xDE0B6B3A7640000 DUP4 PUSH1 0x2 SLOAD PUSH2 0x20D SWAP2 SWAP1 PUSH2 0x542 JUMP JUMPDEST PUSH2 0x217 SWAP2 SWAP1 PUSH2 0x55F JUMP JUMPDEST PUSH1 0x1 SLOAD PUSH2 0x224 SWAP2 SWAP1 PUSH2 0x581 JUMP JUMPDEST SWAP1 POP PUSH2 0x2A0 JUMP JUMPDEST PUSH1 0x0 PUSH8 0xDE0B6B3A7640000 PUSH1 0x4 SLOAD PUSH1 0x2 SLOAD PUSH2 0x246 SWAP2 SWAP1 PUSH2 0x542 JUMP JUMPDEST PUSH2 0x250 SWAP2 SWAP1 PUSH2 0x55F JUMP JUMPDEST PUSH1 0x1 SLOAD PUSH2 0x25D SWAP2 SWAP1 PUSH2 0x581 JUMP JUMPDEST SWAP1 POP PUSH1 0x0 PUSH8 0xDE0B6B3A7640000 PUSH1 0x4 SLOAD DUP7 PUSH2 0x278 SWAP2 SWAP1 PUSH2 0x594 JUMP JUMPDEST PUSH1 0x3 SLOAD PUSH2 0x285 SWAP2 SWAP1 PUSH2 0x542 JUMP JUMPDEST PUSH2 0x28F SWAP2 SWAP1 PUSH2 0x55F JUMP JUMPDEST SWAP1 POP PUSH2 0x29B DUP2 DUP4 PUSH2 0x581 JUMP JUMPDEST SWAP3 POP POP POP JUMPDEST PUSH2 0x2AE PUSH4 0x1E13380 DUP3 PUSH2 0x55F JUMP JUMPDEST SWAP4 SWAP3 POP POP POP JUMP JUMPDEST PUSH1 0x0 SLOAD PUSH1 0x1 PUSH1 0x1 PUSH1 0xA0 SHL SUB AND CALLER EQ PUSH2 0x171 JUMPI PUSH1 0x40 MLOAD PUSH4 0x118CDAA7 PUSH1 0xE0 SHL DUP2 MSTORE CALLER PUSH1 0x4 DUP3 ADD MSTORE PUSH1 0x24 ADD PUSH2 0x1BB JUMP JUMPDEST PUSH1 0x0 DUP1 SLOAD PUSH1 0x1 PUSH1 0x1 PUSH1 0xA0 SHL SUB DUP4 DUP2 AND PUSH1 0x1 PUSH1 0x1 PUSH1 0xA0 SHL SUB NOT DUP4 AND DUP2 OR DUP5 SSTORE PUSH1 0x40 MLOAD SWAP2 SWAP1 SWAP3 AND SWAP3 DUP4 SWAP2 PUSH32 0x8BE0079C531659141344CD1FD0A4F28419497F9722A3DAAFE3B4186F6B6457E0 SWAP2 SWAP1 LOG3 POP POP JUMP JUMPDEST PUSH8 0xDE0B6B3A7640000 DUP2 GT ISZERO PUSH2 0x37A JUMPI PUSH1 0x40 MLOAD PUSH3 0x461BCD PUSH1 0xE5 SHL DUP2 MSTORE PUSH1 0x20 PUSH1 0x4 DUP3 ADD MSTORE PUSH1 0xD PUSH1 0x24 DUP3 ADD MSTORE PUSH13 0xD6D2DCD640E8DEDE40D0D2CED PUSH1 0x9B SHL PUSH1 0x44 DUP3 ADD MSTORE PUSH1 0x64 ADD PUSH2 0x1BB JUMP JUMPDEST PUSH8 0xDE0B6B3A7640000 DUP5 GT ISZERO PUSH2 0x3C2 JUMPI PUSH1 0x40 MLOAD PUSH3 0x461BCD PUSH1 0xE5 SHL DUP2 MSTORE PUSH1 0x20 PUSH1 0x4 DUP3 ADD MSTORE PUSH1 0xD PUSH1 0x24 DUP3 ADD MSTORE PUSH13 0xC4C2E6CA40E8DEDE40D0D2CED PUSH1 0x9B SHL PUSH1 0x44 DUP3 ADD MSTORE PUSH1 0x64 ADD PUSH2 0x1BB JUMP JUMPDEST PUSH8 0x4563918244F40000 DUP4 GT ISZERO PUSH2 0x40C JUMPI PUSH1 0x40 MLOAD PUSH3 0x461BCD PUSH1 0xE5 SHL DUP2 MSTORE PUSH1 0x20 PUSH1 0x4 DUP3 ADD MSTORE PUSH1 0xF PUSH1 0x24 DUP3 ADD MSTORE PUSH15 0xE6D8DEE0CA6240E8DEDE40D0D2CED PUSH1 0x8B SHL PUSH1 0x44 DUP3 ADD MSTORE PUSH1 0x64 ADD PUSH2 0x1BB JUMP JUMPDEST PUSH8 0x8AC7230489E80000 DUP3 GT ISZERO PUSH2 0x456 JUMPI PUSH1 0x40 MLOAD PUSH3 0x461BCD PUSH1 0xE5 SHL DUP2 MSTORE PUSH1 0x20 PUSH1 0x4 DUP3 ADD MSTORE PUSH1 0xF PUSH1 0x24 DUP3 ADD MSTORE PUSH15 0xE6D8DEE0CA6440E8DEDE40D0D2CED PUSH1 0x8B SHL PUSH1 0x44 DUP3 ADD MSTORE PUSH1 0x64 ADD PUSH2 0x1BB JUMP JUMPDEST PUSH1 0x1 DUP5 SWAP1 SSTORE PUSH1 0x2 DUP4 SWAP1 SSTORE PUSH1 0x3 DUP3 SWAP1 SSTORE PUSH1 0x4 DUP2 SWAP1 SSTORE PUSH1 0x40 DUP1 MLOAD DUP6 DUP2 MSTORE PUSH1 0x20 DUP2 ADD DUP6 SWAP1 MSTORE SWAP1 DUP2 ADD DUP4 SWAP1 MSTORE PUSH1 0x60 DUP2 ADD DUP3 SWAP1 MSTORE PUSH32 0x12A7025C39C132EF283C80C5DB2FC1A564C96BF8FC3CA7AF8E3CD63842C3A349 SWAP1 PUSH1 0x80 ADD PUSH1 0x40 MLOAD DUP1 SWAP2 SUB SWAP1 LOG1 POP POP POP POP JUMP JUMPDEST PUSH1 0x0 PUSH1 0x20 DUP3 DUP5 SUB SLT ISZERO PUSH2 0x4CA JUMPI PUSH1 0x0 DUP1 REVERT JUMPDEST POP CALLDATALOAD SWAP2 SWAP1 POP JUMP JUMPDEST PUSH1 0x0 DUP1 PUSH1 0x0 DUP1 PUSH1 0x80 DUP6 DUP8 SUB SLT ISZERO PUSH2 0x4E7 JUMPI PUSH1 0x0 DUP1 REVERT JUMPDEST POP POP DUP3 CALLDATALOAD SWAP5 PUSH1 0x20 DUP5 ADD CALLDATALOAD SWAP5 POP PUSH1 0x40 DUP5 ADD CALLDATALOAD SWAP4 PUSH1 0x60 ADD CALLDATALOAD SWAP3 POP SWAP1 POP JUMP JUMPDEST PUSH1 0x0 PUSH1 0x20 DUP3 DUP5 SUB SLT ISZERO PUSH2 0x515 JUMPI PUSH1 0x0 DUP1 REVERT JUMPDEST DUP2 CALLDATALOAD PUSH1 0x1 PUSH1 0x1 PUSH1 0xA0 SHL SUB DUP2 AND DUP2 EQ PUSH2 0x2AE JUMPI PUSH1 0x0 DUP1 REVERT JUMPDEST PUSH4 0x4E487B71 PUSH1 0xE0 SHL PUSH1 0x0 MSTORE PUSH1 0x11 PUSH1 0x4 MSTORE PUSH1 0x24 PUSH1 0x0 REVERT JUMPDEST DUP1 DUP3 MUL DUP2 ISZERO DUP3 DUP3 DIV DUP5 EQ OR PUSH2 0x559 JUMPI PUSH2 0x559 PUSH2 0x52C JUMP JUMPDEST SWAP3 SWAP2 POP POP JUMP JUMPDEST PUSH1 0x0 DUP3 PUSH2 0x57C JUMPI PUSH4 0x4E487B71 PUSH1 0xE0 SHL PUSH1 0x0 MSTORE PUSH1 0x12 PUSH1 0x4 MSTORE PUSH1 0x24 PUSH1 0x0 REVERT JUMPDEST POP DIV SWAP1 JUMP JUMPDEST DUP1 DUP3 ADD DUP1 DUP3 GT ISZERO PUSH2 0x559 JUMPI PUSH2 0x559 PUSH2 0x52C JUMP JUMPDEST DUP2 DUP2 SUB DUP2 DUP2 GT ISZERO PUSH2 0x559 JUMPI PUSH2 0x559 PUSH2 0x52C JUMP INVALID LOG2 PUSH5 0x6970667358 0x22 SLT KECCAK256 CALLDATACOPY 0xEE 0xEB PUSH16 0x3790481C051AE2A46DF3DB74787FEB94 PUSH24 0xE9E02862FD7406D0B57F6464736F6C634300081400330000 "},"methodIdentifiers":{"SECONDS_PER_YEAR()":"e6a69ab8","baseAPR()":"58ac0e80","getBorrowRatePerSecond(uint256)":"f71bd11b","kink()":"fd2da339","owner()":"8da5cb5b","renounceOwnership()":"715018a6","setParams(uint256,uint256,uint256,uint256)":"7ece45e8","slopeHighAPR()":"f15a3ac8","slopeLowAPR()":"95571baa","transferOwnership(address)":"f2fde38b","updateBorrowRate(uint256)":"02b8c56d"}}}}}