{"contracts/LendingPool.sol":{"LendingPool":{"abi":[{"inputs":[{"internalType":"address","name":"_priceOracle","type":"address"},{"internalType":"address","name":"admin","type":"address"}],"stateMutability":"nonpayable","type":"constructor"},{"inputs":[],"name":"AssetAlreadyListed","type":"error"},{"inputs":[],"name":"AssetNotListed","type":"error"},{"inputs":[],"name":"InsufficientCollateral","type":"error"},{"inputs":[],"name":"InsufficientLiquidity","type":"error"},{"inputs":[],"name":"LiquidationNotPossible","type":"error"},{"inputs":[{"internalType":"address","name":"owner","type":"address"}],"name":"OwnableInvalidOwner","type":"error"},{"inputs":[{"internalType":"address","name":"account","type":"address"}],"name":"OwnableUnauthorizedAccount","type":"error"},{"inputs":[],"name":"ReentrancyGuardReentrantCall","type":"error"},{"inputs":[{"internalType":"address","name":"token","type":"address"}],"name":"SafeERC20FailedOperation","type":"error"},{"inputs":[],"name":"ZeroAddress","type":"error"},{"inputs":[],"name":"ZeroAmount","type":"error"},{"anonymous":false,"inputs":[{"indexed":true,"internalType":"address","name":"asset","type":"address"},{"indexed":false,"internalType":"uint256","name":"collateralFactor","type":"uint256"},{"indexed":false,"internalType":"uint256","name":"liquidationBonus","type":"uint256"}],"name":"AssetConfigUpdated","type":"event"},{"anonymous":false,"inputs":[{"indexed":true,"internalType":"address","name":"asset","type":"address"},{"indexed":false,"internalType":"address","name":"irm","type":"address"},{"indexed":false,"internalType":"uint256","name":"collateralFactor","type":"uint256"},{"indexed":false,"internalType":"uint256","name":"liquidationBonus","type":"uint256"}],"name":"AssetListed","type":"event"},{"anonymous":false,"inputs":[{"indexed":true,"internalType":"address","name":"user","type":"address"},{"indexed":true,"internalType":"address","name":"asset","type":"address"},{"indexed":false,"internalType":"uint256","name":"amount","type":"uint256"}],"name":"Borrow","type":"event"},{"anonymous":false,"inputs":[{"indexed":true,"internalType":"address","name":"user","type":"address"},{"indexed":true,"internalType":"address","name":"asset","type":"address"},{"indexed":false,"internalType":"uint256","name":"amount","type":"uint256"},{"indexed":false,"internalType":"uint256","name":"shares","type":"uint256"}],"name":"Deposit","type":"event"},{"anonymous":false,"inputs":[{"indexed":true,"internalType":"address","name":"liquidator","type":"address"},{"indexed":true,"internalType":"address","name":"borrower","type":"address"},{"indexed":true,"internalType":"address","name":"collateralAsset","type":"address"},{"indexed":false,"internalType":"address","name":"borrowAsset","type":"address"},{"indexed":false,"internalType":"uint256","name":"repayAmount","type":"uint256"},{"indexed":false,"internalType":"uint256","name":"seizedAmount","type":"uint256"}],"name":"Liquidate","type":"event"},{"anonymous":false,"inputs":[{"indexed":true,"internalType":"address","name":"previousOwner","type":"address"},{"indexed":true,"internalType":"address","name":"newOwner","type":"address"}],"name":"OwnershipTransferred","type":"event"},{"anonymous":false,"inputs":[{"indexed":true,"internalType":"address","name":"newOracle","type":"address"}],"name":"PriceOracleUpdated","type":"event"},{"anonymous":false,"inputs":[{"indexed":true,"internalType":"address","name":"user","type":"address"},{"indexed":true,"internalType":"address","name":"asset","type":"address"},{"indexed":false,"internalType":"uint256","name":"amount","type":"uint256"}],"name":"Repay","type":"event"},{"anonymous":false,"inputs":[{"indexed":true,"internalType":"address","name":"user","type":"address"},{"indexed":true,"internalType":"address","name":"asset","type":"address"},{"indexed":false,"internalType":"uint256","name":"amount","type":"uint256"},{"indexed":false,"internalType":"uint256","name":"shares","type":"uint256"}],"name":"Withdraw","type":"event"},{"inputs":[{"internalType":"address","name":"","type":"address"}],"name":"assetConfigs","outputs":[{"internalType":"address","name":"assetAddress","type":"address"},{"internalType":"address","name":"irmAddress","type":"address"},{"internalType":"uint256","name":"collateralFactor","type":"uint256"},{"internalType":"uint256","name":"liquidationBonus","type":"uint256"},{"internalType":"bool","name":"isActive","type":"bool"}],"stateMutability":"view","type":"function"},{"inputs":[{"internalType":"address","name":"_asset","type":"address"},{"internalType":"uint256","name":"_amount","type":"uint256"}],"name":"borrow","outputs":[],"stateMutability":"nonpayable","type":"function"},{"inputs":[{"internalType":"address","name":"_asset","type":"address"},{"internalType":"uint256","name":"_amount","type":"uint256"}],"name":"deposit","outputs":[],"stateMutability":"nonpayable","type":"function"},{"inputs":[{"internalType":"address","name":"_user","type":"address"}],"name":"getAccountLiquidity","outputs":[{"internalType":"uint256","name":"totalCollateralValue","type":"uint256"},{"internalType":"uint256","name":"totalBorrowValue","type":"uint256"}],"stateMutability":"nonpayable","type":"function"},{"inputs":[{"internalType":"address","name":"_asset","type":"address"},{"internalType":"uint256","name":"_shares","type":"uint256"}],"name":"getAmountForShares","outputs":[{"internalType":"uint256","name":"","type":"uint256"}],"stateMutability":"nonpayable","type":"function"},{"inputs":[{"internalType":"address","name":"_asset","type":"address"},{"internalType":"uint256","name":"_amount","type":"uint256"}],"name":"getSharesForAmount","outputs":[{"internalType":"uint256","name":"","type":"uint256"}],"stateMutability":"nonpayable","type":"function"},{"inputs":[{"internalType":"address","name":"_borrower","type":"address"},{"internalType":"address","name":"_borrowAsset","type":"address"},{"internalType":"address","name":"_collateralAsset","type":"address"},{"internalType":"uint256","name":"_repayAmount","type":"uint256"}],"name":"liquidate","outputs":[],"stateMutability":"nonpayable","type":"function"},{"inputs":[{"internalType":"address","name":"_asset","type":"address"},{"internalType":"address","name":"_irm","type":"address"},{"internalType":"uint256","name":"_collateralFactor","type":"uint256"},{"internalType":"uint256","name":"_liquidationBonus","type":"uint256"}],"name":"listAsset","outputs":[],"stateMutability":"nonpayable","type":"function"},{"inputs":[{"internalType":"uint256","name":"","type":"uint256"}],"name":"listedAssets","outputs":[{"internalType":"address","name":"","type":"address"}],"stateMutability":"view","type":"function"},{"inputs":[],"name":"owner","outputs":[{"internalType":"address","name":"","type":"address"}],"stateMutability":"view","type":"function"},{"inputs":[{"internalType":"address","name":"","type":"address"}],"name":"poolAccounts","outputs":[{"internalType":"uint256","name":"totalShares","type":"uint256"},{"internalType":"uint256","name":"totalBorrows","type":"uint256"},{"internalType":"uint256","name":"totalBorrowShares","type":"uint256"},{"internalType":"uint256","name":"lastInterestAccruedTimestamp","type":"uint256"},{"internalType":"uint256","name":"totalReserves","type":"uint256"}],"stateMutability":"view","type":"function"},{"inputs":[],"name":"priceOracle","outputs":[{"internalType":"contract IPriceOracle","name":"","type":"address"}],"stateMutability":"view","type":"function"},{"inputs":[],"name":"renounceOwnership","outputs":[],"stateMutability":"nonpayable","type":"function"},{"inputs":[{"internalType":"address","name":"_asset","type":"address"},{"internalType":"uint256","name":"_amount","type":"uint256"}],"name":"repay","outputs":[],"stateMutability":"nonpayable","type":"function"},{"inputs":[{"internalType":"address","name":"_newOracle","type":"address"}],"name":"setPriceOracle","outputs":[],"stateMutability":"nonpayable","type":"function"},{"inputs":[{"internalType":"address","name":"newOwner","type":"address"}],"name":"transferOwnership","outputs":[],"stateMutability":"nonpayable","type":"function"},{"inputs":[{"internalType":"address","name":"_asset","type":"address"},{"internalType":"uint256","name":"_collateralFactor","type":"uint256"},{"internalType":"uint256","name":"_liquidationBonus","type":"uint256"}],"name":"updateAssetConfig","outputs":[],"stateMutability":"nonpayable","type":"function"},{"inputs":[{"internalType":"address","name":"","type":"address"},{"internalType":"address","name":"","type":"address"}],"name":"userAccounts","outputs":[{"internalType":"uint256","name":"shares","type":"uint256"},{"internalType":"uint256","name":"borrowShares","type":"uint256"}],"stateMutability":"view","type":"function"},{"inputs":[{"internalType":"address","name":"_asset","type":"address"},{"internalType":"uint256","name":"_shares","type":"uint256"}],"name":"withdraw","outputs":[],"stateMutability":"nonpayable","type":"function"}],"evm":{"bytecode":{"linkReferences":{},"object":"60806040523480156200001157600080fd5b50604051620022be380380620022be833981016040819052620000349162000130565b806001600160a01b0381166200006457604051631e4fbdf760e01b81526000600482015260240160405180910390fd5b6200006f81620000c3565b50600180556001600160a01b0382166200009c5760405163d92e233d60e01b815260040160405180910390fd5b50600280546001600160a01b0319166001600160a01b039290921691909117905562000168565b600080546001600160a01b038381166001600160a01b0319831681178455604051919092169283917f8be0079c531659141344cd1fd0a4f28419497f9722a3daafe3b4186f6b6457e09190a35050565b80516001600160a01b03811681146200012b57600080fd5b919050565b600080604083850312156200014457600080fd5b6200014f8362000113565b91506200015f6020840162000113565b90509250929050565b61214680620001786000396000f3fe608060405234801561001057600080fd5b50600436106101215760003560e01c80637609d7f6116100ad578063ab78af6711610071578063ab78af6714610345578063d29b3cb114610358578063d7eb003a1461036b578063f2fde38b1461037e578063f3fef3a31461039157600080fd5b80637609d7f6146102275780638da5cb5b146102a957806398b3ed59146102ba578063a500ba7c146102cd578063aab3f8681461033257600080fd5b806349e826e6116100f457806349e826e6146101c55780634b8a3529146101e6578063530e784f146101f95780635ec88c791461020c578063715018a61461021f57600080fd5b806322867d78146101265780632630c12f1461013b5780632ff75c591461016b57806347e7ef24146101b2575b600080fd5b610139610134366004611de5565b6103a4565b005b60025461014e906001600160a01b031681565b6040516001600160a01b0390911681526020015b60405180910390f35b61019d610179366004611e0f565b60056020908152600092835260408084209091529082529020805460019091015482565b60408051928352602083019190915201610162565b6101396101c0366004611de5565b610591565b6101d86101d3366004611de5565b6106d1565b604051908152602001610162565b6101396101f4366004611de5565b6106ef565b610139610207366004611e42565b610a1e565b61019d61021a366004611e42565b610a97565b610139610aac565b610274610235366004611e42565b6003602081905260009182526040909120805460018201546002830154938301546004909301546001600160a01b039283169492909116929060ff1685565b604080516001600160a01b0396871681529590941660208601529284019190915260608301521515608082015260a001610162565b6000546001600160a01b031661014e565b6101d86102c8366004611de5565b610ac0565b61030a6102db366004611e42565b600660205260009081526040902080546001820154600283015460038401546004909401549293919290919085565b604080519586526020860194909452928401919091526060830152608082015260a001610162565b610139610340366004611e5d565b610ad5565b61014e610353366004611ea8565b610b1a565b610139610366366004611ec1565b610b44565b610139610379366004611f03565b610cd4565b61013961038c366004611e42565b610d7c565b61013961039f366004611de5565b610dbf565b6103ac610f7b565b6001600160a01b03821660009081526003602052604090206004015460ff166103e85760405163b77e1e0f60e01b815260040160405180910390fd5b8060000361040957604051631f2a200560e01b815260040160405180910390fd5b61041282610fa5565b3360009081526005602090815260408083206001600160a01b03861684528252808320600690925282206001820154919290919081900361049657604051600081526001600160a01b0386169033907f05f2eeda0e08e4b437f487c8d7d29b14537d15e3488170dc3de5dbdf8dac46849060200160405180910390a3505050610584565b60006104a28683611126565b90506000806000198714806104b75750828710155b156104c65750819050826104e1565b869150826104d48386611f4c565b6104de9190611f63565b90505b808660010160008282546104f59190611f85565b92505081905550818560010160008282546105109190611f85565b925050819055508085600201600082825461052b9190611f85565b9091555061053d9050883330856111fb565b6040518281526001600160a01b0389169033907f05f2eeda0e08e4b437f487c8d7d29b14537d15e3488170dc3de5dbdf8dac46849060200160405180910390a35050505050505b61058d60018055565b5050565b610599610f7b565b6001600160a01b03821660009081526003602052604090206004015460ff166105d55760405163b77e1e0f60e01b815260040160405180910390fd5b806000036105f657604051631f2a200560e01b815260040160405180910390fd5b6105ff82610fa5565b3360009081526005602090815260408083206001600160a01b038616845282528083206006909252822090916106358585611262565b90508083600001600082825461064b9190611f98565b9091555050815481908390600090610664908490611f98565b9091555061067f90506001600160a01b0386163330876111fb565b60408051858152602081018390526001600160a01b0387169133917fdcbc1c05240f31ff3ad067ef1ee35ce4997762752e3a095284754544f4c709d7910160405180910390a350505061058d60018055565b60006106dc83610fa5565b6106e68383611126565b90505b92915050565b6106f7610f7b565b6001600160a01b03821660009081526003602052604090206004015460ff166107335760405163b77e1e0f60e01b815260040160405180910390fd5b8060000361075457604051631f2a200560e01b815260040160405180910390fd5b61075d82610fa5565b60008061076933611324565b6002546040516341976e0960e01b81526001600160a01b03888116600483015293955091935060009216906341976e0990602401602060405180830381865afa1580156107ba573d6000803e3d6000fd5b505050506040513d601f19601f820116820180604052508101906107de9190611fab565b90506000856001600160a01b031663313ce5676040518163ffffffff1660e01b8152600401602060405180830381865afa158015610820573d6000803e3d6000fd5b505050506040513d601f19601f820116820180604052508101906108449190611fc4565b61084f90600a6120d2565b6108598387611f4c565b6108639190611f63565b9050836108708285611f98565b111561088f57604051633a23d82560e01b815260040160405180910390fd5b6040516370a0823160e01b815230600482015285906001600160a01b038816906370a0823190602401602060405180830381865afa1580156108d5573d6000803e3d6000fd5b505050506040513d601f19601f820116820180604052508101906108f99190611fab565b10156109185760405163bb55fd2760e01b815260040160405180910390fd5b60006109248787611262565b3360009081526005602090815260408083206001600160a01b038c16845290915281206001018054929350839290919061095f908490611f98565b90915550506001600160a01b0387166000908152600660205260408120600101805488929061098f908490611f98565b90915550506001600160a01b038716600090815260066020526040812060020180548392906109bf908490611f98565b909155506109d0905087338861166b565b6040518681526001600160a01b0388169033907f312a5e5e1079f5dda4e95dbbd0b908b291fd5b992ef22073643ab691572c5b529060200160405180910390a3505050505061058d60018055565b610a266116a1565b6001600160a01b038116610a4d5760405163d92e233d60e01b815260040160405180910390fd5b600280546001600160a01b0319166001600160a01b0383169081179091556040517fefe8ab924ca486283a79dc604baa67add51afb82af1db8ac386ebbba643cdffd90600090a250565b600080610aa383611324565b91509150915091565b610ab46116a1565b610abe60006116ce565b565b6000610acb83610fa5565b6106e68383611262565b610add610f7b565b610ae884848461171e565b600080610af7868686866117d9565b91509150610b09338787878686611a61565b5050610b1460018055565b50505050565b60048181548110610b2a57600080fd5b6000918252602090912001546001600160a01b0316905081565b610b4c6116a1565b6001600160a01b03841660009081526003602052604090206004015460ff1615610b895760405163a620d1e160e01b815260040160405180910390fd5b6001600160a01b0384161580610ba657506001600160a01b038316155b15610bc45760405163d92e233d60e01b815260040160405180910390fd5b6040805160a0810182526001600160a01b03868116808352868216602080850182815285870189815260608088018a8152600160808a01818152600089815260038089528d82209c518d546001600160a01b0319908116918e16919091178e5597518d850180548a1691909d1617909b55945160028c01559151988a0198909855516004988901805460ff1916911515919091179055875496870188559690527f8a35acfbc15ff81a39ae7d344fd709f28e8600b4aa8c65c6b64bfe7fe36bd19b9094018054909416831790935584519081529182018690529281018490527f118fa810d8fabcc6b2e10162f8fe68e43ecb99ee012745078a933d901c970ffd910160405180910390a250505050565b610cdc6116a1565b6001600160a01b03831660009081526003602052604090206004015460ff16610d185760405163b77e1e0f60e01b815260040160405180910390fd5b6001600160a01b0383166000818152600360208181526040928390206002810187905590910184905581518581529081018490527f6914ee2e02a37a312e7d04b6a20f6ecff93d21b1afcca29966fa4c0ddcf15519910160405180910390a2505050565b610d846116a1565b6001600160a01b038116610db357604051631e4fbdf760e01b8152600060048201526024015b60405180910390fd5b610dbc816116ce565b50565b610dc7610f7b565b6001600160a01b03821660009081526003602052604090206004015460ff16610e035760405163b77e1e0f60e01b815260040160405180910390fd5b80600003610e2457604051631f2a200560e01b815260040160405180910390fd5b610e2d82610fa5565b3360009081526005602090815260408083206001600160a01b038616845290915290208054821115610e7257604051633a23d82560e01b815260040160405180910390fd5b6000610e7e8484611126565b90506000610e8b33611324565b9150506000610eaa3387878760000154610ea59190611f85565b611c12565b905080821115610ecd57604051633a23d82560e01b815260040160405180910390fd5b84846000016000828254610ee19190611f85565b90915550506001600160a01b03861660009081526006602052604081208054879290610f0e908490611f85565b90915550610f2890506001600160a01b038716338561166b565b60408051848152602081018790526001600160a01b0388169133917ff341246adaac6f497bc2a656f546ab9e182111d630394f0c57c710a59a2cb567910160405180910390a35050505061058d60018055565b600260015403610f9e57604051633ee5aeb560e01b815260040160405180910390fd5b6002600155565b6001600160a01b038116600090815260066020526040812060038101549091819003610fce5750425b6000610fda8242611f85565b9050801580610feb57506001830154155b15610ffc5750504260039091015550565b600061100c858560000154611126565b90506000811561103e5781670de0b6b3a7640000866001015461102f9190611f4c565b6110399190611f63565b611041565b60005b6001600160a01b0387811660009081526003602052604080822060010154905163f71bd11b60e01b81526004810185905293945090911691829063f71bd11b90602401602060405180830381865afa1580156110a1573d6000803e3d6000fd5b505050506040513d601f19601f820116820180604052508101906110c59190611fab565b90506000670de0b6b3a764000086838a600101546110e39190611f4c565b6110ed9190611f4c565b6110f79190611f63565b90508088600101600082825461110d9190611f98565b9091555050426003909801979097555050505050505050565b6001600160a01b038216600081815260066020526040808220600480820154600183015493516370a0823160e01b81523092810192909252939491938593909290916370a0823190602401602060405180830381865afa15801561118e573d6000803e3d6000fd5b505050506040513d601f19601f820116820180604052508101906111b29190611fab565b6111bc9190611f98565b6111c69190611f85565b82549091506000036111dc5783925050506106e9565b81546111e88286611f4c565b6111f29190611f63565b95945050505050565b6040516001600160a01b038481166024830152838116604483015260648201839052610b149186918216906323b872dd906084015b604051602081830303815290604052915060e01b6020820180516001600160e01b038381831617835250505050611d58565b6001600160a01b038216600081815260066020526040808220600480820154600183015493516370a0823160e01b81523092810192909252939491938593909290916370a0823190602401602060405180830381865afa1580156112ca573d6000803e3d6000fd5b505050506040513d601f19601f820116820180604052508101906112ee9190611fab565b6112f89190611f98565b6113029190611f85565b9050806000036113165783925050506106e9565b815481906111e89086611f4c565b6004546000908190815b818110156116645760006004828154811061134b5761134b6120e1565b60009182526020808320909101546001600160a01b0390811680845260038084526040808620815160a08101835281548616815260018281015487168289015260028301548285015293820154606082015260049091015460ff1615156080820152938c16865260058552808620838752855294859020855180870190965280548652015492840192909252909250906113e483610fa5565b8051156115295760006113fb848360000151611126565b6002546040516341976e0960e01b81526001600160a01b038781166004830152929350600092909116906341976e0990602401602060405180830381865afa15801561144b573d6000803e3d6000fd5b505050506040513d601f19601f8201168201806040525081019061146f9190611fab565b90506000856001600160a01b031663313ce5676040518163ffffffff1660e01b8152600401602060405180830381865afa1580156114b1573d6000803e3d6000fd5b505050506040513d601f19601f820116820180604052508101906114d59190611fc4565b6114e090600a6120d2565b6114ea8385611f4c565b6114f49190611f63565b9050670de0b6b3a764000085604001518261150f9190611f4c565b6115199190611f63565b611523908b611f98565b99505050505b60208101511561164e576000611543848360200151611126565b6002546040516341976e0960e01b81526001600160a01b038781166004830152929350600092909116906341976e0990602401602060405180830381865afa158015611593573d6000803e3d6000fd5b505050506040513d601f19601f820116820180604052508101906115b79190611fab565b90506000856001600160a01b031663313ce5676040518163ffffffff1660e01b8152600401602060405180830381865afa1580156115f9573d6000803e3d6000fd5b505050506040513d601f19601f8201168201806040525081019061161d9190611fc4565b61162890600a6120d2565b6116328385611f4c565b61163c9190611f63565b9050611648818a611f98565b98505050505b505050808061165c906120f7565b91505061132e565b5050915091565b6040516001600160a01b0383811660248301526044820183905261169c91859182169063a9059cbb90606401611230565b505050565b6000546001600160a01b03163314610abe5760405163118cdaa760e01b8152336004820152602401610daa565b600080546001600160a01b038381166001600160a01b0319831681178455604051919092169283917f8be0079c531659141344cd1fd0a4f28419497f9722a3daafe3b4186f6b6457e09190a35050565b6001600160a01b03821660009081526003602052604090206004015460ff16158061176557506001600160a01b03811660009081526003602052604090206004015460ff16155b156117835760405163b77e1e0f60e01b815260040160405180910390fd5b61178c82610fa5565b61179581610fa5565b6000806117a185611324565b9150915080600014806117b45750808210155b156117d25760405163481f8f2f60e11b815260040160405180910390fd5b5050505050565b6001600160a01b038085166000908152600560209081526040808320938716835292905290812060018101548291908290611815908890611126565b905060001985036118285780935061183a565b8085116118355784611837565b805b93505b6002546040516341976e0960e01b81526001600160a01b03898116600483015260009216906341976e0990602401602060405180830381865afa158015611885573d6000803e3d6000fd5b505050506040513d601f19601f820116820180604052508101906118a99190611fab565b6002546040516341976e0960e01b81526001600160a01b038a81166004830152929350600092909116906341976e0990602401602060405180830381865afa1580156118f9573d6000803e3d6000fd5b505050506040513d601f19601f8201168201806040525081019061191d9190611fab565b90506000611933670de0b6b3a764000083611f4c565b6001600160a01b038b166000908152600360208190526040909120015461196290670de0b6b3a7640000611f98565b61196c858a611f4c565b6119769190611f4c565b6119809190611f63565b90506000670de0b6b3a76400008a6001600160a01b031663313ce5676040518163ffffffff1660e01b8152600401602060405180830381865afa1580156119cb573d6000803e3d6000fd5b505050506040513d601f19601f820116820180604052508101906119ef9190611fc4565b6119fa90600a6120d2565b611a049084611f4c565b611a0e9190611f63565b9050611a1a8a82611262565b6001600160a01b03808e166000908152600560209081526040808320938f16835292905220805491985090881115611a5157805497505b5050505050505094509492505050565b6001600160a01b03808616600090815260056020908152604080832093871683529290529081208054839290611a98908490611f85565b90915550506001600160a01b03808716600090815260056020908152604080832093871683529290529081208054839290611ad4908490611f98565b90915550506001600160a01b0380861660009081526005602090815260408083209388168352928152828220600690915291812060018301549091611b198883611126565b90506000818710611b2b575081611b43565b81611b368885611f4c565b611b409190611f63565b90505b80856001016000828254611b579190611f85565b9250508190555086846001016000828254611b729190611f85565b9250508190555080846002016000828254611b8d9190611f85565b90915550611b9f9050898c308a6111fb565b6000611bab8988611126565b604080516001600160a01b038d81168252602082018c9052918101839052919250808b16918d8216918f16907fac8bbd8fb7420b3123cf9e24d34551e40514ea69c5a1e97c10e513aaf06e7e429060600160405180910390a4505050505050505050505050565b6001600160a01b038216600090815260036020526040812081611c358585611126565b6002546040516341976e0960e01b81526001600160a01b038881166004830152929350600092909116906341976e0990602401602060405180830381865afa158015611c85573d6000803e3d6000fd5b505050506040513d601f19601f82011682018060405250810190611ca99190611fab565b9050856001600160a01b031663313ce5676040518163ffffffff1660e01b8152600401602060405180830381865afa158015611ce9573d6000803e3d6000fd5b505050506040513d601f19601f82011682018060405250810190611d0d9190611fc4565b611d1890600a6120d2565b611d2a90670de0b6b3a7640000611f4c565b6002840154611d398385611f4c565b611d439190611f4c565b611d4d9190611f63565b979650505050505050565b600080602060008451602086016000885af180611d7b576040513d6000823e3d81fd5b50506000513d91508115611d93578060011415611da0565b6001600160a01b0384163b155b15610b1457604051635274afe760e01b81526001600160a01b0385166004820152602401610daa565b80356001600160a01b0381168114611de057600080fd5b919050565b60008060408385031215611df857600080fd5b611e0183611dc9565b946020939093013593505050565b60008060408385031215611e2257600080fd5b611e2b83611dc9565b9150611e3960208401611dc9565b90509250929050565b600060208284031215611e5457600080fd5b6106e682611dc9565b60008060008060808587031215611e7357600080fd5b611e7c85611dc9565b9350611e8a60208601611dc9565b9250611e9860408601611dc9565b9396929550929360600135925050565b600060208284031215611eba57600080fd5b5035919050565b60008060008060808587031215611ed757600080fd5b611ee085611dc9565b9350611eee60208601611dc9565b93969395505050506040820135916060013590565b600080600060608486031215611f1857600080fd5b611f2184611dc9565b95602085013595506040909401359392505050565b634e487b7160e01b600052601160045260246000fd5b80820281158282048414176106e9576106e9611f36565b600082611f8057634e487b7160e01b600052601260045260246000fd5b500490565b818103818111156106e9576106e9611f36565b808201808211156106e9576106e9611f36565b600060208284031215611fbd57600080fd5b5051919050565b600060208284031215611fd657600080fd5b815160ff81168114611fe757600080fd5b9392505050565b600181815b8085111561202957816000190482111561200f5761200f611f36565b8085161561201c57918102915b93841c9390800290611ff3565b509250929050565b600082612040575060016106e9565b8161204d575060006106e9565b8160018114612063576002811461206d57612089565b60019150506106e9565b60ff84111561207e5761207e611f36565b50506001821b6106e9565b5060208310610133831016604e8410600b84101617156120ac575081810a6106e9565b6120b68383611fee565b80600019048211156120ca576120ca611f36565b029392505050565b60006106e660ff841683612031565b634e487b7160e01b600052603260045260246000fd5b60006001820161210957612109611f36565b506001019056fea26469706673582212209fcec90b810177fc2d09df4d8cf3b6676d3d83fb29e5edab39daf9b5a7cc27fb64736f6c63430008140033","opcodes":"PUSH1 0x80 PUSH1 0x40 MSTORE CALLVALUE DUP1 ISZERO PUSH3 0x11 JUMPI PUSH1 0x0 DUP1 REVERT JUMPDEST POP PUSH1 0x40 MLOAD PUSH3 0x22BE CODESIZE SUB DUP1 PUSH3 0x22BE DUP4 CODECOPY DUP2 ADD PUSH1 0x40 DUP2 SWAP1 MSTORE PUSH3 0x34 SWAP2 PUSH3 0x130 JUMP JUMPDEST DUP1 PUSH1 0x1 PUSH1 0x1 PUSH1 0xA0 SHL SUB DUP2 AND PUSH3 0x64 JUMPI PUSH1 0x40 MLOAD PUSH4 0x1E4FBDF7 PUSH1 0xE0 SHL DUP2 MSTORE PUSH1 0x0 PUSH1 0x4 DUP3 ADD MSTORE PUSH1 0x24 ADD PUSH1 0x40 MLOAD DUP1 SWAP2 SUB SWAP1 REVERT JUMPDEST PUSH3 0x6F DUP2 PUSH3 0xC3 JUMP JUMPDEST POP PUSH1 0x1 DUP1 SSTORE PUSH1 0x1 PUSH1 0x1 PUSH1 0xA0 SHL SUB DUP3 AND PUSH3 0x9C JUMPI PUSH1 0x40 MLOAD PUSH4 0xD92E233D PUSH1 0xE0 SHL DUP2 MSTORE PUSH1 0x4 ADD PUSH1 0x40 MLOAD DUP1 SWAP2 SUB SWAP1 REVERT JUMPDEST POP PUSH1 0x2 DUP1 SLOAD PUSH1 0x1 PUSH1 0x1 PUSH1 0xA0 SHL SUB NOT AND PUSH1 0x1 PUSH1 0x1 PUSH1 0xA0 SHL SUB SWAP3 SWAP1 SWAP3 AND SWAP2 SWAP1 SWAP2 OR SWAP1 SSTORE PUSH3 0x168 JUMP JUMPDEST PUSH1 0x0 DUP1 SLOAD PUSH1 0x1 PUSH1 0x1 PUSH1 0xA0 SHL SUB DUP4 DUP2 AND PUSH1 0x1 PUSH1 0x1 PUSH1 0xA0 SHL SUB NOT DUP4 AND DUP2 OR DUP5 SSTORE PUSH1 0x40 MLOAD SWAP2 SWAP1 SWAP3 AND SWAP3 DUP4 SWAP2 PUSH32 0x8BE0079C531659141344CD1FD0A4F28419497F9722A3DAAFE3B4186F6B6457E0 SWAP2 SWAP1 LOG3 POP POP JUMP JUMPDEST DUP1 MLOAD PUSH1 0x1 PUSH1 0x1 PUSH1 0xA0 SHL SUB DUP2 AND DUP2 EQ PUSH3 0x12B JUMPI PUSH1 0x0 DUP1 REVERT JUMPDEST SWAP2 SWAP1 POP JUMP JUMPDEST PUSH1 0x0 DUP1 PUSH1 0x40 DUP4 DUP6 SUB SLT ISZERO PUSH3 0x144 JUMPI PUSH1 0x0 DUP1 REVERT JUMPDEST PUSH3 0x14F DUP4 PUSH3 0x113 JUMP JUMPDEST SWAP2 POP PUSH3 0x15F PUSH1 0x20 DUP5 ADD PUSH3 0x113 JUMP JUMPDEST SWAP1 POP SWAP3 POP SWAP3 SWAP1 POP JUMP JUMPDEST PUSH2 0x2146 DUP1 PUSH3 0x178 PUSH1 0x0 CODECOPY PUSH1 0x0 RETURN INVALID PUSH1 0x80 PUSH1 0x40 MSTORE CALLVALUE DUP1 ISZERO PUSH2 0x10 JUMPI PUSH1 0x0 DUP1 REVERT JUMPDEST POP PUSH1 0x4 CALLDATASIZE LT PUSH2 0x121 JUMPI PUSH1 0x0 CALLDATALOAD PUSH1 0xE0 SHR DUP1 PUSH4 0x7609D7F6 GT PUSH2 0xAD JUMPI DUP1 PUSH4 0xAB78AF67 GT PUSH2 0x71 JUMPI DUP1 PUSH4 0xAB78AF67 EQ PUSH2 0x345 JUMPI DUP1 PUSH4 0xD29B3CB1 EQ PUSH2 0x358 JUMPI DUP1 PUSH4 0xD7EB003A EQ PUSH2 0x36B JUMPI DUP1 PUSH4 0xF2FDE38B EQ PUSH2 0x37E JUMPI DUP1 PUSH4 0xF3FEF3A3 EQ PUSH2 0x391 JUMPI PUSH1 0x0 DUP1 REVERT JUMPDEST DUP1 PUSH4 0x7609D7F6 EQ PUSH2 0x227 JUMPI DUP1 PUSH4 0x8DA5CB5B EQ PUSH2 0x2A9 JUMPI DUP1 PUSH4 0x98B3ED59 EQ PUSH2 0x2BA JUMPI DUP1 PUSH4 0xA500BA7C EQ PUSH2 0x2CD JUMPI DUP1 PUSH4 0xAAB3F868 EQ PUSH2 0x332 JUMPI PUSH1 0x0 DUP1 REVERT JUMPDEST DUP1 PUSH4 0x49E826E6 GT PUSH2 0xF4 JUMPI DUP1 PUSH4 0x49E826E6 EQ PUSH2 0x1C5 JUMPI DUP1 PUSH4 0x4B8A3529 EQ PUSH2 0x1E6 JUMPI DUP1 PUSH4 0x530E784F EQ PUSH2 0x1F9 JUMPI DUP1 PUSH4 0x5EC88C79 EQ PUSH2 0x20C JUMPI DUP1 PUSH4 0x715018A6 EQ PUSH2 0x21F JUMPI PUSH1 0x0 DUP1 REVERT JUMPDEST DUP1 PUSH4 0x22867D78 EQ PUSH2 0x126 JUMPI DUP1 PUSH4 0x2630C12F EQ PUSH2 0x13B JUMPI DUP1 PUSH4 0x2FF75C59 EQ PUSH2 0x16B JUMPI DUP1 PUSH4 0x47E7EF24 EQ PUSH2 0x1B2 JUMPI JUMPDEST PUSH1 0x0 DUP1 REVERT JUMPDEST PUSH2 0x139 PUSH2 0x134 CALLDATASIZE PUSH1 0x4 PUSH2 0x1DE5 JUMP JUMPDEST PUSH2 0x3A4 JUMP JUMPDEST STOP JUMPDEST PUSH1 0x2 SLOAD PUSH2 0x14E SWAP1 PUSH1 0x1 PUSH1 0x1 PUSH1 0xA0 SHL SUB AND DUP2 JUMP JUMPDEST PUSH1 0x40 MLOAD PUSH1 0x1 PUSH1 0x1 PUSH1 0xA0 SHL SUB SWAP1 SWAP2 AND DUP2 MSTORE PUSH1 0x20 ADD JUMPDEST PUSH1 0x40 MLOAD DUP1 SWAP2 SUB SWAP1 RETURN JUMPDEST PUSH2 0x19D PUSH2 0x179 CALLDATASIZE PUSH1 0x4 PUSH2 0x1E0F JUMP JUMPDEST PUSH1 0x5 PUSH1 0x20 SWAP1 DUP2 MSTORE PUSH1 0x0 SWAP3 DUP4 MSTORE PUSH1 0x40 DUP1 DUP5 KECCAK256 SWAP1 SWAP2 MSTORE SWAP1 DUP3 MSTORE SWAP1 KECCAK256 DUP1 SLOAD PUSH1 0x1 SWAP1 SWAP2 ADD SLOAD DUP3 JUMP JUMPDEST PUSH1 0x40 DUP1 MLOAD SWAP3 DUP4 MSTORE PUSH1 0x20 DUP4 ADD SWAP2 SWAP1 SWAP2 MSTORE ADD PUSH2 0x162 JUMP JUMPDEST PUSH2 0x139 PUSH2 0x1C0 CALLDATASIZE PUSH1 0x4 PUSH2 0x1DE5 JUMP JUMPDEST PUSH2 0x591 JUMP JUMPDEST PUSH2 0x1D8 PUSH2 0x1D3 CALLDATASIZE PUSH1 0x4 PUSH2 0x1DE5 JUMP JUMPDEST PUSH2 0x6D1 JUMP JUMPDEST PUSH1 0x40 MLOAD SWAP1 DUP2 MSTORE PUSH1 0x20 ADD PUSH2 0x162 JUMP JUMPDEST PUSH2 0x139 PUSH2 0x1F4 CALLDATASIZE PUSH1 0x4 PUSH2 0x1DE5 JUMP JUMPDEST PUSH2 0x6EF JUMP JUMPDEST PUSH2 0x139 PUSH2 0x207 CALLDATASIZE PUSH1 0x4 PUSH2 0x1E42 JUMP JUMPDEST PUSH2 0xA1E JUMP JUMPDEST PUSH2 0x19D PUSH2 0x21A CALLDATASIZE PUSH1 0x4 PUSH2 0x1E42 JUMP JUMPDEST PUSH2 0xA97 JUMP JUMPDEST PUSH2 0x139 PUSH2 0xAAC JUMP JUMPDEST PUSH2 0x274 PUSH2 0x235 CALLDATASIZE PUSH1 0x4 PUSH2 0x1E42 JUMP JUMPDEST PUSH1 0x3 PUSH1 0x20 DUP2 SWAP1 MSTORE PUSH1 0x0 SWAP2 DUP3 MSTORE PUSH1 0x40 SWAP1 SWAP2 KECCAK256 DUP1 SLOAD PUSH1 0x1 DUP3 ADD SLOAD PUSH1 0x2 DUP4 ADD SLOAD SWAP4 DUP4 ADD SLOAD PUSH1 0x4 SWAP1 SWAP4 ADD SLOAD PUSH1 0x1 PUSH1 0x1 PUSH1 0xA0 SHL SUB SWAP3 DUP4 AND SWAP5 SWAP3 SWAP1 SWAP2 AND SWAP3 SWAP1 PUSH1 0xFF AND DUP6 JUMP JUMPDEST PUSH1 0x40 DUP1 MLOAD PUSH1 0x1 PUSH1 0x1 PUSH1 0xA0 SHL SUB SWAP7 DUP8 AND DUP2 MSTORE SWAP6 SWAP1 SWAP5 AND PUSH1 0x20 DUP7 ADD MSTORE SWAP3 DUP5 ADD SWAP2 SWAP1 SWAP2 MSTORE PUSH1 0x60 DUP4 ADD MSTORE ISZERO ISZERO PUSH1 0x80 DUP3 ADD MSTORE PUSH1 0xA0 ADD PUSH2 0x162 JUMP JUMPDEST PUSH1 0x0 SLOAD PUSH1 0x1 PUSH1 0x1 PUSH1 0xA0 SHL SUB AND PUSH2 0x14E JUMP JUMPDEST PUSH2 0x1D8 PUSH2 0x2C8 CALLDATASIZE PUSH1 0x4 PUSH2 0x1DE5 JUMP JUMPDEST PUSH2 0xAC0 JUMP JUMPDEST PUSH2 0x30A PUSH2 0x2DB CALLDATASIZE PUSH1 0x4 PUSH2 0x1E42 JUMP JUMPDEST PUSH1 0x6 PUSH1 0x20 MSTORE PUSH1 0x0 SWAP1 DUP2 MSTORE PUSH1 0x40 SWAP1 KECCAK256 DUP1 SLOAD PUSH1 0x1 DUP3 ADD SLOAD PUSH1 0x2 DUP4 ADD SLOAD PUSH1 0x3 DUP5 ADD SLOAD PUSH1 0x4 SWAP1 SWAP5 ADD SLOAD SWAP3 SWAP4 SWAP2 SWAP3 SWAP1 SWAP2 SWAP1 DUP6 JUMP JUMPDEST PUSH1 0x40 DUP1 MLOAD SWAP6 DUP7 MSTORE PUSH1 0x20 DUP7 ADD SWAP5 SWAP1 SWAP5 MSTORE SWAP3 DUP5 ADD SWAP2 SWAP1 SWAP2 MSTORE PUSH1 0x60 DUP4 ADD MSTORE PUSH1 0x80 DUP3 ADD MSTORE PUSH1 0xA0 ADD PUSH2 0x162 JUMP JUMPDEST PUSH2 0x139 PUSH2 0x340 CALLDATASIZE PUSH1 0x4 PUSH2 0x1E5D JUMP JUMPDEST PUSH2 0xAD5 JUMP JUMPDEST PUSH2 0x14E PUSH2 0x353 CALLDATASIZE PUSH1 0x4 PUSH2 0x1EA8 JUMP JUMPDEST PUSH2 0xB1A JUMP JUMPDEST PUSH2 0x139 PUSH2 0x366 CALLDATASIZE PUSH1 0x4 PUSH2 0x1EC1 JUMP JUMPDEST PUSH2 0xB44 JUMP JUMPDEST PUSH2 0x139 PUSH2 0x379 CALLDATASIZE PUSH1 0x4 PUSH2 0x1F03 JUMP JUMPDEST PUSH2 0xCD4 JUMP JUMPDEST PUSH2 0x139 PUSH2 0x38C CALLDATASIZE PUSH1 0x4 PUSH2 0x1E42 JUMP JUMPDEST PUSH2 0xD7C JUMP JUMPDEST PUSH2 0x139 PUSH2 0x39F CALLDATASIZE PUSH1 0x4 PUSH2 0x1DE5 JUMP JUMPDEST PUSH2 0xDBF JUMP JUMPDEST PUSH2 0x3AC PUSH2 0xF7B JUMP JUMPDEST PUSH1 0x1 PUSH1 0x1 PUSH1 0xA0 SHL SUB DUP3 AND PUSH1 0x0 SWAP1 DUP2 MSTORE PUSH1 0x3 PUSH1 0x20 MSTORE PUSH1 0x40 SWAP1 KECCAK256 PUSH1 0x4 ADD SLOAD PUSH1 0xFF AND PUSH2 0x3E8 JUMPI PUSH1 0x40 MLOAD PUSH4 0xB77E1E0F PUSH1 0xE0 SHL DUP2 MSTORE PUSH1 0x4 ADD PUSH1 0x40 MLOAD DUP1 SWAP2 SUB SWAP1 REVERT JUMPDEST DUP1 PUSH1 0x0 SUB PUSH2 0x409 JUMPI PUSH1 0x40 MLOAD PUSH4 0x1F2A2005 PUSH1 0xE0 SHL DUP2 MSTORE PUSH1 0x4 ADD PUSH1 0x40 MLOAD DUP1 SWAP2 SUB SWAP1 REVERT JUMPDEST PUSH2 0x412 DUP3 PUSH2 0xFA5 JUMP JUMPDEST CALLER PUSH1 0x0 SWAP1 DUP2 MSTORE PUSH1 0x5 PUSH1 0x20 SWAP1 DUP2 MSTORE PUSH1 0x40 DUP1 DUP4 KECCAK256 PUSH1 0x1 PUSH1 0x1 PUSH1 0xA0 SHL SUB DUP7 AND DUP5 MSTORE DUP3 MSTORE DUP1 DUP4 KECCAK256 PUSH1 0x6 SWAP1 SWAP3 MSTORE DUP3 KECCAK256 PUSH1 0x1 DUP3 ADD SLOAD SWAP2 SWAP3 SWAP1 SWAP2 SWAP1 DUP2 SWAP1 SUB PUSH2 0x496 JUMPI PUSH1 0x40 MLOAD PUSH1 0x0 DUP2 MSTORE PUSH1 0x1 PUSH1 0x1 PUSH1 0xA0 SHL SUB DUP7 AND SWAP1 CALLER SWAP1 PUSH32 0x5F2EEDA0E08E4B437F487C8D7D29B14537D15E3488170DC3DE5DBDF8DAC4684 SWAP1 PUSH1 0x20 ADD PUSH1 0x40 MLOAD DUP1 SWAP2 SUB SWAP1 LOG3 POP POP POP PUSH2 0x584 JUMP JUMPDEST PUSH1 0x0 PUSH2 0x4A2 DUP7 DUP4 PUSH2 0x1126 JUMP JUMPDEST SWAP1 POP PUSH1 0x0 DUP1 PUSH1 0x0 NOT DUP8 EQ DUP1 PUSH2 0x4B7 JUMPI POP DUP3 DUP8 LT ISZERO JUMPDEST ISZERO PUSH2 0x4C6 JUMPI POP DUP2 SWAP1 POP DUP3 PUSH2 0x4E1 JUMP JUMPDEST DUP7 SWAP2 POP DUP3 PUSH2 0x4D4 DUP4 DUP7 PUSH2 0x1F4C JUMP JUMPDEST PUSH2 0x4DE SWAP2 SWAP1 PUSH2 0x1F63 JUMP JUMPDEST SWAP1 POP JUMPDEST DUP1 DUP7 PUSH1 0x1 ADD PUSH1 0x0 DUP3 DUP3 SLOAD PUSH2 0x4F5 SWAP2 SWAP1 PUSH2 0x1F85 JUMP JUMPDEST SWAP3 POP POP DUP2 SWAP1 SSTORE POP DUP2 DUP6 PUSH1 0x1 ADD PUSH1 0x0 DUP3 DUP3 SLOAD PUSH2 0x510 SWAP2 SWAP1 PUSH2 0x1F85 JUMP JUMPDEST SWAP3 POP POP DUP2 SWAP1 SSTORE POP DUP1 DUP6 PUSH1 0x2 ADD PUSH1 0x0 DUP3 DUP3 SLOAD PUSH2 0x52B SWAP2 SWAP1 PUSH2 0x1F85 JUMP JUMPDEST SWAP1 SWAP2 SSTORE POP PUSH2 0x53D SWAP1 POP DUP9 CALLER ADDRESS DUP6 PUSH2 0x11FB JUMP JUMPDEST PUSH1 0x40 MLOAD DUP3 DUP2 MSTORE PUSH1 0x1 PUSH1 0x1 PUSH1 0xA0 SHL SUB DUP10 AND SWAP1 CALLER SWAP1 PUSH32 0x5F2EEDA0E08E4B437F487C8D7D29B14537D15E3488170DC3DE5DBDF8DAC4684 SWAP1 PUSH1 0x20 ADD PUSH1 0x40 MLOAD DUP1 SWAP2 SUB SWAP1 LOG3 POP POP POP POP POP POP JUMPDEST PUSH2 0x58D PUSH1 0x1 DUP1 SSTORE JUMP JUMPDEST POP POP JUMP JUMPDEST PUSH2 0x599 PUSH2 0xF7B JUMP JUMPDEST PUSH1 0x1 PUSH1 0x1 PUSH1 0xA0 SHL SUB DUP3 AND PUSH1 0x0 SWAP1 DUP2 MSTORE PUSH1 0x3 PUSH1 0x20 MSTORE PUSH1 0x40 SWAP1 KECCAK256 PUSH1 0x4 ADD SLOAD PUSH1 0xFF AND PUSH2 0x5D5 JUMPI PUSH1 0x40 MLOAD PUSH4 0xB77E1E0F PUSH1 0xE0 SHL DUP2 MSTORE PUSH1 0x4 ADD PUSH1 0x40 MLOAD DUP1 SWAP2 SUB SWAP1 REVERT JUMPDEST DUP1 PUSH1 0x0 SUB PUSH2 0x5F6 JUMPI PUSH1 0x40 MLOAD PUSH4 0x1F2A2005 PUSH1 0xE0 SHL DUP2 MSTORE PUSH1 0x4 ADD PUSH1 0x40 MLOAD DUP1 SWAP2 SUB SWAP1 REVERT JUMPDEST PUSH2 0x5FF DUP3 PUSH2 0xFA5 JUMP JUMPDEST CALLER PUSH1 0x0 SWAP1 DUP2 MSTORE PUSH1 0x5 PUSH1 0x20 SWAP1 DUP2 MSTORE PUSH1 0x40 DUP1 DUP4 KECCAK256 PUSH1 0x1 PUSH1 0x1 PUSH1 0xA0 SHL SUB DUP7 AND DUP5 MSTORE DUP3 MSTORE DUP1 DUP4 KECCAK256 PUSH1 0x6 SWAP1 SWAP3 MSTORE DUP3 KECCAK256 SWAP1 SWAP2 PUSH2 0x635 DUP6 DUP6 PUSH2 0x1262 JUMP JUMPDEST SWAP1 POP DUP1 DUP4 PUSH1 0x0 ADD PUSH1 0x0 DUP3 DUP3 SLOAD PUSH2 0x64B SWAP2 SWAP1 PUSH2 0x1F98 JUMP JUMPDEST SWAP1 SWAP2 SSTORE POP POP DUP2 SLOAD DUP2 SWAP1 DUP4 SWAP1 PUSH1 0x0 SWAP1 PUSH2 0x664 SWAP1 DUP5 SWAP1 PUSH2 0x1F98 JUMP JUMPDEST SWAP1 SWAP2 SSTORE POP PUSH2 0x67F SWAP1 POP PUSH1 0x1 PUSH1 0x1 PUSH1 0xA0 SHL SUB DUP7 AND CALLER ADDRESS DUP8 PUSH2 0x11FB JUMP JUMPDEST PUSH1 0x40 DUP1 MLOAD DUP6 DUP2 MSTORE PUSH1 0x20 DUP2 ADD DUP4 SWAP1 MSTORE PUSH1 0x1 PUSH1 0x1 PUSH1 0xA0 SHL SUB DUP8 AND SWAP2 CALLER SWAP2 PUSH32 0xDCBC1C05240F31FF3AD067EF1EE35CE4997762752E3A095284754544F4C709D7 SWAP2 ADD PUSH1 0x40 MLOAD DUP1 SWAP2 SUB SWAP1 LOG3 POP POP POP PUSH2 0x58D PUSH1 0x1 DUP1 SSTORE JUMP JUMPDEST PUSH1 0x0 PUSH2 0x6DC DUP4 PUSH2 0xFA5 JUMP JUMPDEST PUSH2 0x6E6 DUP4 DUP4 PUSH2 0x1126 JUMP JUMPDEST SWAP1 POP JUMPDEST SWAP3 SWAP2 POP POP JUMP JUMPDEST PUSH2 0x6F7 PUSH2 0xF7B JUMP JUMPDEST PUSH1 0x1 PUSH1 0x1 PUSH1 0xA0 SHL SUB DUP3 AND PUSH1 0x0 SWAP1 DUP2 MSTORE PUSH1 0x3 PUSH1 0x20 MSTORE PUSH1 0x40 SWAP1 KECCAK256 PUSH1 0x4 ADD SLOAD PUSH1 0xFF AND PUSH2 0x733 JUMPI PUSH1 0x40 MLOAD PUSH4 0xB77E1E0F PUSH1 0xE0 SHL DUP2 MSTORE PUSH1 0x4 ADD PUSH1 0x40 MLOAD DUP1 SWAP2 SUB SWAP1 REVERT JUMPDEST DUP1 PUSH1 0x0 SUB PUSH2 0x754 JUMPI PUSH1 0x40 MLOAD PUSH4 0x1F2A2005 PUSH1 0xE0 SHL DUP2 MSTORE PUSH1 0x4 ADD PUSH1 0x40 MLOAD DUP1 SWAP2 SUB SWAP1 REVERT JUMPDEST PUSH2 0x75D DUP3 PUSH2 0xFA5 JUMP JUMPDEST PUSH1 0x0 DUP1 PUSH2 0x769 CALLER PUSH2 0x1324 JUMP JUMPDEST PUSH1 0x2 SLOAD PUSH1 0x40 MLOAD PUSH4 0x41976E09 PUSH1 0xE0 SHL DUP2 MSTORE PUSH1 0x1 PUSH1 0x1 PUSH1 0xA0 SHL SUB DUP9 DUP2 AND PUSH1 0x4 DUP4 ADD MSTORE SWAP4 SWAP6 POP SWAP2 SWAP4 POP PUSH1 0x0 SWAP3 AND SWAP1 PUSH4 0x41976E09 SWAP1 PUSH1 0x24 ADD PUSH1 0x20 PUSH1 0x40 MLOAD DUP1 DUP4 SUB DUP2 DUP7 GAS STATICCALL ISZERO DUP1 ISZERO PUSH2 0x7BA JUMPI RETURNDATASIZE PUSH1 0x0 DUP1 RETURNDATACOPY RETURNDATASIZE PUSH1 0x0 REVERT JUMPDEST POP POP POP POP PUSH1 0x40 MLOAD RETURNDATASIZE PUSH1 0x1F NOT PUSH1 0x1F DUP3 ADD AND DUP3 ADD DUP1 PUSH1 0x40 MSTORE POP DUP2 ADD SWAP1 PUSH2 0x7DE SWAP2 SWAP1 PUSH2 0x1FAB JUMP JUMPDEST SWAP1 POP PUSH1 0x0 DUP6 PUSH1 0x1 PUSH1 0x1 PUSH1 0xA0 SHL SUB AND PUSH4 0x313CE567 PUSH1 0x40 MLOAD DUP2 PUSH4 0xFFFFFFFF AND PUSH1 0xE0 SHL DUP2 MSTORE PUSH1 0x4 ADD PUSH1 0x20 PUSH1 0x40 MLOAD DUP1 DUP4 SUB DUP2 DUP7 GAS STATICCALL ISZERO DUP1 ISZERO PUSH2 0x820 JUMPI RETURNDATASIZE PUSH1 0x0 DUP1 RETURNDATACOPY RETURNDATASIZE PUSH1 0x0 REVERT JUMPDEST POP POP POP POP PUSH1 0x40 MLOAD RETURNDATASIZE PUSH1 0x1F NOT PUSH1 0x1F DUP3 ADD AND DUP3 ADD DUP1 PUSH1 0x40 MSTORE POP DUP2 ADD SWAP1 PUSH2 0x844 SWAP2 SWAP1 PUSH2 0x1FC4 JUMP JUMPDEST PUSH2 0x84F SWAP1 PUSH1 0xA PUSH2 0x20D2 JUMP JUMPDEST PUSH2 0x859 DUP4 DUP8 PUSH2 0x1F4C JUMP JUMPDEST PUSH2 0x863 SWAP2 SWAP1 PUSH2 0x1F63 JUMP JUMPDEST SWAP1 POP DUP4 PUSH2 0x870 DUP3 DUP6 PUSH2 0x1F98 JUMP JUMPDEST GT ISZERO PUSH2 0x88F JUMPI PUSH1 0x40 MLOAD PUSH4 0x3A23D825 PUSH1 0xE0 SHL DUP2 MSTORE PUSH1 0x4 ADD PUSH1 0x40 MLOAD DUP1 SWAP2 SUB SWAP1 REVERT JUMPDEST PUSH1 0x40 MLOAD PUSH4 0x70A08231 PUSH1 0xE0 SHL DUP2 MSTORE ADDRESS PUSH1 0x4 DUP3 ADD MSTORE DUP6 SWAP1 PUSH1 0x1 PUSH1 0x1 PUSH1 0xA0 SHL SUB DUP9 AND SWAP1 PUSH4 0x70A08231 SWAP1 PUSH1 0x24 ADD PUSH1 0x20 PUSH1 0x40 MLOAD DUP1 DUP4 SUB DUP2 DUP7 GAS STATICCALL ISZERO DUP1 ISZERO PUSH2 0x8D5 JUMPI RETURNDATASIZE PUSH1 0x0 DUP1 RETURNDATACOPY RETURNDATASIZE PUSH1 0x0 REVERT JUMPDEST POP POP POP POP PUSH1 0x40 MLOAD RETURNDATASIZE PUSH1 0x1F NOT PUSH1 0x1F DUP3 ADD AND DUP3 ADD DUP1 PUSH1 0x40 MSTORE POP DUP2 ADD SWAP1 PUSH2 0x8F9 SWAP2 SWAP1 PUSH2 0x1FAB JUMP JUMPDEST LT ISZERO PUSH2 0x918 JUMPI PUSH1 0x40 MLOAD PUSH4 0xBB55FD27 PUSH1 0xE0 SHL DUP2 MSTORE PUSH1 0x4 ADD PUSH1 0x40 MLOAD DUP1 SWAP2 SUB SWAP1 REVERT JUMPDEST PUSH1 0x0 PUSH2 0x924 DUP8 DUP8 PUSH2 0x1262 JUMP JUMPDEST CALLER PUSH1 0x0 SWAP1 DUP2 MSTORE PUSH1 0x5 PUSH1 0x20 SWAP1 DUP2 MSTORE PUSH1 0x40 DUP1 DUP4 KECCAK256 PUSH1 0x1 PUSH1 0x1 PUSH1 0xA0 SHL SUB DUP13 AND DUP5 MSTORE SWAP1 SWAP2 MSTORE DUP2 KECCAK256 PUSH1 0x1 ADD DUP1 SLOAD SWAP3 SWAP4 POP DUP4 SWAP3 SWAP1 SWAP2 SWAP1 PUSH2 0x95F SWAP1 DUP5 SWAP1 PUSH2 0x1F98 JUMP JUMPDEST SWAP1 SWAP2 SSTORE POP POP PUSH1 0x1 PUSH1 0x1 PUSH1 0xA0 SHL SUB DUP8 AND PUSH1 0x0 SWAP1 DUP2 MSTORE PUSH1 0x6 PUSH1 0x20 MSTORE PUSH1 0x40 DUP2 KECCAK256 PUSH1 0x1 ADD DUP1 SLOAD DUP9 SWAP3 SWAP1 PUSH2 0x98F SWAP1 DUP5 SWAP1 PUSH2 0x1F98 JUMP JUMPDEST SWAP1 SWAP2 SSTORE POP POP PUSH1 0x1 PUSH1 0x1 PUSH1 0xA0 SHL SUB DUP8 AND PUSH1 0x0 SWAP1 DUP2 MSTORE PUSH1 0x6 PUSH1 0x20 MSTORE PUSH1 0x40 DUP2 KECCAK256 PUSH1 0x2 ADD DUP1 SLOAD DUP4 SWAP3 SWAP1 PUSH2 0x9BF SWAP1 DUP5 SWAP1 PUSH2 0x1F98 JUMP JUMPDEST SWAP1 SWAP2 SSTORE POP PUSH2 0x9D0 SWAP1 POP DUP8 CALLER DUP9 PUSH2 0x166B JUMP JUMPDEST PUSH1 0x40 MLOAD DUP7 DUP2 MSTORE PUSH1 0x1 PUSH1 0x1 PUSH1 0xA0 SHL SUB DUP9 AND SWAP1 CALLER SWAP1 PUSH32 0x312A5E5E1079F5DDA4E95DBBD0B908B291FD5B992EF22073643AB691572C5B52 SWAP1 PUSH1 0x20 ADD PUSH1 0x40 MLOAD DUP1 SWAP2 SUB SWAP1 LOG3 POP POP POP POP POP PUSH2 0x58D PUSH1 0x1 DUP1 SSTORE JUMP JUMPDEST PUSH2 0xA26 PUSH2 0x16A1 JUMP JUMPDEST PUSH1 0x1 PUSH1 0x1 PUSH1 0xA0 SHL SUB DUP2 AND PUSH2 0xA4D JUMPI PUSH1 0x40 MLOAD PUSH4 0xD92E233D PUSH1 0xE0 SHL DUP2 MSTORE PUSH1 0x4 ADD PUSH1 0x40 MLOAD DUP1 SWAP2 SUB SWAP1 REVERT JUMPDEST PUSH1 0x2 DUP1 SLOAD PUSH1 0x1 PUSH1 0x1 PUSH1 0xA0 SHL SUB NOT AND PUSH1 0x1 PUSH1 0x1 PUSH1 0xA0 SHL SUB DUP4 AND SWAP1 DUP2 OR SWAP1 SWAP2 SSTORE PUSH1 0x40 MLOAD PUSH32 0xEFE8AB924CA486283A79DC604BAA67ADD51AFB82AF1DB8AC386EBBBA643CDFFD SWAP1 PUSH1 0x0 SWAP1 LOG2 POP JUMP JUMPDEST PUSH1 0x0 DUP1 PUSH2 0xAA3 DUP4 PUSH2 0x1324 JUMP JUMPDEST SWAP2 POP SWAP2 POP SWAP2 POP SWAP2 JUMP JUMPDEST PUSH2 0xAB4 PUSH2 0x16A1 JUMP JUMPDEST PUSH2 0xABE PUSH1 0x0 PUSH2 0x16CE JUMP JUMPDEST JUMP JUMPDEST PUSH1 0x0 PUSH2 0xACB DUP4 PUSH2 0xFA5 JUMP JUMPDEST PUSH2 0x6E6 DUP4 DUP4 PUSH2 0x1262 JUMP JUMPDEST PUSH2 0xADD PUSH2 0xF7B JUMP JUMPDEST PUSH2 0xAE8 DUP5 DUP5 DUP5 PUSH2 0x171E JUMP JUMPDEST PUSH1 0x0 DUP1 PUSH2 0xAF7 DUP7 DUP7 DUP7 DUP7 PUSH2 0x17D9 JUMP JUMPDEST SWAP2 POP SWAP2 POP PUSH2 0xB09 CALLER DUP8 DUP8 DUP8 DUP7 DUP7 PUSH2 0x1A61 JUMP JUMPDEST POP POP PUSH2 0xB14 PUSH1 0x1 DUP1 SSTORE JUMP JUMPDEST POP POP POP POP JUMP JUMPDEST PUSH1 0x4 DUP2 DUP2 SLOAD DUP2 LT PUSH2 0xB2A JUMPI PUSH1 0x0 DUP1 REVERT JUMPDEST PUSH1 0x0 SWAP2 DUP3 MSTORE PUSH1 0x20 SWAP1 SWAP2 KECCAK256 ADD SLOAD PUSH1 0x1 PUSH1 0x1 PUSH1 0xA0 SHL SUB AND SWAP1 POP DUP2 JUMP JUMPDEST PUSH2 0xB4C PUSH2 0x16A1 JUMP JUMPDEST PUSH1 0x1 PUSH1 0x1 PUSH1 0xA0 SHL SUB DUP5 AND PUSH1 0x0 SWAP1 DUP2 MSTORE PUSH1 0x3 PUSH1 0x20 MSTORE PUSH1 0x40 SWAP1 KECCAK256 PUSH1 0x4 ADD SLOAD PUSH1 0xFF AND ISZERO PUSH2 0xB89 JUMPI PUSH1 0x40 MLOAD PUSH4 0xA620D1E1 PUSH1 0xE0 SHL DUP2 MSTORE PUSH1 0x4 ADD PUSH1 0x40 MLOAD DUP1 SWAP2 SUB SWAP1 REVERT JUMPDEST PUSH1 0x1 PUSH1 0x1 PUSH1 0xA0 SHL SUB DUP5 AND ISZERO DUP1 PUSH2 0xBA6 JUMPI POP PUSH1 0x1 PUSH1 0x1 PUSH1 0xA0 SHL SUB DUP4 AND ISZERO JUMPDEST ISZERO PUSH2 0xBC4 JUMPI PUSH1 0x40 MLOAD PUSH4 0xD92E233D PUSH1 0xE0 SHL DUP2 MSTORE PUSH1 0x4 ADD PUSH1 0x40 MLOAD DUP1 SWAP2 SUB SWAP1 REVERT JUMPDEST PUSH1 0x40 DUP1 MLOAD PUSH1 0xA0 DUP2 ADD DUP3 MSTORE PUSH1 0x1 PUSH1 0x1 PUSH1 0xA0 SHL SUB DUP7 DUP2 AND DUP1 DUP4 MSTORE DUP7 DUP3 AND PUSH1 0x20 DUP1 DUP6 ADD DUP3 DUP2 MSTORE DUP6 DUP8 ADD DUP10 DUP2 MSTORE PUSH1 0x60 DUP1 DUP9 ADD DUP11 DUP2 MSTORE PUSH1 0x1 PUSH1 0x80 DUP11 ADD DUP2 DUP2 MSTORE PUSH1 0x0 DUP10 DUP2 MSTORE PUSH1 0x3 DUP1 DUP10 MSTORE DUP14 DUP3 KECCAK256 SWAP13 MLOAD DUP14 SLOAD PUSH1 0x1 PUSH1 0x1 PUSH1 0xA0 SHL SUB NOT SWAP1 DUP2 AND SWAP2 DUP15 AND SWAP2 SWAP1 SWAP2 OR DUP15 SSTORE SWAP8 MLOAD DUP14 DUP6 ADD DUP1 SLOAD DUP11 AND SWAP2 SWAP1 SWAP14 AND OR SWAP1 SWAP12 SSTORE SWAP5 MLOAD PUSH1 0x2 DUP13 ADD SSTORE SWAP2 MLOAD SWAP9 DUP11 ADD SWAP9 SWAP1 SWAP9 SSTORE MLOAD PUSH1 0x4 SWAP9 DUP10 ADD DUP1 SLOAD PUSH1 0xFF NOT AND SWAP2 ISZERO ISZERO SWAP2 SWAP1 SWAP2 OR SWAP1 SSTORE DUP8 SLOAD SWAP7 DUP8 ADD DUP9 SSTORE SWAP7 SWAP1 MSTORE PUSH32 0x8A35ACFBC15FF81A39AE7D344FD709F28E8600B4AA8C65C6B64BFE7FE36BD19B SWAP1 SWAP5 ADD DUP1 SLOAD SWAP1 SWAP5 AND DUP4 OR SWAP1 SWAP4 SSTORE DUP5 MLOAD SWAP1 DUP2 MSTORE SWAP2 DUP3 ADD DUP7 SWAP1 MSTORE SWAP3 DUP2 ADD DUP5 SWAP1 MSTORE PUSH32 0x118FA810D8FABCC6B2E10162F8FE68E43ECB99EE012745078A933D901C970FFD SWAP2 ADD PUSH1 0x40 MLOAD DUP1 SWAP2 SUB SWAP1 LOG2 POP POP POP POP JUMP JUMPDEST PUSH2 0xCDC PUSH2 0x16A1 JUMP JUMPDEST PUSH1 0x1 PUSH1 0x1 PUSH1 0xA0 SHL SUB DUP4 AND PUSH1 0x0 SWAP1 DUP2 MSTORE PUSH1 0x3 PUSH1 0x20 MSTORE PUSH1 0x40 SWAP1 KECCAK256 PUSH1 0x4 ADD SLOAD PUSH1 0xFF AND PUSH2 0xD18 JUMPI PUSH1 0x40 MLOAD PUSH4 0xB77E1E0F PUSH1 0xE0 SHL DUP2 MSTORE PUSH1 0x4 ADD PUSH1 0x40 MLOAD DUP1 SWAP2 SUB SWAP1 REVERT JUMPDEST PUSH1 0x1 PUSH1 0x1 PUSH1 0xA0 SHL SUB DUP4 AND PUSH1 0x0 DUP2 DUP2 MSTORE PUSH1 0x3 PUSH1 0x20 DUP2 DUP2 MSTORE PUSH1 0x40 SWAP3 DUP4 SWAP1 KECCAK256 PUSH1 0x2 DUP2 ADD DUP8 SWAP1 SSTORE SWAP1 SWAP2 ADD DUP5 SWAP1 SSTORE DUP2 MLOAD DUP6 DUP2 MSTORE SWAP1 DUP2 ADD DUP5 SWAP1 MSTORE PUSH32 0x6914EE2E02A37A312E7D04B6A20F6ECFF93D21B1AFCCA29966FA4C0DDCF15519 SWAP2 ADD PUSH1 0x40 MLOAD DUP1 SWAP2 SUB SWAP1 LOG2 POP POP POP JUMP JUMPDEST PUSH2 0xD84 PUSH2 0x16A1 JUMP JUMPDEST PUSH1 0x1 PUSH1 0x1 PUSH1 0xA0 SHL SUB DUP2 AND PUSH2 0xDB3 JUMPI PUSH1 0x40 MLOAD PUSH4 0x1E4FBDF7 PUSH1 0xE0 SHL DUP2 MSTORE PUSH1 0x0 PUSH1 0x4 DUP3 ADD MSTORE PUSH1 0x24 ADD JUMPDEST PUSH1 0x40 MLOAD DUP1 SWAP2 SUB SWAP1 REVERT JUMPDEST PUSH2 0xDBC DUP2 PUSH2 0x16CE JUMP JUMPDEST POP JUMP JUMPDEST PUSH2 0xDC7 PUSH2 0xF7B JUMP JUMPDEST PUSH1 0x1 PUSH1 0x1 PUSH1 0xA0 SHL SUB DUP3 AND PUSH1 0x0 SWAP1 DUP2 MSTORE PUSH1 0x3 PUSH1 0x20 MSTORE PUSH1 0x40 SWAP1 KECCAK256 PUSH1 0x4 ADD SLOAD PUSH1 0xFF AND PUSH2 0xE03 JUMPI PUSH1 0x40 MLOAD PUSH4 0xB77E1E0F PUSH1 0xE0 SHL DUP2 MSTORE PUSH1 0x4 ADD PUSH1 0x40 MLOAD DUP1 SWAP2 SUB SWAP1 REVERT JUMPDEST DUP1 PUSH1 0x0 SUB PUSH2 0xE24 JUMPI PUSH1 0x40 MLOAD PUSH4 0x1F2A2005 PUSH1 0xE0 SHL DUP2 MSTORE PUSH1 0x4 ADD PUSH1 0x40 MLOAD DUP1 SWAP2 SUB SWAP1 REVERT JUMPDEST PUSH2 0xE2D DUP3 PUSH2 0xFA5 JUMP JUMPDEST CALLER PUSH1 0x0 SWAP1 DUP2 MSTORE PUSH1 0x5 PUSH1 0x20 SWAP1 DUP2 MSTORE PUSH1 0x40 DUP1 DUP4 KECCAK256 PUSH1 0x1 PUSH1 0x1 PUSH1 0xA0 SHL SUB DUP7 AND DUP5 MSTORE SWAP1 SWAP2 MSTORE SWAP1 KECCAK256 DUP1 SLOAD DUP3 GT ISZERO PUSH2 0xE72 JUMPI PUSH1 0x40 MLOAD PUSH4 0x3A23D825 PUSH1 0xE0 SHL DUP2 MSTORE PUSH1 0x4 ADD PUSH1 0x40 MLOAD DUP1 SWAP2 SUB SWAP1 REVERT JUMPDEST PUSH1 0x0 PUSH2 0xE7E DUP5 DUP5 PUSH2 0x1126 JUMP JUMPDEST SWAP1 POP PUSH1 0x0 PUSH2 0xE8B CALLER PUSH2 0x1324 JUMP JUMPDEST SWAP2 POP POP PUSH1 0x0 PUSH2 0xEAA CALLER DUP8 DUP8 DUP8 PUSH1 0x0 ADD SLOAD PUSH2 0xEA5 SWAP2 SWAP1 PUSH2 0x1F85 JUMP JUMPDEST PUSH2 0x1C12 JUMP JUMPDEST SWAP1 POP DUP1 DUP3 GT ISZERO PUSH2 0xECD JUMPI PUSH1 0x40 MLOAD PUSH4 0x3A23D825 PUSH1 0xE0 SHL DUP2 MSTORE PUSH1 0x4 ADD PUSH1 0x40 MLOAD DUP1 SWAP2 SUB SWAP1 REVERT JUMPDEST DUP5 DUP5 PUSH1 0x0 ADD PUSH1 0x0 DUP3 DUP3 SLOAD PUSH2 0xEE1 SWAP2 SWAP1 PUSH2 0x1F85 JUMP JUMPDEST SWAP1 SWAP2 SSTORE POP POP PUSH1 0x1 PUSH1 0x1 PUSH1 0xA0 SHL SUB DUP7 AND PUSH1 0x0 SWAP1 DUP2 MSTORE PUSH1 0x6 PUSH1 0x20 MSTORE PUSH1 0x40 DUP2 KECCAK256 DUP1 SLOAD DUP8 SWAP3 SWAP1 PUSH2 0xF0E SWAP1 DUP5 SWAP1 PUSH2 0x1F85 JUMP JUMPDEST SWAP1 SWAP2 SSTORE POP PUSH2 0xF28 SWAP1 POP PUSH1 0x1 PUSH1 0x1 PUSH1 0xA0 SHL SUB DUP8 AND CALLER DUP6 PUSH2 0x166B JUMP JUMPDEST PUSH1 0x40 DUP1 MLOAD DUP5 DUP2 MSTORE PUSH1 0x20 DUP2 ADD DUP8 SWAP1 MSTORE PUSH1 0x1 PUSH1 0x1 PUSH1 0xA0 SHL SUB DUP9 AND SWAP2 CALLER SWAP2 PUSH32 0xF341246ADAAC6F497BC2A656F546AB9E182111D630394F0C57C710A59A2CB567 SWAP2 ADD PUSH1 0x40 MLOAD DUP1 SWAP2 SUB SWAP1 LOG3 POP POP POP POP PUSH2 0x58D PUSH1 0x1 DUP1 SSTORE JUMP JUMPDEST PUSH1 0x2 PUSH1 0x1 SLOAD SUB PUSH2 0xF9E JUMPI PUSH1 0x40 MLOAD PUSH4 0x3EE5AEB5 PUSH1 0xE0 SHL DUP2 MSTORE PUSH1 0x4 ADD PUSH1 0x40 MLOAD DUP1 SWAP2 SUB SWAP1 REVERT JUMPDEST PUSH1 0x2 PUSH1 0x1 SSTORE JUMP JUMPDEST PUSH1 0x1 PUSH1 0x1 PUSH1 0xA0 SHL SUB DUP2 AND PUSH1 0x0 SWAP1 DUP2 MSTORE PUSH1 0x6 PUSH1 0x20 MSTORE PUSH1 0x40 DUP2 KECCAK256 PUSH1 0x3 DUP2 ADD SLOAD SWAP1 SWAP2 DUP2 SWAP1 SUB PUSH2 0xFCE JUMPI POP TIMESTAMP JUMPDEST PUSH1 0x0 PUSH2 0xFDA DUP3 TIMESTAMP PUSH2 0x1F85 JUMP JUMPDEST SWAP1 POP DUP1 ISZERO DUP1 PUSH2 0xFEB JUMPI POP PUSH1 0x1 DUP4 ADD SLOAD ISZERO JUMPDEST ISZERO PUSH2 0xFFC JUMPI POP POP TIMESTAMP PUSH1 0x3 SWAP1 SWAP2 ADD SSTORE POP JUMP JUMPDEST PUSH1 0x0 PUSH2 0x100C DUP6 DUP6 PUSH1 0x0 ADD SLOAD PUSH2 0x1126 JUMP JUMPDEST SWAP1 POP PUSH1 0x0 DUP2 ISZERO PUSH2 0x103E JUMPI DUP2 PUSH8 0xDE0B6B3A7640000 DUP7 PUSH1 0x1 ADD SLOAD PUSH2 0x102F SWAP2 SWAP1 PUSH2 0x1F4C JUMP JUMPDEST PUSH2 0x1039 SWAP2 SWAP1 PUSH2 0x1F63 JUMP JUMPDEST PUSH2 0x1041 JUMP JUMPDEST PUSH1 0x0 JUMPDEST PUSH1 0x1 PUSH1 0x1 PUSH1 0xA0 SHL SUB DUP8 DUP2 AND PUSH1 0x0 SWAP1 DUP2 MSTORE PUSH1 0x3 PUSH1 0x20 MSTORE PUSH1 0x40 DUP1 DUP3 KECCAK256 PUSH1 0x1 ADD SLOAD SWAP1 MLOAD PUSH4 0xF71BD11B PUSH1 0xE0 SHL DUP2 MSTORE PUSH1 0x4 DUP2 ADD DUP6 SWAP1 MSTORE SWAP4 SWAP5 POP SWAP1 SWAP2 AND SWAP2 DUP3 SWAP1 PUSH4 0xF71BD11B SWAP1 PUSH1 0x24 ADD PUSH1 0x20 PUSH1 0x40 MLOAD DUP1 DUP4 SUB DUP2 DUP7 GAS STATICCALL ISZERO DUP1 ISZERO PUSH2 0x10A1 JUMPI RETURNDATASIZE PUSH1 0x0 DUP1 RETURNDATACOPY RETURNDATASIZE PUSH1 0x0 REVERT JUMPDEST POP POP POP POP PUSH1 0x40 MLOAD RETURNDATASIZE PUSH1 0x1F NOT PUSH1 0x1F DUP3 ADD AND DUP3 ADD DUP1 PUSH1 0x40 MSTORE POP DUP2 ADD SWAP1 PUSH2 0x10C5 SWAP2 SWAP1 PUSH2 0x1FAB JUMP JUMPDEST SWAP1 POP PUSH1 0x0 PUSH8 0xDE0B6B3A7640000 DUP7 DUP4 DUP11 PUSH1 0x1 ADD SLOAD PUSH2 0x10E3 SWAP2 SWAP1 PUSH2 0x1F4C JUMP JUMPDEST PUSH2 0x10ED SWAP2 SWAP1 PUSH2 0x1F4C JUMP JUMPDEST PUSH2 0x10F7 SWAP2 SWAP1 PUSH2 0x1F63 JUMP JUMPDEST SWAP1 POP DUP1 DUP9 PUSH1 0x1 ADD PUSH1 0x0 DUP3 DUP3 SLOAD PUSH2 0x110D SWAP2 SWAP1 PUSH2 0x1F98 JUMP JUMPDEST SWAP1 SWAP2 SSTORE POP POP TIMESTAMP PUSH1 0x3 SWAP1 SWAP9 ADD SWAP8 SWAP1 SWAP8 SSTORE POP POP POP POP POP POP POP POP JUMP JUMPDEST PUSH1 0x1 PUSH1 0x1 PUSH1 0xA0 SHL SUB DUP3 AND PUSH1 0x0 DUP2 DUP2 MSTORE PUSH1 0x6 PUSH1 0x20 MSTORE PUSH1 0x40 DUP1 DUP3 KECCAK256 PUSH1 0x4 DUP1 DUP3 ADD SLOAD PUSH1 0x1 DUP4 ADD SLOAD SWAP4 MLOAD PUSH4 0x70A08231 PUSH1 0xE0 SHL DUP2 MSTORE ADDRESS SWAP3 DUP2 ADD SWAP3 SWAP1 SWAP3 MSTORE SWAP4 SWAP5 SWAP2 SWAP4 DUP6 SWAP4 SWAP1 SWAP3 SWAP1 SWAP2 PUSH4 0x70A08231 SWAP1 PUSH1 0x24 ADD PUSH1 0x20 PUSH1 0x40 MLOAD DUP1 DUP4 SUB DUP2 DUP7 GAS STATICCALL ISZERO DUP1 ISZERO PUSH2 0x118E JUMPI RETURNDATASIZE PUSH1 0x0 DUP1 RETURNDATACOPY RETURNDATASIZE PUSH1 0x0 REVERT JUMPDEST POP POP POP POP PUSH1 0x40 MLOAD RETURNDATASIZE PUSH1 0x1F NOT PUSH1 0x1F DUP3 ADD AND DUP3 ADD DUP1 PUSH1 0x40 MSTORE POP DUP2 ADD SWAP1 PUSH2 0x11B2 SWAP2 SWAP1 PUSH2 0x1FAB JUMP JUMPDEST PUSH2 0x11BC SWAP2 SWAP1 PUSH2 0x1F98 JUMP JUMPDEST PUSH2 0x11C6 SWAP2 SWAP1 PUSH2 0x1F85 JUMP JUMPDEST DUP3 SLOAD SWAP1 SWAP2 POP PUSH1 0x0 SUB PUSH2 0x11DC JUMPI DUP4 SWAP3 POP POP POP PUSH2 0x6E9 JUMP JUMPDEST DUP2 SLOAD PUSH2 0x11E8 DUP3 DUP7 PUSH2 0x1F4C JUMP JUMPDEST PUSH2 0x11F2 SWAP2 SWAP1 PUSH2 0x1F63 JUMP JUMPDEST SWAP6 SWAP5 POP POP POP POP POP JUMP JUMPDEST PUSH1 0x40 MLOAD PUSH1 0x1 PUSH1 0x1 PUSH1 0xA0 SHL SUB DUP5 DUP2 AND PUSH1 0x24 DUP4 ADD MSTORE DUP4 DUP2 AND PUSH1 0x44 DUP4 ADD MSTORE PUSH1 0x64 DUP3 ADD DUP4 SWAP1 MSTORE PUSH2 0xB14 SWAP2 DUP7 SWAP2 DUP3 AND SWAP1 PUSH4 0x23B872DD SWAP1 PUSH1 0x84 ADD JUMPDEST PUSH1 0x40 MLOAD PUSH1 0x20 DUP2 DUP4 SUB SUB DUP2 MSTORE SWAP1 PUSH1 0x40 MSTORE SWAP2 POP PUSH1 0xE0 SHL PUSH1 0x20 DUP3 ADD DUP1 MLOAD PUSH1 0x1 PUSH1 0x1 PUSH1 0xE0 SHL SUB DUP4 DUP2 DUP4 AND OR DUP4 MSTORE POP POP POP POP PUSH2 0x1D58 JUMP JUMPDEST PUSH1 0x1 PUSH1 0x1 PUSH1 0xA0 SHL SUB DUP3 AND PUSH1 0x0 DUP2 DUP2 MSTORE PUSH1 0x6 PUSH1 0x20 MSTORE PUSH1 0x40 DUP1 DUP3 KECCAK256 PUSH1 0x4 DUP1 DUP3 ADD SLOAD PUSH1 0x1 DUP4 ADD SLOAD SWAP4 MLOAD PUSH4 0x70A08231 PUSH1 0xE0 SHL DUP2 MSTORE ADDRESS SWAP3 DUP2 ADD SWAP3 SWAP1 SWAP3 MSTORE SWAP4 SWAP5 SWAP2 SWAP4 DUP6 SWAP4 SWAP1 SWAP3 SWAP1 SWAP2 PUSH4 0x70A08231 SWAP1 PUSH1 0x24 ADD PUSH1 0x20 PUSH1 0x40 MLOAD DUP1 DUP4 SUB DUP2 DUP7 GAS STATICCALL ISZERO DUP1 ISZERO PUSH2 0x12CA JUMPI RETURNDATASIZE PUSH1 0x0 DUP1 RETURNDATACOPY RETURNDATASIZE PUSH1 0x0 REVERT JUMPDEST POP POP POP POP PUSH1 0x40 MLOAD RETURNDATASIZE PUSH1 0x1F NOT PUSH1 0x1F DUP3 ADD AND DUP3 ADD DUP1 PUSH1 0x40 MSTORE POP DUP2 ADD SWAP1 PUSH2 0x12EE SWAP2 SWAP1 PUSH2 0x1FAB JUMP JUMPDEST PUSH2 0x12F8 SWAP2 SWAP1 PUSH2 0x1F98 JUMP JUMPDEST PUSH2 0x1302 SWAP2 SWAP1 PUSH2 0x1F85 JUMP JUMPDEST SWAP1 POP DUP1 PUSH1 0x0 SUB PUSH2 0x1316 JUMPI DUP4 SWAP3 POP POP POP PUSH2 0x6E9 JUMP JUMPDEST DUP2 SLOAD DUP2 SWAP1 PUSH2 0x11E8 SWAP1 DUP7 PUSH2 0x1F4C JUMP JUMPDEST PUSH1 0x4 SLOAD PUSH1 0x0 SWAP1 DUP2 SWAP1 DUP2 JUMPDEST DUP2 DUP2 LT ISZERO PUSH2 0x1664 JUMPI PUSH1 0x0 PUSH1 0x4 DUP3 DUP2 SLOAD DUP2 LT PUSH2 0x134B JUMPI PUSH2 0x134B PUSH2 0x20E1 JUMP JUMPDEST PUSH1 0x0 SWAP2 DUP3 MSTORE PUSH1 0x20 DUP1 DUP4 KECCAK256 SWAP1 SWAP2 ADD SLOAD PUSH1 0x1 PUSH1 0x1 PUSH1 0xA0 SHL SUB SWAP1 DUP2 AND DUP1 DUP5 MSTORE PUSH1 0x3 DUP1 DUP5 MSTORE PUSH1 0x40 DUP1 DUP7 KECCAK256 DUP2 MLOAD PUSH1 0xA0 DUP2 ADD DUP4 MSTORE DUP2 SLOAD DUP7 AND DUP2 MSTORE PUSH1 0x1 DUP3 DUP2 ADD SLOAD DUP8 AND DUP3 DUP10 ADD MSTORE PUSH1 0x2 DUP4 ADD SLOAD DUP3 DUP6 ADD MSTORE SWAP4 DUP3 ADD SLOAD PUSH1 0x60 DUP3 ADD MSTORE PUSH1 0x4 SWAP1 SWAP2 ADD SLOAD PUSH1 0xFF AND ISZERO ISZERO PUSH1 0x80 DUP3 ADD MSTORE SWAP4 DUP13 AND DUP7 MSTORE PUSH1 0x5 DUP6 MSTORE DUP1 DUP7 KECCAK256 DUP4 DUP8 MSTORE DUP6 MSTORE SWAP5 DUP6 SWAP1 KECCAK256 DUP6 MLOAD DUP1 DUP8 ADD SWAP1 SWAP7 MSTORE DUP1 SLOAD DUP7 MSTORE ADD SLOAD SWAP3 DUP5 ADD SWAP3 SWAP1 SWAP3 MSTORE SWAP1 SWAP3 POP SWAP1 PUSH2 0x13E4 DUP4 PUSH2 0xFA5 JUMP JUMPDEST DUP1 MLOAD ISZERO PUSH2 0x1529 JUMPI PUSH1 0x0 PUSH2 0x13FB DUP5 DUP4 PUSH1 0x0 ADD MLOAD PUSH2 0x1126 JUMP JUMPDEST PUSH1 0x2 SLOAD PUSH1 0x40 MLOAD PUSH4 0x41976E09 PUSH1 0xE0 SHL DUP2 MSTORE PUSH1 0x1 PUSH1 0x1 PUSH1 0xA0 SHL SUB DUP8 DUP2 AND PUSH1 0x4 DUP4 ADD MSTORE SWAP3 SWAP4 POP PUSH1 0x0 SWAP3 SWAP1 SWAP2 AND SWAP1 PUSH4 0x41976E09 SWAP1 PUSH1 0x24 ADD PUSH1 0x20 PUSH1 0x40 MLOAD DUP1 DUP4 SUB DUP2 DUP7 GAS STATICCALL ISZERO DUP1 ISZERO PUSH2 0x144B JUMPI RETURNDATASIZE PUSH1 0x0 DUP1 RETURNDATACOPY RETURNDATASIZE PUSH1 0x0 REVERT JUMPDEST POP POP POP POP PUSH1 0x40 MLOAD RETURNDATASIZE PUSH1 0x1F NOT PUSH1 0x1F DUP3 ADD AND DUP3 ADD DUP1 PUSH1 0x40 MSTORE POP DUP2 ADD SWAP1 PUSH2 0x146F SWAP2 SWAP1 PUSH2 0x1FAB JUMP JUMPDEST SWAP1 POP PUSH1 0x0 DUP6 PUSH1 0x1 PUSH1 0x1 PUSH1 0xA0 SHL SUB AND PUSH4 0x313CE567 PUSH1 0x40 MLOAD DUP2 PUSH4 0xFFFFFFFF AND PUSH1 0xE0 SHL DUP2 MSTORE PUSH1 0x4 ADD PUSH1 0x20 PUSH1 0x40 MLOAD DUP1 DUP4 SUB DUP2 DUP7 GAS STATICCALL ISZERO DUP1 ISZERO PUSH2 0x14B1 JUMPI RETURNDATASIZE PUSH1 0x0 DUP1 RETURNDATACOPY RETURNDATASIZE PUSH1 0x0 REVERT JUMPDEST POP POP POP POP PUSH1 0x40 MLOAD RETURNDATASIZE PUSH1 0x1F NOT PUSH1 0x1F DUP3 ADD AND DUP3 ADD DUP1 PUSH1 0x40 MSTORE POP DUP2 ADD SWAP1 PUSH2 0x14D5 SWAP2 SWAP1 PUSH2 0x1FC4 JUMP JUMPDEST PUSH2 0x14E0 SWAP1 PUSH1 0xA PUSH2 0x20D2 JUMP JUMPDEST PUSH2 0x14EA DUP4 DUP6 PUSH2 0x1F4C JUMP JUMPDEST PUSH2 0x14F4 SWAP2 SWAP1 PUSH2 0x1F63 JUMP JUMPDEST SWAP1 POP PUSH8 0xDE0B6B3A7640000 DUP6 PUSH1 0x40 ADD MLOAD DUP3 PUSH2 0x150F SWAP2 SWAP1 PUSH2 0x1F4C JUMP JUMPDEST PUSH2 0x1519 SWAP2 SWAP1 PUSH2 0x1F63 JUMP JUMPDEST PUSH2 0x1523 SWAP1 DUP12 PUSH2 0x1F98 JUMP JUMPDEST SWAP10 POP POP POP POP JUMPDEST PUSH1 0x20 DUP2 ADD MLOAD ISZERO PUSH2 0x164E JUMPI PUSH1 0x0 PUSH2 0x1543 DUP5 DUP4 PUSH1 0x20 ADD MLOAD PUSH2 0x1126 JUMP JUMPDEST PUSH1 0x2 SLOAD PUSH1 0x40 MLOAD PUSH4 0x41976E09 PUSH1 0xE0 SHL DUP2 MSTORE PUSH1 0x1 PUSH1 0x1 PUSH1 0xA0 SHL SUB DUP8 DUP2 AND PUSH1 0x4 DUP4 ADD MSTORE SWAP3 SWAP4 POP PUSH1 0x0 SWAP3 SWAP1 SWAP2 AND SWAP1 PUSH4 0x41976E09 SWAP1 PUSH1 0x24 ADD PUSH1 0x20 PUSH1 0x40 MLOAD DUP1 DUP4 SUB DUP2 DUP7 GAS STATICCALL ISZERO DUP1 ISZERO PUSH2 0x1593 JUMPI RETURNDATASIZE PUSH1 0x0 DUP1 RETURNDATACOPY RETURNDATASIZE PUSH1 0x0 REVERT JUMPDEST POP POP POP POP PUSH1 0x40 MLOAD RETURNDATASIZE PUSH1 0x1F NOT PUSH1 0x1F DUP3 ADD AND DUP3 ADD DUP1 PUSH1 0x40 MSTORE POP DUP2 ADD SWAP1 PUSH2 0x15B7 SWAP2 SWAP1 PUSH2 0x1FAB JUMP JUMPDEST SWAP1 POP PUSH1 0x0 DUP6 PUSH1 0x1 PUSH1 0x1 PUSH1 0xA0 SHL SUB AND PUSH4 0x313CE567 PUSH1 0x40 MLOAD DUP2 PUSH4 0xFFFFFFFF AND PUSH1 0xE0 SHL DUP2 MSTORE PUSH1 0x4 ADD PUSH1 0x20 PUSH1 0x40 MLOAD DUP1 DUP4 SUB DUP2 DUP7 GAS STATICCALL ISZERO DUP1 ISZERO PUSH2 0x15F9 JUMPI RETURNDATASIZE PUSH1 0x0 DUP1 RETURNDATACOPY RETURNDATASIZE PUSH1 0x0 REVERT JUMPDEST POP POP POP POP PUSH1 0x40 MLOAD RETURNDATASIZE PUSH1 0x1F NOT PUSH1 0x1F DUP3 ADD AND DUP3 ADD DUP1 PUSH1 0x40 MSTORE POP DUP2 ADD SWAP1 PUSH2 0x161D SWAP2 SWAP1 PUSH2 0x1FC4 JUMP JUMPDEST PUSH2 0x1628 SWAP1 PUSH1 0xA PUSH2 0x20D2 JUMP JUMPDEST PUSH2 0x1632 DUP4 DUP6 PUSH2 0x1F4C JUMP JUMPDEST PUSH2 0x163C SWAP2 SWAP1 PUSH2 0x1F63 JUMP JUMPDEST SWAP1 POP PUSH2 0x1648 DUP2 DUP11 PUSH2 0x1F98 JUMP JUMPDEST SWAP9 POP POP POP POP JUMPDEST POP POP POP DUP1 DUP1 PUSH2 0x165C SWAP1 PUSH2 0x20F7 JUMP JUMPDEST SWAP2 POP POP PUSH2 0x132E JUMP JUMPDEST POP POP SWAP2 POP SWAP2 JUMP JUMPDEST PUSH1 0x40 MLOAD PUSH1 0x1 PUSH1 0x1 PUSH1 0xA0 SHL SUB DUP4 DUP2 AND PUSH1 0x24 DUP4 ADD MSTORE PUSH1 0x44 DUP3 ADD DUP4 SWAP1 MSTORE PUSH2 0x169C SWAP2 DUP6 SWAP2 DUP3 AND SWAP1 PUSH4 0xA9059CBB SWAP1 PUSH1 0x64 ADD PUSH2 0x1230 JUMP JUMPDEST POP POP POP JUMP JUMPDEST PUSH1 0x0 SLOAD PUSH1 0x1 PUSH1 0x1 PUSH1 0xA0 SHL SUB AND CALLER EQ PUSH2 0xABE JUMPI PUSH1 0x40 MLOAD PUSH4 0x118CDAA7 PUSH1 0xE0 SHL DUP2 MSTORE CALLER PUSH1 0x4 DUP3 ADD MSTORE PUSH1 0x24 ADD PUSH2 0xDAA JUMP JUMPDEST PUSH1 0x0 DUP1 SLOAD PUSH1 0x1 PUSH1 0x1 PUSH1 0xA0 SHL SUB DUP4 DUP2 AND PUSH1 0x1 PUSH1 0x1 PUSH1 0xA0 SHL SUB NOT DUP4 AND DUP2 OR DUP5 SSTORE PUSH1 0x40 MLOAD SWAP2 SWAP1 SWAP3 AND SWAP3 DUP4 SWAP2 PUSH32 0x8BE0079C531659141344CD1FD0A4F28419497F9722A3DAAFE3B4186F6B6457E0 SWAP2 SWAP1 LOG3 POP POP JUMP JUMPDEST PUSH1 0x1 PUSH1 0x1 PUSH1 0xA0 SHL SUB DUP3 AND PUSH1 0x0 SWAP1 DUP2 MSTORE PUSH1 0x3 PUSH1 0x20 MSTORE PUSH1 0x40 SWAP1 KECCAK256 PUSH1 0x4 ADD SLOAD PUSH1 0xFF AND ISZERO DUP1 PUSH2 0x1765 JUMPI POP PUSH1 0x1 PUSH1 0x1 PUSH1 0xA0 SHL SUB DUP2 AND PUSH1 0x0 SWAP1 DUP2 MSTORE PUSH1 0x3 PUSH1 0x20 MSTORE PUSH1 0x40 SWAP1 KECCAK256 PUSH1 0x4 ADD SLOAD PUSH1 0xFF AND ISZERO JUMPDEST ISZERO PUSH2 0x1783 JUMPI PUSH1 0x40 MLOAD PUSH4 0xB77E1E0F PUSH1 0xE0 SHL DUP2 MSTORE PUSH1 0x4 ADD PUSH1 0x40 MLOAD DUP1 SWAP2 SUB SWAP1 REVERT JUMPDEST PUSH2 0x178C DUP3 PUSH2 0xFA5 JUMP JUMPDEST PUSH2 0x1795 DUP2 PUSH2 0xFA5 JUMP JUMPDEST PUSH1 0x0 DUP1 PUSH2 0x17A1 DUP6 PUSH2 0x1324 JUMP JUMPDEST SWAP2 POP SWAP2 POP DUP1 PUSH1 0x0 EQ DUP1 PUSH2 0x17B4 JUMPI POP DUP1 DUP3 LT ISZERO JUMPDEST ISZERO PUSH2 0x17D2 JUMPI PUSH1 0x40 MLOAD PUSH4 0x481F8F2F PUSH1 0xE1 SHL DUP2 MSTORE PUSH1 0x4 ADD PUSH1 0x40 MLOAD DUP1 SWAP2 SUB SWAP1 REVERT JUMPDEST POP POP POP POP POP JUMP JUMPDEST PUSH1 0x1 PUSH1 0x1 PUSH1 0xA0 SHL SUB DUP1 DUP6 AND PUSH1 0x0 SWAP1 DUP2 MSTORE PUSH1 0x5 PUSH1 0x20 SWAP1 DUP2 MSTORE PUSH1 0x40 DUP1 DUP4 KECCAK256 SWAP4 DUP8 AND DUP4 MSTORE SWAP3 SWAP1 MSTORE SWAP1 DUP2 KECCAK256 PUSH1 0x1 DUP2 ADD SLOAD DUP3 SWAP2 SWAP1 DUP3 SWAP1 PUSH2 0x1815 SWAP1 DUP9 SWAP1 PUSH2 0x1126 JUMP JUMPDEST SWAP1 POP PUSH1 0x0 NOT DUP6 SUB PUSH2 0x1828 JUMPI DUP1 SWAP4 POP PUSH2 0x183A JUMP JUMPDEST DUP1 DUP6 GT PUSH2 0x1835 JUMPI DUP5 PUSH2 0x1837 JUMP JUMPDEST DUP1 JUMPDEST SWAP4 POP JUMPDEST PUSH1 0x2 SLOAD PUSH1 0x40 MLOAD PUSH4 0x41976E09 PUSH1 0xE0 SHL DUP2 MSTORE PUSH1 0x1 PUSH1 0x1 PUSH1 0xA0 SHL SUB DUP10 DUP2 AND PUSH1 0x4 DUP4 ADD MSTORE PUSH1 0x0 SWAP3 AND SWAP1 PUSH4 0x41976E09 SWAP1 PUSH1 0x24 ADD PUSH1 0x20 PUSH1 0x40 MLOAD DUP1 DUP4 SUB DUP2 DUP7 GAS STATICCALL ISZERO DUP1 ISZERO PUSH2 0x1885 JUMPI RETURNDATASIZE PUSH1 0x0 DUP1 RETURNDATACOPY RETURNDATASIZE PUSH1 0x0 REVERT JUMPDEST POP POP POP POP PUSH1 0x40 MLOAD RETURNDATASIZE PUSH1 0x1F NOT PUSH1 0x1F DUP3 ADD AND DUP3 ADD DUP1 PUSH1 0x40 MSTORE POP DUP2 ADD SWAP1 PUSH2 0x18A9 SWAP2 SWAP1 PUSH2 0x1FAB JUMP JUMPDEST PUSH1 0x2 SLOAD PUSH1 0x40 MLOAD PUSH4 0x41976E09 PUSH1 0xE0 SHL DUP2 MSTORE PUSH1 0x1 PUSH1 0x1 PUSH1 0xA0 SHL SUB DUP11 DUP2 AND PUSH1 0x4 DUP4 ADD MSTORE SWAP3 SWAP4 POP PUSH1 0x0 SWAP3 SWAP1 SWAP2 AND SWAP1 PUSH4 0x41976E09 SWAP1 PUSH1 0x24 ADD PUSH1 0x20 PUSH1 0x40 MLOAD DUP1 DUP4 SUB DUP2 DUP7 GAS STATICCALL ISZERO DUP1 ISZERO PUSH2 0x18F9 JUMPI RETURNDATASIZE PUSH1 0x0 DUP1 RETURNDATACOPY RETURNDATASIZE PUSH1 0x0 REVERT JUMPDEST POP POP POP POP PUSH1 0x40 MLOAD RETURNDATASIZE PUSH1 0x1F NOT PUSH1 0x1F DUP3 ADD AND DUP3 ADD DUP1 PUSH1 0x40 MSTORE POP DUP2 ADD SWAP1 PUSH2 0x191D SWAP2 SWAP1 PUSH2 0x1FAB JUMP JUMPDEST SWAP1 POP PUSH1 0x0 PUSH2 0x1933 PUSH8 0xDE0B6B3A7640000 DUP4 PUSH2 0x1F4C JUMP JUMPDEST PUSH1 0x1 PUSH1 0x1 PUSH1 0xA0 SHL SUB DUP12 AND PUSH1 0x0 SWAP1 DUP2 MSTORE PUSH1 0x3 PUSH1 0x20 DUP2 SWAP1 MSTORE PUSH1 0x40 SWAP1 SWAP2 KECCAK256 ADD SLOAD PUSH2 0x1962 SWAP1 PUSH8 0xDE0B6B3A7640000 PUSH2 0x1F98 JUMP JUMPDEST PUSH2 0x196C DUP6 DUP11 PUSH2 0x1F4C JUMP JUMPDEST PUSH2 0x1976 SWAP2 SWAP1 PUSH2 0x1F4C JUMP JUMPDEST PUSH2 0x1980 SWAP2 SWAP1 PUSH2 0x1F63 JUMP JUMPDEST SWAP1 POP PUSH1 0x0 PUSH8 0xDE0B6B3A7640000 DUP11 PUSH1 0x1 PUSH1 0x1 PUSH1 0xA0 SHL SUB AND PUSH4 0x313CE567 PUSH1 0x40 MLOAD DUP2 PUSH4 0xFFFFFFFF AND PUSH1 0xE0 SHL DUP2 MSTORE PUSH1 0x4 ADD PUSH1 0x20 PUSH1 0x40 MLOAD DUP1 DUP4 SUB DUP2 DUP7 GAS STATICCALL ISZERO DUP1 ISZERO PUSH2 0x19CB JUMPI RETURNDATASIZE PUSH1 0x0 DUP1 RETURNDATACOPY RETURNDATASIZE PUSH1 0x0 REVERT JUMPDEST POP POP POP POP PUSH1 0x40 MLOAD RETURNDATASIZE PUSH1 0x1F NOT PUSH1 0x1F DUP3 ADD AND DUP3 ADD DUP1 PUSH1 0x40 MSTORE POP DUP2 ADD SWAP1 PUSH2 0x19EF SWAP2 SWAP1 PUSH2 0x1FC4 JUMP JUMPDEST PUSH2 0x19FA SWAP1 PUSH1 0xA PUSH2 0x20D2 JUMP JUMPDEST PUSH2 0x1A04 SWAP1 DUP5 PUSH2 0x1F4C JUMP JUMPDEST PUSH2 0x1A0E SWAP2 SWAP1 PUSH2 0x1F63 JUMP JUMPDEST SWAP1 POP PUSH2 0x1A1A DUP11 DUP3 PUSH2 0x1262 JUMP JUMPDEST PUSH1 0x1 PUSH1 0x1 PUSH1 0xA0 SHL SUB DUP1 DUP15 AND PUSH1 0x0 SWAP1 DUP2 MSTORE PUSH1 0x5 PUSH1 0x20 SWAP1 DUP2 MSTORE PUSH1 0x40 DUP1 DUP4 KECCAK256 SWAP4 DUP16 AND DUP4 MSTORE SWAP3 SWAP1 MSTORE KECCAK256 DUP1 SLOAD SWAP2 SWAP9 POP SWAP1 DUP9 GT ISZERO PUSH2 0x1A51 JUMPI DUP1 SLOAD SWAP8 POP JUMPDEST POP POP POP POP POP POP POP SWAP5 POP SWAP5 SWAP3 POP POP POP JUMP JUMPDEST PUSH1 0x1 PUSH1 0x1 PUSH1 0xA0 SHL SUB DUP1 DUP7 AND PUSH1 0x0 SWAP1 DUP2 MSTORE PUSH1 0x5 PUSH1 0x20 SWAP1 DUP2 MSTORE PUSH1 0x40 DUP1 DUP4 KECCAK256 SWAP4 DUP8 AND DUP4 MSTORE SWAP3 SWAP1 MSTORE SWAP1 DUP2 KECCAK256 DUP1 SLOAD DUP4 SWAP3 SWAP1 PUSH2 0x1A98 SWAP1 DUP5 SWAP1 PUSH2 0x1F85 JUMP JUMPDEST SWAP1 SWAP2 SSTORE POP POP PUSH1 0x1 PUSH1 0x1 PUSH1 0xA0 SHL SUB DUP1 DUP8 AND PUSH1 0x0 SWAP1 DUP2 MSTORE PUSH1 0x5 PUSH1 0x20 SWAP1 DUP2 MSTORE PUSH1 0x40 DUP1 DUP4 KECCAK256 SWAP4 DUP8 AND DUP4 MSTORE SWAP3 SWAP1 MSTORE SWAP1 DUP2 KECCAK256 DUP1 SLOAD DUP4 SWAP3 SWAP1 PUSH2 0x1AD4 SWAP1 DUP5 SWAP1 PUSH2 0x1F98 JUMP JUMPDEST SWAP1 SWAP2 SSTORE POP POP PUSH1 0x1 PUSH1 0x1 PUSH1 0xA0 SHL SUB DUP1 DUP7 AND PUSH1 0x0 SWAP1 DUP2 MSTORE PUSH1 0x5 PUSH1 0x20 SWAP1 DUP2 MSTORE PUSH1 0x40 DUP1 DUP4 KECCAK256 SWAP4 DUP9 AND DUP4 MSTORE SWAP3 DUP2 MSTORE DUP3 DUP3 KECCAK256 PUSH1 0x6 SWAP1 SWAP2 MSTORE SWAP2 DUP2 KECCAK256 PUSH1 0x1 DUP4 ADD SLOAD SWAP1 SWAP2 PUSH2 0x1B19 DUP9 DUP4 PUSH2 0x1126 JUMP JUMPDEST SWAP1 POP PUSH1 0x0 DUP2 DUP8 LT PUSH2 0x1B2B JUMPI POP DUP2 PUSH2 0x1B43 JUMP JUMPDEST DUP2 PUSH2 0x1B36 DUP9 DUP6 PUSH2 0x1F4C JUMP JUMPDEST PUSH2 0x1B40 SWAP2 SWAP1 PUSH2 0x1F63 JUMP JUMPDEST SWAP1 POP JUMPDEST DUP1 DUP6 PUSH1 0x1 ADD PUSH1 0x0 DUP3 DUP3 SLOAD PUSH2 0x1B57 SWAP2 SWAP1 PUSH2 0x1F85 JUMP JUMPDEST SWAP3 POP POP DUP2 SWAP1 SSTORE POP DUP7 DUP5 PUSH1 0x1 ADD PUSH1 0x0 DUP3 DUP3 SLOAD PUSH2 0x1B72 SWAP2 SWAP1 PUSH2 0x1F85 JUMP JUMPDEST SWAP3 POP POP DUP2 SWAP1 SSTORE POP DUP1 DUP5 PUSH1 0x2 ADD PUSH1 0x0 DUP3 DUP3 SLOAD PUSH2 0x1B8D SWAP2 SWAP1 PUSH2 0x1F85 JUMP JUMPDEST SWAP1 SWAP2 SSTORE POP PUSH2 0x1B9F SWAP1 POP DUP10 DUP13 ADDRESS DUP11 PUSH2 0x11FB JUMP JUMPDEST PUSH1 0x0 PUSH2 0x1BAB DUP10 DUP9 PUSH2 0x1126 JUMP JUMPDEST PUSH1 0x40 DUP1 MLOAD PUSH1 0x1 PUSH1 0x1 PUSH1 0xA0 SHL SUB DUP14 DUP2 AND DUP3 MSTORE PUSH1 0x20 DUP3 ADD DUP13 SWAP1 MSTORE SWAP2 DUP2 ADD DUP4 SWAP1 MSTORE SWAP2 SWAP3 POP DUP1 DUP12 AND SWAP2 DUP14 DUP3 AND SWAP2 DUP16 AND SWAP1 PUSH32 0xAC8BBD8FB7420B3123CF9E24D34551E40514EA69C5A1E97C10E513AAF06E7E42 SWAP1 PUSH1 0x60 ADD PUSH1 0x40 MLOAD DUP1 SWAP2 SUB SWAP1 LOG4 POP POP POP POP POP POP POP POP POP POP POP POP JUMP JUMPDEST PUSH1 0x1 PUSH1 0x1 PUSH1 0xA0 SHL SUB DUP3 AND PUSH1 0x0 SWAP1 DUP2 MSTORE PUSH1 0x3 PUSH1 0x20 MSTORE PUSH1 0x40 DUP2 KECCAK256 DUP2 PUSH2 0x1C35 DUP6 DUP6 PUSH2 0x1126 JUMP JUMPDEST PUSH1 0x2 SLOAD PUSH1 0x40 MLOAD PUSH4 0x41976E09 PUSH1 0xE0 SHL DUP2 MSTORE PUSH1 0x1 PUSH1 0x1 PUSH1 0xA0 SHL SUB DUP9 DUP2 AND PUSH1 0x4 DUP4 ADD MSTORE SWAP3 SWAP4 POP PUSH1 0x0 SWAP3 SWAP1 SWAP2 AND SWAP1 PUSH4 0x41976E09 SWAP1 PUSH1 0x24 ADD PUSH1 0x20 PUSH1 0x40 MLOAD DUP1 DUP4 SUB DUP2 DUP7 GAS STATICCALL ISZERO DUP1 ISZERO PUSH2 0x1C85 JUMPI RETURNDATASIZE PUSH1 0x0 DUP1 RETURNDATACOPY RETURNDATASIZE PUSH1 0x0 REVERT JUMPDEST POP POP POP POP PUSH1 0x40 MLOAD RETURNDATASIZE PUSH1 0x1F NOT PUSH1 0x1F DUP3 ADD AND DUP3 ADD DUP1 PUSH1 0x40 MSTORE POP DUP2 ADD SWAP1 PUSH2 0x1CA9 SWAP2 SWAP1 PUSH2 0x1FAB JUMP JUMPDEST SWAP1 POP DUP6 PUSH1 0x1 PUSH1 0x1 PUSH1 0xA0 SHL SUB AND PUSH4 0x313CE567 PUSH1 0x40 MLOAD DUP2 PUSH4 0xFFFFFFFF AND PUSH1 0xE0 SHL DUP2 MSTORE PUSH1 0x4 ADD PUSH1 0x20 PUSH1 0x40 MLOAD DUP1 DUP4 SUB DUP2 DUP7 GAS STATICCALL ISZERO DUP1 ISZERO PUSH2 0x1CE9 JUMPI RETURNDATASIZE PUSH1 0x0 DUP1 RETURNDATACOPY RETURNDATASIZE PUSH1 0x0 REVERT JUMPDEST POP POP POP POP PUSH1 0x40 MLOAD RETURNDATASIZE PUSH1 0x1F NOT PUSH1 0x1F DUP3 ADD AND DUP3 ADD DUP1 PUSH1 0x40 MSTORE POP DUP2 ADD SWAP1 PUSH2 0x1D0D SWAP2 SWAP1 PUSH2 0x1FC4 JUMP JUMPDEST PUSH2 0x1D18 SWAP1 PUSH1 0xA PUSH2 0x20D2 JUMP JUMPDEST PUSH2 0x1D2A SWAP1 PUSH8 0xDE0B6B3A7640000 PUSH2 0x1F4C JUMP JUMPDEST PUSH1 0x2 DUP5 ADD SLOAD PUSH2 0x1D39 DUP4 DUP6 PUSH2 0x1F4C JUMP JUMPDEST PUSH2 0x1D43 SWAP2 SWAP1 PUSH2 0x1F4C JUMP JUMPDEST PUSH2 0x1D4D SWAP2 SWAP1 PUSH2 0x1F63 JUMP JUMPDEST SWAP8 SWAP7 POP POP POP POP POP POP POP JUMP JUMPDEST PUSH1 0x0 DUP1 PUSH1 0x20 PUSH1 0x0 DUP5 MLOAD PUSH1 0x20 DUP7 ADD PUSH1 0x0 DUP9 GAS CALL DUP1 PUSH2 0x1D7B JUMPI PUSH1 0x40 MLOAD RETURNDATASIZE PUSH1 0x0 DUP3 RETURNDATACOPY RETURNDATASIZE DUP2 REVERT JUMPDEST POP POP PUSH1 0x0 MLOAD RETURNDATASIZE SWAP2 POP DUP2 ISZERO PUSH2 0x1D93 JUMPI DUP1 PUSH1 0x1 EQ ISZERO PUSH2 0x1DA0 JUMP JUMPDEST PUSH1 0x1 PUSH1 0x1 PUSH1 0xA0 SHL SUB DUP5 AND EXTCODESIZE ISZERO JUMPDEST ISZERO PUSH2 0xB14 JUMPI PUSH1 0x40 MLOAD PUSH4 0x5274AFE7 PUSH1 0xE0 SHL DUP2 MSTORE PUSH1 0x1 PUSH1 0x1 PUSH1 0xA0 SHL SUB DUP6 AND PUSH1 0x4 DUP3 ADD MSTORE PUSH1 0x24 ADD PUSH2 0xDAA JUMP JUMPDEST DUP1 CALLDATALOAD PUSH1 0x1 PUSH1 0x1 PUSH1 0xA0 SHL SUB DUP2 AND DUP2 EQ PUSH2 0x1DE0 JUMPI PUSH1 0x0 DUP1 REVERT JUMPDEST SWAP2 SWAP1 POP JUMP JUMPDEST PUSH1 0x0 DUP1 PUSH1 0x40 DUP4 DUP6 SUB SLT ISZERO PUSH2 0x1DF8 JUMPI PUSH1 0x0 DUP1 REVERT JUMPDEST PUSH2 0x1E01 DUP4 PUSH2 0x1DC9 JUMP JUMPDEST SWAP5 PUSH1 0x20 SWAP4 SWAP1 SWAP4 ADD CALLDATALOAD SWAP4 POP POP POP JUMP JUMPDEST PUSH1 0x0 DUP1 PUSH1 0x40 DUP4 DUP6 SUB SLT ISZERO PUSH2 0x1E22 JUMPI PUSH1 0x0 DUP1 REVERT JUMPDEST PUSH2 0x1E2B DUP4 PUSH2 0x1DC9 JUMP JUMPDEST SWAP2 POP PUSH2 0x1E39 PUSH1 0x20 DUP5 ADD PUSH2 0x1DC9 JUMP JUMPDEST SWAP1 POP SWAP3 POP SWAP3 SWAP1 POP JUMP JUMPDEST PUSH1 0x0 PUSH1 0x20 DUP3 DUP5 SUB SLT ISZERO PUSH2 0x1E54 JUMPI PUSH1 0x0 DUP1 REVERT JUMPDEST PUSH2 0x6E6 DUP3 PUSH2 0x1DC9 JUMP JUMPDEST PUSH1 0x0 DUP1 PUSH1 0x0 DUP1 PUSH1 0x80 DUP6 DUP8 SUB SLT ISZERO PUSH2 0x1E73 JUMPI PUSH1 0x0 DUP1 REVERT JUMPDEST PUSH2 0x1E7C DUP6 PUSH2 0x1DC9 JUMP JUMPDEST SWAP4 POP PUSH2 0x1E8A PUSH1 0x20 DUP7 ADD PUSH2 0x1DC9 JUMP JUMPDEST SWAP3 POP PUSH2 0x1E98 PUSH1 0x40 DUP7 ADD PUSH2 0x1DC9 JUMP JUMPDEST SWAP4 SWAP7 SWAP3 SWAP6 POP SWAP3 SWAP4 PUSH1 0x60 ADD CALLDATALOAD SWAP3 POP POP JUMP JUMPDEST PUSH1 0x0 PUSH1 0x20 DUP3 DUP5 SUB SLT ISZERO PUSH2 0x1EBA JUMPI PUSH1 0x0 DUP1 REVERT JUMPDEST POP CALLDATALOAD SWAP2 SWAP1 POP JUMP JUMPDEST PUSH1 0x0 DUP1 PUSH1 0x0 DUP1 PUSH1 0x80 DUP6 DUP8 SUB SLT ISZERO PUSH2 0x1ED7 JUMPI PUSH1 0x0 DUP1 REVERT JUMPDEST PUSH2 0x1EE0 DUP6 PUSH2 0x1DC9 JUMP JUMPDEST SWAP4 POP PUSH2 0x1EEE PUSH1 0x20 DUP7 ADD PUSH2 0x1DC9 JUMP JUMPDEST SWAP4 SWAP7 SWAP4 SWAP6 POP POP POP POP PUSH1 0x40 DUP3 ADD CALLDATALOAD SWAP2 PUSH1 0x60 ADD CALLDATALOAD SWAP1 JUMP JUMPDEST PUSH1 0x0 DUP1 PUSH1 0x0 PUSH1 0x60 DUP5 DUP7 SUB SLT ISZERO PUSH2 0x1F18 JUMPI PUSH1 0x0 DUP1 REVERT JUMPDEST PUSH2 0x1F21 DUP5 PUSH2 0x1DC9 JUMP JUMPDEST SWAP6 PUSH1 0x20 DUP6 ADD CALLDATALOAD SWAP6 POP PUSH1 0x40 SWAP1 SWAP5 ADD CALLDATALOAD SWAP4 SWAP3 POP POP POP JUMP JUMPDEST PUSH4 0x4E487B71 PUSH1 0xE0 SHL PUSH1 0x0 MSTORE PUSH1 0x11 PUSH1 0x4 MSTORE PUSH1 0x24 PUSH1 0x0 REVERT JUMPDEST DUP1 DUP3 MUL DUP2 ISZERO DUP3 DUP3 DIV DUP5 EQ OR PUSH2 0x6E9 JUMPI PUSH2 0x6E9 PUSH2 0x1F36 JUMP JUMPDEST PUSH1 0x0 DUP3 PUSH2 0x1F80 JUMPI PUSH4 0x4E487B71 PUSH1 0xE0 SHL PUSH1 0x0 MSTORE PUSH1 0x12 PUSH1 0x4 MSTORE PUSH1 0x24 PUSH1 0x0 REVERT JUMPDEST POP DIV SWAP1 JUMP JUMPDEST DUP2 DUP2 SUB DUP2 DUP2 GT ISZERO PUSH2 0x6E9 JUMPI PUSH2 0x6E9 PUSH2 0x1F36 JUMP JUMPDEST DUP1 DUP3 ADD DUP1 DUP3 GT ISZERO PUSH2 0x6E9 JUMPI PUSH2 0x6E9 PUSH2 0x1F36 JUMP JUMPDEST PUSH1 0x0 PUSH1 0x20 DUP3 DUP5 SUB SLT ISZERO PUSH2 0x1FBD JUMPI PUSH1 0x0 DUP1 REVERT JUMPDEST POP MLOAD SWAP2 SWAP1 POP JUMP JUMPDEST PUSH1 0x0 PUSH1 0x20 DUP3 DUP5 SUB SLT ISZERO PUSH2 0x1FD6 JUMPI PUSH1 0x0 DUP1 REVERT JUMPDEST DUP2 MLOAD PUSH1 0xFF DUP2 AND DUP2 EQ PUSH2 0x1FE7 JUMPI PUSH1 0x0 DUP1 REVERT JUMPDEST SWAP4 SWAP3 POP POP POP JUMP JUMPDEST PUSH1 0x1 DUP2 DUP2 JUMPDEST DUP1 DUP6 GT ISZERO PUSH2 0x2029 JUMPI DUP2 PUSH1 0x0 NOT DIV DUP3 GT ISZERO PUSH2 0x200F JUMPI PUSH2 0x200F PUSH2 0x1F36 JUMP JUMPDEST DUP1 DUP6 AND ISZERO PUSH2 0x201C JUMPI SWAP2 DUP2 MUL SWAP2 JUMPDEST SWAP4 DUP5 SHR SWAP4 SWAP1 DUP1 MUL SWAP1 PUSH2 0x1FF3 JUMP JUMPDEST POP SWAP3 POP SWAP3 SWAP1 POP JUMP JUMPDEST PUSH1 0x0 DUP3 PUSH2 0x2040 JUMPI POP PUSH1 0x1 PUSH2 0x6E9 JUMP JUMPDEST DUP2 PUSH2 0x204D JUMPI POP PUSH1 0x0 PUSH2 0x6E9 JUMP JUMPDEST DUP2 PUSH1 0x1 DUP2 EQ PUSH2 0x2063 JUMPI PUSH1 0x2 DUP2 EQ PUSH2 0x206D JUMPI PUSH2 0x2089 JUMP JUMPDEST PUSH1 0x1 SWAP2 POP POP PUSH2 0x6E9 JUMP JUMPDEST PUSH1 0xFF DUP5 GT ISZERO PUSH2 0x207E JUMPI PUSH2 0x207E PUSH2 0x1F36 JUMP JUMPDEST POP POP PUSH1 0x1 DUP3 SHL PUSH2 0x6E9 JUMP JUMPDEST POP PUSH1 0x20 DUP4 LT PUSH2 0x133 DUP4 LT AND PUSH1 0x4E DUP5 LT PUSH1 0xB DUP5 LT AND OR ISZERO PUSH2 0x20AC JUMPI POP DUP2 DUP2 EXP PUSH2 0x6E9 JUMP JUMPDEST PUSH2 0x20B6 DUP4 DUP4 PUSH2 0x1FEE JUMP JUMPDEST DUP1 PUSH1 0x0 NOT DIV DUP3 GT ISZERO PUSH2 0x20CA JUMPI PUSH2 0x20CA PUSH2 0x1F36 JUMP JUMPDEST MUL SWAP4 SWAP3 POP POP POP JUMP JUMPDEST PUSH1 0x0 PUSH2 0x6E6 PUSH1 0xFF DUP5 AND DUP4 PUSH2 0x2031 JUMP JUMPDEST PUSH4 0x4E487B71 PUSH1 0xE0 SHL PUSH1 0x0 MSTORE PUSH1 0x32 PUSH1 0x4 MSTORE PUSH1 0x24 PUSH1 0x0 REVERT JUMPDEST PUSH1 0x0 PUSH1 0x1 DUP3 ADD PUSH2 0x2109 JUMPI PUSH2 0x2109 PUSH2 0x1F36 JUMP JUMPDEST POP PUSH1 0x1 ADD SWAP1 JUMP INVALID LOG2 PUSH5 0x6970667358 0x22 SLT KECCAK256 SWAP16 0xCE 0xC9 SIGNEXTEND DUP2 ADD PUSH24 0xFC2D09DF4D8CF3B6676D3D83FB29E5EDAB39DAF9B5A7CC27 0xFB PUSH5 0x736F6C6343 STOP ADDMOD EQ STOP CALLER "},"methodIdentifiers":{"assetConfigs(address)":"7609d7f6","borrow(address,uint256)":"4b8a3529","deposit(address,uint256)":"47e7ef24","getAccountLiquidity(address)":"5ec88c79","getAmountForShares(address,uint256)":"49e826e6","getSharesForAmount(address,uint256)":"98b3ed59","liquidate(address,address,address,uint256)":"aab3f868","listAsset(address,address,uint256,uint256)":"d29b3cb1","listedAssets(uint256)":"ab78af67","owner()":"8da5cb5b","poolAccounts(address)":"a500ba7c","priceOracle()":"2630c12f","renounceOwnership()":"715018a6","repay(address,uint256)":"22867d78","setPriceOracle(address)":"530e784f","transferOwnership(address)":"f2fde38b","updateAssetConfig(address,uint256,uint256)":"d7eb003a","userAccounts(address,address)":"2ff75c59","withdraw(address,uint256)":"f3fef3a3"}}}}}