{"contracts/interest/DynamicInterestRateModel.sol":{"DynamicInterestRateModel":{"abi":[{"inputs":[{"internalType":"address","name":"_repoOracle","type":"address"},{"internalType":"uint256","name":"_baseRateMultiplier","type":"uint256"},{"internalType":"uint256","name":"_slopeAPR","type":"uint256"},{"internalType":"address","name":"admin","type":"address"}],"stateMutability":"nonpayable","type":"constructor"},{"inputs":[{"internalType":"address","name":"owner","type":"address"}],"name":"OwnableInvalidOwner","type":"error"},{"inputs":[{"internalType":"address","name":"account","type":"address"}],"name":"OwnableUnauthorizedAccount","type":"error"},{"anonymous":false,"inputs":[{"indexed":true,"internalType":"address","name":"previousOwner","type":"address"},{"indexed":true,"internalType":"address","name":"newOwner","type":"address"}],"name":"OwnershipTransferred","type":"event"},{"anonymous":false,"inputs":[{"indexed":false,"internalType":"uint256","name":"newBaseRateMultiplier","type":"uint256"},{"indexed":false,"internalType":"uint256","name":"newSlopeAPR","type":"uint256"}],"name":"ParamsUpdated","type":"event"},{"inputs":[],"name":"SECONDS_PER_YEAR","outputs":[{"internalType":"uint256","name":"","type":"uint256"}],"stateMutability":"view","type":"function"},{"inputs":[],"name":"baseRateMultiplier","outputs":[{"internalType":"uint256","name":"","type":"uint256"}],"stateMutability":"view","type":"function"},{"inputs":[{"internalType":"uint256","name":"utilization","type":"uint256"}],"name":"getBorrowRatePerSecond","outputs":[{"internalType":"uint256","name":"","type":"uint256"}],"stateMutability":"view","type":"function"},{"inputs":[],"name":"owner","outputs":[{"internalType":"address","name":"","type":"address"}],"stateMutability":"view","type":"function"},{"inputs":[],"name":"renounceOwnership","outputs":[],"stateMutability":"nonpayable","type":"function"},{"inputs":[],"name":"repoOracle","outputs":[{"internalType":"contract GlobalRepoRateOracle","name":"","type":"address"}],"stateMutability":"view","type":"function"},{"inputs":[{"internalType":"uint256","name":"_baseRateMultiplier","type":"uint256"},{"internalType":"uint256","name":"_slopeAPR","type":"uint256"}],"name":"setParams","outputs":[],"stateMutability":"nonpayable","type":"function"},{"inputs":[],"name":"slopeAPR","outputs":[{"internalType":"uint256","name":"","type":"uint256"}],"stateMutability":"view","type":"function"},{"inputs":[{"internalType":"address","name":"newOwner","type":"address"}],"name":"transferOwnership","outputs":[],"stateMutability":"nonpayable","type":"function"},{"inputs":[{"internalType":"uint256","name":"","type":"uint256"}],"name":"updateBorrowRate","outputs":[],"stateMutability":"pure","type":"function"}],"evm":{"bytecode":{"linkReferences":{},"object":"60a060405234801561001057600080fd5b506040516107c03803806107c083398101604081905261002f916101dd565b806001600160a01b03811661005f57604051631e4fbdf760e01b8152600060048201526024015b60405180910390fd5b61006881610089565b506001600160a01b03841660805261008083836100d9565b50505050610223565b600080546001600160a01b038381166001600160a01b0319831681178455604051919092169283917f8be0079c531659141344cd1fd0a4f28419497f9722a3daafe3b4186f6b6457e09190a35050565b671bc16d674ec800008211156101315760405162461bcd60e51b815260206004820152601860248201527f62617365206d756c7469706c69657220746f6f206869676800000000000000006044820152606401610056565b674563918244f4000081111561017a5760405162461bcd60e51b815260206004820152600e60248201526d0e6d8dee0ca40e8dede40d0d2ced60931b6044820152606401610056565b6001829055600281905560408051838152602081018390527fd1fdb534a9ff53ea58c62004a9a02a5ebc4e8b22ebee9a02db482c3678d3a344910160405180910390a15050565b80516001600160a01b03811681146101d857600080fd5b919050565b600080600080608085870312156101f357600080fd5b6101fc856101c1565b93506020850151925060408501519150610218606086016101c1565b905092959194509250565b60805161057c6102446000396000818160bb0152610203015261057c6000f3fe608060405234801561001057600080fd5b506004361061009e5760003560e01c8063c0324c7711610066578063c0324c771461012a578063c04418a21461013d578063e6a69ab814610146578063f2fde38b14610151578063f71bd11b1461016457600080fd5b806302b8c56d146100a35780633ea29f07146100b6578063715018a6146100fa5780638a8dacd8146101025780638da5cb5b14610119575b600080fd5b6100b46100b136600461045a565b50565b005b6100dd7f000000000000000000000000000000000000000000000000000000000000000081565b6040516001600160a01b0390911681526020015b60405180910390f35b6100b4610177565b61010b60015481565b6040519081526020016100f1565b6000546001600160a01b03166100dd565b6100b4610138366004610473565b61018b565b61010b60025481565b61010b6301e1338081565b6100b461015f366004610495565b6101a1565b61010b61017236600461045a565b6101e1565b61017f6102f5565b6101896000610322565b565b6101936102f5565b61019d8282610372565b5050565b6101a96102f5565b6001600160a01b0381166101d857604051631e4fbdf760e01b8152600060048201526024015b60405180910390fd5b6100b181610322565b6000670de0b6b3a76400008211156101ff57670de0b6b3a764000091505b60007f00000000000000000000000000000000000000000000000000000000000000006001600160a01b0316634c838e1f6040518163ffffffff1660e01b8152600401602060405180830381865afa15801561025f573d6000803e3d6000fd5b505050506040513d601f19601f8201168201806040525081019061028391906104c5565b90506000670de0b6b3a76400008260015461029e91906104f4565b6102a89190610511565b90506000670de0b6b3a7640000856002546102c391906104f4565b6102cd9190610511565b905060006102db8284610533565b90506102eb6301e1338082610511565b9695505050505050565b6000546001600160a01b031633146101895760405163118cdaa760e01b81523360048201526024016101cf565b600080546001600160a01b038381166001600160a01b0319831681178455604051919092169283917f8be0079c531659141344cd1fd0a4f28419497f9722a3daafe3b4186f6b6457e09190a35050565b671bc16d674ec800008211156103ca5760405162461bcd60e51b815260206004820152601860248201527f62617365206d756c7469706c69657220746f6f2068696768000000000000000060448201526064016101cf565b674563918244f400008111156104135760405162461bcd60e51b815260206004820152600e60248201526d0e6d8dee0ca40e8dede40d0d2ced60931b60448201526064016101cf565b6001829055600281905560408051838152602081018390527fd1fdb534a9ff53ea58c62004a9a02a5ebc4e8b22ebee9a02db482c3678d3a344910160405180910390a15050565b60006020828403121561046c57600080fd5b5035919050565b6000806040838503121561048657600080fd5b50508035926020909101359150565b6000602082840312156104a757600080fd5b81356001600160a01b03811681146104be57600080fd5b9392505050565b6000602082840312156104d757600080fd5b5051919050565b634e487b7160e01b600052601160045260246000fd5b808202811582820484141761050b5761050b6104de565b92915050565b60008261052e57634e487b7160e01b600052601260045260246000fd5b500490565b8082018082111561050b5761050b6104de56fea2646970667358221220229439d4ca80da9b94220a8381fc865bd809c67e6ed36e41c1f62810132a876c64736f6c63430008140033","opcodes":"PUSH1 0xA0 PUSH1 0x40 MSTORE CALLVALUE DUP1 ISZERO PUSH2 0x10 JUMPI PUSH1 0x0 DUP1 REVERT JUMPDEST POP PUSH1 0x40 MLOAD PUSH2 0x7C0 CODESIZE SUB DUP1 PUSH2 0x7C0 DUP4 CODECOPY DUP2 ADD PUSH1 0x40 DUP2 SWAP1 MSTORE PUSH2 0x2F SWAP2 PUSH2 0x1DD JUMP JUMPDEST DUP1 PUSH1 0x1 PUSH1 0x1 PUSH1 0xA0 SHL SUB DUP2 AND PUSH2 0x5F JUMPI PUSH1 0x40 MLOAD PUSH4 0x1E4FBDF7 PUSH1 0xE0 SHL DUP2 MSTORE PUSH1 0x0 PUSH1 0x4 DUP3 ADD MSTORE PUSH1 0x24 ADD JUMPDEST PUSH1 0x40 MLOAD DUP1 SWAP2 SUB SWAP1 REVERT JUMPDEST PUSH2 0x68 DUP2 PUSH2 0x89 JUMP JUMPDEST POP PUSH1 0x1 PUSH1 0x1 PUSH1 0xA0 SHL SUB DUP5 AND PUSH1 0x80 MSTORE PUSH2 0x80 DUP4 DUP4 PUSH2 0xD9 JUMP JUMPDEST POP POP POP POP PUSH2 0x223 JUMP JUMPDEST PUSH1 0x0 DUP1 SLOAD PUSH1 0x1 PUSH1 0x1 PUSH1 0xA0 SHL SUB DUP4 DUP2 AND PUSH1 0x1 PUSH1 0x1 PUSH1 0xA0 SHL SUB NOT DUP4 AND DUP2 OR DUP5 SSTORE PUSH1 0x40 MLOAD SWAP2 SWAP1 SWAP3 AND SWAP3 DUP4 SWAP2 PUSH32 0x8BE0079C531659141344CD1FD0A4F28419497F9722A3DAAFE3B4186F6B6457E0 SWAP2 SWAP1 LOG3 POP POP JUMP JUMPDEST PUSH8 0x1BC16D674EC80000 DUP3 GT ISZERO PUSH2 0x131 JUMPI PUSH1 0x40 MLOAD PUSH3 0x461BCD PUSH1 0xE5 SHL DUP2 MSTORE PUSH1 0x20 PUSH1 0x4 DUP3 ADD MSTORE PUSH1 0x18 PUSH1 0x24 DUP3 ADD MSTORE PUSH32 0x62617365206D756C7469706C69657220746F6F20686967680000000000000000 PUSH1 0x44 DUP3 ADD MSTORE PUSH1 0x64 ADD PUSH2 0x56 JUMP JUMPDEST PUSH8 0x4563918244F40000 DUP2 GT ISZERO PUSH2 0x17A JUMPI PUSH1 0x40 MLOAD PUSH3 0x461BCD PUSH1 0xE5 SHL DUP2 MSTORE PUSH1 0x20 PUSH1 0x4 DUP3 ADD MSTORE PUSH1 0xE PUSH1 0x24 DUP3 ADD MSTORE PUSH14 0xE6D8DEE0CA40E8DEDE40D0D2CED PUSH1 0x93 SHL PUSH1 0x44 DUP3 ADD MSTORE PUSH1 0x64 ADD PUSH2 0x56 JUMP JUMPDEST PUSH1 0x1 DUP3 SWAP1 SSTORE PUSH1 0x2 DUP2 SWAP1 SSTORE PUSH1 0x40 DUP1 MLOAD DUP4 DUP2 MSTORE PUSH1 0x20 DUP2 ADD DUP4 SWAP1 MSTORE PUSH32 0xD1FDB534A9FF53EA58C62004A9A02A5EBC4E8B22EBEE9A02DB482C3678D3A344 SWAP2 ADD PUSH1 0x40 MLOAD DUP1 SWAP2 SUB SWAP1 LOG1 POP POP JUMP JUMPDEST DUP1 MLOAD PUSH1 0x1 PUSH1 0x1 PUSH1 0xA0 SHL SUB DUP2 AND DUP2 EQ PUSH2 0x1D8 JUMPI PUSH1 0x0 DUP1 REVERT JUMPDEST SWAP2 SWAP1 POP JUMP JUMPDEST PUSH1 0x0 DUP1 PUSH1 0x0 DUP1 PUSH1 0x80 DUP6 DUP8 SUB SLT ISZERO PUSH2 0x1F3 JUMPI PUSH1 0x0 DUP1 REVERT JUMPDEST PUSH2 0x1FC DUP6 PUSH2 0x1C1 JUMP JUMPDEST SWAP4 POP PUSH1 0x20 DUP6 ADD MLOAD SWAP3 POP PUSH1 0x40 DUP6 ADD MLOAD SWAP2 POP PUSH2 0x218 PUSH1 0x60 DUP7 ADD PUSH2 0x1C1 JUMP JUMPDEST SWAP1 POP SWAP3 SWAP6 SWAP2 SWAP5 POP SWAP3 POP JUMP JUMPDEST PUSH1 0x80 MLOAD PUSH2 0x57C PUSH2 0x244 PUSH1 0x0 CODECOPY PUSH1 0x0 DUP2 DUP2 PUSH1 0xBB ADD MSTORE PUSH2 0x203 ADD MSTORE PUSH2 0x57C PUSH1 0x0 RETURN INVALID PUSH1 0x80 PUSH1 0x40 MSTORE CALLVALUE DUP1 ISZERO PUSH2 0x10 JUMPI PUSH1 0x0 DUP1 REVERT JUMPDEST POP PUSH1 0x4 CALLDATASIZE LT PUSH2 0x9E JUMPI PUSH1 0x0 CALLDATALOAD PUSH1 0xE0 SHR DUP1 PUSH4 0xC0324C77 GT PUSH2 0x66 JUMPI DUP1 PUSH4 0xC0324C77 EQ PUSH2 0x12A JUMPI DUP1 PUSH4 0xC04418A2 EQ PUSH2 0x13D JUMPI DUP1 PUSH4 0xE6A69AB8 EQ PUSH2 0x146 JUMPI DUP1 PUSH4 0xF2FDE38B EQ PUSH2 0x151 JUMPI DUP1 PUSH4 0xF71BD11B EQ PUSH2 0x164 JUMPI PUSH1 0x0 DUP1 REVERT JUMPDEST DUP1 PUSH4 0x2B8C56D EQ PUSH2 0xA3 JUMPI DUP1 PUSH4 0x3EA29F07 EQ PUSH2 0xB6 JUMPI DUP1 PUSH4 0x715018A6 EQ PUSH2 0xFA JUMPI DUP1 PUSH4 0x8A8DACD8 EQ PUSH2 0x102 JUMPI DUP1 PUSH4 0x8DA5CB5B EQ PUSH2 0x119 JUMPI JUMPDEST PUSH1 0x0 DUP1 REVERT JUMPDEST PUSH2 0xB4 PUSH2 0xB1 CALLDATASIZE PUSH1 0x4 PUSH2 0x45A JUMP JUMPDEST POP JUMP JUMPDEST STOP JUMPDEST PUSH2 0xDD PUSH32 0x0 DUP2 JUMP JUMPDEST PUSH1 0x40 MLOAD PUSH1 0x1 PUSH1 0x1 PUSH1 0xA0 SHL SUB SWAP1 SWAP2 AND DUP2 MSTORE PUSH1 0x20 ADD JUMPDEST PUSH1 0x40 MLOAD DUP1 SWAP2 SUB SWAP1 RETURN JUMPDEST PUSH2 0xB4 PUSH2 0x177 JUMP JUMPDEST PUSH2 0x10B PUSH1 0x1 SLOAD DUP2 JUMP JUMPDEST PUSH1 0x40 MLOAD SWAP1 DUP2 MSTORE PUSH1 0x20 ADD PUSH2 0xF1 JUMP JUMPDEST PUSH1 0x0 SLOAD PUSH1 0x1 PUSH1 0x1 PUSH1 0xA0 SHL SUB AND PUSH2 0xDD JUMP JUMPDEST PUSH2 0xB4 PUSH2 0x138 CALLDATASIZE PUSH1 0x4 PUSH2 0x473 JUMP JUMPDEST PUSH2 0x18B JUMP JUMPDEST PUSH2 0x10B PUSH1 0x2 SLOAD DUP2 JUMP JUMPDEST PUSH2 0x10B PUSH4 0x1E13380 DUP2 JUMP JUMPDEST PUSH2 0xB4 PUSH2 0x15F CALLDATASIZE PUSH1 0x4 PUSH2 0x495 JUMP JUMPDEST PUSH2 0x1A1 JUMP JUMPDEST PUSH2 0x10B PUSH2 0x172 CALLDATASIZE PUSH1 0x4 PUSH2 0x45A JUMP JUMPDEST PUSH2 0x1E1 JUMP JUMPDEST PUSH2 0x17F PUSH2 0x2F5 JUMP JUMPDEST PUSH2 0x189 PUSH1 0x0 PUSH2 0x322 JUMP JUMPDEST JUMP JUMPDEST PUSH2 0x193 PUSH2 0x2F5 JUMP JUMPDEST PUSH2 0x19D DUP3 DUP3 PUSH2 0x372 JUMP JUMPDEST POP POP JUMP JUMPDEST PUSH2 0x1A9 PUSH2 0x2F5 JUMP JUMPDEST PUSH1 0x1 PUSH1 0x1 PUSH1 0xA0 SHL SUB DUP2 AND PUSH2 0x1D8 JUMPI PUSH1 0x40 MLOAD PUSH4 0x1E4FBDF7 PUSH1 0xE0 SHL DUP2 MSTORE PUSH1 0x0 PUSH1 0x4 DUP3 ADD MSTORE PUSH1 0x24 ADD JUMPDEST PUSH1 0x40 MLOAD DUP1 SWAP2 SUB SWAP1 REVERT JUMPDEST PUSH2 0xB1 DUP2 PUSH2 0x322 JUMP JUMPDEST PUSH1 0x0 PUSH8 0xDE0B6B3A7640000 DUP3 GT ISZERO PUSH2 0x1FF JUMPI PUSH8 0xDE0B6B3A7640000 SWAP2 POP JUMPDEST PUSH1 0x0 PUSH32 0x0 PUSH1 0x1 PUSH1 0x1 PUSH1 0xA0 SHL SUB AND PUSH4 0x4C838E1F PUSH1 0x40 MLOAD DUP2 PUSH4 0xFFFFFFFF AND PUSH1 0xE0 SHL DUP2 MSTORE PUSH1 0x4 ADD PUSH1 0x20 PUSH1 0x40 MLOAD DUP1 DUP4 SUB DUP2 DUP7 GAS STATICCALL ISZERO DUP1 ISZERO PUSH2 0x25F JUMPI RETURNDATASIZE PUSH1 0x0 DUP1 RETURNDATACOPY RETURNDATASIZE PUSH1 0x0 REVERT JUMPDEST POP POP POP POP PUSH1 0x40 MLOAD RETURNDATASIZE PUSH1 0x1F NOT PUSH1 0x1F DUP3 ADD AND DUP3 ADD DUP1 PUSH1 0x40 MSTORE POP DUP2 ADD SWAP1 PUSH2 0x283 SWAP2 SWAP1 PUSH2 0x4C5 JUMP JUMPDEST SWAP1 POP PUSH1 0x0 PUSH8 0xDE0B6B3A7640000 DUP3 PUSH1 0x1 SLOAD PUSH2 0x29E SWAP2 SWAP1 PUSH2 0x4F4 JUMP JUMPDEST PUSH2 0x2A8 SWAP2 SWAP1 PUSH2 0x511 JUMP JUMPDEST SWAP1 POP PUSH1 0x0 PUSH8 0xDE0B6B3A7640000 DUP6 PUSH1 0x2 SLOAD PUSH2 0x2C3 SWAP2 SWAP1 PUSH2 0x4F4 JUMP JUMPDEST PUSH2 0x2CD SWAP2 SWAP1 PUSH2 0x511 JUMP JUMPDEST SWAP1 POP PUSH1 0x0 PUSH2 0x2DB DUP3 DUP5 PUSH2 0x533 JUMP JUMPDEST SWAP1 POP PUSH2 0x2EB PUSH4 0x1E13380 DUP3 PUSH2 0x511 JUMP JUMPDEST SWAP7 SWAP6 POP POP POP POP POP POP JUMP JUMPDEST PUSH1 0x0 SLOAD PUSH1 0x1 PUSH1 0x1 PUSH1 0xA0 SHL SUB AND CALLER EQ PUSH2 0x189 JUMPI PUSH1 0x40 MLOAD PUSH4 0x118CDAA7 PUSH1 0xE0 SHL DUP2 MSTORE CALLER PUSH1 0x4 DUP3 ADD MSTORE PUSH1 0x24 ADD PUSH2 0x1CF JUMP JUMPDEST PUSH1 0x0 DUP1 SLOAD PUSH1 0x1 PUSH1 0x1 PUSH1 0xA0 SHL SUB DUP4 DUP2 AND PUSH1 0x1 PUSH1 0x1 PUSH1 0xA0 SHL SUB NOT DUP4 AND DUP2 OR DUP5 SSTORE PUSH1 0x40 MLOAD SWAP2 SWAP1 SWAP3 AND SWAP3 DUP4 SWAP2 PUSH32 0x8BE0079C531659141344CD1FD0A4F28419497F9722A3DAAFE3B4186F6B6457E0 SWAP2 SWAP1 LOG3 POP POP JUMP JUMPDEST PUSH8 0x1BC16D674EC80000 DUP3 GT ISZERO PUSH2 0x3CA JUMPI PUSH1 0x40 MLOAD PUSH3 0x461BCD PUSH1 0xE5 SHL DUP2 MSTORE PUSH1 0x20 PUSH1 0x4 DUP3 ADD MSTORE PUSH1 0x18 PUSH1 0x24 DUP3 ADD MSTORE PUSH32 0x62617365206D756C7469706C69657220746F6F20686967680000000000000000 PUSH1 0x44 DUP3 ADD MSTORE PUSH1 0x64 ADD PUSH2 0x1CF JUMP JUMPDEST PUSH8 0x4563918244F40000 DUP2 GT ISZERO PUSH2 0x413 JUMPI PUSH1 0x40 MLOAD PUSH3 0x461BCD PUSH1 0xE5 SHL DUP2 MSTORE PUSH1 0x20 PUSH1 0x4 DUP3 ADD MSTORE PUSH1 0xE PUSH1 0x24 DUP3 ADD MSTORE PUSH14 0xE6D8DEE0CA40E8DEDE40D0D2CED PUSH1 0x93 SHL PUSH1 0x44 DUP3 ADD MSTORE PUSH1 0x64 ADD PUSH2 0x1CF JUMP JUMPDEST PUSH1 0x1 DUP3 SWAP1 SSTORE PUSH1 0x2 DUP2 SWAP1 SSTORE PUSH1 0x40 DUP1 MLOAD DUP4 DUP2 MSTORE PUSH1 0x20 DUP2 ADD DUP4 SWAP1 MSTORE PUSH32 0xD1FDB534A9FF53EA58C62004A9A02A5EBC4E8B22EBEE9A02DB482C3678D3A344 SWAP2 ADD PUSH1 0x40 MLOAD DUP1 SWAP2 SUB SWAP1 LOG1 POP POP JUMP JUMPDEST PUSH1 0x0 PUSH1 0x20 DUP3 DUP5 SUB SLT ISZERO PUSH2 0x46C JUMPI PUSH1 0x0 DUP1 REVERT JUMPDEST POP CALLDATALOAD SWAP2 SWAP1 POP JUMP JUMPDEST PUSH1 0x0 DUP1 PUSH1 0x40 DUP4 DUP6 SUB SLT ISZERO PUSH2 0x486 JUMPI PUSH1 0x0 DUP1 REVERT JUMPDEST POP POP DUP1 CALLDATALOAD SWAP3 PUSH1 0x20 SWAP1 SWAP2 ADD CALLDATALOAD SWAP2 POP JUMP JUMPDEST PUSH1 0x0 PUSH1 0x20 DUP3 DUP5 SUB SLT ISZERO PUSH2 0x4A7 JUMPI PUSH1 0x0 DUP1 REVERT JUMPDEST DUP2 CALLDATALOAD PUSH1 0x1 PUSH1 0x1 PUSH1 0xA0 SHL SUB DUP2 AND DUP2 EQ PUSH2 0x4BE JUMPI PUSH1 0x0 DUP1 REVERT JUMPDEST SWAP4 SWAP3 POP POP POP JUMP JUMPDEST PUSH1 0x0 PUSH1 0x20 DUP3 DUP5 SUB SLT ISZERO PUSH2 0x4D7 JUMPI PUSH1 0x0 DUP1 REVERT JUMPDEST POP MLOAD SWAP2 SWAP1 POP JUMP JUMPDEST PUSH4 0x4E487B71 PUSH1 0xE0 SHL PUSH1 0x0 MSTORE PUSH1 0x11 PUSH1 0x4 MSTORE PUSH1 0x24 PUSH1 0x0 REVERT JUMPDEST DUP1 DUP3 MUL DUP2 ISZERO DUP3 DUP3 DIV DUP5 EQ OR PUSH2 0x50B JUMPI PUSH2 0x50B PUSH2 0x4DE JUMP JUMPDEST SWAP3 SWAP2 POP POP JUMP JUMPDEST PUSH1 0x0 DUP3 PUSH2 0x52E JUMPI PUSH4 0x4E487B71 PUSH1 0xE0 SHL PUSH1 0x0 MSTORE PUSH1 0x12 PUSH1 0x4 MSTORE PUSH1 0x24 PUSH1 0x0 REVERT JUMPDEST POP DIV SWAP1 JUMP JUMPDEST DUP1 DUP3 ADD DUP1 DUP3 GT ISZERO PUSH2 0x50B JUMPI PUSH2 0x50B PUSH2 0x4DE JUMP INVALID LOG2 PUSH5 0x6970667358 0x22 SLT KECCAK256 0x22 SWAP5 CODECOPY 0xD4 0xCA DUP1 0xDA SWAP12 SWAP5 0x22 EXP DUP4 DUP2 0xFC DUP7 JUMPDEST 0xD8 MULMOD 0xC6 PUSH31 0x6ED36E41C1F62810132A876C64736F6C634300081400330000000000000000 "},"methodIdentifiers":{"SECONDS_PER_YEAR()":"e6a69ab8","baseRateMultiplier()":"8a8dacd8","getBorrowRatePerSecond(uint256)":"f71bd11b","owner()":"8da5cb5b","renounceOwnership()":"715018a6","repoOracle()":"3ea29f07","setParams(uint256,uint256)":"c0324c77","slopeAPR()":"c04418a2","transferOwnership(address)":"f2fde38b","updateBorrowRate(uint256)":"02b8c56d"}}}}}