{"contracts/test/MaliciousERC20.sol":{"MaliciousERC20":{"abi":[{"inputs":[{"internalType":"address","name":"_lendingPool","type":"address"}],"stateMutability":"nonpayable","type":"constructor"},{"inputs":[{"internalType":"address","name":"spender","type":"address"},{"internalType":"uint256","name":"allowance","type":"uint256"},{"internalType":"uint256","name":"needed","type":"uint256"}],"name":"ERC20InsufficientAllowance","type":"error"},{"inputs":[{"internalType":"address","name":"sender","type":"address"},{"internalType":"uint256","name":"balance","type":"uint256"},{"internalType":"uint256","name":"needed","type":"uint256"}],"name":"ERC20InsufficientBalance","type":"error"},{"inputs":[{"internalType":"address","name":"approver","type":"address"}],"name":"ERC20InvalidApprover","type":"error"},{"inputs":[{"internalType":"address","name":"receiver","type":"address"}],"name":"ERC20InvalidReceiver","type":"error"},{"inputs":[{"internalType":"address","name":"sender","type":"address"}],"name":"ERC20InvalidSender","type":"error"},{"inputs":[{"internalType":"address","name":"spender","type":"address"}],"name":"ERC20InvalidSpender","type":"error"},{"inputs":[{"internalType":"address","name":"owner","type":"address"}],"name":"OwnableInvalidOwner","type":"error"},{"inputs":[{"internalType":"address","name":"account","type":"address"}],"name":"OwnableUnauthorizedAccount","type":"error"},{"anonymous":false,"inputs":[{"indexed":true,"internalType":"address","name":"owner","type":"address"},{"indexed":true,"internalType":"address","name":"spender","type":"address"},{"indexed":false,"internalType":"uint256","name":"value","type":"uint256"}],"name":"Approval","type":"event"},{"anonymous":false,"inputs":[{"indexed":true,"internalType":"address","name":"previousOwner","type":"address"},{"indexed":true,"internalType":"address","name":"newOwner","type":"address"}],"name":"OwnershipTransferred","type":"event"},{"anonymous":false,"inputs":[{"indexed":true,"internalType":"address","name":"from","type":"address"},{"indexed":true,"internalType":"address","name":"to","type":"address"},{"indexed":false,"internalType":"uint256","name":"value","type":"uint256"}],"name":"Transfer","type":"event"},{"inputs":[{"internalType":"address","name":"owner","type":"address"},{"internalType":"address","name":"spender","type":"address"}],"name":"allowance","outputs":[{"internalType":"uint256","name":"","type":"uint256"}],"stateMutability":"view","type":"function"},{"inputs":[{"internalType":"address","name":"spender","type":"address"},{"internalType":"uint256","name":"value","type":"uint256"}],"name":"approve","outputs":[{"internalType":"bool","name":"","type":"bool"}],"stateMutability":"nonpayable","type":"function"},{"inputs":[{"internalType":"address","name":"account","type":"address"}],"name":"balanceOf","outputs":[{"internalType":"uint256","name":"","type":"uint256"}],"stateMutability":"view","type":"function"},{"inputs":[],"name":"decimals","outputs":[{"internalType":"uint8","name":"","type":"uint8"}],"stateMutability":"view","type":"function"},{"inputs":[{"internalType":"address","name":"to","type":"address"},{"internalType":"uint256","name":"amount","type":"uint256"}],"name":"mint","outputs":[],"stateMutability":"nonpayable","type":"function"},{"inputs":[],"name":"name","outputs":[{"internalType":"string","name":"","type":"string"}],"stateMutability":"view","type":"function"},{"inputs":[],"name":"owner","outputs":[{"internalType":"address","name":"","type":"address"}],"stateMutability":"view","type":"function"},{"inputs":[],"name":"renounceOwnership","outputs":[],"stateMutability":"nonpayable","type":"function"},{"inputs":[{"internalType":"address","name":"_attacker","type":"address"}],"name":"setAttacker","outputs":[],"stateMutability":"nonpayable","type":"function"},{"inputs":[],"name":"symbol","outputs":[{"internalType":"string","name":"","type":"string"}],"stateMutability":"view","type":"function"},{"inputs":[],"name":"totalSupply","outputs":[{"internalType":"uint256","name":"","type":"uint256"}],"stateMutability":"view","type":"function"},{"inputs":[{"internalType":"address","name":"to","type":"address"},{"internalType":"uint256","name":"value","type":"uint256"}],"name":"transfer","outputs":[{"internalType":"bool","name":"","type":"bool"}],"stateMutability":"nonpayable","type":"function"},{"inputs":[{"internalType":"address","name":"from","type":"address"},{"internalType":"address","name":"to","type":"address"},{"internalType":"uint256","name":"value","type":"uint256"}],"name":"transferFrom","outputs":[{"internalType":"bool","name":"","type":"bool"}],"stateMutability":"nonpayable","type":"function"},{"inputs":[{"internalType":"address","name":"newOwner","type":"address"}],"name":"transferOwnership","outputs":[],"stateMutability":"nonpayable","type":"function"}],"evm":{"bytecode":{"linkReferences":{},"object":"60806040523480156200001157600080fd5b5060405162000ca538038062000ca5833981016040819052620000349162000150565b336040518060400160405280600f81526020016e26b0b634b1b4b7bab9902a37b5b2b760891b8152506040518060400160405280600481526020016326aa25a760e11b81525081600390816200008b919062000227565b5060046200009a828262000227565b5050506001600160a01b038116620000cc57604051631e4fbdf760e01b81526000600482015260240160405180910390fd5b620000d781620000fe565b50600680546001600160a01b0319166001600160a01b0392909216919091179055620002f3565b600580546001600160a01b038381166001600160a01b0319831681179093556040519116919082907f8be0079c531659141344cd1fd0a4f28419497f9722a3daafe3b4186f6b6457e090600090a35050565b6000602082840312156200016357600080fd5b81516001600160a01b03811681146200017b57600080fd5b9392505050565b634e487b7160e01b600052604160045260246000fd5b600181811c90821680620001ad57607f821691505b602082108103620001ce57634e487b7160e01b600052602260045260246000fd5b50919050565b601f8211156200022257600081815260208120601f850160051c81016020861015620001fd5750805b601f850160051c820191505b818110156200021e5782815560010162000209565b5050505b505050565b81516001600160401b0381111562000243576200024362000182565b6200025b8162000254845462000198565b84620001d4565b602080601f8311600181146200029357600084156200027a5750858301515b600019600386901b1c1916600185901b1785556200021e565b600085815260208120601f198616915b82811015620002c457888601518255948401946001909101908401620002a3565b5085821015620002e35787850151600019600388901b60f8161c191681555b5050505050600190811b01905550565b6109a280620003036000396000f3fe608060405234801561001057600080fd5b50600436106100ea5760003560e01c8063715018a61161008c578063a6e1bb6511610066578063a6e1bb65146101cd578063a9059cbb146101e0578063dd62ed3e146101f3578063f2fde38b1461022c57600080fd5b8063715018a6146101a25780638da5cb5b146101aa57806395d89b41146101c557600080fd5b806323b872dd116100c857806323b872dd14610142578063313ce5671461015557806340c10f191461016457806370a082311461017957600080fd5b806306fdde03146100ef578063095ea7b31461010d57806318160ddd14610130575b600080fd5b6100f761023f565b60405161010491906107ec565b60405180910390f35b61012061011b366004610856565b6102d1565b6040519015158152602001610104565b6002545b604051908152602001610104565b610120610150366004610880565b6102eb565b60405160128152602001610104565b610177610172366004610856565b61030f565b005b6101346101873660046108bc565b6001600160a01b031660009081526020819052604090205490565b610177610325565b6005546040516001600160a01b039091168152602001610104565b6100f7610339565b6101776101db3660046108bc565b610348565b6101206101ee366004610856565b610372565b6101346102013660046108de565b6001600160a01b03918216600090815260016020908152604080832093909416825291909152205490565b61017761023a3660046108bc565b610380565b60606003805461024e90610911565b80601f016020809104026020016040519081016040528092919081815260200182805461027a90610911565b80156102c75780601f1061029c576101008083540402835291602001916102c7565b820191906000526020600020905b8154815290600101906020018083116102aa57829003601f168201915b5050505050905090565b6000336102df8185856103c3565b60019150505b92915050565b6000336102f98582856103d5565b610304858585610454565b506001949350505050565b6103176104b3565b61032182826104e0565b5050565b61032d6104b3565b6103376000610516565b565b60606004805461024e90610911565b6103506104b3565b600780546001600160a01b0319166001600160a01b0392909216919091179055565b6000336102df818585610454565b6103886104b3565b6001600160a01b0381166103b757604051631e4fbdf760e01b8152600060048201526024015b60405180910390fd5b6103c081610516565b50565b6103d08383836001610568565b505050565b6001600160a01b0383811660009081526001602090815260408083209386168352929052205460001981101561044e578181101561043f57604051637dc7a0d960e11b81526001600160a01b038416600482015260248101829052604481018390526064016103ae565b61044e84848484036000610568565b50505050565b6001600160a01b03831661047e57604051634b637e8f60e11b8152600060048201526024016103ae565b6001600160a01b0382166104a85760405163ec442f0560e01b8152600060048201526024016103ae565b6103d083838361063d565b6005546001600160a01b031633146103375760405163118cdaa760e01b81523360048201526024016103ae565b6001600160a01b03821661050a5760405163ec442f0560e01b8152600060048201526024016103ae565b6103216000838361063d565b600580546001600160a01b038381166001600160a01b0319831681179093556040519116919082907f8be0079c531659141344cd1fd0a4f28419497f9722a3daafe3b4186f6b6457e090600090a35050565b6001600160a01b0384166105925760405163e602df0560e01b8152600060048201526024016103ae565b6001600160a01b0383166105bc57604051634a1406b160e11b8152600060048201526024016103ae565b6001600160a01b038085166000908152600160209081526040808320938716835292905220829055801561044e57826001600160a01b0316846001600160a01b03167f8c5be1e5ebec7d5bd14f71427d1e84f3dd0314c0f7b2291e5b200ac8c7c3b9258460405161062f91815260200190565b60405180910390a350505050565b6007546001600160a01b03908116908316036106bc57600760009054906101000a90046001600160a01b03166001600160a01b031663a0fe97e36040518163ffffffff1660e01b8152600401600060405180830381600087803b1580156106a357600080fd5b505af11580156106b7573d6000803e3d6000fd5b505050505b6103d08383836001600160a01b0383166106ed5780600260008282546106e2919061094b565b9091555061075f9050565b6001600160a01b038316600090815260208190526040902054818110156107405760405163391434e360e21b81526001600160a01b038516600482015260248101829052604481018390526064016103ae565b6001600160a01b03841660009081526020819052604090209082900390555b6001600160a01b03821661077b5760028054829003905561079a565b6001600160a01b03821660009081526020819052604090208054820190555b816001600160a01b0316836001600160a01b03167fddf252ad1be2c89b69c2b068fc378daa952ba7f163c4a11628f55a4df523b3ef836040516107df91815260200190565b60405180910390a3505050565b600060208083528351808285015260005b81811015610819578581018301518582016040015282016107fd565b506000604082860101526040601f19601f8301168501019250505092915050565b80356001600160a01b038116811461085157600080fd5b919050565b6000806040838503121561086957600080fd5b6108728361083a565b946020939093013593505050565b60008060006060848603121561089557600080fd5b61089e8461083a565b92506108ac6020850161083a565b9150604084013590509250925092565b6000602082840312156108ce57600080fd5b6108d78261083a565b9392505050565b600080604083850312156108f157600080fd5b6108fa8361083a565b91506109086020840161083a565b90509250929050565b600181811c9082168061092557607f821691505b60208210810361094557634e487b7160e01b600052602260045260246000fd5b50919050565b808201808211156102e557634e487b7160e01b600052601160045260246000fdfea2646970667358221220fc9e88a553945b2dce97d20aa7b17e10e29380d2fb2338d0308e1cffb1f0facd64736f6c63430008140033","opcodes":"PUSH1 0x80 PUSH1 0x40 MSTORE CALLVALUE DUP1 ISZERO PUSH3 0x11 JUMPI PUSH1 0x0 DUP1 REVERT JUMPDEST POP PUSH1 0x40 MLOAD PUSH3 0xCA5 CODESIZE SUB DUP1 PUSH3 0xCA5 DUP4 CODECOPY DUP2 ADD PUSH1 0x40 DUP2 SWAP1 MSTORE PUSH3 0x34 SWAP2 PUSH3 0x150 JUMP JUMPDEST CALLER PUSH1 0x40 MLOAD DUP1 PUSH1 0x40 ADD PUSH1 0x40 MSTORE DUP1 PUSH1 0xF DUP2 MSTORE PUSH1 0x20 ADD PUSH15 0x26B0B634B1B4B7BAB9902A37B5B2B7 PUSH1 0x89 SHL DUP2 MSTORE POP PUSH1 0x40 MLOAD DUP1 PUSH1 0x40 ADD PUSH1 0x40 MSTORE DUP1 PUSH1 0x4 DUP2 MSTORE PUSH1 0x20 ADD PUSH4 0x26AA25A7 PUSH1 0xE1 SHL DUP2 MSTORE POP DUP2 PUSH1 0x3 SWAP1 DUP2 PUSH3 0x8B SWAP2 SWAP1 PUSH3 0x227 JUMP JUMPDEST POP PUSH1 0x4 PUSH3 0x9A DUP3 DUP3 PUSH3 0x227 JUMP JUMPDEST POP POP POP PUSH1 0x1 PUSH1 0x1 PUSH1 0xA0 SHL SUB DUP2 AND PUSH3 0xCC JUMPI PUSH1 0x40 MLOAD PUSH4 0x1E4FBDF7 PUSH1 0xE0 SHL DUP2 MSTORE PUSH1 0x0 PUSH1 0x4 DUP3 ADD MSTORE PUSH1 0x24 ADD PUSH1 0x40 MLOAD DUP1 SWAP2 SUB SWAP1 REVERT JUMPDEST PUSH3 0xD7 DUP2 PUSH3 0xFE JUMP JUMPDEST POP PUSH1 0x6 DUP1 SLOAD PUSH1 0x1 PUSH1 0x1 PUSH1 0xA0 SHL SUB NOT AND PUSH1 0x1 PUSH1 0x1 PUSH1 0xA0 SHL SUB SWAP3 SWAP1 SWAP3 AND SWAP2 SWAP1 SWAP2 OR SWAP1 SSTORE PUSH3 0x2F3 JUMP JUMPDEST PUSH1 0x5 DUP1 SLOAD PUSH1 0x1 PUSH1 0x1 PUSH1 0xA0 SHL SUB DUP4 DUP2 AND PUSH1 0x1 PUSH1 0x1 PUSH1 0xA0 SHL SUB NOT DUP4 AND DUP2 OR SWAP1 SWAP4 SSTORE PUSH1 0x40 MLOAD SWAP2 AND SWAP2 SWAP1 DUP3 SWAP1 PUSH32 0x8BE0079C531659141344CD1FD0A4F28419497F9722A3DAAFE3B4186F6B6457E0 SWAP1 PUSH1 0x0 SWAP1 LOG3 POP POP JUMP JUMPDEST PUSH1 0x0 PUSH1 0x20 DUP3 DUP5 SUB SLT ISZERO PUSH3 0x163 JUMPI PUSH1 0x0 DUP1 REVERT JUMPDEST DUP2 MLOAD PUSH1 0x1 PUSH1 0x1 PUSH1 0xA0 SHL SUB DUP2 AND DUP2 EQ PUSH3 0x17B JUMPI PUSH1 0x0 DUP1 REVERT JUMPDEST SWAP4 SWAP3 POP POP POP JUMP JUMPDEST PUSH4 0x4E487B71 PUSH1 0xE0 SHL PUSH1 0x0 MSTORE PUSH1 0x41 PUSH1 0x4 MSTORE PUSH1 0x24 PUSH1 0x0 REVERT JUMPDEST PUSH1 0x1 DUP2 DUP2 SHR SWAP1 DUP3 AND DUP1 PUSH3 0x1AD JUMPI PUSH1 0x7F DUP3 AND SWAP2 POP JUMPDEST PUSH1 0x20 DUP3 LT DUP2 SUB PUSH3 0x1CE JUMPI PUSH4 0x4E487B71 PUSH1 0xE0 SHL PUSH1 0x0 MSTORE PUSH1 0x22 PUSH1 0x4 MSTORE PUSH1 0x24 PUSH1 0x0 REVERT JUMPDEST POP SWAP2 SWAP1 POP JUMP JUMPDEST PUSH1 0x1F DUP3 GT ISZERO PUSH3 0x222 JUMPI PUSH1 0x0 DUP2 DUP2 MSTORE PUSH1 0x20 DUP2 KECCAK256 PUSH1 0x1F DUP6 ADD PUSH1 0x5 SHR DUP2 ADD PUSH1 0x20 DUP7 LT ISZERO PUSH3 0x1FD JUMPI POP DUP1 JUMPDEST PUSH1 0x1F DUP6 ADD PUSH1 0x5 SHR DUP3 ADD SWAP2 POP JUMPDEST DUP2 DUP2 LT ISZERO PUSH3 0x21E JUMPI DUP3 DUP2 SSTORE PUSH1 0x1 ADD PUSH3 0x209 JUMP JUMPDEST POP POP POP JUMPDEST POP POP POP JUMP JUMPDEST DUP2 MLOAD PUSH1 0x1 PUSH1 0x1 PUSH1 0x40 SHL SUB DUP2 GT ISZERO PUSH3 0x243 JUMPI PUSH3 0x243 PUSH3 0x182 JUMP JUMPDEST PUSH3 0x25B DUP2 PUSH3 0x254 DUP5 SLOAD PUSH3 0x198 JUMP JUMPDEST DUP5 PUSH3 0x1D4 JUMP JUMPDEST PUSH1 0x20 DUP1 PUSH1 0x1F DUP4 GT PUSH1 0x1 DUP2 EQ PUSH3 0x293 JUMPI PUSH1 0x0 DUP5 ISZERO PUSH3 0x27A JUMPI POP DUP6 DUP4 ADD MLOAD JUMPDEST PUSH1 0x0 NOT PUSH1 0x3 DUP7 SWAP1 SHL SHR NOT AND PUSH1 0x1 DUP6 SWAP1 SHL OR DUP6 SSTORE PUSH3 0x21E JUMP JUMPDEST PUSH1 0x0 DUP6 DUP2 MSTORE PUSH1 0x20 DUP2 KECCAK256 PUSH1 0x1F NOT DUP7 AND SWAP2 JUMPDEST DUP3 DUP2 LT ISZERO PUSH3 0x2C4 JUMPI DUP9 DUP7 ADD MLOAD DUP3 SSTORE SWAP5 DUP5 ADD SWAP5 PUSH1 0x1 SWAP1 SWAP2 ADD SWAP1 DUP5 ADD PUSH3 0x2A3 JUMP JUMPDEST POP DUP6 DUP3 LT ISZERO PUSH3 0x2E3 JUMPI DUP8 DUP6 ADD MLOAD PUSH1 0x0 NOT PUSH1 0x3 DUP9 SWAP1 SHL PUSH1 0xF8 AND SHR NOT AND DUP2 SSTORE JUMPDEST POP POP POP POP POP PUSH1 0x1 SWAP1 DUP2 SHL ADD SWAP1 SSTORE POP JUMP JUMPDEST PUSH2 0x9A2 DUP1 PUSH3 0x303 PUSH1 0x0 CODECOPY PUSH1 0x0 RETURN INVALID PUSH1 0x80 PUSH1 0x40 MSTORE CALLVALUE DUP1 ISZERO PUSH2 0x10 JUMPI PUSH1 0x0 DUP1 REVERT JUMPDEST POP PUSH1 0x4 CALLDATASIZE LT PUSH2 0xEA JUMPI PUSH1 0x0 CALLDATALOAD PUSH1 0xE0 SHR DUP1 PUSH4 0x715018A6 GT PUSH2 0x8C JUMPI DUP1 PUSH4 0xA6E1BB65 GT PUSH2 0x66 JUMPI DUP1 PUSH4 0xA6E1BB65 EQ PUSH2 0x1CD JUMPI DUP1 PUSH4 0xA9059CBB EQ PUSH2 0x1E0 JUMPI DUP1 PUSH4 0xDD62ED3E EQ PUSH2 0x1F3 JUMPI DUP1 PUSH4 0xF2FDE38B EQ PUSH2 0x22C JUMPI PUSH1 0x0 DUP1 REVERT JUMPDEST DUP1 PUSH4 0x715018A6 EQ PUSH2 0x1A2 JUMPI DUP1 PUSH4 0x8DA5CB5B EQ PUSH2 0x1AA JUMPI DUP1 PUSH4 0x95D89B41 EQ PUSH2 0x1C5 JUMPI PUSH1 0x0 DUP1 REVERT JUMPDEST DUP1 PUSH4 0x23B872DD GT PUSH2 0xC8 JUMPI DUP1 PUSH4 0x23B872DD EQ PUSH2 0x142 JUMPI DUP1 PUSH4 0x313CE567 EQ PUSH2 0x155 JUMPI DUP1 PUSH4 0x40C10F19 EQ PUSH2 0x164 JUMPI DUP1 PUSH4 0x70A08231 EQ PUSH2 0x179 JUMPI PUSH1 0x0 DUP1 REVERT JUMPDEST DUP1 PUSH4 0x6FDDE03 EQ PUSH2 0xEF JUMPI DUP1 PUSH4 0x95EA7B3 EQ PUSH2 0x10D JUMPI DUP1 PUSH4 0x18160DDD EQ PUSH2 0x130 JUMPI JUMPDEST PUSH1 0x0 DUP1 REVERT JUMPDEST PUSH2 0xF7 PUSH2 0x23F JUMP JUMPDEST PUSH1 0x40 MLOAD PUSH2 0x104 SWAP2 SWAP1 PUSH2 0x7EC JUMP JUMPDEST PUSH1 0x40 MLOAD DUP1 SWAP2 SUB SWAP1 RETURN JUMPDEST PUSH2 0x120 PUSH2 0x11B CALLDATASIZE PUSH1 0x4 PUSH2 0x856 JUMP JUMPDEST PUSH2 0x2D1 JUMP JUMPDEST PUSH1 0x40 MLOAD SWAP1 ISZERO ISZERO DUP2 MSTORE PUSH1 0x20 ADD PUSH2 0x104 JUMP JUMPDEST PUSH1 0x2 SLOAD JUMPDEST PUSH1 0x40 MLOAD SWAP1 DUP2 MSTORE PUSH1 0x20 ADD PUSH2 0x104 JUMP JUMPDEST PUSH2 0x120 PUSH2 0x150 CALLDATASIZE PUSH1 0x4 PUSH2 0x880 JUMP JUMPDEST PUSH2 0x2EB JUMP JUMPDEST PUSH1 0x40 MLOAD PUSH1 0x12 DUP2 MSTORE PUSH1 0x20 ADD PUSH2 0x104 JUMP JUMPDEST PUSH2 0x177 PUSH2 0x172 CALLDATASIZE PUSH1 0x4 PUSH2 0x856 JUMP JUMPDEST PUSH2 0x30F JUMP JUMPDEST STOP JUMPDEST PUSH2 0x134 PUSH2 0x187 CALLDATASIZE PUSH1 0x4 PUSH2 0x8BC JUMP JUMPDEST PUSH1 0x1 PUSH1 0x1 PUSH1 0xA0 SHL SUB AND PUSH1 0x0 SWAP1 DUP2 MSTORE PUSH1 0x20 DUP2 SWAP1 MSTORE PUSH1 0x40 SWAP1 KECCAK256 SLOAD SWAP1 JUMP JUMPDEST PUSH2 0x177 PUSH2 0x325 JUMP JUMPDEST PUSH1 0x5 SLOAD PUSH1 0x40 MLOAD PUSH1 0x1 PUSH1 0x1 PUSH1 0xA0 SHL SUB SWAP1 SWAP2 AND DUP2 MSTORE PUSH1 0x20 ADD PUSH2 0x104 JUMP JUMPDEST PUSH2 0xF7 PUSH2 0x339 JUMP JUMPDEST PUSH2 0x177 PUSH2 0x1DB CALLDATASIZE PUSH1 0x4 PUSH2 0x8BC JUMP JUMPDEST PUSH2 0x348 JUMP JUMPDEST PUSH2 0x120 PUSH2 0x1EE CALLDATASIZE PUSH1 0x4 PUSH2 0x856 JUMP JUMPDEST PUSH2 0x372 JUMP JUMPDEST PUSH2 0x134 PUSH2 0x201 CALLDATASIZE PUSH1 0x4 PUSH2 0x8DE JUMP JUMPDEST PUSH1 0x1 PUSH1 0x1 PUSH1 0xA0 SHL SUB SWAP2 DUP3 AND PUSH1 0x0 SWAP1 DUP2 MSTORE PUSH1 0x1 PUSH1 0x20 SWAP1 DUP2 MSTORE PUSH1 0x40 DUP1 DUP4 KECCAK256 SWAP4 SWAP1 SWAP5 AND DUP3 MSTORE SWAP2 SWAP1 SWAP2 MSTORE KECCAK256 SLOAD SWAP1 JUMP JUMPDEST PUSH2 0x177 PUSH2 0x23A CALLDATASIZE PUSH1 0x4 PUSH2 0x8BC JUMP JUMPDEST PUSH2 0x380 JUMP JUMPDEST PUSH1 0x60 PUSH1 0x3 DUP1 SLOAD PUSH2 0x24E SWAP1 PUSH2 0x911 JUMP JUMPDEST DUP1 PUSH1 0x1F ADD PUSH1 0x20 DUP1 SWAP2 DIV MUL PUSH1 0x20 ADD PUSH1 0x40 MLOAD SWAP1 DUP2 ADD PUSH1 0x40 MSTORE DUP1 SWAP3 SWAP2 SWAP1 DUP2 DUP2 MSTORE PUSH1 0x20 ADD DUP3 DUP1 SLOAD PUSH2 0x27A SWAP1 PUSH2 0x911 JUMP JUMPDEST DUP1 ISZERO PUSH2 0x2C7 JUMPI DUP1 PUSH1 0x1F LT PUSH2 0x29C JUMPI PUSH2 0x100 DUP1 DUP4 SLOAD DIV MUL DUP4 MSTORE SWAP2 PUSH1 0x20 ADD SWAP2 PUSH2 0x2C7 JUMP JUMPDEST DUP3 ADD SWAP2 SWAP1 PUSH1 0x0 MSTORE PUSH1 0x20 PUSH1 0x0 KECCAK256 SWAP1 JUMPDEST DUP2 SLOAD DUP2 MSTORE SWAP1 PUSH1 0x1 ADD SWAP1 PUSH1 0x20 ADD DUP1 DUP4 GT PUSH2 0x2AA JUMPI DUP3 SWAP1 SUB PUSH1 0x1F AND DUP3 ADD SWAP2 JUMPDEST POP POP POP POP POP SWAP1 POP SWAP1 JUMP JUMPDEST PUSH1 0x0 CALLER PUSH2 0x2DF DUP2 DUP6 DUP6 PUSH2 0x3C3 JUMP JUMPDEST PUSH1 0x1 SWAP2 POP POP JUMPDEST SWAP3 SWAP2 POP POP JUMP JUMPDEST PUSH1 0x0 CALLER PUSH2 0x2F9 DUP6 DUP3 DUP6 PUSH2 0x3D5 JUMP JUMPDEST PUSH2 0x304 DUP6 DUP6 DUP6 PUSH2 0x454 JUMP JUMPDEST POP PUSH1 0x1 SWAP5 SWAP4 POP POP POP POP JUMP JUMPDEST PUSH2 0x317 PUSH2 0x4B3 JUMP JUMPDEST PUSH2 0x321 DUP3 DUP3 PUSH2 0x4E0 JUMP JUMPDEST POP POP JUMP JUMPDEST PUSH2 0x32D PUSH2 0x4B3 JUMP JUMPDEST PUSH2 0x337 PUSH1 0x0 PUSH2 0x516 JUMP JUMPDEST JUMP JUMPDEST PUSH1 0x60 PUSH1 0x4 DUP1 SLOAD PUSH2 0x24E SWAP1 PUSH2 0x911 JUMP JUMPDEST PUSH2 0x350 PUSH2 0x4B3 JUMP JUMPDEST PUSH1 0x7 DUP1 SLOAD PUSH1 0x1 PUSH1 0x1 PUSH1 0xA0 SHL SUB NOT AND PUSH1 0x1 PUSH1 0x1 PUSH1 0xA0 SHL SUB SWAP3 SWAP1 SWAP3 AND SWAP2 SWAP1 SWAP2 OR SWAP1 SSTORE JUMP JUMPDEST PUSH1 0x0 CALLER PUSH2 0x2DF DUP2 DUP6 DUP6 PUSH2 0x454 JUMP JUMPDEST PUSH2 0x388 PUSH2 0x4B3 JUMP JUMPDEST PUSH1 0x1 PUSH1 0x1 PUSH1 0xA0 SHL SUB DUP2 AND PUSH2 0x3B7 JUMPI PUSH1 0x40 MLOAD PUSH4 0x1E4FBDF7 PUSH1 0xE0 SHL DUP2 MSTORE PUSH1 0x0 PUSH1 0x4 DUP3 ADD MSTORE PUSH1 0x24 ADD JUMPDEST PUSH1 0x40 MLOAD DUP1 SWAP2 SUB SWAP1 REVERT JUMPDEST PUSH2 0x3C0 DUP2 PUSH2 0x516 JUMP JUMPDEST POP JUMP JUMPDEST PUSH2 0x3D0 DUP4 DUP4 DUP4 PUSH1 0x1 PUSH2 0x568 JUMP JUMPDEST POP POP POP JUMP JUMPDEST PUSH1 0x1 PUSH1 0x1 PUSH1 0xA0 SHL SUB DUP4 DUP2 AND PUSH1 0x0 SWAP1 DUP2 MSTORE PUSH1 0x1 PUSH1 0x20 SWAP1 DUP2 MSTORE PUSH1 0x40 DUP1 DUP4 KECCAK256 SWAP4 DUP7 AND DUP4 MSTORE SWAP3 SWAP1 MSTORE KECCAK256 SLOAD PUSH1 0x0 NOT DUP2 LT ISZERO PUSH2 0x44E JUMPI DUP2 DUP2 LT ISZERO PUSH2 0x43F JUMPI PUSH1 0x40 MLOAD PUSH4 0x7DC7A0D9 PUSH1 0xE1 SHL DUP2 MSTORE PUSH1 0x1 PUSH1 0x1 PUSH1 0xA0 SHL SUB DUP5 AND PUSH1 0x4 DUP3 ADD MSTORE PUSH1 0x24 DUP2 ADD DUP3 SWAP1 MSTORE PUSH1 0x44 DUP2 ADD DUP4 SWAP1 MSTORE PUSH1 0x64 ADD PUSH2 0x3AE JUMP JUMPDEST PUSH2 0x44E DUP5 DUP5 DUP5 DUP5 SUB PUSH1 0x0 PUSH2 0x568 JUMP JUMPDEST POP POP POP POP JUMP JUMPDEST PUSH1 0x1 PUSH1 0x1 PUSH1 0xA0 SHL SUB DUP4 AND PUSH2 0x47E JUMPI PUSH1 0x40 MLOAD PUSH4 0x4B637E8F PUSH1 0xE1 SHL DUP2 MSTORE PUSH1 0x0 PUSH1 0x4 DUP3 ADD MSTORE PUSH1 0x24 ADD PUSH2 0x3AE JUMP JUMPDEST PUSH1 0x1 PUSH1 0x1 PUSH1 0xA0 SHL SUB DUP3 AND PUSH2 0x4A8 JUMPI PUSH1 0x40 MLOAD PUSH4 0xEC442F05 PUSH1 0xE0 SHL DUP2 MSTORE PUSH1 0x0 PUSH1 0x4 DUP3 ADD MSTORE PUSH1 0x24 ADD PUSH2 0x3AE JUMP JUMPDEST PUSH2 0x3D0 DUP4 DUP4 DUP4 PUSH2 0x63D JUMP JUMPDEST PUSH1 0x5 SLOAD PUSH1 0x1 PUSH1 0x1 PUSH1 0xA0 SHL SUB AND CALLER EQ PUSH2 0x337 JUMPI PUSH1 0x40 MLOAD PUSH4 0x118CDAA7 PUSH1 0xE0 SHL DUP2 MSTORE CALLER PUSH1 0x4 DUP3 ADD MSTORE PUSH1 0x24 ADD PUSH2 0x3AE JUMP JUMPDEST PUSH1 0x1 PUSH1 0x1 PUSH1 0xA0 SHL SUB DUP3 AND PUSH2 0x50A JUMPI PUSH1 0x40 MLOAD PUSH4 0xEC442F05 PUSH1 0xE0 SHL DUP2 MSTORE PUSH1 0x0 PUSH1 0x4 DUP3 ADD MSTORE PUSH1 0x24 ADD PUSH2 0x3AE JUMP JUMPDEST PUSH2 0x321 PUSH1 0x0 DUP4 DUP4 PUSH2 0x63D JUMP JUMPDEST PUSH1 0x5 DUP1 SLOAD PUSH1 0x1 PUSH1 0x1 PUSH1 0xA0 SHL SUB DUP4 DUP2 AND PUSH1 0x1 PUSH1 0x1 PUSH1 0xA0 SHL SUB NOT DUP4 AND DUP2 OR SWAP1 SWAP4 SSTORE PUSH1 0x40 MLOAD SWAP2 AND SWAP2 SWAP1 DUP3 SWAP1 PUSH32 0x8BE0079C531659141344CD1FD0A4F28419497F9722A3DAAFE3B4186F6B6457E0 SWAP1 PUSH1 0x0 SWAP1 LOG3 POP POP JUMP JUMPDEST PUSH1 0x1 PUSH1 0x1 PUSH1 0xA0 SHL SUB DUP5 AND PUSH2 0x592 JUMPI PUSH1 0x40 MLOAD PUSH4 0xE602DF05 PUSH1 0xE0 SHL DUP2 MSTORE PUSH1 0x0 PUSH1 0x4 DUP3 ADD MSTORE PUSH1 0x24 ADD PUSH2 0x3AE JUMP JUMPDEST PUSH1 0x1 PUSH1 0x1 PUSH1 0xA0 SHL SUB DUP4 AND PUSH2 0x5BC JUMPI PUSH1 0x40 MLOAD PUSH4 0x4A1406B1 PUSH1 0xE1 SHL DUP2 MSTORE PUSH1 0x0 PUSH1 0x4 DUP3 ADD MSTORE PUSH1 0x24 ADD PUSH2 0x3AE JUMP JUMPDEST PUSH1 0x1 PUSH1 0x1 PUSH1 0xA0 SHL SUB DUP1 DUP6 AND PUSH1 0x0 SWAP1 DUP2 MSTORE PUSH1 0x1 PUSH1 0x20 SWAP1 DUP2 MSTORE PUSH1 0x40 DUP1 DUP4 KECCAK256 SWAP4 DUP8 AND DUP4 MSTORE SWAP3 SWAP1 MSTORE KECCAK256 DUP3 SWAP1 SSTORE DUP1 ISZERO PUSH2 0x44E JUMPI DUP3 PUSH1 0x1 PUSH1 0x1 PUSH1 0xA0 SHL SUB AND DUP5 PUSH1 0x1 PUSH1 0x1 PUSH1 0xA0 SHL SUB AND PUSH32 0x8C5BE1E5EBEC7D5BD14F71427D1E84F3DD0314C0F7B2291E5B200AC8C7C3B925 DUP5 PUSH1 0x40 MLOAD PUSH2 0x62F SWAP2 DUP2 MSTORE PUSH1 0x20 ADD SWAP1 JUMP JUMPDEST PUSH1 0x40 MLOAD DUP1 SWAP2 SUB SWAP1 LOG3 POP POP POP POP JUMP JUMPDEST PUSH1 0x7 SLOAD PUSH1 0x1 PUSH1 0x1 PUSH1 0xA0 SHL SUB SWAP1 DUP2 AND SWAP1 DUP4 AND SUB PUSH2 0x6BC JUMPI PUSH1 0x7 PUSH1 0x0 SWAP1 SLOAD SWAP1 PUSH2 0x100 EXP SWAP1 DIV PUSH1 0x1 PUSH1 0x1 PUSH1 0xA0 SHL SUB AND PUSH1 0x1 PUSH1 0x1 PUSH1 0xA0 SHL SUB AND PUSH4 0xA0FE97E3 PUSH1 0x40 MLOAD DUP2 PUSH4 0xFFFFFFFF AND PUSH1 0xE0 SHL DUP2 MSTORE PUSH1 0x4 ADD PUSH1 0x0 PUSH1 0x40 MLOAD DUP1 DUP4 SUB DUP2 PUSH1 0x0 DUP8 DUP1 EXTCODESIZE ISZERO DUP1 ISZERO PUSH2 0x6A3 JUMPI PUSH1 0x0 DUP1 REVERT JUMPDEST POP GAS CALL ISZERO DUP1 ISZERO PUSH2 0x6B7 JUMPI RETURNDATASIZE PUSH1 0x0 DUP1 RETURNDATACOPY RETURNDATASIZE PUSH1 0x0 REVERT JUMPDEST POP POP POP POP JUMPDEST PUSH2 0x3D0 DUP4 DUP4 DUP4 PUSH1 0x1 PUSH1 0x1 PUSH1 0xA0 SHL SUB DUP4 AND PUSH2 0x6ED JUMPI DUP1 PUSH1 0x2 PUSH1 0x0 DUP3 DUP3 SLOAD PUSH2 0x6E2 SWAP2 SWAP1 PUSH2 0x94B JUMP JUMPDEST SWAP1 SWAP2 SSTORE POP PUSH2 0x75F SWAP1 POP JUMP JUMPDEST PUSH1 0x1 PUSH1 0x1 PUSH1 0xA0 SHL SUB DUP4 AND PUSH1 0x0 SWAP1 DUP2 MSTORE PUSH1 0x20 DUP2 SWAP1 MSTORE PUSH1 0x40 SWAP1 KECCAK256 SLOAD DUP2 DUP2 LT ISZERO PUSH2 0x740 JUMPI PUSH1 0x40 MLOAD PUSH4 0x391434E3 PUSH1 0xE2 SHL DUP2 MSTORE PUSH1 0x1 PUSH1 0x1 PUSH1 0xA0 SHL SUB DUP6 AND PUSH1 0x4 DUP3 ADD MSTORE PUSH1 0x24 DUP2 ADD DUP3 SWAP1 MSTORE PUSH1 0x44 DUP2 ADD DUP4 SWAP1 MSTORE PUSH1 0x64 ADD PUSH2 0x3AE JUMP JUMPDEST PUSH1 0x1 PUSH1 0x1 PUSH1 0xA0 SHL SUB DUP5 AND PUSH1 0x0 SWAP1 DUP2 MSTORE PUSH1 0x20 DUP2 SWAP1 MSTORE PUSH1 0x40 SWAP1 KECCAK256 SWAP1 DUP3 SWAP1 SUB SWAP1 SSTORE JUMPDEST PUSH1 0x1 PUSH1 0x1 PUSH1 0xA0 SHL SUB DUP3 AND PUSH2 0x77B JUMPI PUSH1 0x2 DUP1 SLOAD DUP3 SWAP1 SUB SWAP1 SSTORE PUSH2 0x79A JUMP JUMPDEST PUSH1 0x1 PUSH1 0x1 PUSH1 0xA0 SHL SUB DUP3 AND PUSH1 0x0 SWAP1 DUP2 MSTORE PUSH1 0x20 DUP2 SWAP1 MSTORE PUSH1 0x40 SWAP1 KECCAK256 DUP1 SLOAD DUP3 ADD SWAP1 SSTORE JUMPDEST DUP2 PUSH1 0x1 PUSH1 0x1 PUSH1 0xA0 SHL SUB AND DUP4 PUSH1 0x1 PUSH1 0x1 PUSH1 0xA0 SHL SUB AND PUSH32 0xDDF252AD1BE2C89B69C2B068FC378DAA952BA7F163C4A11628F55A4DF523B3EF DUP4 PUSH1 0x40 MLOAD PUSH2 0x7DF SWAP2 DUP2 MSTORE PUSH1 0x20 ADD SWAP1 JUMP JUMPDEST PUSH1 0x40 MLOAD DUP1 SWAP2 SUB SWAP1 LOG3 POP POP POP JUMP JUMPDEST PUSH1 0x0 PUSH1 0x20 DUP1 DUP4 MSTORE DUP4 MLOAD DUP1 DUP3 DUP6 ADD MSTORE PUSH1 0x0 JUMPDEST DUP2 DUP2 LT ISZERO PUSH2 0x819 JUMPI DUP6 DUP2 ADD DUP4 ADD MLOAD DUP6 DUP3 ADD PUSH1 0x40 ADD MSTORE DUP3 ADD PUSH2 0x7FD JUMP JUMPDEST POP PUSH1 0x0 PUSH1 0x40 DUP3 DUP7 ADD ADD MSTORE PUSH1 0x40 PUSH1 0x1F NOT PUSH1 0x1F DUP4 ADD AND DUP6 ADD ADD SWAP3 POP POP POP SWAP3 SWAP2 POP POP JUMP JUMPDEST DUP1 CALLDATALOAD PUSH1 0x1 PUSH1 0x1 PUSH1 0xA0 SHL SUB DUP2 AND DUP2 EQ PUSH2 0x851 JUMPI PUSH1 0x0 DUP1 REVERT JUMPDEST SWAP2 SWAP1 POP JUMP JUMPDEST PUSH1 0x0 DUP1 PUSH1 0x40 DUP4 DUP6 SUB SLT ISZERO PUSH2 0x869 JUMPI PUSH1 0x0 DUP1 REVERT JUMPDEST PUSH2 0x872 DUP4 PUSH2 0x83A JUMP JUMPDEST SWAP5 PUSH1 0x20 SWAP4 SWAP1 SWAP4 ADD CALLDATALOAD SWAP4 POP POP POP JUMP JUMPDEST PUSH1 0x0 DUP1 PUSH1 0x0 PUSH1 0x60 DUP5 DUP7 SUB SLT ISZERO PUSH2 0x895 JUMPI PUSH1 0x0 DUP1 REVERT JUMPDEST PUSH2 0x89E DUP5 PUSH2 0x83A JUMP JUMPDEST SWAP3 POP PUSH2 0x8AC PUSH1 0x20 DUP6 ADD PUSH2 0x83A JUMP JUMPDEST SWAP2 POP PUSH1 0x40 DUP5 ADD CALLDATALOAD SWAP1 POP SWAP3 POP SWAP3 POP SWAP3 JUMP JUMPDEST PUSH1 0x0 PUSH1 0x20 DUP3 DUP5 SUB SLT ISZERO PUSH2 0x8CE JUMPI PUSH1 0x0 DUP1 REVERT JUMPDEST PUSH2 0x8D7 DUP3 PUSH2 0x83A JUMP JUMPDEST SWAP4 SWAP3 POP POP POP JUMP JUMPDEST PUSH1 0x0 DUP1 PUSH1 0x40 DUP4 DUP6 SUB SLT ISZERO PUSH2 0x8F1 JUMPI PUSH1 0x0 DUP1 REVERT JUMPDEST PUSH2 0x8FA DUP4 PUSH2 0x83A JUMP JUMPDEST SWAP2 POP PUSH2 0x908 PUSH1 0x20 DUP5 ADD PUSH2 0x83A JUMP JUMPDEST SWAP1 POP SWAP3 POP SWAP3 SWAP1 POP JUMP JUMPDEST PUSH1 0x1 DUP2 DUP2 SHR SWAP1 DUP3 AND DUP1 PUSH2 0x925 JUMPI PUSH1 0x7F DUP3 AND SWAP2 POP JUMPDEST PUSH1 0x20 DUP3 LT DUP2 SUB PUSH2 0x945 JUMPI PUSH4 0x4E487B71 PUSH1 0xE0 SHL PUSH1 0x0 MSTORE PUSH1 0x22 PUSH1 0x4 MSTORE PUSH1 0x24 PUSH1 0x0 REVERT JUMPDEST POP SWAP2 SWAP1 POP JUMP JUMPDEST DUP1 DUP3 ADD DUP1 DUP3 GT ISZERO PUSH2 0x2E5 JUMPI PUSH4 0x4E487B71 PUSH1 0xE0 SHL PUSH1 0x0 MSTORE PUSH1 0x11 PUSH1 0x4 MSTORE PUSH1 0x24 PUSH1 0x0 REVERT INVALID LOG2 PUSH5 0x6970667358 0x22 SLT KECCAK256 0xFC SWAP15 DUP9 0xA5 MSTORE8 SWAP5 JUMPDEST 0x2D 0xCE SWAP8 0xD2 EXP 0xA7 0xB1 PUSH31 0x10E29380D2FB2338D0308E1CFFB1F0FACD64736F6C63430008140033000000 "},"methodIdentifiers":{"allowance(address,address)":"dd62ed3e","approve(address,uint256)":"095ea7b3","balanceOf(address)":"70a08231","decimals()":"313ce567","mint(address,uint256)":"40c10f19","name()":"06fdde03","owner()":"8da5cb5b","renounceOwnership()":"715018a6","setAttacker(address)":"a6e1bb65","symbol()":"95d89b41","totalSupply()":"18160ddd","transfer(address,uint256)":"a9059cbb","transferFrom(address,address,uint256)":"23b872dd","transferOwnership(address)":"f2fde38b"}}}}}