{"contracts/interest/LinearInterestRateModel.sol":{"LinearInterestRateModel":{"abi":[{"inputs":[{"internalType":"uint256","name":"_baseAPR","type":"uint256"},{"internalType":"uint256","name":"_slopeAPR","type":"uint256"},{"internalType":"address","name":"admin","type":"address"}],"stateMutability":"nonpayable","type":"constructor"},{"inputs":[{"internalType":"address","name":"owner","type":"address"}],"name":"OwnableInvalidOwner","type":"error"},{"inputs":[{"internalType":"address","name":"account","type":"address"}],"name":"OwnableUnauthorizedAccount","type":"error"},{"anonymous":false,"inputs":[{"indexed":false,"internalType":"uint256","name":"oldBaseAPR","type":"uint256"},{"indexed":false,"internalType":"uint256","name":"oldSlopeAPR","type":"uint256"},{"indexed":false,"internalType":"uint256","name":"newBaseAPR","type":"uint256"},{"indexed":false,"internalType":"uint256","name":"newSlopeAPR","type":"uint256"}],"name":"APRUpdated","type":"event"},{"anonymous":false,"inputs":[{"indexed":true,"internalType":"address","name":"previousOwner","type":"address"},{"indexed":true,"internalType":"address","name":"newOwner","type":"address"}],"name":"OwnershipTransferred","type":"event"},{"inputs":[],"name":"SECONDS_PER_YEAR","outputs":[{"internalType":"uint256","name":"","type":"uint256"}],"stateMutability":"view","type":"function"},{"inputs":[],"name":"baseAPR","outputs":[{"internalType":"uint256","name":"","type":"uint256"}],"stateMutability":"view","type":"function"},{"inputs":[{"internalType":"uint256","name":"utilization","type":"uint256"}],"name":"getBorrowRatePerSecond","outputs":[{"internalType":"uint256","name":"","type":"uint256"}],"stateMutability":"view","type":"function"},{"inputs":[],"name":"owner","outputs":[{"internalType":"address","name":"","type":"address"}],"stateMutability":"view","type":"function"},{"inputs":[],"name":"renounceOwnership","outputs":[],"stateMutability":"nonpayable","type":"function"},{"inputs":[{"internalType":"uint256","name":"_baseAPR","type":"uint256"},{"internalType":"uint256","name":"_slopeAPR","type":"uint256"}],"name":"setAPR","outputs":[],"stateMutability":"nonpayable","type":"function"},{"inputs":[],"name":"slopeAPR","outputs":[{"internalType":"uint256","name":"","type":"uint256"}],"stateMutability":"view","type":"function"},{"inputs":[{"internalType":"address","name":"newOwner","type":"address"}],"name":"transferOwnership","outputs":[],"stateMutability":"nonpayable","type":"function"},{"inputs":[{"internalType":"uint256","name":"","type":"uint256"}],"name":"updateBorrowRate","outputs":[],"stateMutability":"pure","type":"function"}],"evm":{"bytecode":{"linkReferences":{},"object":"608060405234801561001057600080fd5b5060405161067938038061067983398101604081905261002f916101b5565b806001600160a01b03811661005f57604051631e4fbdf760e01b8152600060048201526024015b60405180910390fd5b6100688161007b565b5061007383836100cb565b5050506101fb565b600080546001600160a01b038381166001600160a01b0319831681178455604051919092169283917f8be0079c531659141344cd1fd0a4f28419497f9722a3daafe3b4186f6b6457e09190a35050565b670de0b6b3a76400008211156101135760405162461bcd60e51b815260206004820152600d60248201526c0c4c2e6ca40e8dede40d0d2ced609b1b6044820152606401610056565b674563918244f4000081111561015c5760405162461bcd60e51b815260206004820152600e60248201526d0e6d8dee0ca40e8dede40d0d2ced60931b6044820152606401610056565b6001546002546040805192835260208301919091528101839052606081018290527fad8f6a6e62b1b1141c73816454ffca0e89053b23623e128f2986cb0ebf966a4c9060800160405180910390a1600191909155600255565b6000806000606084860312156101ca57600080fd5b83516020850151604086015191945092506001600160a01b03811681146101f057600080fd5b809150509250925092565b61046f8061020a6000396000f3fe608060405234801561001057600080fd5b50600436106100935760003560e01c8063a230561b11610066578063a230561b146100ea578063c04418a2146100fd578063e6a69ab814610106578063f2fde38b14610111578063f71bd11b1461012457600080fd5b806302b8c56d1461009857806358ac0e80146100ab578063715018a6146100c75780638da5cb5b146100cf575b600080fd5b6100a96100a636600461036d565b50565b005b6100b460015481565b6040519081526020015b60405180910390f35b6100a9610137565b6000546040516001600160a01b0390911681526020016100be565b6100a96100f8366004610386565b61014b565b6100b460025481565b6100b46301e1338081565b6100a961011f3660046103a8565b610161565b6100b461013236600461036d565b6101a1565b61013f610206565b6101496000610233565b565b610153610206565b61015d8282610283565b5050565b610169610206565b6001600160a01b03811661019857604051631e4fbdf760e01b8152600060048201526024015b60405180910390fd5b6100a681610233565b6000670de0b6b3a76400008211156101bf57670de0b6b3a764000091505b6000670de0b6b3a7640000836002546101d891906103e7565b6101e29190610404565b6001546101ef9190610426565b90506101ff6301e1338082610404565b9392505050565b6000546001600160a01b031633146101495760405163118cdaa760e01b815233600482015260240161018f565b600080546001600160a01b038381166001600160a01b0319831681178455604051919092169283917f8be0079c531659141344cd1fd0a4f28419497f9722a3daafe3b4186f6b6457e09190a35050565b670de0b6b3a76400008211156102cb5760405162461bcd60e51b815260206004820152600d60248201526c0c4c2e6ca40e8dede40d0d2ced609b1b604482015260640161018f565b674563918244f400008111156103145760405162461bcd60e51b815260206004820152600e60248201526d0e6d8dee0ca40e8dede40d0d2ced60931b604482015260640161018f565b6001546002546040805192835260208301919091528101839052606081018290527fad8f6a6e62b1b1141c73816454ffca0e89053b23623e128f2986cb0ebf966a4c9060800160405180910390a1600191909155600255565b60006020828403121561037f57600080fd5b5035919050565b6000806040838503121561039957600080fd5b50508035926020909101359150565b6000602082840312156103ba57600080fd5b81356001600160a01b03811681146101ff57600080fd5b634e487b7160e01b600052601160045260246000fd5b80820281158282048414176103fe576103fe6103d1565b92915050565b60008261042157634e487b7160e01b600052601260045260246000fd5b500490565b808201808211156103fe576103fe6103d156fea2646970667358221220aa58060767f44d984df9ee37852c09a0a9aaa94cb9cf668a94dfe06c762dcbbd64736f6c63430008140033","opcodes":"PUSH1 0x80 PUSH1 0x40 MSTORE CALLVALUE DUP1 ISZERO PUSH2 0x10 JUMPI PUSH1 0x0 DUP1 REVERT JUMPDEST POP PUSH1 0x40 MLOAD PUSH2 0x679 CODESIZE SUB DUP1 PUSH2 0x679 DUP4 CODECOPY DUP2 ADD PUSH1 0x40 DUP2 SWAP1 MSTORE PUSH2 0x2F SWAP2 PUSH2 0x1B5 JUMP JUMPDEST DUP1 PUSH1 0x1 PUSH1 0x1 PUSH1 0xA0 SHL SUB DUP2 AND PUSH2 0x5F JUMPI PUSH1 0x40 MLOAD PUSH4 0x1E4FBDF7 PUSH1 0xE0 SHL DUP2 MSTORE PUSH1 0x0 PUSH1 0x4 DUP3 ADD MSTORE PUSH1 0x24 ADD JUMPDEST PUSH1 0x40 MLOAD DUP1 SWAP2 SUB SWAP1 REVERT JUMPDEST PUSH2 0x68 DUP2 PUSH2 0x7B JUMP JUMPDEST POP PUSH2 0x73 DUP4 DUP4 PUSH2 0xCB JUMP JUMPDEST POP POP POP PUSH2 0x1FB JUMP JUMPDEST PUSH1 0x0 DUP1 SLOAD PUSH1 0x1 PUSH1 0x1 PUSH1 0xA0 SHL SUB DUP4 DUP2 AND PUSH1 0x1 PUSH1 0x1 PUSH1 0xA0 SHL SUB NOT DUP4 AND DUP2 OR DUP5 SSTORE PUSH1 0x40 MLOAD SWAP2 SWAP1 SWAP3 AND SWAP3 DUP4 SWAP2 PUSH32 0x8BE0079C531659141344CD1FD0A4F28419497F9722A3DAAFE3B4186F6B6457E0 SWAP2 SWAP1 LOG3 POP POP JUMP JUMPDEST PUSH8 0xDE0B6B3A7640000 DUP3 GT ISZERO PUSH2 0x113 JUMPI PUSH1 0x40 MLOAD PUSH3 0x461BCD PUSH1 0xE5 SHL DUP2 MSTORE PUSH1 0x20 PUSH1 0x4 DUP3 ADD MSTORE PUSH1 0xD PUSH1 0x24 DUP3 ADD MSTORE PUSH13 0xC4C2E6CA40E8DEDE40D0D2CED PUSH1 0x9B SHL PUSH1 0x44 DUP3 ADD MSTORE PUSH1 0x64 ADD PUSH2 0x56 JUMP JUMPDEST PUSH8 0x4563918244F40000 DUP2 GT ISZERO PUSH2 0x15C JUMPI PUSH1 0x40 MLOAD PUSH3 0x461BCD PUSH1 0xE5 SHL DUP2 MSTORE PUSH1 0x20 PUSH1 0x4 DUP3 ADD MSTORE PUSH1 0xE PUSH1 0x24 DUP3 ADD MSTORE PUSH14 0xE6D8DEE0CA40E8DEDE40D0D2CED PUSH1 0x93 SHL PUSH1 0x44 DUP3 ADD MSTORE PUSH1 0x64 ADD PUSH2 0x56 JUMP JUMPDEST PUSH1 0x1 SLOAD PUSH1 0x2 SLOAD PUSH1 0x40 DUP1 MLOAD SWAP3 DUP4 MSTORE PUSH1 0x20 DUP4 ADD SWAP2 SWAP1 SWAP2 MSTORE DUP2 ADD DUP4 SWAP1 MSTORE PUSH1 0x60 DUP2 ADD DUP3 SWAP1 MSTORE PUSH32 0xAD8F6A6E62B1B1141C73816454FFCA0E89053B23623E128F2986CB0EBF966A4C SWAP1 PUSH1 0x80 ADD PUSH1 0x40 MLOAD DUP1 SWAP2 SUB SWAP1 LOG1 PUSH1 0x1 SWAP2 SWAP1 SWAP2 SSTORE PUSH1 0x2 SSTORE JUMP JUMPDEST PUSH1 0x0 DUP1 PUSH1 0x0 PUSH1 0x60 DUP5 DUP7 SUB SLT ISZERO PUSH2 0x1CA JUMPI PUSH1 0x0 DUP1 REVERT JUMPDEST DUP4 MLOAD PUSH1 0x20 DUP6 ADD MLOAD PUSH1 0x40 DUP7 ADD MLOAD SWAP2 SWAP5 POP SWAP3 POP PUSH1 0x1 PUSH1 0x1 PUSH1 0xA0 SHL SUB DUP2 AND DUP2 EQ PUSH2 0x1F0 JUMPI PUSH1 0x0 DUP1 REVERT JUMPDEST DUP1 SWAP2 POP POP SWAP3 POP SWAP3 POP SWAP3 JUMP JUMPDEST PUSH2 0x46F DUP1 PUSH2 0x20A PUSH1 0x0 CODECOPY PUSH1 0x0 RETURN INVALID PUSH1 0x80 PUSH1 0x40 MSTORE CALLVALUE DUP1 ISZERO PUSH2 0x10 JUMPI PUSH1 0x0 DUP1 REVERT JUMPDEST POP PUSH1 0x4 CALLDATASIZE LT PUSH2 0x93 JUMPI PUSH1 0x0 CALLDATALOAD PUSH1 0xE0 SHR DUP1 PUSH4 0xA230561B GT PUSH2 0x66 JUMPI DUP1 PUSH4 0xA230561B EQ PUSH2 0xEA JUMPI DUP1 PUSH4 0xC04418A2 EQ PUSH2 0xFD JUMPI DUP1 PUSH4 0xE6A69AB8 EQ PUSH2 0x106 JUMPI DUP1 PUSH4 0xF2FDE38B EQ PUSH2 0x111 JUMPI DUP1 PUSH4 0xF71BD11B EQ PUSH2 0x124 JUMPI PUSH1 0x0 DUP1 REVERT JUMPDEST DUP1 PUSH4 0x2B8C56D EQ PUSH2 0x98 JUMPI DUP1 PUSH4 0x58AC0E80 EQ PUSH2 0xAB JUMPI DUP1 PUSH4 0x715018A6 EQ PUSH2 0xC7 JUMPI DUP1 PUSH4 0x8DA5CB5B EQ PUSH2 0xCF JUMPI JUMPDEST PUSH1 0x0 DUP1 REVERT JUMPDEST PUSH2 0xA9 PUSH2 0xA6 CALLDATASIZE PUSH1 0x4 PUSH2 0x36D JUMP JUMPDEST POP JUMP JUMPDEST STOP JUMPDEST PUSH2 0xB4 PUSH1 0x1 SLOAD DUP2 JUMP JUMPDEST PUSH1 0x40 MLOAD SWAP1 DUP2 MSTORE PUSH1 0x20 ADD JUMPDEST PUSH1 0x40 MLOAD DUP1 SWAP2 SUB SWAP1 RETURN JUMPDEST PUSH2 0xA9 PUSH2 0x137 JUMP JUMPDEST PUSH1 0x0 SLOAD PUSH1 0x40 MLOAD PUSH1 0x1 PUSH1 0x1 PUSH1 0xA0 SHL SUB SWAP1 SWAP2 AND DUP2 MSTORE PUSH1 0x20 ADD PUSH2 0xBE JUMP JUMPDEST PUSH2 0xA9 PUSH2 0xF8 CALLDATASIZE PUSH1 0x4 PUSH2 0x386 JUMP JUMPDEST PUSH2 0x14B JUMP JUMPDEST PUSH2 0xB4 PUSH1 0x2 SLOAD DUP2 JUMP JUMPDEST PUSH2 0xB4 PUSH4 0x1E13380 DUP2 JUMP JUMPDEST PUSH2 0xA9 PUSH2 0x11F CALLDATASIZE PUSH1 0x4 PUSH2 0x3A8 JUMP JUMPDEST PUSH2 0x161 JUMP JUMPDEST PUSH2 0xB4 PUSH2 0x132 CALLDATASIZE PUSH1 0x4 PUSH2 0x36D JUMP JUMPDEST PUSH2 0x1A1 JUMP JUMPDEST PUSH2 0x13F PUSH2 0x206 JUMP JUMPDEST PUSH2 0x149 PUSH1 0x0 PUSH2 0x233 JUMP JUMPDEST JUMP JUMPDEST PUSH2 0x153 PUSH2 0x206 JUMP JUMPDEST PUSH2 0x15D DUP3 DUP3 PUSH2 0x283 JUMP JUMPDEST POP POP JUMP JUMPDEST PUSH2 0x169 PUSH2 0x206 JUMP JUMPDEST PUSH1 0x1 PUSH1 0x1 PUSH1 0xA0 SHL SUB DUP2 AND PUSH2 0x198 JUMPI PUSH1 0x40 MLOAD PUSH4 0x1E4FBDF7 PUSH1 0xE0 SHL DUP2 MSTORE PUSH1 0x0 PUSH1 0x4 DUP3 ADD MSTORE PUSH1 0x24 ADD JUMPDEST PUSH1 0x40 MLOAD DUP1 SWAP2 SUB SWAP1 REVERT JUMPDEST PUSH2 0xA6 DUP2 PUSH2 0x233 JUMP JUMPDEST PUSH1 0x0 PUSH8 0xDE0B6B3A7640000 DUP3 GT ISZERO PUSH2 0x1BF JUMPI PUSH8 0xDE0B6B3A7640000 SWAP2 POP JUMPDEST PUSH1 0x0 PUSH8 0xDE0B6B3A7640000 DUP4 PUSH1 0x2 SLOAD PUSH2 0x1D8 SWAP2 SWAP1 PUSH2 0x3E7 JUMP JUMPDEST PUSH2 0x1E2 SWAP2 SWAP1 PUSH2 0x404 JUMP JUMPDEST PUSH1 0x1 SLOAD PUSH2 0x1EF SWAP2 SWAP1 PUSH2 0x426 JUMP JUMPDEST SWAP1 POP PUSH2 0x1FF PUSH4 0x1E13380 DUP3 PUSH2 0x404 JUMP JUMPDEST SWAP4 SWAP3 POP POP POP JUMP JUMPDEST PUSH1 0x0 SLOAD PUSH1 0x1 PUSH1 0x1 PUSH1 0xA0 SHL SUB AND CALLER EQ PUSH2 0x149 JUMPI PUSH1 0x40 MLOAD PUSH4 0x118CDAA7 PUSH1 0xE0 SHL DUP2 MSTORE CALLER PUSH1 0x4 DUP3 ADD MSTORE PUSH1 0x24 ADD PUSH2 0x18F JUMP JUMPDEST PUSH1 0x0 DUP1 SLOAD PUSH1 0x1 PUSH1 0x1 PUSH1 0xA0 SHL SUB DUP4 DUP2 AND PUSH1 0x1 PUSH1 0x1 PUSH1 0xA0 SHL SUB NOT DUP4 AND DUP2 OR DUP5 SSTORE PUSH1 0x40 MLOAD SWAP2 SWAP1 SWAP3 AND SWAP3 DUP4 SWAP2 PUSH32 0x8BE0079C531659141344CD1FD0A4F28419497F9722A3DAAFE3B4186F6B6457E0 SWAP2 SWAP1 LOG3 POP POP JUMP JUMPDEST PUSH8 0xDE0B6B3A7640000 DUP3 GT ISZERO PUSH2 0x2CB JUMPI PUSH1 0x40 MLOAD PUSH3 0x461BCD PUSH1 0xE5 SHL DUP2 MSTORE PUSH1 0x20 PUSH1 0x4 DUP3 ADD MSTORE PUSH1 0xD PUSH1 0x24 DUP3 ADD MSTORE PUSH13 0xC4C2E6CA40E8DEDE40D0D2CED PUSH1 0x9B SHL PUSH1 0x44 DUP3 ADD MSTORE PUSH1 0x64 ADD PUSH2 0x18F JUMP JUMPDEST PUSH8 0x4563918244F40000 DUP2 GT ISZERO PUSH2 0x314 JUMPI PUSH1 0x40 MLOAD PUSH3 0x461BCD PUSH1 0xE5 SHL DUP2 MSTORE PUSH1 0x20 PUSH1 0x4 DUP3 ADD MSTORE PUSH1 0xE PUSH1 0x24 DUP3 ADD MSTORE PUSH14 0xE6D8DEE0CA40E8DEDE40D0D2CED PUSH1 0x93 SHL PUSH1 0x44 DUP3 ADD MSTORE PUSH1 0x64 ADD PUSH2 0x18F JUMP JUMPDEST PUSH1 0x1 SLOAD PUSH1 0x2 SLOAD PUSH1 0x40 DUP1 MLOAD SWAP3 DUP4 MSTORE PUSH1 0x20 DUP4 ADD SWAP2 SWAP1 SWAP2 MSTORE DUP2 ADD DUP4 SWAP1 MSTORE PUSH1 0x60 DUP2 ADD DUP3 SWAP1 MSTORE PUSH32 0xAD8F6A6E62B1B1141C73816454FFCA0E89053B23623E128F2986CB0EBF966A4C SWAP1 PUSH1 0x80 ADD PUSH1 0x40 MLOAD DUP1 SWAP2 SUB SWAP1 LOG1 PUSH1 0x1 SWAP2 SWAP1 SWAP2 SSTORE PUSH1 0x2 SSTORE JUMP JUMPDEST PUSH1 0x0 PUSH1 0x20 DUP3 DUP5 SUB SLT ISZERO PUSH2 0x37F JUMPI PUSH1 0x0 DUP1 REVERT JUMPDEST POP CALLDATALOAD SWAP2 SWAP1 POP JUMP JUMPDEST PUSH1 0x0 DUP1 PUSH1 0x40 DUP4 DUP6 SUB SLT ISZERO PUSH2 0x399 JUMPI PUSH1 0x0 DUP1 REVERT JUMPDEST POP POP DUP1 CALLDATALOAD SWAP3 PUSH1 0x20 SWAP1 SWAP2 ADD CALLDATALOAD SWAP2 POP JUMP JUMPDEST PUSH1 0x0 PUSH1 0x20 DUP3 DUP5 SUB SLT ISZERO PUSH2 0x3BA JUMPI PUSH1 0x0 DUP1 REVERT JUMPDEST DUP2 CALLDATALOAD PUSH1 0x1 PUSH1 0x1 PUSH1 0xA0 SHL SUB DUP2 AND DUP2 EQ PUSH2 0x1FF JUMPI PUSH1 0x0 DUP1 REVERT JUMPDEST PUSH4 0x4E487B71 PUSH1 0xE0 SHL PUSH1 0x0 MSTORE PUSH1 0x11 PUSH1 0x4 MSTORE PUSH1 0x24 PUSH1 0x0 REVERT JUMPDEST DUP1 DUP3 MUL DUP2 ISZERO DUP3 DUP3 DIV DUP5 EQ OR PUSH2 0x3FE JUMPI PUSH2 0x3FE PUSH2 0x3D1 JUMP JUMPDEST SWAP3 SWAP2 POP POP JUMP JUMPDEST PUSH1 0x0 DUP3 PUSH2 0x421 JUMPI PUSH4 0x4E487B71 PUSH1 0xE0 SHL PUSH1 0x0 MSTORE PUSH1 0x12 PUSH1 0x4 MSTORE PUSH1 0x24 PUSH1 0x0 REVERT JUMPDEST POP DIV SWAP1 JUMP JUMPDEST DUP1 DUP3 ADD DUP1 DUP3 GT ISZERO PUSH2 0x3FE JUMPI PUSH2 0x3FE PUSH2 0x3D1 JUMP INVALID LOG2 PUSH5 0x6970667358 0x22 SLT KECCAK256 0xAA PC MOD SMOD PUSH8 0xF44D984DF9EE3785 0x2C MULMOD LOG0 0xA9 0xAA 0xA9 0x4C 0xB9 0xCF PUSH7 0x8A94DFE06C762D 0xCB 0xBD PUSH5 0x736F6C6343 STOP ADDMOD EQ STOP CALLER "},"methodIdentifiers":{"SECONDS_PER_YEAR()":"e6a69ab8","baseAPR()":"58ac0e80","getBorrowRatePerSecond(uint256)":"f71bd11b","owner()":"8da5cb5b","renounceOwnership()":"715018a6","setAPR(uint256,uint256)":"a230561b","slopeAPR()":"c04418a2","transferOwnership(address)":"f2fde38b","updateBorrowRate(uint256)":"02b8c56d"}}}}}