{"contracts/test/MockLendingPool.sol":{"MockLendingPool":{"abi":[{"inputs":[],"name":"currentUtilization","outputs":[{"internalType":"uint256","name":"","type":"uint256"}],"stateMutability":"view","type":"function"},{"inputs":[],"name":"irm","outputs":[{"internalType":"contract IInterestRateModel","name":"","type":"address"}],"stateMutability":"view","type":"function"},{"inputs":[{"internalType":"address","name":"_irm","type":"address"}],"name":"setIRM","outputs":[],"stateMutability":"nonpayable","type":"function"},{"inputs":[{"internalType":"uint256","name":"_utilization","type":"uint256"}],"name":"setUtilization","outputs":[],"stateMutability":"nonpayable","type":"function"},{"inputs":[],"name":"triggerRateUpdate","outputs":[],"stateMutability":"nonpayable","type":"function"},{"inputs":[],"name":"utilization","outputs":[{"internalType":"uint256","name":"","type":"uint256"}],"stateMutability":"view","type":"function"}],"evm":{"bytecode":{"linkReferences":{},"object":"608060405234801561001057600080fd5b506101e7806100206000396000f3fe608060405234801561001057600080fd5b50600436106100625760003560e01c806328e8fe7d146100675780639d4c214714610097578063c4ea6ccd146100ac578063d4bb0c73146100b4578063ea21cd92146100e4578063fff5d9da146100f6575b600080fd5b60005461007a906001600160a01b031681565b6040516001600160a01b0390911681526020015b60405180910390f35b6100aa6100a5366004610168565b600155565b005b6100aa6100ff565b6100aa6100c2366004610181565b600080546001600160a01b0319166001600160a01b0392909216919091179055565b6001545b60405190815260200161008e565b6100e860015481565b6000546001546040516302b8c56d60e01b81526001600160a01b03909216916302b8c56d916101349160040190815260200190565b600060405180830381600087803b15801561014e57600080fd5b505af1158015610162573d6000803e3d6000fd5b50505050565b60006020828403121561017a57600080fd5b5035919050565b60006020828403121561019357600080fd5b81356001600160a01b03811681146101aa57600080fd5b939250505056fea2646970667358221220a4f263d7e01b2dbae3203b53318eb31f7d9f0b9fa750b14eb7deb38767514b4164736f6c63430008140033","opcodes":"PUSH1 0x80 PUSH1 0x40 MSTORE CALLVALUE DUP1 ISZERO PUSH2 0x10 JUMPI PUSH1 0x0 DUP1 REVERT JUMPDEST POP PUSH2 0x1E7 DUP1 PUSH2 0x20 PUSH1 0x0 CODECOPY PUSH1 0x0 RETURN INVALID PUSH1 0x80 PUSH1 0x40 MSTORE CALLVALUE DUP1 ISZERO PUSH2 0x10 JUMPI PUSH1 0x0 DUP1 REVERT JUMPDEST POP PUSH1 0x4 CALLDATASIZE LT PUSH2 0x62 JUMPI PUSH1 0x0 CALLDATALOAD PUSH1 0xE0 SHR DUP1 PUSH4 0x28E8FE7D EQ PUSH2 0x67 JUMPI DUP1 PUSH4 0x9D4C2147 EQ PUSH2 0x97 JUMPI DUP1 PUSH4 0xC4EA6CCD EQ PUSH2 0xAC JUMPI DUP1 PUSH4 0xD4BB0C73 EQ PUSH2 0xB4 JUMPI DUP1 PUSH4 0xEA21CD92 EQ PUSH2 0xE4 JUMPI DUP1 PUSH4 0xFFF5D9DA EQ PUSH2 0xF6 JUMPI JUMPDEST PUSH1 0x0 DUP1 REVERT JUMPDEST PUSH1 0x0 SLOAD PUSH2 0x7A SWAP1 PUSH1 0x1 PUSH1 0x1 PUSH1 0xA0 SHL SUB AND DUP2 JUMP JUMPDEST PUSH1 0x40 MLOAD PUSH1 0x1 PUSH1 0x1 PUSH1 0xA0 SHL SUB SWAP1 SWAP2 AND DUP2 MSTORE PUSH1 0x20 ADD JUMPDEST PUSH1 0x40 MLOAD DUP1 SWAP2 SUB SWAP1 RETURN JUMPDEST PUSH2 0xAA PUSH2 0xA5 CALLDATASIZE PUSH1 0x4 PUSH2 0x168 JUMP JUMPDEST PUSH1 0x1 SSTORE JUMP JUMPDEST STOP JUMPDEST PUSH2 0xAA PUSH2 0xFF JUMP JUMPDEST PUSH2 0xAA PUSH2 0xC2 CALLDATASIZE PUSH1 0x4 PUSH2 0x181 JUMP JUMPDEST PUSH1 0x0 DUP1 SLOAD PUSH1 0x1 PUSH1 0x1 PUSH1 0xA0 SHL SUB NOT AND PUSH1 0x1 PUSH1 0x1 PUSH1 0xA0 SHL SUB SWAP3 SWAP1 SWAP3 AND SWAP2 SWAP1 SWAP2 OR SWAP1 SSTORE JUMP JUMPDEST PUSH1 0x1 SLOAD JUMPDEST PUSH1 0x40 MLOAD SWAP1 DUP2 MSTORE PUSH1 0x20 ADD PUSH2 0x8E JUMP JUMPDEST PUSH2 0xE8 PUSH1 0x1 SLOAD DUP2 JUMP JUMPDEST PUSH1 0x0 SLOAD PUSH1 0x1 SLOAD PUSH1 0x40 MLOAD PUSH4 0x2B8C56D PUSH1 0xE0 SHL DUP2 MSTORE PUSH1 0x1 PUSH1 0x1 PUSH1 0xA0 SHL SUB SWAP1 SWAP3 AND SWAP2 PUSH4 0x2B8C56D SWAP2 PUSH2 0x134 SWAP2 PUSH1 0x4 ADD SWAP1 DUP2 MSTORE PUSH1 0x20 ADD SWAP1 JUMP JUMPDEST PUSH1 0x0 PUSH1 0x40 MLOAD DUP1 DUP4 SUB DUP2 PUSH1 0x0 DUP8 DUP1 EXTCODESIZE ISZERO DUP1 ISZERO PUSH2 0x14E JUMPI PUSH1 0x0 DUP1 REVERT JUMPDEST POP GAS CALL ISZERO DUP1 ISZERO PUSH2 0x162 JUMPI RETURNDATASIZE PUSH1 0x0 DUP1 RETURNDATACOPY RETURNDATASIZE PUSH1 0x0 REVERT JUMPDEST POP POP POP POP JUMP JUMPDEST PUSH1 0x0 PUSH1 0x20 DUP3 DUP5 SUB SLT ISZERO PUSH2 0x17A JUMPI PUSH1 0x0 DUP1 REVERT JUMPDEST POP CALLDATALOAD SWAP2 SWAP1 POP JUMP JUMPDEST PUSH1 0x0 PUSH1 0x20 DUP3 DUP5 SUB SLT ISZERO PUSH2 0x193 JUMPI PUSH1 0x0 DUP1 REVERT JUMPDEST DUP2 CALLDATALOAD PUSH1 0x1 PUSH1 0x1 PUSH1 0xA0 SHL SUB DUP2 AND DUP2 EQ PUSH2 0x1AA JUMPI PUSH1 0x0 DUP1 REVERT JUMPDEST SWAP4 SWAP3 POP POP POP JUMP INVALID LOG2 PUSH5 0x6970667358 0x22 SLT KECCAK256 LOG4 CALLCODE PUSH4 0xD7E01B2D 0xBA 0xE3 KECCAK256 EXTCODESIZE MSTORE8 BALANCE DUP15 0xB3 0x1F PUSH30 0x9F0B9FA750B14EB7DEB38767514B4164736F6C6343000814003300000000 "},"methodIdentifiers":{"currentUtilization()":"fff5d9da","irm()":"28e8fe7d","setIRM(address)":"d4bb0c73","setUtilization(uint256)":"9d4c2147","triggerRateUpdate()":"c4ea6ccd","utilization()":"ea21cd92"}}}}}