{"contracts/InterestRateModel.sol":{"InterestRateModel":{"abi":[{"inputs":[{"internalType":"uint256","name":"_baseAPR","type":"uint256"},{"internalType":"uint256","name":"_slopeAPR","type":"uint256"}],"stateMutability":"nonpayable","type":"constructor"},{"inputs":[],"name":"SECONDS_PER_YEAR","outputs":[{"internalType":"uint256","name":"","type":"uint256"}],"stateMutability":"view","type":"function"},{"inputs":[],"name":"baseAPR","outputs":[{"internalType":"uint256","name":"","type":"uint256"}],"stateMutability":"view","type":"function"},{"inputs":[{"internalType":"uint256","name":"utilization","type":"uint256"}],"name":"getBorrowRatePerSecond","outputs":[{"internalType":"uint256","name":"","type":"uint256"}],"stateMutability":"view","type":"function"},{"inputs":[],"name":"slopeAPR","outputs":[{"internalType":"uint256","name":"","type":"uint256"}],"stateMutability":"view","type":"function"}],"evm":{"bytecode":{"linkReferences":{},"object":"60c060405234801561001057600080fd5b506040516102b03803806102b083398101604081905261002f9161003d565b60809190915260a052610061565b6000806040838503121561005057600080fd5b505080516020909101519092909150565b60805160a05161021f61009160003960008181608f015260f90152600081816056015261012d015261021f6000f3fe608060405234801561001057600080fd5b506004361061004c5760003560e01c806358ac0e8014610051578063c04418a21461008a578063e6a69ab8146100b1578063f71bd11b146100bc575b600080fd5b6100787f000000000000000000000000000000000000000000000000000000000000000081565b60405190815260200160405180910390f35b6100787f000000000000000000000000000000000000000000000000000000000000000081565b6100786301e1338081565b6100786100ca366004610168565b6000670de0b6b3a76400008211156100e857670de0b6b3a764000091505b6000670de0b6b3a764000061011d847f0000000000000000000000000000000000000000000000000000000000000000610197565b61012791906101b4565b610151907f00000000000000000000000000000000000000000000000000000000000000006101d6565b90506101616301e13380826101b4565b9392505050565b60006020828403121561017a57600080fd5b5035919050565b634e487b7160e01b600052601160045260246000fd5b80820281158282048414176101ae576101ae610181565b92915050565b6000826101d157634e487b7160e01b600052601260045260246000fd5b500490565b808201808211156101ae576101ae61018156fea264697066735822122090ac0fbd5c083437979316c85dff7a1efcbc9984961f558715313c7f30612b1864736f6c63430008140033","opcodes":"PUSH1 0xC0 PUSH1 0x40 MSTORE CALLVALUE DUP1 ISZERO PUSH2 0x10 JUMPI PUSH1 0x0 DUP1 REVERT JUMPDEST POP PUSH1 0x40 MLOAD PUSH2 0x2B0 CODESIZE SUB DUP1 PUSH2 0x2B0 DUP4 CODECOPY DUP2 ADD PUSH1 0x40 DUP2 SWAP1 MSTORE PUSH2 0x2F SWAP2 PUSH2 0x3D JUMP JUMPDEST PUSH1 0x80 SWAP2 SWAP1 SWAP2 MSTORE PUSH1 0xA0 MSTORE PUSH2 0x61 JUMP JUMPDEST PUSH1 0x0 DUP1 PUSH1 0x40 DUP4 DUP6 SUB SLT ISZERO PUSH2 0x50 JUMPI PUSH1 0x0 DUP1 REVERT JUMPDEST POP POP DUP1 MLOAD PUSH1 0x20 SWAP1 SWAP2 ADD MLOAD SWAP1 SWAP3 SWAP1 SWAP2 POP JUMP JUMPDEST PUSH1 0x80 MLOAD PUSH1 0xA0 MLOAD PUSH2 0x21F PUSH2 0x91 PUSH1 0x0 CODECOPY PUSH1 0x0 DUP2 DUP2 PUSH1 0x8F ADD MSTORE PUSH1 0xF9 ADD MSTORE PUSH1 0x0 DUP2 DUP2 PUSH1 0x56 ADD MSTORE PUSH2 0x12D ADD MSTORE PUSH2 0x21F PUSH1 0x0 RETURN INVALID PUSH1 0x80 PUSH1 0x40 MSTORE CALLVALUE DUP1 ISZERO PUSH2 0x10 JUMPI PUSH1 0x0 DUP1 REVERT JUMPDEST POP PUSH1 0x4 CALLDATASIZE LT PUSH2 0x4C JUMPI PUSH1 0x0 CALLDATALOAD PUSH1 0xE0 SHR DUP1 PUSH4 0x58AC0E80 EQ PUSH2 0x51 JUMPI DUP1 PUSH4 0xC04418A2 EQ PUSH2 0x8A JUMPI DUP1 PUSH4 0xE6A69AB8 EQ PUSH2 0xB1 JUMPI DUP1 PUSH4 0xF71BD11B EQ PUSH2 0xBC JUMPI JUMPDEST PUSH1 0x0 DUP1 REVERT JUMPDEST PUSH2 0x78 PUSH32 0x0 DUP2 JUMP JUMPDEST PUSH1 0x40 MLOAD SWAP1 DUP2 MSTORE PUSH1 0x20 ADD PUSH1 0x40 MLOAD DUP1 SWAP2 SUB SWAP1 RETURN JUMPDEST PUSH2 0x78 PUSH32 0x0 DUP2 JUMP JUMPDEST PUSH2 0x78 PUSH4 0x1E13380 DUP2 JUMP JUMPDEST PUSH2 0x78 PUSH2 0xCA CALLDATASIZE PUSH1 0x4 PUSH2 0x168 JUMP JUMPDEST PUSH1 0x0 PUSH8 0xDE0B6B3A7640000 DUP3 GT ISZERO PUSH2 0xE8 JUMPI PUSH8 0xDE0B6B3A7640000 SWAP2 POP JUMPDEST PUSH1 0x0 PUSH8 0xDE0B6B3A7640000 PUSH2 0x11D DUP5 PUSH32 0x0 PUSH2 0x197 JUMP JUMPDEST PUSH2 0x127 SWAP2 SWAP1 PUSH2 0x1B4 JUMP JUMPDEST PUSH2 0x151 SWAP1 PUSH32 0x0 PUSH2 0x1D6 JUMP JUMPDEST SWAP1 POP PUSH2 0x161 PUSH4 0x1E13380 DUP3 PUSH2 0x1B4 JUMP JUMPDEST SWAP4 SWAP3 POP POP POP JUMP JUMPDEST PUSH1 0x0 PUSH1 0x20 DUP3 DUP5 SUB SLT ISZERO PUSH2 0x17A JUMPI PUSH1 0x0 DUP1 REVERT JUMPDEST POP CALLDATALOAD SWAP2 SWAP1 POP JUMP JUMPDEST PUSH4 0x4E487B71 PUSH1 0xE0 SHL PUSH1 0x0 MSTORE PUSH1 0x11 PUSH1 0x4 MSTORE PUSH1 0x24 PUSH1 0x0 REVERT JUMPDEST DUP1 DUP3 MUL DUP2 ISZERO DUP3 DUP3 DIV DUP5 EQ OR PUSH2 0x1AE JUMPI PUSH2 0x1AE PUSH2 0x181 JUMP JUMPDEST SWAP3 SWAP2 POP POP JUMP JUMPDEST PUSH1 0x0 DUP3 PUSH2 0x1D1 JUMPI PUSH4 0x4E487B71 PUSH1 0xE0 SHL PUSH1 0x0 MSTORE PUSH1 0x12 PUSH1 0x4 MSTORE PUSH1 0x24 PUSH1 0x0 REVERT JUMPDEST POP DIV SWAP1 JUMP JUMPDEST DUP1 DUP3 ADD DUP1 DUP3 GT ISZERO PUSH2 0x1AE JUMPI PUSH2 0x1AE PUSH2 0x181 JUMP INVALID LOG2 PUSH5 0x6970667358 0x22 SLT KECCAK256 SWAP1 0xAC 0xF 0xBD 0x5C ADDMOD CALLVALUE CALLDATACOPY SWAP8 SWAP4 AND 0xC8 0x5D SELFDESTRUCT PUSH27 0x1EFCBC9984961F558715313C7F30612B1864736F6C634300081400 CALLER "},"methodIdentifiers":{"SECONDS_PER_YEAR()":"e6a69ab8","baseAPR()":"58ac0e80","getBorrowRatePerSecond(uint256)":"f71bd11b","slopeAPR()":"c04418a2"}}}}}