{"contracts/interest/TimeWeightedInterestRateModel.sol":{"TimeWeightedInterestRateModel":{"abi":[{"inputs":[{"internalType":"uint256","name":"_minAPR","type":"uint256"},{"internalType":"uint256","name":"_maxAPR","type":"uint256"},{"internalType":"uint256","name":"_neutralAPR","type":"uint256"},{"internalType":"uint256","name":"_adjustmentRatePerSecond","type":"uint256"},{"internalType":"uint256","name":"_lowerUtilization","type":"uint256"},{"internalType":"uint256","name":"_upperUtilization","type":"uint256"},{"internalType":"address","name":"admin","type":"address"}],"stateMutability":"nonpayable","type":"constructor"},{"inputs":[],"name":"InvalidAdjustmentRate","type":"error"},{"inputs":[],"name":"InvalidBounds","type":"error"},{"inputs":[{"internalType":"address","name":"owner","type":"address"}],"name":"OwnableInvalidOwner","type":"error"},{"inputs":[{"internalType":"address","name":"account","type":"address"}],"name":"OwnableUnauthorizedAccount","type":"error"},{"inputs":[],"name":"PoolAlreadySet","type":"error"},{"inputs":[],"name":"PoolNotConfigured","type":"error"},{"inputs":[],"name":"UnauthorizedUpdater","type":"error"},{"anonymous":false,"inputs":[{"indexed":true,"internalType":"address","name":"previousOwner","type":"address"},{"indexed":true,"internalType":"address","name":"newOwner","type":"address"}],"name":"OwnershipTransferred","type":"event"},{"anonymous":false,"inputs":[{"indexed":false,"internalType":"uint256","name":"minAPR","type":"uint256"},{"indexed":false,"internalType":"uint256","name":"maxAPR","type":"uint256"},{"indexed":false,"internalType":"uint256","name":"neutralAPR","type":"uint256"},{"indexed":false,"internalType":"uint256","name":"adjustmentRatePerSecond","type":"uint256"},{"indexed":false,"internalType":"uint256","name":"lowerUtilization","type":"uint256"},{"indexed":false,"internalType":"uint256","name":"upperUtilization","type":"uint256"}],"name":"ParametersUpdated","type":"event"},{"anonymous":false,"inputs":[{"indexed":true,"internalType":"address","name":"pool","type":"address"}],"name":"PoolConfigured","type":"event"},{"anonymous":false,"inputs":[{"indexed":false,"internalType":"uint256","name":"utilization","type":"uint256"},{"indexed":false,"internalType":"uint256","name":"newAPR","type":"uint256"},{"indexed":false,"internalType":"uint256","name":"timestamp","type":"uint256"}],"name":"RateAdjusted","type":"event"},{"inputs":[],"name":"SECONDS_PER_YEAR","outputs":[{"internalType":"uint256","name":"","type":"uint256"}],"stateMutability":"view","type":"function"},{"inputs":[],"name":"adjustmentRatePerSecond","outputs":[{"internalType":"uint256","name":"","type":"uint256"}],"stateMutability":"view","type":"function"},{"inputs":[],"name":"currentAPR","outputs":[{"internalType":"uint256","name":"","type":"uint256"}],"stateMutability":"view","type":"function"},{"inputs":[{"internalType":"uint256","name":"","type":"uint256"}],"name":"getBorrowRatePerSecond","outputs":[{"internalType":"uint256","name":"","type":"uint256"}],"stateMutability":"view","type":"function"},{"inputs":[],"name":"lastUpdate","outputs":[{"internalType":"uint256","name":"","type":"uint256"}],"stateMutability":"view","type":"function"},{"inputs":[],"name":"lowerUtilization","outputs":[{"internalType":"uint256","name":"","type":"uint256"}],"stateMutability":"view","type":"function"},{"inputs":[],"name":"maxAPR","outputs":[{"internalType":"uint256","name":"","type":"uint256"}],"stateMutability":"view","type":"function"},{"inputs":[],"name":"minAPR","outputs":[{"internalType":"uint256","name":"","type":"uint256"}],"stateMutability":"view","type":"function"},{"inputs":[],"name":"neutralAPR","outputs":[{"internalType":"uint256","name":"","type":"uint256"}],"stateMutability":"view","type":"function"},{"inputs":[],"name":"owner","outputs":[{"internalType":"address","name":"","type":"address"}],"stateMutability":"view","type":"function"},{"inputs":[],"name":"pool","outputs":[{"internalType":"address","name":"","type":"address"}],"stateMutability":"view","type":"function"},{"inputs":[],"name":"renounceOwnership","outputs":[],"stateMutability":"nonpayable","type":"function"},{"inputs":[{"internalType":"uint256","name":"_minAPR","type":"uint256"},{"internalType":"uint256","name":"_maxAPR","type":"uint256"},{"internalType":"uint256","name":"_neutralAPR","type":"uint256"},{"internalType":"uint256","name":"_adjustmentRatePerSecond","type":"uint256"},{"internalType":"uint256","name":"_lowerUtilization","type":"uint256"},{"internalType":"uint256","name":"_upperUtilization","type":"uint256"}],"name":"setParameters","outputs":[],"stateMutability":"nonpayable","type":"function"},{"inputs":[{"internalType":"address","name":"_pool","type":"address"}],"name":"setPool","outputs":[],"stateMutability":"nonpayable","type":"function"},{"inputs":[{"internalType":"address","name":"newOwner","type":"address"}],"name":"transferOwnership","outputs":[],"stateMutability":"nonpayable","type":"function"},{"inputs":[{"internalType":"uint256","name":"","type":"uint256"}],"name":"updateBorrowRate","outputs":[],"stateMutability":"nonpayable","type":"function"},{"inputs":[],"name":"upperUtilization","outputs":[{"internalType":"uint256","name":"","type":"uint256"}],"stateMutability":"view","type":"function"}],"evm":{"bytecode":{"linkReferences":{},"object":"608060405234801561001057600080fd5b50604051610c1d380380610c1d83398101604081905261002f91610209565b806001600160a01b03811661005e57604051631e4fbdf760e01b81526000600482015260240160405180910390fd5b6100678161008d565b506100768787878787876100dd565b505060045460085550504260095550610278915050565b600080546001600160a01b038381166001600160a01b0319831681178455604051919092169283917f8be0079c531659141344cd1fd0a4f28419497f9722a3daafe3b4186f6b6457e09190a35050565b848611156100fe5760405163a883435760e01b815260040160405180910390fd5b8584108061010b57508484115b156101295760405163a883435760e01b815260040160405180910390fd5b670de0b6b3a764000081118061013e57508082115b1561015c5760405163a883435760e01b815260040160405180910390fd5b82158061016f57506611c37937e0800083115b1561018d57604051633b826ca560e01b815260040160405180910390fd5b6002869055600385905560048490556005839055600682905560078190556040805187815260208101879052908101859052606081018490526080810183905260a081018290527fb4e1fbeb0ffbfe92679bdf67bebeda0b781e7a37849484c69d99695f31e4b0299060c00160405180910390a1505050505050565b600080600080600080600060e0888a03121561022457600080fd5b8751602089015160408a015160608b015160808c015160a08d015160c08e0151959c50939a509198509650945092506001600160a01b038116811461026857600080fd5b8091505092959891949750929550565b610996806102876000396000f3fe608060405234801561001057600080fd5b506004361061010b5760003560e01c8063642fccf3116100a2578063c046371111610071578063c0463711146101d8578063e0e79dde146101e1578063e6a69ab8146101ea578063f2fde38b146101f5578063f71bd11b1461020857600080fd5b8063642fccf3146101ad578063715018a6146101b657806378789c21146101be5780638da5cb5b146101c757600080fd5b80634437152a116100de5780634437152a1461017f57806353704f9a1461019257806359e0fdd51461019b57806360577981146101a457600080fd5b806302b8c56d1461011057806316f0115b14610125578063282c87491461015557806328637d0114610168575b600080fd5b61012361011e366004610846565b61021b565b005b600154610138906001600160a01b031681565b6040516001600160a01b0390911681526020015b60405180910390f35b61012361016336600461085f565b6102ec565b61017160055481565b60405190815260200161014c565b61012361018d3660046108a2565b610330565b61017160035481565b61017160075481565b61017160085481565b61017160065481565b6101236103f7565b61017160045481565b6000546001600160a01b0316610138565b61017160095481565b61017160025481565b6101716301e1338081565b6101236102033660046108a2565b61040b565b610171610216366004610846565b610449565b6001546001600160a01b031661024457604051636b271baf60e11b815260040160405180910390fd5b6001546001600160a01b0316331461026f57604051633161235360e21b815260040160405180910390fd5b60015460408051637510e6c960e11b815290516000926001600160a01b03169163ea21cd929160048083019260209291908290030181865afa1580156102b9573d6000803e3d6000fd5b505050506040513d601f19601f820116820180604052508101906102dd91906108d2565b90506102e881610475565b5050565b6102f461069d565b6103028686868686866106ca565b6002546008541015610315576002546008555b6003546008541115610328576003546008555b505050505050565b61033861069d565b6001546001600160a01b03161561036257604051632fc00d1f60e11b815260040160405180910390fd5b6001600160a01b0381166103a95760405162461bcd60e51b8152602060048201526009602482015268706f6f6c207a65726f60b81b60448201526064015b60405180910390fd5b600180546001600160a01b0319166001600160a01b038316908117909155426009556040517f521cc4cd216e9e9a917662656858a362aee1aedc5d4638e0cf611b9bb9283f7e90600090a250565b6103ff61069d565b61040960006107f6565b565b61041361069d565b6001600160a01b03811661043d57604051631e4fbdf760e01b8152600060048201526024016103a0565b610446816107f6565b50565b600060085460000361045d57506000919050565b6301e1338060085461046f9190610901565b92915050565b60095460006104848242610923565b90508060000361049357505050565b6008546007548411156104f9576000600754856104b09190610923565b90506000670de0b6b3a7640000826005546104cb9190610936565b6104d59190610901565b905060006104e38583610936565b90506104ef818561094d565b935050505061062e565b600654841015610582576000846006546105139190610923565b90506000670de0b6b3a76400008260055461052e9190610936565b6105389190610901565b905060006105468583610936565b90508381101580610561575060025461055f8286610923565b105b1561057057600254935061057a565b6104ef8185610923565b50505061062e565b6004548111156105da5760006004548261059c9190610923565b905060006004846005546105b09190610936565b6105ba9190610901565b9050818111156105c75750805b6105d18184610923565b9250505061062e565b60045481101561062e576000816004546105f49190610923565b905060006004846005546106089190610936565b6106129190610901565b90508181111561061f5750805b610629818461094d565b925050505b60035481111561063d57506003545b60025481101561064c57506002545b6008819055426009819055604080518681526020810184905280820192909252517ff795133e6378ca3320adb14ce7e005cce46d505b6d72c1495a2effab6ccbfddb9181900360600190a150505050565b6000546001600160a01b031633146104095760405163118cdaa760e01b81523360048201526024016103a0565b848611156106eb5760405163a883435760e01b815260040160405180910390fd5b858410806106f857508484115b156107165760405163a883435760e01b815260040160405180910390fd5b670de0b6b3a764000081118061072b57508082115b156107495760405163a883435760e01b815260040160405180910390fd5b82158061075c57506611c37937e0800083115b1561077a57604051633b826ca560e01b815260040160405180910390fd5b6002869055600385905560048490556005839055600682905560078190556040805187815260208101879052908101859052606081018490526080810183905260a081018290527fb4e1fbeb0ffbfe92679bdf67bebeda0b781e7a37849484c69d99695f31e4b0299060c00160405180910390a1505050505050565b600080546001600160a01b038381166001600160a01b0319831681178455604051919092169283917f8be0079c531659141344cd1fd0a4f28419497f9722a3daafe3b4186f6b6457e09190a35050565b60006020828403121561085857600080fd5b5035919050565b60008060008060008060c0878903121561087857600080fd5b505084359660208601359650604086013595606081013595506080810135945060a0013592509050565b6000602082840312156108b457600080fd5b81356001600160a01b03811681146108cb57600080fd5b9392505050565b6000602082840312156108e457600080fd5b5051919050565b634e487b7160e01b600052601160045260246000fd5b60008261091e57634e487b7160e01b600052601260045260246000fd5b500490565b8181038181111561046f5761046f6108eb565b808202811582820484141761046f5761046f6108eb565b8082018082111561046f5761046f6108eb56fea26469706673582212207f3ce854eaadd1109ca421eb12e2faf6133c04c5f0dc0011d0f15cf6c021967a64736f6c63430008140033","opcodes":"PUSH1 0x80 PUSH1 0x40 MSTORE CALLVALUE DUP1 ISZERO PUSH2 0x10 JUMPI PUSH1 0x0 DUP1 REVERT JUMPDEST POP PUSH1 0x40 MLOAD PUSH2 0xC1D CODESIZE SUB DUP1 PUSH2 0xC1D DUP4 CODECOPY DUP2 ADD PUSH1 0x40 DUP2 SWAP1 MSTORE PUSH2 0x2F SWAP2 PUSH2 0x209 JUMP JUMPDEST DUP1 PUSH1 0x1 PUSH1 0x1 PUSH1 0xA0 SHL SUB DUP2 AND PUSH2 0x5E JUMPI PUSH1 0x40 MLOAD PUSH4 0x1E4FBDF7 PUSH1 0xE0 SHL DUP2 MSTORE PUSH1 0x0 PUSH1 0x4 DUP3 ADD MSTORE PUSH1 0x24 ADD PUSH1 0x40 MLOAD DUP1 SWAP2 SUB SWAP1 REVERT JUMPDEST PUSH2 0x67 DUP2 PUSH2 0x8D JUMP JUMPDEST POP PUSH2 0x76 DUP8 DUP8 DUP8 DUP8 DUP8 DUP8 PUSH2 0xDD JUMP JUMPDEST POP POP PUSH1 0x4 SLOAD PUSH1 0x8 SSTORE POP POP TIMESTAMP PUSH1 0x9 SSTORE POP PUSH2 0x278 SWAP2 POP POP JUMP JUMPDEST PUSH1 0x0 DUP1 SLOAD PUSH1 0x1 PUSH1 0x1 PUSH1 0xA0 SHL SUB DUP4 DUP2 AND PUSH1 0x1 PUSH1 0x1 PUSH1 0xA0 SHL SUB NOT DUP4 AND DUP2 OR DUP5 SSTORE PUSH1 0x40 MLOAD SWAP2 SWAP1 SWAP3 AND SWAP3 DUP4 SWAP2 PUSH32 0x8BE0079C531659141344CD1FD0A4F28419497F9722A3DAAFE3B4186F6B6457E0 SWAP2 SWAP1 LOG3 POP POP JUMP JUMPDEST DUP5 DUP7 GT ISZERO PUSH2 0xFE JUMPI PUSH1 0x40 MLOAD PUSH4 0xA8834357 PUSH1 0xE0 SHL DUP2 MSTORE PUSH1 0x4 ADD PUSH1 0x40 MLOAD DUP1 SWAP2 SUB SWAP1 REVERT JUMPDEST DUP6 DUP5 LT DUP1 PUSH2 0x10B JUMPI POP DUP5 DUP5 GT JUMPDEST ISZERO PUSH2 0x129 JUMPI PUSH1 0x40 MLOAD PUSH4 0xA8834357 PUSH1 0xE0 SHL DUP2 MSTORE PUSH1 0x4 ADD PUSH1 0x40 MLOAD DUP1 SWAP2 SUB SWAP1 REVERT JUMPDEST PUSH8 0xDE0B6B3A7640000 DUP2 GT DUP1 PUSH2 0x13E JUMPI POP DUP1 DUP3 GT JUMPDEST ISZERO PUSH2 0x15C JUMPI PUSH1 0x40 MLOAD PUSH4 0xA8834357 PUSH1 0xE0 SHL DUP2 MSTORE PUSH1 0x4 ADD PUSH1 0x40 MLOAD DUP1 SWAP2 SUB SWAP1 REVERT JUMPDEST DUP3 ISZERO DUP1 PUSH2 0x16F JUMPI POP PUSH7 0x11C37937E08000 DUP4 GT JUMPDEST ISZERO PUSH2 0x18D JUMPI PUSH1 0x40 MLOAD PUSH4 0x3B826CA5 PUSH1 0xE0 SHL DUP2 MSTORE PUSH1 0x4 ADD PUSH1 0x40 MLOAD DUP1 SWAP2 SUB SWAP1 REVERT JUMPDEST PUSH1 0x2 DUP7 SWAP1 SSTORE PUSH1 0x3 DUP6 SWAP1 SSTORE PUSH1 0x4 DUP5 SWAP1 SSTORE PUSH1 0x5 DUP4 SWAP1 SSTORE PUSH1 0x6 DUP3 SWAP1 SSTORE PUSH1 0x7 DUP2 SWAP1 SSTORE PUSH1 0x40 DUP1 MLOAD DUP8 DUP2 MSTORE PUSH1 0x20 DUP2 ADD DUP8 SWAP1 MSTORE SWAP1 DUP2 ADD DUP6 SWAP1 MSTORE PUSH1 0x60 DUP2 ADD DUP5 SWAP1 MSTORE PUSH1 0x80 DUP2 ADD DUP4 SWAP1 MSTORE PUSH1 0xA0 DUP2 ADD DUP3 SWAP1 MSTORE PUSH32 0xB4E1FBEB0FFBFE92679BDF67BEBEDA0B781E7A37849484C69D99695F31E4B029 SWAP1 PUSH1 0xC0 ADD PUSH1 0x40 MLOAD DUP1 SWAP2 SUB SWAP1 LOG1 POP POP POP POP POP POP JUMP JUMPDEST PUSH1 0x0 DUP1 PUSH1 0x0 DUP1 PUSH1 0x0 DUP1 PUSH1 0x0 PUSH1 0xE0 DUP9 DUP11 SUB SLT ISZERO PUSH2 0x224 JUMPI PUSH1 0x0 DUP1 REVERT JUMPDEST DUP8 MLOAD PUSH1 0x20 DUP10 ADD MLOAD PUSH1 0x40 DUP11 ADD MLOAD PUSH1 0x60 DUP12 ADD MLOAD PUSH1 0x80 DUP13 ADD MLOAD PUSH1 0xA0 DUP14 ADD MLOAD PUSH1 0xC0 DUP15 ADD MLOAD SWAP6 SWAP13 POP SWAP4 SWAP11 POP SWAP2 SWAP9 POP SWAP7 POP SWAP5 POP SWAP3 POP PUSH1 0x1 PUSH1 0x1 PUSH1 0xA0 SHL SUB DUP2 AND DUP2 EQ PUSH2 0x268 JUMPI PUSH1 0x0 DUP1 REVERT JUMPDEST DUP1 SWAP2 POP POP SWAP3 SWAP6 SWAP9 SWAP2 SWAP5 SWAP8 POP SWAP3 SWAP6 POP JUMP JUMPDEST PUSH2 0x996 DUP1 PUSH2 0x287 PUSH1 0x0 CODECOPY PUSH1 0x0 RETURN INVALID PUSH1 0x80 PUSH1 0x40 MSTORE CALLVALUE DUP1 ISZERO PUSH2 0x10 JUMPI PUSH1 0x0 DUP1 REVERT JUMPDEST POP PUSH1 0x4 CALLDATASIZE LT PUSH2 0x10B JUMPI PUSH1 0x0 CALLDATALOAD PUSH1 0xE0 SHR DUP1 PUSH4 0x642FCCF3 GT PUSH2 0xA2 JUMPI DUP1 PUSH4 0xC0463711 GT PUSH2 0x71 JUMPI DUP1 PUSH4 0xC0463711 EQ PUSH2 0x1D8 JUMPI DUP1 PUSH4 0xE0E79DDE EQ PUSH2 0x1E1 JUMPI DUP1 PUSH4 0xE6A69AB8 EQ PUSH2 0x1EA JUMPI DUP1 PUSH4 0xF2FDE38B EQ PUSH2 0x1F5 JUMPI DUP1 PUSH4 0xF71BD11B EQ PUSH2 0x208 JUMPI PUSH1 0x0 DUP1 REVERT JUMPDEST DUP1 PUSH4 0x642FCCF3 EQ PUSH2 0x1AD JUMPI DUP1 PUSH4 0x715018A6 EQ PUSH2 0x1B6 JUMPI DUP1 PUSH4 0x78789C21 EQ PUSH2 0x1BE JUMPI DUP1 PUSH4 0x8DA5CB5B EQ PUSH2 0x1C7 JUMPI PUSH1 0x0 DUP1 REVERT JUMPDEST DUP1 PUSH4 0x4437152A GT PUSH2 0xDE JUMPI DUP1 PUSH4 0x4437152A EQ PUSH2 0x17F JUMPI DUP1 PUSH4 0x53704F9A EQ PUSH2 0x192 JUMPI DUP1 PUSH4 0x59E0FDD5 EQ PUSH2 0x19B JUMPI DUP1 PUSH4 0x60577981 EQ PUSH2 0x1A4 JUMPI PUSH1 0x0 DUP1 REVERT JUMPDEST DUP1 PUSH4 0x2B8C56D EQ PUSH2 0x110 JUMPI DUP1 PUSH4 0x16F0115B EQ PUSH2 0x125 JUMPI DUP1 PUSH4 0x282C8749 EQ PUSH2 0x155 JUMPI DUP1 PUSH4 0x28637D01 EQ PUSH2 0x168 JUMPI JUMPDEST PUSH1 0x0 DUP1 REVERT JUMPDEST PUSH2 0x123 PUSH2 0x11E CALLDATASIZE PUSH1 0x4 PUSH2 0x846 JUMP JUMPDEST PUSH2 0x21B JUMP JUMPDEST STOP JUMPDEST PUSH1 0x1 SLOAD PUSH2 0x138 SWAP1 PUSH1 0x1 PUSH1 0x1 PUSH1 0xA0 SHL SUB AND DUP2 JUMP JUMPDEST PUSH1 0x40 MLOAD PUSH1 0x1 PUSH1 0x1 PUSH1 0xA0 SHL SUB SWAP1 SWAP2 AND DUP2 MSTORE PUSH1 0x20 ADD JUMPDEST PUSH1 0x40 MLOAD DUP1 SWAP2 SUB SWAP1 RETURN JUMPDEST PUSH2 0x123 PUSH2 0x163 CALLDATASIZE PUSH1 0x4 PUSH2 0x85F JUMP JUMPDEST PUSH2 0x2EC JUMP JUMPDEST PUSH2 0x171 PUSH1 0x5 SLOAD DUP2 JUMP JUMPDEST PUSH1 0x40 MLOAD SWAP1 DUP2 MSTORE PUSH1 0x20 ADD PUSH2 0x14C JUMP JUMPDEST PUSH2 0x123 PUSH2 0x18D CALLDATASIZE PUSH1 0x4 PUSH2 0x8A2 JUMP JUMPDEST PUSH2 0x330 JUMP JUMPDEST PUSH2 0x171 PUSH1 0x3 SLOAD DUP2 JUMP JUMPDEST PUSH2 0x171 PUSH1 0x7 SLOAD DUP2 JUMP JUMPDEST PUSH2 0x171 PUSH1 0x8 SLOAD DUP2 JUMP JUMPDEST PUSH2 0x171 PUSH1 0x6 SLOAD DUP2 JUMP JUMPDEST PUSH2 0x123 PUSH2 0x3F7 JUMP JUMPDEST PUSH2 0x171 PUSH1 0x4 SLOAD DUP2 JUMP JUMPDEST PUSH1 0x0 SLOAD PUSH1 0x1 PUSH1 0x1 PUSH1 0xA0 SHL SUB AND PUSH2 0x138 JUMP JUMPDEST PUSH2 0x171 PUSH1 0x9 SLOAD DUP2 JUMP JUMPDEST PUSH2 0x171 PUSH1 0x2 SLOAD DUP2 JUMP JUMPDEST PUSH2 0x171 PUSH4 0x1E13380 DUP2 JUMP JUMPDEST PUSH2 0x123 PUSH2 0x203 CALLDATASIZE PUSH1 0x4 PUSH2 0x8A2 JUMP JUMPDEST PUSH2 0x40B JUMP JUMPDEST PUSH2 0x171 PUSH2 0x216 CALLDATASIZE PUSH1 0x4 PUSH2 0x846 JUMP JUMPDEST PUSH2 0x449 JUMP JUMPDEST PUSH1 0x1 SLOAD PUSH1 0x1 PUSH1 0x1 PUSH1 0xA0 SHL SUB AND PUSH2 0x244 JUMPI PUSH1 0x40 MLOAD PUSH4 0x6B271BAF PUSH1 0xE1 SHL DUP2 MSTORE PUSH1 0x4 ADD PUSH1 0x40 MLOAD DUP1 SWAP2 SUB SWAP1 REVERT JUMPDEST PUSH1 0x1 SLOAD PUSH1 0x1 PUSH1 0x1 PUSH1 0xA0 SHL SUB AND CALLER EQ PUSH2 0x26F JUMPI PUSH1 0x40 MLOAD PUSH4 0x31612353 PUSH1 0xE2 SHL DUP2 MSTORE PUSH1 0x4 ADD PUSH1 0x40 MLOAD DUP1 SWAP2 SUB SWAP1 REVERT JUMPDEST PUSH1 0x1 SLOAD PUSH1 0x40 DUP1 MLOAD PUSH4 0x7510E6C9 PUSH1 0xE1 SHL DUP2 MSTORE SWAP1 MLOAD PUSH1 0x0 SWAP3 PUSH1 0x1 PUSH1 0x1 PUSH1 0xA0 SHL SUB AND SWAP2 PUSH4 0xEA21CD92 SWAP2 PUSH1 0x4 DUP1 DUP4 ADD SWAP3 PUSH1 0x20 SWAP3 SWAP2 SWAP1 DUP3 SWAP1 SUB ADD DUP2 DUP7 GAS STATICCALL ISZERO DUP1 ISZERO PUSH2 0x2B9 JUMPI RETURNDATASIZE PUSH1 0x0 DUP1 RETURNDATACOPY RETURNDATASIZE PUSH1 0x0 REVERT JUMPDEST POP POP POP POP PUSH1 0x40 MLOAD RETURNDATASIZE PUSH1 0x1F NOT PUSH1 0x1F DUP3 ADD AND DUP3 ADD DUP1 PUSH1 0x40 MSTORE POP DUP2 ADD SWAP1 PUSH2 0x2DD SWAP2 SWAP1 PUSH2 0x8D2 JUMP JUMPDEST SWAP1 POP PUSH2 0x2E8 DUP2 PUSH2 0x475 JUMP JUMPDEST POP POP JUMP JUMPDEST PUSH2 0x2F4 PUSH2 0x69D JUMP JUMPDEST PUSH2 0x302 DUP7 DUP7 DUP7 DUP7 DUP7 DUP7 PUSH2 0x6CA JUMP JUMPDEST PUSH1 0x2 SLOAD PUSH1 0x8 SLOAD LT ISZERO PUSH2 0x315 JUMPI PUSH1 0x2 SLOAD PUSH1 0x8 SSTORE JUMPDEST PUSH1 0x3 SLOAD PUSH1 0x8 SLOAD GT ISZERO PUSH2 0x328 JUMPI PUSH1 0x3 SLOAD PUSH1 0x8 SSTORE JUMPDEST POP POP POP POP POP POP JUMP JUMPDEST PUSH2 0x338 PUSH2 0x69D JUMP JUMPDEST PUSH1 0x1 SLOAD PUSH1 0x1 PUSH1 0x1 PUSH1 0xA0 SHL SUB AND ISZERO PUSH2 0x362 JUMPI PUSH1 0x40 MLOAD PUSH4 0x2FC00D1F PUSH1 0xE1 SHL DUP2 MSTORE PUSH1 0x4 ADD PUSH1 0x40 MLOAD DUP1 SWAP2 SUB SWAP1 REVERT JUMPDEST PUSH1 0x1 PUSH1 0x1 PUSH1 0xA0 SHL SUB DUP2 AND PUSH2 0x3A9 JUMPI PUSH1 0x40 MLOAD PUSH3 0x461BCD PUSH1 0xE5 SHL DUP2 MSTORE PUSH1 0x20 PUSH1 0x4 DUP3 ADD MSTORE PUSH1 0x9 PUSH1 0x24 DUP3 ADD MSTORE PUSH9 0x706F6F6C207A65726F PUSH1 0xB8 SHL PUSH1 0x44 DUP3 ADD MSTORE PUSH1 0x64 ADD JUMPDEST PUSH1 0x40 MLOAD DUP1 SWAP2 SUB SWAP1 REVERT JUMPDEST PUSH1 0x1 DUP1 SLOAD PUSH1 0x1 PUSH1 0x1 PUSH1 0xA0 SHL SUB NOT AND PUSH1 0x1 PUSH1 0x1 PUSH1 0xA0 SHL SUB DUP4 AND SWAP1 DUP2 OR SWAP1 SWAP2 SSTORE TIMESTAMP PUSH1 0x9 SSTORE PUSH1 0x40 MLOAD PUSH32 0x521CC4CD216E9E9A917662656858A362AEE1AEDC5D4638E0CF611B9BB9283F7E SWAP1 PUSH1 0x0 SWAP1 LOG2 POP JUMP JUMPDEST PUSH2 0x3FF PUSH2 0x69D JUMP JUMPDEST PUSH2 0x409 PUSH1 0x0 PUSH2 0x7F6 JUMP JUMPDEST JUMP JUMPDEST PUSH2 0x413 PUSH2 0x69D JUMP JUMPDEST PUSH1 0x1 PUSH1 0x1 PUSH1 0xA0 SHL SUB DUP2 AND PUSH2 0x43D JUMPI PUSH1 0x40 MLOAD PUSH4 0x1E4FBDF7 PUSH1 0xE0 SHL DUP2 MSTORE PUSH1 0x0 PUSH1 0x4 DUP3 ADD MSTORE PUSH1 0x24 ADD PUSH2 0x3A0 JUMP JUMPDEST PUSH2 0x446 DUP2 PUSH2 0x7F6 JUMP JUMPDEST POP JUMP JUMPDEST PUSH1 0x0 PUSH1 0x8 SLOAD PUSH1 0x0 SUB PUSH2 0x45D JUMPI POP PUSH1 0x0 SWAP2 SWAP1 POP JUMP JUMPDEST PUSH4 0x1E13380 PUSH1 0x8 SLOAD PUSH2 0x46F SWAP2 SWAP1 PUSH2 0x901 JUMP JUMPDEST SWAP3 SWAP2 POP POP JUMP JUMPDEST PUSH1 0x9 SLOAD PUSH1 0x0 PUSH2 0x484 DUP3 TIMESTAMP PUSH2 0x923 JUMP JUMPDEST SWAP1 POP DUP1 PUSH1 0x0 SUB PUSH2 0x493 JUMPI POP POP POP JUMP JUMPDEST PUSH1 0x8 SLOAD PUSH1 0x7 SLOAD DUP5 GT ISZERO PUSH2 0x4F9 JUMPI PUSH1 0x0 PUSH1 0x7 SLOAD DUP6 PUSH2 0x4B0 SWAP2 SWAP1 PUSH2 0x923 JUMP JUMPDEST SWAP1 POP PUSH1 0x0 PUSH8 0xDE0B6B3A7640000 DUP3 PUSH1 0x5 SLOAD PUSH2 0x4CB SWAP2 SWAP1 PUSH2 0x936 JUMP JUMPDEST PUSH2 0x4D5 SWAP2 SWAP1 PUSH2 0x901 JUMP JUMPDEST SWAP1 POP PUSH1 0x0 PUSH2 0x4E3 DUP6 DUP4 PUSH2 0x936 JUMP JUMPDEST SWAP1 POP PUSH2 0x4EF DUP2 DUP6 PUSH2 0x94D JUMP JUMPDEST SWAP4 POP POP POP POP PUSH2 0x62E JUMP JUMPDEST PUSH1 0x6 SLOAD DUP5 LT ISZERO PUSH2 0x582 JUMPI PUSH1 0x0 DUP5 PUSH1 0x6 SLOAD PUSH2 0x513 SWAP2 SWAP1 PUSH2 0x923 JUMP JUMPDEST SWAP1 POP PUSH1 0x0 PUSH8 0xDE0B6B3A7640000 DUP3 PUSH1 0x5 SLOAD PUSH2 0x52E SWAP2 SWAP1 PUSH2 0x936 JUMP JUMPDEST PUSH2 0x538 SWAP2 SWAP1 PUSH2 0x901 JUMP JUMPDEST SWAP1 POP PUSH1 0x0 PUSH2 0x546 DUP6 DUP4 PUSH2 0x936 JUMP JUMPDEST SWAP1 POP DUP4 DUP2 LT ISZERO DUP1 PUSH2 0x561 JUMPI POP PUSH1 0x2 SLOAD PUSH2 0x55F DUP3 DUP7 PUSH2 0x923 JUMP JUMPDEST LT JUMPDEST ISZERO PUSH2 0x570 JUMPI PUSH1 0x2 SLOAD SWAP4 POP PUSH2 0x57A JUMP JUMPDEST PUSH2 0x4EF DUP2 DUP6 PUSH2 0x923 JUMP JUMPDEST POP POP POP PUSH2 0x62E JUMP JUMPDEST PUSH1 0x4 SLOAD DUP2 GT ISZERO PUSH2 0x5DA JUMPI PUSH1 0x0 PUSH1 0x4 SLOAD DUP3 PUSH2 0x59C SWAP2 SWAP1 PUSH2 0x923 JUMP JUMPDEST SWAP1 POP PUSH1 0x0 PUSH1 0x4 DUP5 PUSH1 0x5 SLOAD PUSH2 0x5B0 SWAP2 SWAP1 PUSH2 0x936 JUMP JUMPDEST PUSH2 0x5BA SWAP2 SWAP1 PUSH2 0x901 JUMP JUMPDEST SWAP1 POP DUP2 DUP2 GT ISZERO PUSH2 0x5C7 JUMPI POP DUP1 JUMPDEST PUSH2 0x5D1 DUP2 DUP5 PUSH2 0x923 JUMP JUMPDEST SWAP3 POP POP POP PUSH2 0x62E JUMP JUMPDEST PUSH1 0x4 SLOAD DUP2 LT ISZERO PUSH2 0x62E JUMPI PUSH1 0x0 DUP2 PUSH1 0x4 SLOAD PUSH2 0x5F4 SWAP2 SWAP1 PUSH2 0x923 JUMP JUMPDEST SWAP1 POP PUSH1 0x0 PUSH1 0x4 DUP5 PUSH1 0x5 SLOAD PUSH2 0x608 SWAP2 SWAP1 PUSH2 0x936 JUMP JUMPDEST PUSH2 0x612 SWAP2 SWAP1 PUSH2 0x901 JUMP JUMPDEST SWAP1 POP DUP2 DUP2 GT ISZERO PUSH2 0x61F JUMPI POP DUP1 JUMPDEST PUSH2 0x629 DUP2 DUP5 PUSH2 0x94D JUMP JUMPDEST SWAP3 POP POP POP JUMPDEST PUSH1 0x3 SLOAD DUP2 GT ISZERO PUSH2 0x63D JUMPI POP PUSH1 0x3 SLOAD JUMPDEST PUSH1 0x2 SLOAD DUP2 LT ISZERO PUSH2 0x64C JUMPI POP PUSH1 0x2 SLOAD JUMPDEST PUSH1 0x8 DUP2 SWAP1 SSTORE TIMESTAMP PUSH1 0x9 DUP2 SWAP1 SSTORE PUSH1 0x40 DUP1 MLOAD DUP7 DUP2 MSTORE PUSH1 0x20 DUP2 ADD DUP5 SWAP1 MSTORE DUP1 DUP3 ADD SWAP3 SWAP1 SWAP3 MSTORE MLOAD PUSH32 0xF795133E6378CA3320ADB14CE7E005CCE46D505B6D72C1495A2EFFAB6CCBFDDB SWAP2 DUP2 SWAP1 SUB PUSH1 0x60 ADD SWAP1 LOG1 POP POP POP POP JUMP JUMPDEST PUSH1 0x0 SLOAD PUSH1 0x1 PUSH1 0x1 PUSH1 0xA0 SHL SUB AND CALLER EQ PUSH2 0x409 JUMPI PUSH1 0x40 MLOAD PUSH4 0x118CDAA7 PUSH1 0xE0 SHL DUP2 MSTORE CALLER PUSH1 0x4 DUP3 ADD MSTORE PUSH1 0x24 ADD PUSH2 0x3A0 JUMP JUMPDEST DUP5 DUP7 GT ISZERO PUSH2 0x6EB JUMPI PUSH1 0x40 MLOAD PUSH4 0xA8834357 PUSH1 0xE0 SHL DUP2 MSTORE PUSH1 0x4 ADD PUSH1 0x40 MLOAD DUP1 SWAP2 SUB SWAP1 REVERT JUMPDEST DUP6 DUP5 LT DUP1 PUSH2 0x6F8 JUMPI POP DUP5 DUP5 GT JUMPDEST ISZERO PUSH2 0x716 JUMPI PUSH1 0x40 MLOAD PUSH4 0xA8834357 PUSH1 0xE0 SHL DUP2 MSTORE PUSH1 0x4 ADD PUSH1 0x40 MLOAD DUP1 SWAP2 SUB SWAP1 REVERT JUMPDEST PUSH8 0xDE0B6B3A7640000 DUP2 GT DUP1 PUSH2 0x72B JUMPI POP DUP1 DUP3 GT JUMPDEST ISZERO PUSH2 0x749 JUMPI PUSH1 0x40 MLOAD PUSH4 0xA8834357 PUSH1 0xE0 SHL DUP2 MSTORE PUSH1 0x4 ADD PUSH1 0x40 MLOAD DUP1 SWAP2 SUB SWAP1 REVERT JUMPDEST DUP3 ISZERO DUP1 PUSH2 0x75C JUMPI POP PUSH7 0x11C37937E08000 DUP4 GT JUMPDEST ISZERO PUSH2 0x77A JUMPI PUSH1 0x40 MLOAD PUSH4 0x3B826CA5 PUSH1 0xE0 SHL DUP2 MSTORE PUSH1 0x4 ADD PUSH1 0x40 MLOAD DUP1 SWAP2 SUB SWAP1 REVERT JUMPDEST PUSH1 0x2 DUP7 SWAP1 SSTORE PUSH1 0x3 DUP6 SWAP1 SSTORE PUSH1 0x4 DUP5 SWAP1 SSTORE PUSH1 0x5 DUP4 SWAP1 SSTORE PUSH1 0x6 DUP3 SWAP1 SSTORE PUSH1 0x7 DUP2 SWAP1 SSTORE PUSH1 0x40 DUP1 MLOAD DUP8 DUP2 MSTORE PUSH1 0x20 DUP2 ADD DUP8 SWAP1 MSTORE SWAP1 DUP2 ADD DUP6 SWAP1 MSTORE PUSH1 0x60 DUP2 ADD DUP5 SWAP1 MSTORE PUSH1 0x80 DUP2 ADD DUP4 SWAP1 MSTORE PUSH1 0xA0 DUP2 ADD DUP3 SWAP1 MSTORE PUSH32 0xB4E1FBEB0FFBFE92679BDF67BEBEDA0B781E7A37849484C69D99695F31E4B029 SWAP1 PUSH1 0xC0 ADD PUSH1 0x40 MLOAD DUP1 SWAP2 SUB SWAP1 LOG1 POP POP POP POP POP POP JUMP JUMPDEST PUSH1 0x0 DUP1 SLOAD PUSH1 0x1 PUSH1 0x1 PUSH1 0xA0 SHL SUB DUP4 DUP2 AND PUSH1 0x1 PUSH1 0x1 PUSH1 0xA0 SHL SUB NOT DUP4 AND DUP2 OR DUP5 SSTORE PUSH1 0x40 MLOAD SWAP2 SWAP1 SWAP3 AND SWAP3 DUP4 SWAP2 PUSH32 0x8BE0079C531659141344CD1FD0A4F28419497F9722A3DAAFE3B4186F6B6457E0 SWAP2 SWAP1 LOG3 POP POP JUMP JUMPDEST PUSH1 0x0 PUSH1 0x20 DUP3 DUP5 SUB SLT ISZERO PUSH2 0x858 JUMPI PUSH1 0x0 DUP1 REVERT JUMPDEST POP CALLDATALOAD SWAP2 SWAP1 POP JUMP JUMPDEST PUSH1 0x0 DUP1 PUSH1 0x0 DUP1 PUSH1 0x0 DUP1 PUSH1 0xC0 DUP8 DUP10 SUB SLT ISZERO PUSH2 0x878 JUMPI PUSH1 0x0 DUP1 REVERT JUMPDEST POP POP DUP5 CALLDATALOAD SWAP7 PUSH1 0x20 DUP7 ADD CALLDATALOAD SWAP7 POP PUSH1 0x40 DUP7 ADD CALLDATALOAD SWAP6 PUSH1 0x60 DUP2 ADD CALLDATALOAD SWAP6 POP PUSH1 0x80 DUP2 ADD CALLDATALOAD SWAP5 POP PUSH1 0xA0 ADD CALLDATALOAD SWAP3 POP SWAP1 POP JUMP JUMPDEST PUSH1 0x0 PUSH1 0x20 DUP3 DUP5 SUB SLT ISZERO PUSH2 0x8B4 JUMPI PUSH1 0x0 DUP1 REVERT JUMPDEST DUP2 CALLDATALOAD PUSH1 0x1 PUSH1 0x1 PUSH1 0xA0 SHL SUB DUP2 AND DUP2 EQ PUSH2 0x8CB JUMPI PUSH1 0x0 DUP1 REVERT JUMPDEST SWAP4 SWAP3 POP POP POP JUMP JUMPDEST PUSH1 0x0 PUSH1 0x20 DUP3 DUP5 SUB SLT ISZERO PUSH2 0x8E4 JUMPI PUSH1 0x0 DUP1 REVERT JUMPDEST POP MLOAD SWAP2 SWAP1 POP JUMP JUMPDEST PUSH4 0x4E487B71 PUSH1 0xE0 SHL PUSH1 0x0 MSTORE PUSH1 0x11 PUSH1 0x4 MSTORE PUSH1 0x24 PUSH1 0x0 REVERT JUMPDEST PUSH1 0x0 DUP3 PUSH2 0x91E JUMPI PUSH4 0x4E487B71 PUSH1 0xE0 SHL PUSH1 0x0 MSTORE PUSH1 0x12 PUSH1 0x4 MSTORE PUSH1 0x24 PUSH1 0x0 REVERT JUMPDEST POP DIV SWAP1 JUMP JUMPDEST DUP2 DUP2 SUB DUP2 DUP2 GT ISZERO PUSH2 0x46F JUMPI PUSH2 0x46F PUSH2 0x8EB JUMP JUMPDEST DUP1 DUP3 MUL DUP2 ISZERO DUP3 DUP3 DIV DUP5 EQ OR PUSH2 0x46F JUMPI PUSH2 0x46F PUSH2 0x8EB JUMP JUMPDEST DUP1 DUP3 ADD DUP1 DUP3 GT ISZERO PUSH2 0x46F JUMPI PUSH2 0x46F PUSH2 0x8EB JUMP INVALID LOG2 PUSH5 0x6970667358 0x22 SLT KECCAK256 PUSH32 0x3CE854EAADD1109CA421EB12E2FAF6133C04C5F0DC0011D0F15CF6C021967A64 PUSH20 0x6F6C634300081400330000000000000000000000 "},"methodIdentifiers":{"SECONDS_PER_YEAR()":"e6a69ab8","adjustmentRatePerSecond()":"28637d01","currentAPR()":"60577981","getBorrowRatePerSecond(uint256)":"f71bd11b","lastUpdate()":"c0463711","lowerUtilization()":"642fccf3","maxAPR()":"53704f9a","minAPR()":"e0e79dde","neutralAPR()":"78789c21","owner()":"8da5cb5b","pool()":"16f0115b","renounceOwnership()":"715018a6","setParameters(uint256,uint256,uint256,uint256,uint256,uint256)":"282c8749","setPool(address)":"4437152a","transferOwnership(address)":"f2fde38b","updateBorrowRate(uint256)":"02b8c56d","upperUtilization()":"59e0fdd5"}}}}}