{"contracts/interest/TimeWeightedInterestRateModel.sol":{"TimeWeightedInterestRateModel":{"abi":[{"inputs":[{"internalType":"uint256","name":"_minAPR","type":"uint256"},{"internalType":"uint256","name":"_maxAPR","type":"uint256"},{"internalType":"uint256","name":"_neutralAPR","type":"uint256"},{"internalType":"uint256","name":"_adjustmentRatePerSecond","type":"uint256"},{"internalType":"uint256","name":"_lowerUtilization","type":"uint256"},{"internalType":"uint256","name":"_upperUtilization","type":"uint256"},{"internalType":"address","name":"admin","type":"address"}],"stateMutability":"nonpayable","type":"constructor"},{"inputs":[],"name":"InvalidAdjustmentRate","type":"error"},{"inputs":[],"name":"InvalidBounds","type":"error"},{"inputs":[{"internalType":"address","name":"owner","type":"address"}],"name":"OwnableInvalidOwner","type":"error"},{"inputs":[{"internalType":"address","name":"account","type":"address"}],"name":"OwnableUnauthorizedAccount","type":"error"},{"inputs":[],"name":"PoolAlreadySet","type":"error"},{"inputs":[],"name":"PoolNotConfigured","type":"error"},{"inputs":[],"name":"UnauthorizedUpdater","type":"error"},{"anonymous":false,"inputs":[{"indexed":true,"internalType":"address","name":"previousOwner","type":"address"},{"indexed":true,"internalType":"address","name":"newOwner","type":"address"}],"name":"OwnershipTransferred","type":"event"},{"anonymous":false,"inputs":[{"indexed":false,"internalType":"uint256","name":"minAPR","type":"uint256"},{"indexed":false,"internalType":"uint256","name":"maxAPR","type":"uint256"},{"indexed":false,"internalType":"uint256","name":"neutralAPR","type":"uint256"},{"indexed":false,"internalType":"uint256","name":"adjustmentRatePerSecond","type":"uint256"},{"indexed":false,"internalType":"uint256","name":"lowerUtilization","type":"uint256"},{"indexed":false,"internalType":"uint256","name":"upperUtilization","type":"uint256"}],"name":"ParametersUpdated","type":"event"},{"anonymous":false,"inputs":[{"indexed":true,"internalType":"address","name":"pool","type":"address"}],"name":"PoolConfigured","type":"event"},{"anonymous":false,"inputs":[{"indexed":false,"internalType":"uint256","name":"utilization","type":"uint256"},{"indexed":false,"internalType":"uint256","name":"newAPR","type":"uint256"},{"indexed":false,"internalType":"uint256","name":"timestamp","type":"uint256"}],"name":"RateAdjusted","type":"event"},{"inputs":[],"name":"SECONDS_PER_YEAR","outputs":[{"internalType":"uint256","name":"","type":"uint256"}],"stateMutability":"view","type":"function"},{"inputs":[],"name":"adjustmentRatePerSecond","outputs":[{"internalType":"uint256","name":"","type":"uint256"}],"stateMutability":"view","type":"function"},{"inputs":[],"name":"currentAPR","outputs":[{"internalType":"uint256","name":"","type":"uint256"}],"stateMutability":"view","type":"function"},{"inputs":[{"internalType":"uint256","name":"","type":"uint256"}],"name":"getBorrowRatePerSecond","outputs":[{"internalType":"uint256","name":"","type":"uint256"}],"stateMutability":"view","type":"function"},{"inputs":[],"name":"lastUpdate","outputs":[{"internalType":"uint256","name":"","type":"uint256"}],"stateMutability":"view","type":"function"},{"inputs":[],"name":"lowerUtilization","outputs":[{"internalType":"uint256","name":"","type":"uint256"}],"stateMutability":"view","type":"function"},{"inputs":[],"name":"maxAPR","outputs":[{"internalType":"uint256","name":"","type":"uint256"}],"stateMutability":"view","type":"function"},{"inputs":[],"name":"minAPR","outputs":[{"internalType":"uint256","name":"","type":"uint256"}],"stateMutability":"view","type":"function"},{"inputs":[],"name":"neutralAPR","outputs":[{"internalType":"uint256","name":"","type":"uint256"}],"stateMutability":"view","type":"function"},{"inputs":[],"name":"owner","outputs":[{"internalType":"address","name":"","type":"address"}],"stateMutability":"view","type":"function"},{"inputs":[],"name":"pool","outputs":[{"internalType":"address","name":"","type":"address"}],"stateMutability":"view","type":"function"},{"inputs":[],"name":"renounceOwnership","outputs":[],"stateMutability":"nonpayable","type":"function"},{"inputs":[{"internalType":"uint256","name":"_minAPR","type":"uint256"},{"internalType":"uint256","name":"_maxAPR","type":"uint256"},{"internalType":"uint256","name":"_neutralAPR","type":"uint256"},{"internalType":"uint256","name":"_adjustmentRatePerSecond","type":"uint256"},{"internalType":"uint256","name":"_lowerUtilization","type":"uint256"},{"internalType":"uint256","name":"_upperUtilization","type":"uint256"}],"name":"setParameters","outputs":[],"stateMutability":"nonpayable","type":"function"},{"inputs":[{"internalType":"address","name":"_pool","type":"address"}],"name":"setPool","outputs":[],"stateMutability":"nonpayable","type":"function"},{"inputs":[{"internalType":"address","name":"newOwner","type":"address"}],"name":"transferOwnership","outputs":[],"stateMutability":"nonpayable","type":"function"},{"inputs":[{"internalType":"uint256","name":"","type":"uint256"}],"name":"updateBorrowRate","outputs":[],"stateMutability":"nonpayable","type":"function"},{"inputs":[],"name":"upperUtilization","outputs":[{"internalType":"uint256","name":"","type":"uint256"}],"stateMutability":"view","type":"function"}],"evm":{"bytecode":{"linkReferences":{},"object":"60806040523480156200001157600080fd5b50604051620016f8380380620016f88339818101604052810190620000379190620003ed565b80600073ffffffffffffffffffffffffffffffffffffffff168173ffffffffffffffffffffffffffffffffffffffff1603620000ad5760006040517f1e4fbdf7000000000000000000000000000000000000000000000000000000008152600401620000a49190620004b1565b60405180910390fd5b620000be81620000f260201b60201c565b50620000d5878787878787620001b660201b60201c565b60045460088190555042600981905550505050505050506200054c565b60008060009054906101000a900473ffffffffffffffffffffffffffffffffffffffff169050816000806101000a81548173ffffffffffffffffffffffffffffffffffffffff021916908373ffffffffffffffffffffffffffffffffffffffff1602179055508173ffffffffffffffffffffffffffffffffffffffff168173ffffffffffffffffffffffffffffffffffffffff167f8be0079c531659141344cd1fd0a4f28419497f9722a3daafe3b4186f6b6457e060405160405180910390a35050565b84861115620001f1576040517fa883435700000000000000000000000000000000000000000000000000000000815260040160405180910390fd5b85841080620001ff57508484115b1562000237576040517fa883435700000000000000000000000000000000000000000000000000000000815260040160405180910390fd5b670de0b6b3a76400008111806200024d57508082115b1562000285576040517fa883435700000000000000000000000000000000000000000000000000000000815260040160405180910390fd5b60008314806200029b57506611c37937e0800083115b15620002d3576040517f3b826ca500000000000000000000000000000000000000000000000000000000815260040160405180910390fd5b8560028190555084600381905550836004819055508260058190555081600681905550806007819055507fb4e1fbeb0ffbfe92679bdf67bebeda0b781e7a37849484c69d99695f31e4b0298686868686866040516200033896959493929190620004df565b60405180910390a1505050505050565b600080fd5b6000819050919050565b62000362816200034d565b81146200036e57600080fd5b50565b600081519050620003828162000357565b92915050565b600073ffffffffffffffffffffffffffffffffffffffff82169050919050565b6000620003b58262000388565b9050919050565b620003c781620003a8565b8114620003d357600080fd5b50565b600081519050620003e781620003bc565b92915050565b600080600080600080600060e0888a0312156200040f576200040e62000348565b5b60006200041f8a828b0162000371565b9750506020620004328a828b0162000371565b9650506040620004458a828b0162000371565b9550506060620004588a828b0162000371565b94505060806200046b8a828b0162000371565b93505060a06200047e8a828b0162000371565b92505060c0620004918a828b01620003d6565b91505092959891949750929550565b620004ab81620003a8565b82525050565b6000602082019050620004c86000830184620004a0565b92915050565b620004d9816200034d565b82525050565b600060c082019050620004f66000830189620004ce565b620005056020830188620004ce565b620005146040830187620004ce565b620005236060830186620004ce565b620005326080830185620004ce565b6200054160a0830184620004ce565b979650505050505050565b61119c806200055c6000396000f3fe608060405234801561001057600080fd5b506004361061010b5760003560e01c8063642fccf3116100a2578063c046371111610071578063c04637111461025e578063e0e79dde1461027c578063e6a69ab81461029a578063f2fde38b146102b8578063f71bd11b146102d45761010b565b8063642fccf3146101fa578063715018a61461021857806378789c21146102225780638da5cb5b146102405761010b565b80634437152a116100de5780634437152a1461018457806353704f9a146101a057806359e0fdd5146101be57806360577981146101dc5761010b565b806302b8c56d1461011057806316f0115b1461012c578063282c87491461014a57806328637d0114610166575b600080fd5b61012a60048036038101906101259190610d3d565b610304565b005b6101346104b5565b6040516101419190610dab565b60405180910390f35b610164600480360381019061015f9190610dc6565b6104db565b005b61016e610525565b60405161017b9190610e62565b60405180910390f35b61019e60048036038101906101999190610ea9565b61052b565b005b6101a86106b8565b6040516101b59190610e62565b60405180910390f35b6101c66106be565b6040516101d39190610e62565b60405180910390f35b6101e46106c4565b6040516101f19190610e62565b60405180910390f35b6102026106ca565b60405161020f9190610e62565b60405180910390f35b6102206106d0565b005b61022a6106e4565b6040516102379190610e62565b60405180910390f35b6102486106ea565b6040516102559190610dab565b60405180910390f35b610266610713565b6040516102739190610e62565b60405180910390f35b610284610719565b6040516102919190610e62565b60405180910390f35b6102a261071f565b6040516102af9190610e62565b60405180910390f35b6102d260048036038101906102cd9190610ea9565b610727565b005b6102ee60048036038101906102e99190610d3d565b6107ad565b6040516102fb9190610e62565b60405180910390f35b600073ffffffffffffffffffffffffffffffffffffffff16600160009054906101000a900473ffffffffffffffffffffffffffffffffffffffff1673ffffffffffffffffffffffffffffffffffffffff160361038c576040517fd64e375e00000000000000000000000000000000000000000000000000000000815260040160405180910390fd5b600160009054906101000a900473ffffffffffffffffffffffffffffffffffffffff1673ffffffffffffffffffffffffffffffffffffffff163373ffffffffffffffffffffffffffffffffffffffff1614610413576040517fc5848d4c00000000000000000000000000000000000000000000000000000000815260040160405180910390fd5b6000600160009054906101000a900473ffffffffffffffffffffffffffffffffffffffff1673ffffffffffffffffffffffffffffffffffffffff1663ea21cd926040518163ffffffff1660e01b8152600401602060405180830381865afa158015610482573d6000803e3d6000fd5b505050506040513d601f19601f820116820180604052508101906104a69190610eeb565b90506104b1816107db565b5050565b600160009054906101000a900473ffffffffffffffffffffffffffffffffffffffff1681565b6104e3610a26565b6104f1868686868686610aad565b6002546008541015610507576002546008819055505b600354600854111561051d576003546008819055505b505050505050565b60055481565b610533610a26565b600073ffffffffffffffffffffffffffffffffffffffff16600160009054906101000a900473ffffffffffffffffffffffffffffffffffffffff1673ffffffffffffffffffffffffffffffffffffffff16146105bb576040517f5f801a3e00000000000000000000000000000000000000000000000000000000815260040160405180910390fd5b600073ffffffffffffffffffffffffffffffffffffffff168173ffffffffffffffffffffffffffffffffffffffff160361062a576040517f08c379a000000000000000000000000000000000000000000000000000000000815260040161062190610f75565b60405180910390fd5b80600160006101000a81548173ffffffffffffffffffffffffffffffffffffffff021916908373ffffffffffffffffffffffffffffffffffffffff160217905550426009819055508073ffffffffffffffffffffffffffffffffffffffff167f521cc4cd216e9e9a917662656858a362aee1aedc5d4638e0cf611b9bb9283f7e60405160405180910390a250565b60035481565b60075481565b60085481565b60065481565b6106d8610a26565b6106e26000610c36565b565b60045481565b60008060009054906101000a900473ffffffffffffffffffffffffffffffffffffffff16905090565b60095481565b60025481565b6301e1338081565b61072f610a26565b600073ffffffffffffffffffffffffffffffffffffffff168173ffffffffffffffffffffffffffffffffffffffff16036107a15760006040517f1e4fbdf70000000000000000000000000000000000000000000000000000000081526004016107989190610dab565b60405180910390fd5b6107aa81610c36565b50565b600080600854036107c157600090506107d6565b6301e133806008546107d39190610ff3565b90505b919050565b60006009549050600081426107f09190611024565b905060008103610801575050610a23565b6000600854905060075484111561086f576000600754856108229190611024565b90506000670de0b6b3a76400008260055461083d9190611058565b6108479190610ff3565b9050600084826108579190611058565b90508084610865919061109a565b93505050506109b6565b600654841015610901576000846006546108899190611024565b90506000670de0b6b3a7640000826005546108a49190611058565b6108ae9190610ff3565b9050600084826108be9190611058565b905083811015806108db575060025481856108d99190611024565b105b156108ea5760025493506108f9565b80846108f69190611024565b93505b5050506109b5565b60045481111561095c5760006004548261091b9190611024565b9050600060048460055461092f9190611058565b6109399190610ff3565b905081811115610947578190505b80836109539190611024565b925050506109b4565b6004548110156109b3576000816004546109769190611024565b9050600060048460055461098a9190611058565b6109949190610ff3565b9050818111156109a2578190505b80836109ae919061109a565b925050505b5b5b5b6003548111156109c65760035490505b6002548110156109d65760025490505b80600881905550426009819055507ff795133e6378ca3320adb14ce7e005cce46d505b6d72c1495a2effab6ccbfddb848242604051610a17939291906110ce565b60405180910390a15050505b50565b610a2e610cfa565b73ffffffffffffffffffffffffffffffffffffffff16610a4c6106ea565b73ffffffffffffffffffffffffffffffffffffffff1614610aab57610a6f610cfa565b6040517f118cdaa7000000000000000000000000000000000000000000000000000000008152600401610aa29190610dab565b60405180910390fd5b565b84861115610ae7576040517fa883435700000000000000000000000000000000000000000000000000000000815260040160405180910390fd5b85841080610af457508484115b15610b2b576040517fa883435700000000000000000000000000000000000000000000000000000000815260040160405180910390fd5b670de0b6b3a7640000811180610b4057508082115b15610b77576040517fa883435700000000000000000000000000000000000000000000000000000000815260040160405180910390fd5b6000831480610b8c57506611c37937e0800083115b15610bc3576040517f3b826ca500000000000000000000000000000000000000000000000000000000815260040160405180910390fd5b8560028190555084600381905550836004819055508260058190555081600681905550806007819055507fb4e1fbeb0ffbfe92679bdf67bebeda0b781e7a37849484c69d99695f31e4b029868686868686604051610c2696959493929190611105565b60405180910390a1505050505050565b60008060009054906101000a900473ffffffffffffffffffffffffffffffffffffffff169050816000806101000a81548173ffffffffffffffffffffffffffffffffffffffff021916908373ffffffffffffffffffffffffffffffffffffffff1602179055508173ffffffffffffffffffffffffffffffffffffffff168173ffffffffffffffffffffffffffffffffffffffff167f8be0079c531659141344cd1fd0a4f28419497f9722a3daafe3b4186f6b6457e060405160405180910390a35050565b600033905090565b600080fd5b6000819050919050565b610d1a81610d07565b8114610d2557600080fd5b50565b600081359050610d3781610d11565b92915050565b600060208284031215610d5357610d52610d02565b5b6000610d6184828501610d28565b91505092915050565b600073ffffffffffffffffffffffffffffffffffffffff82169050919050565b6000610d9582610d6a565b9050919050565b610da581610d8a565b82525050565b6000602082019050610dc06000830184610d9c565b92915050565b60008060008060008060c08789031215610de357610de2610d02565b5b6000610df189828a01610d28565b9650506020610e0289828a01610d28565b9550506040610e1389828a01610d28565b9450506060610e2489828a01610d28565b9350506080610e3589828a01610d28565b92505060a0610e4689828a01610d28565b9150509295509295509295565b610e5c81610d07565b82525050565b6000602082019050610e776000830184610e53565b92915050565b610e8681610d8a565b8114610e9157600080fd5b50565b600081359050610ea381610e7d565b92915050565b600060208284031215610ebf57610ebe610d02565b5b6000610ecd84828501610e94565b91505092915050565b600081519050610ee581610d11565b92915050565b600060208284031215610f0157610f00610d02565b5b6000610f0f84828501610ed6565b91505092915050565b600082825260208201905092915050565b7f706f6f6c207a65726f0000000000000000000000000000000000000000000000600082015250565b6000610f5f600983610f18565b9150610f6a82610f29565b602082019050919050565b60006020820190508181036000830152610f8e81610f52565b9050919050565b7f4e487b7100000000000000000000000000000000000000000000000000000000600052601260045260246000fd5b7f4e487b7100000000000000000000000000000000000000000000000000000000600052601160045260246000fd5b6000610ffe82610d07565b915061100983610d07565b92508261101957611018610f95565b5b828204905092915050565b600061102f82610d07565b915061103a83610d07565b925082820390508181111561105257611051610fc4565b5b92915050565b600061106382610d07565b915061106e83610d07565b925082820261107c81610d07565b9150828204841483151761109357611092610fc4565b5b5092915050565b60006110a582610d07565b91506110b083610d07565b92508282019050808211156110c8576110c7610fc4565b5b92915050565b60006060820190506110e36000830186610e53565b6110f06020830185610e53565b6110fd6040830184610e53565b949350505050565b600060c08201905061111a6000830189610e53565b6111276020830188610e53565b6111346040830187610e53565b6111416060830186610e53565b61114e6080830185610e53565b61115b60a0830184610e53565b97965050505050505056fea2646970667358221220d9986a278daaeaaec282afc457f88aed9dbbfab4cab65308a21aa48cf28152f864736f6c63430008140033","opcodes":"PUSH1 0x80 PUSH1 0x40 MSTORE CALLVALUE DUP1 ISZERO PUSH3 0x11 JUMPI PUSH1 0x0 DUP1 REVERT JUMPDEST POP PUSH1 0x40 MLOAD PUSH3 0x16F8 CODESIZE SUB DUP1 PUSH3 0x16F8 DUP4 CODECOPY DUP2 DUP2 ADD PUSH1 0x40 MSTORE DUP2 ADD SWAP1 PUSH3 0x37 SWAP2 SWAP1 PUSH3 0x3ED JUMP JUMPDEST DUP1 PUSH1 0x0 PUSH20 0xFFFFFFFFFFFFFFFFFFFFFFFFFFFFFFFFFFFFFFFF AND DUP2 PUSH20 0xFFFFFFFFFFFFFFFFFFFFFFFFFFFFFFFFFFFFFFFF AND SUB PUSH3 0xAD JUMPI PUSH1 0x0 PUSH1 0x40 MLOAD PUSH32 0x1E4FBDF700000000000000000000000000000000000000000000000000000000 DUP2 MSTORE PUSH1 0x4 ADD PUSH3 0xA4 SWAP2 SWAP1 PUSH3 0x4B1 JUMP JUMPDEST PUSH1 0x40 MLOAD DUP1 SWAP2 SUB SWAP1 REVERT JUMPDEST PUSH3 0xBE DUP2 PUSH3 0xF2 PUSH1 0x20 SHL PUSH1 0x20 SHR JUMP JUMPDEST POP PUSH3 0xD5 DUP8 DUP8 DUP8 DUP8 DUP8 DUP8 PUSH3 0x1B6 PUSH1 0x20 SHL PUSH1 0x20 SHR JUMP JUMPDEST PUSH1 0x4 SLOAD PUSH1 0x8 DUP2 SWAP1 SSTORE POP TIMESTAMP PUSH1 0x9 DUP2 SWAP1 SSTORE POP POP POP POP POP POP POP POP PUSH3 0x54C JUMP JUMPDEST PUSH1 0x0 DUP1 PUSH1 0x0 SWAP1 SLOAD SWAP1 PUSH2 0x100 EXP SWAP1 DIV PUSH20 0xFFFFFFFFFFFFFFFFFFFFFFFFFFFFFFFFFFFFFFFF AND SWAP1 POP DUP2 PUSH1 0x0 DUP1 PUSH2 0x100 EXP DUP2 SLOAD DUP2 PUSH20 0xFFFFFFFFFFFFFFFFFFFFFFFFFFFFFFFFFFFFFFFF MUL NOT AND SWAP1 DUP4 PUSH20 0xFFFFFFFFFFFFFFFFFFFFFFFFFFFFFFFFFFFFFFFF AND MUL OR SWAP1 SSTORE POP DUP2 PUSH20 0xFFFFFFFFFFFFFFFFFFFFFFFFFFFFFFFFFFFFFFFF AND DUP2 PUSH20 0xFFFFFFFFFFFFFFFFFFFFFFFFFFFFFFFFFFFFFFFF AND PUSH32 0x8BE0079C531659141344CD1FD0A4F28419497F9722A3DAAFE3B4186F6B6457E0 PUSH1 0x40 MLOAD PUSH1 0x40 MLOAD DUP1 SWAP2 SUB SWAP1 LOG3 POP POP JUMP JUMPDEST DUP5 DUP7 GT ISZERO PUSH3 0x1F1 JUMPI PUSH1 0x40 MLOAD PUSH32 0xA883435700000000000000000000000000000000000000000000000000000000 DUP2 MSTORE PUSH1 0x4 ADD PUSH1 0x40 MLOAD DUP1 SWAP2 SUB SWAP1 REVERT JUMPDEST DUP6 DUP5 LT DUP1 PUSH3 0x1FF JUMPI POP DUP5 DUP5 GT JUMPDEST ISZERO PUSH3 0x237 JUMPI PUSH1 0x40 MLOAD PUSH32 0xA883435700000000000000000000000000000000000000000000000000000000 DUP2 MSTORE PUSH1 0x4 ADD PUSH1 0x40 MLOAD DUP1 SWAP2 SUB SWAP1 REVERT JUMPDEST PUSH8 0xDE0B6B3A7640000 DUP2 GT DUP1 PUSH3 0x24D JUMPI POP DUP1 DUP3 GT JUMPDEST ISZERO PUSH3 0x285 JUMPI PUSH1 0x40 MLOAD PUSH32 0xA883435700000000000000000000000000000000000000000000000000000000 DUP2 MSTORE PUSH1 0x4 ADD PUSH1 0x40 MLOAD DUP1 SWAP2 SUB SWAP1 REVERT JUMPDEST PUSH1 0x0 DUP4 EQ DUP1 PUSH3 0x29B JUMPI POP PUSH7 0x11C37937E08000 DUP4 GT JUMPDEST ISZERO PUSH3 0x2D3 JUMPI PUSH1 0x40 MLOAD PUSH32 0x3B826CA500000000000000000000000000000000000000000000000000000000 DUP2 MSTORE PUSH1 0x4 ADD PUSH1 0x40 MLOAD DUP1 SWAP2 SUB SWAP1 REVERT JUMPDEST DUP6 PUSH1 0x2 DUP2 SWAP1 SSTORE POP DUP5 PUSH1 0x3 DUP2 SWAP1 SSTORE POP DUP4 PUSH1 0x4 DUP2 SWAP1 SSTORE POP DUP3 PUSH1 0x5 DUP2 SWAP1 SSTORE POP DUP2 PUSH1 0x6 DUP2 SWAP1 SSTORE POP DUP1 PUSH1 0x7 DUP2 SWAP1 SSTORE POP PUSH32 0xB4E1FBEB0FFBFE92679BDF67BEBEDA0B781E7A37849484C69D99695F31E4B029 DUP7 DUP7 DUP7 DUP7 DUP7 DUP7 PUSH1 0x40 MLOAD PUSH3 0x338 SWAP7 SWAP6 SWAP5 SWAP4 SWAP3 SWAP2 SWAP1 PUSH3 0x4DF JUMP JUMPDEST PUSH1 0x40 MLOAD DUP1 SWAP2 SUB SWAP1 LOG1 POP POP POP POP POP POP JUMP JUMPDEST PUSH1 0x0 DUP1 REVERT JUMPDEST PUSH1 0x0 DUP2 SWAP1 POP SWAP2 SWAP1 POP JUMP JUMPDEST PUSH3 0x362 DUP2 PUSH3 0x34D JUMP JUMPDEST DUP2 EQ PUSH3 0x36E JUMPI PUSH1 0x0 DUP1 REVERT JUMPDEST POP JUMP JUMPDEST PUSH1 0x0 DUP2 MLOAD SWAP1 POP PUSH3 0x382 DUP2 PUSH3 0x357 JUMP JUMPDEST SWAP3 SWAP2 POP POP JUMP JUMPDEST PUSH1 0x0 PUSH20 0xFFFFFFFFFFFFFFFFFFFFFFFFFFFFFFFFFFFFFFFF DUP3 AND SWAP1 POP SWAP2 SWAP1 POP JUMP JUMPDEST PUSH1 0x0 PUSH3 0x3B5 DUP3 PUSH3 0x388 JUMP JUMPDEST SWAP1 POP SWAP2 SWAP1 POP JUMP JUMPDEST PUSH3 0x3C7 DUP2 PUSH3 0x3A8 JUMP JUMPDEST DUP2 EQ PUSH3 0x3D3 JUMPI PUSH1 0x0 DUP1 REVERT JUMPDEST POP JUMP JUMPDEST PUSH1 0x0 DUP2 MLOAD SWAP1 POP PUSH3 0x3E7 DUP2 PUSH3 0x3BC JUMP JUMPDEST SWAP3 SWAP2 POP POP JUMP JUMPDEST PUSH1 0x0 DUP1 PUSH1 0x0 DUP1 PUSH1 0x0 DUP1 PUSH1 0x0 PUSH1 0xE0 DUP9 DUP11 SUB SLT ISZERO PUSH3 0x40F JUMPI PUSH3 0x40E PUSH3 0x348 JUMP JUMPDEST JUMPDEST PUSH1 0x0 PUSH3 0x41F DUP11 DUP3 DUP12 ADD PUSH3 0x371 JUMP JUMPDEST SWAP8 POP POP PUSH1 0x20 PUSH3 0x432 DUP11 DUP3 DUP12 ADD PUSH3 0x371 JUMP JUMPDEST SWAP7 POP POP PUSH1 0x40 PUSH3 0x445 DUP11 DUP3 DUP12 ADD PUSH3 0x371 JUMP JUMPDEST SWAP6 POP POP PUSH1 0x60 PUSH3 0x458 DUP11 DUP3 DUP12 ADD PUSH3 0x371 JUMP JUMPDEST SWAP5 POP POP PUSH1 0x80 PUSH3 0x46B DUP11 DUP3 DUP12 ADD PUSH3 0x371 JUMP JUMPDEST SWAP4 POP POP PUSH1 0xA0 PUSH3 0x47E DUP11 DUP3 DUP12 ADD PUSH3 0x371 JUMP JUMPDEST SWAP3 POP POP PUSH1 0xC0 PUSH3 0x491 DUP11 DUP3 DUP12 ADD PUSH3 0x3D6 JUMP JUMPDEST SWAP2 POP POP SWAP3 SWAP6 SWAP9 SWAP2 SWAP5 SWAP8 POP SWAP3 SWAP6 POP JUMP JUMPDEST PUSH3 0x4AB DUP2 PUSH3 0x3A8 JUMP JUMPDEST DUP3 MSTORE POP POP JUMP JUMPDEST PUSH1 0x0 PUSH1 0x20 DUP3 ADD SWAP1 POP PUSH3 0x4C8 PUSH1 0x0 DUP4 ADD DUP5 PUSH3 0x4A0 JUMP JUMPDEST SWAP3 SWAP2 POP POP JUMP JUMPDEST PUSH3 0x4D9 DUP2 PUSH3 0x34D JUMP JUMPDEST DUP3 MSTORE POP POP JUMP JUMPDEST PUSH1 0x0 PUSH1 0xC0 DUP3 ADD SWAP1 POP PUSH3 0x4F6 PUSH1 0x0 DUP4 ADD DUP10 PUSH3 0x4CE JUMP JUMPDEST PUSH3 0x505 PUSH1 0x20 DUP4 ADD DUP9 PUSH3 0x4CE JUMP JUMPDEST PUSH3 0x514 PUSH1 0x40 DUP4 ADD DUP8 PUSH3 0x4CE JUMP JUMPDEST PUSH3 0x523 PUSH1 0x60 DUP4 ADD DUP7 PUSH3 0x4CE JUMP JUMPDEST PUSH3 0x532 PUSH1 0x80 DUP4 ADD DUP6 PUSH3 0x4CE JUMP JUMPDEST PUSH3 0x541 PUSH1 0xA0 DUP4 ADD DUP5 PUSH3 0x4CE JUMP JUMPDEST SWAP8 SWAP7 POP POP POP POP POP POP POP JUMP JUMPDEST PUSH2 0x119C DUP1 PUSH3 0x55C PUSH1 0x0 CODECOPY PUSH1 0x0 RETURN INVALID PUSH1 0x80 PUSH1 0x40 MSTORE CALLVALUE DUP1 ISZERO PUSH2 0x10 JUMPI PUSH1 0x0 DUP1 REVERT JUMPDEST POP PUSH1 0x4 CALLDATASIZE LT PUSH2 0x10B JUMPI PUSH1 0x0 CALLDATALOAD PUSH1 0xE0 SHR DUP1 PUSH4 0x642FCCF3 GT PUSH2 0xA2 JUMPI DUP1 PUSH4 0xC0463711 GT PUSH2 0x71 JUMPI DUP1 PUSH4 0xC0463711 EQ PUSH2 0x25E JUMPI DUP1 PUSH4 0xE0E79DDE EQ PUSH2 0x27C JUMPI DUP1 PUSH4 0xE6A69AB8 EQ PUSH2 0x29A JUMPI DUP1 PUSH4 0xF2FDE38B EQ PUSH2 0x2B8 JUMPI DUP1 PUSH4 0xF71BD11B EQ PUSH2 0x2D4 JUMPI PUSH2 0x10B JUMP JUMPDEST DUP1 PUSH4 0x642FCCF3 EQ PUSH2 0x1FA JUMPI DUP1 PUSH4 0x715018A6 EQ PUSH2 0x218 JUMPI DUP1 PUSH4 0x78789C21 EQ PUSH2 0x222 JUMPI DUP1 PUSH4 0x8DA5CB5B EQ PUSH2 0x240 JUMPI PUSH2 0x10B JUMP JUMPDEST DUP1 PUSH4 0x4437152A GT PUSH2 0xDE JUMPI DUP1 PUSH4 0x4437152A EQ PUSH2 0x184 JUMPI DUP1 PUSH4 0x53704F9A EQ PUSH2 0x1A0 JUMPI DUP1 PUSH4 0x59E0FDD5 EQ PUSH2 0x1BE JUMPI DUP1 PUSH4 0x60577981 EQ PUSH2 0x1DC JUMPI PUSH2 0x10B JUMP JUMPDEST DUP1 PUSH4 0x2B8C56D EQ PUSH2 0x110 JUMPI DUP1 PUSH4 0x16F0115B EQ PUSH2 0x12C JUMPI DUP1 PUSH4 0x282C8749 EQ PUSH2 0x14A JUMPI DUP1 PUSH4 0x28637D01 EQ PUSH2 0x166 JUMPI JUMPDEST PUSH1 0x0 DUP1 REVERT JUMPDEST PUSH2 0x12A PUSH1 0x4 DUP1 CALLDATASIZE SUB DUP2 ADD SWAP1 PUSH2 0x125 SWAP2 SWAP1 PUSH2 0xD3D JUMP JUMPDEST PUSH2 0x304 JUMP JUMPDEST STOP JUMPDEST PUSH2 0x134 PUSH2 0x4B5 JUMP JUMPDEST PUSH1 0x40 MLOAD PUSH2 0x141 SWAP2 SWAP1 PUSH2 0xDAB JUMP JUMPDEST PUSH1 0x40 MLOAD DUP1 SWAP2 SUB SWAP1 RETURN JUMPDEST PUSH2 0x164 PUSH1 0x4 DUP1 CALLDATASIZE SUB DUP2 ADD SWAP1 PUSH2 0x15F SWAP2 SWAP1 PUSH2 0xDC6 JUMP JUMPDEST PUSH2 0x4DB JUMP JUMPDEST STOP JUMPDEST PUSH2 0x16E PUSH2 0x525 JUMP JUMPDEST PUSH1 0x40 MLOAD PUSH2 0x17B SWAP2 SWAP1 PUSH2 0xE62 JUMP JUMPDEST PUSH1 0x40 MLOAD DUP1 SWAP2 SUB SWAP1 RETURN JUMPDEST PUSH2 0x19E PUSH1 0x4 DUP1 CALLDATASIZE SUB DUP2 ADD SWAP1 PUSH2 0x199 SWAP2 SWAP1 PUSH2 0xEA9 JUMP JUMPDEST PUSH2 0x52B JUMP JUMPDEST STOP JUMPDEST PUSH2 0x1A8 PUSH2 0x6B8 JUMP JUMPDEST PUSH1 0x40 MLOAD PUSH2 0x1B5 SWAP2 SWAP1 PUSH2 0xE62 JUMP JUMPDEST PUSH1 0x40 MLOAD DUP1 SWAP2 SUB SWAP1 RETURN JUMPDEST PUSH2 0x1C6 PUSH2 0x6BE JUMP JUMPDEST PUSH1 0x40 MLOAD PUSH2 0x1D3 SWAP2 SWAP1 PUSH2 0xE62 JUMP JUMPDEST PUSH1 0x40 MLOAD DUP1 SWAP2 SUB SWAP1 RETURN JUMPDEST PUSH2 0x1E4 PUSH2 0x6C4 JUMP JUMPDEST PUSH1 0x40 MLOAD PUSH2 0x1F1 SWAP2 SWAP1 PUSH2 0xE62 JUMP JUMPDEST PUSH1 0x40 MLOAD DUP1 SWAP2 SUB SWAP1 RETURN JUMPDEST PUSH2 0x202 PUSH2 0x6CA JUMP JUMPDEST PUSH1 0x40 MLOAD PUSH2 0x20F SWAP2 SWAP1 PUSH2 0xE62 JUMP JUMPDEST PUSH1 0x40 MLOAD DUP1 SWAP2 SUB SWAP1 RETURN JUMPDEST PUSH2 0x220 PUSH2 0x6D0 JUMP JUMPDEST STOP JUMPDEST PUSH2 0x22A PUSH2 0x6E4 JUMP JUMPDEST PUSH1 0x40 MLOAD PUSH2 0x237 SWAP2 SWAP1 PUSH2 0xE62 JUMP JUMPDEST PUSH1 0x40 MLOAD DUP1 SWAP2 SUB SWAP1 RETURN JUMPDEST PUSH2 0x248 PUSH2 0x6EA JUMP JUMPDEST PUSH1 0x40 MLOAD PUSH2 0x255 SWAP2 SWAP1 PUSH2 0xDAB JUMP JUMPDEST PUSH1 0x40 MLOAD DUP1 SWAP2 SUB SWAP1 RETURN JUMPDEST PUSH2 0x266 PUSH2 0x713 JUMP JUMPDEST PUSH1 0x40 MLOAD PUSH2 0x273 SWAP2 SWAP1 PUSH2 0xE62 JUMP JUMPDEST PUSH1 0x40 MLOAD DUP1 SWAP2 SUB SWAP1 RETURN JUMPDEST PUSH2 0x284 PUSH2 0x719 JUMP JUMPDEST PUSH1 0x40 MLOAD PUSH2 0x291 SWAP2 SWAP1 PUSH2 0xE62 JUMP JUMPDEST PUSH1 0x40 MLOAD DUP1 SWAP2 SUB SWAP1 RETURN JUMPDEST PUSH2 0x2A2 PUSH2 0x71F JUMP JUMPDEST PUSH1 0x40 MLOAD PUSH2 0x2AF SWAP2 SWAP1 PUSH2 0xE62 JUMP JUMPDEST PUSH1 0x40 MLOAD DUP1 SWAP2 SUB SWAP1 RETURN JUMPDEST PUSH2 0x2D2 PUSH1 0x4 DUP1 CALLDATASIZE SUB DUP2 ADD SWAP1 PUSH2 0x2CD SWAP2 SWAP1 PUSH2 0xEA9 JUMP JUMPDEST PUSH2 0x727 JUMP JUMPDEST STOP JUMPDEST PUSH2 0x2EE PUSH1 0x4 DUP1 CALLDATASIZE SUB DUP2 ADD SWAP1 PUSH2 0x2E9 SWAP2 SWAP1 PUSH2 0xD3D JUMP JUMPDEST PUSH2 0x7AD JUMP JUMPDEST PUSH1 0x40 MLOAD PUSH2 0x2FB SWAP2 SWAP1 PUSH2 0xE62 JUMP JUMPDEST PUSH1 0x40 MLOAD DUP1 SWAP2 SUB SWAP1 RETURN JUMPDEST PUSH1 0x0 PUSH20 0xFFFFFFFFFFFFFFFFFFFFFFFFFFFFFFFFFFFFFFFF AND PUSH1 0x1 PUSH1 0x0 SWAP1 SLOAD SWAP1 PUSH2 0x100 EXP SWAP1 DIV PUSH20 0xFFFFFFFFFFFFFFFFFFFFFFFFFFFFFFFFFFFFFFFF AND PUSH20 0xFFFFFFFFFFFFFFFFFFFFFFFFFFFFFFFFFFFFFFFF AND SUB PUSH2 0x38C JUMPI PUSH1 0x40 MLOAD PUSH32 0xD64E375E00000000000000000000000000000000000000000000000000000000 DUP2 MSTORE PUSH1 0x4 ADD PUSH1 0x40 MLOAD DUP1 SWAP2 SUB SWAP1 REVERT JUMPDEST PUSH1 0x1 PUSH1 0x0 SWAP1 SLOAD SWAP1 PUSH2 0x100 EXP SWAP1 DIV PUSH20 0xFFFFFFFFFFFFFFFFFFFFFFFFFFFFFFFFFFFFFFFF AND PUSH20 0xFFFFFFFFFFFFFFFFFFFFFFFFFFFFFFFFFFFFFFFF AND CALLER PUSH20 0xFFFFFFFFFFFFFFFFFFFFFFFFFFFFFFFFFFFFFFFF AND EQ PUSH2 0x413 JUMPI PUSH1 0x40 MLOAD PUSH32 0xC5848D4C00000000000000000000000000000000000000000000000000000000 DUP2 MSTORE PUSH1 0x4 ADD PUSH1 0x40 MLOAD DUP1 SWAP2 SUB SWAP1 REVERT JUMPDEST PUSH1 0x0 PUSH1 0x1 PUSH1 0x0 SWAP1 SLOAD SWAP1 PUSH2 0x100 EXP SWAP1 DIV PUSH20 0xFFFFFFFFFFFFFFFFFFFFFFFFFFFFFFFFFFFFFFFF AND PUSH20 0xFFFFFFFFFFFFFFFFFFFFFFFFFFFFFFFFFFFFFFFF AND PUSH4 0xEA21CD92 PUSH1 0x40 MLOAD DUP2 PUSH4 0xFFFFFFFF AND PUSH1 0xE0 SHL DUP2 MSTORE PUSH1 0x4 ADD PUSH1 0x20 PUSH1 0x40 MLOAD DUP1 DUP4 SUB DUP2 DUP7 GAS STATICCALL ISZERO DUP1 ISZERO PUSH2 0x482 JUMPI RETURNDATASIZE PUSH1 0x0 DUP1 RETURNDATACOPY RETURNDATASIZE PUSH1 0x0 REVERT JUMPDEST POP POP POP POP PUSH1 0x40 MLOAD RETURNDATASIZE PUSH1 0x1F NOT PUSH1 0x1F DUP3 ADD AND DUP3 ADD DUP1 PUSH1 0x40 MSTORE POP DUP2 ADD SWAP1 PUSH2 0x4A6 SWAP2 SWAP1 PUSH2 0xEEB JUMP JUMPDEST SWAP1 POP PUSH2 0x4B1 DUP2 PUSH2 0x7DB JUMP JUMPDEST POP POP JUMP JUMPDEST PUSH1 0x1 PUSH1 0x0 SWAP1 SLOAD SWAP1 PUSH2 0x100 EXP SWAP1 DIV PUSH20 0xFFFFFFFFFFFFFFFFFFFFFFFFFFFFFFFFFFFFFFFF AND DUP2 JUMP JUMPDEST PUSH2 0x4E3 PUSH2 0xA26 JUMP JUMPDEST PUSH2 0x4F1 DUP7 DUP7 DUP7 DUP7 DUP7 DUP7 PUSH2 0xAAD JUMP JUMPDEST PUSH1 0x2 SLOAD PUSH1 0x8 SLOAD LT ISZERO PUSH2 0x507 JUMPI PUSH1 0x2 SLOAD PUSH1 0x8 DUP2 SWAP1 SSTORE POP JUMPDEST PUSH1 0x3 SLOAD PUSH1 0x8 SLOAD GT ISZERO PUSH2 0x51D JUMPI PUSH1 0x3 SLOAD PUSH1 0x8 DUP2 SWAP1 SSTORE POP JUMPDEST POP POP POP POP POP POP JUMP JUMPDEST PUSH1 0x5 SLOAD DUP2 JUMP JUMPDEST PUSH2 0x533 PUSH2 0xA26 JUMP JUMPDEST PUSH1 0x0 PUSH20 0xFFFFFFFFFFFFFFFFFFFFFFFFFFFFFFFFFFFFFFFF AND PUSH1 0x1 PUSH1 0x0 SWAP1 SLOAD SWAP1 PUSH2 0x100 EXP SWAP1 DIV PUSH20 0xFFFFFFFFFFFFFFFFFFFFFFFFFFFFFFFFFFFFFFFF AND PUSH20 0xFFFFFFFFFFFFFFFFFFFFFFFFFFFFFFFFFFFFFFFF AND EQ PUSH2 0x5BB JUMPI PUSH1 0x40 MLOAD PUSH32 0x5F801A3E00000000000000000000000000000000000000000000000000000000 DUP2 MSTORE PUSH1 0x4 ADD PUSH1 0x40 MLOAD DUP1 SWAP2 SUB SWAP1 REVERT JUMPDEST PUSH1 0x0 PUSH20 0xFFFFFFFFFFFFFFFFFFFFFFFFFFFFFFFFFFFFFFFF AND DUP2 PUSH20 0xFFFFFFFFFFFFFFFFFFFFFFFFFFFFFFFFFFFFFFFF AND SUB PUSH2 0x62A JUMPI PUSH1 0x40 MLOAD PUSH32 0x8C379A000000000000000000000000000000000000000000000000000000000 DUP2 MSTORE PUSH1 0x4 ADD PUSH2 0x621 SWAP1 PUSH2 0xF75 JUMP JUMPDEST PUSH1 0x40 MLOAD DUP1 SWAP2 SUB SWAP1 REVERT JUMPDEST DUP1 PUSH1 0x1 PUSH1 0x0 PUSH2 0x100 EXP DUP2 SLOAD DUP2 PUSH20 0xFFFFFFFFFFFFFFFFFFFFFFFFFFFFFFFFFFFFFFFF MUL NOT AND SWAP1 DUP4 PUSH20 0xFFFFFFFFFFFFFFFFFFFFFFFFFFFFFFFFFFFFFFFF AND MUL OR SWAP1 SSTORE POP TIMESTAMP PUSH1 0x9 DUP2 SWAP1 SSTORE POP DUP1 PUSH20 0xFFFFFFFFFFFFFFFFFFFFFFFFFFFFFFFFFFFFFFFF AND PUSH32 0x521CC4CD216E9E9A917662656858A362AEE1AEDC5D4638E0CF611B9BB9283F7E PUSH1 0x40 MLOAD PUSH1 0x40 MLOAD DUP1 SWAP2 SUB SWAP1 LOG2 POP JUMP JUMPDEST PUSH1 0x3 SLOAD DUP2 JUMP JUMPDEST PUSH1 0x7 SLOAD DUP2 JUMP JUMPDEST PUSH1 0x8 SLOAD DUP2 JUMP JUMPDEST PUSH1 0x6 SLOAD DUP2 JUMP JUMPDEST PUSH2 0x6D8 PUSH2 0xA26 JUMP JUMPDEST PUSH2 0x6E2 PUSH1 0x0 PUSH2 0xC36 JUMP JUMPDEST JUMP JUMPDEST PUSH1 0x4 SLOAD DUP2 JUMP JUMPDEST PUSH1 0x0 DUP1 PUSH1 0x0 SWAP1 SLOAD SWAP1 PUSH2 0x100 EXP SWAP1 DIV PUSH20 0xFFFFFFFFFFFFFFFFFFFFFFFFFFFFFFFFFFFFFFFF AND SWAP1 POP SWAP1 JUMP JUMPDEST PUSH1 0x9 SLOAD DUP2 JUMP JUMPDEST PUSH1 0x2 SLOAD DUP2 JUMP JUMPDEST PUSH4 0x1E13380 DUP2 JUMP JUMPDEST PUSH2 0x72F PUSH2 0xA26 JUMP JUMPDEST PUSH1 0x0 PUSH20 0xFFFFFFFFFFFFFFFFFFFFFFFFFFFFFFFFFFFFFFFF AND DUP2 PUSH20 0xFFFFFFFFFFFFFFFFFFFFFFFFFFFFFFFFFFFFFFFF AND SUB PUSH2 0x7A1 JUMPI PUSH1 0x0 PUSH1 0x40 MLOAD PUSH32 0x1E4FBDF700000000000000000000000000000000000000000000000000000000 DUP2 MSTORE PUSH1 0x4 ADD PUSH2 0x798 SWAP2 SWAP1 PUSH2 0xDAB JUMP JUMPDEST PUSH1 0x40 MLOAD DUP1 SWAP2 SUB SWAP1 REVERT JUMPDEST PUSH2 0x7AA DUP2 PUSH2 0xC36 JUMP JUMPDEST POP JUMP JUMPDEST PUSH1 0x0 DUP1 PUSH1 0x8 SLOAD SUB PUSH2 0x7C1 JUMPI PUSH1 0x0 SWAP1 POP PUSH2 0x7D6 JUMP JUMPDEST PUSH4 0x1E13380 PUSH1 0x8 SLOAD PUSH2 0x7D3 SWAP2 SWAP1 PUSH2 0xFF3 JUMP JUMPDEST SWAP1 POP JUMPDEST SWAP2 SWAP1 POP JUMP JUMPDEST PUSH1 0x0 PUSH1 0x9 SLOAD SWAP1 POP PUSH1 0x0 DUP2 TIMESTAMP PUSH2 0x7F0 SWAP2 SWAP1 PUSH2 0x1024 JUMP JUMPDEST SWAP1 POP PUSH1 0x0 DUP2 SUB PUSH2 0x801 JUMPI POP POP PUSH2 0xA23 JUMP JUMPDEST PUSH1 0x0 PUSH1 0x8 SLOAD SWAP1 POP PUSH1 0x7 SLOAD DUP5 GT ISZERO PUSH2 0x86F JUMPI PUSH1 0x0 PUSH1 0x7 SLOAD DUP6 PUSH2 0x822 SWAP2 SWAP1 PUSH2 0x1024 JUMP JUMPDEST SWAP1 POP PUSH1 0x0 PUSH8 0xDE0B6B3A7640000 DUP3 PUSH1 0x5 SLOAD PUSH2 0x83D SWAP2 SWAP1 PUSH2 0x1058 JUMP JUMPDEST PUSH2 0x847 SWAP2 SWAP1 PUSH2 0xFF3 JUMP JUMPDEST SWAP1 POP PUSH1 0x0 DUP5 DUP3 PUSH2 0x857 SWAP2 SWAP1 PUSH2 0x1058 JUMP JUMPDEST SWAP1 POP DUP1 DUP5 PUSH2 0x865 SWAP2 SWAP1 PUSH2 0x109A JUMP JUMPDEST SWAP4 POP POP POP POP PUSH2 0x9B6 JUMP JUMPDEST PUSH1 0x6 SLOAD DUP5 LT ISZERO PUSH2 0x901 JUMPI PUSH1 0x0 DUP5 PUSH1 0x6 SLOAD PUSH2 0x889 SWAP2 SWAP1 PUSH2 0x1024 JUMP JUMPDEST SWAP1 POP PUSH1 0x0 PUSH8 0xDE0B6B3A7640000 DUP3 PUSH1 0x5 SLOAD PUSH2 0x8A4 SWAP2 SWAP1 PUSH2 0x1058 JUMP JUMPDEST PUSH2 0x8AE SWAP2 SWAP1 PUSH2 0xFF3 JUMP JUMPDEST SWAP1 POP PUSH1 0x0 DUP5 DUP3 PUSH2 0x8BE SWAP2 SWAP1 PUSH2 0x1058 JUMP JUMPDEST SWAP1 POP DUP4 DUP2 LT ISZERO DUP1 PUSH2 0x8DB JUMPI POP PUSH1 0x2 SLOAD DUP2 DUP6 PUSH2 0x8D9 SWAP2 SWAP1 PUSH2 0x1024 JUMP JUMPDEST LT JUMPDEST ISZERO PUSH2 0x8EA JUMPI PUSH1 0x2 SLOAD SWAP4 POP PUSH2 0x8F9 JUMP JUMPDEST DUP1 DUP5 PUSH2 0x8F6 SWAP2 SWAP1 PUSH2 0x1024 JUMP JUMPDEST SWAP4 POP JUMPDEST POP POP POP PUSH2 0x9B5 JUMP JUMPDEST PUSH1 0x4 SLOAD DUP2 GT ISZERO PUSH2 0x95C JUMPI PUSH1 0x0 PUSH1 0x4 SLOAD DUP3 PUSH2 0x91B SWAP2 SWAP1 PUSH2 0x1024 JUMP JUMPDEST SWAP1 POP PUSH1 0x0 PUSH1 0x4 DUP5 PUSH1 0x5 SLOAD PUSH2 0x92F SWAP2 SWAP1 PUSH2 0x1058 JUMP JUMPDEST PUSH2 0x939 SWAP2 SWAP1 PUSH2 0xFF3 JUMP JUMPDEST SWAP1 POP DUP2 DUP2 GT ISZERO PUSH2 0x947 JUMPI DUP2 SWAP1 POP JUMPDEST DUP1 DUP4 PUSH2 0x953 SWAP2 SWAP1 PUSH2 0x1024 JUMP JUMPDEST SWAP3 POP POP POP PUSH2 0x9B4 JUMP JUMPDEST PUSH1 0x4 SLOAD DUP2 LT ISZERO PUSH2 0x9B3 JUMPI PUSH1 0x0 DUP2 PUSH1 0x4 SLOAD PUSH2 0x976 SWAP2 SWAP1 PUSH2 0x1024 JUMP JUMPDEST SWAP1 POP PUSH1 0x0 PUSH1 0x4 DUP5 PUSH1 0x5 SLOAD PUSH2 0x98A SWAP2 SWAP1 PUSH2 0x1058 JUMP JUMPDEST PUSH2 0x994 SWAP2 SWAP1 PUSH2 0xFF3 JUMP JUMPDEST SWAP1 POP DUP2 DUP2 GT ISZERO PUSH2 0x9A2 JUMPI DUP2 SWAP1 POP JUMPDEST DUP1 DUP4 PUSH2 0x9AE SWAP2 SWAP1 PUSH2 0x109A JUMP JUMPDEST SWAP3 POP POP POP JUMPDEST JUMPDEST JUMPDEST JUMPDEST PUSH1 0x3 SLOAD DUP2 GT ISZERO PUSH2 0x9C6 JUMPI PUSH1 0x3 SLOAD SWAP1 POP JUMPDEST PUSH1 0x2 SLOAD DUP2 LT ISZERO PUSH2 0x9D6 JUMPI PUSH1 0x2 SLOAD SWAP1 POP JUMPDEST DUP1 PUSH1 0x8 DUP2 SWAP1 SSTORE POP TIMESTAMP PUSH1 0x9 DUP2 SWAP1 SSTORE POP PUSH32 0xF795133E6378CA3320ADB14CE7E005CCE46D505B6D72C1495A2EFFAB6CCBFDDB DUP5 DUP3 TIMESTAMP PUSH1 0x40 MLOAD PUSH2 0xA17 SWAP4 SWAP3 SWAP2 SWAP1 PUSH2 0x10CE JUMP JUMPDEST PUSH1 0x40 MLOAD DUP1 SWAP2 SUB SWAP1 LOG1 POP POP POP JUMPDEST POP JUMP JUMPDEST PUSH2 0xA2E PUSH2 0xCFA JUMP JUMPDEST PUSH20 0xFFFFFFFFFFFFFFFFFFFFFFFFFFFFFFFFFFFFFFFF AND PUSH2 0xA4C PUSH2 0x6EA JUMP JUMPDEST PUSH20 0xFFFFFFFFFFFFFFFFFFFFFFFFFFFFFFFFFFFFFFFF AND EQ PUSH2 0xAAB JUMPI PUSH2 0xA6F PUSH2 0xCFA JUMP JUMPDEST PUSH1 0x40 MLOAD PUSH32 0x118CDAA700000000000000000000000000000000000000000000000000000000 DUP2 MSTORE PUSH1 0x4 ADD PUSH2 0xAA2 SWAP2 SWAP1 PUSH2 0xDAB JUMP JUMPDEST PUSH1 0x40 MLOAD DUP1 SWAP2 SUB SWAP1 REVERT JUMPDEST JUMP JUMPDEST DUP5 DUP7 GT ISZERO PUSH2 0xAE7 JUMPI PUSH1 0x40 MLOAD PUSH32 0xA883435700000000000000000000000000000000000000000000000000000000 DUP2 MSTORE PUSH1 0x4 ADD PUSH1 0x40 MLOAD DUP1 SWAP2 SUB SWAP1 REVERT JUMPDEST DUP6 DUP5 LT DUP1 PUSH2 0xAF4 JUMPI POP DUP5 DUP5 GT JUMPDEST ISZERO PUSH2 0xB2B JUMPI PUSH1 0x40 MLOAD PUSH32 0xA883435700000000000000000000000000000000000000000000000000000000 DUP2 MSTORE PUSH1 0x4 ADD PUSH1 0x40 MLOAD DUP1 SWAP2 SUB SWAP1 REVERT JUMPDEST PUSH8 0xDE0B6B3A7640000 DUP2 GT DUP1 PUSH2 0xB40 JUMPI POP DUP1 DUP3 GT JUMPDEST ISZERO PUSH2 0xB77 JUMPI PUSH1 0x40 MLOAD PUSH32 0xA883435700000000000000000000000000000000000000000000000000000000 DUP2 MSTORE PUSH1 0x4 ADD PUSH1 0x40 MLOAD DUP1 SWAP2 SUB SWAP1 REVERT JUMPDEST PUSH1 0x0 DUP4 EQ DUP1 PUSH2 0xB8C JUMPI POP PUSH7 0x11C37937E08000 DUP4 GT JUMPDEST ISZERO PUSH2 0xBC3 JUMPI PUSH1 0x40 MLOAD PUSH32 0x3B826CA500000000000000000000000000000000000000000000000000000000 DUP2 MSTORE PUSH1 0x4 ADD PUSH1 0x40 MLOAD DUP1 SWAP2 SUB SWAP1 REVERT JUMPDEST DUP6 PUSH1 0x2 DUP2 SWAP1 SSTORE POP DUP5 PUSH1 0x3 DUP2 SWAP1 SSTORE POP DUP4 PUSH1 0x4 DUP2 SWAP1 SSTORE POP DUP3 PUSH1 0x5 DUP2 SWAP1 SSTORE POP DUP2 PUSH1 0x6 DUP2 SWAP1 SSTORE POP DUP1 PUSH1 0x7 DUP2 SWAP1 SSTORE POP PUSH32 0xB4E1FBEB0FFBFE92679BDF67BEBEDA0B781E7A37849484C69D99695F31E4B029 DUP7 DUP7 DUP7 DUP7 DUP7 DUP7 PUSH1 0x40 MLOAD PUSH2 0xC26 SWAP7 SWAP6 SWAP5 SWAP4 SWAP3 SWAP2 SWAP1 PUSH2 0x1105 JUMP JUMPDEST PUSH1 0x40 MLOAD DUP1 SWAP2 SUB SWAP1 LOG1 POP POP POP POP POP POP JUMP JUMPDEST PUSH1 0x0 DUP1 PUSH1 0x0 SWAP1 SLOAD SWAP1 PUSH2 0x100 EXP SWAP1 DIV PUSH20 0xFFFFFFFFFFFFFFFFFFFFFFFFFFFFFFFFFFFFFFFF AND SWAP1 POP DUP2 PUSH1 0x0 DUP1 PUSH2 0x100 EXP DUP2 SLOAD DUP2 PUSH20 0xFFFFFFFFFFFFFFFFFFFFFFFFFFFFFFFFFFFFFFFF MUL NOT AND SWAP1 DUP4 PUSH20 0xFFFFFFFFFFFFFFFFFFFFFFFFFFFFFFFFFFFFFFFF AND MUL OR SWAP1 SSTORE POP DUP2 PUSH20 0xFFFFFFFFFFFFFFFFFFFFFFFFFFFFFFFFFFFFFFFF AND DUP2 PUSH20 0xFFFFFFFFFFFFFFFFFFFFFFFFFFFFFFFFFFFFFFFF AND PUSH32 0x8BE0079C531659141344CD1FD0A4F28419497F9722A3DAAFE3B4186F6B6457E0 PUSH1 0x40 MLOAD PUSH1 0x40 MLOAD DUP1 SWAP2 SUB SWAP1 LOG3 POP POP JUMP JUMPDEST PUSH1 0x0 CALLER SWAP1 POP SWAP1 JUMP JUMPDEST PUSH1 0x0 DUP1 REVERT JUMPDEST PUSH1 0x0 DUP2 SWAP1 POP SWAP2 SWAP1 POP JUMP JUMPDEST PUSH2 0xD1A DUP2 PUSH2 0xD07 JUMP JUMPDEST DUP2 EQ PUSH2 0xD25 JUMPI PUSH1 0x0 DUP1 REVERT JUMPDEST POP JUMP JUMPDEST PUSH1 0x0 DUP2 CALLDATALOAD SWAP1 POP PUSH2 0xD37 DUP2 PUSH2 0xD11 JUMP JUMPDEST SWAP3 SWAP2 POP POP JUMP JUMPDEST PUSH1 0x0 PUSH1 0x20 DUP3 DUP5 SUB SLT ISZERO PUSH2 0xD53 JUMPI PUSH2 0xD52 PUSH2 0xD02 JUMP JUMPDEST JUMPDEST PUSH1 0x0 PUSH2 0xD61 DUP5 DUP3 DUP6 ADD PUSH2 0xD28 JUMP JUMPDEST SWAP2 POP POP SWAP3 SWAP2 POP POP JUMP JUMPDEST PUSH1 0x0 PUSH20 0xFFFFFFFFFFFFFFFFFFFFFFFFFFFFFFFFFFFFFFFF DUP3 AND SWAP1 POP SWAP2 SWAP1 POP JUMP JUMPDEST PUSH1 0x0 PUSH2 0xD95 DUP3 PUSH2 0xD6A JUMP JUMPDEST SWAP1 POP SWAP2 SWAP1 POP JUMP JUMPDEST PUSH2 0xDA5 DUP2 PUSH2 0xD8A JUMP JUMPDEST DUP3 MSTORE POP POP JUMP JUMPDEST PUSH1 0x0 PUSH1 0x20 DUP3 ADD SWAP1 POP PUSH2 0xDC0 PUSH1 0x0 DUP4 ADD DUP5 PUSH2 0xD9C JUMP JUMPDEST SWAP3 SWAP2 POP POP JUMP JUMPDEST PUSH1 0x0 DUP1 PUSH1 0x0 DUP1 PUSH1 0x0 DUP1 PUSH1 0xC0 DUP8 DUP10 SUB SLT ISZERO PUSH2 0xDE3 JUMPI PUSH2 0xDE2 PUSH2 0xD02 JUMP JUMPDEST JUMPDEST PUSH1 0x0 PUSH2 0xDF1 DUP10 DUP3 DUP11 ADD PUSH2 0xD28 JUMP JUMPDEST SWAP7 POP POP PUSH1 0x20 PUSH2 0xE02 DUP10 DUP3 DUP11 ADD PUSH2 0xD28 JUMP JUMPDEST SWAP6 POP POP PUSH1 0x40 PUSH2 0xE13 DUP10 DUP3 DUP11 ADD PUSH2 0xD28 JUMP JUMPDEST SWAP5 POP POP PUSH1 0x60 PUSH2 0xE24 DUP10 DUP3 DUP11 ADD PUSH2 0xD28 JUMP JUMPDEST SWAP4 POP POP PUSH1 0x80 PUSH2 0xE35 DUP10 DUP3 DUP11 ADD PUSH2 0xD28 JUMP JUMPDEST SWAP3 POP POP PUSH1 0xA0 PUSH2 0xE46 DUP10 DUP3 DUP11 ADD PUSH2 0xD28 JUMP JUMPDEST SWAP2 POP POP SWAP3 SWAP6 POP SWAP3 SWAP6 POP SWAP3 SWAP6 JUMP JUMPDEST PUSH2 0xE5C DUP2 PUSH2 0xD07 JUMP JUMPDEST DUP3 MSTORE POP POP JUMP JUMPDEST PUSH1 0x0 PUSH1 0x20 DUP3 ADD SWAP1 POP PUSH2 0xE77 PUSH1 0x0 DUP4 ADD DUP5 PUSH2 0xE53 JUMP JUMPDEST SWAP3 SWAP2 POP POP JUMP JUMPDEST PUSH2 0xE86 DUP2 PUSH2 0xD8A JUMP JUMPDEST DUP2 EQ PUSH2 0xE91 JUMPI PUSH1 0x0 DUP1 REVERT JUMPDEST POP JUMP JUMPDEST PUSH1 0x0 DUP2 CALLDATALOAD SWAP1 POP PUSH2 0xEA3 DUP2 PUSH2 0xE7D JUMP JUMPDEST SWAP3 SWAP2 POP POP JUMP JUMPDEST PUSH1 0x0 PUSH1 0x20 DUP3 DUP5 SUB SLT ISZERO PUSH2 0xEBF JUMPI PUSH2 0xEBE PUSH2 0xD02 JUMP JUMPDEST JUMPDEST PUSH1 0x0 PUSH2 0xECD DUP5 DUP3 DUP6 ADD PUSH2 0xE94 JUMP JUMPDEST SWAP2 POP POP SWAP3 SWAP2 POP POP JUMP JUMPDEST PUSH1 0x0 DUP2 MLOAD SWAP1 POP PUSH2 0xEE5 DUP2 PUSH2 0xD11 JUMP JUMPDEST SWAP3 SWAP2 POP POP JUMP JUMPDEST PUSH1 0x0 PUSH1 0x20 DUP3 DUP5 SUB SLT ISZERO PUSH2 0xF01 JUMPI PUSH2 0xF00 PUSH2 0xD02 JUMP JUMPDEST JUMPDEST PUSH1 0x0 PUSH2 0xF0F DUP5 DUP3 DUP6 ADD PUSH2 0xED6 JUMP JUMPDEST SWAP2 POP POP SWAP3 SWAP2 POP POP JUMP JUMPDEST PUSH1 0x0 DUP3 DUP3 MSTORE PUSH1 0x20 DUP3 ADD SWAP1 POP SWAP3 SWAP2 POP POP JUMP JUMPDEST PUSH32 0x706F6F6C207A65726F0000000000000000000000000000000000000000000000 PUSH1 0x0 DUP3 ADD MSTORE POP JUMP JUMPDEST PUSH1 0x0 PUSH2 0xF5F PUSH1 0x9 DUP4 PUSH2 0xF18 JUMP JUMPDEST SWAP2 POP PUSH2 0xF6A DUP3 PUSH2 0xF29 JUMP JUMPDEST PUSH1 0x20 DUP3 ADD SWAP1 POP SWAP2 SWAP1 POP JUMP JUMPDEST PUSH1 0x0 PUSH1 0x20 DUP3 ADD SWAP1 POP DUP2 DUP2 SUB PUSH1 0x0 DUP4 ADD MSTORE PUSH2 0xF8E DUP2 PUSH2 0xF52 JUMP JUMPDEST SWAP1 POP SWAP2 SWAP1 POP JUMP JUMPDEST PUSH32 0x4E487B7100000000000000000000000000000000000000000000000000000000 PUSH1 0x0 MSTORE PUSH1 0x12 PUSH1 0x4 MSTORE PUSH1 0x24 PUSH1 0x0 REVERT JUMPDEST PUSH32 0x4E487B7100000000000000000000000000000000000000000000000000000000 PUSH1 0x0 MSTORE PUSH1 0x11 PUSH1 0x4 MSTORE PUSH1 0x24 PUSH1 0x0 REVERT JUMPDEST PUSH1 0x0 PUSH2 0xFFE DUP3 PUSH2 0xD07 JUMP JUMPDEST SWAP2 POP PUSH2 0x1009 DUP4 PUSH2 0xD07 JUMP JUMPDEST SWAP3 POP DUP3 PUSH2 0x1019 JUMPI PUSH2 0x1018 PUSH2 0xF95 JUMP JUMPDEST JUMPDEST DUP3 DUP3 DIV SWAP1 POP SWAP3 SWAP2 POP POP JUMP JUMPDEST PUSH1 0x0 PUSH2 0x102F DUP3 PUSH2 0xD07 JUMP JUMPDEST SWAP2 POP PUSH2 0x103A DUP4 PUSH2 0xD07 JUMP JUMPDEST SWAP3 POP DUP3 DUP3 SUB SWAP1 POP DUP2 DUP2 GT ISZERO PUSH2 0x1052 JUMPI PUSH2 0x1051 PUSH2 0xFC4 JUMP JUMPDEST JUMPDEST SWAP3 SWAP2 POP POP JUMP JUMPDEST PUSH1 0x0 PUSH2 0x1063 DUP3 PUSH2 0xD07 JUMP JUMPDEST SWAP2 POP PUSH2 0x106E DUP4 PUSH2 0xD07 JUMP JUMPDEST SWAP3 POP DUP3 DUP3 MUL PUSH2 0x107C DUP2 PUSH2 0xD07 JUMP JUMPDEST SWAP2 POP DUP3 DUP3 DIV DUP5 EQ DUP4 ISZERO OR PUSH2 0x1093 JUMPI PUSH2 0x1092 PUSH2 0xFC4 JUMP JUMPDEST JUMPDEST POP SWAP3 SWAP2 POP POP JUMP JUMPDEST PUSH1 0x0 PUSH2 0x10A5 DUP3 PUSH2 0xD07 JUMP JUMPDEST SWAP2 POP PUSH2 0x10B0 DUP4 PUSH2 0xD07 JUMP JUMPDEST SWAP3 POP DUP3 DUP3 ADD SWAP1 POP DUP1 DUP3 GT ISZERO PUSH2 0x10C8 JUMPI PUSH2 0x10C7 PUSH2 0xFC4 JUMP JUMPDEST JUMPDEST SWAP3 SWAP2 POP POP JUMP JUMPDEST PUSH1 0x0 PUSH1 0x60 DUP3 ADD SWAP1 POP PUSH2 0x10E3 PUSH1 0x0 DUP4 ADD DUP7 PUSH2 0xE53 JUMP JUMPDEST PUSH2 0x10F0 PUSH1 0x20 DUP4 ADD DUP6 PUSH2 0xE53 JUMP JUMPDEST PUSH2 0x10FD PUSH1 0x40 DUP4 ADD DUP5 PUSH2 0xE53 JUMP JUMPDEST SWAP5 SWAP4 POP POP POP POP JUMP JUMPDEST PUSH1 0x0 PUSH1 0xC0 DUP3 ADD SWAP1 POP PUSH2 0x111A PUSH1 0x0 DUP4 ADD DUP10 PUSH2 0xE53 JUMP JUMPDEST PUSH2 0x1127 PUSH1 0x20 DUP4 ADD DUP9 PUSH2 0xE53 JUMP JUMPDEST PUSH2 0x1134 PUSH1 0x40 DUP4 ADD DUP8 PUSH2 0xE53 JUMP JUMPDEST PUSH2 0x1141 PUSH1 0x60 DUP4 ADD DUP7 PUSH2 0xE53 JUMP JUMPDEST PUSH2 0x114E PUSH1 0x80 DUP4 ADD DUP6 PUSH2 0xE53 JUMP JUMPDEST PUSH2 0x115B PUSH1 0xA0 DUP4 ADD DUP5 PUSH2 0xE53 JUMP JUMPDEST SWAP8 SWAP7 POP POP POP POP POP POP POP JUMP INVALID LOG2 PUSH5 0x6970667358 0x22 SLT KECCAK256 0xD9 SWAP9 PUSH11 0x278DAAEAAEC282AFC457F8 DUP11 0xED SWAP14 0xBB STATICCALL 0xB4 0xCA 0xB6 MSTORE8 ADDMOD LOG2 BYTE LOG4 DUP13 CALLCODE DUP2 MSTORE 0xF8 PUSH5 0x736F6C6343 STOP ADDMOD EQ STOP CALLER "},"methodIdentifiers":{"SECONDS_PER_YEAR()":"e6a69ab8","adjustmentRatePerSecond()":"28637d01","currentAPR()":"60577981","getBorrowRatePerSecond(uint256)":"f71bd11b","lastUpdate()":"c0463711","lowerUtilization()":"642fccf3","maxAPR()":"53704f9a","minAPR()":"e0e79dde","neutralAPR()":"78789c21","owner()":"8da5cb5b","pool()":"16f0115b","renounceOwnership()":"715018a6","setParameters(uint256,uint256,uint256,uint256,uint256,uint256)":"282c8749","setPool(address)":"4437152a","transferOwnership(address)":"f2fde38b","updateBorrowRate(uint256)":"02b8c56d","upperUtilization()":"59e0fdd5"}}}}}