{"contracts/bridge/GatewayV3.sol":{"GatewayV3":{"abi":[{"inputs":[{"internalType":"contract RelayerManager","name":"_relayerManager","type":"address"},{"internalType":"contract ChainRegistry","name":"_registry","type":"address"}],"stateMutability":"nonpayable","type":"constructor"},{"inputs":[],"name":"EnforcedPause","type":"error"},{"inputs":[],"name":"ExpectedPause","type":"error"},{"inputs":[{"internalType":"address","name":"owner","type":"address"}],"name":"OwnableInvalidOwner","type":"error"},{"inputs":[{"internalType":"address","name":"account","type":"address"}],"name":"OwnableUnauthorizedAccount","type":"error"},{"anonymous":false,"inputs":[{"indexed":true,"internalType":"address","name":"executor","type":"address"},{"indexed":true,"internalType":"address","name":"target","type":"address"},{"indexed":false,"internalType":"uint256","name":"fromChainId","type":"uint256"},{"indexed":false,"internalType":"bytes","name":"data","type":"bytes"},{"indexed":false,"internalType":"bool","name":"success","type":"bool"}],"name":"MessageExecuted","type":"event"},{"anonymous":false,"inputs":[{"indexed":true,"internalType":"address","name":"sender","type":"address"},{"indexed":false,"internalType":"uint256","name":"toChainId","type":"uint256"},{"indexed":true,"internalType":"address","name":"target","type":"address"},{"indexed":false,"internalType":"bytes","name":"data","type":"bytes"},{"indexed":false,"internalType":"uint256","name":"value","type":"uint256"},{"indexed":false,"internalType":"uint256","name":"nonce","type":"uint256"}],"name":"MessageSent","type":"event"},{"anonymous":false,"inputs":[{"indexed":true,"internalType":"address","name":"previousOwner","type":"address"},{"indexed":true,"internalType":"address","name":"newOwner","type":"address"}],"name":"OwnershipTransferred","type":"event"},{"anonymous":false,"inputs":[{"indexed":false,"internalType":"address","name":"account","type":"address"}],"name":"Paused","type":"event"},{"anonymous":false,"inputs":[{"indexed":true,"internalType":"address","name":"sender","type":"address"},{"indexed":true,"internalType":"address","name":"token","type":"address"},{"indexed":false,"internalType":"uint256","name":"amount","type":"uint256"},{"indexed":false,"internalType":"uint256","name":"toChainId","type":"uint256"},{"indexed":false,"internalType":"address","name":"recipient","type":"address"},{"indexed":false,"internalType":"uint256","name":"nonce","type":"uint256"}],"name":"TokensLocked","type":"event"},{"anonymous":false,"inputs":[{"indexed":true,"internalType":"address","name":"recipient","type":"address"},{"indexed":true,"internalType":"address","name":"wrappedToken","type":"address"},{"indexed":false,"internalType":"uint256","name":"amount","type":"uint256"},{"indexed":false,"internalType":"bytes32","name":"sourceTxHash","type":"bytes32"}],"name":"TokensMinted","type":"event"},{"anonymous":false,"inputs":[{"indexed":false,"internalType":"address","name":"account","type":"address"}],"name":"Unpaused","type":"event"},{"inputs":[{"internalType":"address","name":"token","type":"address"},{"internalType":"uint256","name":"amount","type":"uint256"},{"internalType":"uint256","name":"toChainId","type":"uint256"},{"internalType":"address","name":"recipient","type":"address"}],"name":"bridgeToken","outputs":[],"stateMutability":"nonpayable","type":"function"},{"inputs":[{"internalType":"uint256","name":"fromChainId","type":"uint256"},{"internalType":"address","name":"sender","type":"address"},{"internalType":"address","name":"target","type":"address"},{"internalType":"bytes","name":"data","type":"bytes"},{"internalType":"uint256","name":"value","type":"uint256"},{"internalType":"bytes32","name":"sourceMsgHash","type":"bytes32"},{"internalType":"bytes[]","name":"signatures","type":"bytes[]"}],"name":"executeMessage","outputs":[],"stateMutability":"nonpayable","type":"function"},{"inputs":[{"internalType":"address","name":"wrappedToken","type":"address"},{"internalType":"address","name":"recipient","type":"address"},{"internalType":"uint256","name":"amount","type":"uint256"},{"internalType":"bytes32","name":"sourceTxHash","type":"bytes32"},{"internalType":"bytes[]","name":"signatures","type":"bytes[]"}],"name":"mintWrapped","outputs":[],"stateMutability":"nonpayable","type":"function"},{"inputs":[],"name":"nonce","outputs":[{"internalType":"uint256","name":"","type":"uint256"}],"stateMutability":"view","type":"function"},{"inputs":[],"name":"owner","outputs":[{"internalType":"address","name":"","type":"address"}],"stateMutability":"view","type":"function"},{"inputs":[],"name":"pause","outputs":[],"stateMutability":"nonpayable","type":"function"},{"inputs":[],"name":"paused","outputs":[{"internalType":"bool","name":"","type":"bool"}],"stateMutability":"view","type":"function"},{"inputs":[],"name":"registry","outputs":[{"internalType":"contract ChainRegistry","name":"","type":"address"}],"stateMutability":"view","type":"function"},{"inputs":[],"name":"relayerManager","outputs":[{"internalType":"contract RelayerManager","name":"","type":"address"}],"stateMutability":"view","type":"function"},{"inputs":[],"name":"renounceOwnership","outputs":[],"stateMutability":"nonpayable","type":"function"},{"inputs":[{"internalType":"uint256","name":"toChainId","type":"uint256"},{"internalType":"address","name":"target","type":"address"},{"internalType":"bytes","name":"data","type":"bytes"}],"name":"sendMessage","outputs":[],"stateMutability":"payable","type":"function"},{"inputs":[{"internalType":"address","name":"newOwner","type":"address"}],"name":"transferOwnership","outputs":[],"stateMutability":"nonpayable","type":"function"},{"inputs":[],"name":"unpause","outputs":[],"stateMutability":"nonpayable","type":"function"},{"inputs":[{"internalType":"bytes32","name":"","type":"bytes32"}],"name":"usedProofs","outputs":[{"internalType":"bool","name":"","type":"bool"}],"stateMutability":"view","type":"function"}],"evm":{"bytecode":{"linkReferences":{},"object":"60c06040523480156200001157600080fd5b5060405162001713380380620017138339810160408190526200003491620000e8565b33806200005b57604051631e4fbdf760e01b81526000600482015260240160405180910390fd5b62000066816200007f565b506001600160a01b039182166080521660a05262000127565b600080546001600160a01b038381166001600160a01b0319831681178455604051919092169283917f8be0079c531659141344cd1fd0a4f28419497f9722a3daafe3b4186f6b6457e09190a35050565b6001600160a01b0381168114620000e557600080fd5b50565b60008060408385031215620000fc57600080fd5b82516200010981620000cf565b60208401519092506200011c81620000cf565b809150509250929050565b60805160a0516115a362000170600039600081816101830152818161043a01528181610767015261084201526000818161027601528181610ac10152610ca101526115a36000f3fe6080604052600436106100dd5760003560e01c80638da5cb5b1161007f578063c30a0f2511610059578063c30a0f2514610234578063c71d36b314610264578063ceefd62c14610298578063f2fde38b146102b857600080fd5b80638da5cb5b146101d2578063a0b23305146101f0578063affed0e01461021057600080fd5b80637056f41f116100bb5780637056f41f14610149578063715018a61461015c5780637b103999146101715780638456cb59146101bd57600080fd5b80633ba41430146100e25780633f4ba83a146101045780635c975abb14610119575b600080fd5b3480156100ee57600080fd5b506101026100fd36600461119e565b6102d8565b005b34801561011057600080fd5b5061010261040a565b34801561012557600080fd5b50600054600160a01b900460ff165b60405190151581526020015b60405180910390f35b610102610157366004611258565b61041c565b34801561016857600080fd5b50610102610562565b34801561017d57600080fd5b506101a57f000000000000000000000000000000000000000000000000000000000000000081565b6040516001600160a01b039091168152602001610140565b3480156101c957600080fd5b50610102610574565b3480156101de57600080fd5b506000546001600160a01b03166101a5565b3480156101fc57600080fd5b5061010261020b3660046112b2565b610584565b34801561021c57600080fd5b5061022660025481565b604051908152602001610140565b34801561024057600080fd5b5061013461024f366004611362565b60016020526000908152604090205460ff1681565b34801561027057600080fd5b506101a57f000000000000000000000000000000000000000000000000000000000000000081565b3480156102a457600080fd5b506101026102b336600461137b565b610749565b3480156102c457600080fd5b506101026102d33660046113c1565b610a54565b6102e0610a92565b60008381526001602052604090205460ff16156103315760405162461bcd60e51b815260206004820152600a6024820152691c1c9bdbd9881d5cd95960b21b60448201526064015b60405180910390fd5b61033c838383610abd565b600083815260016020819052604091829020805460ff19169091179055516340c10f1960e01b81526001600160a01b038681166004830152602482018690528716906340c10f1990604401600060405180830381600087803b1580156103a157600080fd5b505af11580156103b5573d6000803e3d6000fd5b505060408051878152602081018790526001600160a01b03808b169450891692507f91dd2cbfd54587f3aef7d0966c4185fae943cc4fe9e40877d4d7f2be4ec46e8091015b60405180910390a3505050505050565b610412610e1f565b61041a610e4c565b565b610424610a92565b604051634d240db960e01b8152600481018590527f00000000000000000000000000000000000000000000000000000000000000006001600160a01b031690634d240db990602401602060405180830381865afa158015610489573d6000803e3d6000fd5b505050506040513d601f19601f820116820180604052508101906104ad91906113e3565b6104ef5760405162461bcd60e51b815260206004820152601360248201527219195cdd0818da185a5b88191a5cd8589b1959606a1b6044820152606401610328565b60006002600081546105009061141b565b9190508190559050836001600160a01b0316336001600160a01b03167fcd8ce8338185abf04e651317f7a19fe6398d3a8e6fa4cdc710666dc3f2d7eb47878686348760405161055395949392919061145d565b60405180910390a35050505050565b61056a610e1f565b61041a6000610ea1565b61057c610e1f565b61041a610ef1565b61058c610a92565b60008381526001602052604090205460ff16156105d85760405162461bcd60e51b815260206004820152600a6024820152691c1c9bdbd9881d5cd95960b21b6044820152606401610328565b600061062160008b468c8c8c8c8080601f0160208091040260200160405190810160405280939291908181526020018383808284376000920191909152508e9250610f34915050565b90508381146106625760405162461bcd60e51b815260206004820152600d60248201526c0d0c2e6d040dad2e6dac2e8c6d609b1b6044820152606401610328565b61066d848484610abd565b6000848152600160208190526040808320805460ff1916909217909155516001600160a01b038a169087906106a5908b908b9061148b565b60006040518083038185875af1925050503d80600081146106e2576040519150601f19603f3d011682016040523d82523d6000602084013e6106e7565b606091505b50509050886001600160a01b0316336001600160a01b03167ff7c9eb785e43d5ad257a026fd1a3aef9d7f14f97dac442b61a63dff78efa219a8d8b8b86604051610734949392919061149b565b60405180910390a35050505050505050505050565b610751610a92565b604051634d240db960e01b8152600481018390527f00000000000000000000000000000000000000000000000000000000000000006001600160a01b031690634d240db990602401602060405180830381865afa1580156107b6573d6000803e3d6000fd5b505050506040513d601f19601f820116820180604052508101906107da91906113e3565b61081c5760405162461bcd60e51b815260206004820152601360248201527219195cdd0818da185a5b88191a5cd8589b1959606a1b6044820152606401610328565b604051630bc9dad160e01b8152600481018390526001600160a01b0385811660248301527f00000000000000000000000000000000000000000000000000000000000000001690630bc9dad190604401602060405180830381865afa158015610889573d6000803e3d6000fd5b505050506040513d601f19601f820116820180604052508101906108ad91906113e3565b6108ed5760405162461bcd60e51b81526020600482015260116024820152701d1bdad95b881b9bdd08185b1b1bddd959607a1b6044820152606401610328565b6000831161092a5760405162461bcd60e51b815260206004820152600a6024820152690616d6f756e74203d20360b41b6044820152606401610328565b6040516323b872dd60e01b8152336004820152306024820152604481018490526000906001600160a01b038616906323b872dd906064016020604051808303816000875af1158015610980573d6000803e3d6000fd5b505050506040513d601f19601f820116820180604052508101906109a491906113e3565b9050806109e55760405162461bcd60e51b815260206004820152600f60248201526e1d1c985b9cd9995c8819985a5b1959608a1b6044820152606401610328565b60006002600081546109f69061141b565b918290555060408051878152602081018790526001600160a01b03868116928201929092526060810183905291925087169033907f0e3b6efba50a82b66564e76271e9a340ad970ff461db2a0ce639902c405e59dd906080016103fa565b610a5c610e1f565b6001600160a01b038116610a8657604051631e4fbdf760e01b815260006004820152602401610328565b610a8f81610ea1565b50565b600054600160a01b900460ff161561041a5760405163d93c066560e01b815260040160405180910390fd5b60007f00000000000000000000000000000000000000000000000000000000000000006001600160a01b031663a82f2e266040518163ffffffff1660e01b8152600401602060405180830381865afa158015610b1d573d6000803e3d6000fd5b505050506040513d601f19601f82011682018060405250810190610b4191906114c8565b905060008111610b815760405162461bcd60e51b815260206004820152600b60248201526a07468726573686f6c643d360ac1b6044820152606401610328565b80821015610bc95760405162461bcd60e51b81526020600482015260156024820152746e6f7420656e6f756768207369676e61747572657360581b6044820152606401610328565b60008267ffffffffffffffff811115610be457610be46114e1565b604051908082528060200260200182016040528015610c0d578160200160208202803683370190505b50905060005b82811015610e17576000610c7f87878785818110610c3357610c336114f7565b9050602002810190610c45919061150d565b8080601f016020809104026020016040519081016040528093929190818152602001838380828437600092019190915250610fc292505050565b604051630a83aaa960e31b81526001600160a01b0380831660048301529192507f00000000000000000000000000000000000000000000000000000000000000009091169063541d554890602401602060405180830381865afa158015610cea573d6000803e3d6000fd5b505050506040513d601f19601f82011682018060405250810190610d0e91906113e3565b610d4b5760405162461bcd60e51b815260206004820152600e60248201526d34b73b30b634b21039b4b3b732b960911b6044820152606401610328565b60005b82811015610dd857816001600160a01b0316848281518110610d7257610d726114f7565b60200260200101516001600160a01b031603610dc65760405162461bcd60e51b81526020600482015260136024820152726475706c6963617465207369676e617475726560681b6044820152606401610328565b80610dd08161141b565b915050610d4e565b5080838381518110610dec57610dec6114f7565b6001600160a01b03909216602092830291909101909101525080610e0f8161141b565b915050610c13565b505050505050565b6000546001600160a01b0316331461041a5760405163118cdaa760e01b8152336004820152602401610328565b610e54611092565b6000805460ff60a01b191690557f5db9ee0a495bf2e6ff9c91a7834c1ba4fdd244a5e8aa4e537bd38aeae4b073aa335b6040516001600160a01b03909116815260200160405180910390a1565b600080546001600160a01b038381166001600160a01b0319831681178455604051919092169283917f8be0079c531659141344cd1fd0a4f28419497f9722a3daafe3b4186f6b6457e09190a35050565b610ef9610a92565b6000805460ff60a01b1916600160a01b1790557f62e78cea01bee320cd4e420270b5ea74000d11b0c9f74754ebdbfc544b05a258610e843390565b8151602092830120604080517fb6ab791f8292804e6f5ecb0f038d273a21df79eb5c2edc9297b0c1e983a6324e8186015280820199909952606089019790975260808801959095526001600160a01b0393841660a08801529190921660c086015260e08501929092526101008085019290925282518085039092018252610120909301909152805191012090565b6040517f19457468657265756d205369676e6564204d6573736167653a0a3332000000006020820152603c81018390526000908190605c016040516020818303038152906040528051906020012090506000806000611020866110bc565b60408051600081526020810180835289905260ff8316918101919091526060810184905260808101839052929550909350915060019060a0016020604051602081039080840390855afa15801561107b573d6000803e3d6000fd5b505050602060405103519450505050505b92915050565b600054600160a01b900460ff1661041a57604051638dfc202b60e01b815260040160405180910390fd5b600080600083516041146111035760405162461bcd60e51b815260206004820152600e60248201526d0c4c2c840e6d2ce40d8cadccee8d60931b6044820152606401610328565b50505060208101516040820151606083015160001a601b81101561112f5761112c601b82611554565b90505b9193909250565b80356001600160a01b038116811461114d57600080fd5b919050565b60008083601f84011261116457600080fd5b50813567ffffffffffffffff81111561117c57600080fd5b6020830191508360208260051b850101111561119757600080fd5b9250929050565b60008060008060008060a087890312156111b757600080fd5b6111c087611136565b95506111ce60208801611136565b94506040870135935060608701359250608087013567ffffffffffffffff8111156111f857600080fd5b61120489828a01611152565b979a9699509497509295939492505050565b60008083601f84011261122857600080fd5b50813567ffffffffffffffff81111561124057600080fd5b60208301915083602082850101111561119757600080fd5b6000806000806060858703121561126e57600080fd5b8435935061127e60208601611136565b9250604085013567ffffffffffffffff81111561129a57600080fd5b6112a687828801611216565b95989497509550505050565b600080600080600080600080600060e08a8c0312156112d057600080fd5b893598506112e060208b01611136565b97506112ee60408b01611136565b965060608a013567ffffffffffffffff8082111561130b57600080fd5b6113178d838e01611216565b909850965060808c0135955060a08c0135945060c08c013591508082111561133e57600080fd5b5061134b8c828d01611152565b915080935050809150509295985092959850929598565b60006020828403121561137457600080fd5b5035919050565b6000806000806080858703121561139157600080fd5b61139a85611136565b935060208501359250604085013591506113b660608601611136565b905092959194509250565b6000602082840312156113d357600080fd5b6113dc82611136565b9392505050565b6000602082840312156113f557600080fd5b815180151581146113dc57600080fd5b634e487b7160e01b600052601160045260246000fd5b60006001820161142d5761142d611405565b5060010190565b81835281816020850137506000828201602090810191909152601f909101601f19169091010190565b858152608060208201526000611477608083018688611434565b604083019490945250606001529392505050565b8183823760009101908152919050565b8481526060602082015260006114b5606083018587611434565b9050821515604083015295945050505050565b6000602082840312156114da57600080fd5b5051919050565b634e487b7160e01b600052604160045260246000fd5b634e487b7160e01b600052603260045260246000fd5b6000808335601e1984360301811261152457600080fd5b83018035915067ffffffffffffffff82111561153f57600080fd5b60200191503681900382131561119757600080fd5b60ff818116838216019081111561108c5761108c61140556fea2646970667358221220df5329adf43a0db0f40a119b5378b94b5bc6420a1a380eeaebfd8d77771329ac64736f6c63430008140033","opcodes":"PUSH1 0xC0 PUSH1 0x40 MSTORE CALLVALUE DUP1 ISZERO PUSH3 0x11 JUMPI PUSH1 0x0 DUP1 REVERT JUMPDEST POP PUSH1 0x40 MLOAD PUSH3 0x1713 CODESIZE SUB DUP1 PUSH3 0x1713 DUP4 CODECOPY DUP2 ADD PUSH1 0x40 DUP2 SWAP1 MSTORE PUSH3 0x34 SWAP2 PUSH3 0xE8 JUMP JUMPDEST CALLER DUP1 PUSH3 0x5B JUMPI PUSH1 0x40 MLOAD PUSH4 0x1E4FBDF7 PUSH1 0xE0 SHL DUP2 MSTORE PUSH1 0x0 PUSH1 0x4 DUP3 ADD MSTORE PUSH1 0x24 ADD PUSH1 0x40 MLOAD DUP1 SWAP2 SUB SWAP1 REVERT JUMPDEST PUSH3 0x66 DUP2 PUSH3 0x7F JUMP JUMPDEST POP PUSH1 0x1 PUSH1 0x1 PUSH1 0xA0 SHL SUB SWAP2 DUP3 AND PUSH1 0x80 MSTORE AND PUSH1 0xA0 MSTORE PUSH3 0x127 JUMP JUMPDEST PUSH1 0x0 DUP1 SLOAD PUSH1 0x1 PUSH1 0x1 PUSH1 0xA0 SHL SUB DUP4 DUP2 AND PUSH1 0x1 PUSH1 0x1 PUSH1 0xA0 SHL SUB NOT DUP4 AND DUP2 OR DUP5 SSTORE PUSH1 0x40 MLOAD SWAP2 SWAP1 SWAP3 AND SWAP3 DUP4 SWAP2 PUSH32 0x8BE0079C531659141344CD1FD0A4F28419497F9722A3DAAFE3B4186F6B6457E0 SWAP2 SWAP1 LOG3 POP POP JUMP JUMPDEST PUSH1 0x1 PUSH1 0x1 PUSH1 0xA0 SHL SUB DUP2 AND DUP2 EQ PUSH3 0xE5 JUMPI PUSH1 0x0 DUP1 REVERT JUMPDEST POP JUMP JUMPDEST PUSH1 0x0 DUP1 PUSH1 0x40 DUP4 DUP6 SUB SLT ISZERO PUSH3 0xFC JUMPI PUSH1 0x0 DUP1 REVERT JUMPDEST DUP3 MLOAD PUSH3 0x109 DUP2 PUSH3 0xCF JUMP JUMPDEST PUSH1 0x20 DUP5 ADD MLOAD SWAP1 SWAP3 POP PUSH3 0x11C DUP2 PUSH3 0xCF JUMP JUMPDEST DUP1 SWAP2 POP POP SWAP3 POP SWAP3 SWAP1 POP JUMP JUMPDEST PUSH1 0x80 MLOAD PUSH1 0xA0 MLOAD PUSH2 0x15A3 PUSH3 0x170 PUSH1 0x0 CODECOPY PUSH1 0x0 DUP2 DUP2 PUSH2 0x183 ADD MSTORE DUP2 DUP2 PUSH2 0x43A ADD MSTORE DUP2 DUP2 PUSH2 0x767 ADD MSTORE PUSH2 0x842 ADD MSTORE PUSH1 0x0 DUP2 DUP2 PUSH2 0x276 ADD MSTORE DUP2 DUP2 PUSH2 0xAC1 ADD MSTORE PUSH2 0xCA1 ADD MSTORE PUSH2 0x15A3 PUSH1 0x0 RETURN INVALID PUSH1 0x80 PUSH1 0x40 MSTORE PUSH1 0x4 CALLDATASIZE LT PUSH2 0xDD JUMPI PUSH1 0x0 CALLDATALOAD PUSH1 0xE0 SHR DUP1 PUSH4 0x8DA5CB5B GT PUSH2 0x7F JUMPI DUP1 PUSH4 0xC30A0F25 GT PUSH2 0x59 JUMPI DUP1 PUSH4 0xC30A0F25 EQ PUSH2 0x234 JUMPI DUP1 PUSH4 0xC71D36B3 EQ PUSH2 0x264 JUMPI DUP1 PUSH4 0xCEEFD62C EQ PUSH2 0x298 JUMPI DUP1 PUSH4 0xF2FDE38B EQ PUSH2 0x2B8 JUMPI PUSH1 0x0 DUP1 REVERT JUMPDEST DUP1 PUSH4 0x8DA5CB5B EQ PUSH2 0x1D2 JUMPI DUP1 PUSH4 0xA0B23305 EQ PUSH2 0x1F0 JUMPI DUP1 PUSH4 0xAFFED0E0 EQ PUSH2 0x210 JUMPI PUSH1 0x0 DUP1 REVERT JUMPDEST DUP1 PUSH4 0x7056F41F GT PUSH2 0xBB JUMPI DUP1 PUSH4 0x7056F41F EQ PUSH2 0x149 JUMPI DUP1 PUSH4 0x715018A6 EQ PUSH2 0x15C JUMPI DUP1 PUSH4 0x7B103999 EQ PUSH2 0x171 JUMPI DUP1 PUSH4 0x8456CB59 EQ PUSH2 0x1BD JUMPI PUSH1 0x0 DUP1 REVERT JUMPDEST DUP1 PUSH4 0x3BA41430 EQ PUSH2 0xE2 JUMPI DUP1 PUSH4 0x3F4BA83A EQ PUSH2 0x104 JUMPI DUP1 PUSH4 0x5C975ABB EQ PUSH2 0x119 JUMPI JUMPDEST PUSH1 0x0 DUP1 REVERT JUMPDEST CALLVALUE DUP1 ISZERO PUSH2 0xEE JUMPI PUSH1 0x0 DUP1 REVERT JUMPDEST POP PUSH2 0x102 PUSH2 0xFD CALLDATASIZE PUSH1 0x4 PUSH2 0x119E JUMP JUMPDEST PUSH2 0x2D8 JUMP JUMPDEST STOP JUMPDEST CALLVALUE DUP1 ISZERO PUSH2 0x110 JUMPI PUSH1 0x0 DUP1 REVERT JUMPDEST POP PUSH2 0x102 PUSH2 0x40A JUMP JUMPDEST CALLVALUE DUP1 ISZERO PUSH2 0x125 JUMPI PUSH1 0x0 DUP1 REVERT JUMPDEST POP PUSH1 0x0 SLOAD PUSH1 0x1 PUSH1 0xA0 SHL SWAP1 DIV PUSH1 0xFF AND JUMPDEST PUSH1 0x40 MLOAD SWAP1 ISZERO ISZERO DUP2 MSTORE PUSH1 0x20 ADD JUMPDEST PUSH1 0x40 MLOAD DUP1 SWAP2 SUB SWAP1 RETURN JUMPDEST PUSH2 0x102 PUSH2 0x157 CALLDATASIZE PUSH1 0x4 PUSH2 0x1258 JUMP JUMPDEST PUSH2 0x41C JUMP JUMPDEST CALLVALUE DUP1 ISZERO PUSH2 0x168 JUMPI PUSH1 0x0 DUP1 REVERT JUMPDEST POP PUSH2 0x102 PUSH2 0x562 JUMP JUMPDEST CALLVALUE DUP1 ISZERO PUSH2 0x17D JUMPI PUSH1 0x0 DUP1 REVERT JUMPDEST POP PUSH2 0x1A5 PUSH32 0x0 DUP2 JUMP JUMPDEST PUSH1 0x40 MLOAD PUSH1 0x1 PUSH1 0x1 PUSH1 0xA0 SHL SUB SWAP1 SWAP2 AND DUP2 MSTORE PUSH1 0x20 ADD PUSH2 0x140 JUMP JUMPDEST CALLVALUE DUP1 ISZERO PUSH2 0x1C9 JUMPI PUSH1 0x0 DUP1 REVERT JUMPDEST POP PUSH2 0x102 PUSH2 0x574 JUMP JUMPDEST CALLVALUE DUP1 ISZERO PUSH2 0x1DE JUMPI PUSH1 0x0 DUP1 REVERT JUMPDEST POP PUSH1 0x0 SLOAD PUSH1 0x1 PUSH1 0x1 PUSH1 0xA0 SHL SUB AND PUSH2 0x1A5 JUMP JUMPDEST CALLVALUE DUP1 ISZERO PUSH2 0x1FC JUMPI PUSH1 0x0 DUP1 REVERT JUMPDEST POP PUSH2 0x102 PUSH2 0x20B CALLDATASIZE PUSH1 0x4 PUSH2 0x12B2 JUMP JUMPDEST PUSH2 0x584 JUMP JUMPDEST CALLVALUE DUP1 ISZERO PUSH2 0x21C JUMPI PUSH1 0x0 DUP1 REVERT JUMPDEST POP PUSH2 0x226 PUSH1 0x2 SLOAD DUP2 JUMP JUMPDEST PUSH1 0x40 MLOAD SWAP1 DUP2 MSTORE PUSH1 0x20 ADD PUSH2 0x140 JUMP JUMPDEST CALLVALUE DUP1 ISZERO PUSH2 0x240 JUMPI PUSH1 0x0 DUP1 REVERT JUMPDEST POP PUSH2 0x134 PUSH2 0x24F CALLDATASIZE PUSH1 0x4 PUSH2 0x1362 JUMP JUMPDEST PUSH1 0x1 PUSH1 0x20 MSTORE PUSH1 0x0 SWAP1 DUP2 MSTORE PUSH1 0x40 SWAP1 KECCAK256 SLOAD PUSH1 0xFF AND DUP2 JUMP JUMPDEST CALLVALUE DUP1 ISZERO PUSH2 0x270 JUMPI PUSH1 0x0 DUP1 REVERT JUMPDEST POP PUSH2 0x1A5 PUSH32 0x0 DUP2 JUMP JUMPDEST CALLVALUE DUP1 ISZERO PUSH2 0x2A4 JUMPI PUSH1 0x0 DUP1 REVERT JUMPDEST POP PUSH2 0x102 PUSH2 0x2B3 CALLDATASIZE PUSH1 0x4 PUSH2 0x137B JUMP JUMPDEST PUSH2 0x749 JUMP JUMPDEST CALLVALUE DUP1 ISZERO PUSH2 0x2C4 JUMPI PUSH1 0x0 DUP1 REVERT JUMPDEST POP PUSH2 0x102 PUSH2 0x2D3 CALLDATASIZE PUSH1 0x4 PUSH2 0x13C1 JUMP JUMPDEST PUSH2 0xA54 JUMP JUMPDEST PUSH2 0x2E0 PUSH2 0xA92 JUMP JUMPDEST PUSH1 0x0 DUP4 DUP2 MSTORE PUSH1 0x1 PUSH1 0x20 MSTORE PUSH1 0x40 SWAP1 KECCAK256 SLOAD PUSH1 0xFF AND ISZERO PUSH2 0x331 JUMPI PUSH1 0x40 MLOAD PUSH3 0x461BCD PUSH1 0xE5 SHL DUP2 MSTORE PUSH1 0x20 PUSH1 0x4 DUP3 ADD MSTORE PUSH1 0xA PUSH1 0x24 DUP3 ADD MSTORE PUSH10 0x1C1C9BDBD9881D5CD959 PUSH1 0xB2 SHL PUSH1 0x44 DUP3 ADD MSTORE PUSH1 0x64 ADD JUMPDEST PUSH1 0x40 MLOAD DUP1 SWAP2 SUB SWAP1 REVERT JUMPDEST PUSH2 0x33C DUP4 DUP4 DUP4 PUSH2 0xABD JUMP JUMPDEST PUSH1 0x0 DUP4 DUP2 MSTORE PUSH1 0x1 PUSH1 0x20 DUP2 SWAP1 MSTORE PUSH1 0x40 SWAP2 DUP3 SWAP1 KECCAK256 DUP1 SLOAD PUSH1 0xFF NOT AND SWAP1 SWAP2 OR SWAP1 SSTORE MLOAD PUSH4 0x40C10F19 PUSH1 0xE0 SHL DUP2 MSTORE PUSH1 0x1 PUSH1 0x1 PUSH1 0xA0 SHL SUB DUP7 DUP2 AND PUSH1 0x4 DUP4 ADD MSTORE PUSH1 0x24 DUP3 ADD DUP7 SWAP1 MSTORE DUP8 AND SWAP1 PUSH4 0x40C10F19 SWAP1 PUSH1 0x44 ADD PUSH1 0x0 PUSH1 0x40 MLOAD DUP1 DUP4 SUB DUP2 PUSH1 0x0 DUP8 DUP1 EXTCODESIZE ISZERO DUP1 ISZERO PUSH2 0x3A1 JUMPI PUSH1 0x0 DUP1 REVERT JUMPDEST POP GAS CALL ISZERO DUP1 ISZERO PUSH2 0x3B5 JUMPI RETURNDATASIZE PUSH1 0x0 DUP1 RETURNDATACOPY RETURNDATASIZE PUSH1 0x0 REVERT JUMPDEST POP POP PUSH1 0x40 DUP1 MLOAD DUP8 DUP2 MSTORE PUSH1 0x20 DUP2 ADD DUP8 SWAP1 MSTORE PUSH1 0x1 PUSH1 0x1 PUSH1 0xA0 SHL SUB DUP1 DUP12 AND SWAP5 POP DUP10 AND SWAP3 POP PUSH32 0x91DD2CBFD54587F3AEF7D0966C4185FAE943CC4FE9E40877D4D7F2BE4EC46E80 SWAP2 ADD JUMPDEST PUSH1 0x40 MLOAD DUP1 SWAP2 SUB SWAP1 LOG3 POP POP POP POP POP POP JUMP JUMPDEST PUSH2 0x412 PUSH2 0xE1F JUMP JUMPDEST PUSH2 0x41A PUSH2 0xE4C JUMP JUMPDEST JUMP JUMPDEST PUSH2 0x424 PUSH2 0xA92 JUMP JUMPDEST PUSH1 0x40 MLOAD PUSH4 0x4D240DB9 PUSH1 0xE0 SHL DUP2 MSTORE PUSH1 0x4 DUP2 ADD DUP6 SWAP1 MSTORE PUSH32 0x0 PUSH1 0x1 PUSH1 0x1 PUSH1 0xA0 SHL SUB AND SWAP1 PUSH4 0x4D240DB9 SWAP1 PUSH1 0x24 ADD PUSH1 0x20 PUSH1 0x40 MLOAD DUP1 DUP4 SUB DUP2 DUP7 GAS STATICCALL ISZERO DUP1 ISZERO PUSH2 0x489 JUMPI RETURNDATASIZE PUSH1 0x0 DUP1 RETURNDATACOPY RETURNDATASIZE PUSH1 0x0 REVERT JUMPDEST POP POP POP POP PUSH1 0x40 MLOAD RETURNDATASIZE PUSH1 0x1F NOT PUSH1 0x1F DUP3 ADD AND DUP3 ADD DUP1 PUSH1 0x40 MSTORE POP DUP2 ADD SWAP1 PUSH2 0x4AD SWAP2 SWAP1 PUSH2 0x13E3 JUMP JUMPDEST PUSH2 0x4EF JUMPI PUSH1 0x40 MLOAD PUSH3 0x461BCD PUSH1 0xE5 SHL DUP2 MSTORE PUSH1 0x20 PUSH1 0x4 DUP3 ADD MSTORE PUSH1 0x13 PUSH1 0x24 DUP3 ADD MSTORE PUSH19 0x19195CDD0818DA185A5B88191A5CD8589B1959 PUSH1 0x6A SHL PUSH1 0x44 DUP3 ADD MSTORE PUSH1 0x64 ADD PUSH2 0x328 JUMP JUMPDEST PUSH1 0x0 PUSH1 0x2 PUSH1 0x0 DUP2 SLOAD PUSH2 0x500 SWAP1 PUSH2 0x141B JUMP JUMPDEST SWAP2 SWAP1 POP DUP2 SWAP1 SSTORE SWAP1 POP DUP4 PUSH1 0x1 PUSH1 0x1 PUSH1 0xA0 SHL SUB AND CALLER PUSH1 0x1 PUSH1 0x1 PUSH1 0xA0 SHL SUB AND PUSH32 0xCD8CE8338185ABF04E651317F7A19FE6398D3A8E6FA4CDC710666DC3F2D7EB47 DUP8 DUP7 DUP7 CALLVALUE DUP8 PUSH1 0x40 MLOAD PUSH2 0x553 SWAP6 SWAP5 SWAP4 SWAP3 SWAP2 SWAP1 PUSH2 0x145D JUMP JUMPDEST PUSH1 0x40 MLOAD DUP1 SWAP2 SUB SWAP1 LOG3 POP POP POP POP POP JUMP JUMPDEST PUSH2 0x56A PUSH2 0xE1F JUMP JUMPDEST PUSH2 0x41A PUSH1 0x0 PUSH2 0xEA1 JUMP JUMPDEST PUSH2 0x57C PUSH2 0xE1F JUMP JUMPDEST PUSH2 0x41A PUSH2 0xEF1 JUMP JUMPDEST PUSH2 0x58C PUSH2 0xA92 JUMP JUMPDEST PUSH1 0x0 DUP4 DUP2 MSTORE PUSH1 0x1 PUSH1 0x20 MSTORE PUSH1 0x40 SWAP1 KECCAK256 SLOAD PUSH1 0xFF AND ISZERO PUSH2 0x5D8 JUMPI PUSH1 0x40 MLOAD PUSH3 0x461BCD PUSH1 0xE5 SHL DUP2 MSTORE PUSH1 0x20 PUSH1 0x4 DUP3 ADD MSTORE PUSH1 0xA PUSH1 0x24 DUP3 ADD MSTORE PUSH10 0x1C1C9BDBD9881D5CD959 PUSH1 0xB2 SHL PUSH1 0x44 DUP3 ADD MSTORE PUSH1 0x64 ADD PUSH2 0x328 JUMP JUMPDEST PUSH1 0x0 PUSH2 0x621 PUSH1 0x0 DUP12 CHAINID DUP13 DUP13 DUP13 DUP13 DUP1 DUP1 PUSH1 0x1F ADD PUSH1 0x20 DUP1 SWAP2 DIV MUL PUSH1 0x20 ADD PUSH1 0x40 MLOAD SWAP1 DUP2 ADD PUSH1 0x40 MSTORE DUP1 SWAP4 SWAP3 SWAP2 SWAP1 DUP2 DUP2 MSTORE PUSH1 0x20 ADD DUP4 DUP4 DUP1 DUP3 DUP5 CALLDATACOPY PUSH1 0x0 SWAP3 ADD SWAP2 SWAP1 SWAP2 MSTORE POP DUP15 SWAP3 POP PUSH2 0xF34 SWAP2 POP POP JUMP JUMPDEST SWAP1 POP DUP4 DUP2 EQ PUSH2 0x662 JUMPI PUSH1 0x40 MLOAD PUSH3 0x461BCD PUSH1 0xE5 SHL DUP2 MSTORE PUSH1 0x20 PUSH1 0x4 DUP3 ADD MSTORE PUSH1 0xD PUSH1 0x24 DUP3 ADD MSTORE PUSH13 0xD0C2E6D040DAD2E6DAC2E8C6D PUSH1 0x9B SHL PUSH1 0x44 DUP3 ADD MSTORE PUSH1 0x64 ADD PUSH2 0x328 JUMP JUMPDEST PUSH2 0x66D DUP5 DUP5 DUP5 PUSH2 0xABD JUMP JUMPDEST PUSH1 0x0 DUP5 DUP2 MSTORE PUSH1 0x1 PUSH1 0x20 DUP2 SWAP1 MSTORE PUSH1 0x40 DUP1 DUP4 KECCAK256 DUP1 SLOAD PUSH1 0xFF NOT AND SWAP1 SWAP3 OR SWAP1 SWAP2 SSTORE MLOAD PUSH1 0x1 PUSH1 0x1 PUSH1 0xA0 SHL SUB DUP11 AND SWAP1 DUP8 SWAP1 PUSH2 0x6A5 SWAP1 DUP12 SWAP1 DUP12 SWAP1 PUSH2 0x148B JUMP JUMPDEST PUSH1 0x0 PUSH1 0x40 MLOAD DUP1 DUP4 SUB DUP2 DUP6 DUP8 GAS CALL SWAP3 POP POP POP RETURNDATASIZE DUP1 PUSH1 0x0 DUP2 EQ PUSH2 0x6E2 JUMPI PUSH1 0x40 MLOAD SWAP2 POP PUSH1 0x1F NOT PUSH1 0x3F RETURNDATASIZE ADD AND DUP3 ADD PUSH1 0x40 MSTORE RETURNDATASIZE DUP3 MSTORE RETURNDATASIZE PUSH1 0x0 PUSH1 0x20 DUP5 ADD RETURNDATACOPY PUSH2 0x6E7 JUMP JUMPDEST PUSH1 0x60 SWAP2 POP JUMPDEST POP POP SWAP1 POP DUP9 PUSH1 0x1 PUSH1 0x1 PUSH1 0xA0 SHL SUB AND CALLER PUSH1 0x1 PUSH1 0x1 PUSH1 0xA0 SHL SUB AND PUSH32 0xF7C9EB785E43D5AD257A026FD1A3AEF9D7F14F97DAC442B61A63DFF78EFA219A DUP14 DUP12 DUP12 DUP7 PUSH1 0x40 MLOAD PUSH2 0x734 SWAP5 SWAP4 SWAP3 SWAP2 SWAP1 PUSH2 0x149B JUMP JUMPDEST PUSH1 0x40 MLOAD DUP1 SWAP2 SUB SWAP1 LOG3 POP POP POP POP POP POP POP POP POP POP POP JUMP JUMPDEST PUSH2 0x751 PUSH2 0xA92 JUMP JUMPDEST PUSH1 0x40 MLOAD PUSH4 0x4D240DB9 PUSH1 0xE0 SHL DUP2 MSTORE PUSH1 0x4 DUP2 ADD DUP4 SWAP1 MSTORE PUSH32 0x0 PUSH1 0x1 PUSH1 0x1 PUSH1 0xA0 SHL SUB AND SWAP1 PUSH4 0x4D240DB9 SWAP1 PUSH1 0x24 ADD PUSH1 0x20 PUSH1 0x40 MLOAD DUP1 DUP4 SUB DUP2 DUP7 GAS STATICCALL ISZERO DUP1 ISZERO PUSH2 0x7B6 JUMPI RETURNDATASIZE PUSH1 0x0 DUP1 RETURNDATACOPY RETURNDATASIZE PUSH1 0x0 REVERT JUMPDEST POP POP POP POP PUSH1 0x40 MLOAD RETURNDATASIZE PUSH1 0x1F NOT PUSH1 0x1F DUP3 ADD AND DUP3 ADD DUP1 PUSH1 0x40 MSTORE POP DUP2 ADD SWAP1 PUSH2 0x7DA SWAP2 SWAP1 PUSH2 0x13E3 JUMP JUMPDEST PUSH2 0x81C JUMPI PUSH1 0x40 MLOAD PUSH3 0x461BCD PUSH1 0xE5 SHL DUP2 MSTORE PUSH1 0x20 PUSH1 0x4 DUP3 ADD MSTORE PUSH1 0x13 PUSH1 0x24 DUP3 ADD MSTORE PUSH19 0x19195CDD0818DA185A5B88191A5CD8589B1959 PUSH1 0x6A SHL PUSH1 0x44 DUP3 ADD MSTORE PUSH1 0x64 ADD PUSH2 0x328 JUMP JUMPDEST PUSH1 0x40 MLOAD PUSH4 0xBC9DAD1 PUSH1 0xE0 SHL DUP2 MSTORE PUSH1 0x4 DUP2 ADD DUP4 SWAP1 MSTORE PUSH1 0x1 PUSH1 0x1 PUSH1 0xA0 SHL SUB DUP6 DUP2 AND PUSH1 0x24 DUP4 ADD MSTORE PUSH32 0x0 AND SWAP1 PUSH4 0xBC9DAD1 SWAP1 PUSH1 0x44 ADD PUSH1 0x20 PUSH1 0x40 MLOAD DUP1 DUP4 SUB DUP2 DUP7 GAS STATICCALL ISZERO DUP1 ISZERO PUSH2 0x889 JUMPI RETURNDATASIZE PUSH1 0x0 DUP1 RETURNDATACOPY RETURNDATASIZE PUSH1 0x0 REVERT JUMPDEST POP POP POP POP PUSH1 0x40 MLOAD RETURNDATASIZE PUSH1 0x1F NOT PUSH1 0x1F DUP3 ADD AND DUP3 ADD DUP1 PUSH1 0x40 MSTORE POP DUP2 ADD SWAP1 PUSH2 0x8AD SWAP2 SWAP1 PUSH2 0x13E3 JUMP JUMPDEST PUSH2 0x8ED JUMPI PUSH1 0x40 MLOAD PUSH3 0x461BCD PUSH1 0xE5 SHL DUP2 MSTORE PUSH1 0x20 PUSH1 0x4 DUP3 ADD MSTORE PUSH1 0x11 PUSH1 0x24 DUP3 ADD MSTORE PUSH17 0x1D1BDAD95B881B9BDD08185B1B1BDDD959 PUSH1 0x7A SHL PUSH1 0x44 DUP3 ADD MSTORE PUSH1 0x64 ADD PUSH2 0x328 JUMP JUMPDEST PUSH1 0x0 DUP4 GT PUSH2 0x92A JUMPI PUSH1 0x40 MLOAD PUSH3 0x461BCD PUSH1 0xE5 SHL DUP2 MSTORE PUSH1 0x20 PUSH1 0x4 DUP3 ADD MSTORE PUSH1 0xA PUSH1 0x24 DUP3 ADD MSTORE PUSH10 0x616D6F756E74203D203 PUSH1 0xB4 SHL PUSH1 0x44 DUP3 ADD MSTORE PUSH1 0x64 ADD PUSH2 0x328 JUMP JUMPDEST PUSH1 0x40 MLOAD PUSH4 0x23B872DD PUSH1 0xE0 SHL DUP2 MSTORE CALLER PUSH1 0x4 DUP3 ADD MSTORE ADDRESS PUSH1 0x24 DUP3 ADD MSTORE PUSH1 0x44 DUP2 ADD DUP5 SWAP1 MSTORE PUSH1 0x0 SWAP1 PUSH1 0x1 PUSH1 0x1 PUSH1 0xA0 SHL SUB DUP7 AND SWAP1 PUSH4 0x23B872DD SWAP1 PUSH1 0x64 ADD PUSH1 0x20 PUSH1 0x40 MLOAD DUP1 DUP4 SUB DUP2 PUSH1 0x0 DUP8 GAS CALL ISZERO DUP1 ISZERO PUSH2 0x980 JUMPI RETURNDATASIZE PUSH1 0x0 DUP1 RETURNDATACOPY RETURNDATASIZE PUSH1 0x0 REVERT JUMPDEST POP POP POP POP PUSH1 0x40 MLOAD RETURNDATASIZE PUSH1 0x1F NOT PUSH1 0x1F DUP3 ADD AND DUP3 ADD DUP1 PUSH1 0x40 MSTORE POP DUP2 ADD SWAP1 PUSH2 0x9A4 SWAP2 SWAP1 PUSH2 0x13E3 JUMP JUMPDEST SWAP1 POP DUP1 PUSH2 0x9E5 JUMPI PUSH1 0x40 MLOAD PUSH3 0x461BCD PUSH1 0xE5 SHL DUP2 MSTORE PUSH1 0x20 PUSH1 0x4 DUP3 ADD MSTORE PUSH1 0xF PUSH1 0x24 DUP3 ADD MSTORE PUSH15 0x1D1C985B9CD9995C8819985A5B1959 PUSH1 0x8A SHL PUSH1 0x44 DUP3 ADD MSTORE PUSH1 0x64 ADD PUSH2 0x328 JUMP JUMPDEST PUSH1 0x0 PUSH1 0x2 PUSH1 0x0 DUP2 SLOAD PUSH2 0x9F6 SWAP1 PUSH2 0x141B JUMP JUMPDEST SWAP2 DUP3 SWAP1 SSTORE POP PUSH1 0x40 DUP1 MLOAD DUP8 DUP2 MSTORE PUSH1 0x20 DUP2 ADD DUP8 SWAP1 MSTORE PUSH1 0x1 PUSH1 0x1 PUSH1 0xA0 SHL SUB DUP7 DUP2 AND SWAP3 DUP3 ADD SWAP3 SWAP1 SWAP3 MSTORE PUSH1 0x60 DUP2 ADD DUP4 SWAP1 MSTORE SWAP2 SWAP3 POP DUP8 AND SWAP1 CALLER SWAP1 PUSH32 0xE3B6EFBA50A82B66564E76271E9A340AD970FF461DB2A0CE639902C405E59DD SWAP1 PUSH1 0x80 ADD PUSH2 0x3FA JUMP JUMPDEST PUSH2 0xA5C PUSH2 0xE1F JUMP JUMPDEST PUSH1 0x1 PUSH1 0x1 PUSH1 0xA0 SHL SUB DUP2 AND PUSH2 0xA86 JUMPI PUSH1 0x40 MLOAD PUSH4 0x1E4FBDF7 PUSH1 0xE0 SHL DUP2 MSTORE PUSH1 0x0 PUSH1 0x4 DUP3 ADD MSTORE PUSH1 0x24 ADD PUSH2 0x328 JUMP JUMPDEST PUSH2 0xA8F DUP2 PUSH2 0xEA1 JUMP JUMPDEST POP JUMP JUMPDEST PUSH1 0x0 SLOAD PUSH1 0x1 PUSH1 0xA0 SHL SWAP1 DIV PUSH1 0xFF AND ISZERO PUSH2 0x41A JUMPI PUSH1 0x40 MLOAD PUSH4 0xD93C0665 PUSH1 0xE0 SHL DUP2 MSTORE PUSH1 0x4 ADD PUSH1 0x40 MLOAD DUP1 SWAP2 SUB SWAP1 REVERT JUMPDEST PUSH1 0x0 PUSH32 0x0 PUSH1 0x1 PUSH1 0x1 PUSH1 0xA0 SHL SUB AND PUSH4 0xA82F2E26 PUSH1 0x40 MLOAD DUP2 PUSH4 0xFFFFFFFF AND PUSH1 0xE0 SHL DUP2 MSTORE PUSH1 0x4 ADD PUSH1 0x20 PUSH1 0x40 MLOAD DUP1 DUP4 SUB DUP2 DUP7 GAS STATICCALL ISZERO DUP1 ISZERO PUSH2 0xB1D JUMPI RETURNDATASIZE PUSH1 0x0 DUP1 RETURNDATACOPY RETURNDATASIZE PUSH1 0x0 REVERT JUMPDEST POP POP POP POP PUSH1 0x40 MLOAD RETURNDATASIZE PUSH1 0x1F NOT PUSH1 0x1F DUP3 ADD AND DUP3 ADD DUP1 PUSH1 0x40 MSTORE POP DUP2 ADD SWAP1 PUSH2 0xB41 SWAP2 SWAP1 PUSH2 0x14C8 JUMP JUMPDEST SWAP1 POP PUSH1 0x0 DUP2 GT PUSH2 0xB81 JUMPI PUSH1 0x40 MLOAD PUSH3 0x461BCD PUSH1 0xE5 SHL DUP2 MSTORE PUSH1 0x20 PUSH1 0x4 DUP3 ADD MSTORE PUSH1 0xB PUSH1 0x24 DUP3 ADD MSTORE PUSH11 0x7468726573686F6C643D3 PUSH1 0xAC SHL PUSH1 0x44 DUP3 ADD MSTORE PUSH1 0x64 ADD PUSH2 0x328 JUMP JUMPDEST DUP1 DUP3 LT ISZERO PUSH2 0xBC9 JUMPI PUSH1 0x40 MLOAD PUSH3 0x461BCD PUSH1 0xE5 SHL DUP2 MSTORE PUSH1 0x20 PUSH1 0x4 DUP3 ADD MSTORE PUSH1 0x15 PUSH1 0x24 DUP3 ADD MSTORE PUSH21 0x6E6F7420656E6F756768207369676E617475726573 PUSH1 0x58 SHL PUSH1 0x44 DUP3 ADD MSTORE PUSH1 0x64 ADD PUSH2 0x328 JUMP JUMPDEST PUSH1 0x0 DUP3 PUSH8 0xFFFFFFFFFFFFFFFF DUP2 GT ISZERO PUSH2 0xBE4 JUMPI PUSH2 0xBE4 PUSH2 0x14E1 JUMP JUMPDEST PUSH1 0x40 MLOAD SWAP1 DUP1 DUP3 MSTORE DUP1 PUSH1 0x20 MUL PUSH1 0x20 ADD DUP3 ADD PUSH1 0x40 MSTORE DUP1 ISZERO PUSH2 0xC0D JUMPI DUP2 PUSH1 0x20 ADD PUSH1 0x20 DUP3 MUL DUP1 CALLDATASIZE DUP4 CALLDATACOPY ADD SWAP1 POP JUMPDEST POP SWAP1 POP PUSH1 0x0 JUMPDEST DUP3 DUP2 LT ISZERO PUSH2 0xE17 JUMPI PUSH1 0x0 PUSH2 0xC7F DUP8 DUP8 DUP8 DUP6 DUP2 DUP2 LT PUSH2 0xC33 JUMPI PUSH2 0xC33 PUSH2 0x14F7 JUMP JUMPDEST SWAP1 POP PUSH1 0x20 MUL DUP2 ADD SWAP1 PUSH2 0xC45 SWAP2 SWAP1 PUSH2 0x150D JUMP JUMPDEST DUP1 DUP1 PUSH1 0x1F ADD PUSH1 0x20 DUP1 SWAP2 DIV MUL PUSH1 0x20 ADD PUSH1 0x40 MLOAD SWAP1 DUP2 ADD PUSH1 0x40 MSTORE DUP1 SWAP4 SWAP3 SWAP2 SWAP1 DUP2 DUP2 MSTORE PUSH1 0x20 ADD DUP4 DUP4 DUP1 DUP3 DUP5 CALLDATACOPY PUSH1 0x0 SWAP3 ADD SWAP2 SWAP1 SWAP2 MSTORE POP PUSH2 0xFC2 SWAP3 POP POP POP JUMP JUMPDEST PUSH1 0x40 MLOAD PUSH4 0xA83AAA9 PUSH1 0xE3 SHL DUP2 MSTORE PUSH1 0x1 PUSH1 0x1 PUSH1 0xA0 SHL SUB DUP1 DUP4 AND PUSH1 0x4 DUP4 ADD MSTORE SWAP2 SWAP3 POP PUSH32 0x0 SWAP1 SWAP2 AND SWAP1 PUSH4 0x541D5548 SWAP1 PUSH1 0x24 ADD PUSH1 0x20 PUSH1 0x40 MLOAD DUP1 DUP4 SUB DUP2 DUP7 GAS STATICCALL ISZERO DUP1 ISZERO PUSH2 0xCEA JUMPI RETURNDATASIZE PUSH1 0x0 DUP1 RETURNDATACOPY RETURNDATASIZE PUSH1 0x0 REVERT JUMPDEST POP POP POP POP PUSH1 0x40 MLOAD RETURNDATASIZE PUSH1 0x1F NOT PUSH1 0x1F DUP3 ADD AND DUP3 ADD DUP1 PUSH1 0x40 MSTORE POP DUP2 ADD SWAP1 PUSH2 0xD0E SWAP2 SWAP1 PUSH2 0x13E3 JUMP JUMPDEST PUSH2 0xD4B JUMPI PUSH1 0x40 MLOAD PUSH3 0x461BCD PUSH1 0xE5 SHL DUP2 MSTORE PUSH1 0x20 PUSH1 0x4 DUP3 ADD MSTORE PUSH1 0xE PUSH1 0x24 DUP3 ADD MSTORE PUSH14 0x34B73B30B634B21039B4B3B732B9 PUSH1 0x91 SHL PUSH1 0x44 DUP3 ADD MSTORE PUSH1 0x64 ADD PUSH2 0x328 JUMP JUMPDEST PUSH1 0x0 JUMPDEST DUP3 DUP2 LT ISZERO PUSH2 0xDD8 JUMPI DUP2 PUSH1 0x1 PUSH1 0x1 PUSH1 0xA0 SHL SUB AND DUP5 DUP3 DUP2 MLOAD DUP2 LT PUSH2 0xD72 JUMPI PUSH2 0xD72 PUSH2 0x14F7 JUMP JUMPDEST PUSH1 0x20 MUL PUSH1 0x20 ADD ADD MLOAD PUSH1 0x1 PUSH1 0x1 PUSH1 0xA0 SHL SUB AND SUB PUSH2 0xDC6 JUMPI PUSH1 0x40 MLOAD PUSH3 0x461BCD PUSH1 0xE5 SHL DUP2 MSTORE PUSH1 0x20 PUSH1 0x4 DUP3 ADD MSTORE PUSH1 0x13 PUSH1 0x24 DUP3 ADD MSTORE PUSH19 0x6475706C6963617465207369676E6174757265 PUSH1 0x68 SHL PUSH1 0x44 DUP3 ADD MSTORE PUSH1 0x64 ADD PUSH2 0x328 JUMP JUMPDEST DUP1 PUSH2 0xDD0 DUP2 PUSH2 0x141B JUMP JUMPDEST SWAP2 POP POP PUSH2 0xD4E JUMP JUMPDEST POP DUP1 DUP4 DUP4 DUP2 MLOAD DUP2 LT PUSH2 0xDEC JUMPI PUSH2 0xDEC PUSH2 0x14F7 JUMP JUMPDEST PUSH1 0x1 PUSH1 0x1 PUSH1 0xA0 SHL SUB SWAP1 SWAP3 AND PUSH1 0x20 SWAP3 DUP4 MUL SWAP2 SWAP1 SWAP2 ADD SWAP1 SWAP2 ADD MSTORE POP DUP1 PUSH2 0xE0F DUP2 PUSH2 0x141B JUMP JUMPDEST SWAP2 POP POP PUSH2 0xC13 JUMP JUMPDEST POP POP POP POP POP POP JUMP JUMPDEST PUSH1 0x0 SLOAD PUSH1 0x1 PUSH1 0x1 PUSH1 0xA0 SHL SUB AND CALLER EQ PUSH2 0x41A JUMPI PUSH1 0x40 MLOAD PUSH4 0x118CDAA7 PUSH1 0xE0 SHL DUP2 MSTORE CALLER PUSH1 0x4 DUP3 ADD MSTORE PUSH1 0x24 ADD PUSH2 0x328 JUMP JUMPDEST PUSH2 0xE54 PUSH2 0x1092 JUMP JUMPDEST PUSH1 0x0 DUP1 SLOAD PUSH1 0xFF PUSH1 0xA0 SHL NOT AND SWAP1 SSTORE PUSH32 0x5DB9EE0A495BF2E6FF9C91A7834C1BA4FDD244A5E8AA4E537BD38AEAE4B073AA CALLER JUMPDEST PUSH1 0x40 MLOAD PUSH1 0x1 PUSH1 0x1 PUSH1 0xA0 SHL SUB SWAP1 SWAP2 AND DUP2 MSTORE PUSH1 0x20 ADD PUSH1 0x40 MLOAD DUP1 SWAP2 SUB SWAP1 LOG1 JUMP JUMPDEST PUSH1 0x0 DUP1 SLOAD PUSH1 0x1 PUSH1 0x1 PUSH1 0xA0 SHL SUB DUP4 DUP2 AND PUSH1 0x1 PUSH1 0x1 PUSH1 0xA0 SHL SUB NOT DUP4 AND DUP2 OR DUP5 SSTORE PUSH1 0x40 MLOAD SWAP2 SWAP1 SWAP3 AND SWAP3 DUP4 SWAP2 PUSH32 0x8BE0079C531659141344CD1FD0A4F28419497F9722A3DAAFE3B4186F6B6457E0 SWAP2 SWAP1 LOG3 POP POP JUMP JUMPDEST PUSH2 0xEF9 PUSH2 0xA92 JUMP JUMPDEST PUSH1 0x0 DUP1 SLOAD PUSH1 0xFF PUSH1 0xA0 SHL NOT AND PUSH1 0x1 PUSH1 0xA0 SHL OR SWAP1 SSTORE PUSH32 0x62E78CEA01BEE320CD4E420270B5EA74000D11B0C9F74754EBDBFC544B05A258 PUSH2 0xE84 CALLER SWAP1 JUMP JUMPDEST DUP2 MLOAD PUSH1 0x20 SWAP3 DUP4 ADD KECCAK256 PUSH1 0x40 DUP1 MLOAD PUSH32 0xB6AB791F8292804E6F5ECB0F038D273A21DF79EB5C2EDC9297B0C1E983A6324E DUP2 DUP7 ADD MSTORE DUP1 DUP3 ADD SWAP10 SWAP1 SWAP10 MSTORE PUSH1 0x60 DUP10 ADD SWAP8 SWAP1 SWAP8 MSTORE PUSH1 0x80 DUP9 ADD SWAP6 SWAP1 SWAP6 MSTORE PUSH1 0x1 PUSH1 0x1 PUSH1 0xA0 SHL SUB SWAP4 DUP5 AND PUSH1 0xA0 DUP9 ADD MSTORE SWAP2 SWAP1 SWAP3 AND PUSH1 0xC0 DUP7 ADD MSTORE PUSH1 0xE0 DUP6 ADD SWAP3 SWAP1 SWAP3 MSTORE PUSH2 0x100 DUP1 DUP6 ADD SWAP3 SWAP1 SWAP3 MSTORE DUP3 MLOAD DUP1 DUP6 SUB SWAP1 SWAP3 ADD DUP3 MSTORE PUSH2 0x120 SWAP1 SWAP4 ADD SWAP1 SWAP2 MSTORE DUP1 MLOAD SWAP2 ADD KECCAK256 SWAP1 JUMP JUMPDEST PUSH1 0x40 MLOAD PUSH32 0x19457468657265756D205369676E6564204D6573736167653A0A333200000000 PUSH1 0x20 DUP3 ADD MSTORE PUSH1 0x3C DUP2 ADD DUP4 SWAP1 MSTORE PUSH1 0x0 SWAP1 DUP2 SWAP1 PUSH1 0x5C ADD PUSH1 0x40 MLOAD PUSH1 0x20 DUP2 DUP4 SUB SUB DUP2 MSTORE SWAP1 PUSH1 0x40 MSTORE DUP1 MLOAD SWAP1 PUSH1 0x20 ADD KECCAK256 SWAP1 POP PUSH1 0x0 DUP1 PUSH1 0x0 PUSH2 0x1020 DUP7 PUSH2 0x10BC JUMP JUMPDEST PUSH1 0x40 DUP1 MLOAD PUSH1 0x0 DUP2 MSTORE PUSH1 0x20 DUP2 ADD DUP1 DUP4 MSTORE DUP10 SWAP1 MSTORE PUSH1 0xFF DUP4 AND SWAP2 DUP2 ADD SWAP2 SWAP1 SWAP2 MSTORE PUSH1 0x60 DUP2 ADD DUP5 SWAP1 MSTORE PUSH1 0x80 DUP2 ADD DUP4 SWAP1 MSTORE SWAP3 SWAP6 POP SWAP1 SWAP4 POP SWAP2 POP PUSH1 0x1 SWAP1 PUSH1 0xA0 ADD PUSH1 0x20 PUSH1 0x40 MLOAD PUSH1 0x20 DUP2 SUB SWAP1 DUP1 DUP5 SUB SWAP1 DUP6 GAS STATICCALL ISZERO DUP1 ISZERO PUSH2 0x107B JUMPI RETURNDATASIZE PUSH1 0x0 DUP1 RETURNDATACOPY RETURNDATASIZE PUSH1 0x0 REVERT JUMPDEST POP POP POP PUSH1 0x20 PUSH1 0x40 MLOAD SUB MLOAD SWAP5 POP POP POP POP POP JUMPDEST SWAP3 SWAP2 POP POP JUMP JUMPDEST PUSH1 0x0 SLOAD PUSH1 0x1 PUSH1 0xA0 SHL SWAP1 DIV PUSH1 0xFF AND PUSH2 0x41A JUMPI PUSH1 0x40 MLOAD PUSH4 0x8DFC202B PUSH1 0xE0 SHL DUP2 MSTORE PUSH1 0x4 ADD PUSH1 0x40 MLOAD DUP1 SWAP2 SUB SWAP1 REVERT JUMPDEST PUSH1 0x0 DUP1 PUSH1 0x0 DUP4 MLOAD PUSH1 0x41 EQ PUSH2 0x1103 JUMPI PUSH1 0x40 MLOAD PUSH3 0x461BCD PUSH1 0xE5 SHL DUP2 MSTORE PUSH1 0x20 PUSH1 0x4 DUP3 ADD MSTORE PUSH1 0xE PUSH1 0x24 DUP3 ADD MSTORE PUSH14 0xC4C2C840E6D2CE40D8CADCCEE8D PUSH1 0x93 SHL PUSH1 0x44 DUP3 ADD MSTORE PUSH1 0x64 ADD PUSH2 0x328 JUMP JUMPDEST POP POP POP PUSH1 0x20 DUP2 ADD MLOAD PUSH1 0x40 DUP3 ADD MLOAD PUSH1 0x60 DUP4 ADD MLOAD PUSH1 0x0 BYTE PUSH1 0x1B DUP2 LT ISZERO PUSH2 0x112F JUMPI PUSH2 0x112C PUSH1 0x1B DUP3 PUSH2 0x1554 JUMP JUMPDEST SWAP1 POP JUMPDEST SWAP2 SWAP4 SWAP1 SWAP3 POP JUMP JUMPDEST DUP1 CALLDATALOAD PUSH1 0x1 PUSH1 0x1 PUSH1 0xA0 SHL SUB DUP2 AND DUP2 EQ PUSH2 0x114D JUMPI PUSH1 0x0 DUP1 REVERT JUMPDEST SWAP2 SWAP1 POP JUMP JUMPDEST PUSH1 0x0 DUP1 DUP4 PUSH1 0x1F DUP5 ADD SLT PUSH2 0x1164 JUMPI PUSH1 0x0 DUP1 REVERT JUMPDEST POP DUP2 CALLDATALOAD PUSH8 0xFFFFFFFFFFFFFFFF DUP2 GT ISZERO PUSH2 0x117C JUMPI PUSH1 0x0 DUP1 REVERT JUMPDEST PUSH1 0x20 DUP4 ADD SWAP2 POP DUP4 PUSH1 0x20 DUP3 PUSH1 0x5 SHL DUP6 ADD ADD GT ISZERO PUSH2 0x1197 JUMPI PUSH1 0x0 DUP1 REVERT JUMPDEST SWAP3 POP SWAP3 SWAP1 POP JUMP JUMPDEST PUSH1 0x0 DUP1 PUSH1 0x0 DUP1 PUSH1 0x0 DUP1 PUSH1 0xA0 DUP8 DUP10 SUB SLT ISZERO PUSH2 0x11B7 JUMPI PUSH1 0x0 DUP1 REVERT JUMPDEST PUSH2 0x11C0 DUP8 PUSH2 0x1136 JUMP JUMPDEST SWAP6 POP PUSH2 0x11CE PUSH1 0x20 DUP9 ADD PUSH2 0x1136 JUMP JUMPDEST SWAP5 POP PUSH1 0x40 DUP8 ADD CALLDATALOAD SWAP4 POP PUSH1 0x60 DUP8 ADD CALLDATALOAD SWAP3 POP PUSH1 0x80 DUP8 ADD CALLDATALOAD PUSH8 0xFFFFFFFFFFFFFFFF DUP2 GT ISZERO PUSH2 0x11F8 JUMPI PUSH1 0x0 DUP1 REVERT JUMPDEST PUSH2 0x1204 DUP10 DUP3 DUP11 ADD PUSH2 0x1152 JUMP JUMPDEST SWAP8 SWAP11 SWAP7 SWAP10 POP SWAP5 SWAP8 POP SWAP3 SWAP6 SWAP4 SWAP5 SWAP3 POP POP POP JUMP JUMPDEST PUSH1 0x0 DUP1 DUP4 PUSH1 0x1F DUP5 ADD SLT PUSH2 0x1228 JUMPI PUSH1 0x0 DUP1 REVERT JUMPDEST POP DUP2 CALLDATALOAD PUSH8 0xFFFFFFFFFFFFFFFF DUP2 GT ISZERO PUSH2 0x1240 JUMPI PUSH1 0x0 DUP1 REVERT JUMPDEST PUSH1 0x20 DUP4 ADD SWAP2 POP DUP4 PUSH1 0x20 DUP3 DUP6 ADD ADD GT ISZERO PUSH2 0x1197 JUMPI PUSH1 0x0 DUP1 REVERT JUMPDEST PUSH1 0x0 DUP1 PUSH1 0x0 DUP1 PUSH1 0x60 DUP6 DUP8 SUB SLT ISZERO PUSH2 0x126E JUMPI PUSH1 0x0 DUP1 REVERT JUMPDEST DUP5 CALLDATALOAD SWAP4 POP PUSH2 0x127E PUSH1 0x20 DUP7 ADD PUSH2 0x1136 JUMP JUMPDEST SWAP3 POP PUSH1 0x40 DUP6 ADD CALLDATALOAD PUSH8 0xFFFFFFFFFFFFFFFF DUP2 GT ISZERO PUSH2 0x129A JUMPI PUSH1 0x0 DUP1 REVERT JUMPDEST PUSH2 0x12A6 DUP8 DUP3 DUP9 ADD PUSH2 0x1216 JUMP JUMPDEST SWAP6 SWAP9 SWAP5 SWAP8 POP SWAP6 POP POP POP POP JUMP JUMPDEST PUSH1 0x0 DUP1 PUSH1 0x0 DUP1 PUSH1 0x0 DUP1 PUSH1 0x0 DUP1 PUSH1 0x0 PUSH1 0xE0 DUP11 DUP13 SUB SLT ISZERO PUSH2 0x12D0 JUMPI PUSH1 0x0 DUP1 REVERT JUMPDEST DUP10 CALLDATALOAD SWAP9 POP PUSH2 0x12E0 PUSH1 0x20 DUP12 ADD PUSH2 0x1136 JUMP JUMPDEST SWAP8 POP PUSH2 0x12EE PUSH1 0x40 DUP12 ADD PUSH2 0x1136 JUMP JUMPDEST SWAP7 POP PUSH1 0x60 DUP11 ADD CALLDATALOAD PUSH8 0xFFFFFFFFFFFFFFFF DUP1 DUP3 GT ISZERO PUSH2 0x130B JUMPI PUSH1 0x0 DUP1 REVERT JUMPDEST PUSH2 0x1317 DUP14 DUP4 DUP15 ADD PUSH2 0x1216 JUMP JUMPDEST SWAP1 SWAP9 POP SWAP7 POP PUSH1 0x80 DUP13 ADD CALLDATALOAD SWAP6 POP PUSH1 0xA0 DUP13 ADD CALLDATALOAD SWAP5 POP PUSH1 0xC0 DUP13 ADD CALLDATALOAD SWAP2 POP DUP1 DUP3 GT ISZERO PUSH2 0x133E JUMPI PUSH1 0x0 DUP1 REVERT JUMPDEST POP PUSH2 0x134B DUP13 DUP3 DUP14 ADD PUSH2 0x1152 JUMP JUMPDEST SWAP2 POP DUP1 SWAP4 POP POP DUP1 SWAP2 POP POP SWAP3 SWAP6 SWAP9 POP SWAP3 SWAP6 SWAP9 POP SWAP3 SWAP6 SWAP9 JUMP JUMPDEST PUSH1 0x0 PUSH1 0x20 DUP3 DUP5 SUB SLT ISZERO PUSH2 0x1374 JUMPI PUSH1 0x0 DUP1 REVERT JUMPDEST POP CALLDATALOAD SWAP2 SWAP1 POP JUMP JUMPDEST PUSH1 0x0 DUP1 PUSH1 0x0 DUP1 PUSH1 0x80 DUP6 DUP8 SUB SLT ISZERO PUSH2 0x1391 JUMPI PUSH1 0x0 DUP1 REVERT JUMPDEST PUSH2 0x139A DUP6 PUSH2 0x1136 JUMP JUMPDEST SWAP4 POP PUSH1 0x20 DUP6 ADD CALLDATALOAD SWAP3 POP PUSH1 0x40 DUP6 ADD CALLDATALOAD SWAP2 POP PUSH2 0x13B6 PUSH1 0x60 DUP7 ADD PUSH2 0x1136 JUMP JUMPDEST SWAP1 POP SWAP3 SWAP6 SWAP2 SWAP5 POP SWAP3 POP JUMP JUMPDEST PUSH1 0x0 PUSH1 0x20 DUP3 DUP5 SUB SLT ISZERO PUSH2 0x13D3 JUMPI PUSH1 0x0 DUP1 REVERT JUMPDEST PUSH2 0x13DC DUP3 PUSH2 0x1136 JUMP JUMPDEST SWAP4 SWAP3 POP POP POP JUMP JUMPDEST PUSH1 0x0 PUSH1 0x20 DUP3 DUP5 SUB SLT ISZERO PUSH2 0x13F5 JUMPI PUSH1 0x0 DUP1 REVERT JUMPDEST DUP2 MLOAD DUP1 ISZERO ISZERO DUP2 EQ PUSH2 0x13DC JUMPI PUSH1 0x0 DUP1 REVERT JUMPDEST PUSH4 0x4E487B71 PUSH1 0xE0 SHL PUSH1 0x0 MSTORE PUSH1 0x11 PUSH1 0x4 MSTORE PUSH1 0x24 PUSH1 0x0 REVERT JUMPDEST PUSH1 0x0 PUSH1 0x1 DUP3 ADD PUSH2 0x142D JUMPI PUSH2 0x142D PUSH2 0x1405 JUMP JUMPDEST POP PUSH1 0x1 ADD SWAP1 JUMP JUMPDEST DUP2 DUP4 MSTORE DUP2 DUP2 PUSH1 0x20 DUP6 ADD CALLDATACOPY POP PUSH1 0x0 DUP3 DUP3 ADD PUSH1 0x20 SWAP1 DUP2 ADD SWAP2 SWAP1 SWAP2 MSTORE PUSH1 0x1F SWAP1 SWAP2 ADD PUSH1 0x1F NOT AND SWAP1 SWAP2 ADD ADD SWAP1 JUMP JUMPDEST DUP6 DUP2 MSTORE PUSH1 0x80 PUSH1 0x20 DUP3 ADD MSTORE PUSH1 0x0 PUSH2 0x1477 PUSH1 0x80 DUP4 ADD DUP7 DUP9 PUSH2 0x1434 JUMP JUMPDEST PUSH1 0x40 DUP4 ADD SWAP5 SWAP1 SWAP5 MSTORE POP PUSH1 0x60 ADD MSTORE SWAP4 SWAP3 POP POP POP JUMP JUMPDEST DUP2 DUP4 DUP3 CALLDATACOPY PUSH1 0x0 SWAP2 ADD SWAP1 DUP2 MSTORE SWAP2 SWAP1 POP JUMP JUMPDEST DUP5 DUP2 MSTORE PUSH1 0x60 PUSH1 0x20 DUP3 ADD MSTORE PUSH1 0x0 PUSH2 0x14B5 PUSH1 0x60 DUP4 ADD DUP6 DUP8 PUSH2 0x1434 JUMP JUMPDEST SWAP1 POP DUP3 ISZERO ISZERO PUSH1 0x40 DUP4 ADD MSTORE SWAP6 SWAP5 POP POP POP POP POP JUMP JUMPDEST PUSH1 0x0 PUSH1 0x20 DUP3 DUP5 SUB SLT ISZERO PUSH2 0x14DA JUMPI PUSH1 0x0 DUP1 REVERT JUMPDEST POP MLOAD SWAP2 SWAP1 POP JUMP JUMPDEST PUSH4 0x4E487B71 PUSH1 0xE0 SHL PUSH1 0x0 MSTORE PUSH1 0x41 PUSH1 0x4 MSTORE PUSH1 0x24 PUSH1 0x0 REVERT JUMPDEST PUSH4 0x4E487B71 PUSH1 0xE0 SHL PUSH1 0x0 MSTORE PUSH1 0x32 PUSH1 0x4 MSTORE PUSH1 0x24 PUSH1 0x0 REVERT JUMPDEST PUSH1 0x0 DUP1 DUP4 CALLDATALOAD PUSH1 0x1E NOT DUP5 CALLDATASIZE SUB ADD DUP2 SLT PUSH2 0x1524 JUMPI PUSH1 0x0 DUP1 REVERT JUMPDEST DUP4 ADD DUP1 CALLDATALOAD SWAP2 POP PUSH8 0xFFFFFFFFFFFFFFFF DUP3 GT ISZERO PUSH2 0x153F JUMPI PUSH1 0x0 DUP1 REVERT JUMPDEST PUSH1 0x20 ADD SWAP2 POP CALLDATASIZE DUP2 SWAP1 SUB DUP3 SGT ISZERO PUSH2 0x1197 JUMPI PUSH1 0x0 DUP1 REVERT JUMPDEST PUSH1 0xFF DUP2 DUP2 AND DUP4 DUP3 AND ADD SWAP1 DUP2 GT ISZERO PUSH2 0x108C JUMPI PUSH2 0x108C PUSH2 0x1405 JUMP INVALID LOG2 PUSH5 0x6970667358 0x22 SLT KECCAK256 0xDF MSTORE8 0x29 0xAD DELEGATECALL GASPRICE 0xD 0xB0 DELEGATECALL EXP GT SWAP12 MSTORE8 PUSH25 0xB94B5BC6420A1A380EEAEBFD8D77771329AC64736F6C634300 ADDMOD EQ STOP CALLER "},"methodIdentifiers":{"bridgeToken(address,uint256,uint256,address)":"ceefd62c","executeMessage(uint256,address,address,bytes,uint256,bytes32,bytes[])":"a0b23305","mintWrapped(address,address,uint256,bytes32,bytes[])":"3ba41430","nonce()":"affed0e0","owner()":"8da5cb5b","pause()":"8456cb59","paused()":"5c975abb","registry()":"7b103999","relayerManager()":"c71d36b3","renounceOwnership()":"715018a6","sendMessage(uint256,address,bytes)":"7056f41f","transferOwnership(address)":"f2fde38b","unpause()":"3f4ba83a","usedProofs(bytes32)":"c30a0f25"}}}}}