{"contracts/bridge/ChainRegistry.sol":{"ChainRegistry":{"abi":[{"inputs":[],"stateMutability":"nonpayable","type":"constructor"},{"inputs":[{"internalType":"address","name":"owner","type":"address"}],"name":"OwnableInvalidOwner","type":"error"},{"inputs":[{"internalType":"address","name":"account","type":"address"}],"name":"OwnableUnauthorizedAccount","type":"error"},{"anonymous":false,"inputs":[{"indexed":true,"internalType":"uint256","name":"chainId","type":"uint256"},{"indexed":false,"internalType":"enum ChainRegistry.ChainKind","name":"kind","type":"uint8"},{"indexed":false,"internalType":"address","name":"gateway","type":"address"},{"indexed":false,"internalType":"bool","name":"enabled","type":"bool"}],"name":"ChainSet","type":"event"},{"anonymous":false,"inputs":[{"indexed":true,"internalType":"address","name":"previousOwner","type":"address"},{"indexed":true,"internalType":"address","name":"newOwner","type":"address"}],"name":"OwnershipTransferred","type":"event"},{"anonymous":false,"inputs":[{"indexed":true,"internalType":"uint256","name":"chainId","type":"uint256"},{"indexed":true,"internalType":"address","name":"token","type":"address"},{"indexed":false,"internalType":"bool","name":"allowed","type":"bool"}],"name":"TokenAllowed","type":"event"},{"inputs":[{"internalType":"uint256","name":"","type":"uint256"},{"internalType":"address","name":"","type":"address"}],"name":"allowedTokens","outputs":[{"internalType":"bool","name":"","type":"bool"}],"stateMutability":"view","type":"function"},{"inputs":[{"internalType":"uint256","name":"","type":"uint256"}],"name":"chains","outputs":[{"internalType":"bool","name":"enabled","type":"bool"},{"internalType":"enum ChainRegistry.ChainKind","name":"kind","type":"uint8"},{"internalType":"address","name":"gateway","type":"address"}],"stateMutability":"view","type":"function"},{"inputs":[{"internalType":"uint256","name":"chainId","type":"uint256"}],"name":"gatewayFor","outputs":[{"internalType":"address","name":"","type":"address"}],"stateMutability":"view","type":"function"},{"inputs":[{"internalType":"uint256","name":"chainId","type":"uint256"}],"name":"isChainEnabled","outputs":[{"internalType":"bool","name":"","type":"bool"}],"stateMutability":"view","type":"function"},{"inputs":[{"internalType":"uint256","name":"chainId","type":"uint256"},{"internalType":"address","name":"token","type":"address"}],"name":"isTokenAllowed","outputs":[{"internalType":"bool","name":"","type":"bool"}],"stateMutability":"view","type":"function"},{"inputs":[{"internalType":"uint256","name":"chainId","type":"uint256"}],"name":"kindOf","outputs":[{"internalType":"enum ChainRegistry.ChainKind","name":"","type":"uint8"}],"stateMutability":"view","type":"function"},{"inputs":[],"name":"owner","outputs":[{"internalType":"address","name":"","type":"address"}],"stateMutability":"view","type":"function"},{"inputs":[],"name":"renounceOwnership","outputs":[],"stateMutability":"nonpayable","type":"function"},{"inputs":[{"internalType":"uint256","name":"chainId","type":"uint256"},{"internalType":"enum ChainRegistry.ChainKind","name":"kind","type":"uint8"},{"internalType":"address","name":"gateway","type":"address"},{"internalType":"bool","name":"enabled","type":"bool"}],"name":"setChain","outputs":[],"stateMutability":"nonpayable","type":"function"},{"inputs":[{"internalType":"uint256","name":"chainId","type":"uint256"},{"internalType":"address","name":"token","type":"address"},{"internalType":"bool","name":"allowed","type":"bool"}],"name":"setTokenAllowed","outputs":[],"stateMutability":"nonpayable","type":"function"},{"inputs":[{"internalType":"address","name":"newOwner","type":"address"}],"name":"transferOwnership","outputs":[],"stateMutability":"nonpayable","type":"function"}],"evm":{"bytecode":{"linkReferences":{},"object":"608060405234801561001057600080fd5b50338061003757604051631e4fbdf760e01b81526000600482015260240160405180910390fd5b61004081610046565b50610096565b600080546001600160a01b038381166001600160a01b0319831681178455604051919092169283917f8be0079c531659141344cd1fd0a4f28419497f9722a3daafe3b4186f6b6457e09190a35050565b6106aa806100a56000396000f3fe608060405234801561001057600080fd5b50600436106100a95760003560e01c8063831c3d1211610071578063831c3d12146101855780638da5cb5b146101cc578063ae08192f146101dd578063d93542931461020b578063eab3c5481461021e578063f2fde38b1461023157600080fd5b80630bc9dad1146100ae5780632345e28c146100d65780634d240db91461010b578063550325b51461012e578063715018a61461017b575b600080fd5b6100c16100bc3660046104cc565b610244565b60405190151581526020015b60405180910390f35b6100fe6100e43660046104f8565b600090815260016020526040902054610100900460ff1690565b6040516100cd9190610549565b6100c16101193660046104f8565b60009081526001602052604090205460ff1690565b61016c61013c3660046104f8565b60016020526000908152604090205460ff808216916101008104909116906201000090046001600160a01b031683565b6040516100cd93929190610557565b610183610271565b005b6101b46101933660046104f8565b6000908152600160205260409020546201000090046001600160a01b031690565b6040516001600160a01b0390911681526020016100cd565b6000546001600160a01b03166101b4565b6100c16101eb3660046104cc565b600260209081526000928352604080842090915290825290205460ff1681565b610183610219366004610596565b610285565b61018361022c3660046105d2565b6102f8565b61018361023f366004610625565b6103f0565b60008281526002602090815260408083206001600160a01b038516845290915290205460ff165b92915050565b610279610433565b6102836000610460565b565b61028d610433565b60008381526002602090815260408083206001600160a01b03861680855290835292819020805460ff1916851515908117909155905190815285917ff1e34412ce3496e281a817cc6d1c1a42b2dae6eb04d080bd1bf5ca8109ee20c8910160405180910390a3505050565b610300610433565b6040518060600160405280821515815260200184600681111561032557610325610511565b81526001600160a01b038416602091820152600086815260018252604090208251815490151560ff19821681178355928401519192839161ff001990911661ffff199091161761010083600681111561038057610380610511565b021790555060409182015181546001600160a01b03909116620100000262010000600160b01b03199091161790555184907f8804015b38ac0926525c927bd337665281e94cd775014fa8933b67e0356b1087906103e290869086908690610647565b60405180910390a250505050565b6103f8610433565b6001600160a01b03811661042757604051631e4fbdf760e01b8152600060048201526024015b60405180910390fd5b61043081610460565b50565b6000546001600160a01b031633146102835760405163118cdaa760e01b815233600482015260240161041e565b600080546001600160a01b038381166001600160a01b0319831681178455604051919092169283917f8be0079c531659141344cd1fd0a4f28419497f9722a3daafe3b4186f6b6457e09190a35050565b80356001600160a01b03811681146104c757600080fd5b919050565b600080604083850312156104df57600080fd5b823591506104ef602084016104b0565b90509250929050565b60006020828403121561050a57600080fd5b5035919050565b634e487b7160e01b600052602160045260246000fd5b6007811061054557634e487b7160e01b600052602160045260246000fd5b9052565b6020810161026b8284610527565b83151581526060810161056d6020830185610527565b6001600160a01b03929092166040919091015292915050565b803580151581146104c757600080fd5b6000806000606084860312156105ab57600080fd5b833592506105bb602085016104b0565b91506105c960408501610586565b90509250925092565b600080600080608085870312156105e857600080fd5b843593506020850135600781106105fe57600080fd5b925061060c604086016104b0565b915061061a60608601610586565b905092959194509250565b60006020828403121561063757600080fd5b610640826104b0565b9392505050565b606081016106558286610527565b6001600160a01b0393909316602082015290151560409091015291905056fea2646970667358221220e14f2381c82065a17e76654912f7f1d11bdf41e9f4fbb4574981a9b4ddb683db64736f6c63430008140033","opcodes":"PUSH1 0x80 PUSH1 0x40 MSTORE CALLVALUE DUP1 ISZERO PUSH2 0x10 JUMPI PUSH1 0x0 DUP1 REVERT JUMPDEST POP CALLER DUP1 PUSH2 0x37 JUMPI PUSH1 0x40 MLOAD PUSH4 0x1E4FBDF7 PUSH1 0xE0 SHL DUP2 MSTORE PUSH1 0x0 PUSH1 0x4 DUP3 ADD MSTORE PUSH1 0x24 ADD PUSH1 0x40 MLOAD DUP1 SWAP2 SUB SWAP1 REVERT JUMPDEST PUSH2 0x40 DUP2 PUSH2 0x46 JUMP JUMPDEST POP PUSH2 0x96 JUMP JUMPDEST PUSH1 0x0 DUP1 SLOAD PUSH1 0x1 PUSH1 0x1 PUSH1 0xA0 SHL SUB DUP4 DUP2 AND PUSH1 0x1 PUSH1 0x1 PUSH1 0xA0 SHL SUB NOT DUP4 AND DUP2 OR DUP5 SSTORE PUSH1 0x40 MLOAD SWAP2 SWAP1 SWAP3 AND SWAP3 DUP4 SWAP2 PUSH32 0x8BE0079C531659141344CD1FD0A4F28419497F9722A3DAAFE3B4186F6B6457E0 SWAP2 SWAP1 LOG3 POP POP JUMP JUMPDEST PUSH2 0x6AA DUP1 PUSH2 0xA5 PUSH1 0x0 CODECOPY PUSH1 0x0 RETURN INVALID PUSH1 0x80 PUSH1 0x40 MSTORE CALLVALUE DUP1 ISZERO PUSH2 0x10 JUMPI PUSH1 0x0 DUP1 REVERT JUMPDEST POP PUSH1 0x4 CALLDATASIZE LT PUSH2 0xA9 JUMPI PUSH1 0x0 CALLDATALOAD PUSH1 0xE0 SHR DUP1 PUSH4 0x831C3D12 GT PUSH2 0x71 JUMPI DUP1 PUSH4 0x831C3D12 EQ PUSH2 0x185 JUMPI DUP1 PUSH4 0x8DA5CB5B EQ PUSH2 0x1CC JUMPI DUP1 PUSH4 0xAE08192F EQ PUSH2 0x1DD JUMPI DUP1 PUSH4 0xD9354293 EQ PUSH2 0x20B JUMPI DUP1 PUSH4 0xEAB3C548 EQ PUSH2 0x21E JUMPI DUP1 PUSH4 0xF2FDE38B EQ PUSH2 0x231 JUMPI PUSH1 0x0 DUP1 REVERT JUMPDEST DUP1 PUSH4 0xBC9DAD1 EQ PUSH2 0xAE JUMPI DUP1 PUSH4 0x2345E28C EQ PUSH2 0xD6 JUMPI DUP1 PUSH4 0x4D240DB9 EQ PUSH2 0x10B JUMPI DUP1 PUSH4 0x550325B5 EQ PUSH2 0x12E JUMPI DUP1 PUSH4 0x715018A6 EQ PUSH2 0x17B JUMPI JUMPDEST PUSH1 0x0 DUP1 REVERT JUMPDEST PUSH2 0xC1 PUSH2 0xBC CALLDATASIZE PUSH1 0x4 PUSH2 0x4CC JUMP JUMPDEST PUSH2 0x244 JUMP JUMPDEST PUSH1 0x40 MLOAD SWAP1 ISZERO ISZERO DUP2 MSTORE PUSH1 0x20 ADD JUMPDEST PUSH1 0x40 MLOAD DUP1 SWAP2 SUB SWAP1 RETURN JUMPDEST PUSH2 0xFE PUSH2 0xE4 CALLDATASIZE PUSH1 0x4 PUSH2 0x4F8 JUMP JUMPDEST PUSH1 0x0 SWAP1 DUP2 MSTORE PUSH1 0x1 PUSH1 0x20 MSTORE PUSH1 0x40 SWAP1 KECCAK256 SLOAD PUSH2 0x100 SWAP1 DIV PUSH1 0xFF AND SWAP1 JUMP JUMPDEST PUSH1 0x40 MLOAD PUSH2 0xCD SWAP2 SWAP1 PUSH2 0x549 JUMP JUMPDEST PUSH2 0xC1 PUSH2 0x119 CALLDATASIZE PUSH1 0x4 PUSH2 0x4F8 JUMP JUMPDEST PUSH1 0x0 SWAP1 DUP2 MSTORE PUSH1 0x1 PUSH1 0x20 MSTORE PUSH1 0x40 SWAP1 KECCAK256 SLOAD PUSH1 0xFF AND SWAP1 JUMP JUMPDEST PUSH2 0x16C PUSH2 0x13C CALLDATASIZE PUSH1 0x4 PUSH2 0x4F8 JUMP JUMPDEST PUSH1 0x1 PUSH1 0x20 MSTORE PUSH1 0x0 SWAP1 DUP2 MSTORE PUSH1 0x40 SWAP1 KECCAK256 SLOAD PUSH1 0xFF DUP1 DUP3 AND SWAP2 PUSH2 0x100 DUP2 DIV SWAP1 SWAP2 AND SWAP1 PUSH3 0x10000 SWAP1 DIV PUSH1 0x1 PUSH1 0x1 PUSH1 0xA0 SHL SUB AND DUP4 JUMP JUMPDEST PUSH1 0x40 MLOAD PUSH2 0xCD SWAP4 SWAP3 SWAP2 SWAP1 PUSH2 0x557 JUMP JUMPDEST PUSH2 0x183 PUSH2 0x271 JUMP JUMPDEST STOP JUMPDEST PUSH2 0x1B4 PUSH2 0x193 CALLDATASIZE PUSH1 0x4 PUSH2 0x4F8 JUMP JUMPDEST PUSH1 0x0 SWAP1 DUP2 MSTORE PUSH1 0x1 PUSH1 0x20 MSTORE PUSH1 0x40 SWAP1 KECCAK256 SLOAD PUSH3 0x10000 SWAP1 DIV PUSH1 0x1 PUSH1 0x1 PUSH1 0xA0 SHL SUB AND SWAP1 JUMP JUMPDEST PUSH1 0x40 MLOAD PUSH1 0x1 PUSH1 0x1 PUSH1 0xA0 SHL SUB SWAP1 SWAP2 AND DUP2 MSTORE PUSH1 0x20 ADD PUSH2 0xCD JUMP JUMPDEST PUSH1 0x0 SLOAD PUSH1 0x1 PUSH1 0x1 PUSH1 0xA0 SHL SUB AND PUSH2 0x1B4 JUMP JUMPDEST PUSH2 0xC1 PUSH2 0x1EB CALLDATASIZE PUSH1 0x4 PUSH2 0x4CC JUMP JUMPDEST PUSH1 0x2 PUSH1 0x20 SWAP1 DUP2 MSTORE PUSH1 0x0 SWAP3 DUP4 MSTORE PUSH1 0x40 DUP1 DUP5 KECCAK256 SWAP1 SWAP2 MSTORE SWAP1 DUP3 MSTORE SWAP1 KECCAK256 SLOAD PUSH1 0xFF AND DUP2 JUMP JUMPDEST PUSH2 0x183 PUSH2 0x219 CALLDATASIZE PUSH1 0x4 PUSH2 0x596 JUMP JUMPDEST PUSH2 0x285 JUMP JUMPDEST PUSH2 0x183 PUSH2 0x22C CALLDATASIZE PUSH1 0x4 PUSH2 0x5D2 JUMP JUMPDEST PUSH2 0x2F8 JUMP JUMPDEST PUSH2 0x183 PUSH2 0x23F CALLDATASIZE PUSH1 0x4 PUSH2 0x625 JUMP JUMPDEST PUSH2 0x3F0 JUMP JUMPDEST PUSH1 0x0 DUP3 DUP2 MSTORE PUSH1 0x2 PUSH1 0x20 SWAP1 DUP2 MSTORE PUSH1 0x40 DUP1 DUP4 KECCAK256 PUSH1 0x1 PUSH1 0x1 PUSH1 0xA0 SHL SUB DUP6 AND DUP5 MSTORE SWAP1 SWAP2 MSTORE SWAP1 KECCAK256 SLOAD PUSH1 0xFF AND JUMPDEST SWAP3 SWAP2 POP POP JUMP JUMPDEST PUSH2 0x279 PUSH2 0x433 JUMP JUMPDEST PUSH2 0x283 PUSH1 0x0 PUSH2 0x460 JUMP JUMPDEST JUMP JUMPDEST PUSH2 0x28D PUSH2 0x433 JUMP JUMPDEST PUSH1 0x0 DUP4 DUP2 MSTORE PUSH1 0x2 PUSH1 0x20 SWAP1 DUP2 MSTORE PUSH1 0x40 DUP1 DUP4 KECCAK256 PUSH1 0x1 PUSH1 0x1 PUSH1 0xA0 SHL SUB DUP7 AND DUP1 DUP6 MSTORE SWAP1 DUP4 MSTORE SWAP3 DUP2 SWAP1 KECCAK256 DUP1 SLOAD PUSH1 0xFF NOT AND DUP6 ISZERO ISZERO SWAP1 DUP2 OR SWAP1 SWAP2 SSTORE SWAP1 MLOAD SWAP1 DUP2 MSTORE DUP6 SWAP2 PUSH32 0xF1E34412CE3496E281A817CC6D1C1A42B2DAE6EB04D080BD1BF5CA8109EE20C8 SWAP2 ADD PUSH1 0x40 MLOAD DUP1 SWAP2 SUB SWAP1 LOG3 POP POP POP JUMP JUMPDEST PUSH2 0x300 PUSH2 0x433 JUMP JUMPDEST PUSH1 0x40 MLOAD DUP1 PUSH1 0x60 ADD PUSH1 0x40 MSTORE DUP1 DUP3 ISZERO ISZERO DUP2 MSTORE PUSH1 0x20 ADD DUP5 PUSH1 0x6 DUP2 GT ISZERO PUSH2 0x325 JUMPI PUSH2 0x325 PUSH2 0x511 JUMP JUMPDEST DUP2 MSTORE PUSH1 0x1 PUSH1 0x1 PUSH1 0xA0 SHL SUB DUP5 AND PUSH1 0x20 SWAP2 DUP3 ADD MSTORE PUSH1 0x0 DUP7 DUP2 MSTORE PUSH1 0x1 DUP3 MSTORE PUSH1 0x40 SWAP1 KECCAK256 DUP3 MLOAD DUP2 SLOAD SWAP1 ISZERO ISZERO PUSH1 0xFF NOT DUP3 AND DUP2 OR DUP4 SSTORE SWAP3 DUP5 ADD MLOAD SWAP2 SWAP3 DUP4 SWAP2 PUSH2 0xFF00 NOT SWAP1 SWAP2 AND PUSH2 0xFFFF NOT SWAP1 SWAP2 AND OR PUSH2 0x100 DUP4 PUSH1 0x6 DUP2 GT ISZERO PUSH2 0x380 JUMPI PUSH2 0x380 PUSH2 0x511 JUMP JUMPDEST MUL OR SWAP1 SSTORE POP PUSH1 0x40 SWAP2 DUP3 ADD MLOAD DUP2 SLOAD PUSH1 0x1 PUSH1 0x1 PUSH1 0xA0 SHL SUB SWAP1 SWAP2 AND PUSH3 0x10000 MUL PUSH3 0x10000 PUSH1 0x1 PUSH1 0xB0 SHL SUB NOT SWAP1 SWAP2 AND OR SWAP1 SSTORE MLOAD DUP5 SWAP1 PUSH32 0x8804015B38AC0926525C927BD337665281E94CD775014FA8933B67E0356B1087 SWAP1 PUSH2 0x3E2 SWAP1 DUP7 SWAP1 DUP7 SWAP1 DUP7 SWAP1 PUSH2 0x647 JUMP JUMPDEST PUSH1 0x40 MLOAD DUP1 SWAP2 SUB SWAP1 LOG2 POP POP POP POP JUMP JUMPDEST PUSH2 0x3F8 PUSH2 0x433 JUMP JUMPDEST PUSH1 0x1 PUSH1 0x1 PUSH1 0xA0 SHL SUB DUP2 AND PUSH2 0x427 JUMPI PUSH1 0x40 MLOAD PUSH4 0x1E4FBDF7 PUSH1 0xE0 SHL DUP2 MSTORE PUSH1 0x0 PUSH1 0x4 DUP3 ADD MSTORE PUSH1 0x24 ADD JUMPDEST PUSH1 0x40 MLOAD DUP1 SWAP2 SUB SWAP1 REVERT JUMPDEST PUSH2 0x430 DUP2 PUSH2 0x460 JUMP JUMPDEST POP JUMP JUMPDEST PUSH1 0x0 SLOAD PUSH1 0x1 PUSH1 0x1 PUSH1 0xA0 SHL SUB AND CALLER EQ PUSH2 0x283 JUMPI PUSH1 0x40 MLOAD PUSH4 0x118CDAA7 PUSH1 0xE0 SHL DUP2 MSTORE CALLER PUSH1 0x4 DUP3 ADD MSTORE PUSH1 0x24 ADD PUSH2 0x41E JUMP JUMPDEST PUSH1 0x0 DUP1 SLOAD PUSH1 0x1 PUSH1 0x1 PUSH1 0xA0 SHL SUB DUP4 DUP2 AND PUSH1 0x1 PUSH1 0x1 PUSH1 0xA0 SHL SUB NOT DUP4 AND DUP2 OR DUP5 SSTORE PUSH1 0x40 MLOAD SWAP2 SWAP1 SWAP3 AND SWAP3 DUP4 SWAP2 PUSH32 0x8BE0079C531659141344CD1FD0A4F28419497F9722A3DAAFE3B4186F6B6457E0 SWAP2 SWAP1 LOG3 POP POP JUMP JUMPDEST DUP1 CALLDATALOAD PUSH1 0x1 PUSH1 0x1 PUSH1 0xA0 SHL SUB DUP2 AND DUP2 EQ PUSH2 0x4C7 JUMPI PUSH1 0x0 DUP1 REVERT JUMPDEST SWAP2 SWAP1 POP JUMP JUMPDEST PUSH1 0x0 DUP1 PUSH1 0x40 DUP4 DUP6 SUB SLT ISZERO PUSH2 0x4DF JUMPI PUSH1 0x0 DUP1 REVERT JUMPDEST DUP3 CALLDATALOAD SWAP2 POP PUSH2 0x4EF PUSH1 0x20 DUP5 ADD PUSH2 0x4B0 JUMP JUMPDEST SWAP1 POP SWAP3 POP SWAP3 SWAP1 POP JUMP JUMPDEST PUSH1 0x0 PUSH1 0x20 DUP3 DUP5 SUB SLT ISZERO PUSH2 0x50A JUMPI PUSH1 0x0 DUP1 REVERT JUMPDEST POP CALLDATALOAD SWAP2 SWAP1 POP JUMP JUMPDEST PUSH4 0x4E487B71 PUSH1 0xE0 SHL PUSH1 0x0 MSTORE PUSH1 0x21 PUSH1 0x4 MSTORE PUSH1 0x24 PUSH1 0x0 REVERT JUMPDEST PUSH1 0x7 DUP2 LT PUSH2 0x545 JUMPI PUSH4 0x4E487B71 PUSH1 0xE0 SHL PUSH1 0x0 MSTORE PUSH1 0x21 PUSH1 0x4 MSTORE PUSH1 0x24 PUSH1 0x0 REVERT JUMPDEST SWAP1 MSTORE JUMP JUMPDEST PUSH1 0x20 DUP2 ADD PUSH2 0x26B DUP3 DUP5 PUSH2 0x527 JUMP JUMPDEST DUP4 ISZERO ISZERO DUP2 MSTORE PUSH1 0x60 DUP2 ADD PUSH2 0x56D PUSH1 0x20 DUP4 ADD DUP6 PUSH2 0x527 JUMP JUMPDEST PUSH1 0x1 PUSH1 0x1 PUSH1 0xA0 SHL SUB SWAP3 SWAP1 SWAP3 AND PUSH1 0x40 SWAP2 SWAP1 SWAP2 ADD MSTORE SWAP3 SWAP2 POP POP JUMP JUMPDEST DUP1 CALLDATALOAD DUP1 ISZERO ISZERO DUP2 EQ PUSH2 0x4C7 JUMPI PUSH1 0x0 DUP1 REVERT JUMPDEST PUSH1 0x0 DUP1 PUSH1 0x0 PUSH1 0x60 DUP5 DUP7 SUB SLT ISZERO PUSH2 0x5AB JUMPI PUSH1 0x0 DUP1 REVERT JUMPDEST DUP4 CALLDATALOAD SWAP3 POP PUSH2 0x5BB PUSH1 0x20 DUP6 ADD PUSH2 0x4B0 JUMP JUMPDEST SWAP2 POP PUSH2 0x5C9 PUSH1 0x40 DUP6 ADD PUSH2 0x586 JUMP JUMPDEST SWAP1 POP SWAP3 POP SWAP3 POP SWAP3 JUMP JUMPDEST PUSH1 0x0 DUP1 PUSH1 0x0 DUP1 PUSH1 0x80 DUP6 DUP8 SUB SLT ISZERO PUSH2 0x5E8 JUMPI PUSH1 0x0 DUP1 REVERT JUMPDEST DUP5 CALLDATALOAD SWAP4 POP PUSH1 0x20 DUP6 ADD CALLDATALOAD PUSH1 0x7 DUP2 LT PUSH2 0x5FE JUMPI PUSH1 0x0 DUP1 REVERT JUMPDEST SWAP3 POP PUSH2 0x60C PUSH1 0x40 DUP7 ADD PUSH2 0x4B0 JUMP JUMPDEST SWAP2 POP PUSH2 0x61A PUSH1 0x60 DUP7 ADD PUSH2 0x586 JUMP JUMPDEST SWAP1 POP SWAP3 SWAP6 SWAP2 SWAP5 POP SWAP3 POP JUMP JUMPDEST PUSH1 0x0 PUSH1 0x20 DUP3 DUP5 SUB SLT ISZERO PUSH2 0x637 JUMPI PUSH1 0x0 DUP1 REVERT JUMPDEST PUSH2 0x640 DUP3 PUSH2 0x4B0 JUMP JUMPDEST SWAP4 SWAP3 POP POP POP JUMP JUMPDEST PUSH1 0x60 DUP2 ADD PUSH2 0x655 DUP3 DUP7 PUSH2 0x527 JUMP JUMPDEST PUSH1 0x1 PUSH1 0x1 PUSH1 0xA0 SHL SUB SWAP4 SWAP1 SWAP4 AND PUSH1 0x20 DUP3 ADD MSTORE SWAP1 ISZERO ISZERO PUSH1 0x40 SWAP1 SWAP2 ADD MSTORE SWAP2 SWAP1 POP JUMP INVALID LOG2 PUSH5 0x6970667358 0x22 SLT KECCAK256 0xE1 0x4F 0x23 DUP2 0xC8 KECCAK256 PUSH6 0xA17E76654912 0xF7 CALL 0xD1 SHL 0xDF COINBASE 0xE9 DELEGATECALL 0xFB 0xB4 JUMPI 0x49 DUP2 0xA9 0xB4 0xDD 0xB6 DUP4 0xDB PUSH5 0x736F6C6343 STOP ADDMOD EQ STOP CALLER "},"methodIdentifiers":{"allowedTokens(uint256,address)":"ae08192f","chains(uint256)":"550325b5","gatewayFor(uint256)":"831c3d12","isChainEnabled(uint256)":"4d240db9","isTokenAllowed(uint256,address)":"0bc9dad1","kindOf(uint256)":"2345e28c","owner()":"8da5cb5b","renounceOwnership()":"715018a6","setChain(uint256,uint8,address,bool)":"eab3c548","setTokenAllowed(uint256,address,bool)":"d9354293","transferOwnership(address)":"f2fde38b"}}}}}