{"contracts/interest/KinkInterestRateModel.sol":{"KinkInterestRateModel":{"abi":[{"inputs":[{"internalType":"uint256","name":"_baseAPR","type":"uint256"},{"internalType":"uint256","name":"_slopeLowAPR","type":"uint256"},{"internalType":"uint256","name":"_slopeHighAPR","type":"uint256"},{"internalType":"uint256","name":"_kink","type":"uint256"},{"internalType":"address","name":"admin","type":"address"}],"stateMutability":"nonpayable","type":"constructor"},{"inputs":[{"internalType":"address","name":"owner","type":"address"}],"name":"OwnableInvalidOwner","type":"error"},{"inputs":[{"internalType":"address","name":"account","type":"address"}],"name":"OwnableUnauthorizedAccount","type":"error"},{"anonymous":false,"inputs":[{"indexed":true,"internalType":"address","name":"previousOwner","type":"address"},{"indexed":true,"internalType":"address","name":"newOwner","type":"address"}],"name":"OwnershipTransferred","type":"event"},{"anonymous":false,"inputs":[{"indexed":false,"internalType":"uint256","name":"baseAPR","type":"uint256"},{"indexed":false,"internalType":"uint256","name":"slopeLowAPR","type":"uint256"},{"indexed":false,"internalType":"uint256","name":"slopeHighAPR","type":"uint256"},{"indexed":false,"internalType":"uint256","name":"kink","type":"uint256"}],"name":"ParamsUpdated","type":"event"},{"inputs":[],"name":"SECONDS_PER_YEAR","outputs":[{"internalType":"uint256","name":"","type":"uint256"}],"stateMutability":"view","type":"function"},{"inputs":[],"name":"baseAPR","outputs":[{"internalType":"uint256","name":"","type":"uint256"}],"stateMutability":"view","type":"function"},{"inputs":[{"internalType":"uint256","name":"utilization","type":"uint256"}],"name":"getBorrowRatePerSecond","outputs":[{"internalType":"uint256","name":"","type":"uint256"}],"stateMutability":"view","type":"function"},{"inputs":[],"name":"kink","outputs":[{"internalType":"uint256","name":"","type":"uint256"}],"stateMutability":"view","type":"function"},{"inputs":[],"name":"owner","outputs":[{"internalType":"address","name":"","type":"address"}],"stateMutability":"view","type":"function"},{"inputs":[],"name":"renounceOwnership","outputs":[],"stateMutability":"nonpayable","type":"function"},{"inputs":[{"internalType":"uint256","name":"_baseAPR","type":"uint256"},{"internalType":"uint256","name":"_slopeLowAPR","type":"uint256"},{"internalType":"uint256","name":"_slopeHighAPR","type":"uint256"},{"internalType":"uint256","name":"_kink","type":"uint256"}],"name":"setParams","outputs":[],"stateMutability":"nonpayable","type":"function"},{"inputs":[],"name":"slopeHighAPR","outputs":[{"internalType":"uint256","name":"","type":"uint256"}],"stateMutability":"view","type":"function"},{"inputs":[],"name":"slopeLowAPR","outputs":[{"internalType":"uint256","name":"","type":"uint256"}],"stateMutability":"view","type":"function"},{"inputs":[{"internalType":"address","name":"newOwner","type":"address"}],"name":"transferOwnership","outputs":[],"stateMutability":"nonpayable","type":"function"},{"inputs":[{"internalType":"uint256","name":"","type":"uint256"}],"name":"updateBorrowRate","outputs":[],"stateMutability":"pure","type":"function"}],"evm":{"bytecode":{"linkReferences":{},"object":"60806040523480156200001157600080fd5b50604051620012bb380380620012bb8339818101604052810190620000379190620003e0565b80600073ffffffffffffffffffffffffffffffffffffffff168173ffffffffffffffffffffffffffffffffffffffff1603620000ad5760006040517f1e4fbdf7000000000000000000000000000000000000000000000000000000008152600401620000a4919062000479565b60405180910390fd5b620000be81620000de60201b60201c565b50620000d385858585620001a260201b60201c565b5050505050620006cd565b60008060009054906101000a900473ffffffffffffffffffffffffffffffffffffffff169050816000806101000a81548173ffffffffffffffffffffffffffffffffffffffff021916908373ffffffffffffffffffffffffffffffffffffffff1602179055508173ffffffffffffffffffffffffffffffffffffffff168173ffffffffffffffffffffffffffffffffffffffff167f8be0079c531659141344cd1fd0a4f28419497f9722a3daafe3b4186f6b6457e060405160405180910390a35050565b670de0b6b3a7640000811115620001f0576040517f08c379a0000000000000000000000000000000000000000000000000000000008152600401620001e790620004f7565b60405180910390fd5b670de0b6b3a76400008411156200023e576040517f08c379a0000000000000000000000000000000000000000000000000000000008152600401620002359062000569565b60405180910390fd5b674563918244f400008311156200028c576040517f08c379a00000000000000000000000000000000000000000000000000000000081526004016200028390620005db565b60405180910390fd5b678ac7230489e80000821115620002da576040517f08c379a0000000000000000000000000000000000000000000000000000000008152600401620002d1906200064d565b60405180910390fd5b836001819055508260028190555081600381905550806004819055507f12a7025c39c132ef283c80c5db2fc1a564c96bf8fc3ca7af8e3cd63842c3a349848484846040516200032d949392919062000680565b60405180910390a150505050565b600080fd5b6000819050919050565b620003558162000340565b81146200036157600080fd5b50565b60008151905062000375816200034a565b92915050565b600073ffffffffffffffffffffffffffffffffffffffff82169050919050565b6000620003a8826200037b565b9050919050565b620003ba816200039b565b8114620003c657600080fd5b50565b600081519050620003da81620003af565b92915050565b600080600080600060a08688031215620003ff57620003fe6200033b565b5b60006200040f8882890162000364565b9550506020620004228882890162000364565b9450506040620004358882890162000364565b9350506060620004488882890162000364565b92505060806200045b88828901620003c9565b9150509295509295909350565b62000473816200039b565b82525050565b600060208201905062000490600083018462000468565b92915050565b600082825260208201905092915050565b7f6b696e6b20746f6f206869676800000000000000000000000000000000000000600082015250565b6000620004df600d8362000496565b9150620004ec82620004a7565b602082019050919050565b600060208201905081810360008301526200051281620004d0565b9050919050565b7f6261736520746f6f206869676800000000000000000000000000000000000000600082015250565b600062000551600d8362000496565b91506200055e8262000519565b602082019050919050565b60006020820190508181036000830152620005848162000542565b9050919050565b7f736c6f70653120746f6f20686967680000000000000000000000000000000000600082015250565b6000620005c3600f8362000496565b9150620005d0826200058b565b602082019050919050565b60006020820190508181036000830152620005f681620005b4565b9050919050565b7f736c6f70653220746f6f20686967680000000000000000000000000000000000600082015250565b600062000635600f8362000496565b91506200064282620005fd565b602082019050919050565b60006020820190508181036000830152620006688162000626565b9050919050565b6200067a8162000340565b82525050565b60006080820190506200069760008301876200066f565b620006a660208301866200066f565b620006b560408301856200066f565b620006c460608301846200066f565b95945050505050565b610bde80620006dd6000396000f3fe608060405234801561001057600080fd5b50600436106100a95760003560e01c806395571baa1161007157806395571baa1461012c578063e6a69ab81461014a578063f15a3ac814610168578063f2fde38b14610186578063f71bd11b146101a2578063fd2da339146101d2576100a9565b806302b8c56d146100ae57806358ac0e80146100ca578063715018a6146100e85780637ece45e8146100f25780638da5cb5b1461010e575b600080fd5b6100c860048036038101906100c391906106f6565b6101f0565b005b6100d26101f3565b6040516100df9190610732565b60405180910390f35b6100f06101f9565b005b61010c6004803603810190610107919061074d565b61020d565b005b610116610227565b60405161012391906107f5565b60405180910390f35b610134610250565b6040516101419190610732565b60405180910390f35b610152610256565b60405161015f9190610732565b60405180910390f35b61017061025e565b60405161017d9190610732565b60405180910390f35b6101a0600480360381019061019b919061083c565b610264565b005b6101bc60048036038101906101b791906106f6565b6102ea565b6040516101c99190610732565b60405180910390f35b6101da6103d7565b6040516101e79190610732565b60405180910390f35b50565b60015481565b6102016103dd565b61020b6000610464565b565b6102156103dd565b61022184848484610528565b50505050565b60008060009054906101000a900473ffffffffffffffffffffffffffffffffffffffff16905090565b60025481565b6301e1338081565b60035481565b61026c6103dd565b600073ffffffffffffffffffffffffffffffffffffffff168173ffffffffffffffffffffffffffffffffffffffff16036102de5760006040517f1e4fbdf70000000000000000000000000000000000000000000000000000000081526004016102d591906107f5565b60405180910390fd5b6102e781610464565b50565b6000670de0b6b3a764000082111561030857670de0b6b3a764000091505b6000600454831161034857670de0b6b3a76400008360025461032a9190610898565b6103349190610909565b600154610341919061093a565b90506103bf565b6000670de0b6b3a76400006004546002546103639190610898565b61036d9190610909565b60015461037a919061093a565b90506000670de0b6b3a764000060045486610395919061096e565b6003546103a29190610898565b6103ac9190610909565b905080826103ba919061093a565b925050505b6301e13380816103cf9190610909565b915050919050565b60045481565b6103e56106b3565b73ffffffffffffffffffffffffffffffffffffffff16610403610227565b73ffffffffffffffffffffffffffffffffffffffff1614610462576104266106b3565b6040517f118cdaa700000000000000000000000000000000000000000000000000000000815260040161045991906107f5565b60405180910390fd5b565b60008060009054906101000a900473ffffffffffffffffffffffffffffffffffffffff169050816000806101000a81548173ffffffffffffffffffffffffffffffffffffffff021916908373ffffffffffffffffffffffffffffffffffffffff1602179055508173ffffffffffffffffffffffffffffffffffffffff168173ffffffffffffffffffffffffffffffffffffffff167f8be0079c531659141344cd1fd0a4f28419497f9722a3daafe3b4186f6b6457e060405160405180910390a35050565b670de0b6b3a7640000811115610573576040517f08c379a000000000000000000000000000000000000000000000000000000000815260040161056a906109ff565b60405180910390fd5b670de0b6b3a76400008411156105be576040517f08c379a00000000000000000000000000000000000000000000000000000000081526004016105b590610a6b565b60405180910390fd5b674563918244f40000831115610609576040517f08c379a000000000000000000000000000000000000000000000000000000000815260040161060090610ad7565b60405180910390fd5b678ac7230489e80000821115610654576040517f08c379a000000000000000000000000000000000000000000000000000000000815260040161064b90610b43565b60405180910390fd5b836001819055508260028190555081600381905550806004819055507f12a7025c39c132ef283c80c5db2fc1a564c96bf8fc3ca7af8e3cd63842c3a349848484846040516106a59493929190610b63565b60405180910390a150505050565b600033905090565b600080fd5b6000819050919050565b6106d3816106c0565b81146106de57600080fd5b50565b6000813590506106f0816106ca565b92915050565b60006020828403121561070c5761070b6106bb565b5b600061071a848285016106e1565b91505092915050565b61072c816106c0565b82525050565b60006020820190506107476000830184610723565b92915050565b60008060008060808587031215610767576107666106bb565b5b6000610775878288016106e1565b9450506020610786878288016106e1565b9350506040610797878288016106e1565b92505060606107a8878288016106e1565b91505092959194509250565b600073ffffffffffffffffffffffffffffffffffffffff82169050919050565b60006107df826107b4565b9050919050565b6107ef816107d4565b82525050565b600060208201905061080a60008301846107e6565b92915050565b610819816107d4565b811461082457600080fd5b50565b60008135905061083681610810565b92915050565b600060208284031215610852576108516106bb565b5b600061086084828501610827565b91505092915050565b7f4e487b7100000000000000000000000000000000000000000000000000000000600052601160045260246000fd5b60006108a3826106c0565b91506108ae836106c0565b92508282026108bc816106c0565b915082820484148315176108d3576108d2610869565b5b5092915050565b7f4e487b7100000000000000000000000000000000000000000000000000000000600052601260045260246000fd5b6000610914826106c0565b915061091f836106c0565b92508261092f5761092e6108da565b5b828204905092915050565b6000610945826106c0565b9150610950836106c0565b925082820190508082111561096857610967610869565b5b92915050565b6000610979826106c0565b9150610984836106c0565b925082820390508181111561099c5761099b610869565b5b92915050565b600082825260208201905092915050565b7f6b696e6b20746f6f206869676800000000000000000000000000000000000000600082015250565b60006109e9600d836109a2565b91506109f4826109b3565b602082019050919050565b60006020820190508181036000830152610a18816109dc565b9050919050565b7f6261736520746f6f206869676800000000000000000000000000000000000000600082015250565b6000610a55600d836109a2565b9150610a6082610a1f565b602082019050919050565b60006020820190508181036000830152610a8481610a48565b9050919050565b7f736c6f70653120746f6f20686967680000000000000000000000000000000000600082015250565b6000610ac1600f836109a2565b9150610acc82610a8b565b602082019050919050565b60006020820190508181036000830152610af081610ab4565b9050919050565b7f736c6f70653220746f6f20686967680000000000000000000000000000000000600082015250565b6000610b2d600f836109a2565b9150610b3882610af7565b602082019050919050565b60006020820190508181036000830152610b5c81610b20565b9050919050565b6000608082019050610b786000830187610723565b610b856020830186610723565b610b926040830185610723565b610b9f6060830184610723565b9594505050505056fea26469706673582212204e3605ae9a990c775d25c05737b1fcf0bfe3af3d235ca98a3644d948d97929fc64736f6c63430008140033","opcodes":"PUSH1 0x80 PUSH1 0x40 MSTORE CALLVALUE DUP1 ISZERO PUSH3 0x11 JUMPI PUSH1 0x0 DUP1 REVERT JUMPDEST POP PUSH1 0x40 MLOAD PUSH3 0x12BB CODESIZE SUB DUP1 PUSH3 0x12BB DUP4 CODECOPY DUP2 DUP2 ADD PUSH1 0x40 MSTORE DUP2 ADD SWAP1 PUSH3 0x37 SWAP2 SWAP1 PUSH3 0x3E0 JUMP JUMPDEST DUP1 PUSH1 0x0 PUSH20 0xFFFFFFFFFFFFFFFFFFFFFFFFFFFFFFFFFFFFFFFF AND DUP2 PUSH20 0xFFFFFFFFFFFFFFFFFFFFFFFFFFFFFFFFFFFFFFFF AND SUB PUSH3 0xAD JUMPI PUSH1 0x0 PUSH1 0x40 MLOAD PUSH32 0x1E4FBDF700000000000000000000000000000000000000000000000000000000 DUP2 MSTORE PUSH1 0x4 ADD PUSH3 0xA4 SWAP2 SWAP1 PUSH3 0x479 JUMP JUMPDEST PUSH1 0x40 MLOAD DUP1 SWAP2 SUB SWAP1 REVERT JUMPDEST PUSH3 0xBE DUP2 PUSH3 0xDE PUSH1 0x20 SHL PUSH1 0x20 SHR JUMP JUMPDEST POP PUSH3 0xD3 DUP6 DUP6 DUP6 DUP6 PUSH3 0x1A2 PUSH1 0x20 SHL PUSH1 0x20 SHR JUMP JUMPDEST POP POP POP POP POP PUSH3 0x6CD JUMP JUMPDEST PUSH1 0x0 DUP1 PUSH1 0x0 SWAP1 SLOAD SWAP1 PUSH2 0x100 EXP SWAP1 DIV PUSH20 0xFFFFFFFFFFFFFFFFFFFFFFFFFFFFFFFFFFFFFFFF AND SWAP1 POP DUP2 PUSH1 0x0 DUP1 PUSH2 0x100 EXP DUP2 SLOAD DUP2 PUSH20 0xFFFFFFFFFFFFFFFFFFFFFFFFFFFFFFFFFFFFFFFF MUL NOT AND SWAP1 DUP4 PUSH20 0xFFFFFFFFFFFFFFFFFFFFFFFFFFFFFFFFFFFFFFFF AND MUL OR SWAP1 SSTORE POP DUP2 PUSH20 0xFFFFFFFFFFFFFFFFFFFFFFFFFFFFFFFFFFFFFFFF AND DUP2 PUSH20 0xFFFFFFFFFFFFFFFFFFFFFFFFFFFFFFFFFFFFFFFF AND PUSH32 0x8BE0079C531659141344CD1FD0A4F28419497F9722A3DAAFE3B4186F6B6457E0 PUSH1 0x40 MLOAD PUSH1 0x40 MLOAD DUP1 SWAP2 SUB SWAP1 LOG3 POP POP JUMP JUMPDEST PUSH8 0xDE0B6B3A7640000 DUP2 GT ISZERO PUSH3 0x1F0 JUMPI PUSH1 0x40 MLOAD PUSH32 0x8C379A000000000000000000000000000000000000000000000000000000000 DUP2 MSTORE PUSH1 0x4 ADD PUSH3 0x1E7 SWAP1 PUSH3 0x4F7 JUMP JUMPDEST PUSH1 0x40 MLOAD DUP1 SWAP2 SUB SWAP1 REVERT JUMPDEST PUSH8 0xDE0B6B3A7640000 DUP5 GT ISZERO PUSH3 0x23E JUMPI PUSH1 0x40 MLOAD PUSH32 0x8C379A000000000000000000000000000000000000000000000000000000000 DUP2 MSTORE PUSH1 0x4 ADD PUSH3 0x235 SWAP1 PUSH3 0x569 JUMP JUMPDEST PUSH1 0x40 MLOAD DUP1 SWAP2 SUB SWAP1 REVERT JUMPDEST PUSH8 0x4563918244F40000 DUP4 GT ISZERO PUSH3 0x28C JUMPI PUSH1 0x40 MLOAD PUSH32 0x8C379A000000000000000000000000000000000000000000000000000000000 DUP2 MSTORE PUSH1 0x4 ADD PUSH3 0x283 SWAP1 PUSH3 0x5DB JUMP JUMPDEST PUSH1 0x40 MLOAD DUP1 SWAP2 SUB SWAP1 REVERT JUMPDEST PUSH8 0x8AC7230489E80000 DUP3 GT ISZERO PUSH3 0x2DA JUMPI PUSH1 0x40 MLOAD PUSH32 0x8C379A000000000000000000000000000000000000000000000000000000000 DUP2 MSTORE PUSH1 0x4 ADD PUSH3 0x2D1 SWAP1 PUSH3 0x64D JUMP JUMPDEST PUSH1 0x40 MLOAD DUP1 SWAP2 SUB SWAP1 REVERT JUMPDEST DUP4 PUSH1 0x1 DUP2 SWAP1 SSTORE POP DUP3 PUSH1 0x2 DUP2 SWAP1 SSTORE POP DUP2 PUSH1 0x3 DUP2 SWAP1 SSTORE POP DUP1 PUSH1 0x4 DUP2 SWAP1 SSTORE POP PUSH32 0x12A7025C39C132EF283C80C5DB2FC1A564C96BF8FC3CA7AF8E3CD63842C3A349 DUP5 DUP5 DUP5 DUP5 PUSH1 0x40 MLOAD PUSH3 0x32D SWAP5 SWAP4 SWAP3 SWAP2 SWAP1 PUSH3 0x680 JUMP JUMPDEST PUSH1 0x40 MLOAD DUP1 SWAP2 SUB SWAP1 LOG1 POP POP POP POP JUMP JUMPDEST PUSH1 0x0 DUP1 REVERT JUMPDEST PUSH1 0x0 DUP2 SWAP1 POP SWAP2 SWAP1 POP JUMP JUMPDEST PUSH3 0x355 DUP2 PUSH3 0x340 JUMP JUMPDEST DUP2 EQ PUSH3 0x361 JUMPI PUSH1 0x0 DUP1 REVERT JUMPDEST POP JUMP JUMPDEST PUSH1 0x0 DUP2 MLOAD SWAP1 POP PUSH3 0x375 DUP2 PUSH3 0x34A JUMP JUMPDEST SWAP3 SWAP2 POP POP JUMP JUMPDEST PUSH1 0x0 PUSH20 0xFFFFFFFFFFFFFFFFFFFFFFFFFFFFFFFFFFFFFFFF DUP3 AND SWAP1 POP SWAP2 SWAP1 POP JUMP JUMPDEST PUSH1 0x0 PUSH3 0x3A8 DUP3 PUSH3 0x37B JUMP JUMPDEST SWAP1 POP SWAP2 SWAP1 POP JUMP JUMPDEST PUSH3 0x3BA DUP2 PUSH3 0x39B JUMP JUMPDEST DUP2 EQ PUSH3 0x3C6 JUMPI PUSH1 0x0 DUP1 REVERT JUMPDEST POP JUMP JUMPDEST PUSH1 0x0 DUP2 MLOAD SWAP1 POP PUSH3 0x3DA DUP2 PUSH3 0x3AF JUMP JUMPDEST SWAP3 SWAP2 POP POP JUMP JUMPDEST PUSH1 0x0 DUP1 PUSH1 0x0 DUP1 PUSH1 0x0 PUSH1 0xA0 DUP7 DUP9 SUB SLT ISZERO PUSH3 0x3FF JUMPI PUSH3 0x3FE PUSH3 0x33B JUMP JUMPDEST JUMPDEST PUSH1 0x0 PUSH3 0x40F DUP9 DUP3 DUP10 ADD PUSH3 0x364 JUMP JUMPDEST SWAP6 POP POP PUSH1 0x20 PUSH3 0x422 DUP9 DUP3 DUP10 ADD PUSH3 0x364 JUMP JUMPDEST SWAP5 POP POP PUSH1 0x40 PUSH3 0x435 DUP9 DUP3 DUP10 ADD PUSH3 0x364 JUMP JUMPDEST SWAP4 POP POP PUSH1 0x60 PUSH3 0x448 DUP9 DUP3 DUP10 ADD PUSH3 0x364 JUMP JUMPDEST SWAP3 POP POP PUSH1 0x80 PUSH3 0x45B DUP9 DUP3 DUP10 ADD PUSH3 0x3C9 JUMP JUMPDEST SWAP2 POP POP SWAP3 SWAP6 POP SWAP3 SWAP6 SWAP1 SWAP4 POP JUMP JUMPDEST PUSH3 0x473 DUP2 PUSH3 0x39B JUMP JUMPDEST DUP3 MSTORE POP POP JUMP JUMPDEST PUSH1 0x0 PUSH1 0x20 DUP3 ADD SWAP1 POP PUSH3 0x490 PUSH1 0x0 DUP4 ADD DUP5 PUSH3 0x468 JUMP JUMPDEST SWAP3 SWAP2 POP POP JUMP JUMPDEST PUSH1 0x0 DUP3 DUP3 MSTORE PUSH1 0x20 DUP3 ADD SWAP1 POP SWAP3 SWAP2 POP POP JUMP JUMPDEST PUSH32 0x6B696E6B20746F6F206869676800000000000000000000000000000000000000 PUSH1 0x0 DUP3 ADD MSTORE POP JUMP JUMPDEST PUSH1 0x0 PUSH3 0x4DF PUSH1 0xD DUP4 PUSH3 0x496 JUMP JUMPDEST SWAP2 POP PUSH3 0x4EC DUP3 PUSH3 0x4A7 JUMP JUMPDEST PUSH1 0x20 DUP3 ADD SWAP1 POP SWAP2 SWAP1 POP JUMP JUMPDEST PUSH1 0x0 PUSH1 0x20 DUP3 ADD SWAP1 POP DUP2 DUP2 SUB PUSH1 0x0 DUP4 ADD MSTORE PUSH3 0x512 DUP2 PUSH3 0x4D0 JUMP JUMPDEST SWAP1 POP SWAP2 SWAP1 POP JUMP JUMPDEST PUSH32 0x6261736520746F6F206869676800000000000000000000000000000000000000 PUSH1 0x0 DUP3 ADD MSTORE POP JUMP JUMPDEST PUSH1 0x0 PUSH3 0x551 PUSH1 0xD DUP4 PUSH3 0x496 JUMP JUMPDEST SWAP2 POP PUSH3 0x55E DUP3 PUSH3 0x519 JUMP JUMPDEST PUSH1 0x20 DUP3 ADD SWAP1 POP SWAP2 SWAP1 POP JUMP JUMPDEST PUSH1 0x0 PUSH1 0x20 DUP3 ADD SWAP1 POP DUP2 DUP2 SUB PUSH1 0x0 DUP4 ADD MSTORE PUSH3 0x584 DUP2 PUSH3 0x542 JUMP JUMPDEST SWAP1 POP SWAP2 SWAP1 POP JUMP JUMPDEST PUSH32 0x736C6F70653120746F6F20686967680000000000000000000000000000000000 PUSH1 0x0 DUP3 ADD MSTORE POP JUMP JUMPDEST PUSH1 0x0 PUSH3 0x5C3 PUSH1 0xF DUP4 PUSH3 0x496 JUMP JUMPDEST SWAP2 POP PUSH3 0x5D0 DUP3 PUSH3 0x58B JUMP JUMPDEST PUSH1 0x20 DUP3 ADD SWAP1 POP SWAP2 SWAP1 POP JUMP JUMPDEST PUSH1 0x0 PUSH1 0x20 DUP3 ADD SWAP1 POP DUP2 DUP2 SUB PUSH1 0x0 DUP4 ADD MSTORE PUSH3 0x5F6 DUP2 PUSH3 0x5B4 JUMP JUMPDEST SWAP1 POP SWAP2 SWAP1 POP JUMP JUMPDEST PUSH32 0x736C6F70653220746F6F20686967680000000000000000000000000000000000 PUSH1 0x0 DUP3 ADD MSTORE POP JUMP JUMPDEST PUSH1 0x0 PUSH3 0x635 PUSH1 0xF DUP4 PUSH3 0x496 JUMP JUMPDEST SWAP2 POP PUSH3 0x642 DUP3 PUSH3 0x5FD JUMP JUMPDEST PUSH1 0x20 DUP3 ADD SWAP1 POP SWAP2 SWAP1 POP JUMP JUMPDEST PUSH1 0x0 PUSH1 0x20 DUP3 ADD SWAP1 POP DUP2 DUP2 SUB PUSH1 0x0 DUP4 ADD MSTORE PUSH3 0x668 DUP2 PUSH3 0x626 JUMP JUMPDEST SWAP1 POP SWAP2 SWAP1 POP JUMP JUMPDEST PUSH3 0x67A DUP2 PUSH3 0x340 JUMP JUMPDEST DUP3 MSTORE POP POP JUMP JUMPDEST PUSH1 0x0 PUSH1 0x80 DUP3 ADD SWAP1 POP PUSH3 0x697 PUSH1 0x0 DUP4 ADD DUP8 PUSH3 0x66F JUMP JUMPDEST PUSH3 0x6A6 PUSH1 0x20 DUP4 ADD DUP7 PUSH3 0x66F JUMP JUMPDEST PUSH3 0x6B5 PUSH1 0x40 DUP4 ADD DUP6 PUSH3 0x66F JUMP JUMPDEST PUSH3 0x6C4 PUSH1 0x60 DUP4 ADD DUP5 PUSH3 0x66F JUMP JUMPDEST SWAP6 SWAP5 POP POP POP POP POP JUMP JUMPDEST PUSH2 0xBDE DUP1 PUSH3 0x6DD PUSH1 0x0 CODECOPY PUSH1 0x0 RETURN INVALID PUSH1 0x80 PUSH1 0x40 MSTORE CALLVALUE DUP1 ISZERO PUSH2 0x10 JUMPI PUSH1 0x0 DUP1 REVERT JUMPDEST POP PUSH1 0x4 CALLDATASIZE LT PUSH2 0xA9 JUMPI PUSH1 0x0 CALLDATALOAD PUSH1 0xE0 SHR DUP1 PUSH4 0x95571BAA GT PUSH2 0x71 JUMPI DUP1 PUSH4 0x95571BAA EQ PUSH2 0x12C JUMPI DUP1 PUSH4 0xE6A69AB8 EQ PUSH2 0x14A JUMPI DUP1 PUSH4 0xF15A3AC8 EQ PUSH2 0x168 JUMPI DUP1 PUSH4 0xF2FDE38B EQ PUSH2 0x186 JUMPI DUP1 PUSH4 0xF71BD11B EQ PUSH2 0x1A2 JUMPI DUP1 PUSH4 0xFD2DA339 EQ PUSH2 0x1D2 JUMPI PUSH2 0xA9 JUMP JUMPDEST DUP1 PUSH4 0x2B8C56D EQ PUSH2 0xAE JUMPI DUP1 PUSH4 0x58AC0E80 EQ PUSH2 0xCA JUMPI DUP1 PUSH4 0x715018A6 EQ PUSH2 0xE8 JUMPI DUP1 PUSH4 0x7ECE45E8 EQ PUSH2 0xF2 JUMPI DUP1 PUSH4 0x8DA5CB5B EQ PUSH2 0x10E JUMPI JUMPDEST PUSH1 0x0 DUP1 REVERT JUMPDEST PUSH2 0xC8 PUSH1 0x4 DUP1 CALLDATASIZE SUB DUP2 ADD SWAP1 PUSH2 0xC3 SWAP2 SWAP1 PUSH2 0x6F6 JUMP JUMPDEST PUSH2 0x1F0 JUMP JUMPDEST STOP JUMPDEST PUSH2 0xD2 PUSH2 0x1F3 JUMP JUMPDEST PUSH1 0x40 MLOAD PUSH2 0xDF SWAP2 SWAP1 PUSH2 0x732 JUMP JUMPDEST PUSH1 0x40 MLOAD DUP1 SWAP2 SUB SWAP1 RETURN JUMPDEST PUSH2 0xF0 PUSH2 0x1F9 JUMP JUMPDEST STOP JUMPDEST PUSH2 0x10C PUSH1 0x4 DUP1 CALLDATASIZE SUB DUP2 ADD SWAP1 PUSH2 0x107 SWAP2 SWAP1 PUSH2 0x74D JUMP JUMPDEST PUSH2 0x20D JUMP JUMPDEST STOP JUMPDEST PUSH2 0x116 PUSH2 0x227 JUMP JUMPDEST PUSH1 0x40 MLOAD PUSH2 0x123 SWAP2 SWAP1 PUSH2 0x7F5 JUMP JUMPDEST PUSH1 0x40 MLOAD DUP1 SWAP2 SUB SWAP1 RETURN JUMPDEST PUSH2 0x134 PUSH2 0x250 JUMP JUMPDEST PUSH1 0x40 MLOAD PUSH2 0x141 SWAP2 SWAP1 PUSH2 0x732 JUMP JUMPDEST PUSH1 0x40 MLOAD DUP1 SWAP2 SUB SWAP1 RETURN JUMPDEST PUSH2 0x152 PUSH2 0x256 JUMP JUMPDEST PUSH1 0x40 MLOAD PUSH2 0x15F SWAP2 SWAP1 PUSH2 0x732 JUMP JUMPDEST PUSH1 0x40 MLOAD DUP1 SWAP2 SUB SWAP1 RETURN JUMPDEST PUSH2 0x170 PUSH2 0x25E JUMP JUMPDEST PUSH1 0x40 MLOAD PUSH2 0x17D SWAP2 SWAP1 PUSH2 0x732 JUMP JUMPDEST PUSH1 0x40 MLOAD DUP1 SWAP2 SUB SWAP1 RETURN JUMPDEST PUSH2 0x1A0 PUSH1 0x4 DUP1 CALLDATASIZE SUB DUP2 ADD SWAP1 PUSH2 0x19B SWAP2 SWAP1 PUSH2 0x83C JUMP JUMPDEST PUSH2 0x264 JUMP JUMPDEST STOP JUMPDEST PUSH2 0x1BC PUSH1 0x4 DUP1 CALLDATASIZE SUB DUP2 ADD SWAP1 PUSH2 0x1B7 SWAP2 SWAP1 PUSH2 0x6F6 JUMP JUMPDEST PUSH2 0x2EA JUMP JUMPDEST PUSH1 0x40 MLOAD PUSH2 0x1C9 SWAP2 SWAP1 PUSH2 0x732 JUMP JUMPDEST PUSH1 0x40 MLOAD DUP1 SWAP2 SUB SWAP1 RETURN JUMPDEST PUSH2 0x1DA PUSH2 0x3D7 JUMP JUMPDEST PUSH1 0x40 MLOAD PUSH2 0x1E7 SWAP2 SWAP1 PUSH2 0x732 JUMP JUMPDEST PUSH1 0x40 MLOAD DUP1 SWAP2 SUB SWAP1 RETURN JUMPDEST POP JUMP JUMPDEST PUSH1 0x1 SLOAD DUP2 JUMP JUMPDEST PUSH2 0x201 PUSH2 0x3DD JUMP JUMPDEST PUSH2 0x20B PUSH1 0x0 PUSH2 0x464 JUMP JUMPDEST JUMP JUMPDEST PUSH2 0x215 PUSH2 0x3DD JUMP JUMPDEST PUSH2 0x221 DUP5 DUP5 DUP5 DUP5 PUSH2 0x528 JUMP JUMPDEST POP POP POP POP JUMP JUMPDEST PUSH1 0x0 DUP1 PUSH1 0x0 SWAP1 SLOAD SWAP1 PUSH2 0x100 EXP SWAP1 DIV PUSH20 0xFFFFFFFFFFFFFFFFFFFFFFFFFFFFFFFFFFFFFFFF AND SWAP1 POP SWAP1 JUMP JUMPDEST PUSH1 0x2 SLOAD DUP2 JUMP JUMPDEST PUSH4 0x1E13380 DUP2 JUMP JUMPDEST PUSH1 0x3 SLOAD DUP2 JUMP JUMPDEST PUSH2 0x26C PUSH2 0x3DD JUMP JUMPDEST PUSH1 0x0 PUSH20 0xFFFFFFFFFFFFFFFFFFFFFFFFFFFFFFFFFFFFFFFF AND DUP2 PUSH20 0xFFFFFFFFFFFFFFFFFFFFFFFFFFFFFFFFFFFFFFFF AND SUB PUSH2 0x2DE JUMPI PUSH1 0x0 PUSH1 0x40 MLOAD PUSH32 0x1E4FBDF700000000000000000000000000000000000000000000000000000000 DUP2 MSTORE PUSH1 0x4 ADD PUSH2 0x2D5 SWAP2 SWAP1 PUSH2 0x7F5 JUMP JUMPDEST PUSH1 0x40 MLOAD DUP1 SWAP2 SUB SWAP1 REVERT JUMPDEST PUSH2 0x2E7 DUP2 PUSH2 0x464 JUMP JUMPDEST POP JUMP JUMPDEST PUSH1 0x0 PUSH8 0xDE0B6B3A7640000 DUP3 GT ISZERO PUSH2 0x308 JUMPI PUSH8 0xDE0B6B3A7640000 SWAP2 POP JUMPDEST PUSH1 0x0 PUSH1 0x4 SLOAD DUP4 GT PUSH2 0x348 JUMPI PUSH8 0xDE0B6B3A7640000 DUP4 PUSH1 0x2 SLOAD PUSH2 0x32A SWAP2 SWAP1 PUSH2 0x898 JUMP JUMPDEST PUSH2 0x334 SWAP2 SWAP1 PUSH2 0x909 JUMP JUMPDEST PUSH1 0x1 SLOAD PUSH2 0x341 SWAP2 SWAP1 PUSH2 0x93A JUMP JUMPDEST SWAP1 POP PUSH2 0x3BF JUMP JUMPDEST PUSH1 0x0 PUSH8 0xDE0B6B3A7640000 PUSH1 0x4 SLOAD PUSH1 0x2 SLOAD PUSH2 0x363 SWAP2 SWAP1 PUSH2 0x898 JUMP JUMPDEST PUSH2 0x36D SWAP2 SWAP1 PUSH2 0x909 JUMP JUMPDEST PUSH1 0x1 SLOAD PUSH2 0x37A SWAP2 SWAP1 PUSH2 0x93A JUMP JUMPDEST SWAP1 POP PUSH1 0x0 PUSH8 0xDE0B6B3A7640000 PUSH1 0x4 SLOAD DUP7 PUSH2 0x395 SWAP2 SWAP1 PUSH2 0x96E JUMP JUMPDEST PUSH1 0x3 SLOAD PUSH2 0x3A2 SWAP2 SWAP1 PUSH2 0x898 JUMP JUMPDEST PUSH2 0x3AC SWAP2 SWAP1 PUSH2 0x909 JUMP JUMPDEST SWAP1 POP DUP1 DUP3 PUSH2 0x3BA SWAP2 SWAP1 PUSH2 0x93A JUMP JUMPDEST SWAP3 POP POP POP JUMPDEST PUSH4 0x1E13380 DUP2 PUSH2 0x3CF SWAP2 SWAP1 PUSH2 0x909 JUMP JUMPDEST SWAP2 POP POP SWAP2 SWAP1 POP JUMP JUMPDEST PUSH1 0x4 SLOAD DUP2 JUMP JUMPDEST PUSH2 0x3E5 PUSH2 0x6B3 JUMP JUMPDEST PUSH20 0xFFFFFFFFFFFFFFFFFFFFFFFFFFFFFFFFFFFFFFFF AND PUSH2 0x403 PUSH2 0x227 JUMP JUMPDEST PUSH20 0xFFFFFFFFFFFFFFFFFFFFFFFFFFFFFFFFFFFFFFFF AND EQ PUSH2 0x462 JUMPI PUSH2 0x426 PUSH2 0x6B3 JUMP JUMPDEST PUSH1 0x40 MLOAD PUSH32 0x118CDAA700000000000000000000000000000000000000000000000000000000 DUP2 MSTORE PUSH1 0x4 ADD PUSH2 0x459 SWAP2 SWAP1 PUSH2 0x7F5 JUMP JUMPDEST PUSH1 0x40 MLOAD DUP1 SWAP2 SUB SWAP1 REVERT JUMPDEST JUMP JUMPDEST PUSH1 0x0 DUP1 PUSH1 0x0 SWAP1 SLOAD SWAP1 PUSH2 0x100 EXP SWAP1 DIV PUSH20 0xFFFFFFFFFFFFFFFFFFFFFFFFFFFFFFFFFFFFFFFF AND SWAP1 POP DUP2 PUSH1 0x0 DUP1 PUSH2 0x100 EXP DUP2 SLOAD DUP2 PUSH20 0xFFFFFFFFFFFFFFFFFFFFFFFFFFFFFFFFFFFFFFFF MUL NOT AND SWAP1 DUP4 PUSH20 0xFFFFFFFFFFFFFFFFFFFFFFFFFFFFFFFFFFFFFFFF AND MUL OR SWAP1 SSTORE POP DUP2 PUSH20 0xFFFFFFFFFFFFFFFFFFFFFFFFFFFFFFFFFFFFFFFF AND DUP2 PUSH20 0xFFFFFFFFFFFFFFFFFFFFFFFFFFFFFFFFFFFFFFFF AND PUSH32 0x8BE0079C531659141344CD1FD0A4F28419497F9722A3DAAFE3B4186F6B6457E0 PUSH1 0x40 MLOAD PUSH1 0x40 MLOAD DUP1 SWAP2 SUB SWAP1 LOG3 POP POP JUMP JUMPDEST PUSH8 0xDE0B6B3A7640000 DUP2 GT ISZERO PUSH2 0x573 JUMPI PUSH1 0x40 MLOAD PUSH32 0x8C379A000000000000000000000000000000000000000000000000000000000 DUP2 MSTORE PUSH1 0x4 ADD PUSH2 0x56A SWAP1 PUSH2 0x9FF JUMP JUMPDEST PUSH1 0x40 MLOAD DUP1 SWAP2 SUB SWAP1 REVERT JUMPDEST PUSH8 0xDE0B6B3A7640000 DUP5 GT ISZERO PUSH2 0x5BE JUMPI PUSH1 0x40 MLOAD PUSH32 0x8C379A000000000000000000000000000000000000000000000000000000000 DUP2 MSTORE PUSH1 0x4 ADD PUSH2 0x5B5 SWAP1 PUSH2 0xA6B JUMP JUMPDEST PUSH1 0x40 MLOAD DUP1 SWAP2 SUB SWAP1 REVERT JUMPDEST PUSH8 0x4563918244F40000 DUP4 GT ISZERO PUSH2 0x609 JUMPI PUSH1 0x40 MLOAD PUSH32 0x8C379A000000000000000000000000000000000000000000000000000000000 DUP2 MSTORE PUSH1 0x4 ADD PUSH2 0x600 SWAP1 PUSH2 0xAD7 JUMP JUMPDEST PUSH1 0x40 MLOAD DUP1 SWAP2 SUB SWAP1 REVERT JUMPDEST PUSH8 0x8AC7230489E80000 DUP3 GT ISZERO PUSH2 0x654 JUMPI PUSH1 0x40 MLOAD PUSH32 0x8C379A000000000000000000000000000000000000000000000000000000000 DUP2 MSTORE PUSH1 0x4 ADD PUSH2 0x64B SWAP1 PUSH2 0xB43 JUMP JUMPDEST PUSH1 0x40 MLOAD DUP1 SWAP2 SUB SWAP1 REVERT JUMPDEST DUP4 PUSH1 0x1 DUP2 SWAP1 SSTORE POP DUP3 PUSH1 0x2 DUP2 SWAP1 SSTORE POP DUP2 PUSH1 0x3 DUP2 SWAP1 SSTORE POP DUP1 PUSH1 0x4 DUP2 SWAP1 SSTORE POP PUSH32 0x12A7025C39C132EF283C80C5DB2FC1A564C96BF8FC3CA7AF8E3CD63842C3A349 DUP5 DUP5 DUP5 DUP5 PUSH1 0x40 MLOAD PUSH2 0x6A5 SWAP5 SWAP4 SWAP3 SWAP2 SWAP1 PUSH2 0xB63 JUMP JUMPDEST PUSH1 0x40 MLOAD DUP1 SWAP2 SUB SWAP1 LOG1 POP POP POP POP JUMP JUMPDEST PUSH1 0x0 CALLER SWAP1 POP SWAP1 JUMP JUMPDEST PUSH1 0x0 DUP1 REVERT JUMPDEST PUSH1 0x0 DUP2 SWAP1 POP SWAP2 SWAP1 POP JUMP JUMPDEST PUSH2 0x6D3 DUP2 PUSH2 0x6C0 JUMP JUMPDEST DUP2 EQ PUSH2 0x6DE JUMPI PUSH1 0x0 DUP1 REVERT JUMPDEST POP JUMP JUMPDEST PUSH1 0x0 DUP2 CALLDATALOAD SWAP1 POP PUSH2 0x6F0 DUP2 PUSH2 0x6CA JUMP JUMPDEST SWAP3 SWAP2 POP POP JUMP JUMPDEST PUSH1 0x0 PUSH1 0x20 DUP3 DUP5 SUB SLT ISZERO PUSH2 0x70C JUMPI PUSH2 0x70B PUSH2 0x6BB JUMP JUMPDEST JUMPDEST PUSH1 0x0 PUSH2 0x71A DUP5 DUP3 DUP6 ADD PUSH2 0x6E1 JUMP JUMPDEST SWAP2 POP POP SWAP3 SWAP2 POP POP JUMP JUMPDEST PUSH2 0x72C DUP2 PUSH2 0x6C0 JUMP JUMPDEST DUP3 MSTORE POP POP JUMP JUMPDEST PUSH1 0x0 PUSH1 0x20 DUP3 ADD SWAP1 POP PUSH2 0x747 PUSH1 0x0 DUP4 ADD DUP5 PUSH2 0x723 JUMP JUMPDEST SWAP3 SWAP2 POP POP JUMP JUMPDEST PUSH1 0x0 DUP1 PUSH1 0x0 DUP1 PUSH1 0x80 DUP6 DUP8 SUB SLT ISZERO PUSH2 0x767 JUMPI PUSH2 0x766 PUSH2 0x6BB JUMP JUMPDEST JUMPDEST PUSH1 0x0 PUSH2 0x775 DUP8 DUP3 DUP9 ADD PUSH2 0x6E1 JUMP JUMPDEST SWAP5 POP POP PUSH1 0x20 PUSH2 0x786 DUP8 DUP3 DUP9 ADD PUSH2 0x6E1 JUMP JUMPDEST SWAP4 POP POP PUSH1 0x40 PUSH2 0x797 DUP8 DUP3 DUP9 ADD PUSH2 0x6E1 JUMP JUMPDEST SWAP3 POP POP PUSH1 0x60 PUSH2 0x7A8 DUP8 DUP3 DUP9 ADD PUSH2 0x6E1 JUMP JUMPDEST SWAP2 POP POP SWAP3 SWAP6 SWAP2 SWAP5 POP SWAP3 POP JUMP JUMPDEST PUSH1 0x0 PUSH20 0xFFFFFFFFFFFFFFFFFFFFFFFFFFFFFFFFFFFFFFFF DUP3 AND SWAP1 POP SWAP2 SWAP1 POP JUMP JUMPDEST PUSH1 0x0 PUSH2 0x7DF DUP3 PUSH2 0x7B4 JUMP JUMPDEST SWAP1 POP SWAP2 SWAP1 POP JUMP JUMPDEST PUSH2 0x7EF DUP2 PUSH2 0x7D4 JUMP JUMPDEST DUP3 MSTORE POP POP JUMP JUMPDEST PUSH1 0x0 PUSH1 0x20 DUP3 ADD SWAP1 POP PUSH2 0x80A PUSH1 0x0 DUP4 ADD DUP5 PUSH2 0x7E6 JUMP JUMPDEST SWAP3 SWAP2 POP POP JUMP JUMPDEST PUSH2 0x819 DUP2 PUSH2 0x7D4 JUMP JUMPDEST DUP2 EQ PUSH2 0x824 JUMPI PUSH1 0x0 DUP1 REVERT JUMPDEST POP JUMP JUMPDEST PUSH1 0x0 DUP2 CALLDATALOAD SWAP1 POP PUSH2 0x836 DUP2 PUSH2 0x810 JUMP JUMPDEST SWAP3 SWAP2 POP POP JUMP JUMPDEST PUSH1 0x0 PUSH1 0x20 DUP3 DUP5 SUB SLT ISZERO PUSH2 0x852 JUMPI PUSH2 0x851 PUSH2 0x6BB JUMP JUMPDEST JUMPDEST PUSH1 0x0 PUSH2 0x860 DUP5 DUP3 DUP6 ADD PUSH2 0x827 JUMP JUMPDEST SWAP2 POP POP SWAP3 SWAP2 POP POP JUMP JUMPDEST PUSH32 0x4E487B7100000000000000000000000000000000000000000000000000000000 PUSH1 0x0 MSTORE PUSH1 0x11 PUSH1 0x4 MSTORE PUSH1 0x24 PUSH1 0x0 REVERT JUMPDEST PUSH1 0x0 PUSH2 0x8A3 DUP3 PUSH2 0x6C0 JUMP JUMPDEST SWAP2 POP PUSH2 0x8AE DUP4 PUSH2 0x6C0 JUMP JUMPDEST SWAP3 POP DUP3 DUP3 MUL PUSH2 0x8BC DUP2 PUSH2 0x6C0 JUMP JUMPDEST SWAP2 POP DUP3 DUP3 DIV DUP5 EQ DUP4 ISZERO OR PUSH2 0x8D3 JUMPI PUSH2 0x8D2 PUSH2 0x869 JUMP JUMPDEST JUMPDEST POP SWAP3 SWAP2 POP POP JUMP JUMPDEST PUSH32 0x4E487B7100000000000000000000000000000000000000000000000000000000 PUSH1 0x0 MSTORE PUSH1 0x12 PUSH1 0x4 MSTORE PUSH1 0x24 PUSH1 0x0 REVERT JUMPDEST PUSH1 0x0 PUSH2 0x914 DUP3 PUSH2 0x6C0 JUMP JUMPDEST SWAP2 POP PUSH2 0x91F DUP4 PUSH2 0x6C0 JUMP JUMPDEST SWAP3 POP DUP3 PUSH2 0x92F JUMPI PUSH2 0x92E PUSH2 0x8DA JUMP JUMPDEST JUMPDEST DUP3 DUP3 DIV SWAP1 POP SWAP3 SWAP2 POP POP JUMP JUMPDEST PUSH1 0x0 PUSH2 0x945 DUP3 PUSH2 0x6C0 JUMP JUMPDEST SWAP2 POP PUSH2 0x950 DUP4 PUSH2 0x6C0 JUMP JUMPDEST SWAP3 POP DUP3 DUP3 ADD SWAP1 POP DUP1 DUP3 GT ISZERO PUSH2 0x968 JUMPI PUSH2 0x967 PUSH2 0x869 JUMP JUMPDEST JUMPDEST SWAP3 SWAP2 POP POP JUMP JUMPDEST PUSH1 0x0 PUSH2 0x979 DUP3 PUSH2 0x6C0 JUMP JUMPDEST SWAP2 POP PUSH2 0x984 DUP4 PUSH2 0x6C0 JUMP JUMPDEST SWAP3 POP DUP3 DUP3 SUB SWAP1 POP DUP2 DUP2 GT ISZERO PUSH2 0x99C JUMPI PUSH2 0x99B PUSH2 0x869 JUMP JUMPDEST JUMPDEST SWAP3 SWAP2 POP POP JUMP JUMPDEST PUSH1 0x0 DUP3 DUP3 MSTORE PUSH1 0x20 DUP3 ADD SWAP1 POP SWAP3 SWAP2 POP POP JUMP JUMPDEST PUSH32 0x6B696E6B20746F6F206869676800000000000000000000000000000000000000 PUSH1 0x0 DUP3 ADD MSTORE POP JUMP JUMPDEST PUSH1 0x0 PUSH2 0x9E9 PUSH1 0xD DUP4 PUSH2 0x9A2 JUMP JUMPDEST SWAP2 POP PUSH2 0x9F4 DUP3 PUSH2 0x9B3 JUMP JUMPDEST PUSH1 0x20 DUP3 ADD SWAP1 POP SWAP2 SWAP1 POP JUMP JUMPDEST PUSH1 0x0 PUSH1 0x20 DUP3 ADD SWAP1 POP DUP2 DUP2 SUB PUSH1 0x0 DUP4 ADD MSTORE PUSH2 0xA18 DUP2 PUSH2 0x9DC JUMP JUMPDEST SWAP1 POP SWAP2 SWAP1 POP JUMP JUMPDEST PUSH32 0x6261736520746F6F206869676800000000000000000000000000000000000000 PUSH1 0x0 DUP3 ADD MSTORE POP JUMP JUMPDEST PUSH1 0x0 PUSH2 0xA55 PUSH1 0xD DUP4 PUSH2 0x9A2 JUMP JUMPDEST SWAP2 POP PUSH2 0xA60 DUP3 PUSH2 0xA1F JUMP JUMPDEST PUSH1 0x20 DUP3 ADD SWAP1 POP SWAP2 SWAP1 POP JUMP JUMPDEST PUSH1 0x0 PUSH1 0x20 DUP3 ADD SWAP1 POP DUP2 DUP2 SUB PUSH1 0x0 DUP4 ADD MSTORE PUSH2 0xA84 DUP2 PUSH2 0xA48 JUMP JUMPDEST SWAP1 POP SWAP2 SWAP1 POP JUMP JUMPDEST PUSH32 0x736C6F70653120746F6F20686967680000000000000000000000000000000000 PUSH1 0x0 DUP3 ADD MSTORE POP JUMP JUMPDEST PUSH1 0x0 PUSH2 0xAC1 PUSH1 0xF DUP4 PUSH2 0x9A2 JUMP JUMPDEST SWAP2 POP PUSH2 0xACC DUP3 PUSH2 0xA8B JUMP JUMPDEST PUSH1 0x20 DUP3 ADD SWAP1 POP SWAP2 SWAP1 POP JUMP JUMPDEST PUSH1 0x0 PUSH1 0x20 DUP3 ADD SWAP1 POP DUP2 DUP2 SUB PUSH1 0x0 DUP4 ADD MSTORE PUSH2 0xAF0 DUP2 PUSH2 0xAB4 JUMP JUMPDEST SWAP1 POP SWAP2 SWAP1 POP JUMP JUMPDEST PUSH32 0x736C6F70653220746F6F20686967680000000000000000000000000000000000 PUSH1 0x0 DUP3 ADD MSTORE POP JUMP JUMPDEST PUSH1 0x0 PUSH2 0xB2D PUSH1 0xF DUP4 PUSH2 0x9A2 JUMP JUMPDEST SWAP2 POP PUSH2 0xB38 DUP3 PUSH2 0xAF7 JUMP JUMPDEST PUSH1 0x20 DUP3 ADD SWAP1 POP SWAP2 SWAP1 POP JUMP JUMPDEST PUSH1 0x0 PUSH1 0x20 DUP3 ADD SWAP1 POP DUP2 DUP2 SUB PUSH1 0x0 DUP4 ADD MSTORE PUSH2 0xB5C DUP2 PUSH2 0xB20 JUMP JUMPDEST SWAP1 POP SWAP2 SWAP1 POP JUMP JUMPDEST PUSH1 0x0 PUSH1 0x80 DUP3 ADD SWAP1 POP PUSH2 0xB78 PUSH1 0x0 DUP4 ADD DUP8 PUSH2 0x723 JUMP JUMPDEST PUSH2 0xB85 PUSH1 0x20 DUP4 ADD DUP7 PUSH2 0x723 JUMP JUMPDEST PUSH2 0xB92 PUSH1 0x40 DUP4 ADD DUP6 PUSH2 0x723 JUMP JUMPDEST PUSH2 0xB9F PUSH1 0x60 DUP4 ADD DUP5 PUSH2 0x723 JUMP JUMPDEST SWAP6 SWAP5 POP POP POP POP POP JUMP INVALID LOG2 PUSH5 0x6970667358 0x22 SLT KECCAK256 0x4E CALLDATASIZE SDIV 0xAE SWAP11 SWAP10 0xC PUSH24 0x5D25C05737B1FCF0BFE3AF3D235CA98A3644D948D97929FC PUSH5 0x736F6C6343 STOP ADDMOD EQ STOP CALLER "},"methodIdentifiers":{"SECONDS_PER_YEAR()":"e6a69ab8","baseAPR()":"58ac0e80","getBorrowRatePerSecond(uint256)":"f71bd11b","kink()":"fd2da339","owner()":"8da5cb5b","renounceOwnership()":"715018a6","setParams(uint256,uint256,uint256,uint256)":"7ece45e8","slopeHighAPR()":"f15a3ac8","slopeLowAPR()":"95571baa","transferOwnership(address)":"f2fde38b","updateBorrowRate(uint256)":"02b8c56d"}}}}}