{"contracts/test/MockLendingPool.sol":{"MockLendingPool":{"abi":[{"inputs":[],"name":"currentUtilization","outputs":[{"internalType":"uint256","name":"","type":"uint256"}],"stateMutability":"view","type":"function"},{"inputs":[{"internalType":"uint256","name":"_utilization","type":"uint256"}],"name":"setUtilization","outputs":[],"stateMutability":"nonpayable","type":"function"},{"inputs":[],"name":"utilization","outputs":[{"internalType":"uint256","name":"","type":"uint256"}],"stateMutability":"view","type":"function"}],"evm":{"bytecode":{"linkReferences":{},"object":"608060405234801561001057600080fd5b5061017f806100206000396000f3fe608060405234801561001057600080fd5b50600436106100415760003560e01c80639d4c214714610046578063ea21cd9214610062578063fff5d9da14610080575b600080fd5b610060600480360381019061005b91906100f2565b61009e565b005b61006a6100a8565b604051610077919061012e565b60405180910390f35b6100886100b1565b604051610095919061012e565b60405180910390f35b8060008190555050565b60008054905090565b60005481565b600080fd5b6000819050919050565b6100cf816100bc565b81146100da57600080fd5b50565b6000813590506100ec816100c6565b92915050565b600060208284031215610108576101076100b7565b5b6000610116848285016100dd565b91505092915050565b610128816100bc565b82525050565b6000602082019050610143600083018461011f565b9291505056fea26469706673582212202135c79322c5c8025e58fe1d39ba6581f14ca024490363cc55db90f765be6d4364736f6c63430008140033","opcodes":"PUSH1 0x80 PUSH1 0x40 MSTORE CALLVALUE DUP1 ISZERO PUSH2 0x10 JUMPI PUSH1 0x0 DUP1 REVERT JUMPDEST POP PUSH2 0x17F DUP1 PUSH2 0x20 PUSH1 0x0 CODECOPY PUSH1 0x0 RETURN INVALID PUSH1 0x80 PUSH1 0x40 MSTORE CALLVALUE DUP1 ISZERO PUSH2 0x10 JUMPI PUSH1 0x0 DUP1 REVERT JUMPDEST POP PUSH1 0x4 CALLDATASIZE LT PUSH2 0x41 JUMPI PUSH1 0x0 CALLDATALOAD PUSH1 0xE0 SHR DUP1 PUSH4 0x9D4C2147 EQ PUSH2 0x46 JUMPI DUP1 PUSH4 0xEA21CD92 EQ PUSH2 0x62 JUMPI DUP1 PUSH4 0xFFF5D9DA EQ PUSH2 0x80 JUMPI JUMPDEST PUSH1 0x0 DUP1 REVERT JUMPDEST PUSH2 0x60 PUSH1 0x4 DUP1 CALLDATASIZE SUB DUP2 ADD SWAP1 PUSH2 0x5B SWAP2 SWAP1 PUSH2 0xF2 JUMP JUMPDEST PUSH2 0x9E JUMP JUMPDEST STOP JUMPDEST PUSH2 0x6A PUSH2 0xA8 JUMP JUMPDEST PUSH1 0x40 MLOAD PUSH2 0x77 SWAP2 SWAP1 PUSH2 0x12E JUMP JUMPDEST PUSH1 0x40 MLOAD DUP1 SWAP2 SUB SWAP1 RETURN JUMPDEST PUSH2 0x88 PUSH2 0xB1 JUMP JUMPDEST PUSH1 0x40 MLOAD PUSH2 0x95 SWAP2 SWAP1 PUSH2 0x12E JUMP JUMPDEST PUSH1 0x40 MLOAD DUP1 SWAP2 SUB SWAP1 RETURN JUMPDEST DUP1 PUSH1 0x0 DUP2 SWAP1 SSTORE POP POP JUMP JUMPDEST PUSH1 0x0 DUP1 SLOAD SWAP1 POP SWAP1 JUMP JUMPDEST PUSH1 0x0 SLOAD DUP2 JUMP JUMPDEST PUSH1 0x0 DUP1 REVERT JUMPDEST PUSH1 0x0 DUP2 SWAP1 POP SWAP2 SWAP1 POP JUMP JUMPDEST PUSH2 0xCF DUP2 PUSH2 0xBC JUMP JUMPDEST DUP2 EQ PUSH2 0xDA JUMPI PUSH1 0x0 DUP1 REVERT JUMPDEST POP JUMP JUMPDEST PUSH1 0x0 DUP2 CALLDATALOAD SWAP1 POP PUSH2 0xEC DUP2 PUSH2 0xC6 JUMP JUMPDEST SWAP3 SWAP2 POP POP JUMP JUMPDEST PUSH1 0x0 PUSH1 0x20 DUP3 DUP5 SUB SLT ISZERO PUSH2 0x108 JUMPI PUSH2 0x107 PUSH2 0xB7 JUMP JUMPDEST JUMPDEST PUSH1 0x0 PUSH2 0x116 DUP5 DUP3 DUP6 ADD PUSH2 0xDD JUMP JUMPDEST SWAP2 POP POP SWAP3 SWAP2 POP POP JUMP JUMPDEST PUSH2 0x128 DUP2 PUSH2 0xBC JUMP JUMPDEST DUP3 MSTORE POP POP JUMP JUMPDEST PUSH1 0x0 PUSH1 0x20 DUP3 ADD SWAP1 POP PUSH2 0x143 PUSH1 0x0 DUP4 ADD DUP5 PUSH2 0x11F JUMP JUMPDEST SWAP3 SWAP2 POP POP JUMP INVALID LOG2 PUSH5 0x6970667358 0x22 SLT KECCAK256 0x21 CALLDATALOAD 0xC7 SWAP4 0x22 0xC5 0xC8 MUL 0x5E PC INVALID SAR CODECOPY 0xBA PUSH6 0x81F14CA02449 SUB PUSH4 0xCC55DB90 0xF7 PUSH6 0xBE6D4364736F PUSH13 0x63430008140033000000000000 "},"methodIdentifiers":{"currentUtilization()":"fff5d9da","setUtilization(uint256)":"9d4c2147","utilization()":"ea21cd92"}}}}}