{"contracts/bridge/Gateway.sol":{"Gateway":{"abi":[{"inputs":[{"internalType":"address","name":"admin","type":"address"},{"internalType":"address[]","name":"initialRelayers","type":"address[]"},{"internalType":"uint256","name":"_signatureThreshold","type":"uint256"}],"stateMutability":"nonpayable","type":"constructor"},{"inputs":[{"internalType":"address","name":"owner","type":"address"}],"name":"OwnableInvalidOwner","type":"error"},{"inputs":[{"internalType":"address","name":"account","type":"address"}],"name":"OwnableUnauthorizedAccount","type":"error"},{"anonymous":false,"inputs":[{"indexed":true,"internalType":"address","name":"executor","type":"address"},{"indexed":true,"internalType":"address","name":"target","type":"address"},{"indexed":false,"internalType":"uint256","name":"fromChainId","type":"uint256"},{"indexed":false,"internalType":"bytes","name":"payload","type":"bytes"},{"indexed":false,"internalType":"bool","name":"success","type":"bool"}],"name":"MessageReceived","type":"event"},{"anonymous":false,"inputs":[{"indexed":true,"internalType":"address","name":"sender","type":"address"},{"indexed":false,"internalType":"uint256","name":"toChainId","type":"uint256"},{"indexed":false,"internalType":"bytes","name":"payload","type":"bytes"}],"name":"MessageSent","type":"event"},{"anonymous":false,"inputs":[{"indexed":true,"internalType":"address","name":"previousOwner","type":"address"},{"indexed":true,"internalType":"address","name":"newOwner","type":"address"}],"name":"OwnershipTransferred","type":"event"},{"anonymous":false,"inputs":[{"indexed":true,"internalType":"address","name":"by","type":"address"}],"name":"Paused","type":"event"},{"anonymous":false,"inputs":[{"indexed":true,"internalType":"address","name":"relayer","type":"address"}],"name":"RelayerAdded","type":"event"},{"anonymous":false,"inputs":[{"indexed":true,"internalType":"address","name":"relayer","type":"address"}],"name":"RelayerRemoved","type":"event"},{"anonymous":false,"inputs":[{"indexed":false,"internalType":"uint256","name":"newThreshold","type":"uint256"}],"name":"SignatureThresholdSet","type":"event"},{"anonymous":false,"inputs":[{"indexed":true,"internalType":"address","name":"originalSender","type":"address"},{"indexed":true,"internalType":"address","name":"token","type":"address"},{"indexed":false,"internalType":"uint256","name":"amount","type":"uint256"},{"indexed":false,"internalType":"uint256","name":"fromChainId","type":"uint256"}],"name":"TokensReceived","type":"event"},{"anonymous":false,"inputs":[{"indexed":true,"internalType":"address","name":"user","type":"address"},{"indexed":true,"internalType":"address","name":"originalToken","type":"address"},{"indexed":false,"internalType":"uint256","name":"amount","type":"uint256"},{"indexed":false,"internalType":"uint256","name":"toChainId","type":"uint256"}],"name":"TokensReleased","type":"event"},{"anonymous":false,"inputs":[{"indexed":true,"internalType":"address","name":"user","type":"address"},{"indexed":true,"internalType":"address","name":"token","type":"address"},{"indexed":false,"internalType":"uint256","name":"amount","type":"uint256"},{"indexed":false,"internalType":"uint256","name":"toChainId","type":"uint256"}],"name":"TokensSent","type":"event"},{"anonymous":false,"inputs":[{"indexed":true,"internalType":"address","name":"user","type":"address"},{"indexed":true,"internalType":"address","name":"originalToken","type":"address"},{"indexed":false,"internalType":"uint256","name":"amount","type":"uint256"}],"name":"TokensUnlocked","type":"event"},{"anonymous":false,"inputs":[{"indexed":true,"internalType":"address","name":"by","type":"address"}],"name":"Unpaused","type":"event"},{"inputs":[{"internalType":"address","name":"relayer","type":"address"}],"name":"addRelayer","outputs":[],"stateMutability":"nonpayable","type":"function"},{"inputs":[{"internalType":"uint256","name":"","type":"uint256"}],"name":"gateways","outputs":[{"internalType":"address","name":"","type":"address"}],"stateMutability":"view","type":"function"},{"inputs":[{"internalType":"address","name":"","type":"address"}],"name":"isRelayer","outputs":[{"internalType":"bool","name":"","type":"bool"}],"stateMutability":"view","type":"function"},{"inputs":[],"name":"multisig","outputs":[{"internalType":"address","name":"","type":"address"}],"stateMutability":"view","type":"function"},{"inputs":[],"name":"owner","outputs":[{"internalType":"address","name":"","type":"address"}],"stateMutability":"view","type":"function"},{"inputs":[],"name":"pause","outputs":[],"stateMutability":"nonpayable","type":"function"},{"inputs":[],"name":"paused","outputs":[{"internalType":"bool","name":"","type":"bool"}],"stateMutability":"view","type":"function"},{"inputs":[{"internalType":"address","name":"target","type":"address"},{"internalType":"bytes","name":"payload","type":"bytes"},{"internalType":"uint256","name":"fromChainId","type":"uint256"},{"internalType":"bytes[]","name":"signatures","type":"bytes[]"}],"name":"receiveMessage","outputs":[],"stateMutability":"nonpayable","type":"function"},{"inputs":[{"internalType":"address","name":"originalSender","type":"address"},{"internalType":"address","name":"originalToken","type":"address"},{"internalType":"uint256","name":"amount","type":"uint256"},{"internalType":"uint256","name":"fromChainId","type":"uint256"},{"internalType":"bytes[]","name":"signatures","type":"bytes[]"}],"name":"receiveTokens","outputs":[],"stateMutability":"nonpayable","type":"function"},{"inputs":[{"internalType":"address","name":"originalToken","type":"address"},{"internalType":"uint256","name":"amount","type":"uint256"},{"internalType":"uint256","name":"toChainId","type":"uint256"}],"name":"releaseTokens","outputs":[],"stateMutability":"nonpayable","type":"function"},{"inputs":[{"internalType":"address","name":"relayer","type":"address"}],"name":"removeRelayer","outputs":[],"stateMutability":"nonpayable","type":"function"},{"inputs":[],"name":"renounceOwnership","outputs":[],"stateMutability":"nonpayable","type":"function"},{"inputs":[{"internalType":"bytes","name":"payload","type":"bytes"},{"internalType":"uint256","name":"toChainId","type":"uint256"}],"name":"sendMessage","outputs":[],"stateMutability":"nonpayable","type":"function"},{"inputs":[{"internalType":"address","name":"token","type":"address"},{"internalType":"uint256","name":"amount","type":"uint256"},{"internalType":"uint256","name":"toChainId","type":"uint256"}],"name":"sendTokens","outputs":[],"stateMutability":"nonpayable","type":"function"},{"inputs":[{"internalType":"uint256","name":"chainId","type":"uint256"},{"internalType":"address","name":"gateway","type":"address"}],"name":"setGateway","outputs":[],"stateMutability":"nonpayable","type":"function"},{"inputs":[{"internalType":"address","name":"_multisig","type":"address"}],"name":"setMultisig","outputs":[],"stateMutability":"nonpayable","type":"function"},{"inputs":[{"internalType":"uint256","name":"newThreshold","type":"uint256"}],"name":"setSignatureThreshold","outputs":[],"stateMutability":"nonpayable","type":"function"},{"inputs":[{"internalType":"address","name":"token","type":"address"},{"internalType":"bool","name":"isSupported","type":"bool"},{"internalType":"address","name":"wrappedToken","type":"address"}],"name":"setSupportedToken","outputs":[],"stateMutability":"nonpayable","type":"function"},{"inputs":[],"name":"signatureThreshold","outputs":[{"internalType":"uint256","name":"","type":"uint256"}],"stateMutability":"view","type":"function"},{"inputs":[{"internalType":"address","name":"","type":"address"}],"name":"supportedTokens","outputs":[{"internalType":"bool","name":"","type":"bool"}],"stateMutability":"view","type":"function"},{"inputs":[{"internalType":"address","name":"newOwner","type":"address"}],"name":"transferOwnership","outputs":[],"stateMutability":"nonpayable","type":"function"},{"inputs":[{"internalType":"address","name":"user","type":"address"},{"internalType":"address","name":"originalToken","type":"address"},{"internalType":"uint256","name":"amount","type":"uint256"},{"internalType":"uint256","name":"fromChainId","type":"uint256"},{"internalType":"bytes[]","name":"signatures","type":"bytes[]"}],"name":"unlockTokens","outputs":[],"stateMutability":"nonpayable","type":"function"},{"inputs":[],"name":"unpause","outputs":[],"stateMutability":"nonpayable","type":"function"},{"inputs":[{"internalType":"bytes32","name":"","type":"bytes32"}],"name":"usedSignatures","outputs":[{"internalType":"bool","name":"","type":"bool"}],"stateMutability":"view","type":"function"},{"inputs":[{"internalType":"address","name":"","type":"address"}],"name":"wrappedTokenMap","outputs":[{"internalType":"address","name":"","type":"address"}],"stateMutability":"view","type":"function"},{"stateMutability":"payable","type":"receive"}],"evm":{"bytecode":{"linkReferences":{},"object":"60806040523480156200001157600080fd5b5060405162001f0038038062001f00833981016040819052620000349162000203565b826001600160a01b0381166200006457604051631e4fbdf760e01b81526000600482015260240160405180910390fd5b6200006f8162000180565b5060005b82518110156200013e57600160046000858481518110620000985762000098620002f5565b60200260200101516001600160a01b03166001600160a01b0316815260200190815260200160002060006101000a81548160ff021916908315150217905550828181518110620000ec57620000ec620002f5565b60200260200101516001600160a01b03167f03580ee9f53a62b7cb409a2cb56f9be87747dd15017afc5cef6eef321e4fb2c560405160405180910390a28062000135816200030b565b91505062000073565b5060058190556040518181527f43962f2b9b1b5d7bc7aa699f45af8972a254523862b8f5070842293deb3aa0369060200160405180910390a150505062000333565b600080546001600160a01b038381166001600160a01b0319831681178455604051919092169283917f8be0079c531659141344cd1fd0a4f28419497f9722a3daafe3b4186f6b6457e09190a35050565b80516001600160a01b0381168114620001e857600080fd5b919050565b634e487b7160e01b600052604160045260246000fd5b6000806000606084860312156200021957600080fd5b6200022484620001d0565b602085810151919450906001600160401b03808211156200024457600080fd5b818701915087601f8301126200025957600080fd5b8151818111156200026e576200026e620001ed565b8060051b604051601f19603f83011681018181108582111715620002965762000296620001ed565b60405291825284820192508381018501918a831115620002b557600080fd5b938501935b82851015620002de57620002ce85620001d0565b84529385019392850192620002ba565b809750505050505050604084015190509250925092565b634e487b7160e01b600052603260045260246000fd5b6000600182016200032c57634e487b7160e01b600052601160045260246000fd5b5060010190565b611bbd80620003436000396000f3fe60806040526004361061016a5760003560e01c80638456cb59116100d1578063d76eb7fb1161008a578063f2fde38b11610064578063f2fde38b14610471578063f3283fba14610491578063f860c712146104b1578063f978fd61146104d157600080fd5b8063d76eb7fb146103fb578063dd39f00d14610431578063f06fc1031461045157600080fd5b80638456cb59146103445780638da5cb5b146103595780639660c51e14610377578063a82f2e2614610397578063bbde5374146103bb578063ca19b65b146103db57600080fd5b80635c975abb116101235780635c975abb1461026f57806360f0a5ac14610289578063628efcd7146102a957806364c17056146102c957806368c4ac26146102ff578063715018a61461032f57600080fd5b80631393d90b14610176578063171ca482146101985780632f2f7f27146101b85780633f4ba83a146101d85780634783c35b146101ed578063541d55481461022f57600080fd5b3661017157005b600080fd5b34801561018257600080fd5b50610196610191366004611760565b610501565b005b3480156101a457600080fd5b506101966101b33660046117ea565b61066d565b3480156101c457600080fd5b506101966101d3366004611850565b610854565b3480156101e457600080fd5b50610196610917565b3480156101f957600080fd5b506007546102129061010090046001600160a01b031681565b6040516001600160a01b0390911681526020015b60405180910390f35b34801561023b57600080fd5b5061025f61024a36600461189c565b60046020526000908152604090205460ff1681565b6040519015158152602001610226565b34801561027b57600080fd5b5060075461025f9060ff1681565b34801561029557600080fd5b506101966102a436600461189c565b6109b3565b3480156102b557600080fd5b506101966102c43660046118be565b610a5c565b3480156102d557600080fd5b506102126102e43660046118f1565b6001602052600090815260409020546001600160a01b031681565b34801561030b57600080fd5b5061025f61031a36600461189c565b60026020526000908152604090205460ff1681565b34801561033b57600080fd5b50610196610c0a565b34801561035057600080fd5b50610196610c1e565b34801561036557600080fd5b506000546001600160a01b0316610212565b34801561038357600080fd5b50610196610392366004611918565b610cbd565b3480156103a357600080fd5b506103ad60055481565b604051908152602001610226565b3480156103c757600080fd5b506101966103d63660046118f1565b610d4b565b3480156103e757600080fd5b506101966103f636600461195d565b610d8e565b34801561040757600080fd5b5061021261041636600461189c565b6003602052600090815260409020546001600160a01b031681565b34801561043d57600080fd5b5061019661044c36600461189c565b610dc4565b34801561045d57600080fd5b5061019661046c3660046118be565b610e75565b34801561047d57600080fd5b5061019661048c36600461189c565b61100f565b34801561049d57600080fd5b506101966104ac36600461189c565b61104d565b3480156104bd57600080fd5b506101966104cc3660046117ea565b61107d565b3480156104dd57600080fd5b5061025f6104ec3660046118f1565b60066020526000908152604090205460ff1681565b60075460ff161561052d5760405162461bcd60e51b815260040161052490611989565b60405180910390fd5b60008686868660405160200161054694939291906119b2565b60408051601f1981840301815291815281516020928301206000818152600690935291205490915060ff161561058e5760405162461bcd60e51b8152600401610524906119ef565b61059981848461127b565b600081815260066020526040808220805460ff19166001179055516001600160a01b038916906105cc9089908990611a26565b6000604051808303816000865af19150503d8060008114610609576040519150601f19603f3d011682016040523d82523d6000602084013e61060e565b606091505b50509050876001600160a01b0316336001600160a01b03167f5c6e62797a349fbcb616023cfc6b2ea44dbf68582f1d34f63c84d24b277f7c14878a8a8660405161065b9493929190611a5f565b60405180910390a35050505050505050565b60075460ff16156106905760405162461bcd60e51b815260040161052490611989565b6040516bffffffffffffffffffffffff19606088811b8216602084015287901b1660348201526048810185905260688101849052667265636569766560c81b6088820152600090608f0160408051601f1981840301815291815281516020928301206000818152600690935291205490915060ff16156107225760405162461bcd60e51b8152600401610524906119ef565b61072d81848461127b565b6000818152600660209081526040808320805460ff191660011790556001600160a01b03808a16845260039092529091205416806107ad5760405162461bcd60e51b815260206004820152601760248201527f5772617070656420746f6b656e206e6f7420666f756e640000000000000000006044820152606401610524565b6040516340c10f1960e01b81526001600160a01b038981166004830152602482018890528216906340c10f1990604401600060405180830381600087803b1580156107f757600080fd5b505af115801561080b573d6000803e3d6000fd5b505060408051898152602081018990526001600160a01b03808c1694508c1692507f46ba4e1e95fc9f44608739ffaee40c318f667c56e4ba6e3d0aa80b803768b915910161065b565b60075460ff16156108775760405162461bcd60e51b815260040161052490611989565b6000818152600160205260409020546001600160a01b03166108cd5760405162461bcd60e51b815260206004820152600f60248201526e11d85d195dd85e481b9bdd081cd95d608a1b6044820152606401610524565b336001600160a01b03167fa0a630e297ee9fcce0a89079bae0db692f5137271ef7d89fe33c4a5b86f2cc4682858560405161090a93929190611a8c565b60405180910390a2505050565b6000546001600160a01b031633148061093f575060075461010090046001600160a01b031633145b61097c5760405162461bcd60e51b815260206004820152600e60248201526d1b9bdd08185d5d1a1bdc9a5e995960921b6044820152606401610524565b6007805460ff1916905560405133907f5db9ee0a495bf2e6ff9c91a7834c1ba4fdd244a5e8aa4e537bd38aeae4b073aa90600090a2565b6109bb6114a7565b6001600160a01b03811660009081526004602052604090205460ff16610a135760405162461bcd60e51b815260206004820152600d60248201526c2737ba1030903932b630bcb2b960991b6044820152606401610524565b6001600160a01b038116600081815260046020526040808220805460ff19169055517f10e1f7ce9fd7d1b90a66d13a2ab3cb8dd7f29f3f8d520b143b063ccfbab6906b9190a250565b60075460ff1615610a7f5760405162461bcd60e51b815260040161052490611989565b6000818152600160205260409020546001600160a01b0316610ae35760405162461bcd60e51b815260206004820152601f60248201527f47617465776179206e6f742073657420666f722064657374696e6174696f6e006044820152606401610524565b6001600160a01b038084166000908152600360205260409020541680610b5e5760405162461bcd60e51b815260206004820152602a60248201527f5772617070656420746f6b656e206e6f7420666f756e6420666f72206f72696760448201526934b730b6103a37b5b2b760b11b6064820152608401610524565b60405163079cc67960e41b8152336004820152602481018490526001600160a01b038216906379cc679090604401600060405180830381600087803b158015610ba657600080fd5b505af1158015610bba573d6000803e3d6000fd5b505060408051868152602081018690526001600160a01b03881693503392507fb87c6bc0574d14d70f6ce865c15a89c4682bd485e48ebcbf4061657c9e56da06910160405180910390a350505050565b610c126114a7565b610c1c60006114d4565b565b6000546001600160a01b0316331480610c46575060075461010090046001600160a01b031633145b610c835760405162461bcd60e51b815260206004820152600e60248201526d1b9bdd08185d5d1a1bdc9a5e995960921b6044820152606401610524565b6007805460ff1916600117905560405133907f62e78cea01bee320cd4e420270b5ea74000d11b0c9f74754ebdbfc544b05a25890600090a2565b610cc56114a7565b6001600160a01b0383166000908152600260205260409020805460ff19168315801591909117909155610d22576001600160a01b03928316600090815260036020526040902080546001600160a01b031916919093161790915550565b50506001600160a01b0316600090815260036020526040902080546001600160a01b0319169055565b610d536114a7565b60058190556040518181527f43962f2b9b1b5d7bc7aa699f45af8972a254523862b8f5070842293deb3aa0369060200160405180910390a150565b610d966114a7565b60009182526001602052604090912080546001600160a01b0319166001600160a01b03909216919091179055565b610dcc6114a7565b6001600160a01b03811660009081526004602052604090205460ff1615610e295760405162461bcd60e51b815260206004820152601160248201527020b63932b0b23c9030903932b630bcb2b960791b6044820152606401610524565b6001600160a01b038116600081815260046020526040808220805460ff19166001179055517f03580ee9f53a62b7cb409a2cb56f9be87747dd15017afc5cef6eef321e4fb2c59190a250565b60075460ff1615610e985760405162461bcd60e51b815260040161052490611989565b6001600160a01b03831660009081526002602052604090205460ff16610ef65760405162461bcd60e51b8152602060048201526013602482015272151bdad95b881b9bdd081cdd5c1c1bdc9d1959606a1b6044820152606401610524565b6000818152600160205260409020546001600160a01b0316610f4c5760405162461bcd60e51b815260206004820152600f60248201526e11d85d195dd85e481b9bdd081cd95d608a1b6044820152606401610524565b6040516323b872dd60e01b8152336004820152306024820152604481018390526001600160a01b038416906323b872dd906064016020604051808303816000875af1158015610f9f573d6000803e3d6000fd5b505050506040513d601f19601f82011682018060405250810190610fc39190611aaf565b5060408051838152602081018390526001600160a01b0385169133917fa6f42a754282a9d2f24b4ce9256387399e87a48d5a6467ecd1dcf277d07156b6910160405180910390a3505050565b6110176114a7565b6001600160a01b03811661104157604051631e4fbdf760e01b815260006004820152602401610524565b61104a816114d4565b50565b6110556114a7565b600780546001600160a01b0390921661010002610100600160a81b0319909216919091179055565b60075460ff16156110a05760405162461bcd60e51b815260040161052490611989565b6040516bffffffffffffffffffffffff19606088811b8216602084015287901b166034820152604881018590526068810184905265756e6c6f636b60d01b6088820152600090608e0160408051601f1981840301815291815281516020928301206000818152600690935291205490915060ff16156111315760405162461bcd60e51b8152600401610524906119ef565b61113c81848461127b565b6000818152600660209081526040808320805460ff191660011790556001600160a01b0389168352600290915290205460ff166111b15760405162461bcd60e51b8152602060048201526013602482015272151bdad95b881b9bdd081cdd5c1c1bdc9d1959606a1b6044820152606401610524565b60405163a9059cbb60e01b81526001600160a01b0388811660048301526024820187905287169063a9059cbb906044016020604051808303816000875af1158015611200573d6000803e3d6000fd5b505050506040513d601f19601f820116820180604052508101906112249190611aaf565b50856001600160a01b0316876001600160a01b03167fece684e11f49f06d351439e63189ad1703238b8040d90cf994901ca2b3da8d448760405161126a91815260200190565b60405180910390a350505050505050565b6005548110156112c55760405162461bcd60e51b81526020600482015260156024820152744e6f7420656e6f756768207369676e61747572657360581b6044820152606401610524565b60008167ffffffffffffffff8111156112e0576112e0611acc565b604051908082528060200260200182016040528015611309578160200160208202803683370190505b50905060005b828110156114a057600061137b8686868581811061132f5761132f611ae2565b90506020028101906113419190611af8565b8080601f01602080910402602001604051908101604052809392919081815260200183838082843760009201919091525061152492505050565b6001600160a01b03811660009081526004602052604090205490915060ff166113d75760405162461bcd60e51b815260206004820152600e60248201526d24b73b30b634b21039b4b3b732b960911b6044820152606401610524565b60005b8281101561146157816001600160a01b03168482815181106113fe576113fe611ae2565b60200260200101516001600160a01b03160361144f5760405162461bcd60e51b815260206004820152601060248201526f223ab83634b1b0ba329039b4b3b732b960811b6044820152606401610524565b8061145981611b55565b9150506113da565b508083838151811061147557611475611ae2565b6001600160a01b0390921660209283029190910190910152508061149881611b55565b91505061130f565b5050505050565b6000546001600160a01b03163314610c1c5760405163118cdaa760e01b8152336004820152602401610524565b600080546001600160a01b038381166001600160a01b0319831681178455604051919092169283917f8be0079c531659141344cd1fd0a4f28419497f9722a3daafe3b4186f6b6457e09190a35050565b600081516041146115775760405162461bcd60e51b815260206004820152601860248201527f496e76616c6964207369676e6174757265206c656e67746800000000000000006044820152606401610524565b60208201516040830151606084015160001a601b8110156115a05761159d601b82611b6e565b90505b8060ff16601b14806115b557508060ff16601c145b6116015760405162461bcd60e51b815260206004820152601b60248201527f496e76616c6964207369676e6174757265202776272076616c756500000000006044820152606401610524565b6040517f19457468657265756d205369676e6564204d6573736167653a0a3332000000006020820152603c8101879052600090605c0160408051601f1981840301815282825280516020918201206000845290830180835281905260ff8516918301919091526060820186905260808201859052915060019060a0016020604051602081039080840390855afa15801561169f573d6000803e3d6000fd5b505050602060405103519450505050505b92915050565b80356001600160a01b03811681146116cd57600080fd5b919050565b60008083601f8401126116e457600080fd5b50813567ffffffffffffffff8111156116fc57600080fd5b60208301915083602082850101111561171457600080fd5b9250929050565b60008083601f84011261172d57600080fd5b50813567ffffffffffffffff81111561174557600080fd5b6020830191508360208260051b850101111561171457600080fd5b6000806000806000806080878903121561177957600080fd5b611782876116b6565b9550602087013567ffffffffffffffff8082111561179f57600080fd5b6117ab8a838b016116d2565b90975095506040890135945060608901359150808211156117cb57600080fd5b506117d889828a0161171b565b979a9699509497509295939492505050565b60008060008060008060a0878903121561180357600080fd5b61180c876116b6565b955061181a602088016116b6565b94506040870135935060608701359250608087013567ffffffffffffffff81111561184457600080fd5b6117d889828a0161171b565b60008060006040848603121561186557600080fd5b833567ffffffffffffffff81111561187c57600080fd5b611888868287016116d2565b909790965060209590950135949350505050565b6000602082840312156118ae57600080fd5b6118b7826116b6565b9392505050565b6000806000606084860312156118d357600080fd5b6118dc846116b6565b95602085013595506040909401359392505050565b60006020828403121561190357600080fd5b5035919050565b801515811461104a57600080fd5b60008060006060848603121561192d57600080fd5b611936846116b6565b925060208401356119468161190a565b9150611954604085016116b6565b90509250925092565b6000806040838503121561197057600080fd5b82359150611980602084016116b6565b90509250929050565b6020808252600f908201526e10dbdb9d1c9858dd081c185d5cd959608a1b604082015260600190565b6bffffffffffffffffffffffff198560601b168152828460148301376014920191820152666d65737361676560c81b6034820152603b0192915050565b60208082526017908201527f5369676e61747572657320616c72656164792075736564000000000000000000604082015260600190565b8183823760009101908152919050565b81835281816020850137506000828201602090810191909152601f909101601f19169091010190565b848152606060208201526000611a79606083018587611a36565b9050821515604083015295945050505050565b838152604060208201526000611aa6604083018486611a36565b95945050505050565b600060208284031215611ac157600080fd5b81516118b78161190a565b634e487b7160e01b600052604160045260246000fd5b634e487b7160e01b600052603260045260246000fd5b6000808335601e19843603018112611b0f57600080fd5b83018035915067ffffffffffffffff821115611b2a57600080fd5b60200191503681900382131561171457600080fd5b634e487b7160e01b600052601160045260246000fd5b600060018201611b6757611b67611b3f565b5060010190565b60ff81811683821601908111156116b0576116b0611b3f56fea2646970667358221220553d622c3921757fdcb223df0de0afbb1327ae6188289e177a938cded0a7bab864736f6c63430008140033","opcodes":"PUSH1 0x80 PUSH1 0x40 MSTORE CALLVALUE DUP1 ISZERO PUSH3 0x11 JUMPI PUSH1 0x0 DUP1 REVERT JUMPDEST POP PUSH1 0x40 MLOAD PUSH3 0x1F00 CODESIZE SUB DUP1 PUSH3 0x1F00 DUP4 CODECOPY DUP2 ADD PUSH1 0x40 DUP2 SWAP1 MSTORE PUSH3 0x34 SWAP2 PUSH3 0x203 JUMP JUMPDEST DUP3 PUSH1 0x1 PUSH1 0x1 PUSH1 0xA0 SHL SUB DUP2 AND PUSH3 0x64 JUMPI PUSH1 0x40 MLOAD PUSH4 0x1E4FBDF7 PUSH1 0xE0 SHL DUP2 MSTORE PUSH1 0x0 PUSH1 0x4 DUP3 ADD MSTORE PUSH1 0x24 ADD PUSH1 0x40 MLOAD DUP1 SWAP2 SUB SWAP1 REVERT JUMPDEST PUSH3 0x6F DUP2 PUSH3 0x180 JUMP JUMPDEST POP PUSH1 0x0 JUMPDEST DUP3 MLOAD DUP2 LT ISZERO PUSH3 0x13E JUMPI PUSH1 0x1 PUSH1 0x4 PUSH1 0x0 DUP6 DUP5 DUP2 MLOAD DUP2 LT PUSH3 0x98 JUMPI PUSH3 0x98 PUSH3 0x2F5 JUMP JUMPDEST PUSH1 0x20 MUL PUSH1 0x20 ADD ADD MLOAD PUSH1 0x1 PUSH1 0x1 PUSH1 0xA0 SHL SUB AND PUSH1 0x1 PUSH1 0x1 PUSH1 0xA0 SHL SUB AND DUP2 MSTORE PUSH1 0x20 ADD SWAP1 DUP2 MSTORE PUSH1 0x20 ADD PUSH1 0x0 KECCAK256 PUSH1 0x0 PUSH2 0x100 EXP DUP2 SLOAD DUP2 PUSH1 0xFF MUL NOT AND SWAP1 DUP4 ISZERO ISZERO MUL OR SWAP1 SSTORE POP DUP3 DUP2 DUP2 MLOAD DUP2 LT PUSH3 0xEC JUMPI PUSH3 0xEC PUSH3 0x2F5 JUMP JUMPDEST PUSH1 0x20 MUL PUSH1 0x20 ADD ADD MLOAD PUSH1 0x1 PUSH1 0x1 PUSH1 0xA0 SHL SUB AND PUSH32 0x3580EE9F53A62B7CB409A2CB56F9BE87747DD15017AFC5CEF6EEF321E4FB2C5 PUSH1 0x40 MLOAD PUSH1 0x40 MLOAD DUP1 SWAP2 SUB SWAP1 LOG2 DUP1 PUSH3 0x135 DUP2 PUSH3 0x30B JUMP JUMPDEST SWAP2 POP POP PUSH3 0x73 JUMP JUMPDEST POP PUSH1 0x5 DUP2 SWAP1 SSTORE PUSH1 0x40 MLOAD DUP2 DUP2 MSTORE PUSH32 0x43962F2B9B1B5D7BC7AA699F45AF8972A254523862B8F5070842293DEB3AA036 SWAP1 PUSH1 0x20 ADD PUSH1 0x40 MLOAD DUP1 SWAP2 SUB SWAP1 LOG1 POP POP POP PUSH3 0x333 JUMP JUMPDEST PUSH1 0x0 DUP1 SLOAD PUSH1 0x1 PUSH1 0x1 PUSH1 0xA0 SHL SUB DUP4 DUP2 AND PUSH1 0x1 PUSH1 0x1 PUSH1 0xA0 SHL SUB NOT DUP4 AND DUP2 OR DUP5 SSTORE PUSH1 0x40 MLOAD SWAP2 SWAP1 SWAP3 AND SWAP3 DUP4 SWAP2 PUSH32 0x8BE0079C531659141344CD1FD0A4F28419497F9722A3DAAFE3B4186F6B6457E0 SWAP2 SWAP1 LOG3 POP POP JUMP JUMPDEST DUP1 MLOAD PUSH1 0x1 PUSH1 0x1 PUSH1 0xA0 SHL SUB DUP2 AND DUP2 EQ PUSH3 0x1E8 JUMPI PUSH1 0x0 DUP1 REVERT JUMPDEST SWAP2 SWAP1 POP JUMP JUMPDEST PUSH4 0x4E487B71 PUSH1 0xE0 SHL PUSH1 0x0 MSTORE PUSH1 0x41 PUSH1 0x4 MSTORE PUSH1 0x24 PUSH1 0x0 REVERT JUMPDEST PUSH1 0x0 DUP1 PUSH1 0x0 PUSH1 0x60 DUP5 DUP7 SUB SLT ISZERO PUSH3 0x219 JUMPI PUSH1 0x0 DUP1 REVERT JUMPDEST PUSH3 0x224 DUP5 PUSH3 0x1D0 JUMP JUMPDEST PUSH1 0x20 DUP6 DUP2 ADD MLOAD SWAP2 SWAP5 POP SWAP1 PUSH1 0x1 PUSH1 0x1 PUSH1 0x40 SHL SUB DUP1 DUP3 GT ISZERO PUSH3 0x244 JUMPI PUSH1 0x0 DUP1 REVERT JUMPDEST DUP2 DUP8 ADD SWAP2 POP DUP8 PUSH1 0x1F DUP4 ADD SLT PUSH3 0x259 JUMPI PUSH1 0x0 DUP1 REVERT JUMPDEST DUP2 MLOAD DUP2 DUP2 GT ISZERO PUSH3 0x26E JUMPI PUSH3 0x26E PUSH3 0x1ED JUMP JUMPDEST DUP1 PUSH1 0x5 SHL PUSH1 0x40 MLOAD PUSH1 0x1F NOT PUSH1 0x3F DUP4 ADD AND DUP2 ADD DUP2 DUP2 LT DUP6 DUP3 GT OR ISZERO PUSH3 0x296 JUMPI PUSH3 0x296 PUSH3 0x1ED JUMP JUMPDEST PUSH1 0x40 MSTORE SWAP2 DUP3 MSTORE DUP5 DUP3 ADD SWAP3 POP DUP4 DUP2 ADD DUP6 ADD SWAP2 DUP11 DUP4 GT ISZERO PUSH3 0x2B5 JUMPI PUSH1 0x0 DUP1 REVERT JUMPDEST SWAP4 DUP6 ADD SWAP4 JUMPDEST DUP3 DUP6 LT ISZERO PUSH3 0x2DE JUMPI PUSH3 0x2CE DUP6 PUSH3 0x1D0 JUMP JUMPDEST DUP5 MSTORE SWAP4 DUP6 ADD SWAP4 SWAP3 DUP6 ADD SWAP3 PUSH3 0x2BA JUMP JUMPDEST DUP1 SWAP8 POP POP POP POP POP POP POP PUSH1 0x40 DUP5 ADD MLOAD SWAP1 POP SWAP3 POP SWAP3 POP SWAP3 JUMP JUMPDEST PUSH4 0x4E487B71 PUSH1 0xE0 SHL PUSH1 0x0 MSTORE PUSH1 0x32 PUSH1 0x4 MSTORE PUSH1 0x24 PUSH1 0x0 REVERT JUMPDEST PUSH1 0x0 PUSH1 0x1 DUP3 ADD PUSH3 0x32C JUMPI PUSH4 0x4E487B71 PUSH1 0xE0 SHL PUSH1 0x0 MSTORE PUSH1 0x11 PUSH1 0x4 MSTORE PUSH1 0x24 PUSH1 0x0 REVERT JUMPDEST POP PUSH1 0x1 ADD SWAP1 JUMP JUMPDEST PUSH2 0x1BBD DUP1 PUSH3 0x343 PUSH1 0x0 CODECOPY PUSH1 0x0 RETURN INVALID PUSH1 0x80 PUSH1 0x40 MSTORE PUSH1 0x4 CALLDATASIZE LT PUSH2 0x16A JUMPI PUSH1 0x0 CALLDATALOAD PUSH1 0xE0 SHR DUP1 PUSH4 0x8456CB59 GT PUSH2 0xD1 JUMPI DUP1 PUSH4 0xD76EB7FB GT PUSH2 0x8A JUMPI DUP1 PUSH4 0xF2FDE38B GT PUSH2 0x64 JUMPI DUP1 PUSH4 0xF2FDE38B EQ PUSH2 0x471 JUMPI DUP1 PUSH4 0xF3283FBA EQ PUSH2 0x491 JUMPI DUP1 PUSH4 0xF860C712 EQ PUSH2 0x4B1 JUMPI DUP1 PUSH4 0xF978FD61 EQ PUSH2 0x4D1 JUMPI PUSH1 0x0 DUP1 REVERT JUMPDEST DUP1 PUSH4 0xD76EB7FB EQ PUSH2 0x3FB JUMPI DUP1 PUSH4 0xDD39F00D EQ PUSH2 0x431 JUMPI DUP1 PUSH4 0xF06FC103 EQ PUSH2 0x451 JUMPI PUSH1 0x0 DUP1 REVERT JUMPDEST DUP1 PUSH4 0x8456CB59 EQ PUSH2 0x344 JUMPI DUP1 PUSH4 0x8DA5CB5B EQ PUSH2 0x359 JUMPI DUP1 PUSH4 0x9660C51E EQ PUSH2 0x377 JUMPI DUP1 PUSH4 0xA82F2E26 EQ PUSH2 0x397 JUMPI DUP1 PUSH4 0xBBDE5374 EQ PUSH2 0x3BB JUMPI DUP1 PUSH4 0xCA19B65B EQ PUSH2 0x3DB JUMPI PUSH1 0x0 DUP1 REVERT JUMPDEST DUP1 PUSH4 0x5C975ABB GT PUSH2 0x123 JUMPI DUP1 PUSH4 0x5C975ABB EQ PUSH2 0x26F JUMPI DUP1 PUSH4 0x60F0A5AC EQ PUSH2 0x289 JUMPI DUP1 PUSH4 0x628EFCD7 EQ PUSH2 0x2A9 JUMPI DUP1 PUSH4 0x64C17056 EQ PUSH2 0x2C9 JUMPI DUP1 PUSH4 0x68C4AC26 EQ PUSH2 0x2FF JUMPI DUP1 PUSH4 0x715018A6 EQ PUSH2 0x32F JUMPI PUSH1 0x0 DUP1 REVERT JUMPDEST DUP1 PUSH4 0x1393D90B EQ PUSH2 0x176 JUMPI DUP1 PUSH4 0x171CA482 EQ PUSH2 0x198 JUMPI DUP1 PUSH4 0x2F2F7F27 EQ PUSH2 0x1B8 JUMPI DUP1 PUSH4 0x3F4BA83A EQ PUSH2 0x1D8 JUMPI DUP1 PUSH4 0x4783C35B EQ PUSH2 0x1ED JUMPI DUP1 PUSH4 0x541D5548 EQ PUSH2 0x22F JUMPI PUSH1 0x0 DUP1 REVERT JUMPDEST CALLDATASIZE PUSH2 0x171 JUMPI STOP JUMPDEST PUSH1 0x0 DUP1 REVERT JUMPDEST CALLVALUE DUP1 ISZERO PUSH2 0x182 JUMPI PUSH1 0x0 DUP1 REVERT JUMPDEST POP PUSH2 0x196 PUSH2 0x191 CALLDATASIZE PUSH1 0x4 PUSH2 0x1760 JUMP JUMPDEST PUSH2 0x501 JUMP JUMPDEST STOP JUMPDEST CALLVALUE DUP1 ISZERO PUSH2 0x1A4 JUMPI PUSH1 0x0 DUP1 REVERT JUMPDEST POP PUSH2 0x196 PUSH2 0x1B3 CALLDATASIZE PUSH1 0x4 PUSH2 0x17EA JUMP JUMPDEST PUSH2 0x66D JUMP JUMPDEST CALLVALUE DUP1 ISZERO PUSH2 0x1C4 JUMPI PUSH1 0x0 DUP1 REVERT JUMPDEST POP PUSH2 0x196 PUSH2 0x1D3 CALLDATASIZE PUSH1 0x4 PUSH2 0x1850 JUMP JUMPDEST PUSH2 0x854 JUMP JUMPDEST CALLVALUE DUP1 ISZERO PUSH2 0x1E4 JUMPI PUSH1 0x0 DUP1 REVERT JUMPDEST POP PUSH2 0x196 PUSH2 0x917 JUMP JUMPDEST CALLVALUE DUP1 ISZERO PUSH2 0x1F9 JUMPI PUSH1 0x0 DUP1 REVERT JUMPDEST POP PUSH1 0x7 SLOAD PUSH2 0x212 SWAP1 PUSH2 0x100 SWAP1 DIV PUSH1 0x1 PUSH1 0x1 PUSH1 0xA0 SHL SUB AND DUP2 JUMP JUMPDEST PUSH1 0x40 MLOAD PUSH1 0x1 PUSH1 0x1 PUSH1 0xA0 SHL SUB SWAP1 SWAP2 AND DUP2 MSTORE PUSH1 0x20 ADD JUMPDEST PUSH1 0x40 MLOAD DUP1 SWAP2 SUB SWAP1 RETURN JUMPDEST CALLVALUE DUP1 ISZERO PUSH2 0x23B JUMPI PUSH1 0x0 DUP1 REVERT JUMPDEST POP PUSH2 0x25F PUSH2 0x24A CALLDATASIZE PUSH1 0x4 PUSH2 0x189C JUMP JUMPDEST PUSH1 0x4 PUSH1 0x20 MSTORE PUSH1 0x0 SWAP1 DUP2 MSTORE PUSH1 0x40 SWAP1 KECCAK256 SLOAD PUSH1 0xFF AND DUP2 JUMP JUMPDEST PUSH1 0x40 MLOAD SWAP1 ISZERO ISZERO DUP2 MSTORE PUSH1 0x20 ADD PUSH2 0x226 JUMP JUMPDEST CALLVALUE DUP1 ISZERO PUSH2 0x27B JUMPI PUSH1 0x0 DUP1 REVERT JUMPDEST POP PUSH1 0x7 SLOAD PUSH2 0x25F SWAP1 PUSH1 0xFF AND DUP2 JUMP JUMPDEST CALLVALUE DUP1 ISZERO PUSH2 0x295 JUMPI PUSH1 0x0 DUP1 REVERT JUMPDEST POP PUSH2 0x196 PUSH2 0x2A4 CALLDATASIZE PUSH1 0x4 PUSH2 0x189C JUMP JUMPDEST PUSH2 0x9B3 JUMP JUMPDEST CALLVALUE DUP1 ISZERO PUSH2 0x2B5 JUMPI PUSH1 0x0 DUP1 REVERT JUMPDEST POP PUSH2 0x196 PUSH2 0x2C4 CALLDATASIZE PUSH1 0x4 PUSH2 0x18BE JUMP JUMPDEST PUSH2 0xA5C JUMP JUMPDEST CALLVALUE DUP1 ISZERO PUSH2 0x2D5 JUMPI PUSH1 0x0 DUP1 REVERT JUMPDEST POP PUSH2 0x212 PUSH2 0x2E4 CALLDATASIZE PUSH1 0x4 PUSH2 0x18F1 JUMP JUMPDEST PUSH1 0x1 PUSH1 0x20 MSTORE PUSH1 0x0 SWAP1 DUP2 MSTORE PUSH1 0x40 SWAP1 KECCAK256 SLOAD PUSH1 0x1 PUSH1 0x1 PUSH1 0xA0 SHL SUB AND DUP2 JUMP JUMPDEST CALLVALUE DUP1 ISZERO PUSH2 0x30B JUMPI PUSH1 0x0 DUP1 REVERT JUMPDEST POP PUSH2 0x25F PUSH2 0x31A CALLDATASIZE PUSH1 0x4 PUSH2 0x189C JUMP JUMPDEST PUSH1 0x2 PUSH1 0x20 MSTORE PUSH1 0x0 SWAP1 DUP2 MSTORE PUSH1 0x40 SWAP1 KECCAK256 SLOAD PUSH1 0xFF AND DUP2 JUMP JUMPDEST CALLVALUE DUP1 ISZERO PUSH2 0x33B JUMPI PUSH1 0x0 DUP1 REVERT JUMPDEST POP PUSH2 0x196 PUSH2 0xC0A JUMP JUMPDEST CALLVALUE DUP1 ISZERO PUSH2 0x350 JUMPI PUSH1 0x0 DUP1 REVERT JUMPDEST POP PUSH2 0x196 PUSH2 0xC1E JUMP JUMPDEST CALLVALUE DUP1 ISZERO PUSH2 0x365 JUMPI PUSH1 0x0 DUP1 REVERT JUMPDEST POP PUSH1 0x0 SLOAD PUSH1 0x1 PUSH1 0x1 PUSH1 0xA0 SHL SUB AND PUSH2 0x212 JUMP JUMPDEST CALLVALUE DUP1 ISZERO PUSH2 0x383 JUMPI PUSH1 0x0 DUP1 REVERT JUMPDEST POP PUSH2 0x196 PUSH2 0x392 CALLDATASIZE PUSH1 0x4 PUSH2 0x1918 JUMP JUMPDEST PUSH2 0xCBD JUMP JUMPDEST CALLVALUE DUP1 ISZERO PUSH2 0x3A3 JUMPI PUSH1 0x0 DUP1 REVERT JUMPDEST POP PUSH2 0x3AD PUSH1 0x5 SLOAD DUP2 JUMP JUMPDEST PUSH1 0x40 MLOAD SWAP1 DUP2 MSTORE PUSH1 0x20 ADD PUSH2 0x226 JUMP JUMPDEST CALLVALUE DUP1 ISZERO PUSH2 0x3C7 JUMPI PUSH1 0x0 DUP1 REVERT JUMPDEST POP PUSH2 0x196 PUSH2 0x3D6 CALLDATASIZE PUSH1 0x4 PUSH2 0x18F1 JUMP JUMPDEST PUSH2 0xD4B JUMP JUMPDEST CALLVALUE DUP1 ISZERO PUSH2 0x3E7 JUMPI PUSH1 0x0 DUP1 REVERT JUMPDEST POP PUSH2 0x196 PUSH2 0x3F6 CALLDATASIZE PUSH1 0x4 PUSH2 0x195D JUMP JUMPDEST PUSH2 0xD8E JUMP JUMPDEST CALLVALUE DUP1 ISZERO PUSH2 0x407 JUMPI PUSH1 0x0 DUP1 REVERT JUMPDEST POP PUSH2 0x212 PUSH2 0x416 CALLDATASIZE PUSH1 0x4 PUSH2 0x189C JUMP JUMPDEST PUSH1 0x3 PUSH1 0x20 MSTORE PUSH1 0x0 SWAP1 DUP2 MSTORE PUSH1 0x40 SWAP1 KECCAK256 SLOAD PUSH1 0x1 PUSH1 0x1 PUSH1 0xA0 SHL SUB AND DUP2 JUMP JUMPDEST CALLVALUE DUP1 ISZERO PUSH2 0x43D JUMPI PUSH1 0x0 DUP1 REVERT JUMPDEST POP PUSH2 0x196 PUSH2 0x44C CALLDATASIZE PUSH1 0x4 PUSH2 0x189C JUMP JUMPDEST PUSH2 0xDC4 JUMP JUMPDEST CALLVALUE DUP1 ISZERO PUSH2 0x45D JUMPI PUSH1 0x0 DUP1 REVERT JUMPDEST POP PUSH2 0x196 PUSH2 0x46C CALLDATASIZE PUSH1 0x4 PUSH2 0x18BE JUMP JUMPDEST PUSH2 0xE75 JUMP JUMPDEST CALLVALUE DUP1 ISZERO PUSH2 0x47D JUMPI PUSH1 0x0 DUP1 REVERT JUMPDEST POP PUSH2 0x196 PUSH2 0x48C CALLDATASIZE PUSH1 0x4 PUSH2 0x189C JUMP JUMPDEST PUSH2 0x100F JUMP JUMPDEST CALLVALUE DUP1 ISZERO PUSH2 0x49D JUMPI PUSH1 0x0 DUP1 REVERT JUMPDEST POP PUSH2 0x196 PUSH2 0x4AC CALLDATASIZE PUSH1 0x4 PUSH2 0x189C JUMP JUMPDEST PUSH2 0x104D JUMP JUMPDEST CALLVALUE DUP1 ISZERO PUSH2 0x4BD JUMPI PUSH1 0x0 DUP1 REVERT JUMPDEST POP PUSH2 0x196 PUSH2 0x4CC CALLDATASIZE PUSH1 0x4 PUSH2 0x17EA JUMP JUMPDEST PUSH2 0x107D JUMP JUMPDEST CALLVALUE DUP1 ISZERO PUSH2 0x4DD JUMPI PUSH1 0x0 DUP1 REVERT JUMPDEST POP PUSH2 0x25F PUSH2 0x4EC CALLDATASIZE PUSH1 0x4 PUSH2 0x18F1 JUMP JUMPDEST PUSH1 0x6 PUSH1 0x20 MSTORE PUSH1 0x0 SWAP1 DUP2 MSTORE PUSH1 0x40 SWAP1 KECCAK256 SLOAD PUSH1 0xFF AND DUP2 JUMP JUMPDEST PUSH1 0x7 SLOAD PUSH1 0xFF AND ISZERO PUSH2 0x52D JUMPI PUSH1 0x40 MLOAD PUSH3 0x461BCD PUSH1 0xE5 SHL DUP2 MSTORE PUSH1 0x4 ADD PUSH2 0x524 SWAP1 PUSH2 0x1989 JUMP JUMPDEST PUSH1 0x40 MLOAD DUP1 SWAP2 SUB SWAP1 REVERT JUMPDEST PUSH1 0x0 DUP7 DUP7 DUP7 DUP7 PUSH1 0x40 MLOAD PUSH1 0x20 ADD PUSH2 0x546 SWAP5 SWAP4 SWAP3 SWAP2 SWAP1 PUSH2 0x19B2 JUMP JUMPDEST PUSH1 0x40 DUP1 MLOAD PUSH1 0x1F NOT DUP2 DUP5 SUB ADD DUP2 MSTORE SWAP2 DUP2 MSTORE DUP2 MLOAD PUSH1 0x20 SWAP3 DUP4 ADD KECCAK256 PUSH1 0x0 DUP2 DUP2 MSTORE PUSH1 0x6 SWAP1 SWAP4 MSTORE SWAP2 KECCAK256 SLOAD SWAP1 SWAP2 POP PUSH1 0xFF AND ISZERO PUSH2 0x58E JUMPI PUSH1 0x40 MLOAD PUSH3 0x461BCD PUSH1 0xE5 SHL DUP2 MSTORE PUSH1 0x4 ADD PUSH2 0x524 SWAP1 PUSH2 0x19EF JUMP JUMPDEST PUSH2 0x599 DUP2 DUP5 DUP5 PUSH2 0x127B JUMP JUMPDEST PUSH1 0x0 DUP2 DUP2 MSTORE PUSH1 0x6 PUSH1 0x20 MSTORE PUSH1 0x40 DUP1 DUP3 KECCAK256 DUP1 SLOAD PUSH1 0xFF NOT AND PUSH1 0x1 OR SWAP1 SSTORE MLOAD PUSH1 0x1 PUSH1 0x1 PUSH1 0xA0 SHL SUB DUP10 AND SWAP1 PUSH2 0x5CC SWAP1 DUP10 SWAP1 DUP10 SWAP1 PUSH2 0x1A26 JUMP JUMPDEST PUSH1 0x0 PUSH1 0x40 MLOAD DUP1 DUP4 SUB DUP2 PUSH1 0x0 DUP7 GAS CALL SWAP2 POP POP RETURNDATASIZE DUP1 PUSH1 0x0 DUP2 EQ PUSH2 0x609 JUMPI PUSH1 0x40 MLOAD SWAP2 POP PUSH1 0x1F NOT PUSH1 0x3F RETURNDATASIZE ADD AND DUP3 ADD PUSH1 0x40 MSTORE RETURNDATASIZE DUP3 MSTORE RETURNDATASIZE PUSH1 0x0 PUSH1 0x20 DUP5 ADD RETURNDATACOPY PUSH2 0x60E JUMP JUMPDEST PUSH1 0x60 SWAP2 POP JUMPDEST POP POP SWAP1 POP DUP8 PUSH1 0x1 PUSH1 0x1 PUSH1 0xA0 SHL SUB AND CALLER PUSH1 0x1 PUSH1 0x1 PUSH1 0xA0 SHL SUB AND PUSH32 0x5C6E62797A349FBCB616023CFC6B2EA44DBF68582F1D34F63C84D24B277F7C14 DUP8 DUP11 DUP11 DUP7 PUSH1 0x40 MLOAD PUSH2 0x65B SWAP5 SWAP4 SWAP3 SWAP2 SWAP1 PUSH2 0x1A5F JUMP JUMPDEST PUSH1 0x40 MLOAD DUP1 SWAP2 SUB SWAP1 LOG3 POP POP POP POP POP POP POP POP JUMP JUMPDEST PUSH1 0x7 SLOAD PUSH1 0xFF AND ISZERO PUSH2 0x690 JUMPI PUSH1 0x40 MLOAD PUSH3 0x461BCD PUSH1 0xE5 SHL DUP2 MSTORE PUSH1 0x4 ADD PUSH2 0x524 SWAP1 PUSH2 0x1989 JUMP JUMPDEST PUSH1 0x40 MLOAD PUSH12 0xFFFFFFFFFFFFFFFFFFFFFFFF NOT PUSH1 0x60 DUP9 DUP2 SHL DUP3 AND PUSH1 0x20 DUP5 ADD MSTORE DUP8 SWAP1 SHL AND PUSH1 0x34 DUP3 ADD MSTORE PUSH1 0x48 DUP2 ADD DUP6 SWAP1 MSTORE PUSH1 0x68 DUP2 ADD DUP5 SWAP1 MSTORE PUSH7 0x72656365697665 PUSH1 0xC8 SHL PUSH1 0x88 DUP3 ADD MSTORE PUSH1 0x0 SWAP1 PUSH1 0x8F ADD PUSH1 0x40 DUP1 MLOAD PUSH1 0x1F NOT DUP2 DUP5 SUB ADD DUP2 MSTORE SWAP2 DUP2 MSTORE DUP2 MLOAD PUSH1 0x20 SWAP3 DUP4 ADD KECCAK256 PUSH1 0x0 DUP2 DUP2 MSTORE PUSH1 0x6 SWAP1 SWAP4 MSTORE SWAP2 KECCAK256 SLOAD SWAP1 SWAP2 POP PUSH1 0xFF AND ISZERO PUSH2 0x722 JUMPI PUSH1 0x40 MLOAD PUSH3 0x461BCD PUSH1 0xE5 SHL DUP2 MSTORE PUSH1 0x4 ADD PUSH2 0x524 SWAP1 PUSH2 0x19EF JUMP JUMPDEST PUSH2 0x72D DUP2 DUP5 DUP5 PUSH2 0x127B JUMP JUMPDEST PUSH1 0x0 DUP2 DUP2 MSTORE PUSH1 0x6 PUSH1 0x20 SWAP1 DUP2 MSTORE PUSH1 0x40 DUP1 DUP4 KECCAK256 DUP1 SLOAD PUSH1 0xFF NOT AND PUSH1 0x1 OR SWAP1 SSTORE PUSH1 0x1 PUSH1 0x1 PUSH1 0xA0 SHL SUB DUP1 DUP11 AND DUP5 MSTORE PUSH1 0x3 SWAP1 SWAP3 MSTORE SWAP1 SWAP2 KECCAK256 SLOAD AND DUP1 PUSH2 0x7AD JUMPI PUSH1 0x40 MLOAD PUSH3 0x461BCD PUSH1 0xE5 SHL DUP2 MSTORE PUSH1 0x20 PUSH1 0x4 DUP3 ADD MSTORE PUSH1 0x17 PUSH1 0x24 DUP3 ADD MSTORE PUSH32 0x5772617070656420746F6B656E206E6F7420666F756E64000000000000000000 PUSH1 0x44 DUP3 ADD MSTORE PUSH1 0x64 ADD PUSH2 0x524 JUMP JUMPDEST PUSH1 0x40 MLOAD PUSH4 0x40C10F19 PUSH1 0xE0 SHL DUP2 MSTORE PUSH1 0x1 PUSH1 0x1 PUSH1 0xA0 SHL SUB DUP10 DUP2 AND PUSH1 0x4 DUP4 ADD MSTORE PUSH1 0x24 DUP3 ADD DUP9 SWAP1 MSTORE DUP3 AND SWAP1 PUSH4 0x40C10F19 SWAP1 PUSH1 0x44 ADD PUSH1 0x0 PUSH1 0x40 MLOAD DUP1 DUP4 SUB DUP2 PUSH1 0x0 DUP8 DUP1 EXTCODESIZE ISZERO DUP1 ISZERO PUSH2 0x7F7 JUMPI PUSH1 0x0 DUP1 REVERT JUMPDEST POP GAS CALL ISZERO DUP1 ISZERO PUSH2 0x80B JUMPI RETURNDATASIZE PUSH1 0x0 DUP1 RETURNDATACOPY RETURNDATASIZE PUSH1 0x0 REVERT JUMPDEST POP POP PUSH1 0x40 DUP1 MLOAD DUP10 DUP2 MSTORE PUSH1 0x20 DUP2 ADD DUP10 SWAP1 MSTORE PUSH1 0x1 PUSH1 0x1 PUSH1 0xA0 SHL SUB DUP1 DUP13 AND SWAP5 POP DUP13 AND SWAP3 POP PUSH32 0x46BA4E1E95FC9F44608739FFAEE40C318F667C56E4BA6E3D0AA80B803768B915 SWAP2 ADD PUSH2 0x65B JUMP JUMPDEST PUSH1 0x7 SLOAD PUSH1 0xFF AND ISZERO PUSH2 0x877 JUMPI PUSH1 0x40 MLOAD PUSH3 0x461BCD PUSH1 0xE5 SHL DUP2 MSTORE PUSH1 0x4 ADD PUSH2 0x524 SWAP1 PUSH2 0x1989 JUMP JUMPDEST PUSH1 0x0 DUP2 DUP2 MSTORE PUSH1 0x1 PUSH1 0x20 MSTORE PUSH1 0x40 SWAP1 KECCAK256 SLOAD PUSH1 0x1 PUSH1 0x1 PUSH1 0xA0 SHL SUB AND PUSH2 0x8CD JUMPI PUSH1 0x40 MLOAD PUSH3 0x461BCD PUSH1 0xE5 SHL DUP2 MSTORE PUSH1 0x20 PUSH1 0x4 DUP3 ADD MSTORE PUSH1 0xF PUSH1 0x24 DUP3 ADD MSTORE PUSH15 0x11D85D195DD85E481B9BDD081CD95D PUSH1 0x8A SHL PUSH1 0x44 DUP3 ADD MSTORE PUSH1 0x64 ADD PUSH2 0x524 JUMP JUMPDEST CALLER PUSH1 0x1 PUSH1 0x1 PUSH1 0xA0 SHL SUB AND PUSH32 0xA0A630E297EE9FCCE0A89079BAE0DB692F5137271EF7D89FE33C4A5B86F2CC46 DUP3 DUP6 DUP6 PUSH1 0x40 MLOAD PUSH2 0x90A SWAP4 SWAP3 SWAP2 SWAP1 PUSH2 0x1A8C JUMP JUMPDEST PUSH1 0x40 MLOAD DUP1 SWAP2 SUB SWAP1 LOG2 POP POP POP JUMP JUMPDEST PUSH1 0x0 SLOAD PUSH1 0x1 PUSH1 0x1 PUSH1 0xA0 SHL SUB AND CALLER EQ DUP1 PUSH2 0x93F JUMPI POP PUSH1 0x7 SLOAD PUSH2 0x100 SWAP1 DIV PUSH1 0x1 PUSH1 0x1 PUSH1 0xA0 SHL SUB AND CALLER EQ JUMPDEST PUSH2 0x97C JUMPI PUSH1 0x40 MLOAD PUSH3 0x461BCD PUSH1 0xE5 SHL DUP2 MSTORE PUSH1 0x20 PUSH1 0x4 DUP3 ADD MSTORE PUSH1 0xE PUSH1 0x24 DUP3 ADD MSTORE PUSH14 0x1B9BDD08185D5D1A1BDC9A5E9959 PUSH1 0x92 SHL PUSH1 0x44 DUP3 ADD MSTORE PUSH1 0x64 ADD PUSH2 0x524 JUMP JUMPDEST PUSH1 0x7 DUP1 SLOAD PUSH1 0xFF NOT AND SWAP1 SSTORE PUSH1 0x40 MLOAD CALLER SWAP1 PUSH32 0x5DB9EE0A495BF2E6FF9C91A7834C1BA4FDD244A5E8AA4E537BD38AEAE4B073AA SWAP1 PUSH1 0x0 SWAP1 LOG2 JUMP JUMPDEST PUSH2 0x9BB PUSH2 0x14A7 JUMP JUMPDEST PUSH1 0x1 PUSH1 0x1 PUSH1 0xA0 SHL SUB DUP2 AND PUSH1 0x0 SWAP1 DUP2 MSTORE PUSH1 0x4 PUSH1 0x20 MSTORE PUSH1 0x40 SWAP1 KECCAK256 SLOAD PUSH1 0xFF AND PUSH2 0xA13 JUMPI PUSH1 0x40 MLOAD PUSH3 0x461BCD PUSH1 0xE5 SHL DUP2 MSTORE PUSH1 0x20 PUSH1 0x4 DUP3 ADD MSTORE PUSH1 0xD PUSH1 0x24 DUP3 ADD MSTORE PUSH13 0x2737BA1030903932B630BCB2B9 PUSH1 0x99 SHL PUSH1 0x44 DUP3 ADD MSTORE PUSH1 0x64 ADD PUSH2 0x524 JUMP JUMPDEST PUSH1 0x1 PUSH1 0x1 PUSH1 0xA0 SHL SUB DUP2 AND PUSH1 0x0 DUP2 DUP2 MSTORE PUSH1 0x4 PUSH1 0x20 MSTORE PUSH1 0x40 DUP1 DUP3 KECCAK256 DUP1 SLOAD PUSH1 0xFF NOT AND SWAP1 SSTORE MLOAD PUSH32 0x10E1F7CE9FD7D1B90A66D13A2AB3CB8DD7F29F3F8D520B143B063CCFBAB6906B SWAP2 SWAP1 LOG2 POP JUMP JUMPDEST PUSH1 0x7 SLOAD PUSH1 0xFF AND ISZERO PUSH2 0xA7F JUMPI PUSH1 0x40 MLOAD PUSH3 0x461BCD PUSH1 0xE5 SHL DUP2 MSTORE PUSH1 0x4 ADD PUSH2 0x524 SWAP1 PUSH2 0x1989 JUMP JUMPDEST PUSH1 0x0 DUP2 DUP2 MSTORE PUSH1 0x1 PUSH1 0x20 MSTORE PUSH1 0x40 SWAP1 KECCAK256 SLOAD PUSH1 0x1 PUSH1 0x1 PUSH1 0xA0 SHL SUB AND PUSH2 0xAE3 JUMPI PUSH1 0x40 MLOAD PUSH3 0x461BCD PUSH1 0xE5 SHL DUP2 MSTORE PUSH1 0x20 PUSH1 0x4 DUP3 ADD MSTORE PUSH1 0x1F PUSH1 0x24 DUP3 ADD MSTORE PUSH32 0x47617465776179206E6F742073657420666F722064657374696E6174696F6E00 PUSH1 0x44 DUP3 ADD MSTORE PUSH1 0x64 ADD PUSH2 0x524 JUMP JUMPDEST PUSH1 0x1 PUSH1 0x1 PUSH1 0xA0 SHL SUB DUP1 DUP5 AND PUSH1 0x0 SWAP1 DUP2 MSTORE PUSH1 0x3 PUSH1 0x20 MSTORE PUSH1 0x40 SWAP1 KECCAK256 SLOAD AND DUP1 PUSH2 0xB5E JUMPI PUSH1 0x40 MLOAD PUSH3 0x461BCD PUSH1 0xE5 SHL DUP2 MSTORE PUSH1 0x20 PUSH1 0x4 DUP3 ADD MSTORE PUSH1 0x2A PUSH1 0x24 DUP3 ADD MSTORE PUSH32 0x5772617070656420746F6B656E206E6F7420666F756E6420666F72206F726967 PUSH1 0x44 DUP3 ADD MSTORE PUSH10 0x34B730B6103A37B5B2B7 PUSH1 0xB1 SHL PUSH1 0x64 DUP3 ADD MSTORE PUSH1 0x84 ADD PUSH2 0x524 JUMP JUMPDEST PUSH1 0x40 MLOAD PUSH4 0x79CC679 PUSH1 0xE4 SHL DUP2 MSTORE CALLER PUSH1 0x4 DUP3 ADD MSTORE PUSH1 0x24 DUP2 ADD DUP5 SWAP1 MSTORE PUSH1 0x1 PUSH1 0x1 PUSH1 0xA0 SHL SUB DUP3 AND SWAP1 PUSH4 0x79CC6790 SWAP1 PUSH1 0x44 ADD PUSH1 0x0 PUSH1 0x40 MLOAD DUP1 DUP4 SUB DUP2 PUSH1 0x0 DUP8 DUP1 EXTCODESIZE ISZERO DUP1 ISZERO PUSH2 0xBA6 JUMPI PUSH1 0x0 DUP1 REVERT JUMPDEST POP GAS CALL ISZERO DUP1 ISZERO PUSH2 0xBBA JUMPI RETURNDATASIZE PUSH1 0x0 DUP1 RETURNDATACOPY RETURNDATASIZE PUSH1 0x0 REVERT JUMPDEST POP POP PUSH1 0x40 DUP1 MLOAD DUP7 DUP2 MSTORE PUSH1 0x20 DUP2 ADD DUP7 SWAP1 MSTORE PUSH1 0x1 PUSH1 0x1 PUSH1 0xA0 SHL SUB DUP9 AND SWAP4 POP CALLER SWAP3 POP PUSH32 0xB87C6BC0574D14D70F6CE865C15A89C4682BD485E48EBCBF4061657C9E56DA06 SWAP2 ADD PUSH1 0x40 MLOAD DUP1 SWAP2 SUB SWAP1 LOG3 POP POP POP POP JUMP JUMPDEST PUSH2 0xC12 PUSH2 0x14A7 JUMP JUMPDEST PUSH2 0xC1C PUSH1 0x0 PUSH2 0x14D4 JUMP JUMPDEST JUMP JUMPDEST PUSH1 0x0 SLOAD PUSH1 0x1 PUSH1 0x1 PUSH1 0xA0 SHL SUB AND CALLER EQ DUP1 PUSH2 0xC46 JUMPI POP PUSH1 0x7 SLOAD PUSH2 0x100 SWAP1 DIV PUSH1 0x1 PUSH1 0x1 PUSH1 0xA0 SHL SUB AND CALLER EQ JUMPDEST PUSH2 0xC83 JUMPI PUSH1 0x40 MLOAD PUSH3 0x461BCD PUSH1 0xE5 SHL DUP2 MSTORE PUSH1 0x20 PUSH1 0x4 DUP3 ADD MSTORE PUSH1 0xE PUSH1 0x24 DUP3 ADD MSTORE PUSH14 0x1B9BDD08185D5D1A1BDC9A5E9959 PUSH1 0x92 SHL PUSH1 0x44 DUP3 ADD MSTORE PUSH1 0x64 ADD PUSH2 0x524 JUMP JUMPDEST PUSH1 0x7 DUP1 SLOAD PUSH1 0xFF NOT AND PUSH1 0x1 OR SWAP1 SSTORE PUSH1 0x40 MLOAD CALLER SWAP1 PUSH32 0x62E78CEA01BEE320CD4E420270B5EA74000D11B0C9F74754EBDBFC544B05A258 SWAP1 PUSH1 0x0 SWAP1 LOG2 JUMP JUMPDEST PUSH2 0xCC5 PUSH2 0x14A7 JUMP JUMPDEST PUSH1 0x1 PUSH1 0x1 PUSH1 0xA0 SHL SUB DUP4 AND PUSH1 0x0 SWAP1 DUP2 MSTORE PUSH1 0x2 PUSH1 0x20 MSTORE PUSH1 0x40 SWAP1 KECCAK256 DUP1 SLOAD PUSH1 0xFF NOT AND DUP4 ISZERO DUP1 ISZERO SWAP2 SWAP1 SWAP2 OR SWAP1 SWAP2 SSTORE PUSH2 0xD22 JUMPI PUSH1 0x1 PUSH1 0x1 PUSH1 0xA0 SHL SUB SWAP3 DUP4 AND PUSH1 0x0 SWAP1 DUP2 MSTORE PUSH1 0x3 PUSH1 0x20 MSTORE PUSH1 0x40 SWAP1 KECCAK256 DUP1 SLOAD PUSH1 0x1 PUSH1 0x1 PUSH1 0xA0 SHL SUB NOT AND SWAP2 SWAP1 SWAP4 AND OR SWAP1 SWAP2 SSTORE POP JUMP JUMPDEST POP POP PUSH1 0x1 PUSH1 0x1 PUSH1 0xA0 SHL SUB AND PUSH1 0x0 SWAP1 DUP2 MSTORE PUSH1 0x3 PUSH1 0x20 MSTORE PUSH1 0x40 SWAP1 KECCAK256 DUP1 SLOAD PUSH1 0x1 PUSH1 0x1 PUSH1 0xA0 SHL SUB NOT AND SWAP1 SSTORE JUMP JUMPDEST PUSH2 0xD53 PUSH2 0x14A7 JUMP JUMPDEST PUSH1 0x5 DUP2 SWAP1 SSTORE PUSH1 0x40 MLOAD DUP2 DUP2 MSTORE PUSH32 0x43962F2B9B1B5D7BC7AA699F45AF8972A254523862B8F5070842293DEB3AA036 SWAP1 PUSH1 0x20 ADD PUSH1 0x40 MLOAD DUP1 SWAP2 SUB SWAP1 LOG1 POP JUMP JUMPDEST PUSH2 0xD96 PUSH2 0x14A7 JUMP JUMPDEST PUSH1 0x0 SWAP2 DUP3 MSTORE PUSH1 0x1 PUSH1 0x20 MSTORE PUSH1 0x40 SWAP1 SWAP2 KECCAK256 DUP1 SLOAD PUSH1 0x1 PUSH1 0x1 PUSH1 0xA0 SHL SUB NOT AND PUSH1 0x1 PUSH1 0x1 PUSH1 0xA0 SHL SUB SWAP1 SWAP3 AND SWAP2 SWAP1 SWAP2 OR SWAP1 SSTORE JUMP JUMPDEST PUSH2 0xDCC PUSH2 0x14A7 JUMP JUMPDEST PUSH1 0x1 PUSH1 0x1 PUSH1 0xA0 SHL SUB DUP2 AND PUSH1 0x0 SWAP1 DUP2 MSTORE PUSH1 0x4 PUSH1 0x20 MSTORE PUSH1 0x40 SWAP1 KECCAK256 SLOAD PUSH1 0xFF AND ISZERO PUSH2 0xE29 JUMPI PUSH1 0x40 MLOAD PUSH3 0x461BCD PUSH1 0xE5 SHL DUP2 MSTORE PUSH1 0x20 PUSH1 0x4 DUP3 ADD MSTORE PUSH1 0x11 PUSH1 0x24 DUP3 ADD MSTORE PUSH17 0x20B63932B0B23C9030903932B630BCB2B9 PUSH1 0x79 SHL PUSH1 0x44 DUP3 ADD MSTORE PUSH1 0x64 ADD PUSH2 0x524 JUMP JUMPDEST PUSH1 0x1 PUSH1 0x1 PUSH1 0xA0 SHL SUB DUP2 AND PUSH1 0x0 DUP2 DUP2 MSTORE PUSH1 0x4 PUSH1 0x20 MSTORE PUSH1 0x40 DUP1 DUP3 KECCAK256 DUP1 SLOAD PUSH1 0xFF NOT AND PUSH1 0x1 OR SWAP1 SSTORE MLOAD PUSH32 0x3580EE9F53A62B7CB409A2CB56F9BE87747DD15017AFC5CEF6EEF321E4FB2C5 SWAP2 SWAP1 LOG2 POP JUMP JUMPDEST PUSH1 0x7 SLOAD PUSH1 0xFF AND ISZERO PUSH2 0xE98 JUMPI PUSH1 0x40 MLOAD PUSH3 0x461BCD PUSH1 0xE5 SHL DUP2 MSTORE PUSH1 0x4 ADD PUSH2 0x524 SWAP1 PUSH2 0x1989 JUMP JUMPDEST PUSH1 0x1 PUSH1 0x1 PUSH1 0xA0 SHL SUB DUP4 AND PUSH1 0x0 SWAP1 DUP2 MSTORE PUSH1 0x2 PUSH1 0x20 MSTORE PUSH1 0x40 SWAP1 KECCAK256 SLOAD PUSH1 0xFF AND PUSH2 0xEF6 JUMPI PUSH1 0x40 MLOAD PUSH3 0x461BCD PUSH1 0xE5 SHL DUP2 MSTORE PUSH1 0x20 PUSH1 0x4 DUP3 ADD MSTORE PUSH1 0x13 PUSH1 0x24 DUP3 ADD MSTORE PUSH19 0x151BDAD95B881B9BDD081CDD5C1C1BDC9D1959 PUSH1 0x6A SHL PUSH1 0x44 DUP3 ADD MSTORE PUSH1 0x64 ADD PUSH2 0x524 JUMP JUMPDEST PUSH1 0x0 DUP2 DUP2 MSTORE PUSH1 0x1 PUSH1 0x20 MSTORE PUSH1 0x40 SWAP1 KECCAK256 SLOAD PUSH1 0x1 PUSH1 0x1 PUSH1 0xA0 SHL SUB AND PUSH2 0xF4C JUMPI PUSH1 0x40 MLOAD PUSH3 0x461BCD PUSH1 0xE5 SHL DUP2 MSTORE PUSH1 0x20 PUSH1 0x4 DUP3 ADD MSTORE PUSH1 0xF PUSH1 0x24 DUP3 ADD MSTORE PUSH15 0x11D85D195DD85E481B9BDD081CD95D PUSH1 0x8A SHL PUSH1 0x44 DUP3 ADD MSTORE PUSH1 0x64 ADD PUSH2 0x524 JUMP JUMPDEST PUSH1 0x40 MLOAD PUSH4 0x23B872DD PUSH1 0xE0 SHL DUP2 MSTORE CALLER PUSH1 0x4 DUP3 ADD MSTORE ADDRESS PUSH1 0x24 DUP3 ADD MSTORE PUSH1 0x44 DUP2 ADD DUP4 SWAP1 MSTORE PUSH1 0x1 PUSH1 0x1 PUSH1 0xA0 SHL SUB DUP5 AND SWAP1 PUSH4 0x23B872DD SWAP1 PUSH1 0x64 ADD PUSH1 0x20 PUSH1 0x40 MLOAD DUP1 DUP4 SUB DUP2 PUSH1 0x0 DUP8 GAS CALL ISZERO DUP1 ISZERO PUSH2 0xF9F JUMPI RETURNDATASIZE PUSH1 0x0 DUP1 RETURNDATACOPY RETURNDATASIZE PUSH1 0x0 REVERT JUMPDEST POP POP POP POP PUSH1 0x40 MLOAD RETURNDATASIZE PUSH1 0x1F NOT PUSH1 0x1F DUP3 ADD AND DUP3 ADD DUP1 PUSH1 0x40 MSTORE POP DUP2 ADD SWAP1 PUSH2 0xFC3 SWAP2 SWAP1 PUSH2 0x1AAF JUMP JUMPDEST POP PUSH1 0x40 DUP1 MLOAD DUP4 DUP2 MSTORE PUSH1 0x20 DUP2 ADD DUP4 SWAP1 MSTORE PUSH1 0x1 PUSH1 0x1 PUSH1 0xA0 SHL SUB DUP6 AND SWAP2 CALLER SWAP2 PUSH32 0xA6F42A754282A9D2F24B4CE9256387399E87A48D5A6467ECD1DCF277D07156B6 SWAP2 ADD PUSH1 0x40 MLOAD DUP1 SWAP2 SUB SWAP1 LOG3 POP POP POP JUMP JUMPDEST PUSH2 0x1017 PUSH2 0x14A7 JUMP JUMPDEST PUSH1 0x1 PUSH1 0x1 PUSH1 0xA0 SHL SUB DUP2 AND PUSH2 0x1041 JUMPI PUSH1 0x40 MLOAD PUSH4 0x1E4FBDF7 PUSH1 0xE0 SHL DUP2 MSTORE PUSH1 0x0 PUSH1 0x4 DUP3 ADD MSTORE PUSH1 0x24 ADD PUSH2 0x524 JUMP JUMPDEST PUSH2 0x104A DUP2 PUSH2 0x14D4 JUMP JUMPDEST POP JUMP JUMPDEST PUSH2 0x1055 PUSH2 0x14A7 JUMP JUMPDEST PUSH1 0x7 DUP1 SLOAD PUSH1 0x1 PUSH1 0x1 PUSH1 0xA0 SHL SUB SWAP1 SWAP3 AND PUSH2 0x100 MUL PUSH2 0x100 PUSH1 0x1 PUSH1 0xA8 SHL SUB NOT SWAP1 SWAP3 AND SWAP2 SWAP1 SWAP2 OR SWAP1 SSTORE JUMP JUMPDEST PUSH1 0x7 SLOAD PUSH1 0xFF AND ISZERO PUSH2 0x10A0 JUMPI PUSH1 0x40 MLOAD PUSH3 0x461BCD PUSH1 0xE5 SHL DUP2 MSTORE PUSH1 0x4 ADD PUSH2 0x524 SWAP1 PUSH2 0x1989 JUMP JUMPDEST PUSH1 0x40 MLOAD PUSH12 0xFFFFFFFFFFFFFFFFFFFFFFFF NOT PUSH1 0x60 DUP9 DUP2 SHL DUP3 AND PUSH1 0x20 DUP5 ADD MSTORE DUP8 SWAP1 SHL AND PUSH1 0x34 DUP3 ADD MSTORE PUSH1 0x48 DUP2 ADD DUP6 SWAP1 MSTORE PUSH1 0x68 DUP2 ADD DUP5 SWAP1 MSTORE PUSH6 0x756E6C6F636B PUSH1 0xD0 SHL PUSH1 0x88 DUP3 ADD MSTORE PUSH1 0x0 SWAP1 PUSH1 0x8E ADD PUSH1 0x40 DUP1 MLOAD PUSH1 0x1F NOT DUP2 DUP5 SUB ADD DUP2 MSTORE SWAP2 DUP2 MSTORE DUP2 MLOAD PUSH1 0x20 SWAP3 DUP4 ADD KECCAK256 PUSH1 0x0 DUP2 DUP2 MSTORE PUSH1 0x6 SWAP1 SWAP4 MSTORE SWAP2 KECCAK256 SLOAD SWAP1 SWAP2 POP PUSH1 0xFF AND ISZERO PUSH2 0x1131 JUMPI PUSH1 0x40 MLOAD PUSH3 0x461BCD PUSH1 0xE5 SHL DUP2 MSTORE PUSH1 0x4 ADD PUSH2 0x524 SWAP1 PUSH2 0x19EF JUMP JUMPDEST PUSH2 0x113C DUP2 DUP5 DUP5 PUSH2 0x127B JUMP JUMPDEST PUSH1 0x0 DUP2 DUP2 MSTORE PUSH1 0x6 PUSH1 0x20 SWAP1 DUP2 MSTORE PUSH1 0x40 DUP1 DUP4 KECCAK256 DUP1 SLOAD PUSH1 0xFF NOT AND PUSH1 0x1 OR SWAP1 SSTORE PUSH1 0x1 PUSH1 0x1 PUSH1 0xA0 SHL SUB DUP10 AND DUP4 MSTORE PUSH1 0x2 SWAP1 SWAP2 MSTORE SWAP1 KECCAK256 SLOAD PUSH1 0xFF AND PUSH2 0x11B1 JUMPI PUSH1 0x40 MLOAD PUSH3 0x461BCD PUSH1 0xE5 SHL DUP2 MSTORE PUSH1 0x20 PUSH1 0x4 DUP3 ADD MSTORE PUSH1 0x13 PUSH1 0x24 DUP3 ADD MSTORE PUSH19 0x151BDAD95B881B9BDD081CDD5C1C1BDC9D1959 PUSH1 0x6A SHL PUSH1 0x44 DUP3 ADD MSTORE PUSH1 0x64 ADD PUSH2 0x524 JUMP JUMPDEST PUSH1 0x40 MLOAD PUSH4 0xA9059CBB PUSH1 0xE0 SHL DUP2 MSTORE PUSH1 0x1 PUSH1 0x1 PUSH1 0xA0 SHL SUB DUP9 DUP2 AND PUSH1 0x4 DUP4 ADD MSTORE PUSH1 0x24 DUP3 ADD DUP8 SWAP1 MSTORE DUP8 AND SWAP1 PUSH4 0xA9059CBB SWAP1 PUSH1 0x44 ADD PUSH1 0x20 PUSH1 0x40 MLOAD DUP1 DUP4 SUB DUP2 PUSH1 0x0 DUP8 GAS CALL ISZERO DUP1 ISZERO PUSH2 0x1200 JUMPI RETURNDATASIZE PUSH1 0x0 DUP1 RETURNDATACOPY RETURNDATASIZE PUSH1 0x0 REVERT JUMPDEST POP POP POP POP PUSH1 0x40 MLOAD RETURNDATASIZE PUSH1 0x1F NOT PUSH1 0x1F DUP3 ADD AND DUP3 ADD DUP1 PUSH1 0x40 MSTORE POP DUP2 ADD SWAP1 PUSH2 0x1224 SWAP2 SWAP1 PUSH2 0x1AAF JUMP JUMPDEST POP DUP6 PUSH1 0x1 PUSH1 0x1 PUSH1 0xA0 SHL SUB AND DUP8 PUSH1 0x1 PUSH1 0x1 PUSH1 0xA0 SHL SUB AND PUSH32 0xECE684E11F49F06D351439E63189AD1703238B8040D90CF994901CA2B3DA8D44 DUP8 PUSH1 0x40 MLOAD PUSH2 0x126A SWAP2 DUP2 MSTORE PUSH1 0x20 ADD SWAP1 JUMP JUMPDEST PUSH1 0x40 MLOAD DUP1 SWAP2 SUB SWAP1 LOG3 POP POP POP POP POP POP POP JUMP JUMPDEST PUSH1 0x5 SLOAD DUP2 LT ISZERO PUSH2 0x12C5 JUMPI PUSH1 0x40 MLOAD PUSH3 0x461BCD PUSH1 0xE5 SHL DUP2 MSTORE PUSH1 0x20 PUSH1 0x4 DUP3 ADD MSTORE PUSH1 0x15 PUSH1 0x24 DUP3 ADD MSTORE PUSH21 0x4E6F7420656E6F756768207369676E617475726573 PUSH1 0x58 SHL PUSH1 0x44 DUP3 ADD MSTORE PUSH1 0x64 ADD PUSH2 0x524 JUMP JUMPDEST PUSH1 0x0 DUP2 PUSH8 0xFFFFFFFFFFFFFFFF DUP2 GT ISZERO PUSH2 0x12E0 JUMPI PUSH2 0x12E0 PUSH2 0x1ACC JUMP JUMPDEST PUSH1 0x40 MLOAD SWAP1 DUP1 DUP3 MSTORE DUP1 PUSH1 0x20 MUL PUSH1 0x20 ADD DUP3 ADD PUSH1 0x40 MSTORE DUP1 ISZERO PUSH2 0x1309 JUMPI DUP2 PUSH1 0x20 ADD PUSH1 0x20 DUP3 MUL DUP1 CALLDATASIZE DUP4 CALLDATACOPY ADD SWAP1 POP JUMPDEST POP SWAP1 POP PUSH1 0x0 JUMPDEST DUP3 DUP2 LT ISZERO PUSH2 0x14A0 JUMPI PUSH1 0x0 PUSH2 0x137B DUP7 DUP7 DUP7 DUP6 DUP2 DUP2 LT PUSH2 0x132F JUMPI PUSH2 0x132F PUSH2 0x1AE2 JUMP JUMPDEST SWAP1 POP PUSH1 0x20 MUL DUP2 ADD SWAP1 PUSH2 0x1341 SWAP2 SWAP1 PUSH2 0x1AF8 JUMP JUMPDEST DUP1 DUP1 PUSH1 0x1F ADD PUSH1 0x20 DUP1 SWAP2 DIV MUL PUSH1 0x20 ADD PUSH1 0x40 MLOAD SWAP1 DUP2 ADD PUSH1 0x40 MSTORE DUP1 SWAP4 SWAP3 SWAP2 SWAP1 DUP2 DUP2 MSTORE PUSH1 0x20 ADD DUP4 DUP4 DUP1 DUP3 DUP5 CALLDATACOPY PUSH1 0x0 SWAP3 ADD SWAP2 SWAP1 SWAP2 MSTORE POP PUSH2 0x1524 SWAP3 POP POP POP JUMP JUMPDEST PUSH1 0x1 PUSH1 0x1 PUSH1 0xA0 SHL SUB DUP2 AND PUSH1 0x0 SWAP1 DUP2 MSTORE PUSH1 0x4 PUSH1 0x20 MSTORE PUSH1 0x40 SWAP1 KECCAK256 SLOAD SWAP1 SWAP2 POP PUSH1 0xFF AND PUSH2 0x13D7 JUMPI PUSH1 0x40 MLOAD PUSH3 0x461BCD PUSH1 0xE5 SHL DUP2 MSTORE PUSH1 0x20 PUSH1 0x4 DUP3 ADD MSTORE PUSH1 0xE PUSH1 0x24 DUP3 ADD MSTORE PUSH14 0x24B73B30B634B21039B4B3B732B9 PUSH1 0x91 SHL PUSH1 0x44 DUP3 ADD MSTORE PUSH1 0x64 ADD PUSH2 0x524 JUMP JUMPDEST PUSH1 0x0 JUMPDEST DUP3 DUP2 LT ISZERO PUSH2 0x1461 JUMPI DUP2 PUSH1 0x1 PUSH1 0x1 PUSH1 0xA0 SHL SUB AND DUP5 DUP3 DUP2 MLOAD DUP2 LT PUSH2 0x13FE JUMPI PUSH2 0x13FE PUSH2 0x1AE2 JUMP JUMPDEST PUSH1 0x20 MUL PUSH1 0x20 ADD ADD MLOAD PUSH1 0x1 PUSH1 0x1 PUSH1 0xA0 SHL SUB AND SUB PUSH2 0x144F JUMPI PUSH1 0x40 MLOAD PUSH3 0x461BCD PUSH1 0xE5 SHL DUP2 MSTORE PUSH1 0x20 PUSH1 0x4 DUP3 ADD MSTORE PUSH1 0x10 PUSH1 0x24 DUP3 ADD MSTORE PUSH16 0x223AB83634B1B0BA329039B4B3B732B9 PUSH1 0x81 SHL PUSH1 0x44 DUP3 ADD MSTORE PUSH1 0x64 ADD PUSH2 0x524 JUMP JUMPDEST DUP1 PUSH2 0x1459 DUP2 PUSH2 0x1B55 JUMP JUMPDEST SWAP2 POP POP PUSH2 0x13DA JUMP JUMPDEST POP DUP1 DUP4 DUP4 DUP2 MLOAD DUP2 LT PUSH2 0x1475 JUMPI PUSH2 0x1475 PUSH2 0x1AE2 JUMP JUMPDEST PUSH1 0x1 PUSH1 0x1 PUSH1 0xA0 SHL SUB SWAP1 SWAP3 AND PUSH1 0x20 SWAP3 DUP4 MUL SWAP2 SWAP1 SWAP2 ADD SWAP1 SWAP2 ADD MSTORE POP DUP1 PUSH2 0x1498 DUP2 PUSH2 0x1B55 JUMP JUMPDEST SWAP2 POP POP PUSH2 0x130F JUMP JUMPDEST POP POP POP POP POP JUMP JUMPDEST PUSH1 0x0 SLOAD PUSH1 0x1 PUSH1 0x1 PUSH1 0xA0 SHL SUB AND CALLER EQ PUSH2 0xC1C JUMPI PUSH1 0x40 MLOAD PUSH4 0x118CDAA7 PUSH1 0xE0 SHL DUP2 MSTORE CALLER PUSH1 0x4 DUP3 ADD MSTORE PUSH1 0x24 ADD PUSH2 0x524 JUMP JUMPDEST PUSH1 0x0 DUP1 SLOAD PUSH1 0x1 PUSH1 0x1 PUSH1 0xA0 SHL SUB DUP4 DUP2 AND PUSH1 0x1 PUSH1 0x1 PUSH1 0xA0 SHL SUB NOT DUP4 AND DUP2 OR DUP5 SSTORE PUSH1 0x40 MLOAD SWAP2 SWAP1 SWAP3 AND SWAP3 DUP4 SWAP2 PUSH32 0x8BE0079C531659141344CD1FD0A4F28419497F9722A3DAAFE3B4186F6B6457E0 SWAP2 SWAP1 LOG3 POP POP JUMP JUMPDEST PUSH1 0x0 DUP2 MLOAD PUSH1 0x41 EQ PUSH2 0x1577 JUMPI PUSH1 0x40 MLOAD PUSH3 0x461BCD PUSH1 0xE5 SHL DUP2 MSTORE PUSH1 0x20 PUSH1 0x4 DUP3 ADD MSTORE PUSH1 0x18 PUSH1 0x24 DUP3 ADD MSTORE PUSH32 0x496E76616C6964207369676E6174757265206C656E6774680000000000000000 PUSH1 0x44 DUP3 ADD MSTORE PUSH1 0x64 ADD PUSH2 0x524 JUMP JUMPDEST PUSH1 0x20 DUP3 ADD MLOAD PUSH1 0x40 DUP4 ADD MLOAD PUSH1 0x60 DUP5 ADD MLOAD PUSH1 0x0 BYTE PUSH1 0x1B DUP2 LT ISZERO PUSH2 0x15A0 JUMPI PUSH2 0x159D PUSH1 0x1B DUP3 PUSH2 0x1B6E JUMP JUMPDEST SWAP1 POP JUMPDEST DUP1 PUSH1 0xFF AND PUSH1 0x1B EQ DUP1 PUSH2 0x15B5 JUMPI POP DUP1 PUSH1 0xFF AND PUSH1 0x1C EQ JUMPDEST PUSH2 0x1601 JUMPI PUSH1 0x40 MLOAD PUSH3 0x461BCD PUSH1 0xE5 SHL DUP2 MSTORE PUSH1 0x20 PUSH1 0x4 DUP3 ADD MSTORE PUSH1 0x1B PUSH1 0x24 DUP3 ADD MSTORE PUSH32 0x496E76616C6964207369676E6174757265202776272076616C75650000000000 PUSH1 0x44 DUP3 ADD MSTORE PUSH1 0x64 ADD PUSH2 0x524 JUMP JUMPDEST PUSH1 0x40 MLOAD PUSH32 0x19457468657265756D205369676E6564204D6573736167653A0A333200000000 PUSH1 0x20 DUP3 ADD MSTORE PUSH1 0x3C DUP2 ADD DUP8 SWAP1 MSTORE PUSH1 0x0 SWAP1 PUSH1 0x5C ADD PUSH1 0x40 DUP1 MLOAD PUSH1 0x1F NOT DUP2 DUP5 SUB ADD DUP2 MSTORE DUP3 DUP3 MSTORE DUP1 MLOAD PUSH1 0x20 SWAP2 DUP3 ADD KECCAK256 PUSH1 0x0 DUP5 MSTORE SWAP1 DUP4 ADD DUP1 DUP4 MSTORE DUP2 SWAP1 MSTORE PUSH1 0xFF DUP6 AND SWAP2 DUP4 ADD SWAP2 SWAP1 SWAP2 MSTORE PUSH1 0x60 DUP3 ADD DUP7 SWAP1 MSTORE PUSH1 0x80 DUP3 ADD DUP6 SWAP1 MSTORE SWAP2 POP PUSH1 0x1 SWAP1 PUSH1 0xA0 ADD PUSH1 0x20 PUSH1 0x40 MLOAD PUSH1 0x20 DUP2 SUB SWAP1 DUP1 DUP5 SUB SWAP1 DUP6 GAS STATICCALL ISZERO DUP1 ISZERO PUSH2 0x169F JUMPI RETURNDATASIZE PUSH1 0x0 DUP1 RETURNDATACOPY RETURNDATASIZE PUSH1 0x0 REVERT JUMPDEST POP POP POP PUSH1 0x20 PUSH1 0x40 MLOAD SUB MLOAD SWAP5 POP POP POP POP POP JUMPDEST SWAP3 SWAP2 POP POP JUMP JUMPDEST DUP1 CALLDATALOAD PUSH1 0x1 PUSH1 0x1 PUSH1 0xA0 SHL SUB DUP2 AND DUP2 EQ PUSH2 0x16CD JUMPI PUSH1 0x0 DUP1 REVERT JUMPDEST SWAP2 SWAP1 POP JUMP JUMPDEST PUSH1 0x0 DUP1 DUP4 PUSH1 0x1F DUP5 ADD SLT PUSH2 0x16E4 JUMPI PUSH1 0x0 DUP1 REVERT JUMPDEST POP DUP2 CALLDATALOAD PUSH8 0xFFFFFFFFFFFFFFFF DUP2 GT ISZERO PUSH2 0x16FC JUMPI PUSH1 0x0 DUP1 REVERT JUMPDEST PUSH1 0x20 DUP4 ADD SWAP2 POP DUP4 PUSH1 0x20 DUP3 DUP6 ADD ADD GT ISZERO PUSH2 0x1714 JUMPI PUSH1 0x0 DUP1 REVERT JUMPDEST SWAP3 POP SWAP3 SWAP1 POP JUMP JUMPDEST PUSH1 0x0 DUP1 DUP4 PUSH1 0x1F DUP5 ADD SLT PUSH2 0x172D JUMPI PUSH1 0x0 DUP1 REVERT JUMPDEST POP DUP2 CALLDATALOAD PUSH8 0xFFFFFFFFFFFFFFFF DUP2 GT ISZERO PUSH2 0x1745 JUMPI PUSH1 0x0 DUP1 REVERT JUMPDEST PUSH1 0x20 DUP4 ADD SWAP2 POP DUP4 PUSH1 0x20 DUP3 PUSH1 0x5 SHL DUP6 ADD ADD GT ISZERO PUSH2 0x1714 JUMPI PUSH1 0x0 DUP1 REVERT JUMPDEST PUSH1 0x0 DUP1 PUSH1 0x0 DUP1 PUSH1 0x0 DUP1 PUSH1 0x80 DUP8 DUP10 SUB SLT ISZERO PUSH2 0x1779 JUMPI PUSH1 0x0 DUP1 REVERT JUMPDEST PUSH2 0x1782 DUP8 PUSH2 0x16B6 JUMP JUMPDEST SWAP6 POP PUSH1 0x20 DUP8 ADD CALLDATALOAD PUSH8 0xFFFFFFFFFFFFFFFF DUP1 DUP3 GT ISZERO PUSH2 0x179F JUMPI PUSH1 0x0 DUP1 REVERT JUMPDEST PUSH2 0x17AB DUP11 DUP4 DUP12 ADD PUSH2 0x16D2 JUMP JUMPDEST SWAP1 SWAP8 POP SWAP6 POP PUSH1 0x40 DUP10 ADD CALLDATALOAD SWAP5 POP PUSH1 0x60 DUP10 ADD CALLDATALOAD SWAP2 POP DUP1 DUP3 GT ISZERO PUSH2 0x17CB JUMPI PUSH1 0x0 DUP1 REVERT JUMPDEST POP PUSH2 0x17D8 DUP10 DUP3 DUP11 ADD PUSH2 0x171B JUMP JUMPDEST SWAP8 SWAP11 SWAP7 SWAP10 POP SWAP5 SWAP8 POP SWAP3 SWAP6 SWAP4 SWAP5 SWAP3 POP POP POP JUMP JUMPDEST PUSH1 0x0 DUP1 PUSH1 0x0 DUP1 PUSH1 0x0 DUP1 PUSH1 0xA0 DUP8 DUP10 SUB SLT ISZERO PUSH2 0x1803 JUMPI PUSH1 0x0 DUP1 REVERT JUMPDEST PUSH2 0x180C DUP8 PUSH2 0x16B6 JUMP JUMPDEST SWAP6 POP PUSH2 0x181A PUSH1 0x20 DUP9 ADD PUSH2 0x16B6 JUMP JUMPDEST SWAP5 POP PUSH1 0x40 DUP8 ADD CALLDATALOAD SWAP4 POP PUSH1 0x60 DUP8 ADD CALLDATALOAD SWAP3 POP PUSH1 0x80 DUP8 ADD CALLDATALOAD PUSH8 0xFFFFFFFFFFFFFFFF DUP2 GT ISZERO PUSH2 0x1844 JUMPI PUSH1 0x0 DUP1 REVERT JUMPDEST PUSH2 0x17D8 DUP10 DUP3 DUP11 ADD PUSH2 0x171B JUMP JUMPDEST PUSH1 0x0 DUP1 PUSH1 0x0 PUSH1 0x40 DUP5 DUP7 SUB SLT ISZERO PUSH2 0x1865 JUMPI PUSH1 0x0 DUP1 REVERT JUMPDEST DUP4 CALLDATALOAD PUSH8 0xFFFFFFFFFFFFFFFF DUP2 GT ISZERO PUSH2 0x187C JUMPI PUSH1 0x0 DUP1 REVERT JUMPDEST PUSH2 0x1888 DUP7 DUP3 DUP8 ADD PUSH2 0x16D2 JUMP JUMPDEST SWAP1 SWAP8 SWAP1 SWAP7 POP PUSH1 0x20 SWAP6 SWAP1 SWAP6 ADD CALLDATALOAD SWAP5 SWAP4 POP POP POP POP JUMP JUMPDEST PUSH1 0x0 PUSH1 0x20 DUP3 DUP5 SUB SLT ISZERO PUSH2 0x18AE JUMPI PUSH1 0x0 DUP1 REVERT JUMPDEST PUSH2 0x18B7 DUP3 PUSH2 0x16B6 JUMP JUMPDEST SWAP4 SWAP3 POP POP POP JUMP JUMPDEST PUSH1 0x0 DUP1 PUSH1 0x0 PUSH1 0x60 DUP5 DUP7 SUB SLT ISZERO PUSH2 0x18D3 JUMPI PUSH1 0x0 DUP1 REVERT JUMPDEST PUSH2 0x18DC DUP5 PUSH2 0x16B6 JUMP JUMPDEST SWAP6 PUSH1 0x20 DUP6 ADD CALLDATALOAD SWAP6 POP PUSH1 0x40 SWAP1 SWAP5 ADD CALLDATALOAD SWAP4 SWAP3 POP POP POP JUMP JUMPDEST PUSH1 0x0 PUSH1 0x20 DUP3 DUP5 SUB SLT ISZERO PUSH2 0x1903 JUMPI PUSH1 0x0 DUP1 REVERT JUMPDEST POP CALLDATALOAD SWAP2 SWAP1 POP JUMP JUMPDEST DUP1 ISZERO ISZERO DUP2 EQ PUSH2 0x104A JUMPI PUSH1 0x0 DUP1 REVERT JUMPDEST PUSH1 0x0 DUP1 PUSH1 0x0 PUSH1 0x60 DUP5 DUP7 SUB SLT ISZERO PUSH2 0x192D JUMPI PUSH1 0x0 DUP1 REVERT JUMPDEST PUSH2 0x1936 DUP5 PUSH2 0x16B6 JUMP JUMPDEST SWAP3 POP PUSH1 0x20 DUP5 ADD CALLDATALOAD PUSH2 0x1946 DUP2 PUSH2 0x190A JUMP JUMPDEST SWAP2 POP PUSH2 0x1954 PUSH1 0x40 DUP6 ADD PUSH2 0x16B6 JUMP JUMPDEST SWAP1 POP SWAP3 POP SWAP3 POP SWAP3 JUMP JUMPDEST PUSH1 0x0 DUP1 PUSH1 0x40 DUP4 DUP6 SUB SLT ISZERO PUSH2 0x1970 JUMPI PUSH1 0x0 DUP1 REVERT JUMPDEST DUP3 CALLDATALOAD SWAP2 POP PUSH2 0x1980 PUSH1 0x20 DUP5 ADD PUSH2 0x16B6 JUMP JUMPDEST SWAP1 POP SWAP3 POP SWAP3 SWAP1 POP JUMP JUMPDEST PUSH1 0x20 DUP1 DUP3 MSTORE PUSH1 0xF SWAP1 DUP3 ADD MSTORE PUSH15 0x10DBDB9D1C9858DD081C185D5CD959 PUSH1 0x8A SHL PUSH1 0x40 DUP3 ADD MSTORE PUSH1 0x60 ADD SWAP1 JUMP JUMPDEST PUSH12 0xFFFFFFFFFFFFFFFFFFFFFFFF NOT DUP6 PUSH1 0x60 SHL AND DUP2 MSTORE DUP3 DUP5 PUSH1 0x14 DUP4 ADD CALLDATACOPY PUSH1 0x14 SWAP3 ADD SWAP2 DUP3 ADD MSTORE PUSH7 0x6D657373616765 PUSH1 0xC8 SHL PUSH1 0x34 DUP3 ADD MSTORE PUSH1 0x3B ADD SWAP3 SWAP2 POP POP JUMP JUMPDEST PUSH1 0x20 DUP1 DUP3 MSTORE PUSH1 0x17 SWAP1 DUP3 ADD MSTORE PUSH32 0x5369676E61747572657320616C72656164792075736564000000000000000000 PUSH1 0x40 DUP3 ADD MSTORE PUSH1 0x60 ADD SWAP1 JUMP JUMPDEST DUP2 DUP4 DUP3 CALLDATACOPY PUSH1 0x0 SWAP2 ADD SWAP1 DUP2 MSTORE SWAP2 SWAP1 POP JUMP JUMPDEST DUP2 DUP4 MSTORE DUP2 DUP2 PUSH1 0x20 DUP6 ADD CALLDATACOPY POP PUSH1 0x0 DUP3 DUP3 ADD PUSH1 0x20 SWAP1 DUP2 ADD SWAP2 SWAP1 SWAP2 MSTORE PUSH1 0x1F SWAP1 SWAP2 ADD PUSH1 0x1F NOT AND SWAP1 SWAP2 ADD ADD SWAP1 JUMP JUMPDEST DUP5 DUP2 MSTORE PUSH1 0x60 PUSH1 0x20 DUP3 ADD MSTORE PUSH1 0x0 PUSH2 0x1A79 PUSH1 0x60 DUP4 ADD DUP6 DUP8 PUSH2 0x1A36 JUMP JUMPDEST SWAP1 POP DUP3 ISZERO ISZERO PUSH1 0x40 DUP4 ADD MSTORE SWAP6 SWAP5 POP POP POP POP POP JUMP JUMPDEST DUP4 DUP2 MSTORE PUSH1 0x40 PUSH1 0x20 DUP3 ADD MSTORE PUSH1 0x0 PUSH2 0x1AA6 PUSH1 0x40 DUP4 ADD DUP5 DUP7 PUSH2 0x1A36 JUMP JUMPDEST SWAP6 SWAP5 POP POP POP POP POP JUMP JUMPDEST PUSH1 0x0 PUSH1 0x20 DUP3 DUP5 SUB SLT ISZERO PUSH2 0x1AC1 JUMPI PUSH1 0x0 DUP1 REVERT JUMPDEST DUP2 MLOAD PUSH2 0x18B7 DUP2 PUSH2 0x190A JUMP JUMPDEST PUSH4 0x4E487B71 PUSH1 0xE0 SHL PUSH1 0x0 MSTORE PUSH1 0x41 PUSH1 0x4 MSTORE PUSH1 0x24 PUSH1 0x0 REVERT JUMPDEST PUSH4 0x4E487B71 PUSH1 0xE0 SHL PUSH1 0x0 MSTORE PUSH1 0x32 PUSH1 0x4 MSTORE PUSH1 0x24 PUSH1 0x0 REVERT JUMPDEST PUSH1 0x0 DUP1 DUP4 CALLDATALOAD PUSH1 0x1E NOT DUP5 CALLDATASIZE SUB ADD DUP2 SLT PUSH2 0x1B0F JUMPI PUSH1 0x0 DUP1 REVERT JUMPDEST DUP4 ADD DUP1 CALLDATALOAD SWAP2 POP PUSH8 0xFFFFFFFFFFFFFFFF DUP3 GT ISZERO PUSH2 0x1B2A JUMPI PUSH1 0x0 DUP1 REVERT JUMPDEST PUSH1 0x20 ADD SWAP2 POP CALLDATASIZE DUP2 SWAP1 SUB DUP3 SGT ISZERO PUSH2 0x1714 JUMPI PUSH1 0x0 DUP1 REVERT JUMPDEST PUSH4 0x4E487B71 PUSH1 0xE0 SHL PUSH1 0x0 MSTORE PUSH1 0x11 PUSH1 0x4 MSTORE PUSH1 0x24 PUSH1 0x0 REVERT JUMPDEST PUSH1 0x0 PUSH1 0x1 DUP3 ADD PUSH2 0x1B67 JUMPI PUSH2 0x1B67 PUSH2 0x1B3F JUMP JUMPDEST POP PUSH1 0x1 ADD SWAP1 JUMP JUMPDEST PUSH1 0xFF DUP2 DUP2 AND DUP4 DUP3 AND ADD SWAP1 DUP2 GT ISZERO PUSH2 0x16B0 JUMPI PUSH2 0x16B0 PUSH2 0x1B3F JUMP INVALID LOG2 PUSH5 0x6970667358 0x22 SLT KECCAK256 SSTORE RETURNDATASIZE PUSH3 0x2C3921 PUSH22 0x7FDCB223DF0DE0AFBB1327AE6188289E177A938CDED0 0xA7 0xBA 0xB8 PUSH5 0x736F6C6343 STOP ADDMOD EQ STOP CALLER "},"methodIdentifiers":{"addRelayer(address)":"dd39f00d","gateways(uint256)":"64c17056","isRelayer(address)":"541d5548","multisig()":"4783c35b","owner()":"8da5cb5b","pause()":"8456cb59","paused()":"5c975abb","receiveMessage(address,bytes,uint256,bytes[])":"1393d90b","receiveTokens(address,address,uint256,uint256,bytes[])":"171ca482","releaseTokens(address,uint256,uint256)":"628efcd7","removeRelayer(address)":"60f0a5ac","renounceOwnership()":"715018a6","sendMessage(bytes,uint256)":"2f2f7f27","sendTokens(address,uint256,uint256)":"f06fc103","setGateway(uint256,address)":"ca19b65b","setMultisig(address)":"f3283fba","setSignatureThreshold(uint256)":"bbde5374","setSupportedToken(address,bool,address)":"9660c51e","signatureThreshold()":"a82f2e26","supportedTokens(address)":"68c4ac26","transferOwnership(address)":"f2fde38b","unlockTokens(address,address,uint256,uint256,bytes[])":"f860c712","unpause()":"3f4ba83a","usedSignatures(bytes32)":"f978fd61","wrappedTokenMap(address)":"d76eb7fb"}}}}}