{
  "_format": "hh-sol-artifact-1",
  "contractName": "GatewayV3",
  "sourceName": "contracts/bridge/GatewayV3.sol",
  "abi": [
    {
      "inputs": [
        {
          "internalType": "contract RelayerManager",
          "name": "_relayerManager",
          "type": "address"
        },
        {
          "internalType": "contract ChainRegistry",
          "name": "_registry",
          "type": "address"
        }
      ],
      "stateMutability": "nonpayable",
      "type": "constructor"
    },
    {
      "inputs": [],
      "name": "EnforcedPause",
      "type": "error"
    },
    {
      "inputs": [],
      "name": "ExpectedPause",
      "type": "error"
    },
    {
      "inputs": [
        {
          "internalType": "address",
          "name": "owner",
          "type": "address"
        }
      ],
      "name": "OwnableInvalidOwner",
      "type": "error"
    },
    {
      "inputs": [
        {
          "internalType": "address",
          "name": "account",
          "type": "address"
        }
      ],
      "name": "OwnableUnauthorizedAccount",
      "type": "error"
    },
    {
      "anonymous": false,
      "inputs": [
        {
          "indexed": true,
          "internalType": "address",
          "name": "executor",
          "type": "address"
        },
        {
          "indexed": true,
          "internalType": "address",
          "name": "target",
          "type": "address"
        },
        {
          "indexed": false,
          "internalType": "uint256",
          "name": "fromChainId",
          "type": "uint256"
        },
        {
          "indexed": false,
          "internalType": "bytes",
          "name": "data",
          "type": "bytes"
        },
        {
          "indexed": false,
          "internalType": "bool",
          "name": "success",
          "type": "bool"
        }
      ],
      "name": "MessageExecuted",
      "type": "event"
    },
    {
      "anonymous": false,
      "inputs": [
        {
          "indexed": true,
          "internalType": "address",
          "name": "sender",
          "type": "address"
        },
        {
          "indexed": false,
          "internalType": "uint256",
          "name": "toChainId",
          "type": "uint256"
        },
        {
          "indexed": true,
          "internalType": "address",
          "name": "target",
          "type": "address"
        },
        {
          "indexed": false,
          "internalType": "bytes",
          "name": "data",
          "type": "bytes"
        },
        {
          "indexed": false,
          "internalType": "uint256",
          "name": "value",
          "type": "uint256"
        },
        {
          "indexed": false,
          "internalType": "uint256",
          "name": "nonce",
          "type": "uint256"
        }
      ],
      "name": "MessageSent",
      "type": "event"
    },
    {
      "anonymous": false,
      "inputs": [
        {
          "indexed": true,
          "internalType": "address",
          "name": "previousOwner",
          "type": "address"
        },
        {
          "indexed": true,
          "internalType": "address",
          "name": "newOwner",
          "type": "address"
        }
      ],
      "name": "OwnershipTransferred",
      "type": "event"
    },
    {
      "anonymous": false,
      "inputs": [
        {
          "indexed": false,
          "internalType": "address",
          "name": "account",
          "type": "address"
        }
      ],
      "name": "Paused",
      "type": "event"
    },
    {
      "anonymous": false,
      "inputs": [
        {
          "indexed": true,
          "internalType": "address",
          "name": "sender",
          "type": "address"
        },
        {
          "indexed": true,
          "internalType": "address",
          "name": "token",
          "type": "address"
        },
        {
          "indexed": false,
          "internalType": "uint256",
          "name": "amount",
          "type": "uint256"
        },
        {
          "indexed": false,
          "internalType": "uint256",
          "name": "toChainId",
          "type": "uint256"
        },
        {
          "indexed": false,
          "internalType": "address",
          "name": "recipient",
          "type": "address"
        },
        {
          "indexed": false,
          "internalType": "uint256",
          "name": "nonce",
          "type": "uint256"
        }
      ],
      "name": "TokensLocked",
      "type": "event"
    },
    {
      "anonymous": false,
      "inputs": [
        {
          "indexed": true,
          "internalType": "address",
          "name": "recipient",
          "type": "address"
        },
        {
          "indexed": true,
          "internalType": "address",
          "name": "wrappedToken",
          "type": "address"
        },
        {
          "indexed": false,
          "internalType": "uint256",
          "name": "amount",
          "type": "uint256"
        },
        {
          "indexed": false,
          "internalType": "bytes32",
          "name": "sourceTxHash",
          "type": "bytes32"
        }
      ],
      "name": "TokensMinted",
      "type": "event"
    },
    {
      "anonymous": false,
      "inputs": [
        {
          "indexed": false,
          "internalType": "address",
          "name": "account",
          "type": "address"
        }
      ],
      "name": "Unpaused",
      "type": "event"
    },
    {
      "inputs": [
        {
          "internalType": "address",
          "name": "token",
          "type": "address"
        },
        {
          "internalType": "uint256",
          "name": "amount",
          "type": "uint256"
        },
        {
          "internalType": "uint256",
          "name": "toChainId",
          "type": "uint256"
        },
        {
          "internalType": "address",
          "name": "recipient",
          "type": "address"
        }
      ],
      "name": "bridgeToken",
      "outputs": [],
      "stateMutability": "nonpayable",
      "type": "function"
    },
    {
      "inputs": [
        {
          "internalType": "uint256",
          "name": "fromChainId",
          "type": "uint256"
        },
        {
          "internalType": "address",
          "name": "sender",
          "type": "address"
        },
        {
          "internalType": "address",
          "name": "target",
          "type": "address"
        },
        {
          "internalType": "bytes",
          "name": "data",
          "type": "bytes"
        },
        {
          "internalType": "uint256",
          "name": "value",
          "type": "uint256"
        },
        {
          "internalType": "bytes32",
          "name": "sourceMsgHash",
          "type": "bytes32"
        },
        {
          "internalType": "bytes[]",
          "name": "signatures",
          "type": "bytes[]"
        }
      ],
      "name": "executeMessage",
      "outputs": [],
      "stateMutability": "nonpayable",
      "type": "function"
    },
    {
      "inputs": [
        {
          "internalType": "address",
          "name": "wrappedToken",
          "type": "address"
        },
        {
          "internalType": "address",
          "name": "recipient",
          "type": "address"
        },
        {
          "internalType": "uint256",
          "name": "amount",
          "type": "uint256"
        },
        {
          "internalType": "bytes32",
          "name": "sourceTxHash",
          "type": "bytes32"
        },
        {
          "internalType": "bytes[]",
          "name": "signatures",
          "type": "bytes[]"
        }
      ],
      "name": "mintWrapped",
      "outputs": [],
      "stateMutability": "nonpayable",
      "type": "function"
    },
    {
      "inputs": [],
      "name": "nonce",
      "outputs": [
        {
          "internalType": "uint256",
          "name": "",
          "type": "uint256"
        }
      ],
      "stateMutability": "view",
      "type": "function"
    },
    {
      "inputs": [],
      "name": "owner",
      "outputs": [
        {
          "internalType": "address",
          "name": "",
          "type": "address"
        }
      ],
      "stateMutability": "view",
      "type": "function"
    },
    {
      "inputs": [],
      "name": "pause",
      "outputs": [],
      "stateMutability": "nonpayable",
      "type": "function"
    },
    {
      "inputs": [],
      "name": "paused",
      "outputs": [
        {
          "internalType": "bool",
          "name": "",
          "type": "bool"
        }
      ],
      "stateMutability": "view",
      "type": "function"
    },
    {
      "inputs": [],
      "name": "registry",
      "outputs": [
        {
          "internalType": "contract ChainRegistry",
          "name": "",
          "type": "address"
        }
      ],
      "stateMutability": "view",
      "type": "function"
    },
    {
      "inputs": [],
      "name": "relayerManager",
      "outputs": [
        {
          "internalType": "contract RelayerManager",
          "name": "",
          "type": "address"
        }
      ],
      "stateMutability": "view",
      "type": "function"
    },
    {
      "inputs": [],
      "name": "renounceOwnership",
      "outputs": [],
      "stateMutability": "nonpayable",
      "type": "function"
    },
    {
      "inputs": [
        {
          "internalType": "uint256",
          "name": "toChainId",
          "type": "uint256"
        },
        {
          "internalType": "address",
          "name": "target",
          "type": "address"
        },
        {
          "internalType": "bytes",
          "name": "data",
          "type": "bytes"
        }
      ],
      "name": "sendMessage",
      "outputs": [],
      "stateMutability": "payable",
      "type": "function"
    },
    {
      "inputs": [
        {
          "internalType": "address",
          "name": "newOwner",
          "type": "address"
        }
      ],
      "name": "transferOwnership",
      "outputs": [],
      "stateMutability": "nonpayable",
      "type": "function"
    },
    {
      "inputs": [],
      "name": "unpause",
      "outputs": [],
      "stateMutability": "nonpayable",
      "type": "function"
    },
    {
      "inputs": [
        {
          "internalType": "bytes32",
          "name": "",
          "type": "bytes32"
        }
      ],
      "name": "usedProofs",
      "outputs": [
        {
          "internalType": "bool",
          "name": "",
          "type": "bool"
        }
      ],
      "stateMutability": "view",
      "type": "function"
    }
  ],
  "bytecode": "0x60c06040523480156200001157600080fd5b5060405162001713380380620017138339810160408190526200003491620000e8565b33806200005b57604051631e4fbdf760e01b81526000600482015260240160405180910390fd5b62000066816200007f565b506001600160a01b039182166080521660a05262000127565b600080546001600160a01b038381166001600160a01b0319831681178455604051919092169283917f8be0079c531659141344cd1fd0a4f28419497f9722a3daafe3b4186f6b6457e09190a35050565b6001600160a01b0381168114620000e557600080fd5b50565b60008060408385031215620000fc57600080fd5b82516200010981620000cf565b60208401519092506200011c81620000cf565b809150509250929050565b60805160a0516115a362000170600039600081816101830152818161043a01528181610767015261084201526000818161027601528181610ac10152610ca101526115a36000f3fe6080604052600436106100dd5760003560e01c80638da5cb5b1161007f578063c30a0f2511610059578063c30a0f2514610234578063c71d36b314610264578063ceefd62c14610298578063f2fde38b146102b857600080fd5b80638da5cb5b146101d2578063a0b23305146101f0578063affed0e01461021057600080fd5b80637056f41f116100bb5780637056f41f14610149578063715018a61461015c5780637b103999146101715780638456cb59146101bd57600080fd5b80633ba41430146100e25780633f4ba83a146101045780635c975abb14610119575b600080fd5b3480156100ee57600080fd5b506101026100fd36600461119e565b6102d8565b005b34801561011057600080fd5b5061010261040a565b34801561012557600080fd5b50600054600160a01b900460ff165b60405190151581526020015b60405180910390f35b610102610157366004611258565b61041c565b34801561016857600080fd5b50610102610562565b34801561017d57600080fd5b506101a57f000000000000000000000000000000000000000000000000000000000000000081565b6040516001600160a01b039091168152602001610140565b3480156101c957600080fd5b50610102610574565b3480156101de57600080fd5b506000546001600160a01b03166101a5565b3480156101fc57600080fd5b5061010261020b3660046112b2565b610584565b34801561021c57600080fd5b5061022660025481565b604051908152602001610140565b34801561024057600080fd5b5061013461024f366004611362565b60016020526000908152604090205460ff1681565b34801561027057600080fd5b506101a57f000000000000000000000000000000000000000000000000000000000000000081565b3480156102a457600080fd5b506101026102b336600461137b565b610749565b3480156102c457600080fd5b506101026102d33660046113c1565b610a54565b6102e0610a92565b60008381526001602052604090205460ff16156103315760405162461bcd60e51b815260206004820152600a6024820152691c1c9bdbd9881d5cd95960b21b60448201526064015b60405180910390fd5b61033c838383610abd565b600083815260016020819052604091829020805460ff19169091179055516340c10f1960e01b81526001600160a01b038681166004830152602482018690528716906340c10f1990604401600060405180830381600087803b1580156103a157600080fd5b505af11580156103b5573d6000803e3d6000fd5b505060408051878152602081018790526001600160a01b03808b169450891692507f91dd2cbfd54587f3aef7d0966c4185fae943cc4fe9e40877d4d7f2be4ec46e8091015b60405180910390a3505050505050565b610412610e1f565b61041a610e4c565b565b610424610a92565b604051634d240db960e01b8152600481018590527f00000000000000000000000000000000000000000000000000000000000000006001600160a01b031690634d240db990602401602060405180830381865afa158015610489573d6000803e3d6000fd5b505050506040513d601f19601f820116820180604052508101906104ad91906113e3565b6104ef5760405162461bcd60e51b815260206004820152601360248201527219195cdd0818da185a5b88191a5cd8589b1959606a1b6044820152606401610328565b60006002600081546105009061141b565b9190508190559050836001600160a01b0316336001600160a01b03167fcd8ce8338185abf04e651317f7a19fe6398d3a8e6fa4cdc710666dc3f2d7eb47878686348760405161055395949392919061145d565b60405180910390a35050505050565b61056a610e1f565b61041a6000610ea1565b61057c610e1f565b61041a610ef1565b61058c610a92565b60008381526001602052604090205460ff16156105d85760405162461bcd60e51b815260206004820152600a6024820152691c1c9bdbd9881d5cd95960b21b6044820152606401610328565b600061062160008b468c8c8c8c8080601f0160208091040260200160405190810160405280939291908181526020018383808284376000920191909152508e9250610f34915050565b90508381146106625760405162461bcd60e51b815260206004820152600d60248201526c0d0c2e6d040dad2e6dac2e8c6d609b1b6044820152606401610328565b61066d848484610abd565b6000848152600160208190526040808320805460ff1916909217909155516001600160a01b038a169087906106a5908b908b9061148b565b60006040518083038185875af1925050503d80600081146106e2576040519150601f19603f3d011682016040523d82523d6000602084013e6106e7565b606091505b50509050886001600160a01b0316336001600160a01b03167ff7c9eb785e43d5ad257a026fd1a3aef9d7f14f97dac442b61a63dff78efa219a8d8b8b86604051610734949392919061149b565b60405180910390a35050505050505050505050565b610751610a92565b604051634d240db960e01b8152600481018390527f00000000000000000000000000000000000000000000000000000000000000006001600160a01b031690634d240db990602401602060405180830381865afa1580156107b6573d6000803e3d6000fd5b505050506040513d601f19601f820116820180604052508101906107da91906113e3565b61081c5760405162461bcd60e51b815260206004820152601360248201527219195cdd0818da185a5b88191a5cd8589b1959606a1b6044820152606401610328565b604051630bc9dad160e01b8152600481018390526001600160a01b0385811660248301527f00000000000000000000000000000000000000000000000000000000000000001690630bc9dad190604401602060405180830381865afa158015610889573d6000803e3d6000fd5b505050506040513d601f19601f820116820180604052508101906108ad91906113e3565b6108ed5760405162461bcd60e51b81526020600482015260116024820152701d1bdad95b881b9bdd08185b1b1bddd959607a1b6044820152606401610328565b6000831161092a5760405162461bcd60e51b815260206004820152600a6024820152690616d6f756e74203d20360b41b6044820152606401610328565b6040516323b872dd60e01b8152336004820152306024820152604481018490526000906001600160a01b038616906323b872dd906064016020604051808303816000875af1158015610980573d6000803e3d6000fd5b505050506040513d601f19601f820116820180604052508101906109a491906113e3565b9050806109e55760405162461bcd60e51b815260206004820152600f60248201526e1d1c985b9cd9995c8819985a5b1959608a1b6044820152606401610328565b60006002600081546109f69061141b565b918290555060408051878152602081018790526001600160a01b03868116928201929092526060810183905291925087169033907f0e3b6efba50a82b66564e76271e9a340ad970ff461db2a0ce639902c405e59dd906080016103fa565b610a5c610e1f565b6001600160a01b038116610a8657604051631e4fbdf760e01b815260006004820152602401610328565b610a8f81610ea1565b50565b600054600160a01b900460ff161561041a5760405163d93c066560e01b815260040160405180910390fd5b60007f00000000000000000000000000000000000000000000000000000000000000006001600160a01b031663a82f2e266040518163ffffffff1660e01b8152600401602060405180830381865afa158015610b1d573d6000803e3d6000fd5b505050506040513d601f19601f82011682018060405250810190610b4191906114c8565b905060008111610b815760405162461bcd60e51b815260206004820152600b60248201526a07468726573686f6c643d360ac1b6044820152606401610328565b80821015610bc95760405162461bcd60e51b81526020600482015260156024820152746e6f7420656e6f756768207369676e61747572657360581b6044820152606401610328565b60008267ffffffffffffffff811115610be457610be46114e1565b604051908082528060200260200182016040528015610c0d578160200160208202803683370190505b50905060005b82811015610e17576000610c7f87878785818110610c3357610c336114f7565b9050602002810190610c45919061150d565b8080601f016020809104026020016040519081016040528093929190818152602001838380828437600092019190915250610fc292505050565b604051630a83aaa960e31b81526001600160a01b0380831660048301529192507f00000000000000000000000000000000000000000000000000000000000000009091169063541d554890602401602060405180830381865afa158015610cea573d6000803e3d6000fd5b505050506040513d601f19601f82011682018060405250810190610d0e91906113e3565b610d4b5760405162461bcd60e51b815260206004820152600e60248201526d34b73b30b634b21039b4b3b732b960911b6044820152606401610328565b60005b82811015610dd857816001600160a01b0316848281518110610d7257610d726114f7565b60200260200101516001600160a01b031603610dc65760405162461bcd60e51b81526020600482015260136024820152726475706c6963617465207369676e617475726560681b6044820152606401610328565b80610dd08161141b565b915050610d4e565b5080838381518110610dec57610dec6114f7565b6001600160a01b03909216602092830291909101909101525080610e0f8161141b565b915050610c13565b505050505050565b6000546001600160a01b0316331461041a5760405163118cdaa760e01b8152336004820152602401610328565b610e54611092565b6000805460ff60a01b191690557f5db9ee0a495bf2e6ff9c91a7834c1ba4fdd244a5e8aa4e537bd38aeae4b073aa335b6040516001600160a01b03909116815260200160405180910390a1565b600080546001600160a01b038381166001600160a01b0319831681178455604051919092169283917f8be0079c531659141344cd1fd0a4f28419497f9722a3daafe3b4186f6b6457e09190a35050565b610ef9610a92565b6000805460ff60a01b1916600160a01b1790557f62e78cea01bee320cd4e420270b5ea74000d11b0c9f74754ebdbfc544b05a258610e843390565b8151602092830120604080517fb6ab791f8292804e6f5ecb0f038d273a21df79eb5c2edc9297b0c1e983a6324e8186015280820199909952606089019790975260808801959095526001600160a01b0393841660a08801529190921660c086015260e08501929092526101008085019290925282518085039092018252610120909301909152805191012090565b6040517f19457468657265756d205369676e6564204d6573736167653a0a3332000000006020820152603c81018390526000908190605c016040516020818303038152906040528051906020012090506000806000611020866110bc565b60408051600081526020810180835289905260ff8316918101919091526060810184905260808101839052929550909350915060019060a0016020604051602081039080840390855afa15801561107b573d6000803e3d6000fd5b505050602060405103519450505050505b92915050565b600054600160a01b900460ff1661041a57604051638dfc202b60e01b815260040160405180910390fd5b600080600083516041146111035760405162461bcd60e51b815260206004820152600e60248201526d0c4c2c840e6d2ce40d8cadccee8d60931b6044820152606401610328565b50505060208101516040820151606083015160001a601b81101561112f5761112c601b82611554565b90505b9193909250565b80356001600160a01b038116811461114d57600080fd5b919050565b60008083601f84011261116457600080fd5b50813567ffffffffffffffff81111561117c57600080fd5b6020830191508360208260051b850101111561119757600080fd5b9250929050565b60008060008060008060a087890312156111b757600080fd5b6111c087611136565b95506111ce60208801611136565b94506040870135935060608701359250608087013567ffffffffffffffff8111156111f857600080fd5b61120489828a01611152565b979a9699509497509295939492505050565b60008083601f84011261122857600080fd5b50813567ffffffffffffffff81111561124057600080fd5b60208301915083602082850101111561119757600080fd5b6000806000806060858703121561126e57600080fd5b8435935061127e60208601611136565b9250604085013567ffffffffffffffff81111561129a57600080fd5b6112a687828801611216565b95989497509550505050565b600080600080600080600080600060e08a8c0312156112d057600080fd5b893598506112e060208b01611136565b97506112ee60408b01611136565b965060608a013567ffffffffffffffff8082111561130b57600080fd5b6113178d838e01611216565b909850965060808c0135955060a08c0135945060c08c013591508082111561133e57600080fd5b5061134b8c828d01611152565b915080935050809150509295985092959850929598565b60006020828403121561137457600080fd5b5035919050565b6000806000806080858703121561139157600080fd5b61139a85611136565b935060208501359250604085013591506113b660608601611136565b905092959194509250565b6000602082840312156113d357600080fd5b6113dc82611136565b9392505050565b6000602082840312156113f557600080fd5b815180151581146113dc57600080fd5b634e487b7160e01b600052601160045260246000fd5b60006001820161142d5761142d611405565b5060010190565b81835281816020850137506000828201602090810191909152601f909101601f19169091010190565b858152608060208201526000611477608083018688611434565b604083019490945250606001529392505050565b8183823760009101908152919050565b8481526060602082015260006114b5606083018587611434565b9050821515604083015295945050505050565b6000602082840312156114da57600080fd5b5051919050565b634e487b7160e01b600052604160045260246000fd5b634e487b7160e01b600052603260045260246000fd5b6000808335601e1984360301811261152457600080fd5b83018035915067ffffffffffffffff82111561153f57600080fd5b60200191503681900382131561119757600080fd5b60ff818116838216019081111561108c5761108c61140556fea2646970667358221220df5329adf43a0db0f40a119b5378b94b5bc6420a1a380eeaebfd8d77771329ac64736f6c63430008140033",
  "linkReferences": {},
  "deployedLinkReferences": {}
}