{
  "_format": "hh-sol-artifact-1",
  "contractName": "ReentrancyAttacker",
  "sourceName": "contracts/test/ReentrancyAttacker.sol",
  "abi": [
    {
      "inputs": [
        {
          "internalType": "address",
          "name": "_pool",
          "type": "address"
        },
        {
          "internalType": "address",
          "name": "_maliciousAsset",
          "type": "address"
        },
        {
          "internalType": "address",
          "name": "_collateralAsset",
          "type": "address"
        }
      ],
      "stateMutability": "nonpayable",
      "type": "constructor"
    },
    {
      "stateMutability": "payable",
      "type": "fallback"
    },
    {
      "inputs": [],
      "name": "attack",
      "outputs": [],
      "stateMutability": "nonpayable",
      "type": "function"
    },
    {
      "inputs": [
        {
          "internalType": "address",
          "name": "_token",
          "type": "address"
        },
        {
          "internalType": "uint256",
          "name": "_amount",
          "type": "uint256"
        }
      ],
      "name": "borrow",
      "outputs": [],
      "stateMutability": "nonpayable",
      "type": "function"
    },
    {
      "inputs": [
        {
          "internalType": "address",
          "name": "_token",
          "type": "address"
        },
        {
          "internalType": "uint256",
          "name": "_amount",
          "type": "uint256"
        }
      ],
      "name": "deposit",
      "outputs": [],
      "stateMutability": "nonpayable",
      "type": "function"
    },
    {
      "inputs": [],
      "name": "reenter",
      "outputs": [],
      "stateMutability": "nonpayable",
      "type": "function"
    },
    {
      "stateMutability": "payable",
      "type": "receive"
    }
  ],
  "bytecode": "0x60e060405234801561001057600080fd5b5060405161070c38038061070c83398101604081905261002f91610068565b6001600160a01b0392831660805290821660a0521660c0526100ab565b80516001600160a01b038116811461006357600080fd5b919050565b60008060006060848603121561007d57600080fd5b6100868461004c565b92506100946020850161004c565b91506100a26040850161004c565b90509250925092565b60805160a05160c0516105fa6101126000396000818161041a01526104d40152600081816102b80152610369015260008181610142015281816101e50152818161026c015281816102e30152818161039b01528181610445015261050301526105fa6000f3fe6080604052600436106100405760003560e01c806347e7ef24146100495780634b8a3529146100695780639e5faafc14610089578063a0fe97e31461009e57005b3661004757005b005b34801561005557600080fd5b50610047610064366004610535565b6100b3565b34801561007557600080fd5b50610047610084366004610535565b610246565b34801561009557600080fd5b5061004761029b565b3480156100aa57600080fd5b506100476103fd565b6040516323b872dd60e01b8152336004820152306024820152604481018290526001600160a01b038316906323b872dd906064016020604051808303816000875af1158015610106573d6000803e3d6000fd5b505050506040513d601f19601f8201168201806040525081019061012a919061056d565b5060405163095ea7b360e01b81526001600160a01b037f0000000000000000000000000000000000000000000000000000000000000000811660048301526024820183905283169063095ea7b3906044016020604051808303816000875af115801561019a573d6000803e3d6000fd5b505050506040513d601f19601f820116820180604052508101906101be919061056d565b506040516311f9fbc960e21b81526001600160a01b038381166004830152602482018390527f000000000000000000000000000000000000000000000000000000000000000016906347e7ef24906044015b600060405180830381600087803b15801561022a57600080fd5b505af115801561023e573d6000803e3d6000fd5b505050505050565b604051634b8a352960e01b81526001600160a01b038381166004830152602482018390527f00000000000000000000000000000000000000000000000000000000000000001690634b8a352990604401610210565b604051632ff75c5960e01b81523060048201526001600160a01b037f0000000000000000000000000000000000000000000000000000000000000000811660248301526000917f000000000000000000000000000000000000000000000000000000000000000090911690632ff75c5990604401606060405180830381865afa15801561032c573d6000803e3d6000fd5b505050506040513d601f19601f820116820180604052508101906103509190610596565b505060405163f3fef3a360e01b81526001600160a01b037f000000000000000000000000000000000000000000000000000000000000000081166004830152602482018390529192507f00000000000000000000000000000000000000000000000000000000000000009091169063f3fef3a3906044015b600060405180830381600087803b1580156103e257600080fd5b505af11580156103f6573d6000803e3d6000fd5b5050505050565b604051632ff75c5960e01b81523060048201526001600160a01b037f0000000000000000000000000000000000000000000000000000000000000000811660248301526000917f000000000000000000000000000000000000000000000000000000000000000090911690632ff75c5990604401606060405180830381865afa15801561048e573d6000803e3d6000fd5b505050506040513d601f19601f820116820180604052508101906104b29190610596565b509091505080156105325760405163f3fef3a360e01b81526001600160a01b037f000000000000000000000000000000000000000000000000000000000000000081166004830152602482018390527f0000000000000000000000000000000000000000000000000000000000000000169063f3fef3a3906044016103c8565b50565b6000806040838503121561054857600080fd5b82356001600160a01b038116811461055f57600080fd5b946020939093013593505050565b60006020828403121561057f57600080fd5b8151801515811461058f57600080fd5b9392505050565b6000806000606084860312156105ab57600080fd5b835192506020840151915060408401519050925092509256fea2646970667358221220bd9da603f64b9f3608f8fa6a7ebbe4265bc871b69b3add88652a4d4604497e5164736f6c63430008140033",
  "linkReferences": {},
  "deployedLinkReferences": {}
}