{
  "_format": "hh-sol-artifact-1",
  "contractName": "SimpleMultiSig",
  "sourceName": "contracts/governance/SimpleMultiSig.sol",
  "abi": [
    {
      "inputs": [
        {
          "internalType": "address[]",
          "name": "_owners",
          "type": "address[]"
        },
        {
          "internalType": "uint256",
          "name": "_required",
          "type": "uint256"
        }
      ],
      "stateMutability": "nonpayable",
      "type": "constructor"
    },
    {
      "anonymous": false,
      "inputs": [
        {
          "indexed": true,
          "internalType": "address",
          "name": "owner",
          "type": "address"
        },
        {
          "indexed": true,
          "internalType": "uint256",
          "name": "txId",
          "type": "uint256"
        }
      ],
      "name": "Confirm",
      "type": "event"
    },
    {
      "anonymous": false,
      "inputs": [
        {
          "indexed": true,
          "internalType": "address",
          "name": "executor",
          "type": "address"
        },
        {
          "indexed": true,
          "internalType": "uint256",
          "name": "txId",
          "type": "uint256"
        }
      ],
      "name": "Execute",
      "type": "event"
    },
    {
      "anonymous": false,
      "inputs": [
        {
          "indexed": true,
          "internalType": "address",
          "name": "owner",
          "type": "address"
        },
        {
          "indexed": true,
          "internalType": "uint256",
          "name": "txId",
          "type": "uint256"
        }
      ],
      "name": "Revoke",
      "type": "event"
    },
    {
      "anonymous": false,
      "inputs": [
        {
          "indexed": true,
          "internalType": "address",
          "name": "proposer",
          "type": "address"
        },
        {
          "indexed": true,
          "internalType": "uint256",
          "name": "txId",
          "type": "uint256"
        }
      ],
      "name": "Submit",
      "type": "event"
    },
    {
      "inputs": [
        {
          "internalType": "uint256",
          "name": "txId",
          "type": "uint256"
        }
      ],
      "name": "confirmTransaction",
      "outputs": [],
      "stateMutability": "nonpayable",
      "type": "function"
    },
    {
      "inputs": [
        {
          "internalType": "uint256",
          "name": "",
          "type": "uint256"
        },
        {
          "internalType": "address",
          "name": "",
          "type": "address"
        }
      ],
      "name": "confirmations",
      "outputs": [
        {
          "internalType": "bool",
          "name": "",
          "type": "bool"
        }
      ],
      "stateMutability": "view",
      "type": "function"
    },
    {
      "inputs": [
        {
          "internalType": "uint256",
          "name": "txId",
          "type": "uint256"
        }
      ],
      "name": "executeTransaction",
      "outputs": [],
      "stateMutability": "nonpayable",
      "type": "function"
    },
    {
      "inputs": [
        {
          "internalType": "address",
          "name": "",
          "type": "address"
        }
      ],
      "name": "isOwner",
      "outputs": [
        {
          "internalType": "bool",
          "name": "",
          "type": "bool"
        }
      ],
      "stateMutability": "view",
      "type": "function"
    },
    {
      "inputs": [
        {
          "internalType": "uint256",
          "name": "",
          "type": "uint256"
        }
      ],
      "name": "owners",
      "outputs": [
        {
          "internalType": "address",
          "name": "",
          "type": "address"
        }
      ],
      "stateMutability": "view",
      "type": "function"
    },
    {
      "inputs": [],
      "name": "required",
      "outputs": [
        {
          "internalType": "uint256",
          "name": "",
          "type": "uint256"
        }
      ],
      "stateMutability": "view",
      "type": "function"
    },
    {
      "inputs": [
        {
          "internalType": "address",
          "name": "to",
          "type": "address"
        },
        {
          "internalType": "uint256",
          "name": "value",
          "type": "uint256"
        },
        {
          "internalType": "bytes",
          "name": "data",
          "type": "bytes"
        }
      ],
      "name": "submitTransaction",
      "outputs": [
        {
          "internalType": "uint256",
          "name": "",
          "type": "uint256"
        }
      ],
      "stateMutability": "nonpayable",
      "type": "function"
    },
    {
      "inputs": [
        {
          "internalType": "uint256",
          "name": "",
          "type": "uint256"
        }
      ],
      "name": "transactions",
      "outputs": [
        {
          "internalType": "address",
          "name": "to",
          "type": "address"
        },
        {
          "internalType": "uint256",
          "name": "value",
          "type": "uint256"
        },
        {
          "internalType": "bytes",
          "name": "data",
          "type": "bytes"
        },
        {
          "internalType": "bool",
          "name": "executed",
          "type": "bool"
        },
        {
          "internalType": "uint256",
          "name": "confirmations",
          "type": "uint256"
        }
      ],
      "stateMutability": "view",
      "type": "function"
    },
    {
      "stateMutability": "payable",
      "type": "receive"
    }
  ],
  "bytecode": "0x60806040523480156200001157600080fd5b5060405162000f3538038062000f35833981016040819052620000349162000265565b60008251116200007d5760405162461bcd60e51b815260206004820152600f60248201526e1bdddb995c9cc81c995c5d5a5c9959608a1b60448201526064015b60405180910390fd5b6000811180156200008f575081518111155b620000d05760405162461bcd60e51b815260206004820152601060248201526f1a5b9d985b1a59081c995c5d5a5c995960821b604482015260640162000074565b60005b825181101562000227576000838281518110620000f457620000f46200033f565b6020026020010151905060006001600160a01b0316816001600160a01b031603620001525760405162461bcd60e51b815260206004820152600d60248201526c34b73b30b634b21037bbb732b960991b604482015260640162000074565b6001600160a01b03811660009081526002602052604090205460ff1615620001b05760405162461bcd60e51b815260206004820152601060248201526f6f776e6572206e6f7420756e6971756560801b604482015260640162000074565b6001600160a01b03166000818152600260205260408120805460ff19166001908117909155815490810182559080527f290decd9548b62a8d60345a988386fc84ba6bc95484008f6362f93160ef3e5630180546001600160a01b0319169091179055806200021e8162000355565b915050620000d3565b50600155506200037d565b634e487b7160e01b600052604160045260246000fd5b80516001600160a01b03811681146200026057600080fd5b919050565b600080604083850312156200027957600080fd5b82516001600160401b03808211156200029157600080fd5b818501915085601f830112620002a657600080fd5b8151602082821115620002bd57620002bd62000232565b8160051b604051601f19603f83011681018181108682111715620002e557620002e562000232565b6040529283528183019350848101820192898411156200030457600080fd5b948201945b838610156200032d576200031d8662000248565b8552948201949382019362000309565b97909101519698969750505050505050565b634e487b7160e01b600052603260045260246000fd5b6000600182016200037657634e487b7160e01b600052601160045260246000fd5b5060010190565b610ba8806200038d6000396000f3fe60806040526004361061007f5760003560e01c8063c01a8c841161004e578063c01a8c8414610174578063c642747414610196578063dc8452cd146101c4578063ee22610b146101da57600080fd5b8063025e7c271461008b5780632f54bf6e146100c85780633411c81c146101085780639ace38c21461014357600080fd5b3661008657005b600080fd5b34801561009757600080fd5b506100ab6100a636600461079d565b6101fa565b6040516001600160a01b0390911681526020015b60405180910390f35b3480156100d457600080fd5b506100f86100e33660046107d2565b60026020526000908152604090205460ff1681565b60405190151581526020016100bf565b34801561011457600080fd5b506100f86101233660046107f4565b600460209081526000928352604080842090915290825290205460ff1681565b34801561014f57600080fd5b5061016361015e36600461079d565b610224565b6040516100bf959493929190610820565b34801561018057600080fd5b5061019461018f36600461079d565b6102fd565b005b3480156101a257600080fd5b506101b66101b136600461089b565b610463565b6040519081526020016100bf565b3480156101d057600080fd5b506101b660015481565b3480156101e657600080fd5b506101946101f536600461079d565b6105c0565b6000818154811061020a57600080fd5b6000918252602090912001546001600160a01b0316905081565b6003818154811061023457600080fd5b60009182526020909120600590910201805460018201546002830180546001600160a01b03909316945090929161026a90610922565b80601f016020809104026020016040519081016040528092919081815260200182805461029690610922565b80156102e35780601f106102b8576101008083540402835291602001916102e3565b820191906000526020600020905b8154815290600101906020018083116102c657829003601f168201915b505050506003830154600490930154919260ff1691905085565b3360009081526002602052604090205460ff166103355760405162461bcd60e51b815260040161032c9061095c565b60405180910390fd5b60035481106103755760405162461bcd60e51b815260206004820152600c60248201526b1d1e081b9bdd08199bdd5b9960a21b604482015260640161032c565b600081815260046020908152604080832033845290915290205460ff16156103d35760405162461bcd60e51b8152602060048201526011602482015270185b1c9958591e4818dbdb999a5c9b5959607a1b604482015260640161032c565b60008181526004602090815260408083203384529091529020805460ff19166001908117909155600380548390811061040e5761040e61097f565b9060005260206000209060050201600401600082825461042e91906109ab565b9091555050604051819033907fbde73c39e691e6143456e01935275fd9f654dacca25911f03ab0d587644377eb90600090a350565b3360009081526002602052604081205460ff166104925760405162461bcd60e51b815260040161032c9061095c565b60036040518060a00160405280876001600160a01b0316815260200186815260200185858080601f01602080910402602001604051908101604052809392919081815260200183838082843760009201829052509385525050506020808301829052604092830182905284546001808201875595835291819020845160059093020180546001600160a01b0319166001600160a01b039093169290921782558301519381019390935581015190919060028201906105509082610a29565b5060608201516003828101805460ff1916921515929092179091556080909201516004909101555460009061058790600190610ae9565b604051909150819033907fc205a922ce10fe082feabd05c9b000dd57cbf54ebce16cf596ec84a2df65122f90600090a395945050505050565b3360009081526002602052604090205460ff166105ef5760405162461bcd60e51b815260040161032c9061095c565b6000600382815481106106045761060461097f565b60009182526020909120600590910201600381015490915060ff161561065f5760405162461bcd60e51b815260206004820152601060248201526f185b1c9958591e48195e1958dd5d195960821b604482015260640161032c565b600154816004015410156106b55760405162461bcd60e51b815260206004820152601860248201527f6e6f7420656e6f75676820636f6e6669726d6174696f6e730000000000000000604482015260640161032c565b60038101805460ff191660019081179091558154908201546040516000926001600160a01b031691906106ec906002860190610afc565b60006040518083038185875af1925050503d8060008114610729576040519150601f19603f3d011682016040523d82523d6000602084013e61072e565b606091505b505090508061076b5760405162461bcd60e51b81526020600482015260096024820152681d1e0819985a5b195960ba1b604482015260640161032c565b604051839033907f892cd8f5b436bd5fb7dac1f11aafb73345d892ba3e9fe09cd94d95ba84928e7390600090a3505050565b6000602082840312156107af57600080fd5b5035919050565b80356001600160a01b03811681146107cd57600080fd5b919050565b6000602082840312156107e457600080fd5b6107ed826107b6565b9392505050565b6000806040838503121561080757600080fd5b82359150610817602084016107b6565b90509250929050565b60018060a01b038616815260006020868184015260a0604084015285518060a085015260005b818110156108625787810183015185820160c001528201610846565b50600060c0828601015260c0601f19601f8301168501019250505061088b606083018515159052565b8260808301529695505050505050565b600080600080606085870312156108b157600080fd5b6108ba856107b6565b935060208501359250604085013567ffffffffffffffff808211156108de57600080fd5b818701915087601f8301126108f257600080fd5b81358181111561090157600080fd5b88602082850101111561091357600080fd5b95989497505060200194505050565b600181811c9082168061093657607f821691505b60208210810361095657634e487b7160e01b600052602260045260246000fd5b50919050565b6020808252600990820152683737ba1037bbb732b960b91b604082015260600190565b634e487b7160e01b600052603260045260246000fd5b634e487b7160e01b600052601160045260246000fd5b808201808211156109be576109be610995565b92915050565b634e487b7160e01b600052604160045260246000fd5b601f821115610a2457600081815260208120601f850160051c81016020861015610a015750805b601f850160051c820191505b81811015610a2057828155600101610a0d565b5050505b505050565b815167ffffffffffffffff811115610a4357610a436109c4565b610a5781610a518454610922565b846109da565b602080601f831160018114610a8c5760008415610a745750858301515b600019600386901b1c1916600185901b178555610a20565b600085815260208120601f198616915b82811015610abb57888601518255948401946001909101908401610a9c565b5085821015610ad95787850151600019600388901b60f8161c191681555b5050505050600190811b01905550565b818103818111156109be576109be610995565b6000808354610b0a81610922565b60018281168015610b225760018114610b3757610b66565b60ff1984168752821515830287019450610b66565b8760005260208060002060005b85811015610b5d5781548a820152908401908201610b44565b50505082870194505b5092969550505050505056fea26469706673582212209ca6d61dffefdd21eb2425b5adbbef45b45038b563466e99184414c21fc6684b64736f6c63430008140033",
  "linkReferences": {},
  "deployedLinkReferences": {}
}