{
  "_format": "hh-sol-artifact-1",
  "contractName": "LightClientMerkle",
  "sourceName": "contracts/bridge/LightClientMerkle.sol",
  "abi": [
    {
      "inputs": [],
      "stateMutability": "nonpayable",
      "type": "constructor"
    },
    {
      "inputs": [
        {
          "internalType": "address",
          "name": "owner",
          "type": "address"
        }
      ],
      "name": "OwnableInvalidOwner",
      "type": "error"
    },
    {
      "inputs": [
        {
          "internalType": "address",
          "name": "account",
          "type": "address"
        }
      ],
      "name": "OwnableUnauthorizedAccount",
      "type": "error"
    },
    {
      "anonymous": false,
      "inputs": [
        {
          "indexed": true,
          "internalType": "bytes32",
          "name": "root",
          "type": "bytes32"
        },
        {
          "indexed": true,
          "internalType": "address",
          "name": "submitter",
          "type": "address"
        }
      ],
      "name": "CheckpointSubmitted",
      "type": "event"
    },
    {
      "anonymous": false,
      "inputs": [
        {
          "indexed": true,
          "internalType": "address",
          "name": "previousOwner",
          "type": "address"
        },
        {
          "indexed": true,
          "internalType": "address",
          "name": "newOwner",
          "type": "address"
        }
      ],
      "name": "OwnershipTransferred",
      "type": "event"
    },
    {
      "inputs": [],
      "name": "latestHeaderRoot",
      "outputs": [
        {
          "internalType": "bytes32",
          "name": "",
          "type": "bytes32"
        }
      ],
      "stateMutability": "view",
      "type": "function"
    },
    {
      "inputs": [],
      "name": "latestRoot",
      "outputs": [
        {
          "internalType": "bytes32",
          "name": "",
          "type": "bytes32"
        }
      ],
      "stateMutability": "view",
      "type": "function"
    },
    {
      "inputs": [],
      "name": "owner",
      "outputs": [
        {
          "internalType": "address",
          "name": "",
          "type": "address"
        }
      ],
      "stateMutability": "view",
      "type": "function"
    },
    {
      "inputs": [
        {
          "internalType": "bytes32",
          "name": "",
          "type": "bytes32"
        }
      ],
      "name": "receiptsRootOf",
      "outputs": [
        {
          "internalType": "bytes32",
          "name": "",
          "type": "bytes32"
        }
      ],
      "stateMutability": "view",
      "type": "function"
    },
    {
      "inputs": [],
      "name": "renounceOwnership",
      "outputs": [],
      "stateMutability": "nonpayable",
      "type": "function"
    },
    {
      "inputs": [
        {
          "internalType": "bytes",
          "name": "headerOrCheckpoint",
          "type": "bytes"
        },
        {
          "internalType": "bytes[]",
          "name": "",
          "type": "bytes[]"
        }
      ],
      "name": "submitCheckpoint",
      "outputs": [],
      "stateMutability": "nonpayable",
      "type": "function"
    },
    {
      "inputs": [
        {
          "internalType": "bytes32",
          "name": "headerId",
          "type": "bytes32"
        },
        {
          "internalType": "bytes32",
          "name": "receiptsRoot",
          "type": "bytes32"
        }
      ],
      "name": "submitHeader",
      "outputs": [],
      "stateMutability": "nonpayable",
      "type": "function"
    },
    {
      "inputs": [
        {
          "internalType": "address",
          "name": "newOwner",
          "type": "address"
        }
      ],
      "name": "transferOwnership",
      "outputs": [],
      "stateMutability": "nonpayable",
      "type": "function"
    },
    {
      "inputs": [
        {
          "internalType": "bytes32",
          "name": "headerId",
          "type": "bytes32"
        },
        {
          "internalType": "bytes",
          "name": "proof",
          "type": "bytes"
        }
      ],
      "name": "verifyProof",
      "outputs": [
        {
          "internalType": "bool",
          "name": "",
          "type": "bool"
        }
      ],
      "stateMutability": "view",
      "type": "function"
    }
  ],
  "bytecode": "0x608060405234801561001057600080fd5b50338061003757604051631e4fbdf760e01b81526000600482015260240160405180910390fd5b61004081610046565b50610096565b600080546001600160a01b038381166001600160a01b0319831681178455604051919092169283917f8be0079c531659141344cd1fd0a4f28419497f9722a3daafe3b4186f6b6457e09190a35050565b610896806100a56000396000f3fe608060405234801561001057600080fd5b50600436106100935760003560e01c80638da5cb5b116100665780638da5cb5b1461010b578063b3ea093314610126578063b4399b4e1461012e578063d7b0fef114610141578063f2fde38b1461014a57600080fd5b80630f35ffc71461009857806329c3f292146100cb57806348203b07146100e0578063715018a614610103575b600080fd5b6100b86100a63660046104b9565b60016020526000908152604090205481565b6040519081526020015b60405180910390f35b6100de6100d936600461051b565b61015d565b005b6100f36100ee3660046105b5565b6101e5565b60405190151581526020016100c2565b6100de610399565b6000546040516001600160a01b0390911681526020016100c2565b6002546100b8565b6100de61013c366004610601565b6103ad565b6100b860025481565b6100de610158366004610623565b6103f9565b61016561043c565b600060208490036101835761017c848601866104b9565b905061019e565b848460405161019392919061064c565b604051809103902090505b600081815260016020526040808220839055600283905551339183917ffa058fb95e2b72e81000fe40c70df8910c06e081c5cd3c7979a315f5a29019869190a35050505050565b60008381526001602052604081205480610203576000915050610392565b6060808061021386880188610713565b82519295509093509150600003610231576000945050505050610392565b60c083600081518110610246576102466107fe565b016020015160f81c1015610261576000945050505050610392565b8151815161027090600861082a565b1015610283576000945050505050610392565b825160208401208060005b8451811015610387578351600382901c9060078316906000908790849081106102b9576102b96107fe565b016020015160f81c9050600181831c1615158061032257858986815181106102e3576102e36107fe565b6020026020010151604051602001610305929190918252602082015260400190565b604051602081830303815290604052805190602001209550610370565b888581518110610334576103346107fe565b602002602001015186604051602001610357929190918252602082015260400190565b6040516020818303038152906040528051906020012095505b50505050808061037f90610847565b91505061028e565b509094149450505050505b9392505050565b6103a161043c565b6103ab6000610469565b565b6103b561043c565b600082815260016020526040808220839055600283905551339183917ffa058fb95e2b72e81000fe40c70df8910c06e081c5cd3c7979a315f5a29019869190a35050565b61040161043c565b6001600160a01b03811661043057604051631e4fbdf760e01b8152600060048201526024015b60405180910390fd5b61043981610469565b50565b6000546001600160a01b031633146103ab5760405163118cdaa760e01b8152336004820152602401610427565b600080546001600160a01b038381166001600160a01b0319831681178455604051919092169283917f8be0079c531659141344cd1fd0a4f28419497f9722a3daafe3b4186f6b6457e09190a35050565b6000602082840312156104cb57600080fd5b5035919050565b60008083601f8401126104e457600080fd5b50813567ffffffffffffffff8111156104fc57600080fd5b60208301915083602082850101111561051457600080fd5b9250929050565b6000806000806040858703121561053157600080fd5b843567ffffffffffffffff8082111561054957600080fd5b610555888389016104d2565b9096509450602087013591508082111561056e57600080fd5b818701915087601f83011261058257600080fd5b81358181111561059157600080fd5b8860208260051b85010111156105a657600080fd5b95989497505060200194505050565b6000806000604084860312156105ca57600080fd5b83359250602084013567ffffffffffffffff8111156105e857600080fd5b6105f4868287016104d2565b9497909650939450505050565b6000806040838503121561061457600080fd5b50508035926020909101359150565b60006020828403121561063557600080fd5b81356001600160a01b038116811461039257600080fd5b8183823760009101908152919050565b634e487b7160e01b600052604160045260246000fd5b604051601f8201601f1916810167ffffffffffffffff8111828210171561069b5761069b61065c565b604052919050565b600082601f8301126106b457600080fd5b813567ffffffffffffffff8111156106ce576106ce61065c565b6106e1601f8201601f1916602001610672565b8181528460208386010111156106f657600080fd5b816020850160208301376000918101602001919091529392505050565b60008060006060848603121561072857600080fd5b833567ffffffffffffffff8082111561074057600080fd5b61074c878388016106a3565b945060209150818601358181111561076357600080fd5b8601601f8101881361077457600080fd5b8035828111156107865761078661065c565b8060051b610795858201610672565b918252828101850191858101908b8411156107af57600080fd5b938601935b838510156107cd578435825293860193908601906107b4565b97505050506040870135925050808211156107e757600080fd5b506107f4868287016106a3565b9150509250925092565b634e487b7160e01b600052603260045260246000fd5b634e487b7160e01b600052601160045260246000fd5b808202811582820484141761084157610841610814565b92915050565b60006001820161085957610859610814565b506001019056fea2646970667358221220712d25210c2a98b4f6cd126af5e7f86404056da87c24f2dda13f962ff08937dd64736f6c63430008140033",
  "linkReferences": {},
  "deployedLinkReferences": {}
}