{
  "_format": "hh-sol-artifact-1",
  "contractName": "LinearInterestRateModel",
  "sourceName": "contracts/interest/LinearInterestRateModel.sol",
  "abi": [
    {
      "inputs": [
        {
          "internalType": "uint256",
          "name": "_baseAPR",
          "type": "uint256"
        },
        {
          "internalType": "uint256",
          "name": "_slopeAPR",
          "type": "uint256"
        },
        {
          "internalType": "address",
          "name": "admin",
          "type": "address"
        }
      ],
      "stateMutability": "nonpayable",
      "type": "constructor"
    },
    {
      "inputs": [
        {
          "internalType": "address",
          "name": "owner",
          "type": "address"
        }
      ],
      "name": "OwnableInvalidOwner",
      "type": "error"
    },
    {
      "inputs": [
        {
          "internalType": "address",
          "name": "account",
          "type": "address"
        }
      ],
      "name": "OwnableUnauthorizedAccount",
      "type": "error"
    },
    {
      "anonymous": false,
      "inputs": [
        {
          "indexed": false,
          "internalType": "uint256",
          "name": "oldBaseAPR",
          "type": "uint256"
        },
        {
          "indexed": false,
          "internalType": "uint256",
          "name": "oldSlopeAPR",
          "type": "uint256"
        },
        {
          "indexed": false,
          "internalType": "uint256",
          "name": "newBaseAPR",
          "type": "uint256"
        },
        {
          "indexed": false,
          "internalType": "uint256",
          "name": "newSlopeAPR",
          "type": "uint256"
        }
      ],
      "name": "APRUpdated",
      "type": "event"
    },
    {
      "anonymous": false,
      "inputs": [
        {
          "indexed": true,
          "internalType": "address",
          "name": "previousOwner",
          "type": "address"
        },
        {
          "indexed": true,
          "internalType": "address",
          "name": "newOwner",
          "type": "address"
        }
      ],
      "name": "OwnershipTransferred",
      "type": "event"
    },
    {
      "inputs": [],
      "name": "SECONDS_PER_YEAR",
      "outputs": [
        {
          "internalType": "uint256",
          "name": "",
          "type": "uint256"
        }
      ],
      "stateMutability": "view",
      "type": "function"
    },
    {
      "inputs": [],
      "name": "baseAPR",
      "outputs": [
        {
          "internalType": "uint256",
          "name": "",
          "type": "uint256"
        }
      ],
      "stateMutability": "view",
      "type": "function"
    },
    {
      "inputs": [
        {
          "internalType": "uint256",
          "name": "utilization",
          "type": "uint256"
        }
      ],
      "name": "getBorrowRatePerSecond",
      "outputs": [
        {
          "internalType": "uint256",
          "name": "",
          "type": "uint256"
        }
      ],
      "stateMutability": "view",
      "type": "function"
    },
    {
      "inputs": [],
      "name": "owner",
      "outputs": [
        {
          "internalType": "address",
          "name": "",
          "type": "address"
        }
      ],
      "stateMutability": "view",
      "type": "function"
    },
    {
      "inputs": [],
      "name": "renounceOwnership",
      "outputs": [],
      "stateMutability": "nonpayable",
      "type": "function"
    },
    {
      "inputs": [
        {
          "internalType": "uint256",
          "name": "_baseAPR",
          "type": "uint256"
        },
        {
          "internalType": "uint256",
          "name": "_slopeAPR",
          "type": "uint256"
        }
      ],
      "name": "setAPR",
      "outputs": [],
      "stateMutability": "nonpayable",
      "type": "function"
    },
    {
      "inputs": [],
      "name": "slopeAPR",
      "outputs": [
        {
          "internalType": "uint256",
          "name": "",
          "type": "uint256"
        }
      ],
      "stateMutability": "view",
      "type": "function"
    },
    {
      "inputs": [
        {
          "internalType": "address",
          "name": "newOwner",
          "type": "address"
        }
      ],
      "name": "transferOwnership",
      "outputs": [],
      "stateMutability": "nonpayable",
      "type": "function"
    },
    {
      "inputs": [
        {
          "internalType": "uint256",
          "name": "",
          "type": "uint256"
        }
      ],
      "name": "updateBorrowRate",
      "outputs": [],
      "stateMutability": "pure",
      "type": "function"
    }
  ],
  "bytecode": "0x60806040523480156200001157600080fd5b5060405162000e4338038062000e43833981810160405281019062000037919062000334565b80600073ffffffffffffffffffffffffffffffffffffffff168173ffffffffffffffffffffffffffffffffffffffff1603620000ad5760006040517f1e4fbdf7000000000000000000000000000000000000000000000000000000008152600401620000a49190620003a1565b60405180910390fd5b620000be81620000da60201b60201c565b50620000d183836200019e60201b60201c565b50505062000511565b60008060009054906101000a900473ffffffffffffffffffffffffffffffffffffffff169050816000806101000a81548173ffffffffffffffffffffffffffffffffffffffff021916908373ffffffffffffffffffffffffffffffffffffffff1602179055508173ffffffffffffffffffffffffffffffffffffffff168173ffffffffffffffffffffffffffffffffffffffff167f8be0079c531659141344cd1fd0a4f28419497f9722a3daafe3b4186f6b6457e060405160405180910390a35050565b670de0b6b3a7640000821115620001ec576040517f08c379a0000000000000000000000000000000000000000000000000000000008152600401620001e3906200041f565b60405180910390fd5b674563918244f400008111156200023a576040517f08c379a0000000000000000000000000000000000000000000000000000000008152600401620002319062000491565b60405180910390fd5b7fad8f6a6e62b1b1141c73816454ffca0e89053b23623e128f2986cb0ebf966a4c6001546002548484604051620002759493929190620004c4565b60405180910390a181600181905550806002819055505050565b600080fd5b6000819050919050565b620002a98162000294565b8114620002b557600080fd5b50565b600081519050620002c9816200029e565b92915050565b600073ffffffffffffffffffffffffffffffffffffffff82169050919050565b6000620002fc82620002cf565b9050919050565b6200030e81620002ef565b81146200031a57600080fd5b50565b6000815190506200032e8162000303565b92915050565b60008060006060848603121562000350576200034f6200028f565b5b60006200036086828701620002b8565b93505060206200037386828701620002b8565b925050604062000386868287016200031d565b9150509250925092565b6200039b81620002ef565b82525050565b6000602082019050620003b8600083018462000390565b92915050565b600082825260208201905092915050565b7f6261736520746f6f206869676800000000000000000000000000000000000000600082015250565b600062000407600d83620003be565b91506200041482620003cf565b602082019050919050565b600060208201905081810360008301526200043a81620003f8565b9050919050565b7f736c6f706520746f6f2068696768000000000000000000000000000000000000600082015250565b600062000479600e83620003be565b9150620004868262000441565b602082019050919050565b60006020820190508181036000830152620004ac816200046a565b9050919050565b620004be8162000294565b82525050565b6000608082019050620004db6000830187620004b3565b620004ea6020830186620004b3565b620004f96040830185620004b3565b620005086060830184620004b3565b95945050505050565b61092280620005216000396000f3fe608060405234801561001057600080fd5b50600436106100935760003560e01c8063a230561b11610066578063a230561b146100fa578063c04418a214610116578063e6a69ab814610134578063f2fde38b14610152578063f71bd11b1461016e57610093565b806302b8c56d1461009857806358ac0e80146100b4578063715018a6146100d25780638da5cb5b146100dc575b600080fd5b6100b260048036038101906100ad919061056d565b61019e565b005b6100bc6101a1565b6040516100c991906105a9565b60405180910390f35b6100da6101a7565b005b6100e46101bb565b6040516100f19190610605565b60405180910390f35b610114600480360381019061010f9190610620565b6101e4565b005b61011e6101fa565b60405161012b91906105a9565b60405180910390f35b61013c610200565b60405161014991906105a9565b60405180910390f35b61016c6004803603810190610167919061068c565b610208565b005b6101886004803603810190610183919061056d565b61028e565b60405161019591906105a9565b60405180910390f35b50565b60015481565b6101af6102f6565b6101b9600061037d565b565b60008060009054906101000a900473ffffffffffffffffffffffffffffffffffffffff16905090565b6101ec6102f6565b6101f68282610441565b5050565b60025481565b6301e1338081565b6102106102f6565b600073ffffffffffffffffffffffffffffffffffffffff168173ffffffffffffffffffffffffffffffffffffffff16036102825760006040517f1e4fbdf70000000000000000000000000000000000000000000000000000000081526004016102799190610605565b60405180910390fd5b61028b8161037d565b50565b6000670de0b6b3a76400008211156102ac57670de0b6b3a764000091505b6000670de0b6b3a7640000836002546102c591906106e8565b6102cf9190610759565b6001546102dc919061078a565b90506301e13380816102ee9190610759565b915050919050565b6102fe61052a565b73ffffffffffffffffffffffffffffffffffffffff1661031c6101bb565b73ffffffffffffffffffffffffffffffffffffffff161461037b5761033f61052a565b6040517f118cdaa70000000000000000000000000000000000000000000000000000000081526004016103729190610605565b60405180910390fd5b565b60008060009054906101000a900473ffffffffffffffffffffffffffffffffffffffff169050816000806101000a81548173ffffffffffffffffffffffffffffffffffffffff021916908373ffffffffffffffffffffffffffffffffffffffff1602179055508173ffffffffffffffffffffffffffffffffffffffff168173ffffffffffffffffffffffffffffffffffffffff167f8be0079c531659141344cd1fd0a4f28419497f9722a3daafe3b4186f6b6457e060405160405180910390a35050565b670de0b6b3a764000082111561048c576040517f08c379a00000000000000000000000000000000000000000000000000000000081526004016104839061081b565b60405180910390fd5b674563918244f400008111156104d7576040517f08c379a00000000000000000000000000000000000000000000000000000000081526004016104ce90610887565b60405180910390fd5b7fad8f6a6e62b1b1141c73816454ffca0e89053b23623e128f2986cb0ebf966a4c600154600254848460405161051094939291906108a7565b60405180910390a181600181905550806002819055505050565b600033905090565b600080fd5b6000819050919050565b61054a81610537565b811461055557600080fd5b50565b60008135905061056781610541565b92915050565b60006020828403121561058357610582610532565b5b600061059184828501610558565b91505092915050565b6105a381610537565b82525050565b60006020820190506105be600083018461059a565b92915050565b600073ffffffffffffffffffffffffffffffffffffffff82169050919050565b60006105ef826105c4565b9050919050565b6105ff816105e4565b82525050565b600060208201905061061a60008301846105f6565b92915050565b6000806040838503121561063757610636610532565b5b600061064585828601610558565b925050602061065685828601610558565b9150509250929050565b610669816105e4565b811461067457600080fd5b50565b60008135905061068681610660565b92915050565b6000602082840312156106a2576106a1610532565b5b60006106b084828501610677565b91505092915050565b7f4e487b7100000000000000000000000000000000000000000000000000000000600052601160045260246000fd5b60006106f382610537565b91506106fe83610537565b925082820261070c81610537565b91508282048414831517610723576107226106b9565b5b5092915050565b7f4e487b7100000000000000000000000000000000000000000000000000000000600052601260045260246000fd5b600061076482610537565b915061076f83610537565b92508261077f5761077e61072a565b5b828204905092915050565b600061079582610537565b91506107a083610537565b92508282019050808211156107b8576107b76106b9565b5b92915050565b600082825260208201905092915050565b7f6261736520746f6f206869676800000000000000000000000000000000000000600082015250565b6000610805600d836107be565b9150610810826107cf565b602082019050919050565b60006020820190508181036000830152610834816107f8565b9050919050565b7f736c6f706520746f6f2068696768000000000000000000000000000000000000600082015250565b6000610871600e836107be565b915061087c8261083b565b602082019050919050565b600060208201905081810360008301526108a081610864565b9050919050565b60006080820190506108bc600083018761059a565b6108c9602083018661059a565b6108d6604083018561059a565b6108e3606083018461059a565b9594505050505056fea26469706673582212206a4a0a040ac2fd756864dc749e23c89dec4b18be2fabcbb44f3e5aa0203b3d0b64736f6c63430008140033",
  "linkReferences": {},
  "deployedLinkReferences": {}
}