{
  "_format": "hh-sol-artifact-1",
  "contractName": "ExponentialInterestRateModel",
  "sourceName": "contracts/interest/ExponentialInterestRateModel.sol",
  "abi": [
    {
      "inputs": [
        {
          "internalType": "uint256",
          "name": "_baseAPR",
          "type": "uint256"
        },
        {
          "internalType": "uint256",
          "name": "_coefficientAPR",
          "type": "uint256"
        },
        {
          "internalType": "uint256",
          "name": "_exponentFactor",
          "type": "uint256"
        },
        {
          "internalType": "address",
          "name": "admin",
          "type": "address"
        }
      ],
      "stateMutability": "nonpayable",
      "type": "constructor"
    },
    {
      "inputs": [
        {
          "internalType": "address",
          "name": "owner",
          "type": "address"
        }
      ],
      "name": "OwnableInvalidOwner",
      "type": "error"
    },
    {
      "inputs": [
        {
          "internalType": "address",
          "name": "account",
          "type": "address"
        }
      ],
      "name": "OwnableUnauthorizedAccount",
      "type": "error"
    },
    {
      "anonymous": false,
      "inputs": [
        {
          "indexed": true,
          "internalType": "address",
          "name": "previousOwner",
          "type": "address"
        },
        {
          "indexed": true,
          "internalType": "address",
          "name": "newOwner",
          "type": "address"
        }
      ],
      "name": "OwnershipTransferred",
      "type": "event"
    },
    {
      "anonymous": false,
      "inputs": [
        {
          "indexed": false,
          "internalType": "uint256",
          "name": "baseAPR",
          "type": "uint256"
        },
        {
          "indexed": false,
          "internalType": "uint256",
          "name": "coefficientAPR",
          "type": "uint256"
        },
        {
          "indexed": false,
          "internalType": "uint256",
          "name": "exponentFactor",
          "type": "uint256"
        }
      ],
      "name": "ParamsUpdated",
      "type": "event"
    },
    {
      "inputs": [],
      "name": "SECONDS_PER_YEAR",
      "outputs": [
        {
          "internalType": "uint256",
          "name": "",
          "type": "uint256"
        }
      ],
      "stateMutability": "view",
      "type": "function"
    },
    {
      "inputs": [],
      "name": "baseAPR",
      "outputs": [
        {
          "internalType": "uint256",
          "name": "",
          "type": "uint256"
        }
      ],
      "stateMutability": "view",
      "type": "function"
    },
    {
      "inputs": [],
      "name": "coefficientAPR",
      "outputs": [
        {
          "internalType": "uint256",
          "name": "",
          "type": "uint256"
        }
      ],
      "stateMutability": "view",
      "type": "function"
    },
    {
      "inputs": [],
      "name": "exponentFactor",
      "outputs": [
        {
          "internalType": "uint256",
          "name": "",
          "type": "uint256"
        }
      ],
      "stateMutability": "view",
      "type": "function"
    },
    {
      "inputs": [
        {
          "internalType": "uint256",
          "name": "utilization",
          "type": "uint256"
        }
      ],
      "name": "getBorrowRatePerSecond",
      "outputs": [
        {
          "internalType": "uint256",
          "name": "",
          "type": "uint256"
        }
      ],
      "stateMutability": "view",
      "type": "function"
    },
    {
      "inputs": [],
      "name": "owner",
      "outputs": [
        {
          "internalType": "address",
          "name": "",
          "type": "address"
        }
      ],
      "stateMutability": "view",
      "type": "function"
    },
    {
      "inputs": [],
      "name": "renounceOwnership",
      "outputs": [],
      "stateMutability": "nonpayable",
      "type": "function"
    },
    {
      "inputs": [
        {
          "internalType": "uint256",
          "name": "_baseAPR",
          "type": "uint256"
        },
        {
          "internalType": "uint256",
          "name": "_coefficientAPR",
          "type": "uint256"
        },
        {
          "internalType": "uint256",
          "name": "_exponentFactor",
          "type": "uint256"
        }
      ],
      "name": "setParams",
      "outputs": [],
      "stateMutability": "nonpayable",
      "type": "function"
    },
    {
      "inputs": [
        {
          "internalType": "address",
          "name": "newOwner",
          "type": "address"
        }
      ],
      "name": "transferOwnership",
      "outputs": [],
      "stateMutability": "nonpayable",
      "type": "function"
    },
    {
      "inputs": [
        {
          "internalType": "uint256",
          "name": "",
          "type": "uint256"
        }
      ],
      "name": "updateBorrowRate",
      "outputs": [],
      "stateMutability": "pure",
      "type": "function"
    }
  ],
  "bytecode": "0x608060405234801561001057600080fd5b506040516108d53803806108d583398101604081905261002f916101fa565b806001600160a01b03811661005f57604051631e4fbdf760e01b8152600060048201526024015b60405180910390fd5b6100688161007d565b506100748484846100cd565b50505050610249565b600080546001600160a01b038381166001600160a01b0319831681178455604051919092169283917f8be0079c531659141344cd1fd0a4f28419497f9722a3daafe3b4186f6b6457e09190a35050565b670de0b6b3a76400008311156101155760405162461bcd60e51b815260206004820152600d60248201526c0c4c2e6ca40e8dede40d0d2ced609b1b6044820152606401610056565b678ac7230489e8000082111561015e5760405162461bcd60e51b815260206004820152600e60248201526d0c6decacccc40e8dede40d0d2ced60931b6044820152606401610056565b671bc16d674ec800008111156101a55760405162461bcd60e51b815260206004820152600c60248201526b0caf0e040e8dede40d0d2ced60a31b6044820152606401610056565b60018390556002829055600381905560408051848152602081018490529081018290527f0cba168cfa7900657e5f8cc53d6f52ebbfa3a9f568941b465cc4f731c60c95b29060600160405180910390a1505050565b6000806000806080858703121561021057600080fd5b845160208601516040870151606088015192965090945092506001600160a01b038116811461023e57600080fd5b939692955090935050565b61067d806102586000396000f3fe608060405234801561001057600080fd5b506004361061009e5760003560e01c80638da5cb5b116100665780638da5cb5b146100f65780638fda4ced14610111578063e6a69ab81461011a578063f2fde38b14610125578063f71bd11b1461013857600080fd5b806302b8c56d146100a357806310457562146100b657806358ac0e80146100d25780635a0ce676146100db578063715018a6146100ee575b600080fd5b6100b46100b1366004610557565b50565b005b6100bf60035481565b6040519081526020015b60405180910390f35b6100bf60015481565b6100b46100e9366004610570565b61014b565b6100b4610163565b6000546040516001600160a01b0390911681526020016100c9565b6100bf60025481565b6100bf6301e1338081565b6100b461013336600461059c565b610177565b6100bf610146366004610557565b6101b7565b610153610259565b61015e838383610286565b505050565b61016b610259565b61017560006103b3565b565b61017f610259565b6001600160a01b0381166101ae57604051631e4fbdf760e01b8152600060048201526024015b60405180910390fd5b6100b1816103b3565b6000670de0b6b3a76400008211156101d557670de0b6b3a764000091505b6000670de0b6b3a7640000836003546101ee91906105e2565b6101f891906105ff565b9050600061020582610403565b90506000670de0b6b3a764000061021c8184610621565b60025461022991906105e2565b61023391906105ff565b6001546102409190610634565b90506102506301e13380826105ff565b95945050505050565b6000546001600160a01b031633146101755760405163118cdaa760e01b81523360048201526024016101a5565b670de0b6b3a76400008311156102ce5760405162461bcd60e51b815260206004820152600d60248201526c0c4c2e6ca40e8dede40d0d2ced609b1b60448201526064016101a5565b678ac7230489e800008211156103175760405162461bcd60e51b815260206004820152600e60248201526d0c6decacccc40e8dede40d0d2ced60931b60448201526064016101a5565b671bc16d674ec8000081111561035e5760405162461bcd60e51b815260206004820152600c60248201526b0caf0e040e8dede40d0d2ced60a31b60448201526064016101a5565b60018390556002829055600381905560408051848152602081018490529081018290527f0cba168cfa7900657e5f8cc53d6f52ebbfa3a9f568941b465cc4f731c60c95b29060600160405180910390a1505050565b600080546001600160a01b038381166001600160a01b0319831681178455604051919092169283917f8be0079c531659141344cd1fd0a4f28419497f9722a3daafe3b4186f6b6457e09190a35050565b6000671bc16d674ec8000082111561044c5760405162461bcd60e51b815260206004820152600c60248201526b657870206f766572666c6f7760a01b60448201526064016101a5565b670de0b6b3a7640000808061046185826105e2565b61046b91906105ff565b90506104778183610634565b9150670de0b6b3a764000061048c85836105e2565b61049691906105ff565b90506104a36002826105ff565b6104ad9083610634565b9150670de0b6b3a76400006104c285836105e2565b6104cc91906105ff565b90506104d96006826105ff565b6104e39083610634565b9150670de0b6b3a76400006104f885836105e2565b61050291906105ff565b905061050f6018826105ff565b6105199083610634565b9150670de0b6b3a764000061052e85836105e2565b61053891906105ff565b90506105456078826105ff565b61054f9083610634565b949350505050565b60006020828403121561056957600080fd5b5035919050565b60008060006060848603121561058557600080fd5b505081359360208301359350604090920135919050565b6000602082840312156105ae57600080fd5b81356001600160a01b03811681146105c557600080fd5b9392505050565b634e487b7160e01b600052601160045260246000fd5b80820281158282048414176105f9576105f96105cc565b92915050565b60008261061c57634e487b7160e01b600052601260045260246000fd5b500490565b818103818111156105f9576105f96105cc565b808201808211156105f9576105f96105cc56fea2646970667358221220a473a01c933f3618886ad96aaf3b74cce3492ff77f2d9d6842945b00a81b827e64736f6c63430008140033",
  "linkReferences": {},
  "deployedLinkReferences": {}
}