{
  "_format": "hh-sol-artifact-1",
  "contractName": "MockLendingPool",
  "sourceName": "contracts/test/MockLendingPool.sol",
  "abi": [
    {
      "inputs": [],
      "name": "currentUtilization",
      "outputs": [
        {
          "internalType": "uint256",
          "name": "",
          "type": "uint256"
        }
      ],
      "stateMutability": "view",
      "type": "function"
    },
    {
      "inputs": [],
      "name": "irm",
      "outputs": [
        {
          "internalType": "contract IInterestRateModel",
          "name": "",
          "type": "address"
        }
      ],
      "stateMutability": "view",
      "type": "function"
    },
    {
      "inputs": [
        {
          "internalType": "address",
          "name": "_irm",
          "type": "address"
        }
      ],
      "name": "setIRM",
      "outputs": [],
      "stateMutability": "nonpayable",
      "type": "function"
    },
    {
      "inputs": [
        {
          "internalType": "uint256",
          "name": "_utilization",
          "type": "uint256"
        }
      ],
      "name": "setUtilization",
      "outputs": [],
      "stateMutability": "nonpayable",
      "type": "function"
    },
    {
      "inputs": [],
      "name": "triggerRateUpdate",
      "outputs": [],
      "stateMutability": "nonpayable",
      "type": "function"
    },
    {
      "inputs": [],
      "name": "utilization",
      "outputs": [
        {
          "internalType": "uint256",
          "name": "",
          "type": "uint256"
        }
      ],
      "stateMutability": "view",
      "type": "function"
    }
  ],
  "bytecode": "0x608060405234801561001057600080fd5b506101e7806100206000396000f3fe608060405234801561001057600080fd5b50600436106100625760003560e01c806328e8fe7d146100675780639d4c214714610097578063c4ea6ccd146100ac578063d4bb0c73146100b4578063ea21cd92146100e4578063fff5d9da146100f6575b600080fd5b60005461007a906001600160a01b031681565b6040516001600160a01b0390911681526020015b60405180910390f35b6100aa6100a5366004610168565b600155565b005b6100aa6100ff565b6100aa6100c2366004610181565b600080546001600160a01b0319166001600160a01b0392909216919091179055565b6001545b60405190815260200161008e565b6100e860015481565b6000546001546040516302b8c56d60e01b81526001600160a01b03909216916302b8c56d916101349160040190815260200190565b600060405180830381600087803b15801561014e57600080fd5b505af1158015610162573d6000803e3d6000fd5b50505050565b60006020828403121561017a57600080fd5b5035919050565b60006020828403121561019357600080fd5b81356001600160a01b03811681146101aa57600080fd5b939250505056fea2646970667358221220a4f263d7e01b2dbae3203b53318eb31f7d9f0b9fa750b14eb7deb38767514b4164736f6c63430008140033",
  "linkReferences": {},
  "deployedLinkReferences": {}
}