{
  "_format": "hh-sol-artifact-1",
  "contractName": "MockPriceOracle",
  "sourceName": "contracts/test/MockPriceOracle.sol",
  "abi": [
    {
      "inputs": [
        {
          "internalType": "address",
          "name": "admin",
          "type": "address"
        }
      ],
      "stateMutability": "nonpayable",
      "type": "constructor"
    },
    {
      "inputs": [
        {
          "internalType": "address",
          "name": "owner",
          "type": "address"
        }
      ],
      "name": "OwnableInvalidOwner",
      "type": "error"
    },
    {
      "inputs": [
        {
          "internalType": "address",
          "name": "account",
          "type": "address"
        }
      ],
      "name": "OwnableUnauthorizedAccount",
      "type": "error"
    },
    {
      "anonymous": false,
      "inputs": [
        {
          "indexed": true,
          "internalType": "address",
          "name": "previousOwner",
          "type": "address"
        },
        {
          "indexed": true,
          "internalType": "address",
          "name": "newOwner",
          "type": "address"
        }
      ],
      "name": "OwnershipTransferred",
      "type": "event"
    },
    {
      "anonymous": false,
      "inputs": [
        {
          "indexed": true,
          "internalType": "address",
          "name": "asset",
          "type": "address"
        },
        {
          "indexed": false,
          "internalType": "uint256",
          "name": "price",
          "type": "uint256"
        }
      ],
      "name": "PriceUpdated",
      "type": "event"
    },
    {
      "inputs": [],
      "name": "decimals",
      "outputs": [
        {
          "internalType": "uint8",
          "name": "",
          "type": "uint8"
        }
      ],
      "stateMutability": "pure",
      "type": "function"
    },
    {
      "inputs": [
        {
          "internalType": "address",
          "name": "asset",
          "type": "address"
        }
      ],
      "name": "getPrice",
      "outputs": [
        {
          "internalType": "uint256",
          "name": "",
          "type": "uint256"
        }
      ],
      "stateMutability": "view",
      "type": "function"
    },
    {
      "inputs": [],
      "name": "owner",
      "outputs": [
        {
          "internalType": "address",
          "name": "",
          "type": "address"
        }
      ],
      "stateMutability": "view",
      "type": "function"
    },
    {
      "inputs": [],
      "name": "renounceOwnership",
      "outputs": [],
      "stateMutability": "nonpayable",
      "type": "function"
    },
    {
      "inputs": [
        {
          "internalType": "address",
          "name": "asset",
          "type": "address"
        },
        {
          "internalType": "uint256",
          "name": "price",
          "type": "uint256"
        }
      ],
      "name": "setPrice",
      "outputs": [],
      "stateMutability": "nonpayable",
      "type": "function"
    },
    {
      "inputs": [
        {
          "internalType": "address",
          "name": "newOwner",
          "type": "address"
        }
      ],
      "name": "transferOwnership",
      "outputs": [],
      "stateMutability": "nonpayable",
      "type": "function"
    }
  ],
  "bytecode": "0x608060405234801561001057600080fd5b5060405161042438038061042483398101604081905261002f916100be565b806001600160a01b03811661005e57604051631e4fbdf760e01b81526000600482015260240160405180910390fd5b6100678161006e565b50506100ee565b600080546001600160a01b038381166001600160a01b0319831681178455604051919092169283917f8be0079c531659141344cd1fd0a4f28419497f9722a3daafe3b4186f6b6457e09190a35050565b6000602082840312156100d057600080fd5b81516001600160a01b03811681146100e757600080fd5b9392505050565b610327806100fd6000396000f3fe608060405234801561001057600080fd5b50600436106100615760003560e01c8062e4768b14610066578063313ce5671461007b57806341976e091461008f578063715018a6146100b05780638da5cb5b146100b8578063f2fde38b146100d3575b600080fd5b6100796100743660046102a5565b6100e6565b005b604051600881526020015b60405180910390f35b6100a261009d3660046102cf565b610147565b604051908152602001610086565b6100796101ba565b6000546040516001600160a01b039091168152602001610086565b6100796100e13660046102cf565b6101ce565b6100ee61020c565b6001600160a01b03821660008181526001602052604090819020839055517f0d86730737b142fc160892fa8a0f2db687a92a0e294d1ad70624cf5acef03b849061013b9084815260200190565b60405180910390a25050565b6001600160a01b0381166000908152600160205260408120548082036101b45760405162461bcd60e51b815260206004820152601c60248201527f5072696365206e6f742073657420666f7220746869732061737365740000000060448201526064015b60405180910390fd5b92915050565b6101c261020c565b6101cc6000610239565b565b6101d661020c565b6001600160a01b03811661020057604051631e4fbdf760e01b8152600060048201526024016101ab565b61020981610239565b50565b6000546001600160a01b031633146101cc5760405163118cdaa760e01b81523360048201526024016101ab565b600080546001600160a01b038381166001600160a01b0319831681178455604051919092169283917f8be0079c531659141344cd1fd0a4f28419497f9722a3daafe3b4186f6b6457e09190a35050565b80356001600160a01b03811681146102a057600080fd5b919050565b600080604083850312156102b857600080fd5b6102c183610289565b946020939093013593505050565b6000602082840312156102e157600080fd5b6102ea82610289565b939250505056fea2646970667358221220466a320717873ca31bc4eb2cd3804e0f104ed6b7aaa72a83a69be8e304be2bc764736f6c63430008140033",
  "linkReferences": {},
  "deployedLinkReferences": {}
}