{
  "_format": "hh-sol-artifact-1",
  "contractName": "RelayerManager",
  "sourceName": "contracts/bridge/RelayerManager.sol",
  "abi": [
    {
      "inputs": [
        {
          "internalType": "address",
          "name": "_stakingToken",
          "type": "address"
        },
        {
          "internalType": "uint256",
          "name": "_minStake",
          "type": "uint256"
        }
      ],
      "stateMutability": "nonpayable",
      "type": "constructor"
    },
    {
      "inputs": [
        {
          "internalType": "address",
          "name": "owner",
          "type": "address"
        }
      ],
      "name": "OwnableInvalidOwner",
      "type": "error"
    },
    {
      "inputs": [
        {
          "internalType": "address",
          "name": "account",
          "type": "address"
        }
      ],
      "name": "OwnableUnauthorizedAccount",
      "type": "error"
    },
    {
      "anonymous": false,
      "inputs": [
        {
          "indexed": true,
          "internalType": "address",
          "name": "previousOwner",
          "type": "address"
        },
        {
          "indexed": true,
          "internalType": "address",
          "name": "newOwner",
          "type": "address"
        }
      ],
      "name": "OwnershipTransferred",
      "type": "event"
    },
    {
      "anonymous": false,
      "inputs": [
        {
          "indexed": true,
          "internalType": "address",
          "name": "relayer",
          "type": "address"
        },
        {
          "indexed": false,
          "internalType": "uint256",
          "name": "amount",
          "type": "uint256"
        }
      ],
      "name": "Slashed",
      "type": "event"
    },
    {
      "anonymous": false,
      "inputs": [
        {
          "indexed": true,
          "internalType": "address",
          "name": "relayer",
          "type": "address"
        },
        {
          "indexed": false,
          "internalType": "uint256",
          "name": "amount",
          "type": "uint256"
        }
      ],
      "name": "Staked",
      "type": "event"
    },
    {
      "anonymous": false,
      "inputs": [
        {
          "indexed": true,
          "internalType": "address",
          "name": "relayer",
          "type": "address"
        },
        {
          "indexed": false,
          "internalType": "uint256",
          "name": "amount",
          "type": "uint256"
        }
      ],
      "name": "Unstaked",
      "type": "event"
    },
    {
      "inputs": [],
      "name": "getRelayerCount",
      "outputs": [
        {
          "internalType": "uint256",
          "name": "",
          "type": "uint256"
        }
      ],
      "stateMutability": "view",
      "type": "function"
    },
    {
      "inputs": [],
      "name": "getRelayers",
      "outputs": [
        {
          "internalType": "address[]",
          "name": "",
          "type": "address[]"
        }
      ],
      "stateMutability": "view",
      "type": "function"
    },
    {
      "inputs": [
        {
          "internalType": "address",
          "name": "",
          "type": "address"
        }
      ],
      "name": "isRelayer",
      "outputs": [
        {
          "internalType": "bool",
          "name": "",
          "type": "bool"
        }
      ],
      "stateMutability": "view",
      "type": "function"
    },
    {
      "inputs": [],
      "name": "minStake",
      "outputs": [
        {
          "internalType": "uint256",
          "name": "",
          "type": "uint256"
        }
      ],
      "stateMutability": "view",
      "type": "function"
    },
    {
      "inputs": [],
      "name": "owner",
      "outputs": [
        {
          "internalType": "address",
          "name": "",
          "type": "address"
        }
      ],
      "stateMutability": "view",
      "type": "function"
    },
    {
      "inputs": [
        {
          "internalType": "uint256",
          "name": "",
          "type": "uint256"
        }
      ],
      "name": "relayerSet",
      "outputs": [
        {
          "internalType": "address",
          "name": "",
          "type": "address"
        }
      ],
      "stateMutability": "view",
      "type": "function"
    },
    {
      "inputs": [],
      "name": "renounceOwnership",
      "outputs": [],
      "stateMutability": "nonpayable",
      "type": "function"
    },
    {
      "inputs": [],
      "name": "signatureThreshold",
      "outputs": [
        {
          "internalType": "uint256",
          "name": "",
          "type": "uint256"
        }
      ],
      "stateMutability": "view",
      "type": "function"
    },
    {
      "inputs": [
        {
          "internalType": "address",
          "name": "relayer",
          "type": "address"
        },
        {
          "internalType": "uint256",
          "name": "amount",
          "type": "uint256"
        }
      ],
      "name": "slash",
      "outputs": [],
      "stateMutability": "nonpayable",
      "type": "function"
    },
    {
      "inputs": [],
      "name": "stake",
      "outputs": [],
      "stateMutability": "nonpayable",
      "type": "function"
    },
    {
      "inputs": [
        {
          "internalType": "address",
          "name": "",
          "type": "address"
        }
      ],
      "name": "stakes",
      "outputs": [
        {
          "internalType": "uint256",
          "name": "",
          "type": "uint256"
        }
      ],
      "stateMutability": "view",
      "type": "function"
    },
    {
      "inputs": [],
      "name": "stakingToken",
      "outputs": [
        {
          "internalType": "contract IERC20",
          "name": "",
          "type": "address"
        }
      ],
      "stateMutability": "view",
      "type": "function"
    },
    {
      "inputs": [
        {
          "internalType": "address",
          "name": "newOwner",
          "type": "address"
        }
      ],
      "name": "transferOwnership",
      "outputs": [],
      "stateMutability": "nonpayable",
      "type": "function"
    },
    {
      "inputs": [],
      "name": "unstake",
      "outputs": [],
      "stateMutability": "nonpayable",
      "type": "function"
    }
  ],
  "bytecode": "0x60c060405234801561001057600080fd5b50604051610ed1380380610ed183398101604081905261002f9161016c565b338061005657604051631e4fbdf760e01b8152600060048201526024015b60405180910390fd5b61005f8161011c565b506001600160a01b0382166100b65760405162461bcd60e51b815260206004820152601560248201527f496e76616c696420746f6b656e20616464726573730000000000000000000000604482015260640161004d565b600081116101065760405162461bcd60e51b815260206004820152601e60248201527f4d696e696d756d207374616b65206d75737420626520706f7369746976650000604482015260640161004d565b6001600160a01b0390911660805260a0526101a6565b600080546001600160a01b038381166001600160a01b0319831681178455604051919092169283917f8be0079c531659141344cd1fd0a4f28419497f9722a3daafe3b4186f6b6457e09190a35050565b6000806040838503121561017f57600080fd5b82516001600160a01b038116811461019657600080fd5b6020939093015192949293505050565b60805160a051610cdc6101f560003960008181610159015281816107840152818161080d01526109060152600081816101c3015281816105ad0152818161070d01526108360152610cdc6000f3fe608060405234801561001057600080fd5b50600436106100ea5760003560e01c8063715018a61161008c5780639fe8285f116100665780639fe8285f1461020e578063a82f2e2614610221578063e51ea0b514610229578063f2fde38b1461023157600080fd5b8063715018a6146101b657806372f702f3146101be5780638da5cb5b146101fd57600080fd5b80632def6620116100c85780632def66201461014c578063375b3c0a146101545780633a4b66f11461017b578063541d55481461018357600080fd5b806302fb4d85146100ef57806316934fc414610104578063179ff4b214610137575b600080fd5b6101026100fd366004610af9565b610244565b005b610124610112366004610b23565b60016020526000908152604090205481565b6040519081526020015b60405180910390f35b61013f610392565b60405161012e9190610b45565b6101026103f4565b6101247f000000000000000000000000000000000000000000000000000000000000000081565b61010261069b565b6101a6610191366004610b23565b60036020526000908152604090205460ff1681565b604051901515815260200161012e565b6101026109a7565b6101e57f000000000000000000000000000000000000000000000000000000000000000081565b6040516001600160a01b03909116815260200161012e565b6000546001600160a01b03166101e5565b6101e561021c366004610b92565b6109bb565b6101246109e5565b600254610124565b61010261023f366004610b23565b610a22565b61024c610a60565b6001600160a01b03821660009081526003602052604090205460ff166102b95760405162461bcd60e51b815260206004820152601860248201527f41646472657373206973206e6f7420612072656c61796572000000000000000060448201526064015b60405180910390fd5b6001600160a01b038216600090815260016020526040902054808211156103225760405162461bcd60e51b815260206004820152601a60248201527f536c61736820616d6f756e742065786365656473207374616b6500000000000060448201526064016102b0565b6001600160a01b0383166000908152600160205260408120805484929061034a908490610bc1565b90915550506040518281526001600160a01b038416907f4ed05e9673c26d2ed44f7ef6a7f2942df0ee3b5e1e17db4b99f9dcd261a339cd9060200160405180910390a2505050565b606060028054806020026020016040519081016040528092919081815260200182805480156103ea57602002820191906000526020600020905b81546001600160a01b031681526001909101906020018083116103cc575b5050505050905090565b3360009081526003602052604090205460ff1661044b5760405162461bcd60e51b81526020600482015260156024820152742737ba1030b71030b1ba34bb32903932b630bcb2b960591b60448201526064016102b0565b33600090815260016020526040812054905b60025481101561056257336001600160a01b03166002828154811061048457610484610bda565b6000918252602090912001546001600160a01b03160361055057600280546104ae90600190610bc1565b815481106104be576104be610bda565b600091825260209091200154600280546001600160a01b0390921691839081106104ea576104ea610bda565b9060005260206000200160006101000a8154816001600160a01b0302191690836001600160a01b03160217905550600280548061052957610529610bf0565b600082815260209020810160001990810180546001600160a01b0319169055019055610562565b8061055a81610c06565b91505061045d565b50336000818152600360209081526040808320805460ff1916905560019091528082208290555163a9059cbb60e01b8152600481019290925260248201839052906001600160a01b037f0000000000000000000000000000000000000000000000000000000000000000169063a9059cbb906044016020604051808303816000875af11580156105f6573d6000803e3d6000fd5b505050506040513d601f19601f8201168201806040525081019061061a9190610c1f565b9050806106615760405162461bcd60e51b8152602060048201526015602482015274151bdad95b881d1c985b9cd9995c8819985a5b1959605a1b60448201526064016102b0565b60405182815233907f0f5bb82176feb1b5e747e28471aa92156a04d9f3ab9f45f28e2d704232b93f75906020015b60405180910390a25050565b3360009081526003602052604090205460ff16156106ef5760405162461bcd60e51b815260206004820152601160248201527020b63932b0b23c9030903932b630bcb2b960791b60448201526064016102b0565b604051636eb1769f60e11b81523360048201523060248201526000907f00000000000000000000000000000000000000000000000000000000000000006001600160a01b03169063dd62ed3e90604401602060405180830381865afa15801561075c573d6000803e3d6000fd5b505050506040513d601f19601f820116820180604052508101906107809190610c41565b90507f00000000000000000000000000000000000000000000000000000000000000008110156107f25760405162461bcd60e51b815260206004820152601c60248201527f496e73756666696369656e7420746f6b656e20616c6c6f77616e63650000000060448201526064016102b0565b6040516323b872dd60e01b81523360048201523060248201527f000000000000000000000000000000000000000000000000000000000000000060448201526000907f00000000000000000000000000000000000000000000000000000000000000006001600160a01b0316906323b872dd906064016020604051808303816000875af1158015610887573d6000803e3d6000fd5b505050506040513d601f19601f820116820180604052508101906108ab9190610c1f565b9050806108f25760405162461bcd60e51b8152602060048201526015602482015274151bdad95b881d1c985b9cd9995c8819985a5b1959605a1b60448201526064016102b0565b3360008181526001602081815260408084207f00000000000000000000000000000000000000000000000000000000000000009081905560038352818520805460ff1916851790556002805494850181559094527f405787fa12a823e0f2b7631cc41b3ba8828b3321ca811111fa75cd3aa3bb5ace90920180546001600160a01b0319168517905590519182527f9e71bc8eea02a63969f509818f2dafb9254532904319f9dbda79b67bd34a5f3d910161068f565b6109af610a60565b6109b96000610a8d565b565b600281815481106109cb57600080fd5b6000918252602090912001546001600160a01b0316905081565b6002546000908082036109fa57600091505090565b6003610a07826002610c5a565b610a119190610c71565b610a1c906001610c93565b91505090565b610a2a610a60565b6001600160a01b038116610a5457604051631e4fbdf760e01b8152600060048201526024016102b0565b610a5d81610a8d565b50565b6000546001600160a01b031633146109b95760405163118cdaa760e01b81523360048201526024016102b0565b600080546001600160a01b038381166001600160a01b0319831681178455604051919092169283917f8be0079c531659141344cd1fd0a4f28419497f9722a3daafe3b4186f6b6457e09190a35050565b80356001600160a01b0381168114610af457600080fd5b919050565b60008060408385031215610b0c57600080fd5b610b1583610add565b946020939093013593505050565b600060208284031215610b3557600080fd5b610b3e82610add565b9392505050565b6020808252825182820181905260009190848201906040850190845b81811015610b865783516001600160a01b031683529284019291840191600101610b61565b50909695505050505050565b600060208284031215610ba457600080fd5b5035919050565b634e487b7160e01b600052601160045260246000fd5b81810381811115610bd457610bd4610bab565b92915050565b634e487b7160e01b600052603260045260246000fd5b634e487b7160e01b600052603160045260246000fd5b600060018201610c1857610c18610bab565b5060010190565b600060208284031215610c3157600080fd5b81518015158114610b3e57600080fd5b600060208284031215610c5357600080fd5b5051919050565b8082028115828204841417610bd457610bd4610bab565b600082610c8e57634e487b7160e01b600052601260045260246000fd5b500490565b80820180821115610bd457610bd4610bab56fea26469706673582212209212b7141c633c52c163f004d9017bb4d5d480b0d7b333f51e2e1a2041e5549764736f6c63430008140033",
  "linkReferences": {},
  "deployedLinkReferences": {}
}