{
  "_format": "hh-sol-artifact-1",
  "contractName": "Gateway",
  "sourceName": "contracts/bridge/Gateway.sol",
  "abi": [
    {
      "inputs": [
        {
          "internalType": "address",
          "name": "admin",
          "type": "address"
        },
        {
          "internalType": "address[]",
          "name": "initialRelayers",
          "type": "address[]"
        },
        {
          "internalType": "uint256",
          "name": "_signatureThreshold",
          "type": "uint256"
        }
      ],
      "stateMutability": "nonpayable",
      "type": "constructor"
    },
    {
      "inputs": [
        {
          "internalType": "address",
          "name": "owner",
          "type": "address"
        }
      ],
      "name": "OwnableInvalidOwner",
      "type": "error"
    },
    {
      "inputs": [
        {
          "internalType": "address",
          "name": "account",
          "type": "address"
        }
      ],
      "name": "OwnableUnauthorizedAccount",
      "type": "error"
    },
    {
      "anonymous": false,
      "inputs": [
        {
          "indexed": true,
          "internalType": "address",
          "name": "executor",
          "type": "address"
        },
        {
          "indexed": true,
          "internalType": "address",
          "name": "target",
          "type": "address"
        },
        {
          "indexed": false,
          "internalType": "uint256",
          "name": "fromChainId",
          "type": "uint256"
        },
        {
          "indexed": false,
          "internalType": "bytes",
          "name": "payload",
          "type": "bytes"
        },
        {
          "indexed": false,
          "internalType": "bool",
          "name": "success",
          "type": "bool"
        }
      ],
      "name": "MessageReceived",
      "type": "event"
    },
    {
      "anonymous": false,
      "inputs": [
        {
          "indexed": true,
          "internalType": "address",
          "name": "sender",
          "type": "address"
        },
        {
          "indexed": false,
          "internalType": "uint256",
          "name": "toChainId",
          "type": "uint256"
        },
        {
          "indexed": false,
          "internalType": "bytes",
          "name": "payload",
          "type": "bytes"
        }
      ],
      "name": "MessageSent",
      "type": "event"
    },
    {
      "anonymous": false,
      "inputs": [
        {
          "indexed": true,
          "internalType": "address",
          "name": "previousOwner",
          "type": "address"
        },
        {
          "indexed": true,
          "internalType": "address",
          "name": "newOwner",
          "type": "address"
        }
      ],
      "name": "OwnershipTransferred",
      "type": "event"
    },
    {
      "anonymous": false,
      "inputs": [
        {
          "indexed": true,
          "internalType": "address",
          "name": "by",
          "type": "address"
        }
      ],
      "name": "Paused",
      "type": "event"
    },
    {
      "anonymous": false,
      "inputs": [
        {
          "indexed": true,
          "internalType": "address",
          "name": "relayer",
          "type": "address"
        }
      ],
      "name": "RelayerAdded",
      "type": "event"
    },
    {
      "anonymous": false,
      "inputs": [
        {
          "indexed": true,
          "internalType": "address",
          "name": "relayer",
          "type": "address"
        }
      ],
      "name": "RelayerRemoved",
      "type": "event"
    },
    {
      "anonymous": false,
      "inputs": [
        {
          "indexed": false,
          "internalType": "uint256",
          "name": "newThreshold",
          "type": "uint256"
        }
      ],
      "name": "SignatureThresholdSet",
      "type": "event"
    },
    {
      "anonymous": false,
      "inputs": [
        {
          "indexed": true,
          "internalType": "address",
          "name": "originalSender",
          "type": "address"
        },
        {
          "indexed": true,
          "internalType": "address",
          "name": "token",
          "type": "address"
        },
        {
          "indexed": false,
          "internalType": "uint256",
          "name": "amount",
          "type": "uint256"
        },
        {
          "indexed": false,
          "internalType": "uint256",
          "name": "fromChainId",
          "type": "uint256"
        }
      ],
      "name": "TokensReceived",
      "type": "event"
    },
    {
      "anonymous": false,
      "inputs": [
        {
          "indexed": true,
          "internalType": "address",
          "name": "user",
          "type": "address"
        },
        {
          "indexed": true,
          "internalType": "address",
          "name": "originalToken",
          "type": "address"
        },
        {
          "indexed": false,
          "internalType": "uint256",
          "name": "amount",
          "type": "uint256"
        },
        {
          "indexed": false,
          "internalType": "uint256",
          "name": "toChainId",
          "type": "uint256"
        }
      ],
      "name": "TokensReleased",
      "type": "event"
    },
    {
      "anonymous": false,
      "inputs": [
        {
          "indexed": true,
          "internalType": "address",
          "name": "user",
          "type": "address"
        },
        {
          "indexed": true,
          "internalType": "address",
          "name": "token",
          "type": "address"
        },
        {
          "indexed": false,
          "internalType": "uint256",
          "name": "amount",
          "type": "uint256"
        },
        {
          "indexed": false,
          "internalType": "uint256",
          "name": "toChainId",
          "type": "uint256"
        }
      ],
      "name": "TokensSent",
      "type": "event"
    },
    {
      "anonymous": false,
      "inputs": [
        {
          "indexed": true,
          "internalType": "address",
          "name": "user",
          "type": "address"
        },
        {
          "indexed": true,
          "internalType": "address",
          "name": "originalToken",
          "type": "address"
        },
        {
          "indexed": false,
          "internalType": "uint256",
          "name": "amount",
          "type": "uint256"
        }
      ],
      "name": "TokensUnlocked",
      "type": "event"
    },
    {
      "anonymous": false,
      "inputs": [
        {
          "indexed": true,
          "internalType": "address",
          "name": "by",
          "type": "address"
        }
      ],
      "name": "Unpaused",
      "type": "event"
    },
    {
      "inputs": [
        {
          "internalType": "address",
          "name": "relayer",
          "type": "address"
        }
      ],
      "name": "addRelayer",
      "outputs": [],
      "stateMutability": "nonpayable",
      "type": "function"
    },
    {
      "inputs": [
        {
          "internalType": "uint256",
          "name": "",
          "type": "uint256"
        }
      ],
      "name": "gateways",
      "outputs": [
        {
          "internalType": "address",
          "name": "",
          "type": "address"
        }
      ],
      "stateMutability": "view",
      "type": "function"
    },
    {
      "inputs": [
        {
          "internalType": "address",
          "name": "",
          "type": "address"
        }
      ],
      "name": "isRelayer",
      "outputs": [
        {
          "internalType": "bool",
          "name": "",
          "type": "bool"
        }
      ],
      "stateMutability": "view",
      "type": "function"
    },
    {
      "inputs": [],
      "name": "multisig",
      "outputs": [
        {
          "internalType": "address",
          "name": "",
          "type": "address"
        }
      ],
      "stateMutability": "view",
      "type": "function"
    },
    {
      "inputs": [],
      "name": "owner",
      "outputs": [
        {
          "internalType": "address",
          "name": "",
          "type": "address"
        }
      ],
      "stateMutability": "view",
      "type": "function"
    },
    {
      "inputs": [],
      "name": "pause",
      "outputs": [],
      "stateMutability": "nonpayable",
      "type": "function"
    },
    {
      "inputs": [],
      "name": "paused",
      "outputs": [
        {
          "internalType": "bool",
          "name": "",
          "type": "bool"
        }
      ],
      "stateMutability": "view",
      "type": "function"
    },
    {
      "inputs": [
        {
          "internalType": "address",
          "name": "target",
          "type": "address"
        },
        {
          "internalType": "bytes",
          "name": "payload",
          "type": "bytes"
        },
        {
          "internalType": "uint256",
          "name": "fromChainId",
          "type": "uint256"
        },
        {
          "internalType": "bytes[]",
          "name": "signatures",
          "type": "bytes[]"
        }
      ],
      "name": "receiveMessage",
      "outputs": [],
      "stateMutability": "nonpayable",
      "type": "function"
    },
    {
      "inputs": [
        {
          "internalType": "address",
          "name": "originalSender",
          "type": "address"
        },
        {
          "internalType": "address",
          "name": "originalToken",
          "type": "address"
        },
        {
          "internalType": "uint256",
          "name": "amount",
          "type": "uint256"
        },
        {
          "internalType": "uint256",
          "name": "fromChainId",
          "type": "uint256"
        },
        {
          "internalType": "bytes[]",
          "name": "signatures",
          "type": "bytes[]"
        }
      ],
      "name": "receiveTokens",
      "outputs": [],
      "stateMutability": "nonpayable",
      "type": "function"
    },
    {
      "inputs": [
        {
          "internalType": "address",
          "name": "originalSender",
          "type": "address"
        },
        {
          "internalType": "address",
          "name": "originalToken",
          "type": "address"
        },
        {
          "internalType": "uint256",
          "name": "amount",
          "type": "uint256"
        },
        {
          "internalType": "uint256",
          "name": "fromChainId",
          "type": "uint256"
        },
        {
          "internalType": "bytes32",
          "name": "headerRoot",
          "type": "bytes32"
        },
        {
          "internalType": "bytes",
          "name": "proof",
          "type": "bytes"
        },
        {
          "internalType": "address",
          "name": "lightClient",
          "type": "address"
        }
      ],
      "name": "receiveTokensWithProof",
      "outputs": [],
      "stateMutability": "nonpayable",
      "type": "function"
    },
    {
      "inputs": [
        {
          "internalType": "address",
          "name": "originalToken",
          "type": "address"
        },
        {
          "internalType": "uint256",
          "name": "amount",
          "type": "uint256"
        },
        {
          "internalType": "uint256",
          "name": "toChainId",
          "type": "uint256"
        }
      ],
      "name": "releaseTokens",
      "outputs": [],
      "stateMutability": "nonpayable",
      "type": "function"
    },
    {
      "inputs": [
        {
          "internalType": "address",
          "name": "relayer",
          "type": "address"
        }
      ],
      "name": "removeRelayer",
      "outputs": [],
      "stateMutability": "nonpayable",
      "type": "function"
    },
    {
      "inputs": [],
      "name": "renounceOwnership",
      "outputs": [],
      "stateMutability": "nonpayable",
      "type": "function"
    },
    {
      "inputs": [
        {
          "internalType": "bytes",
          "name": "payload",
          "type": "bytes"
        },
        {
          "internalType": "uint256",
          "name": "toChainId",
          "type": "uint256"
        }
      ],
      "name": "sendMessage",
      "outputs": [],
      "stateMutability": "nonpayable",
      "type": "function"
    },
    {
      "inputs": [
        {
          "internalType": "address",
          "name": "token",
          "type": "address"
        },
        {
          "internalType": "uint256",
          "name": "amount",
          "type": "uint256"
        },
        {
          "internalType": "uint256",
          "name": "toChainId",
          "type": "uint256"
        }
      ],
      "name": "sendTokens",
      "outputs": [],
      "stateMutability": "nonpayable",
      "type": "function"
    },
    {
      "inputs": [
        {
          "internalType": "uint256",
          "name": "chainId",
          "type": "uint256"
        },
        {
          "internalType": "address",
          "name": "gateway",
          "type": "address"
        }
      ],
      "name": "setGateway",
      "outputs": [],
      "stateMutability": "nonpayable",
      "type": "function"
    },
    {
      "inputs": [
        {
          "internalType": "address",
          "name": "_multisig",
          "type": "address"
        }
      ],
      "name": "setMultisig",
      "outputs": [],
      "stateMutability": "nonpayable",
      "type": "function"
    },
    {
      "inputs": [
        {
          "internalType": "uint256",
          "name": "newThreshold",
          "type": "uint256"
        }
      ],
      "name": "setSignatureThreshold",
      "outputs": [],
      "stateMutability": "nonpayable",
      "type": "function"
    },
    {
      "inputs": [
        {
          "internalType": "address",
          "name": "token",
          "type": "address"
        },
        {
          "internalType": "bool",
          "name": "isSupported",
          "type": "bool"
        },
        {
          "internalType": "address",
          "name": "wrappedToken",
          "type": "address"
        }
      ],
      "name": "setSupportedToken",
      "outputs": [],
      "stateMutability": "nonpayable",
      "type": "function"
    },
    {
      "inputs": [],
      "name": "signatureThreshold",
      "outputs": [
        {
          "internalType": "uint256",
          "name": "",
          "type": "uint256"
        }
      ],
      "stateMutability": "view",
      "type": "function"
    },
    {
      "inputs": [
        {
          "internalType": "address",
          "name": "",
          "type": "address"
        }
      ],
      "name": "supportedTokens",
      "outputs": [
        {
          "internalType": "bool",
          "name": "",
          "type": "bool"
        }
      ],
      "stateMutability": "view",
      "type": "function"
    },
    {
      "inputs": [
        {
          "internalType": "address",
          "name": "newOwner",
          "type": "address"
        }
      ],
      "name": "transferOwnership",
      "outputs": [],
      "stateMutability": "nonpayable",
      "type": "function"
    },
    {
      "inputs": [
        {
          "internalType": "address",
          "name": "user",
          "type": "address"
        },
        {
          "internalType": "address",
          "name": "originalToken",
          "type": "address"
        },
        {
          "internalType": "uint256",
          "name": "amount",
          "type": "uint256"
        },
        {
          "internalType": "uint256",
          "name": "fromChainId",
          "type": "uint256"
        },
        {
          "internalType": "bytes[]",
          "name": "signatures",
          "type": "bytes[]"
        }
      ],
      "name": "unlockTokens",
      "outputs": [],
      "stateMutability": "nonpayable",
      "type": "function"
    },
    {
      "inputs": [],
      "name": "unpause",
      "outputs": [],
      "stateMutability": "nonpayable",
      "type": "function"
    },
    {
      "inputs": [
        {
          "internalType": "bytes32",
          "name": "",
          "type": "bytes32"
        }
      ],
      "name": "usedSignatures",
      "outputs": [
        {
          "internalType": "bool",
          "name": "",
          "type": "bool"
        }
      ],
      "stateMutability": "view",
      "type": "function"
    },
    {
      "inputs": [
        {
          "internalType": "address",
          "name": "",
          "type": "address"
        }
      ],
      "name": "wrappedTokenMap",
      "outputs": [
        {
          "internalType": "address",
          "name": "",
          "type": "address"
        }
      ],
      "stateMutability": "view",
      "type": "function"
    },
    {
      "stateMutability": "payable",
      "type": "receive"
    }
  ],
  "bytecode": "0x60806040523480156200001157600080fd5b506040516200227c3803806200227c833981016040819052620000349162000203565b826001600160a01b0381166200006457604051631e4fbdf760e01b81526000600482015260240160405180910390fd5b6200006f8162000180565b5060005b82518110156200013e57600160046000858481518110620000985762000098620002f5565b60200260200101516001600160a01b03166001600160a01b0316815260200190815260200160002060006101000a81548160ff021916908315150217905550828181518110620000ec57620000ec620002f5565b60200260200101516001600160a01b03167f03580ee9f53a62b7cb409a2cb56f9be87747dd15017afc5cef6eef321e4fb2c560405160405180910390a28062000135816200030b565b91505062000073565b5060058190556040518181527f43962f2b9b1b5d7bc7aa699f45af8972a254523862b8f5070842293deb3aa0369060200160405180910390a150505062000333565b600080546001600160a01b038381166001600160a01b0319831681178455604051919092169283917f8be0079c531659141344cd1fd0a4f28419497f9722a3daafe3b4186f6b6457e09190a35050565b80516001600160a01b0381168114620001e857600080fd5b919050565b634e487b7160e01b600052604160045260246000fd5b6000806000606084860312156200021957600080fd5b6200022484620001d0565b602085810151919450906001600160401b03808211156200024457600080fd5b818701915087601f8301126200025957600080fd5b8151818111156200026e576200026e620001ed565b8060051b604051601f19603f83011681018181108582111715620002965762000296620001ed565b60405291825284820192508381018501918a831115620002b557600080fd5b938501935b82851015620002de57620002ce85620001d0565b84529385019392850192620002ba565b809750505050505050604084015190509250925092565b634e487b7160e01b600052603260045260246000fd5b6000600182016200032c57634e487b7160e01b600052601160045260246000fd5b5060010190565b611f3980620003436000396000f3fe6080604052600436106101855760003560e01c80638da5cb5b116100d1578063dd39f00d1161008a578063f2fde38b11610064578063f2fde38b146104ac578063f3283fba146104cc578063f860c712146104ec578063f978fd611461050c57600080fd5b8063dd39f00d1461044c578063ed6d088c1461046c578063f06fc1031461048c57600080fd5b80638da5cb5b146103745780639660c51e14610392578063a82f2e26146103b2578063bbde5374146103d6578063ca19b65b146103f6578063d76eb7fb1461041657600080fd5b80635c975abb1161013e57806364c170561161011857806364c17056146102e457806368c4ac261461031a578063715018a61461034a5780638456cb591461035f57600080fd5b80635c975abb1461028a57806360f0a5ac146102a4578063628efcd7146102c457600080fd5b80631393d90b14610191578063171ca482146101b35780632f2f7f27146101d35780633f4ba83a146101f35780634783c35b14610208578063541d55481461024a57600080fd5b3661018c57005b600080fd5b34801561019d57600080fd5b506101b16101ac366004611a4a565b61053c565b005b3480156101bf57600080fd5b506101b16101ce366004611ad4565b6106a8565b3480156101df57600080fd5b506101b16101ee366004611b3a565b610884565b3480156101ff57600080fd5b506101b1610947565b34801561021457600080fd5b5060075461022d9061010090046001600160a01b031681565b6040516001600160a01b0390911681526020015b60405180910390f35b34801561025657600080fd5b5061027a610265366004611b86565b60046020526000908152604090205460ff1681565b6040519015158152602001610241565b34801561029657600080fd5b5060075461027a9060ff1681565b3480156102b057600080fd5b506101b16102bf366004611b86565b6109e3565b3480156102d057600080fd5b506101b16102df366004611ba8565b610a8c565b3480156102f057600080fd5b5061022d6102ff366004611bdb565b6001602052600090815260409020546001600160a01b031681565b34801561032657600080fd5b5061027a610335366004611b86565b60026020526000908152604090205460ff1681565b34801561035657600080fd5b506101b1610c3a565b34801561036b57600080fd5b506101b1610c4e565b34801561038057600080fd5b506000546001600160a01b031661022d565b34801561039e57600080fd5b506101b16103ad366004611c02565b610ced565b3480156103be57600080fd5b506103c860055481565b604051908152602001610241565b3480156103e257600080fd5b506101b16103f1366004611bdb565b610d7b565b34801561040257600080fd5b506101b1610411366004611c47565b610dbe565b34801561042257600080fd5b5061022d610431366004611b86565b6003602052600090815260409020546001600160a01b031681565b34801561045857600080fd5b506101b1610467366004611b86565b610df4565b34801561047857600080fd5b506101b1610487366004611c73565b610ea5565b34801561049857600080fd5b506101b16104a7366004611ba8565b611164565b3480156104b857600080fd5b506101b16104c7366004611b86565b6112fe565b3480156104d857600080fd5b506101b16104e7366004611b86565b61133c565b3480156104f857600080fd5b506101b1610507366004611ad4565b61136c565b34801561051857600080fd5b5061027a610527366004611bdb565b60066020526000908152604090205460ff1681565b60075460ff16156105685760405162461bcd60e51b815260040161055f90611d05565b60405180910390fd5b6000868686866040516020016105819493929190611d2e565b60408051601f1981840301815291815281516020928301206000818152600690935291205490915060ff16156105c95760405162461bcd60e51b815260040161055f90611d6b565b6105d4818484611565565b600081815260066020526040808220805460ff19166001179055516001600160a01b038916906106079089908990611da2565b6000604051808303816000865af19150503d8060008114610644576040519150601f19603f3d011682016040523d82523d6000602084013e610649565b606091505b50509050876001600160a01b0316336001600160a01b03167f5c6e62797a349fbcb616023cfc6b2ea44dbf68582f1d34f63c84d24b277f7c14878a8a866040516106969493929190611ddb565b60405180910390a35050505050505050565b60075460ff16156106cb5760405162461bcd60e51b815260040161055f90611d05565b6040516001600160601b0319606088811b8216602084015287901b1660348201526048810185905260688101849052667265636569766560c81b6088820152600090608f0160408051601f1981840301815291815281516020928301206000818152600690935291205490915060ff16156107585760405162461bcd60e51b815260040161055f90611d6b565b610763818484611565565b6000818152600660209081526040808320805460ff191660011790556001600160a01b03808a16845260039092529091205416806107dd5760405162461bcd60e51b815260206004820152601760248201527615dc985c1c1959081d1bdad95b881b9bdd08199bdd5b99604a1b604482015260640161055f565b6040516340c10f1960e01b81526001600160a01b038981166004830152602482018890528216906340c10f1990604401600060405180830381600087803b15801561082757600080fd5b505af115801561083b573d6000803e3d6000fd5b505060408051898152602081018990526001600160a01b03808c1694508c1692507f46ba4e1e95fc9f44608739ffaee40c318f667c56e4ba6e3d0aa80b803768b9159101610696565b60075460ff16156108a75760405162461bcd60e51b815260040161055f90611d05565b6000818152600160205260409020546001600160a01b03166108fd5760405162461bcd60e51b815260206004820152600f60248201526e11d85d195dd85e481b9bdd081cd95d608a1b604482015260640161055f565b336001600160a01b03167fa0a630e297ee9fcce0a89079bae0db692f5137271ef7d89fe33c4a5b86f2cc4682858560405161093a93929190611e08565b60405180910390a2505050565b6000546001600160a01b031633148061096f575060075461010090046001600160a01b031633145b6109ac5760405162461bcd60e51b815260206004820152600e60248201526d1b9bdd08185d5d1a1bdc9a5e995960921b604482015260640161055f565b6007805460ff1916905560405133907f5db9ee0a495bf2e6ff9c91a7834c1ba4fdd244a5e8aa4e537bd38aeae4b073aa90600090a2565b6109eb611791565b6001600160a01b03811660009081526004602052604090205460ff16610a435760405162461bcd60e51b815260206004820152600d60248201526c2737ba1030903932b630bcb2b960991b604482015260640161055f565b6001600160a01b038116600081815260046020526040808220805460ff19169055517f10e1f7ce9fd7d1b90a66d13a2ab3cb8dd7f29f3f8d520b143b063ccfbab6906b9190a250565b60075460ff1615610aaf5760405162461bcd60e51b815260040161055f90611d05565b6000818152600160205260409020546001600160a01b0316610b135760405162461bcd60e51b815260206004820152601f60248201527f47617465776179206e6f742073657420666f722064657374696e6174696f6e00604482015260640161055f565b6001600160a01b038084166000908152600360205260409020541680610b8e5760405162461bcd60e51b815260206004820152602a60248201527f5772617070656420746f6b656e206e6f7420666f756e6420666f72206f72696760448201526934b730b6103a37b5b2b760b11b606482015260840161055f565b60405163079cc67960e41b8152336004820152602481018490526001600160a01b038216906379cc679090604401600060405180830381600087803b158015610bd657600080fd5b505af1158015610bea573d6000803e3d6000fd5b505060408051868152602081018690526001600160a01b03881693503392507fb87c6bc0574d14d70f6ce865c15a89c4682bd485e48ebcbf4061657c9e56da06910160405180910390a350505050565b610c42611791565b610c4c60006117be565b565b6000546001600160a01b0316331480610c76575060075461010090046001600160a01b031633145b610cb35760405162461bcd60e51b815260206004820152600e60248201526d1b9bdd08185d5d1a1bdc9a5e995960921b604482015260640161055f565b6007805460ff1916600117905560405133907f62e78cea01bee320cd4e420270b5ea74000d11b0c9f74754ebdbfc544b05a25890600090a2565b610cf5611791565b6001600160a01b0383166000908152600260205260409020805460ff19168315801591909117909155610d52576001600160a01b03928316600090815260036020526040902080546001600160a01b031916919093161790915550565b50506001600160a01b0316600090815260036020526040902080546001600160a01b0319169055565b610d83611791565b60058190556040518181527f43962f2b9b1b5d7bc7aa699f45af8972a254523862b8f5070842293deb3aa0369060200160405180910390a150565b610dc6611791565b60009182526001602052604090912080546001600160a01b0319166001600160a01b03909216919091179055565b610dfc611791565b6001600160a01b03811660009081526004602052604090205460ff1615610e595760405162461bcd60e51b815260206004820152601160248201527020b63932b0b23c9030903932b630bcb2b960791b604482015260640161055f565b6001600160a01b038116600081815260046020526040808220805460ff19166001179055517f03580ee9f53a62b7cb409a2cb56f9be87747dd15017afc5cef6eef321e4fb2c59190a250565b60075460ff1615610ec85760405162461bcd60e51b815260040161055f90611d05565b6040516001600160601b031960608a811b8216602084015289901b16603482015260488101879052606881018690526c3932b1b2b4bb32afb83937b7b360991b60888201526095810185905260009060b50160408051601f1981840301815291815281516020928301206000818152600690935291205490915060ff1615610f875760405162461bcd60e51b8152602060048201526012602482015271141c9bdbd988185b1c9958591e481d5cd95960721b604482015260640161055f565b6040516348203b0760e01b81526001600160a01b038316906348203b0790610fb790889088908890600401611e08565b602060405180830381865afa158015610fd4573d6000803e3d6000fd5b505050506040513d601f19601f82011682018060405250810190610ff89190611e2b565b6110345760405162461bcd60e51b815260206004820152600d60248201526c24b73b30b634b210383937b7b360991b604482015260640161055f565b6000818152600660209081526040808320805460ff191660011790556001600160a01b03808c16845260039092529091205416806110ae5760405162461bcd60e51b815260206004820152601760248201527615dc985c1c1959081d1bdad95b881b9bdd08199bdd5b99604a1b604482015260640161055f565b6040516340c10f1960e01b81526001600160a01b038b81166004830152602482018a90528216906340c10f1990604401600060405180830381600087803b1580156110f857600080fd5b505af115801561110c573d6000803e3d6000fd5b5050604080518b8152602081018b90526001600160a01b03808e1694508e1692507f46ba4e1e95fc9f44608739ffaee40c318f667c56e4ba6e3d0aa80b803768b915910160405180910390a350505050505050505050565b60075460ff16156111875760405162461bcd60e51b815260040161055f90611d05565b6001600160a01b03831660009081526002602052604090205460ff166111e55760405162461bcd60e51b8152602060048201526013602482015272151bdad95b881b9bdd081cdd5c1c1bdc9d1959606a1b604482015260640161055f565b6000818152600160205260409020546001600160a01b031661123b5760405162461bcd60e51b815260206004820152600f60248201526e11d85d195dd85e481b9bdd081cd95d608a1b604482015260640161055f565b6040516323b872dd60e01b8152336004820152306024820152604481018390526001600160a01b038416906323b872dd906064016020604051808303816000875af115801561128e573d6000803e3d6000fd5b505050506040513d601f19601f820116820180604052508101906112b29190611e2b565b5060408051838152602081018390526001600160a01b0385169133917fa6f42a754282a9d2f24b4ce9256387399e87a48d5a6467ecd1dcf277d07156b6910160405180910390a3505050565b611306611791565b6001600160a01b03811661133057604051631e4fbdf760e01b81526000600482015260240161055f565b611339816117be565b50565b611344611791565b600780546001600160a01b0390921661010002610100600160a81b0319909216919091179055565b60075460ff161561138f5760405162461bcd60e51b815260040161055f90611d05565b6040516001600160601b0319606088811b8216602084015287901b166034820152604881018590526068810184905265756e6c6f636b60d01b6088820152600090608e0160408051601f1981840301815291815281516020928301206000818152600690935291205490915060ff161561141b5760405162461bcd60e51b815260040161055f90611d6b565b611426818484611565565b6000818152600660209081526040808320805460ff191660011790556001600160a01b0389168352600290915290205460ff1661149b5760405162461bcd60e51b8152602060048201526013602482015272151bdad95b881b9bdd081cdd5c1c1bdc9d1959606a1b604482015260640161055f565b60405163a9059cbb60e01b81526001600160a01b0388811660048301526024820187905287169063a9059cbb906044016020604051808303816000875af11580156114ea573d6000803e3d6000fd5b505050506040513d601f19601f8201168201806040525081019061150e9190611e2b565b50856001600160a01b0316876001600160a01b03167fece684e11f49f06d351439e63189ad1703238b8040d90cf994901ca2b3da8d448760405161155491815260200190565b60405180910390a350505050505050565b6005548110156115af5760405162461bcd60e51b81526020600482015260156024820152744e6f7420656e6f756768207369676e61747572657360581b604482015260640161055f565b60008167ffffffffffffffff8111156115ca576115ca611e48565b6040519080825280602002602001820160405280156115f3578160200160208202803683370190505b50905060005b8281101561178a5760006116658686868581811061161957611619611e5e565b905060200281019061162b9190611e74565b8080601f01602080910402602001604051908101604052809392919081815260200183838082843760009201919091525061180e92505050565b6001600160a01b03811660009081526004602052604090205490915060ff166116c15760405162461bcd60e51b815260206004820152600e60248201526d24b73b30b634b21039b4b3b732b960911b604482015260640161055f565b60005b8281101561174b57816001600160a01b03168482815181106116e8576116e8611e5e565b60200260200101516001600160a01b0316036117395760405162461bcd60e51b815260206004820152601060248201526f223ab83634b1b0ba329039b4b3b732b960811b604482015260640161055f565b8061174381611ed1565b9150506116c4565b508083838151811061175f5761175f611e5e565b6001600160a01b0390921660209283029190910190910152508061178281611ed1565b9150506115f9565b5050505050565b6000546001600160a01b03163314610c4c5760405163118cdaa760e01b815233600482015260240161055f565b600080546001600160a01b038381166001600160a01b0319831681178455604051919092169283917f8be0079c531659141344cd1fd0a4f28419497f9722a3daafe3b4186f6b6457e09190a35050565b600081516041146118615760405162461bcd60e51b815260206004820152601860248201527f496e76616c6964207369676e6174757265206c656e6774680000000000000000604482015260640161055f565b60208201516040830151606084015160001a601b81101561188a57611887601b82611eea565b90505b8060ff16601b148061189f57508060ff16601c145b6118eb5760405162461bcd60e51b815260206004820152601b60248201527f496e76616c6964207369676e6174757265202776272076616c75650000000000604482015260640161055f565b6040517f19457468657265756d205369676e6564204d6573736167653a0a3332000000006020820152603c8101879052600090605c0160408051601f1981840301815282825280516020918201206000845290830180835281905260ff8516918301919091526060820186905260808201859052915060019060a0016020604051602081039080840390855afa158015611989573d6000803e3d6000fd5b505050602060405103519450505050505b92915050565b80356001600160a01b03811681146119b757600080fd5b919050565b60008083601f8401126119ce57600080fd5b50813567ffffffffffffffff8111156119e657600080fd5b6020830191508360208285010111156119fe57600080fd5b9250929050565b60008083601f840112611a1757600080fd5b50813567ffffffffffffffff811115611a2f57600080fd5b6020830191508360208260051b85010111156119fe57600080fd5b60008060008060008060808789031215611a6357600080fd5b611a6c876119a0565b9550602087013567ffffffffffffffff80821115611a8957600080fd5b611a958a838b016119bc565b9097509550604089013594506060890135915080821115611ab557600080fd5b50611ac289828a01611a05565b979a9699509497509295939492505050565b60008060008060008060a08789031215611aed57600080fd5b611af6876119a0565b9550611b04602088016119a0565b94506040870135935060608701359250608087013567ffffffffffffffff811115611b2e57600080fd5b611ac289828a01611a05565b600080600060408486031215611b4f57600080fd5b833567ffffffffffffffff811115611b6657600080fd5b611b72868287016119bc565b909790965060209590950135949350505050565b600060208284031215611b9857600080fd5b611ba1826119a0565b9392505050565b600080600060608486031215611bbd57600080fd5b611bc6846119a0565b95602085013595506040909401359392505050565b600060208284031215611bed57600080fd5b5035919050565b801515811461133957600080fd5b600080600060608486031215611c1757600080fd5b611c20846119a0565b92506020840135611c3081611bf4565b9150611c3e604085016119a0565b90509250925092565b60008060408385031215611c5a57600080fd5b82359150611c6a602084016119a0565b90509250929050565b60008060008060008060008060e0898b031215611c8f57600080fd5b611c98896119a0565b9750611ca660208a016119a0565b965060408901359550606089013594506080890135935060a089013567ffffffffffffffff811115611cd757600080fd5b611ce38b828c016119bc565b9094509250611cf6905060c08a016119a0565b90509295985092959890939650565b6020808252600f908201526e10dbdb9d1c9858dd081c185d5cd959608a1b604082015260600190565b6bffffffffffffffffffffffff198560601b168152828460148301376014920191820152666d65737361676560c81b6034820152603b0192915050565b60208082526017908201527f5369676e61747572657320616c72656164792075736564000000000000000000604082015260600190565b8183823760009101908152919050565b81835281816020850137506000828201602090810191909152601f909101601f19169091010190565b848152606060208201526000611df5606083018587611db2565b9050821515604083015295945050505050565b838152604060208201526000611e22604083018486611db2565b95945050505050565b600060208284031215611e3d57600080fd5b8151611ba181611bf4565b634e487b7160e01b600052604160045260246000fd5b634e487b7160e01b600052603260045260246000fd5b6000808335601e19843603018112611e8b57600080fd5b83018035915067ffffffffffffffff821115611ea657600080fd5b6020019150368190038213156119fe57600080fd5b634e487b7160e01b600052601160045260246000fd5b600060018201611ee357611ee3611ebb565b5060010190565b60ff818116838216019081111561199a5761199a611ebb56fea2646970667358221220f098e7ced48e717012468e939068620e3775624563e0b60f72b32b8c8cc4c45164736f6c63430008140033",
  "linkReferences": {},
  "deployedLinkReferences": {}
}