{
  "_format": "hh-sol-artifact-1",
  "contractName": "TestReceiver",
  "sourceName": "contracts/bridge/TestReceiver.sol",
  "abi": [
    {
      "anonymous": false,
      "inputs": [
        {
          "indexed": true,
          "internalType": "address",
          "name": "sender",
          "type": "address"
        },
        {
          "indexed": false,
          "internalType": "uint256",
          "name": "value",
          "type": "uint256"
        }
      ],
      "name": "Received",
      "type": "event"
    },
    {
      "inputs": [
        {
          "internalType": "uint256",
          "name": "by",
          "type": "uint256"
        }
      ],
      "name": "increment",
      "outputs": [
        {
          "internalType": "uint256",
          "name": "",
          "type": "uint256"
        }
      ],
      "stateMutability": "nonpayable",
      "type": "function"
    },
    {
      "inputs": [],
      "name": "value",
      "outputs": [
        {
          "internalType": "uint256",
          "name": "",
          "type": "uint256"
        }
      ],
      "stateMutability": "view",
      "type": "function"
    }
  ],
  "bytecode": "0x608060405234801561001057600080fd5b50610123806100206000396000f3fe6080604052348015600f57600080fd5b506004361060325760003560e01c80633fa4f2451460375780637cf5dab0146051575b600080fd5b603f60005481565b60405190815260200160405180910390f35b603f605c36600460af565b600081600080828254606d919060c7565b909155505060405182815233907f88a5966d370b9919b20f3e2c13ff65706f196a4e32cc2c12bf57088f885258749060200160405180910390a2505060005490565b60006020828403121560c057600080fd5b5035919050565b8082018082111560e757634e487b7160e01b600052601160045260246000fd5b9291505056fea2646970667358221220f498dca5c69298d2d94f6269e074c49258b9152f5e82c788f68a6ba8a5d82ed664736f6c63430008140033",
  "linkReferences": {},
  "deployedLinkReferences": {}
}