{
  "_format": "hh-sol-artifact-1",
  "contractName": "ChainRegistry",
  "sourceName": "contracts/bridge/ChainRegistry.sol",
  "abi": [
    {
      "inputs": [],
      "stateMutability": "nonpayable",
      "type": "constructor"
    },
    {
      "inputs": [
        {
          "internalType": "address",
          "name": "owner",
          "type": "address"
        }
      ],
      "name": "OwnableInvalidOwner",
      "type": "error"
    },
    {
      "inputs": [
        {
          "internalType": "address",
          "name": "account",
          "type": "address"
        }
      ],
      "name": "OwnableUnauthorizedAccount",
      "type": "error"
    },
    {
      "anonymous": false,
      "inputs": [
        {
          "indexed": true,
          "internalType": "uint256",
          "name": "chainId",
          "type": "uint256"
        },
        {
          "indexed": false,
          "internalType": "enum ChainRegistry.ChainKind",
          "name": "kind",
          "type": "uint8"
        },
        {
          "indexed": false,
          "internalType": "address",
          "name": "gateway",
          "type": "address"
        },
        {
          "indexed": false,
          "internalType": "bool",
          "name": "enabled",
          "type": "bool"
        }
      ],
      "name": "ChainSet",
      "type": "event"
    },
    {
      "anonymous": false,
      "inputs": [
        {
          "indexed": true,
          "internalType": "address",
          "name": "previousOwner",
          "type": "address"
        },
        {
          "indexed": true,
          "internalType": "address",
          "name": "newOwner",
          "type": "address"
        }
      ],
      "name": "OwnershipTransferred",
      "type": "event"
    },
    {
      "anonymous": false,
      "inputs": [
        {
          "indexed": true,
          "internalType": "uint256",
          "name": "chainId",
          "type": "uint256"
        },
        {
          "indexed": true,
          "internalType": "address",
          "name": "token",
          "type": "address"
        },
        {
          "indexed": false,
          "internalType": "bool",
          "name": "allowed",
          "type": "bool"
        }
      ],
      "name": "TokenAllowed",
      "type": "event"
    },
    {
      "inputs": [
        {
          "internalType": "uint256",
          "name": "",
          "type": "uint256"
        },
        {
          "internalType": "address",
          "name": "",
          "type": "address"
        }
      ],
      "name": "allowedTokens",
      "outputs": [
        {
          "internalType": "bool",
          "name": "",
          "type": "bool"
        }
      ],
      "stateMutability": "view",
      "type": "function"
    },
    {
      "inputs": [
        {
          "internalType": "uint256",
          "name": "",
          "type": "uint256"
        }
      ],
      "name": "chains",
      "outputs": [
        {
          "internalType": "bool",
          "name": "enabled",
          "type": "bool"
        },
        {
          "internalType": "enum ChainRegistry.ChainKind",
          "name": "kind",
          "type": "uint8"
        },
        {
          "internalType": "address",
          "name": "gateway",
          "type": "address"
        }
      ],
      "stateMutability": "view",
      "type": "function"
    },
    {
      "inputs": [
        {
          "internalType": "uint256",
          "name": "chainId",
          "type": "uint256"
        }
      ],
      "name": "gatewayFor",
      "outputs": [
        {
          "internalType": "address",
          "name": "",
          "type": "address"
        }
      ],
      "stateMutability": "view",
      "type": "function"
    },
    {
      "inputs": [
        {
          "internalType": "uint256",
          "name": "chainId",
          "type": "uint256"
        }
      ],
      "name": "isChainEnabled",
      "outputs": [
        {
          "internalType": "bool",
          "name": "",
          "type": "bool"
        }
      ],
      "stateMutability": "view",
      "type": "function"
    },
    {
      "inputs": [
        {
          "internalType": "uint256",
          "name": "chainId",
          "type": "uint256"
        },
        {
          "internalType": "address",
          "name": "token",
          "type": "address"
        }
      ],
      "name": "isTokenAllowed",
      "outputs": [
        {
          "internalType": "bool",
          "name": "",
          "type": "bool"
        }
      ],
      "stateMutability": "view",
      "type": "function"
    },
    {
      "inputs": [
        {
          "internalType": "uint256",
          "name": "chainId",
          "type": "uint256"
        }
      ],
      "name": "kindOf",
      "outputs": [
        {
          "internalType": "enum ChainRegistry.ChainKind",
          "name": "",
          "type": "uint8"
        }
      ],
      "stateMutability": "view",
      "type": "function"
    },
    {
      "inputs": [],
      "name": "owner",
      "outputs": [
        {
          "internalType": "address",
          "name": "",
          "type": "address"
        }
      ],
      "stateMutability": "view",
      "type": "function"
    },
    {
      "inputs": [],
      "name": "renounceOwnership",
      "outputs": [],
      "stateMutability": "nonpayable",
      "type": "function"
    },
    {
      "inputs": [
        {
          "internalType": "uint256",
          "name": "chainId",
          "type": "uint256"
        },
        {
          "internalType": "enum ChainRegistry.ChainKind",
          "name": "kind",
          "type": "uint8"
        },
        {
          "internalType": "address",
          "name": "gateway",
          "type": "address"
        },
        {
          "internalType": "bool",
          "name": "enabled",
          "type": "bool"
        }
      ],
      "name": "setChain",
      "outputs": [],
      "stateMutability": "nonpayable",
      "type": "function"
    },
    {
      "inputs": [
        {
          "internalType": "uint256",
          "name": "chainId",
          "type": "uint256"
        },
        {
          "internalType": "address",
          "name": "token",
          "type": "address"
        },
        {
          "internalType": "bool",
          "name": "allowed",
          "type": "bool"
        }
      ],
      "name": "setTokenAllowed",
      "outputs": [],
      "stateMutability": "nonpayable",
      "type": "function"
    },
    {
      "inputs": [
        {
          "internalType": "address",
          "name": "newOwner",
          "type": "address"
        }
      ],
      "name": "transferOwnership",
      "outputs": [],
      "stateMutability": "nonpayable",
      "type": "function"
    }
  ],
  "bytecode": "0x608060405234801561001057600080fd5b50338061003757604051631e4fbdf760e01b81526000600482015260240160405180910390fd5b61004081610046565b50610096565b600080546001600160a01b038381166001600160a01b0319831681178455604051919092169283917f8be0079c531659141344cd1fd0a4f28419497f9722a3daafe3b4186f6b6457e09190a35050565b6106aa806100a56000396000f3fe608060405234801561001057600080fd5b50600436106100a95760003560e01c8063831c3d1211610071578063831c3d12146101855780638da5cb5b146101cc578063ae08192f146101dd578063d93542931461020b578063eab3c5481461021e578063f2fde38b1461023157600080fd5b80630bc9dad1146100ae5780632345e28c146100d65780634d240db91461010b578063550325b51461012e578063715018a61461017b575b600080fd5b6100c16100bc3660046104cc565b610244565b60405190151581526020015b60405180910390f35b6100fe6100e43660046104f8565b600090815260016020526040902054610100900460ff1690565b6040516100cd9190610549565b6100c16101193660046104f8565b60009081526001602052604090205460ff1690565b61016c61013c3660046104f8565b60016020526000908152604090205460ff808216916101008104909116906201000090046001600160a01b031683565b6040516100cd93929190610557565b610183610271565b005b6101b46101933660046104f8565b6000908152600160205260409020546201000090046001600160a01b031690565b6040516001600160a01b0390911681526020016100cd565b6000546001600160a01b03166101b4565b6100c16101eb3660046104cc565b600260209081526000928352604080842090915290825290205460ff1681565b610183610219366004610596565b610285565b61018361022c3660046105d2565b6102f8565b61018361023f366004610625565b6103f0565b60008281526002602090815260408083206001600160a01b038516845290915290205460ff165b92915050565b610279610433565b6102836000610460565b565b61028d610433565b60008381526002602090815260408083206001600160a01b03861680855290835292819020805460ff1916851515908117909155905190815285917ff1e34412ce3496e281a817cc6d1c1a42b2dae6eb04d080bd1bf5ca8109ee20c8910160405180910390a3505050565b610300610433565b6040518060600160405280821515815260200184600681111561032557610325610511565b81526001600160a01b038416602091820152600086815260018252604090208251815490151560ff19821681178355928401519192839161ff001990911661ffff199091161761010083600681111561038057610380610511565b021790555060409182015181546001600160a01b03909116620100000262010000600160b01b03199091161790555184907f8804015b38ac0926525c927bd337665281e94cd775014fa8933b67e0356b1087906103e290869086908690610647565b60405180910390a250505050565b6103f8610433565b6001600160a01b03811661042757604051631e4fbdf760e01b8152600060048201526024015b60405180910390fd5b61043081610460565b50565b6000546001600160a01b031633146102835760405163118cdaa760e01b815233600482015260240161041e565b600080546001600160a01b038381166001600160a01b0319831681178455604051919092169283917f8be0079c531659141344cd1fd0a4f28419497f9722a3daafe3b4186f6b6457e09190a35050565b80356001600160a01b03811681146104c757600080fd5b919050565b600080604083850312156104df57600080fd5b823591506104ef602084016104b0565b90509250929050565b60006020828403121561050a57600080fd5b5035919050565b634e487b7160e01b600052602160045260246000fd5b6007811061054557634e487b7160e01b600052602160045260246000fd5b9052565b6020810161026b8284610527565b83151581526060810161056d6020830185610527565b6001600160a01b03929092166040919091015292915050565b803580151581146104c757600080fd5b6000806000606084860312156105ab57600080fd5b833592506105bb602085016104b0565b91506105c960408501610586565b90509250925092565b600080600080608085870312156105e857600080fd5b843593506020850135600781106105fe57600080fd5b925061060c604086016104b0565b915061061a60608601610586565b905092959194509250565b60006020828403121561063757600080fd5b610640826104b0565b9392505050565b606081016106558286610527565b6001600160a01b0393909316602082015290151560409091015291905056fea2646970667358221220e14f2381c82065a17e76654912f7f1d11bdf41e9f4fbb4574981a9b4ddb683db64736f6c63430008140033",
  "linkReferences": {},
  "deployedLinkReferences": {}
}