{
  "_format": "hh-sol-artifact-1",
  "contractName": "GlobalRepoRateOracle",
  "sourceName": "contracts/oracles/GlobalRepoRateOracle.sol",
  "abi": [
    {
      "inputs": [
        {
          "internalType": "uint256",
          "name": "_initialRate",
          "type": "uint256"
        },
        {
          "internalType": "address",
          "name": "admin",
          "type": "address"
        }
      ],
      "stateMutability": "nonpayable",
      "type": "constructor"
    },
    {
      "inputs": [
        {
          "internalType": "address",
          "name": "owner",
          "type": "address"
        }
      ],
      "name": "OwnableInvalidOwner",
      "type": "error"
    },
    {
      "inputs": [
        {
          "internalType": "address",
          "name": "account",
          "type": "address"
        }
      ],
      "name": "OwnableUnauthorizedAccount",
      "type": "error"
    },
    {
      "anonymous": false,
      "inputs": [
        {
          "indexed": true,
          "internalType": "address",
          "name": "previousOwner",
          "type": "address"
        },
        {
          "indexed": true,
          "internalType": "address",
          "name": "newOwner",
          "type": "address"
        }
      ],
      "name": "OwnershipTransferred",
      "type": "event"
    },
    {
      "anonymous": false,
      "inputs": [
        {
          "indexed": false,
          "internalType": "uint256",
          "name": "newRate",
          "type": "uint256"
        }
      ],
      "name": "RepoRateUpdated",
      "type": "event"
    },
    {
      "inputs": [],
      "name": "getRepoRate",
      "outputs": [
        {
          "internalType": "uint256",
          "name": "",
          "type": "uint256"
        }
      ],
      "stateMutability": "view",
      "type": "function"
    },
    {
      "inputs": [],
      "name": "owner",
      "outputs": [
        {
          "internalType": "address",
          "name": "",
          "type": "address"
        }
      ],
      "stateMutability": "view",
      "type": "function"
    },
    {
      "inputs": [],
      "name": "renounceOwnership",
      "outputs": [],
      "stateMutability": "nonpayable",
      "type": "function"
    },
    {
      "inputs": [
        {
          "internalType": "uint256",
          "name": "_newRate",
          "type": "uint256"
        }
      ],
      "name": "setRepoRate",
      "outputs": [],
      "stateMutability": "nonpayable",
      "type": "function"
    },
    {
      "inputs": [
        {
          "internalType": "address",
          "name": "newOwner",
          "type": "address"
        }
      ],
      "name": "transferOwnership",
      "outputs": [],
      "stateMutability": "nonpayable",
      "type": "function"
    }
  ],
  "bytecode": "0x608060405234801561001057600080fd5b5060405161036038038061036083398101604081905261002f916100c1565b806001600160a01b03811661005e57604051631e4fbdf760e01b81526000600482015260240160405180910390fd5b61006781610071565b50506001556100fe565b600080546001600160a01b038381166001600160a01b0319831681178455604051919092169283917f8be0079c531659141344cd1fd0a4f28419497f9722a3daafe3b4186f6b6457e09190a35050565b600080604083850312156100d457600080fd5b825160208401519092506001600160a01b03811681146100f357600080fd5b809150509250929050565b6102538061010d6000396000f3fe608060405234801561001057600080fd5b50600436106100575760003560e01c8063715018a61461005c5780638da5cb5b14610066578063c53557ff14610086578063ef4970ab14610099578063f2fde38b146100aa575b600080fd5b6100646100bd565b005b6000546040516001600160a01b0390911681526020015b60405180910390f35b6100646100943660046101d4565b6100d1565b60015460405190815260200161007d565b6100646100b83660046101ed565b610114565b6100c5610157565b6100cf6000610184565b565b6100d9610157565b60018190556040518181527f65d08d3019a4f96e2cde139b3561d528d9af1f2aa4b1e40350274c2f782b37999060200160405180910390a150565b61011c610157565b6001600160a01b03811661014b57604051631e4fbdf760e01b8152600060048201526024015b60405180910390fd5b61015481610184565b50565b6000546001600160a01b031633146100cf5760405163118cdaa760e01b8152336004820152602401610142565b600080546001600160a01b038381166001600160a01b0319831681178455604051919092169283917f8be0079c531659141344cd1fd0a4f28419497f9722a3daafe3b4186f6b6457e09190a35050565b6000602082840312156101e657600080fd5b5035919050565b6000602082840312156101ff57600080fd5b81356001600160a01b038116811461021657600080fd5b939250505056fea264697066735822122069ff7c60d5e9419fccd696aad575376d435b8570d1a406b207aa20d38ac6281c64736f6c63430008140033",
  "linkReferences": {},
  "deployedLinkReferences": {}
}