{
  "_format": "hh-sol-artifact-1",
  "contractName": "LightClientCheckpoint",
  "sourceName": "contracts/bridge/LightClientCheckpoint.sol",
  "abi": [
    {
      "inputs": [],
      "stateMutability": "nonpayable",
      "type": "constructor"
    },
    {
      "inputs": [
        {
          "internalType": "address",
          "name": "owner",
          "type": "address"
        }
      ],
      "name": "OwnableInvalidOwner",
      "type": "error"
    },
    {
      "inputs": [
        {
          "internalType": "address",
          "name": "account",
          "type": "address"
        }
      ],
      "name": "OwnableUnauthorizedAccount",
      "type": "error"
    },
    {
      "anonymous": false,
      "inputs": [
        {
          "indexed": true,
          "internalType": "bytes32",
          "name": "root",
          "type": "bytes32"
        },
        {
          "indexed": true,
          "internalType": "address",
          "name": "submitter",
          "type": "address"
        }
      ],
      "name": "CheckpointSubmitted",
      "type": "event"
    },
    {
      "anonymous": false,
      "inputs": [
        {
          "indexed": true,
          "internalType": "address",
          "name": "previousOwner",
          "type": "address"
        },
        {
          "indexed": true,
          "internalType": "address",
          "name": "newOwner",
          "type": "address"
        }
      ],
      "name": "OwnershipTransferred",
      "type": "event"
    },
    {
      "inputs": [
        {
          "internalType": "bytes32",
          "name": "",
          "type": "bytes32"
        }
      ],
      "name": "accepted",
      "outputs": [
        {
          "internalType": "bool",
          "name": "",
          "type": "bool"
        }
      ],
      "stateMutability": "view",
      "type": "function"
    },
    {
      "inputs": [],
      "name": "latestHeaderRoot",
      "outputs": [
        {
          "internalType": "bytes32",
          "name": "",
          "type": "bytes32"
        }
      ],
      "stateMutability": "view",
      "type": "function"
    },
    {
      "inputs": [],
      "name": "latestRoot",
      "outputs": [
        {
          "internalType": "bytes32",
          "name": "",
          "type": "bytes32"
        }
      ],
      "stateMutability": "view",
      "type": "function"
    },
    {
      "inputs": [],
      "name": "owner",
      "outputs": [
        {
          "internalType": "address",
          "name": "",
          "type": "address"
        }
      ],
      "stateMutability": "view",
      "type": "function"
    },
    {
      "inputs": [],
      "name": "renounceOwnership",
      "outputs": [],
      "stateMutability": "nonpayable",
      "type": "function"
    },
    {
      "inputs": [
        {
          "internalType": "bytes",
          "name": "headerOrCheckpoint",
          "type": "bytes"
        },
        {
          "internalType": "bytes[]",
          "name": "",
          "type": "bytes[]"
        }
      ],
      "name": "submitCheckpoint",
      "outputs": [],
      "stateMutability": "nonpayable",
      "type": "function"
    },
    {
      "inputs": [
        {
          "internalType": "address",
          "name": "newOwner",
          "type": "address"
        }
      ],
      "name": "transferOwnership",
      "outputs": [],
      "stateMutability": "nonpayable",
      "type": "function"
    },
    {
      "inputs": [
        {
          "internalType": "bytes32",
          "name": "headerRoot",
          "type": "bytes32"
        },
        {
          "internalType": "bytes",
          "name": "",
          "type": "bytes"
        }
      ],
      "name": "verifyProof",
      "outputs": [
        {
          "internalType": "bool",
          "name": "",
          "type": "bool"
        }
      ],
      "stateMutability": "view",
      "type": "function"
    }
  ],
  "bytecode": "0x608060405234801561001057600080fd5b50338061003757604051631e4fbdf760e01b81526000600482015260240160405180910390fd5b61004081610046565b50610096565b600080546001600160a01b038381166001600160a01b0319831681178455604051919092169283917f8be0079c531659141344cd1fd0a4f28419497f9722a3daafe3b4186f6b6457e09190a35050565b610456806100a56000396000f3fe608060405234801561001057600080fd5b50600436106100885760003560e01c80638da5cb5b1161005b5780638da5cb5b14610107578063b3ea093314610122578063d7b0fef114610134578063f2fde38b1461013d57600080fd5b806329c3f2921461008d57806348203b07146100a2578063715018a6146100dc5780638642afd1146100e4575b600080fd5b6100a061009b3660046102e1565b610150565b005b6100c76100b036600461037b565b505060009081526001602052604090205460ff1690565b60405190151581526020015b60405180910390f35b6100a06101c4565b6100c76100f23660046103c7565b60016020526000908152604090205460ff1681565b6000546040516001600160a01b0390911681526020016100d3565b6002545b6040519081526020016100d3565b61012660025481565b6100a061014b3660046103e0565b6101d8565b61015861021b565b6000848460405161016a929190610410565b60408051918290038220600081815260016020819052928120805460ff191690931790925560028190559250339183917ffa058fb95e2b72e81000fe40c70df8910c06e081c5cd3c7979a315f5a290198691a35050505050565b6101cc61021b565b6101d66000610248565b565b6101e061021b565b6001600160a01b03811661020f57604051631e4fbdf760e01b8152600060048201526024015b60405180910390fd5b61021881610248565b50565b6000546001600160a01b031633146101d65760405163118cdaa760e01b8152336004820152602401610206565b600080546001600160a01b038381166001600160a01b0319831681178455604051919092169283917f8be0079c531659141344cd1fd0a4f28419497f9722a3daafe3b4186f6b6457e09190a35050565b60008083601f8401126102aa57600080fd5b50813567ffffffffffffffff8111156102c257600080fd5b6020830191508360208285010111156102da57600080fd5b9250929050565b600080600080604085870312156102f757600080fd5b843567ffffffffffffffff8082111561030f57600080fd5b61031b88838901610298565b9096509450602087013591508082111561033457600080fd5b818701915087601f83011261034857600080fd5b81358181111561035757600080fd5b8860208260051b850101111561036c57600080fd5b95989497505060200194505050565b60008060006040848603121561039057600080fd5b83359250602084013567ffffffffffffffff8111156103ae57600080fd5b6103ba86828701610298565b9497909650939450505050565b6000602082840312156103d957600080fd5b5035919050565b6000602082840312156103f257600080fd5b81356001600160a01b038116811461040957600080fd5b9392505050565b818382376000910190815291905056fea2646970667358221220495e460d9b4ee737af46b30ed5ec34832519d852cea1ba7287f3e21ab5a1d82064736f6c63430008140033",
  "linkReferences": {},
  "deployedLinkReferences": {}
}