{
  "_format": "hh-sol-artifact-1",
  "contractName": "MaliciousERC20",
  "sourceName": "contracts/test/MaliciousERC20.sol",
  "abi": [
    {
      "inputs": [
        {
          "internalType": "address",
          "name": "_lendingPool",
          "type": "address"
        }
      ],
      "stateMutability": "nonpayable",
      "type": "constructor"
    },
    {
      "inputs": [
        {
          "internalType": "address",
          "name": "spender",
          "type": "address"
        },
        {
          "internalType": "uint256",
          "name": "allowance",
          "type": "uint256"
        },
        {
          "internalType": "uint256",
          "name": "needed",
          "type": "uint256"
        }
      ],
      "name": "ERC20InsufficientAllowance",
      "type": "error"
    },
    {
      "inputs": [
        {
          "internalType": "address",
          "name": "sender",
          "type": "address"
        },
        {
          "internalType": "uint256",
          "name": "balance",
          "type": "uint256"
        },
        {
          "internalType": "uint256",
          "name": "needed",
          "type": "uint256"
        }
      ],
      "name": "ERC20InsufficientBalance",
      "type": "error"
    },
    {
      "inputs": [
        {
          "internalType": "address",
          "name": "approver",
          "type": "address"
        }
      ],
      "name": "ERC20InvalidApprover",
      "type": "error"
    },
    {
      "inputs": [
        {
          "internalType": "address",
          "name": "receiver",
          "type": "address"
        }
      ],
      "name": "ERC20InvalidReceiver",
      "type": "error"
    },
    {
      "inputs": [
        {
          "internalType": "address",
          "name": "sender",
          "type": "address"
        }
      ],
      "name": "ERC20InvalidSender",
      "type": "error"
    },
    {
      "inputs": [
        {
          "internalType": "address",
          "name": "spender",
          "type": "address"
        }
      ],
      "name": "ERC20InvalidSpender",
      "type": "error"
    },
    {
      "inputs": [
        {
          "internalType": "address",
          "name": "owner",
          "type": "address"
        }
      ],
      "name": "OwnableInvalidOwner",
      "type": "error"
    },
    {
      "inputs": [
        {
          "internalType": "address",
          "name": "account",
          "type": "address"
        }
      ],
      "name": "OwnableUnauthorizedAccount",
      "type": "error"
    },
    {
      "anonymous": false,
      "inputs": [
        {
          "indexed": true,
          "internalType": "address",
          "name": "owner",
          "type": "address"
        },
        {
          "indexed": true,
          "internalType": "address",
          "name": "spender",
          "type": "address"
        },
        {
          "indexed": false,
          "internalType": "uint256",
          "name": "value",
          "type": "uint256"
        }
      ],
      "name": "Approval",
      "type": "event"
    },
    {
      "anonymous": false,
      "inputs": [
        {
          "indexed": true,
          "internalType": "address",
          "name": "previousOwner",
          "type": "address"
        },
        {
          "indexed": true,
          "internalType": "address",
          "name": "newOwner",
          "type": "address"
        }
      ],
      "name": "OwnershipTransferred",
      "type": "event"
    },
    {
      "anonymous": false,
      "inputs": [
        {
          "indexed": true,
          "internalType": "address",
          "name": "from",
          "type": "address"
        },
        {
          "indexed": true,
          "internalType": "address",
          "name": "to",
          "type": "address"
        },
        {
          "indexed": false,
          "internalType": "uint256",
          "name": "value",
          "type": "uint256"
        }
      ],
      "name": "Transfer",
      "type": "event"
    },
    {
      "inputs": [
        {
          "internalType": "address",
          "name": "owner",
          "type": "address"
        },
        {
          "internalType": "address",
          "name": "spender",
          "type": "address"
        }
      ],
      "name": "allowance",
      "outputs": [
        {
          "internalType": "uint256",
          "name": "",
          "type": "uint256"
        }
      ],
      "stateMutability": "view",
      "type": "function"
    },
    {
      "inputs": [
        {
          "internalType": "address",
          "name": "spender",
          "type": "address"
        },
        {
          "internalType": "uint256",
          "name": "value",
          "type": "uint256"
        }
      ],
      "name": "approve",
      "outputs": [
        {
          "internalType": "bool",
          "name": "",
          "type": "bool"
        }
      ],
      "stateMutability": "nonpayable",
      "type": "function"
    },
    {
      "inputs": [
        {
          "internalType": "address",
          "name": "account",
          "type": "address"
        }
      ],
      "name": "balanceOf",
      "outputs": [
        {
          "internalType": "uint256",
          "name": "",
          "type": "uint256"
        }
      ],
      "stateMutability": "view",
      "type": "function"
    },
    {
      "inputs": [],
      "name": "decimals",
      "outputs": [
        {
          "internalType": "uint8",
          "name": "",
          "type": "uint8"
        }
      ],
      "stateMutability": "view",
      "type": "function"
    },
    {
      "inputs": [
        {
          "internalType": "address",
          "name": "to",
          "type": "address"
        },
        {
          "internalType": "uint256",
          "name": "amount",
          "type": "uint256"
        }
      ],
      "name": "mint",
      "outputs": [],
      "stateMutability": "nonpayable",
      "type": "function"
    },
    {
      "inputs": [],
      "name": "name",
      "outputs": [
        {
          "internalType": "string",
          "name": "",
          "type": "string"
        }
      ],
      "stateMutability": "view",
      "type": "function"
    },
    {
      "inputs": [],
      "name": "owner",
      "outputs": [
        {
          "internalType": "address",
          "name": "",
          "type": "address"
        }
      ],
      "stateMutability": "view",
      "type": "function"
    },
    {
      "inputs": [],
      "name": "renounceOwnership",
      "outputs": [],
      "stateMutability": "nonpayable",
      "type": "function"
    },
    {
      "inputs": [
        {
          "internalType": "address",
          "name": "_attacker",
          "type": "address"
        }
      ],
      "name": "setAttacker",
      "outputs": [],
      "stateMutability": "nonpayable",
      "type": "function"
    },
    {
      "inputs": [],
      "name": "symbol",
      "outputs": [
        {
          "internalType": "string",
          "name": "",
          "type": "string"
        }
      ],
      "stateMutability": "view",
      "type": "function"
    },
    {
      "inputs": [],
      "name": "totalSupply",
      "outputs": [
        {
          "internalType": "uint256",
          "name": "",
          "type": "uint256"
        }
      ],
      "stateMutability": "view",
      "type": "function"
    },
    {
      "inputs": [
        {
          "internalType": "address",
          "name": "to",
          "type": "address"
        },
        {
          "internalType": "uint256",
          "name": "value",
          "type": "uint256"
        }
      ],
      "name": "transfer",
      "outputs": [
        {
          "internalType": "bool",
          "name": "",
          "type": "bool"
        }
      ],
      "stateMutability": "nonpayable",
      "type": "function"
    },
    {
      "inputs": [
        {
          "internalType": "address",
          "name": "from",
          "type": "address"
        },
        {
          "internalType": "address",
          "name": "to",
          "type": "address"
        },
        {
          "internalType": "uint256",
          "name": "value",
          "type": "uint256"
        }
      ],
      "name": "transferFrom",
      "outputs": [
        {
          "internalType": "bool",
          "name": "",
          "type": "bool"
        }
      ],
      "stateMutability": "nonpayable",
      "type": "function"
    },
    {
      "inputs": [
        {
          "internalType": "address",
          "name": "newOwner",
          "type": "address"
        }
      ],
      "name": "transferOwnership",
      "outputs": [],
      "stateMutability": "nonpayable",
      "type": "function"
    }
  ],
  "bytecode": "0x60806040523480156200001157600080fd5b5060405162000cbe38038062000cbe833981016040819052620000349162000150565b336040518060400160405280600f81526020016e26b0b634b1b4b7bab9902a37b5b2b760891b8152506040518060400160405280600481526020016326aa25a760e11b81525081600390816200008b919062000227565b5060046200009a828262000227565b5050506001600160a01b038116620000cc57604051631e4fbdf760e01b81526000600482015260240160405180910390fd5b620000d781620000fe565b50600680546001600160a01b0319166001600160a01b0392909216919091179055620002f3565b600580546001600160a01b038381166001600160a01b0319831681179093556040519116919082907f8be0079c531659141344cd1fd0a4f28419497f9722a3daafe3b4186f6b6457e090600090a35050565b6000602082840312156200016357600080fd5b81516001600160a01b03811681146200017b57600080fd5b9392505050565b634e487b7160e01b600052604160045260246000fd5b600181811c90821680620001ad57607f821691505b602082108103620001ce57634e487b7160e01b600052602260045260246000fd5b50919050565b601f8211156200022257600081815260208120601f850160051c81016020861015620001fd5750805b601f850160051c820191505b818110156200021e5782815560010162000209565b5050505b505050565b81516001600160401b0381111562000243576200024362000182565b6200025b8162000254845462000198565b84620001d4565b602080601f8311600181146200029357600084156200027a5750858301515b600019600386901b1c1916600185901b1785556200021e565b600085815260208120601f198616915b82811015620002c457888601518255948401946001909101908401620002a3565b5085821015620002e35787850151600019600388901b60f8161c191681555b5050505050600190811b01905550565b6109bb80620003036000396000f3fe608060405234801561001057600080fd5b50600436106100ea5760003560e01c8063715018a61161008c578063a6e1bb6511610066578063a6e1bb65146101cd578063a9059cbb146101e0578063dd62ed3e146101f3578063f2fde38b1461022c57600080fd5b8063715018a6146101a25780638da5cb5b146101aa57806395d89b41146101c557600080fd5b806323b872dd116100c857806323b872dd14610142578063313ce5671461015557806340c10f191461016457806370a082311461017957600080fd5b806306fdde03146100ef578063095ea7b31461010d57806318160ddd14610130575b600080fd5b6100f761023f565b6040516101049190610805565b60405180910390f35b61012061011b36600461086f565b6102d1565b6040519015158152602001610104565b6002545b604051908152602001610104565b610120610150366004610899565b6102eb565b60405160128152602001610104565b61017761017236600461086f565b61030f565b005b6101346101873660046108d5565b6001600160a01b031660009081526020819052604090205490565b610177610325565b6005546040516001600160a01b039091168152602001610104565b6100f7610339565b6101776101db3660046108d5565b610348565b6101206101ee36600461086f565b610372565b6101346102013660046108f7565b6001600160a01b03918216600090815260016020908152604080832093909416825291909152205490565b61017761023a3660046108d5565b610380565b60606003805461024e9061092a565b80601f016020809104026020016040519081016040528092919081815260200182805461027a9061092a565b80156102c75780601f1061029c576101008083540402835291602001916102c7565b820191906000526020600020905b8154815290600101906020018083116102aa57829003601f168201915b5050505050905090565b6000336102df8185856103c3565b60019150505b92915050565b6000336102f98582856103d5565b610304858585610454565b506001949350505050565b6103176104b3565b61032182826104e0565b5050565b61032d6104b3565b6103376000610516565b565b60606004805461024e9061092a565b6103506104b3565b600780546001600160a01b0319166001600160a01b0392909216919091179055565b6000336102df818585610454565b6103886104b3565b6001600160a01b0381166103b757604051631e4fbdf760e01b8152600060048201526024015b60405180910390fd5b6103c081610516565b50565b6103d08383836001610568565b505050565b6001600160a01b0383811660009081526001602090815260408083209386168352929052205460001981101561044e578181101561043f57604051637dc7a0d960e11b81526001600160a01b038416600482015260248101829052604481018390526064016103ae565b61044e84848484036000610568565b50505050565b6001600160a01b03831661047e57604051634b637e8f60e11b8152600060048201526024016103ae565b6001600160a01b0382166104a85760405163ec442f0560e01b8152600060048201526024016103ae565b6103d083838361063d565b6005546001600160a01b031633146103375760405163118cdaa760e01b81523360048201526024016103ae565b6001600160a01b03821661050a5760405163ec442f0560e01b8152600060048201526024016103ae565b6103216000838361063d565b600580546001600160a01b038381166001600160a01b0319831681179093556040519116919082907f8be0079c531659141344cd1fd0a4f28419497f9722a3daafe3b4186f6b6457e090600090a35050565b6001600160a01b0384166105925760405163e602df0560e01b8152600060048201526024016103ae565b6001600160a01b0383166105bc57604051634a1406b160e11b8152600060048201526024016103ae565b6001600160a01b038085166000908152600160209081526040808320938716835292905220829055801561044e57826001600160a01b0316846001600160a01b03167f8c5be1e5ebec7d5bd14f71427d1e84f3dd0314c0f7b2291e5b200ac8c7c3b9258460405161062f91815260200190565b60405180910390a350505050565b6006546001600160a01b03848116911614801561066757506007546001600160a01b038381169116145b156106d557600760009054906101000a90046001600160a01b03166001600160a01b031663a0fe97e36040518163ffffffff1660e01b8152600401600060405180830381600087803b1580156106bc57600080fd5b505af11580156106d0573d6000803e3d6000fd5b505050505b6103d08383836001600160a01b0383166107065780600260008282546106fb9190610964565b909155506107789050565b6001600160a01b038316600090815260208190526040902054818110156107595760405163391434e360e21b81526001600160a01b038516600482015260248101829052604481018390526064016103ae565b6001600160a01b03841660009081526020819052604090209082900390555b6001600160a01b038216610794576002805482900390556107b3565b6001600160a01b03821660009081526020819052604090208054820190555b816001600160a01b0316836001600160a01b03167fddf252ad1be2c89b69c2b068fc378daa952ba7f163c4a11628f55a4df523b3ef836040516107f891815260200190565b60405180910390a3505050565b600060208083528351808285015260005b8181101561083257858101830151858201604001528201610816565b506000604082860101526040601f19601f8301168501019250505092915050565b80356001600160a01b038116811461086a57600080fd5b919050565b6000806040838503121561088257600080fd5b61088b83610853565b946020939093013593505050565b6000806000606084860312156108ae57600080fd5b6108b784610853565b92506108c560208501610853565b9150604084013590509250925092565b6000602082840312156108e757600080fd5b6108f082610853565b9392505050565b6000806040838503121561090a57600080fd5b61091383610853565b915061092160208401610853565b90509250929050565b600181811c9082168061093e57607f821691505b60208210810361095e57634e487b7160e01b600052602260045260246000fd5b50919050565b808201808211156102e557634e487b7160e01b600052601160045260246000fdfea2646970667358221220bcbeb2638bd172236c6f767a4dde02e8c14743e183facbf9aabcfc011a7d32b864736f6c63430008140033",
  "linkReferences": {},
  "deployedLinkReferences": {}
}