{
  "_format": "hh-sol-artifact-1",
  "contractName": "InterestRateModel",
  "sourceName": "contracts/InterestRateModel.sol",
  "abi": [
    {
      "inputs": [
        {
          "internalType": "uint256",
          "name": "_baseAPR",
          "type": "uint256"
        },
        {
          "internalType": "uint256",
          "name": "_slopeAPR",
          "type": "uint256"
        }
      ],
      "stateMutability": "nonpayable",
      "type": "constructor"
    },
    {
      "inputs": [],
      "name": "SECONDS_PER_YEAR",
      "outputs": [
        {
          "internalType": "uint256",
          "name": "",
          "type": "uint256"
        }
      ],
      "stateMutability": "view",
      "type": "function"
    },
    {
      "inputs": [],
      "name": "baseAPR",
      "outputs": [
        {
          "internalType": "uint256",
          "name": "",
          "type": "uint256"
        }
      ],
      "stateMutability": "view",
      "type": "function"
    },
    {
      "inputs": [
        {
          "internalType": "uint256",
          "name": "utilization",
          "type": "uint256"
        }
      ],
      "name": "getBorrowRatePerSecond",
      "outputs": [
        {
          "internalType": "uint256",
          "name": "",
          "type": "uint256"
        }
      ],
      "stateMutability": "view",
      "type": "function"
    },
    {
      "inputs": [],
      "name": "slopeAPR",
      "outputs": [
        {
          "internalType": "uint256",
          "name": "",
          "type": "uint256"
        }
      ],
      "stateMutability": "view",
      "type": "function"
    }
  ],
  "bytecode": "0x60c060405234801561001057600080fd5b506040516102b03803806102b083398101604081905261002f9161003d565b60809190915260a052610061565b6000806040838503121561005057600080fd5b505080516020909101519092909150565b60805160a05161021f61009160003960008181608f015260f90152600081816056015261012d015261021f6000f3fe608060405234801561001057600080fd5b506004361061004c5760003560e01c806358ac0e8014610051578063c04418a21461008a578063e6a69ab8146100b1578063f71bd11b146100bc575b600080fd5b6100787f000000000000000000000000000000000000000000000000000000000000000081565b60405190815260200160405180910390f35b6100787f000000000000000000000000000000000000000000000000000000000000000081565b6100786301e1338081565b6100786100ca366004610168565b6000670de0b6b3a76400008211156100e857670de0b6b3a764000091505b6000670de0b6b3a764000061011d847f0000000000000000000000000000000000000000000000000000000000000000610197565b61012791906101b4565b610151907f00000000000000000000000000000000000000000000000000000000000000006101d6565b90506101616301e13380826101b4565b9392505050565b60006020828403121561017a57600080fd5b5035919050565b634e487b7160e01b600052601160045260246000fd5b80820281158282048414176101ae576101ae610181565b92915050565b6000826101d157634e487b7160e01b600052601260045260246000fd5b500490565b808201808211156101ae576101ae61018156fea264697066735822122090ac0fbd5c083437979316c85dff7a1efcbc9984961f558715313c7f30612b1864736f6c63430008140033",
  "linkReferences": {},
  "deployedLinkReferences": {}
}