{
  "_format": "hh-sol-artifact-1",
  "contractName": "LendingPool",
  "sourceName": "contracts/LendingPool.sol",
  "abi": [
    {
      "inputs": [
        {
          "internalType": "address",
          "name": "_priceOracle",
          "type": "address"
        },
        {
          "internalType": "address",
          "name": "admin",
          "type": "address"
        }
      ],
      "stateMutability": "nonpayable",
      "type": "constructor"
    },
    {
      "inputs": [],
      "name": "AssetAlreadyListed",
      "type": "error"
    },
    {
      "inputs": [],
      "name": "AssetNotListed",
      "type": "error"
    },
    {
      "inputs": [],
      "name": "InsufficientCollateral",
      "type": "error"
    },
    {
      "inputs": [],
      "name": "InsufficientLiquidity",
      "type": "error"
    },
    {
      "inputs": [],
      "name": "LiquidationNotPossible",
      "type": "error"
    },
    {
      "inputs": [
        {
          "internalType": "address",
          "name": "owner",
          "type": "address"
        }
      ],
      "name": "OwnableInvalidOwner",
      "type": "error"
    },
    {
      "inputs": [
        {
          "internalType": "address",
          "name": "account",
          "type": "address"
        }
      ],
      "name": "OwnableUnauthorizedAccount",
      "type": "error"
    },
    {
      "inputs": [],
      "name": "ReentrancyGuardReentrantCall",
      "type": "error"
    },
    {
      "inputs": [
        {
          "internalType": "address",
          "name": "token",
          "type": "address"
        }
      ],
      "name": "SafeERC20FailedOperation",
      "type": "error"
    },
    {
      "inputs": [],
      "name": "ZeroAddress",
      "type": "error"
    },
    {
      "inputs": [],
      "name": "ZeroAmount",
      "type": "error"
    },
    {
      "anonymous": false,
      "inputs": [
        {
          "indexed": true,
          "internalType": "address",
          "name": "asset",
          "type": "address"
        },
        {
          "indexed": false,
          "internalType": "uint256",
          "name": "collateralFactor",
          "type": "uint256"
        },
        {
          "indexed": false,
          "internalType": "uint256",
          "name": "liquidationBonus",
          "type": "uint256"
        }
      ],
      "name": "AssetConfigUpdated",
      "type": "event"
    },
    {
      "anonymous": false,
      "inputs": [
        {
          "indexed": true,
          "internalType": "address",
          "name": "asset",
          "type": "address"
        },
        {
          "indexed": false,
          "internalType": "address",
          "name": "irm",
          "type": "address"
        },
        {
          "indexed": false,
          "internalType": "uint256",
          "name": "collateralFactor",
          "type": "uint256"
        },
        {
          "indexed": false,
          "internalType": "uint256",
          "name": "liquidationBonus",
          "type": "uint256"
        }
      ],
      "name": "AssetListed",
      "type": "event"
    },
    {
      "anonymous": false,
      "inputs": [
        {
          "indexed": true,
          "internalType": "address",
          "name": "user",
          "type": "address"
        },
        {
          "indexed": true,
          "internalType": "address",
          "name": "asset",
          "type": "address"
        },
        {
          "indexed": false,
          "internalType": "uint256",
          "name": "amount",
          "type": "uint256"
        }
      ],
      "name": "Borrow",
      "type": "event"
    },
    {
      "anonymous": false,
      "inputs": [
        {
          "indexed": true,
          "internalType": "address",
          "name": "user",
          "type": "address"
        },
        {
          "indexed": true,
          "internalType": "address",
          "name": "asset",
          "type": "address"
        },
        {
          "indexed": false,
          "internalType": "uint256",
          "name": "amount",
          "type": "uint256"
        },
        {
          "indexed": false,
          "internalType": "uint256",
          "name": "shares",
          "type": "uint256"
        }
      ],
      "name": "Deposit",
      "type": "event"
    },
    {
      "anonymous": false,
      "inputs": [
        {
          "indexed": true,
          "internalType": "address",
          "name": "liquidator",
          "type": "address"
        },
        {
          "indexed": true,
          "internalType": "address",
          "name": "borrower",
          "type": "address"
        },
        {
          "indexed": true,
          "internalType": "address",
          "name": "collateralAsset",
          "type": "address"
        },
        {
          "indexed": false,
          "internalType": "address",
          "name": "borrowAsset",
          "type": "address"
        },
        {
          "indexed": false,
          "internalType": "uint256",
          "name": "repayAmount",
          "type": "uint256"
        },
        {
          "indexed": false,
          "internalType": "uint256",
          "name": "seizedAmount",
          "type": "uint256"
        }
      ],
      "name": "Liquidate",
      "type": "event"
    },
    {
      "anonymous": false,
      "inputs": [
        {
          "indexed": true,
          "internalType": "address",
          "name": "previousOwner",
          "type": "address"
        },
        {
          "indexed": true,
          "internalType": "address",
          "name": "newOwner",
          "type": "address"
        }
      ],
      "name": "OwnershipTransferred",
      "type": "event"
    },
    {
      "anonymous": false,
      "inputs": [
        {
          "indexed": true,
          "internalType": "address",
          "name": "newOracle",
          "type": "address"
        }
      ],
      "name": "PriceOracleUpdated",
      "type": "event"
    },
    {
      "anonymous": false,
      "inputs": [
        {
          "indexed": true,
          "internalType": "address",
          "name": "user",
          "type": "address"
        },
        {
          "indexed": true,
          "internalType": "address",
          "name": "asset",
          "type": "address"
        },
        {
          "indexed": false,
          "internalType": "uint256",
          "name": "amount",
          "type": "uint256"
        }
      ],
      "name": "Repay",
      "type": "event"
    },
    {
      "anonymous": false,
      "inputs": [
        {
          "indexed": true,
          "internalType": "address",
          "name": "user",
          "type": "address"
        },
        {
          "indexed": true,
          "internalType": "address",
          "name": "asset",
          "type": "address"
        },
        {
          "indexed": false,
          "internalType": "uint256",
          "name": "amount",
          "type": "uint256"
        },
        {
          "indexed": false,
          "internalType": "uint256",
          "name": "shares",
          "type": "uint256"
        }
      ],
      "name": "Withdraw",
      "type": "event"
    },
    {
      "inputs": [
        {
          "internalType": "address",
          "name": "_asset",
          "type": "address"
        }
      ],
      "name": "accrueInterest",
      "outputs": [],
      "stateMutability": "nonpayable",
      "type": "function"
    },
    {
      "inputs": [
        {
          "internalType": "address",
          "name": "",
          "type": "address"
        }
      ],
      "name": "assetConfigs",
      "outputs": [
        {
          "internalType": "address",
          "name": "assetAddress",
          "type": "address"
        },
        {
          "internalType": "address",
          "name": "irmAddress",
          "type": "address"
        },
        {
          "internalType": "uint256",
          "name": "collateralFactor",
          "type": "uint256"
        },
        {
          "internalType": "uint256",
          "name": "liquidationBonus",
          "type": "uint256"
        },
        {
          "internalType": "bool",
          "name": "isActive",
          "type": "bool"
        }
      ],
      "stateMutability": "view",
      "type": "function"
    },
    {
      "inputs": [
        {
          "internalType": "address",
          "name": "_asset",
          "type": "address"
        },
        {
          "internalType": "uint256",
          "name": "_amount",
          "type": "uint256"
        }
      ],
      "name": "borrow",
      "outputs": [],
      "stateMutability": "nonpayable",
      "type": "function"
    },
    {
      "inputs": [
        {
          "internalType": "address",
          "name": "_asset",
          "type": "address"
        },
        {
          "internalType": "uint256",
          "name": "_amount",
          "type": "uint256"
        }
      ],
      "name": "deposit",
      "outputs": [],
      "stateMutability": "nonpayable",
      "type": "function"
    },
    {
      "inputs": [
        {
          "internalType": "address",
          "name": "_user",
          "type": "address"
        }
      ],
      "name": "getAccountLiquidity",
      "outputs": [
        {
          "internalType": "uint256",
          "name": "totalCollateralValue",
          "type": "uint256"
        },
        {
          "internalType": "uint256",
          "name": "totalBorrowValue",
          "type": "uint256"
        }
      ],
      "stateMutability": "view",
      "type": "function"
    },
    {
      "inputs": [
        {
          "internalType": "address",
          "name": "_asset",
          "type": "address"
        },
        {
          "internalType": "uint256",
          "name": "_shares",
          "type": "uint256"
        }
      ],
      "name": "getAmountForShares",
      "outputs": [
        {
          "internalType": "uint256",
          "name": "",
          "type": "uint256"
        }
      ],
      "stateMutability": "view",
      "type": "function"
    },
    {
      "inputs": [
        {
          "internalType": "address",
          "name": "_asset",
          "type": "address"
        },
        {
          "internalType": "address",
          "name": "_user",
          "type": "address"
        }
      ],
      "name": "getTotalDebt",
      "outputs": [
        {
          "internalType": "uint256",
          "name": "",
          "type": "uint256"
        }
      ],
      "stateMutability": "view",
      "type": "function"
    },
    {
      "inputs": [
        {
          "internalType": "address",
          "name": "_borrower",
          "type": "address"
        },
        {
          "internalType": "address",
          "name": "_borrowAsset",
          "type": "address"
        },
        {
          "internalType": "address",
          "name": "_collateralAsset",
          "type": "address"
        },
        {
          "internalType": "uint256",
          "name": "_repayAmount",
          "type": "uint256"
        }
      ],
      "name": "liquidate",
      "outputs": [],
      "stateMutability": "nonpayable",
      "type": "function"
    },
    {
      "inputs": [
        {
          "internalType": "address",
          "name": "_asset",
          "type": "address"
        },
        {
          "internalType": "address",
          "name": "_irm",
          "type": "address"
        },
        {
          "internalType": "uint256",
          "name": "_collateralFactor",
          "type": "uint256"
        },
        {
          "internalType": "uint256",
          "name": "_liquidationBonus",
          "type": "uint256"
        }
      ],
      "name": "listAsset",
      "outputs": [],
      "stateMutability": "nonpayable",
      "type": "function"
    },
    {
      "inputs": [
        {
          "internalType": "uint256",
          "name": "",
          "type": "uint256"
        }
      ],
      "name": "listedAssets",
      "outputs": [
        {
          "internalType": "address",
          "name": "",
          "type": "address"
        }
      ],
      "stateMutability": "view",
      "type": "function"
    },
    {
      "inputs": [],
      "name": "owner",
      "outputs": [
        {
          "internalType": "address",
          "name": "",
          "type": "address"
        }
      ],
      "stateMutability": "view",
      "type": "function"
    },
    {
      "inputs": [
        {
          "internalType": "address",
          "name": "",
          "type": "address"
        }
      ],
      "name": "poolAccounts",
      "outputs": [
        {
          "internalType": "uint256",
          "name": "totalShares",
          "type": "uint256"
        },
        {
          "internalType": "uint256",
          "name": "totalBorrows",
          "type": "uint256"
        },
        {
          "internalType": "uint256",
          "name": "borrowIndex",
          "type": "uint256"
        },
        {
          "internalType": "uint256",
          "name": "lastInterestAccruedTimestamp",
          "type": "uint256"
        },
        {
          "internalType": "uint256",
          "name": "totalReserves",
          "type": "uint256"
        }
      ],
      "stateMutability": "view",
      "type": "function"
    },
    {
      "inputs": [],
      "name": "priceOracle",
      "outputs": [
        {
          "internalType": "contract IPriceOracle",
          "name": "",
          "type": "address"
        }
      ],
      "stateMutability": "view",
      "type": "function"
    },
    {
      "inputs": [],
      "name": "renounceOwnership",
      "outputs": [],
      "stateMutability": "nonpayable",
      "type": "function"
    },
    {
      "inputs": [
        {
          "internalType": "address",
          "name": "_asset",
          "type": "address"
        },
        {
          "internalType": "uint256",
          "name": "_amount",
          "type": "uint256"
        }
      ],
      "name": "repay",
      "outputs": [],
      "stateMutability": "nonpayable",
      "type": "function"
    },
    {
      "inputs": [
        {
          "internalType": "address",
          "name": "_newOracle",
          "type": "address"
        }
      ],
      "name": "setPriceOracle",
      "outputs": [],
      "stateMutability": "nonpayable",
      "type": "function"
    },
    {
      "inputs": [
        {
          "internalType": "address",
          "name": "newOwner",
          "type": "address"
        }
      ],
      "name": "transferOwnership",
      "outputs": [],
      "stateMutability": "nonpayable",
      "type": "function"
    },
    {
      "inputs": [
        {
          "internalType": "address",
          "name": "_asset",
          "type": "address"
        },
        {
          "internalType": "uint256",
          "name": "_collateralFactor",
          "type": "uint256"
        },
        {
          "internalType": "uint256",
          "name": "_liquidationBonus",
          "type": "uint256"
        }
      ],
      "name": "updateAssetConfig",
      "outputs": [],
      "stateMutability": "nonpayable",
      "type": "function"
    },
    {
      "inputs": [
        {
          "internalType": "address",
          "name": "",
          "type": "address"
        },
        {
          "internalType": "address",
          "name": "",
          "type": "address"
        }
      ],
      "name": "userAccounts",
      "outputs": [
        {
          "internalType": "uint256",
          "name": "shares",
          "type": "uint256"
        },
        {
          "internalType": "uint256",
          "name": "borrowPrincipal",
          "type": "uint256"
        },
        {
          "internalType": "uint256",
          "name": "borrowIndex",
          "type": "uint256"
        }
      ],
      "stateMutability": "view",
      "type": "function"
    },
    {
      "inputs": [
        {
          "internalType": "address",
          "name": "_asset",
          "type": "address"
        },
        {
          "internalType": "uint256",
          "name": "_shares",
          "type": "uint256"
        }
      ],
      "name": "withdraw",
      "outputs": [],
      "stateMutability": "nonpayable",
      "type": "function"
    }
  ],
  "bytecode": "0x60806040523480156200001157600080fd5b50604051620024b8380380620024b8833981016040819052620000349162000130565b806001600160a01b0381166200006457604051631e4fbdf760e01b81526000600482015260240160405180910390fd5b6200006f81620000c3565b50600180556001600160a01b0382166200009c5760405163d92e233d60e01b815260040160405180910390fd5b50600280546001600160a01b0319166001600160a01b039290921691909117905562000168565b600080546001600160a01b038381166001600160a01b0319831681178455604051919092169283917f8be0079c531659141344cd1fd0a4f28419497f9722a3daafe3b4186f6b6457e09190a35050565b80516001600160a01b03811681146200012b57600080fd5b919050565b600080604083850312156200014457600080fd5b6200014f8362000113565b91506200015f6020840162000113565b90509250929050565b61234080620001786000396000f3fe608060405234801561001057600080fd5b506004361061012c5760003560e01c80638da5cb5b116100ad578063d29b3cb111610071578063d29b3cb114610386578063d6446d4314610399578063d7eb003a146103ac578063f2fde38b146103bf578063f3fef3a3146103d257600080fd5b80638da5cb5b146102d75780639198e515146102e8578063a500ba7c146102fb578063aab3f86814610360578063ab78af671461037357600080fd5b80634b8a3529116100f45780634b8a3529146101ff578063530e784f146102125780635ec88c7914610225578063715018a61461024d5780637609d7f61461025557600080fd5b806322867d78146101315780632630c12f146101465780632ff75c591461017657806347e7ef24146101cb57806349e826e6146101de575b600080fd5b61014461013f366004611fdf565b6103e5565b005b600254610159906001600160a01b031681565b6040516001600160a01b0390911681526020015b60405180910390f35b6101b0610184366004612009565b600560209081526000928352604080842090915290825290208054600182015460029092015490919083565b6040805193845260208401929092529082015260600161016d565b6101446101d9366004611fdf565b610594565b6101f16101ec366004611fdf565b6106d4565b60405190815260200161016d565b61014461020d366004611fdf565b6106e9565b61014461022036600461203c565b610a0c565b61023861023336600461203c565b610a85565b6040805192835260208301919091520161016d565b610144610a9a565b6102a261026336600461203c565b6003602081905260009182526040909120805460018201546002830154938301546004909301546001600160a01b039283169492909116929060ff1685565b604080516001600160a01b0396871681529590941660208601529284019190915260608301521515608082015260a00161016d565b6000546001600160a01b0316610159565b6101446102f636600461203c565b610aae565b61033861030936600461203c565b600660205260009081526040902080546001820154600283015460038401546004909401549293919290919085565b604080519586526020860194909452928401919091526060830152608082015260a00161016d565b61014461036e366004612057565b610aba565b6101596103813660046120a2565b610aff565b6101446103943660046120bb565b610b29565b6101f16103a7366004612009565b610cb9565b6101446103ba3660046120fd565b610daa565b6101446103cd36600461203c565b610e52565b6101446103e0366004611fdf565b610e92565b6103ed61103e565b6001600160a01b03821660009081526003602052604090206004015460ff166104295760405163b77e1e0f60e01b815260040160405180910390fd5b8060000361044a57604051631f2a200560e01b815260040160405180910390fd5b61045382611068565b3360009081526005602090815260408083206001600160a01b038616845282528083206006909252822060028201549192909161049857670de0b6b3a764000061049e565b82600201545b826002015484600101546104b29190612146565b6104bc919061215d565b90506000818510156104ce57846104d0565b815b90506104dc818361217f565b600185018190556000036104f6576000600285015561051c565b600083600201541161051057670de0b6b3a7640000610516565b82600201545b60028501555b80836001016000828254610530919061217f565b9091555061054290508633308461123d565b6040518181526001600160a01b0387169033907f05f2eeda0e08e4b437f487c8d7d29b14537d15e3488170dc3de5dbdf8dac4684906020015b60405180910390a35050505061059060018055565b5050565b61059c61103e565b6001600160a01b03821660009081526003602052604090206004015460ff166105d85760405163b77e1e0f60e01b815260040160405180910390fd5b806000036105f957604051631f2a200560e01b815260040160405180910390fd5b61060282611068565b3360009081526005602090815260408083206001600160a01b0386168452825280832060069092528220909161063885856112a4565b90508083600001600082825461064e9190612192565b9091555050815481908390600090610667908490612192565b9091555061068290506001600160a01b03861633308761123d565b60408051858152602081018390526001600160a01b0387169133917fdcbc1c05240f31ff3ad067ef1ee35ce4997762752e3a095284754544f4c709d7910160405180910390a350505061059060018055565b60006106e08383611366565b90505b92915050565b6106f161103e565b6001600160a01b03821660009081526003602052604090206004015460ff1661072d5760405163b77e1e0f60e01b815260040160405180910390fd5b61073682611068565b8015610a035760008061074833611428565b6002546040516341976e0960e01b81526001600160a01b03888116600483015293955091935060009216906341976e0990602401602060405180830381865afa158015610799573d6000803e3d6000fd5b505050506040513d601f19601f820116820180604052508101906107bd91906121a5565b90506000856001600160a01b031663313ce5676040518163ffffffff1660e01b8152600401602060405180830381865afa1580156107ff573d6000803e3d6000fd5b505050506040513d601f19601f8201168201806040525081019061082391906121be565b61082e90600a6122cc565b6108388387612146565b610842919061215d565b90508361084f8285612192565b111561086e57604051633a23d82560e01b815260040160405180910390fd5b6040516370a0823160e01b815230600482015285906001600160a01b038816906370a0823190602401602060405180830381865afa1580156108b4573d6000803e3d6000fd5b505050506040513d601f19601f820116820180604052508101906108d891906121a5565b10156108f75760405163bb55fd2760e01b815260040160405180910390fd5b3360009081526005602090815260408083206001600160a01b038a16845282528083206006909252822060028201549192909161093c57670de0b6b3a7640000610942565b82600201545b826002015484600101546109569190612146565b610960919061215d565b905061096c8882612192565b6001840155600282015461098857670de0b6b3a764000061098e565b81600201545b8360020181905550878260010160008282546109aa9190612192565b909155506109bb905089338a6117ee565b6040518881526001600160a01b038a169033907f312a5e5e1079f5dda4e95dbbd0b908b291fd5b992ef22073643ab691572c5b529060200160405180910390a3505050505050505b61059060018055565b610a14611824565b6001600160a01b038116610a3b5760405163d92e233d60e01b815260040160405180910390fd5b600280546001600160a01b0319166001600160a01b0383169081179091556040517fefe8ab924ca486283a79dc604baa67add51afb82af1db8ac386ebbba643cdffd90600090a250565b600080610a9183611428565b91509150915091565b610aa2611824565b610aac6000611851565b565b610ab781611068565b50565b610ac261103e565b610acd8484846118a1565b600080610adc8686868661195c565b91509150610aee338787878686611c44565b5050610af960018055565b50505050565b60048181548110610b0f57600080fd5b6000918252602090912001546001600160a01b0316905081565b610b31611824565b6001600160a01b03841660009081526003602052604090206004015460ff1615610b6e5760405163a620d1e160e01b815260040160405180910390fd5b6001600160a01b0384161580610b8b57506001600160a01b038316155b15610ba95760405163d92e233d60e01b815260040160405180910390fd5b6040805160a0810182526001600160a01b03868116808352868216602080850182815285870189815260608088018a8152600160808a01818152600089815260038089528d82209c518d546001600160a01b0319908116918e16919091178e5597518d850180548a1691909d1617909b55945160028c01559151988a0198909855516004988901805460ff1916911515919091179055875496870188559690527f8a35acfbc15ff81a39ae7d344fd709f28e8600b4aa8c65c6b64bfe7fe36bd19b9094018054909416831790935584519081529182018690529281018490527f118fa810d8fabcc6b2e10162f8fe68e43ecb99ee012745078a933d901c970ffd910160405180910390a250505050565b6001600160a01b03808216600090815260056020908152604080832093861683529281528282208351606081018552815481526001820154928101839052600290910154938101939093529091908203610d175760009150506106e3565b6001600160a01b038416600090815260066020908152604091829020825160a081018452815481526001820154928101929092526002810154828401526003810154606083015260040154608082015290820151610d7d57670de0b6b3a7640000610d83565b81604001515b81604001518360200151610d979190612146565b610da1919061215d565b95945050505050565b610db2611824565b6001600160a01b03831660009081526003602052604090206004015460ff16610dee5760405163b77e1e0f60e01b815260040160405180910390fd5b6001600160a01b0383166000818152600360208181526040928390206002810187905590910184905581518581529081018490527f6914ee2e02a37a312e7d04b6a20f6ecff93d21b1afcca29966fa4c0ddcf15519910160405180910390a2505050565b610e5a611824565b6001600160a01b038116610e8957604051631e4fbdf760e01b8152600060048201526024015b60405180910390fd5b610ab781611851565b610e9a61103e565b6001600160a01b03821660009081526003602052604090206004015460ff16610ed65760405163b77e1e0f60e01b815260040160405180910390fd5b80600003610ef757604051631f2a200560e01b815260040160405180910390fd5b610f0082611068565b3360009081526005602090815260408083206001600160a01b038616845290915290208054821115610f4557604051633a23d82560e01b815260040160405180910390fd5b6000610f518484611366565b90506000610f5e33611428565b9150506000610f7d3387878760000154610f78919061217f565b611e0c565b905080821115610fa057604051633a23d82560e01b815260040160405180910390fd5b84846000016000828254610fb4919061217f565b90915550506001600160a01b03861660009081526006602052604081208054879290610fe190849061217f565b90915550610ffb90506001600160a01b03871633856117ee565b60408051848152602081018790526001600160a01b0388169133917ff341246adaac6f497bc2a656f546ab9e182111d630394f0c57c710a59a2cb567910161057b565b60026001540361106157604051633ee5aeb560e01b815260040160405180910390fd5b6002600155565b6001600160a01b0381166000908152600660205260408120600381015490918190036110a75750426003820155670de0b6b3a764000060029091015550565b60006110b3824261217f565b90508015806110c457506001830154155b156110cf5750505050565b60006110df858560000154611366565b9050600081156111115781670de0b6b3a764000086600101546111029190612146565b61110c919061215d565b611114565b60005b6001600160a01b0387811660009081526003602052604080822060010154905163f71bd11b60e01b81526004810185905293945090911691829063f71bd11b90602401602060405180830381865afa158015611174573d6000803e3d6000fd5b505050506040513d601f19601f8201168201806040525081019061119891906121a5565b90506000670de0b6b3a764000086838a600101546111b69190612146565b6111c09190612146565b6111ca919061215d565b9050808860010160008282546111e09190612192565b90915550670de0b6b3a764000090506111f98784612146565b61120b90670de0b6b3a7640000612192565b896002015461121a9190612146565b611224919061215d565b6002890155505042600390960195909555505050505050565b6040516001600160a01b038481166024830152838116604483015260648201839052610af99186918216906323b872dd906084015b604051602081830303815290604052915060e01b6020820180516001600160e01b038381831617835250505050611f52565b6001600160a01b038216600081815260066020526040808220600480820154600183015493516370a0823160e01b81523092810192909252939491938593909290916370a0823190602401602060405180830381865afa15801561130c573d6000803e3d6000fd5b505050506040513d601f19601f8201168201806040525081019061133091906121a5565b61133a9190612192565b611344919061217f565b9050806000036113585783925050506106e3565b81548190610d979086612146565b6001600160a01b038216600081815260066020526040808220600480820154600183015493516370a0823160e01b81523092810192909252939491938593909290916370a0823190602401602060405180830381865afa1580156113ce573d6000803e3d6000fd5b505050506040513d601f19601f820116820180604052508101906113f291906121a5565b6113fc9190612192565b611406919061217f565b825490915060000361141c5783925050506106e3565b8154610d978286612146565b6004546000908190815b818110156117e75760006004828154811061144f5761144f6122db565b60009182526020808320909101546001600160a01b0390811680845260038084526040808620815160a081018352815486168152600182810154871682890152600280840154838601529483015460608084019190915260049093015460ff1615156080830152958e168852600587528288208589528752968290208251918201835280548083529581015496820196909652949091015490840152935015611630576000611502848360000151611366565b6002546040516341976e0960e01b81526001600160a01b038781166004830152929350600092909116906341976e0990602401602060405180830381865afa158015611552573d6000803e3d6000fd5b505050506040513d601f19601f8201168201806040525081019061157691906121a5565b90506000856001600160a01b031663313ce5676040518163ffffffff1660e01b8152600401602060405180830381865afa1580156115b8573d6000803e3d6000fd5b505050506040513d601f19601f820116820180604052508101906115dc91906121be565b6115e790600a6122cc565b6115f18385612146565b6115fb919061215d565b9050670de0b6b3a76400008560400151826116169190612146565b611620919061215d565b61162a908b612192565b99505050505b6020810151156117d1576001600160a01b0383166000908152600660209081526040808320815160a08101835281548152600182015493810193909352600281015483830152600381015460608401526004015460808301528301519091906116a157670de0b6b3a76400006116a7565b82604001515b826040015184602001516116bb9190612146565b6116c5919061215d565b6002546040516341976e0960e01b81526001600160a01b038881166004830152929350600092909116906341976e0990602401602060405180830381865afa158015611715573d6000803e3d6000fd5b505050506040513d601f19601f8201168201806040525081019061173991906121a5565b90506000866001600160a01b031663313ce5676040518163ffffffff1660e01b8152600401602060405180830381865afa15801561177b573d6000803e3d6000fd5b505050506040513d601f19601f8201168201806040525081019061179f91906121be565b6117aa90600a6122cc565b6117b48385612146565b6117be919061215d565b90506117ca818b612192565b9950505050505b50505080806117df906122f1565b915050611432565b5050915091565b6040516001600160a01b0383811660248301526044820183905261181f91859182169063a9059cbb90606401611272565b505050565b6000546001600160a01b03163314610aac5760405163118cdaa760e01b8152336004820152602401610e80565b600080546001600160a01b038381166001600160a01b0319831681178455604051919092169283917f8be0079c531659141344cd1fd0a4f28419497f9722a3daafe3b4186f6b6457e09190a35050565b6001600160a01b03821660009081526003602052604090206004015460ff1615806118e857506001600160a01b03811660009081526003602052604090206004015460ff16155b156119065760405163b77e1e0f60e01b815260040160405180910390fd5b61190f82611068565b61191881611068565b60008061192485611428565b9150915080600014806119375750808210155b156119555760405163481f8f2f60e11b815260040160405180910390fd5b5050505050565b6001600160a01b0380851660009081526005602090815260408083209387168352928152828220600690915291812060028301549192839290919083906119ab57670de0b6b3a76400006119b1565b82600201545b826002015484600101546119c59190612146565b6119cf919061215d565b905060001986036119e2578094506119f4565b8086116119ef57856119f1565b805b94505b6002546040516341976e0960e01b81526001600160a01b038a8116600483015260009216906341976e0990602401602060405180830381865afa158015611a3f573d6000803e3d6000fd5b505050506040513d601f19601f82011682018060405250810190611a6391906121a5565b6002546040516341976e0960e01b81526001600160a01b038b81166004830152929350600092909116906341976e0990602401602060405180830381865afa158015611ab3573d6000803e3d6000fd5b505050506040513d601f19601f82011682018060405250810190611ad791906121a5565b90506000611aed670de0b6b3a764000083612146565b6001600160a01b038c1660009081526003602081905260409091200154611b1c90670de0b6b3a7640000612192565b611b26858b612146565b611b309190612146565b611b3a919061215d565b90506000670de0b6b3a76400008b6001600160a01b031663313ce5676040518163ffffffff1660e01b8152600401602060405180830381865afa158015611b85573d6000803e3d6000fd5b505050506040513d601f19601f82011682018060405250810190611ba991906121be565b611bb490600a6122cc565b611bbe9084612146565b611bc8919061215d565b9050611bd48b826112a4565b97506000600560008f6001600160a01b03166001600160a01b0316815260200190815260200160002060008d6001600160a01b03166001600160a01b0316815260200190815260200160002090508060000154891115611c3357805498505b505050505050505094509492505050565b6001600160a01b03808616600090815260056020908152604080832093871683529290529081208054839290611c7b90849061217f565b90915550506001600160a01b03808716600090815260056020908152604080832093871683529290529081208054839290611cb7908490612192565b90915550506001600160a01b038086166000908152600560209081526040808320938816835292815282822060069091529181206002830154909190611d0557670de0b6b3a7640000611d0b565b82600201545b82600201548460010154611d1f9190612146565b611d29919061215d565b9050611d35858261217f565b60018401819055600003611d4f5760006002840155611d75565b6000826002015411611d6957670de0b6b3a7640000611d6f565b81600201545b60028401555b84826001016000828254611d89919061217f565b90915550611d9b9050878a308861123d565b6000611da78786611366565b604080516001600160a01b038b81168252602082018a9052918101839052919250808916918b8216918d16907fac8bbd8fb7420b3123cf9e24d34551e40514ea69c5a1e97c10e513aaf06e7e429060600160405180910390a450505050505050505050565b6001600160a01b038216600090815260036020526040812081611e2f8585611366565b6002546040516341976e0960e01b81526001600160a01b038881166004830152929350600092909116906341976e0990602401602060405180830381865afa158015611e7f573d6000803e3d6000fd5b505050506040513d601f19601f82011682018060405250810190611ea391906121a5565b9050856001600160a01b031663313ce5676040518163ffffffff1660e01b8152600401602060405180830381865afa158015611ee3573d6000803e3d6000fd5b505050506040513d601f19601f82011682018060405250810190611f0791906121be565b611f1290600a6122cc565b611f2490670de0b6b3a7640000612146565b6002840154611f338385612146565b611f3d9190612146565b611f47919061215d565b979650505050505050565b600080602060008451602086016000885af180611f75576040513d6000823e3d81fd5b50506000513d91508115611f8d578060011415611f9a565b6001600160a01b0384163b155b15610af957604051635274afe760e01b81526001600160a01b0385166004820152602401610e80565b80356001600160a01b0381168114611fda57600080fd5b919050565b60008060408385031215611ff257600080fd5b611ffb83611fc3565b946020939093013593505050565b6000806040838503121561201c57600080fd5b61202583611fc3565b915061203360208401611fc3565b90509250929050565b60006020828403121561204e57600080fd5b6106e082611fc3565b6000806000806080858703121561206d57600080fd5b61207685611fc3565b935061208460208601611fc3565b925061209260408601611fc3565b9396929550929360600135925050565b6000602082840312156120b457600080fd5b5035919050565b600080600080608085870312156120d157600080fd5b6120da85611fc3565b93506120e860208601611fc3565b93969395505050506040820135916060013590565b60008060006060848603121561211257600080fd5b61211b84611fc3565b95602085013595506040909401359392505050565b634e487b7160e01b600052601160045260246000fd5b80820281158282048414176106e3576106e3612130565b60008261217a57634e487b7160e01b600052601260045260246000fd5b500490565b818103818111156106e3576106e3612130565b808201808211156106e3576106e3612130565b6000602082840312156121b757600080fd5b5051919050565b6000602082840312156121d057600080fd5b815160ff811681146121e157600080fd5b9392505050565b600181815b8085111561222357816000190482111561220957612209612130565b8085161561221657918102915b93841c93908002906121ed565b509250929050565b60008261223a575060016106e3565b81612247575060006106e3565b816001811461225d576002811461226757612283565b60019150506106e3565b60ff84111561227857612278612130565b50506001821b6106e3565b5060208310610133831016604e8410600b84101617156122a6575081810a6106e3565b6122b083836121e8565b80600019048211156122c4576122c4612130565b029392505050565b60006106e060ff84168361222b565b634e487b7160e01b600052603260045260246000fd5b60006001820161230357612303612130565b506001019056fea2646970667358221220f87ea04138727b1e483f11cb5b8d23dc67e88b572d5e6d2993baa54225ffc0dc64736f6c63430008140033",
  "linkReferences": {},
  "deployedLinkReferences": {}
}