{
  "_format": "hh-sol-artifact-1",
  "contractName": "LendingPool",
  "sourceName": "contracts/LendingPool.sol",
  "abi": [
    {
      "inputs": [
        {
          "internalType": "address",
          "name": "_asset",
          "type": "address"
        }
      ],
      "stateMutability": "nonpayable",
      "type": "constructor"
    },
    {
      "inputs": [],
      "name": "BorrowerHealthy",
      "type": "error"
    },
    {
      "inputs": [],
      "name": "InsufficientLiquidity",
      "type": "error"
    },
    {
      "inputs": [],
      "name": "NothingToRepay",
      "type": "error"
    },
    {
      "inputs": [
        {
          "internalType": "address",
          "name": "token",
          "type": "address"
        }
      ],
      "name": "SafeERC20FailedOperation",
      "type": "error"
    },
    {
      "inputs": [],
      "name": "ZeroAmount",
      "type": "error"
    },
    {
      "anonymous": false,
      "inputs": [
        {
          "indexed": true,
          "internalType": "address",
          "name": "user",
          "type": "address"
        },
        {
          "indexed": false,
          "internalType": "uint256",
          "name": "amount",
          "type": "uint256"
        }
      ],
      "name": "Borrowed",
      "type": "event"
    },
    {
      "anonymous": false,
      "inputs": [
        {
          "indexed": true,
          "internalType": "address",
          "name": "user",
          "type": "address"
        },
        {
          "indexed": false,
          "internalType": "uint256",
          "name": "amount",
          "type": "uint256"
        }
      ],
      "name": "Deposit",
      "type": "event"
    },
    {
      "anonymous": false,
      "inputs": [
        {
          "indexed": true,
          "internalType": "address",
          "name": "user",
          "type": "address"
        },
        {
          "indexed": false,
          "internalType": "uint256",
          "name": "interest",
          "type": "uint256"
        }
      ],
      "name": "InterestAccrued",
      "type": "event"
    },
    {
      "anonymous": false,
      "inputs": [
        {
          "indexed": true,
          "internalType": "address",
          "name": "liquidator",
          "type": "address"
        },
        {
          "indexed": true,
          "internalType": "address",
          "name": "borrower",
          "type": "address"
        },
        {
          "indexed": false,
          "internalType": "uint256",
          "name": "repaidAmount",
          "type": "uint256"
        },
        {
          "indexed": false,
          "internalType": "uint256",
          "name": "collateralSeized",
          "type": "uint256"
        }
      ],
      "name": "Liquidated",
      "type": "event"
    },
    {
      "anonymous": false,
      "inputs": [
        {
          "indexed": true,
          "internalType": "address",
          "name": "user",
          "type": "address"
        },
        {
          "indexed": false,
          "internalType": "uint256",
          "name": "amount",
          "type": "uint256"
        }
      ],
      "name": "Repaid",
      "type": "event"
    },
    {
      "anonymous": false,
      "inputs": [
        {
          "indexed": true,
          "internalType": "address",
          "name": "user",
          "type": "address"
        },
        {
          "indexed": false,
          "internalType": "uint256",
          "name": "amount",
          "type": "uint256"
        }
      ],
      "name": "Withdraw",
      "type": "event"
    },
    {
      "inputs": [
        {
          "internalType": "address",
          "name": "user",
          "type": "address"
        }
      ],
      "name": "accrueInterest",
      "outputs": [],
      "stateMutability": "nonpayable",
      "type": "function"
    },
    {
      "inputs": [],
      "name": "asset",
      "outputs": [
        {
          "internalType": "contract IERC20",
          "name": "",
          "type": "address"
        }
      ],
      "stateMutability": "view",
      "type": "function"
    },
    {
      "inputs": [],
      "name": "availableLiquidity",
      "outputs": [
        {
          "internalType": "uint256",
          "name": "",
          "type": "uint256"
        }
      ],
      "stateMutability": "view",
      "type": "function"
    },
    {
      "inputs": [
        {
          "internalType": "uint256",
          "name": "amount",
          "type": "uint256"
        }
      ],
      "name": "borrow",
      "outputs": [],
      "stateMutability": "nonpayable",
      "type": "function"
    },
    {
      "inputs": [
        {
          "internalType": "uint256",
          "name": "",
          "type": "uint256"
        }
      ],
      "name": "borrowers",
      "outputs": [
        {
          "internalType": "address",
          "name": "",
          "type": "address"
        }
      ],
      "stateMutability": "view",
      "type": "function"
    },
    {
      "inputs": [
        {
          "internalType": "address",
          "name": "",
          "type": "address"
        }
      ],
      "name": "borrows",
      "outputs": [
        {
          "internalType": "uint256",
          "name": "principal",
          "type": "uint256"
        },
        {
          "internalType": "uint256",
          "name": "timestamp",
          "type": "uint256"
        }
      ],
      "stateMutability": "view",
      "type": "function"
    },
    {
      "inputs": [
        {
          "internalType": "uint256",
          "name": "amount",
          "type": "uint256"
        }
      ],
      "name": "deposit",
      "outputs": [],
      "stateMutability": "nonpayable",
      "type": "function"
    },
    {
      "inputs": [
        {
          "internalType": "uint256",
          "name": "_shares",
          "type": "uint256"
        }
      ],
      "name": "getAmountForShares",
      "outputs": [
        {
          "internalType": "uint256",
          "name": "",
          "type": "uint256"
        }
      ],
      "stateMutability": "view",
      "type": "function"
    },
    {
      "inputs": [
        {
          "internalType": "uint256",
          "name": "amount",
          "type": "uint256"
        }
      ],
      "name": "getSharesForAmount",
      "outputs": [
        {
          "internalType": "uint256",
          "name": "",
          "type": "uint256"
        }
      ],
      "stateMutability": "view",
      "type": "function"
    },
    {
      "inputs": [],
      "name": "irm",
      "outputs": [
        {
          "internalType": "contract IInterestRateModel",
          "name": "",
          "type": "address"
        }
      ],
      "stateMutability": "view",
      "type": "function"
    },
    {
      "inputs": [
        {
          "internalType": "address",
          "name": "user",
          "type": "address"
        }
      ],
      "name": "isHealthy",
      "outputs": [
        {
          "internalType": "bool",
          "name": "",
          "type": "bool"
        }
      ],
      "stateMutability": "nonpayable",
      "type": "function"
    },
    {
      "inputs": [
        {
          "internalType": "address",
          "name": "user",
          "type": "address"
        },
        {
          "internalType": "uint256",
          "name": "amount",
          "type": "uint256"
        }
      ],
      "name": "liquidate",
      "outputs": [],
      "stateMutability": "nonpayable",
      "type": "function"
    },
    {
      "inputs": [
        {
          "internalType": "address",
          "name": "user",
          "type": "address"
        }
      ],
      "name": "maxBorrowable",
      "outputs": [
        {
          "internalType": "uint256",
          "name": "",
          "type": "uint256"
        }
      ],
      "stateMutability": "view",
      "type": "function"
    },
    {
      "inputs": [
        {
          "internalType": "uint256",
          "name": "amount",
          "type": "uint256"
        }
      ],
      "name": "repay",
      "outputs": [],
      "stateMutability": "nonpayable",
      "type": "function"
    },
    {
      "inputs": [],
      "name": "repayAll",
      "outputs": [],
      "stateMutability": "nonpayable",
      "type": "function"
    },
    {
      "inputs": [
        {
          "internalType": "address",
          "name": "_irm",
          "type": "address"
        }
      ],
      "name": "setIRM",
      "outputs": [],
      "stateMutability": "nonpayable",
      "type": "function"
    },
    {
      "inputs": [
        {
          "internalType": "address",
          "name": "",
          "type": "address"
        }
      ],
      "name": "shares",
      "outputs": [
        {
          "internalType": "uint256",
          "name": "",
          "type": "uint256"
        }
      ],
      "stateMutability": "view",
      "type": "function"
    },
    {
      "inputs": [],
      "name": "totalBorrows",
      "outputs": [
        {
          "internalType": "uint256",
          "name": "",
          "type": "uint256"
        }
      ],
      "stateMutability": "view",
      "type": "function"
    },
    {
      "inputs": [],
      "name": "totalDeposits",
      "outputs": [
        {
          "internalType": "uint256",
          "name": "",
          "type": "uint256"
        }
      ],
      "stateMutability": "view",
      "type": "function"
    },
    {
      "inputs": [],
      "name": "totalShares",
      "outputs": [
        {
          "internalType": "uint256",
          "name": "",
          "type": "uint256"
        }
      ],
      "stateMutability": "view",
      "type": "function"
    },
    {
      "inputs": [],
      "name": "utilization",
      "outputs": [
        {
          "internalType": "uint256",
          "name": "",
          "type": "uint256"
        }
      ],
      "stateMutability": "view",
      "type": "function"
    },
    {
      "inputs": [
        {
          "internalType": "uint256",
          "name": "sharesToBurn",
          "type": "uint256"
        }
      ],
      "name": "withdraw",
      "outputs": [],
      "stateMutability": "nonpayable",
      "type": "function"
    },
    {
      "inputs": [],
      "name": "withdrawAll",
      "outputs": [],
      "stateMutability": "nonpayable",
      "type": "function"
    }
  ],
  "bytecode": "0x60a06040523480156200001157600080fd5b50604051620026da380380620026da8339818101604052810190620000379190620000dc565b8073ffffffffffffffffffffffffffffffffffffffff1660808173ffffffffffffffffffffffffffffffffffffffff1681525050506200010e565b600080fd5b600073ffffffffffffffffffffffffffffffffffffffff82169050919050565b6000620000a48262000077565b9050919050565b620000b68162000097565b8114620000c257600080fd5b50565b600081519050620000d681620000ab565b92915050565b600060208284031215620000f557620000f462000072565b5b60006200010584828501620000c5565b91505092915050565b60805161257f6200015b600039600081816105e1015281816107ff0152818161089e015281816109c101528181610c35015281816111f40152818161144e0152611601015261257f6000f3fe608060405234801561001057600080fd5b506004361061014d5760003560e01c80637d882097116100c3578063c5ebeaec1161007c578063c5ebeaec1461038d578063ce7c2ac2146103a9578063d4bb0c73146103d9578063d4d9bc68146103f5578063ea21cd9214610425578063fa3ae6dc146104435761014d565b80637d882097146102e1578063853828b6146102ff5780639198e5151461030957806399fd586514610325578063b6b55f2514610355578063bcbaf487146103715761014d565b806346e028411161011557806346e02841146101e457806347bd37181461021457806353696eb81461023257806354a5706f1461026257806374375359146102935780637924d93f146102b15761014d565b806328e8fe7d146101525780632e1a7d4d14610170578063371fd8e61461018c57806338d52e0f146101a85780633a98ef39146101c6575b600080fd5b61015a61044d565b6040516101679190611e41565b60405180910390f35b61018a60048036038101906101859190611e97565b610471565b005b6101a660048036038101906101a19190611e97565b610677565b005b6101b061089c565b6040516101bd9190611ee5565b60405180910390f35b6101ce6108c0565b6040516101db9190611f0f565b60405180910390f35b6101fe60048036038101906101f99190611e97565b6108c6565b60405161020b9190611f0f565b60405180910390f35b61021c610916565b6040516102299190611f0f565b60405180910390f35b61024c60048036038101906102479190611f68565b61091c565b6040516102599190611f0f565b60405180910390f35b61027c60048036038101906102779190611f68565b610999565b60405161028a929190611f95565b60405180910390f35b61029b6109bd565b6040516102a89190611f0f565b60405180910390f35b6102cb60048036038101906102c69190611e97565b610a5e565b6040516102d89190611fcd565b60405180910390f35b6102e9610a9d565b6040516102f69190611f0f565b60405180910390f35b610307610aa3565b005b610323600480360381019061031e9190611f68565b610aed565b005b61033f600480360381019061033a9190611e97565b610af9565b60405161034c9190611f0f565b60405180910390f35b61036f600480360381019061036a9190611e97565b610b56565b005b61038b60048036038101906103869190611fe8565b610ccc565b005b6103a760048036038101906103a29190611e97565b610f95565b005b6103c360048036038101906103be9190611f68565b61128b565b6040516103d09190611f0f565b60405180910390f35b6103f360048036038101906103ee9190611f68565b6112a3565b005b61040f600480360381019061040a9190611f68565b6113e4565b60405161041c9190612043565b60405180910390f35b61042d611449565b60405161043a9190611f0f565b60405180910390f35b61044b61153d565b005b60008054906101000a900473ffffffffffffffffffffffffffffffffffffffff1681565b610479611698565b80600360003373ffffffffffffffffffffffffffffffffffffffff1673ffffffffffffffffffffffffffffffffffffffff1681526020019081526020016000205410156104fb576040517f08c379a00000000000000000000000000000000000000000000000000000000081526004016104f2906120bb565b60405180910390fd5b6000610506826108c6565b9050806105116109bd565b1015610552576040517f08c379a000000000000000000000000000000000000000000000000000000000815260040161054990612127565b60405180910390fd5b80600160008282546105649190612176565b9250508190555081600360003373ffffffffffffffffffffffffffffffffffffffff1673ffffffffffffffffffffffffffffffffffffffff16815260200190815260200160002060008282546105ba9190612176565b9250508190555081600460008282546105d39190612176565b9250508190555061062533827f000000000000000000000000000000000000000000000000000000000000000073ffffffffffffffffffffffffffffffffffffffff166117579092919063ffffffff16565b3373ffffffffffffffffffffffffffffffffffffffff167f884edad9ce6fa2440d8a54cc123490eb96d2768479d49ff9c7366125a94243648260405161066b9190611f0f565b60405180910390a25050565b6000810361068d57610688336117d6565b610899565b6000600560003373ffffffffffffffffffffffffffffffffffffffff1673ffffffffffffffffffffffffffffffffffffffff1681526020019081526020016000206000015490506106dd336117d6565b6000600560003373ffffffffffffffffffffffffffffffffffffffff1673ffffffffffffffffffffffffffffffffffffffff168152602001908152602001600020905060008160000154905060008103610763576040517fd32e7fc600000000000000000000000000000000000000000000000000000000815260040160405180910390fd5b60008185116107725784610774565b815b905080826107829190612176565b836000018190555060008360000154036107a557600083600101819055506107af565b4283600101819055505b600084836107bd9190612176565b905060008183116107cf5760006107dc565b81836107db9190612176565b5b905080600260008282546107f09190612176565b925050819055506108443330857f000000000000000000000000000000000000000000000000000000000000000073ffffffffffffffffffffffffffffffffffffffff16611c22909392919063ffffffff16565b3373ffffffffffffffffffffffffffffffffffffffff167f0516911bcc3a0a7412a44601057c0a0a1ec628bde049a84284bc4288665344888460405161088a9190611f0f565b60405180910390a25050505050505b50565b7f000000000000000000000000000000000000000000000000000000000000000081565b60045481565b600080600454036108da5760009050610911565b60045460026004546108ec91906121d9565b600154846108fa919061220a565b610904919061224c565b61090e91906121d9565b90505b919050565b60025481565b60008061092883611ca4565b90506000600560008573ffffffffffffffffffffffffffffffffffffffff1673ffffffffffffffffffffffffffffffffffffffff16815260200190815260200160002060000154905081811061098357600092505050610994565b808261098f9190612176565b925050505b919050565b60056020528060005260406000206000915090508060000154908060010154905082565b60007f000000000000000000000000000000000000000000000000000000000000000073ffffffffffffffffffffffffffffffffffffffff166370a08231306040518263ffffffff1660e01b8152600401610a189190611fcd565b602060405180830381865afa158015610a35573d6000803e3d6000fd5b505050506040513d601f19601f82011682018060405250810190610a599190612295565b905090565b60068181548110610a6e57600080fd5b906000526020600020016000915054906101000a900473ffffffffffffffffffffffffffffffffffffffff1681565b60015481565b610aeb600360003373ffffffffffffffffffffffffffffffffffffffff1673ffffffffffffffffffffffffffffffffffffffff16815260200190815260200160002054610471565b565b610af6816117d6565b50565b6000806001541480610b0d57506000600454145b15610b1a57819050610b51565b6001546002600154610b2c91906121d9565b60045484610b3a919061220a565b610b44919061224c565b610b4e91906121d9565b90505b919050565b60008103610b90576040517f1f2a200500000000000000000000000000000000000000000000000000000000815260040160405180910390fd5b610b98611698565b6000610ba382610af9565b90508160016000828254610bb7919061224c565b925050819055508060046000828254610bd0919061224c565b9250508190555080600360003373ffffffffffffffffffffffffffffffffffffffff1673ffffffffffffffffffffffffffffffffffffffff1681526020019081526020016000206000828254610c26919061224c565b92505081905550610c7a3330847f000000000000000000000000000000000000000000000000000000000000000073ffffffffffffffffffffffffffffffffffffffff16611c22909392919063ffffffff16565b3373ffffffffffffffffffffffffffffffffffffffff167fe1fffcc4923d04b559f4d29a8bfc6cda04eb5b0d3c460751c2402c5c5cc9109c83604051610cc09190611f0f565b60405180910390a25050565b60008103610d06576040517f1f2a200500000000000000000000000000000000000000000000000000000000815260040160405180910390fd5b610d0f826117d6565b6000600560008473ffffffffffffffffffffffffffffffffffffffff1673ffffffffffffffffffffffffffffffffffffffff168152602001908152602001600020905060008160000154905060008103610d95576040517fd32e7fc600000000000000000000000000000000000000000000000000000000815260040160405180910390fd5b610d9e846113e4565b15610dd5576040517ff4a746df00000000000000000000000000000000000000000000000000000000815260040160405180910390fd5b6000818411610de45783610de6565b815b90506000670de0b6b3a7640000670e92596fd629000083610e07919061220a565b610e1191906121d9565b90506000610e1e82610af9565b90506000600360008973ffffffffffffffffffffffffffffffffffffffff1673ffffffffffffffffffffffffffffffffffffffff16815260200190815260200160002054905080821115610e70578091505b81600360008a73ffffffffffffffffffffffffffffffffffffffff1673ffffffffffffffffffffffffffffffffffffffff1681526020019081526020016000206000828254610ebf9190612176565b9250508190555081600360003373ffffffffffffffffffffffffffffffffffffffff1673ffffffffffffffffffffffffffffffffffffffff1681526020019081526020016000206000828254610f15919061224c565b925050819055508773ffffffffffffffffffffffffffffffffffffffff163373ffffffffffffffffffffffffffffffffffffffff167f1f0c6615429d1cdae0dfa233abf91d3b31cdbdd82c8081389832a61e1072f1ea86610f75866108c6565b604051610f83929190611f95565b60405180910390a35050505050505050565b60008111610fd8576040517f08c379a0000000000000000000000000000000000000000000000000000000008152600401610fcf9061230e565b60405180910390fd5b610fe1336117d6565b6000600560003373ffffffffffffffffffffffffffffffffffffffff1673ffffffffffffffffffffffffffffffffffffffff168152602001908152602001600020600001540361108f576006339080600181540180825580915050600190039060005260206000200160009091909190916101000a81548173ffffffffffffffffffffffffffffffffffffffff021916908373ffffffffffffffffffffffffffffffffffffffff1602179055505b600061109a3361091c565b90508082600560003373ffffffffffffffffffffffffffffffffffffffff1673ffffffffffffffffffffffffffffffffffffffff168152602001908152602001600020600001546110eb919061224c565b111561112c576040517f08c379a00000000000000000000000000000000000000000000000000000000081526004016111239061237a565b60405180910390fd5b816111356109bd565b101561116d576040517fbb55fd2700000000000000000000000000000000000000000000000000000000815260040160405180910390fd5b6000600560003373ffffffffffffffffffffffffffffffffffffffff1673ffffffffffffffffffffffffffffffffffffffff1681526020019081526020016000209050828160000160008282546111c4919061224c565b9250508190555042816001018190555082600260008282546111e6919061224c565b9250508190555061123833847f000000000000000000000000000000000000000000000000000000000000000073ffffffffffffffffffffffffffffffffffffffff166117579092919063ffffffff16565b3373ffffffffffffffffffffffffffffffffffffffff167fac59582e5396aca512fa873a2047e7f4c80f8f55d4a06cb34a78a0187f62719f8460405161127e9190611f0f565b60405180910390a2505050565b60036020528060005260406000206000915090505481565b600073ffffffffffffffffffffffffffffffffffffffff1660008054906101000a900473ffffffffffffffffffffffffffffffffffffffff1673ffffffffffffffffffffffffffffffffffffffff1614611332576040517f08c379a0000000000000000000000000000000000000000000000000000000008152600401611329906123e6565b60405180910390fd5b600073ffffffffffffffffffffffffffffffffffffffff168173ffffffffffffffffffffffffffffffffffffffff16036113a1576040517f08c379a000000000000000000000000000000000000000000000000000000000815260040161139890612452565b60405180910390fd5b806000806101000a81548173ffffffffffffffffffffffffffffffffffffffff021916908373ffffffffffffffffffffffffffffffffffffffff16021790555050565b60006113ee611698565b60006113f983611ca4565b905080600560008573ffffffffffffffffffffffffffffffffffffffff1673ffffffffffffffffffffffffffffffffffffffff168152602001908152602001600020600001541115915050919050565b6000807f000000000000000000000000000000000000000000000000000000000000000073ffffffffffffffffffffffffffffffffffffffff166370a08231306040518263ffffffff1660e01b81526004016114a59190611fcd565b602060405180830381865afa1580156114c2573d6000803e3d6000fd5b505050506040513d601f19601f820116820180604052508101906114e69190612295565b9050600081036114fa57600091505061153a565b80600254111561151557670de0b6b3a764000091505061153a565b80670de0b6b3a764000060025461152c919061220a565b61153691906121d9565b9150505b90565b611546336117d6565b6000600560003373ffffffffffffffffffffffffffffffffffffffff1673ffffffffffffffffffffffffffffffffffffffff1681526020019081526020016000209050600081600001549050600081036115cc576040517fd32e7fc600000000000000000000000000000000000000000000000000000000815260040160405180910390fd5b600082600001819055506000826001018190555080600260008282546115f29190612176565b925050819055506116463330837f000000000000000000000000000000000000000000000000000000000000000073ffffffffffffffffffffffffffffffffffffffff16611c22909392919063ffffffff16565b3373ffffffffffffffffffffffffffffffffffffffff167f0516911bcc3a0a7412a44601057c0a0a1ec628bde049a84284bc4288665344888260405161168c9190611f0f565b60405180910390a25050565b60005b600680549050811015611754576000600682815481106116be576116bd612472565b5b9060005260206000200160009054906101000a900473ffffffffffffffffffffffffffffffffffffffff1690506000600560008373ffffffffffffffffffffffffffffffffffffffff1673ffffffffffffffffffffffffffffffffffffffff1681526020019081526020016000206000015411156117405761173f816117d6565b5b50808061174c906124a1565b91505061169b565b50565b6117d1838473ffffffffffffffffffffffffffffffffffffffff1663a9059cbb858560405160240161178a9291906124e9565b604051602081830303815290604052915060e01b6020820180517bffffffffffffffffffffffffffffffffffffffffffffffffffffffff8381831617835250505050611d20565b505050565b6000600560008373ffffffffffffffffffffffffffffffffffffffff1673ffffffffffffffffffffffffffffffffffffffff168152602001908152602001600020600001540315611c1f576000600560008373ffffffffffffffffffffffffffffffffffffffff1673ffffffffffffffffffffffffffffffffffffffff16815260200190815260200160002060010154426118719190612176565b9050600081036118815750611c1f565b60008060009054906101000a900473ffffffffffffffffffffffffffffffffffffffff1673ffffffffffffffffffffffffffffffffffffffff166302b8c56d3073ffffffffffffffffffffffffffffffffffffffff1663ea21cd926040518163ffffffff1660e01b8152600401602060405180830381865afa15801561190b573d6000803e3d6000fd5b505050506040513d601f19601f8201168201806040525081019061192f9190612295565b6040518263ffffffff1660e01b815260040161194b9190611f0f565b600060405180830381600087803b15801561196557600080fd5b505af1925050508015611976575060015b5060008054906101000a900473ffffffffffffffffffffffffffffffffffffffff1673ffffffffffffffffffffffffffffffffffffffff1663f71bd11b3073ffffffffffffffffffffffffffffffffffffffff1663ea21cd926040518163ffffffff1660e01b8152600401602060405180830381865afa1580156119fe573d6000803e3d6000fd5b505050506040513d601f19601f82011682018060405250810190611a229190612295565b6040518263ffffffff1660e01b8152600401611a3e9190611f0f565b602060405180830381865afa158015611a5b573d6000803e3d6000fd5b505050506040513d601f19601f82011682018060405250810190611a7f9190612295565b90506000670de0b6b3a76400008383600560008873ffffffffffffffffffffffffffffffffffffffff1673ffffffffffffffffffffffffffffffffffffffff16815260200190815260200160002060000154611adb919061220a565b611ae5919061220a565b611aef91906121d9565b90506000811115611c1b5780600560008673ffffffffffffffffffffffffffffffffffffffff1673ffffffffffffffffffffffffffffffffffffffff1681526020019081526020016000206000016000828254611b4c919061224c565b925050819055508060026000828254611b65919061224c565b925050819055508060016000828254611b7e919061224c565b9250508190555042600560008673ffffffffffffffffffffffffffffffffffffffff1673ffffffffffffffffffffffffffffffffffffffff168152602001908152602001600020600101819055508373ffffffffffffffffffffffffffffffffffffffff167f5e804d42ae3b860f881d11cb44a4bb1f2f0d5b3d081f5539a32d6f97b629d97882604051611c129190611f0f565b60405180910390a25b5050505b50565b611c9e848573ffffffffffffffffffffffffffffffffffffffff166323b872dd868686604051602401611c5793929190612512565b604051602081830303815290604052915060e01b6020820180517bffffffffffffffffffffffffffffffffffffffffffffffffffffffff8381831617835250505050611d20565b50505050565b600080611cef600360008573ffffffffffffffffffffffffffffffffffffffff1673ffffffffffffffffffffffffffffffffffffffff168152602001908152602001600020546108c6565b9050670de0b6b3a764000067094079cd1a42aaab82611d0e919061220a565b611d1891906121d9565b915050919050565b600080602060008451602086016000885af180611d43576040513d6000823e3d81fd5b3d925060005191505060008214611d5e576001811415611d7a565b60008473ffffffffffffffffffffffffffffffffffffffff163b145b15611dbc57836040517f5274afe7000000000000000000000000000000000000000000000000000000008152600401611db39190611fcd565b60405180910390fd5b50505050565b600073ffffffffffffffffffffffffffffffffffffffff82169050919050565b6000819050919050565b6000611e07611e02611dfd84611dc2565b611de2565b611dc2565b9050919050565b6000611e1982611dec565b9050919050565b6000611e2b82611e0e565b9050919050565b611e3b81611e20565b82525050565b6000602082019050611e566000830184611e32565b92915050565b600080fd5b6000819050919050565b611e7481611e61565b8114611e7f57600080fd5b50565b600081359050611e9181611e6b565b92915050565b600060208284031215611ead57611eac611e5c565b5b6000611ebb84828501611e82565b91505092915050565b6000611ecf82611e0e565b9050919050565b611edf81611ec4565b82525050565b6000602082019050611efa6000830184611ed6565b92915050565b611f0981611e61565b82525050565b6000602082019050611f246000830184611f00565b92915050565b6000611f3582611dc2565b9050919050565b611f4581611f2a565b8114611f5057600080fd5b50565b600081359050611f6281611f3c565b92915050565b600060208284031215611f7e57611f7d611e5c565b5b6000611f8c84828501611f53565b91505092915050565b6000604082019050611faa6000830185611f00565b611fb76020830184611f00565b9392505050565b611fc781611f2a565b82525050565b6000602082019050611fe26000830184611fbe565b92915050565b60008060408385031215611fff57611ffe611e5c565b5b600061200d85828601611f53565b925050602061201e85828601611e82565b9150509250929050565b60008115159050919050565b61203d81612028565b82525050565b60006020820190506120586000830184612034565b92915050565b600082825260208201905092915050565b7f496e73756666696369656e742073686172657300000000000000000000000000600082015250565b60006120a560138361205e565b91506120b08261206f565b602082019050919050565b600060208201905081810360008301526120d481612098565b9050919050565b7f496e73756666696369656e74206c697175696469747900000000000000000000600082015250565b600061211160168361205e565b915061211c826120db565b602082019050919050565b6000602082019050818103600083015261214081612104565b9050919050565b7f4e487b7100000000000000000000000000000000000000000000000000000000600052601160045260246000fd5b600061218182611e61565b915061218c83611e61565b92508282039050818111156121a4576121a3612147565b5b92915050565b7f4e487b7100000000000000000000000000000000000000000000000000000000600052601260045260246000fd5b60006121e482611e61565b91506121ef83611e61565b9250826121ff576121fe6121aa565b5b828204905092915050565b600061221582611e61565b915061222083611e61565b925082820261222e81611e61565b9150828204841483151761224557612244612147565b5b5092915050565b600061225782611e61565b915061226283611e61565b925082820190508082111561227a57612279612147565b5b92915050565b60008151905061228f81611e6b565b92915050565b6000602082840312156122ab576122aa611e5c565b5b60006122b984828501612280565b91505092915050565b7f416d6f756e74206d757374206265203e20300000000000000000000000000000600082015250565b60006122f860128361205e565b9150612303826122c2565b602082019050919050565b60006020820190508181036000830152612327816122eb565b9050919050565b7f4578636565647320636f6c6c61746572616c20666163746f7200000000000000600082015250565b600061236460198361205e565b915061236f8261232e565b602082019050919050565b6000602082019050818103600083015261239381612357565b9050919050565b7f69726d20616c7265616479207365740000000000000000000000000000000000600082015250565b60006123d0600f8361205e565b91506123db8261239a565b602082019050919050565b600060208201905081810360008301526123ff816123c3565b9050919050565b7f69726d207a65726f000000000000000000000000000000000000000000000000600082015250565b600061243c60088361205e565b915061244782612406565b602082019050919050565b6000602082019050818103600083015261246b8161242f565b9050919050565b7f4e487b7100000000000000000000000000000000000000000000000000000000600052603260045260246000fd5b60006124ac82611e61565b91507fffffffffffffffffffffffffffffffffffffffffffffffffffffffffffffffff82036124de576124dd612147565b5b600182019050919050565b60006040820190506124fe6000830185611fbe565b61250b6020830184611f00565b9392505050565b60006060820190506125276000830186611fbe565b6125346020830185611fbe565b6125416040830184611f00565b94935050505056fea26469706673582212202568a5cf86c72cca94739634f9fe827712e757072e7f14dd52a5e457a6f3db2164736f6c63430008140033",
  "linkReferences": {},
  "deployedLinkReferences": {}
}