{
  "_format": "hh-sol-artifact-1",
  "contractName": "DynamicInterestRateModel",
  "sourceName": "contracts/interest/DynamicInterestRateModel.sol",
  "abi": [
    {
      "inputs": [
        {
          "internalType": "address",
          "name": "_repoRateOracle",
          "type": "address"
        },
        {
          "internalType": "uint256",
          "name": "_baseRatePerSecond",
          "type": "uint256"
        },
        {
          "internalType": "uint256",
          "name": "_utilizationMultiplier",
          "type": "uint256"
        },
        {
          "internalType": "address",
          "name": "admin",
          "type": "address"
        }
      ],
      "stateMutability": "nonpayable",
      "type": "constructor"
    },
    {
      "inputs": [
        {
          "internalType": "address",
          "name": "owner",
          "type": "address"
        }
      ],
      "name": "OwnableInvalidOwner",
      "type": "error"
    },
    {
      "inputs": [
        {
          "internalType": "address",
          "name": "account",
          "type": "address"
        }
      ],
      "name": "OwnableUnauthorizedAccount",
      "type": "error"
    },
    {
      "anonymous": false,
      "inputs": [
        {
          "indexed": false,
          "internalType": "uint256",
          "name": "baseRatePerSecond",
          "type": "uint256"
        },
        {
          "indexed": false,
          "internalType": "uint256",
          "name": "utilizationMultiplier",
          "type": "uint256"
        }
      ],
      "name": "NewParameters",
      "type": "event"
    },
    {
      "anonymous": false,
      "inputs": [
        {
          "indexed": true,
          "internalType": "address",
          "name": "previousOwner",
          "type": "address"
        },
        {
          "indexed": true,
          "internalType": "address",
          "name": "newOwner",
          "type": "address"
        }
      ],
      "name": "OwnershipTransferred",
      "type": "event"
    },
    {
      "inputs": [],
      "name": "baseRatePerSecond",
      "outputs": [
        {
          "internalType": "uint256",
          "name": "",
          "type": "uint256"
        }
      ],
      "stateMutability": "view",
      "type": "function"
    },
    {
      "inputs": [
        {
          "internalType": "uint256",
          "name": "_utilization",
          "type": "uint256"
        }
      ],
      "name": "getBorrowRatePerSecond",
      "outputs": [
        {
          "internalType": "uint256",
          "name": "",
          "type": "uint256"
        }
      ],
      "stateMutability": "view",
      "type": "function"
    },
    {
      "inputs": [],
      "name": "owner",
      "outputs": [
        {
          "internalType": "address",
          "name": "",
          "type": "address"
        }
      ],
      "stateMutability": "view",
      "type": "function"
    },
    {
      "inputs": [],
      "name": "renounceOwnership",
      "outputs": [],
      "stateMutability": "nonpayable",
      "type": "function"
    },
    {
      "inputs": [],
      "name": "repoRateOracle",
      "outputs": [
        {
          "internalType": "contract GlobalRepoRateOracle",
          "name": "",
          "type": "address"
        }
      ],
      "stateMutability": "view",
      "type": "function"
    },
    {
      "inputs": [
        {
          "internalType": "uint256",
          "name": "_baseRatePerSecond",
          "type": "uint256"
        },
        {
          "internalType": "uint256",
          "name": "_utilizationMultiplier",
          "type": "uint256"
        }
      ],
      "name": "setParameters",
      "outputs": [],
      "stateMutability": "nonpayable",
      "type": "function"
    },
    {
      "inputs": [
        {
          "internalType": "address",
          "name": "newOwner",
          "type": "address"
        }
      ],
      "name": "transferOwnership",
      "outputs": [],
      "stateMutability": "nonpayable",
      "type": "function"
    },
    {
      "inputs": [
        {
          "internalType": "uint256",
          "name": "",
          "type": "uint256"
        }
      ],
      "name": "updateBorrowRate",
      "outputs": [],
      "stateMutability": "nonpayable",
      "type": "function"
    },
    {
      "inputs": [],
      "name": "utilizationMultiplier",
      "outputs": [
        {
          "internalType": "uint256",
          "name": "",
          "type": "uint256"
        }
      ],
      "stateMutability": "view",
      "type": "function"
    }
  ],
  "bytecode": "0x608060405234801561001057600080fd5b506040516105a33803806105a383398101604081905261002f91610101565b806001600160a01b03811661005e57604051631e4fbdf760e01b81526000600482015260240160405180910390fd5b61006781610095565b5050600180546001600160a01b0319166001600160a01b039490941693909317909255600255600355610147565b600080546001600160a01b038381166001600160a01b0319831681178455604051919092169283917f8be0079c531659141344cd1fd0a4f28419497f9722a3daafe3b4186f6b6457e09190a35050565b80516001600160a01b03811681146100fc57600080fd5b919050565b6000806000806080858703121561011757600080fd5b610120856100e5565b9350602085015192506040850151915061013c606086016100e5565b905092959194509250565b61044d806101566000396000f3fe608060405234801561001057600080fd5b50600436106100935760003560e01c80638da5cb5b116100665780638da5cb5b146100e25780639f2f61d714610107578063d90e02641461011a578063f2fde38b14610123578063f71bd11b1461013657600080fd5b806302b8c56d146100985780635b382989146100ab578063715018a6146100c7578063884870c7146100cf575b600080fd5b6100a96100a636600461032b565b50565b005b6100b460035481565b6040519081526020015b60405180910390f35b6100a9610149565b6100a96100dd366004610344565b61015d565b6000546001600160a01b03165b6040516001600160a01b0390911681526020016100be565b6001546100ef906001600160a01b031681565b6100b460025481565b6100a9610131366004610366565b6101ac565b6100b461014436600461032b565b6101ec565b6101516102ae565b61015b60006102db565b565b6101656102ae565b6002829055600381905560408051838152602081018390527f466000346b59ec4877e51eb5253518b5238b636e596b47be2a6ab1fe6fdfc31f910160405180910390a15050565b6101b46102ae565b6001600160a01b0381166101e357604051631e4fbdf760e01b8152600060048201526024015b60405180910390fd5b6100a6816102db565b600080600160009054906101000a90046001600160a01b03166001600160a01b031663ef4970ab6040518163ffffffff1660e01b8152600401602060405180830381865afa158015610242573d6000803e3d6000fd5b505050506040513d601f19601f820116820180604052508101906102669190610396565b90506000670de0b6b3a76400006003548561028191906103c5565b61028b91906103e2565b9050818160025461029c9190610404565b6102a69190610404565b949350505050565b6000546001600160a01b0316331461015b5760405163118cdaa760e01b81523360048201526024016101da565b600080546001600160a01b038381166001600160a01b0319831681178455604051919092169283917f8be0079c531659141344cd1fd0a4f28419497f9722a3daafe3b4186f6b6457e09190a35050565b60006020828403121561033d57600080fd5b5035919050565b6000806040838503121561035757600080fd5b50508035926020909101359150565b60006020828403121561037857600080fd5b81356001600160a01b038116811461038f57600080fd5b9392505050565b6000602082840312156103a857600080fd5b5051919050565b634e487b7160e01b600052601160045260246000fd5b80820281158282048414176103dc576103dc6103af565b92915050565b6000826103ff57634e487b7160e01b600052601260045260246000fd5b500490565b808201808211156103dc576103dc6103af56fea26469706673582212200fb5b46f73173022dcd1eee4a118ea964dcd61864611252bb1030f50e5fabf1e64736f6c63430008140033",
  "linkReferences": {},
  "deployedLinkReferences": {}
}